:1000000036C1000065C1000063C1000061C100008D
:100010005FC100005DC100005BC1000059C100006C
:1000200057C100000C941B140C941B140C941B144B
:100030004FC100000C9484104BC1000049C1000066
:1000400047C1000045C1000043C1000041C100009C
:100050003FC100003DC100003BC100000C94DB1C0F
:1000600037C100000C9405120C94DC1131C1000062
:100070002FC100002DC100002BC1000029C10000CC
:1000800027C1000025C1000023C1000021C10000DC
:100090000C94B2110C9489111BC100000C942F1206
:1000A00017C1000015C1000013C1000011C10000FC
:1000B0000FC100000DC100000BC1000009C100000C
:1000C00007C1000005C1000003C100000C945F11CE
:1000D0000C943611FDC000000C940C110C94E3102C
:1000E000F7C000003105310520072007020714077B
:1000F0003407340734073407340734073407340728
:10010000310520076305630598079807CE070D089A
:10011000A105A105A105A105A105A105A105A105AF
:100120001C086D08F01BF31BE21BE61BEC1B2A1CD2
:10013000F71BFB1B011C051C091C0F1C131C171CA7
:100140002A1C1D1C211C251C020000220025002841
:10015000002B002E003100340002010000050108D0
:10016000010B01000020002300260029002C002F95
:100170000032000001000003010601090105050528
:1001800005070508080808020202020A0A0808040E
:10019000040404010101010101010103030303033C
:1001A000030303040707070C0C0C0C0C0C0C0C02CB
:1001B00002020206060606060606060B0B0B0B0BD2
:1001C0000B0B0B01021020200808102040102040CB
:1001D000800201020108040201010204081020400B
:1001E0008080402010080402018004020180402029
:1001F0001008040201080402010102040810204052
:1002000080010204081020408000000A0B02090C43
:100210000D0E0807030401000000000000000000AC
:1002200000000000000000000000000000000000CE
:10023000000000000012111000000000000000008B
:1002400000000000000000000000000000000000AE
:10025000002100240027002A002D00300033000177
:10026000010000040107010A01003F262226112493
:100270001FBECFEFD1E2DEBFCDBF00E00CBF12E06A
:10028000A0E0B2E0EAE9F5E500E00BBF02C00790AC
:100290000D92AC38B107D9F727E0ACE8B2E001C065
:1002A0001D92AB36B207E1F711E0C6E3D1E000E002
:1002B00006C021970109802FFE010E948629C533BF
:1002C000D10780E00807A9F70E94251D0C94BC2ADD
:1002D00097CE4F925F926F927F928F929F92AF9242
:1002E000BF92CF92DF92EF92FF920F931F93CF9323
:1002F000DF93E091D806F091D906C081D181812C9D
:10030000912C88ECA82E82E4B82E8AAA9BAAACAACB
:10031000BDAAC12C90EFD92E9FE7E92E95E4F92EC6
:10032000CEAADFAAE8AEF9AE8AAD882309F446C0AA
:100330000E8D1F8DF8014080518062807380A7016F
:100340009601C301B2010E941B2918168CF120E00E
:1003500030E048EC52E4C301B2010E94CC2787FD93
:1003600021C08EA09FA0A8A4B9A4CEA8DFA8E8AC05
:10037000F9ACA7019601C501B4010E941B2918160A
:1003800064F0CAA8DBA8ECA8FDA8A7019601C501E6
:10039000B4010E94CC2787FF11C0CEA2DFA2E8A63D
:1003A000F9A60CC0F80180829182A282B382D9CFD3
:1003B000F801C082D182E282F382D3CFDF91CF9164
:1003C0001F910F91FF90EF90DF90CF90BF90AF9073
:1003D0009F908F907F906F905F904F9008950E94B4
:1003E000721C0E94692820E034E244E759E40C942E
:1003F000D02708951F93CF93DF93EC010E940E1B2B
:10040000182FCE0101960E940E1B90E0982F88278E
:10041000810F911DDF91CF911F9108950F931F932D
:10042000CF93DF938C01EB01CB01E4DF80179107C1
:1004300059F0602FCE010E945218612FCE01019613
:100440000E94521881E001C080E0DF91CF911F919E
:100450000F9108952F923F924F925F926F927F92E9
:100460008F929F92AF92BF92CF92DF92EF92FF92C4
:100470000F931F93CF93DF9300D01F92CDB7DEB7BA
:100480009C838B83FC01E759FF4F80810B811C818A
:1004900008571F4F882309F465C00E94CF1C6B01C9
:1004A0007C01F80180809180A280B3802DEC3CEC2F
:1004B0004CE45DE3EB81FC81E457FF4F6081718187
:1004C000828193810E941F292B013C0120E030E0B2
:1004D00040EB51E4C501B4010E946727EB81FC8128
:1004E000EC56FF4F20813181428153810E941F29A8
:1004F0009B01AC01C301B2010E946727EB81FC8123
:10050000E856FF4F20813181428153810E94D027DC
:100510002B013C012B803C80FCE92F0E311CF101AA
:1005200080819181B601681B790B072E000C880B26
:10053000990B0E946B289B01AC01C301B2010E9480
:100540001F29A50194010E946827F8016083718327
:10055000828393830E94CF1CF10160837183828325
:1005600093838BC0EB80FC80F6E4EF0EF11CF70167
:1005700063817481636E716880810E94951780EB3E
:1005800094E00E94671CF70180810E94F217F70136
:100590002281022E02C0969587950A94E2F72223C3
:1005A00029F08115F8E09F0708F0906FCB80DC8080
:1005B00024E5C20ED11CF60191838083F70163818B
:1005C0007481636E716B80810E94951780EB94E05B
:1005D0000E94671CF70180810E94F217F7012281B7
:1005E000022E02C0969587950A94E2F7222329F0FD
:1005F0008115F8E09F0708F0906FEB81FC81EA5AC3
:10060000FF4F91838083BC01990F880B990B0E9447
:100610006B284B015C01F60160817181072E000C93
:10062000880B990B0E946B289B01AC01C501B4019A
:100630000E94D027EB81FC81E45BFF4F2081318158
:10064000428153810E941F29EB81FC81E455FF4FB9
:1006500020813181428153810E941F29EB81FC81DD
:10066000E055FF4F20813181428153810E946727ED
:10067000F80160837183828393830E94CF1CEB8196
:10068000FC81EC58FF4F60837183828393832B80BE
:100690003C80F0E72F0E311CF101C080D180E28058
:1006A000F3809B01AC012C193D094E095F096901DA
:1006B0007A01EB81FC81E858FF4F80819181A28112
:1006C000B38182179307A407B50708F03FC0F8016C
:1006D00080809180A280B3802B813C812B593F4F39
:1006E0003A8329834B815C814C575F4F5C834B83FA
:1006F000FA012081318142815381C501B4010E94F8
:1007000067272B013C01C701B6010E94692820E040
:1007100030E04AE754E40E94D0279B01AC01C301BA
:10072000B2010E94D027E981FA81608371838283BC
:100730009383EB81FC8180829182A282B3820E94AA
:10074000CF1CF1016083718382839383F801608100
:100750007181828193810F900F900F900F90DF91A4
:10076000CF911F910F91FF90EF90DF90CF90BF90AE
:10077000AF909F908F907F906F905F904F903F9041
:100780002F9008958F929F92AF92BF92CF92DF9257
:10079000EF92FF92CF93DF93EC016A017B01FC01A2
:1007A000E058FF4F80809180A280B3809A01AB0116
:1007B000C501B4010E94CC27CC53DF4F87FF05C091
:1007C00088829982AA82BB8212C020E030E0A9010F
:1007D000C701B6010E94CC2787FF05C01882198285
:1007E0001A821B8204C0C882D982EA82FB82DF910E
:1007F000CF91FF90EF90DF90CF90BF90AF909F9000
:100800008F9008954F925F926F927F928F929F92F6
:10081000AF92BF92CF92DF92EF92FF920F931F930E
:10082000CF93DF93CDB7DEB72A970FB6F894DEBF2C
:100830000FBECDBF8DEA92E09093450780934407A9
:100840008BE6809356078091FE06843028F48091D1
:10085000F9069091FA0604C08091FB069091FC067F
:10086000DC01ED91FC910084F185E02D1995882340
:1008700009F458C490914307891791F08093430776
:100880000E94CF1CDC01CB010596A11DB11D8093F8
:100890004E0790934F07A0935007B093510742C45F
:1008A0000E94CF1C00914E0710914F0720915007D6
:1008B00030915107601771078207930708F432C41B
:1008C000109243078091FF06823050F0809105011D
:1008D0008F7B80930501809105018F7D80930501B9
:1008E000109242078091FE0610E0843008F04BC061
:1008F0008091F9069091FA06DC01ED91FC9100845B
:10090000F185E02D1995892B09F44AC0B091420771
:10091000EB2FF0E0FA83E9838091F9069091FA06D3
:10092000DC01ED91FC910284F385E02D1995E981BC
:10093000FA81E750F94F8187809142078F5F80935A
:1009400042078034A8F211E0D3CFB0914207EB2FD9
:10095000F0E0FA83E9838091FB069091FC06DC01CC
:10096000ED91FC910284F385E02D1995E981FA81DE
:10097000E750F94F8187809142078F5F809342074C
:10098000803408F011E08091FB069091FC06DC01B8
:10099000ED91FC910084F185E02D1995892BA9F644
:1009A000809146079091470701969093470780935F
:1009B0004607112361F080914A0790914B070196F9
:1009C00090934B0780934A07FDEFF98303C0209172
:1009D0004207298339813093010737300CF4ADC0C9
:1009E000909102078091FD0698139CC38091420765
:1009F000A82FB0E0BA83A98382500E94D418E9815D
:100A0000FA81E750F94F278130E0322F22274085C5
:100A1000242B2817390761F080914A0790914B07E2
:100A2000019690934B0780934A07BFEFB98347C065
:100A300040910307E7E0F2E08FE092E02191241774
:100A400009F4D3C18E179F07C9F780914A07909187
:100A50004B07019690934B0780934A0721E0298327
:100A600022C080910407909105079827892798272D
:100A70009C0184E0369527958A95E1F780910607D9
:100A80009091070798278927982754E0969587958E
:100A90005A95E1F7820F931F90915607981708F027
:100AA000E3C192E0998380E8840F80930307F98182
:100AB000F093040783E0809342070E94F018E981D5
:100AC000E09301073AC020910407309105073227CF
:100AD00023273227409106075091070754274527BF
:100AE0005427FA0113E0F695E7951A95E1F78E2F52
:100AF000BA01677077276115710511F081E08E0FDB
:100B00008093040783E080934207420F531F90E0D5
:100B1000812C912C540183944217530709F0CAC1C8
:100B200080934207672B19F08F5F80934207F09103
:100B30004207FE5FF9830E94F018398135300CF4CA
:100B4000F1C261E08BE30E94771B80918103909159
:100B50008203019709F055C042DC6B017C01E091F2
:100B6000D806F091D906808191819A838983FC010E
:100B7000E457FF4FDC01A458BF4F2D913D914D919B
:100B80005C9160817181828193810E94D02720E0F5
:100B900030E048EC52E40E941F292B013C01E9811E
:100BA000FA81E857FF4F80809180A280B380A981AD
:100BB000BA81AC53BF4F6D917D918D919C9142E074
:100BC0000E94FF1980E492E00E94AD1942E0C50145
:100BD000B4010E94FF1980E492E00E94AD1942E046
:100BE000C301B2010E94FF1980E492E00E94AD1996
:100BF00046E0C701B6010E94FF1983E492E00E941B
:100C0000AD19EDDBC0908C02D0908D02E0908E0289
:100C1000F0908F02A70196010E9467274B015C01AB
:100C2000609131037091320380E090E00E94692866
:100C300020E030E040E251E40E94D0279B01AC016B
:100C4000C501B4010E941B2987FD17C0C8DB609352
:100C50008C0270938D0280938E0290938F0280910C
:100C6000350390913603019709F45EC20BEC12E054
:100C7000E8EEF3E0FA83E98324C0B1DBA701960133
:100C80000E94672720E030E0A9010E94CC2787FF5F
:100C90004BC2A701960160E070E080E89FE40E94EB
:100CA00067279B01AC0160E070E0CB010E946727E1
:100CB00060938C0270938D0280938E0290938F02CA
:100CC00033C269817A81D8018D919D918D01A6DB16
:100CD000E981FA813496FA83E983E115F44089F7D2
:100CE0000DEA12E01A82198269817A81D8018D9108
:100CF0009D918D0193DBE981FA813496FA83E98332
:100D0000749791F701EC12E069817A81D8018D9195
:100D10009D918D0183DBE981FA813496FA83E98321
:100D2000B89791F768E270E080911F0390912003DB
:100D300075DB6CE270E080912103909122036EDB01
:100D400060E370E080912D0390912E0367DB64E3F4
:100D500070E080912F039091300360DB68E370E0D6
:100D600080915B0390915C0359DB6CE370E08091B0
:100D70005D0390915E0352DB60E470E080915F035D
:100D8000909160034BDB64E470E0809131039091BB
:100D9000320344DB68E470E080917D0390917E0330
:100DA0003DDB6CE470E080917F039091800336DB43
:100DB00060E570E080913303909134032FDB01E60E
:100DC00013E024E530E03A83298369817A81D801F0
:100DD0008D919D918D0122DBE981FA813496FA8310
:100DE000E983E836F10589F79FC1842F90E0FC0183
:100DF0003197E031F105C0F58827EE58FF4F8F4F4E
:100E00000C948629809104079091050798278927DB
:100E1000982704E0969587950A95E1F790915607F3
:100E2000981708F4A4C620C0809104079091050784
:100E30009827892790915607981708F49CC614C0E4
:100E40008091060790910707382F292F809104077A
:100E500090910507982789279827820F931F9091D3
:100E60005607981708F48BC60E94CF1C20914C0798
:100E700030914D07DC01CB01820F931FA11DB11DE5
:100E80008093520790935307A0935407B09355074C
:100E900010920107E09103078E2F90E0FC0131973B
:100EA000E031F10508F04DCE8827EE57FF4F8F4F08
:100EB0000C948629F901A3E0F695E795AA95E1F748
:100EC000EE7FF170E355FD4FA081B181E22FEF700D
:100ED00002C0B695A795EA95E2F7E82FF0E0E75053
:100EE000F94FA0FF0EC0A18575016401092E04C051
:100EF000CC0CDD1CEE1CFF1C0A94D2F7CA2AC1865A
:100F00000FC075016401092E04C0CC0CDD1CEE1C61
:100F1000FF1C0A94D2F7AC2DA095B185AB23A18715
:100F20009F5F983010F08F5F90E02F5F3F4FF4CDC0
:100F3000209104073091050732272327322F809113
:100F4000060790910707982789279827482F440F6D
:100F500040930407E3E09927820F911D22E02E0FB2
:100F60002983A32FB0E0A817B907ACF4AA0FBB1FC1
:100F7000A355BD4F2C9111964C91AE2FB0E0A750C8
:100F8000B94F19964C93EF5FF0E0E750F94F218786
:100F90003F5FE981E3CFE0934207CDCD8091040725
:100FA00090910507982789279827FC0194E0F695EA
:100FB000E7959A95E1F7282F2F7080910607FF2774
:100FC000EE0FFF1FE355FD4F8F3F81F481E090E06E
:100FD000A0E0B0E004C0880F991FAA1FBB1F2A958C
:100FE000D2F720813181822B932B11C081E090E0D8
:100FF000A0E0B0E004C0880F991FAA1FBB1F2A956C
:10100000D2F780959095208131818223932391831B
:10101000808386E08093420782C0E0910507F0E07C
:10102000EE0FFF1FE355FD4F8091060790910707D4
:10103000982789279827EBCF80910407909105077F
:10104000982789279827409106075091070754272A
:1010500045275427480F591F20E037E0812C912C59
:101060005401839484179507A1F2A82FAF70E32F42
:10107000F0E0E750F94F618570E0022E02C07595EF
:1010800067950A94E2F7FC0174E0F695E7957A9586
:10109000E1F7FF27EE0FFF1FE355FD4F75016401D8
:1010A00004C0CC0CDD1CEE1CFF1CAA95D2F760FF1F
:1010B00005C060817181C62AD72A06C0C094D09429
:1010C00060817181C622D722D182C0822F5F2830F1
:1010D00010F03F5F20E00196C5CFE09105074091F9
:1010E00007071092060786E080934207A9EFB6E053
:1010F000F0E0EE0FFF1FE355FD4F20E01296421780
:1011000071F01E968C911E9790E0982F88271F965D
:101110003C911F97832B819391932F5FEFCF0E9478
:10112000F0180FCD60E00ECDE091D806F091D90611
:10113000808191819A878987FC01E659FF4F11824E
:10114000108240900F025090100260901102709037
:1011500012026091CF027091D00280E090E00E9474
:101160006928A30192010E94D0276B017C01609144
:10117000CD027091CE0280E090E00E946928A30128
:1011800092010E94D02769837A838B839C8360912C
:10119000CB027091CC0280E090E00E946928A3010C
:1011A00092010E94D0276D837E838F839887E98583
:1011B000FA85E056FF4F6083718382839383E985CC
:1011C000FA85EC55FF4F89819A81AB81BC81808380
:1011D0009183A283B383E985FA85E855FF4FC082E6
:1011E000D182E282F38220E030E0A9016D817E812C
:1011F0008F8198850E94CC2787FD25C020E030E0B4
:10120000A90169817A818B819C810E94CC2787FD0D
:101210001AC020E030E0A901C701B6010E94CC2726
:1012200087FD11C0A985BA855A96AD90BC905B9791
:1012300009811A812B813C814D815E816F81788586
:10124000CD010E946013E091D806F091D90620816B
:1012500031813A83298379013CEAE30EF11C6091E4
:10126000D1027091D20280E090E00E94692820E0D3
:1012700030E04AE754E40E94D027D7016D937D9374
:101280008D939C931397E980FA80B0EBEB0EF11CE1
:101290006091D3027091D40280E090E00E946928AE
:1012A000A30192010E94D027F7016083718382839A
:1012B00093836091D5027091D60280E090E00E9405
:1012C0006928E981FA81E454FF4F60837183828346
:1012D0009383E981FA81E45BFF4F608371838283AA
:1012E000938309811A8100581F4F609133037091D5
:1012F000340380E090E00E94692820E030E040E282
:1013000051E40E94D027D8016D937D938D939C93D7
:1013100013978091350390913603019709F01EC40D
:10132000E091D806F091D906208131813A83298352
:10133000F901E857FF4F20E030E040E251E46081DE
:101340007181828193810E941F290E943D287093A0
:101350003A0360933903E981FA81E457FF4FA98189
:10136000BA81A458BF4F2D913D914D915C91608100
:101370007181828193810E94D02720E030E048EC87
:1013800052E40E941F2920E030E040E251E40E9434
:101390001F290E943D287093480360934703609182
:1013A0001F037091200380E090E00E94692820E0F4
:1013B00030E040E251E40E94D027AB01BC018981BA
:1013C0009A81E0D9E091D806F091D9060190F08198
:1013D000E02DEC53FF4F20E030E040E251E460812B
:1013E0007181828193810E941F290E943D28709300
:1013F000200360931F030E94EF0120918D03309121
:101400008E0340918F03509190030E94672720E044
:1014100030E040E85FE30E941B2987FD0FC00E9477
:10142000EF0160938D0370938E0380938F039093ED
:1014300090032091E006243070F181C00E94EF01FA
:10144000C0908D03D0908E03E0908F03F0909003B6
:10145000A70196010E94672720E030E0A9010E94C1
:10146000CC2787FF97C0A701960160E070E080E875
:101470009FE40E9467279B01AC0160E070E0CB0114
:101480000E94672760938D0370938E0380938F0370
:10149000909390037FC06091E3067091E4066360CF
:1014A00071608091DE069091DF06682B792B2230E7
:1014B00041F0233041F0213011F0706405C07065B7
:1014C00003C0706601C07067C090E506D090E60664
:1014D000E090E706F090E80670688091DB060E94D5
:1014E000951720E030E040E251E4C701B6010E94C8
:1014F000CC2787FF0EC020E030E04AE754E4C70164
:10150000B6010E941F290E943828CB010E94671C47
:101510000AC0C701B6010E943828072E000C880BAC
:10152000990B0E94971C8091DB060E94F217009095
:10153000DD0602C0969587950A94E2F702C080E026
:1015400090E0BC0180E090E00E9469282091E906CB
:101550003091EA064091EB065091EC060E941F295B
:101560002091ED063091EE064091EF065091F00685
:101570000E9467276093F5067093F6068093F7063E
:101580009093F80660939002709391028093920278
:101590009093930220E030E04FE254E46091900297
:1015A0007091910280919202909193020E941B2966
:1015B000181644F410929002109291021092920226
:1015C0001092930220E030E040E251E460919002FA
:1015D0007091910280919202909193020E941F2932
:1015E0000E943D2870937C0360937B0386E30E94F6
:1015F0004F1B892B39F081E090E090937603809324
:10160000750304C01092760310927503609139033C
:1016100070913A0380E090E00E9469286B017C01A0
:1016200060917D0370917E0380E090E00E946928C4
:1016300026E636E646E85FE30E941F299B01AC01DF
:10164000C701B6010E941B2918160CF06FC28091C9
:10165000350390913603019709F068C280917F03AA
:10166000909180039A838983809100028F3321F0C7
:101670008F3F09F0EBC204C0E8E4F1E01491D3C05D
:101680008FE380930002E8E4F1E014911F3F09F436
:10169000DDC2123009F466C028F5112309F449C0EF
:1016A000113009F0C0C0109280001092810080912A
:1016B00081008860809381008091810081608093A7
:1016C0008100ECEBF1E0E491F0E0EE0FFF1FE75B4F
:1016D000FE4F85919491E2E0F2E0E491E09397026D
:1016E00011E048C1143009F47FC008F45EC0153021
:1016F00009F099C0109220011092210180912101DE
:101700008860809321018091210181608093210173
:10171000ECEBF1E0E491F0E0EE0FFF1FE75BFE4F32
:1017200085919491E2E0F2E0E491E093940215E077
:1017300021C114BC15BC84B5826084BD85B58160AF
:1017400085BDECEBF1E0E491F0E0EE0FFF1FE75B0D
:10175000FE4F85919491E2E0F2E0E491E0939802EB
:1017600010E06FC21092B0001092B1008091B000F2
:1017700082608093B0008091B10081608093B1005D
:10178000ECEBF1E0E491F0E0EE0FFF1FE75BFE4FC2
:10179000859194919093920380939103E2E0F2E01B
:1017A000E491E093930312E04CC2109290001092E7
:1017B00091008091910088608093910080919100C8
:1017C000816080939100ECEBF1E0E491F0E0EE0FAA
:1017D000FF1FE75BFE4F85919491E2E0F2E0E49118
:1017E000E093960213E0C6C01092A0001092A100F0
:1017F0008091A10088608093A1008091A100816008
:101800008093A100ECEBF1E0E491F0E0EE0FFF1F1C
:10181000E75BFE4F85919491E2E0F2E0E491E09382
:10182000950214E0A7C017FD11C261E08FE30E948A
:101830002B1C812F8D7F09F0A1C0A981BA816D0178
:10184000E12CF12C60E072E18AE790E0A7019601BB
:101850000E94292729013A01BA01A90141505109E1
:10186000610971094F3F51056105710509F008F4DF
:1018700045C060E472E48FE090E0A70196010E9409
:101880002927BA01A9014150510961097109123092
:10189000E9F44F3F51056105710509F008F465C190
:1018A00060E970ED83E090E0A70196010E9429278E
:1018B000BA01A90141505109610971094F3F510510
:1018C0006105710509F020F583E04DC04F3F5105DA
:1018D00061057105A9F0A0F068E478EE81E090E080
:1018E000A70196010E942927BA01A9014150510977
:1018F00061097109112309F475C16CC181E001C04E
:1019000082E0111130C095B5987F892B85BD95C0B7
:1019100068E478EE81E090E0A70196010E94292713
:10192000BA01A90141505109610971094F3F51059F
:101930006105710509F008F416C164E274EF80E0F6
:1019400090E0A70196010E942927BA01A901415000
:101950005109610971094F3F51056105710511F088
:1019600008F011C185E09091B100987F892B809398
:10197000B10052C061E08FE30E942B1CE981FA8123
:101980006F01E12CF12C60E072E18AE790E0A701A1
:1019900096010E942927BA01A90141505109610904
:1019A000710941155105F1E06F07710580F068E498
:1019B00078EE81E090E0A70196010E942927BA0104
:1019C000A901415051096109710983E001C081E019
:1019D000113039F490918100987F892B8093810098
:1019E0003EC0133039F490919100987F892B8093F9
:1019F00091005DC0143039F49091A100987F892B3B
:101A00008093A10069C0153039F490912101987F2D
:101A1000892B8093210175C01230B1F134F4112368
:101A200061F0113009F012C11AC0143009F454C029
:101A3000F4F1153009F465C009C147BD8FEF9FEF80
:101A4000DC018093A9029093AA02A093AB02B09309
:101A5000AC0280916E00826080936E00F7C050935C
:101A60008900409388008FEF9FEFDC018093A502EF
:101A70009093A602A093A702B093A80280916F0052
:101A8000826080936F00E2C04093B3008FEF9FEFBE
:101A9000DC018093940390939503A0939603B093F5
:101AA000970380917000826080937000CFC0509344
:101AB0009900409398008FEF9FEFDC018093A10283
:101AC0009093A202A093A302B093A402809171000C
:101AD000826080937100BAC05093A9004093A8001F
:101AE0008FEF9FEFDC0180939D0290939E02A09365
:101AF0009F02B093A0028091720082608093720076
:101B0000A5C050932901409328018FEF9FEFDC017E
:101B10008093990290939A02A0939B02B0939C02A7
:101B20008091730082608093730090C08FE32A9647
:101B30000FB6F894DEBF0FBECDBFDF91CF911F91DE
:101B40000F91FF90EF90DF90CF90BF90AF909F905C
:101B50008F907F906F905F904F9092C289819A8111
:101B60000E942A02DDCB84E0FECE82E0FCCEA2E021
:101B7000A9830C945305B2E0B9830C945305E2E0B9
:101B8000E9830C94530562E17AE780E090E0A701D5
:101B900096010E942927BA01A90141505109610902
:101BA00071094F3F51056105710591F088F0D3012E
:101BB000C2012AE0B595A795979587952A95D1F703
:101BC000AC01BD01415051096109710987E0CBCEDB
:101BD00086E0C9CE4F3F51056105710509F098F6C1
:101BE00084E08FCE4F3F51056105710541F138F119
:101BF00062E17AE780E090E0A70196010E94292740
:101C0000BA01A90141505109610971094F3F5105BC
:101C10006105710591F088F0D301C2013AE0B595F4
:101C2000A795979587953A95D1F7AC01BD0141509D
:101C300051096109710985E066CE84E064CE83E0D4
:101C400062CE61E08FE30E942B1CF7CD2A960FB67F
:101C5000F894DEBF0FBECDBFDF91CF911F910F91E2
:101C6000FF90EF90DF90CF90BF90AF909F908F90BC
:101C70007F906F905F904F900895CF92DF92EF9298
:101C8000FF920F931F93CF93DF936C017A018B0127
:101C9000C0E0D0E0CE15DF0581F0D8016D918D0157
:101CA000D601ED91FC910190F081E02DC6011995CE
:101CB000892B11F02196EECF7E01C701DF91CF91E4
:101CC0001F910F91FF90EF90DF90CF900895FC014E
:101CD000538D448D252F30E0842F90E0821B930B91
:101CE000541710F0CF96089501970895FC01918D37
:101CF000828D981761F0828DDF01A80FB11D5D966E
:101D00008C91928D9F5F9F73928F90E008958FEFDB
:101D10009FEF0895FC01918D828D981731F0828D8F
:101D2000E80FF11D858D90E008958FEF9FEF0895E6
:101D3000FC01918D228D892F90E0805C9F4F821B4A
:101D400091098F739927089584E594E0F1DF21E0EC
:101D5000892B09F420E0822F089581EF94E0E8DFD9
:101D600021E0892B09F420E0822F08958EE895E088
:101D7000DFDF21E0892B09F420E0822F08958BE238
:101D800096E0D6DF21E0892B09F420E0822F089528
:101D9000FC01848DDF01A80FB11DA35ABF4F2C9108
:101DA000848D90E001968F739927848FA689B789D7
:101DB0002C93A089B1898C91837080648C93938DCE
:101DC000848D981306C00288F389E02D80818F7D71
:101DD00080830895EF92FF920F931F93CF93DF9329
:101DE000EC0181E0888F9B8D8C8D981305C0E8896C
:101DF000F989808185FD25C0F62E0B8D10E00F5FDF
:101E00001F4F0F731127E02E8C8DE8120BC00FB6F9
:101E100007FCFACFE889F989808185FFF5CFCE01EB
:101E2000B7DFF2CF8B8DFE01E80FF11DE35AFF4FB4
:101E3000F0829FB7F8940B8FEA89FB8980818062DA
:101E40000AC09FB7F894EE89FF896083E889F98911
:101E500080818370806480839FBF81E090E0DF9108
:101E6000CF911F910F91FF90EF900895CF93DF9343
:101E7000EC01888D8823C1F0EA89FB89808185FD8A
:101E800005C0A889B9898C9186FD0EC00FB607FCE4
:101E9000F5CF808185FFF2CFA889B9898C9185FF24
:101EA000EDCFCE0175DFE8CFDF91CF91089580E0CF
:101EB00090E0892B19F063DF811116C080E090E07B
:101EC000892B19F053DF811112C080E090E0892B3B
:101ED00019F043DF81110EC080E090E0892B79F08A
:101EE00033DF81110AC008950E940000E7CF0E94ED
:101EF0000000EBCF0E940000EFCF0C94000008958B
:101F000085ED8093BC008091BC0084FDFCCF1092D5
:101F10004F0408954091C003262F30E0240F311D57
:101F200021323105DCF420914F042430C9F4FC0146
:101F300080E090E0861758F43091C0032191DC01D5
:101F4000A056BC4FA30FB11D2C930196F3CF8091E7
:101F5000C003680F6093C00380E0089581E0089596
:101F600082E00895089508950895E09153048091C2
:101F70005204E81730F4F0E0ED51FC4F808190E01E
:101F800008958FEF9FEF089590915304809152042C
:101F9000981750F4E92FF0E0ED51FC4F208130E02C
:101FA0009F5F9093530402C02FEF3FEFC901089544
:101FB0008091520490E020915304821B910908956E
:101FC000CF92DF92EF92FF920F931F93CF93DF9305
:101FD0007C01CB018A0120912704222389F0EB01A7
:101FE0006B01C40ED51ECC15DD0561F06991D701DA
:101FF000ED91FC910190F081E02DC7011995F3CF8F
:10200000642F88DFC801DF91CF911F910F91FF905E
:10201000EF90DF90CF900895CF93DF931F92CDB7CD
:10202000DEB76983209127042223D1F02091500448
:10203000203240F021E030E0FC013383228380E055
:1020400090E014C080915104E82FF0E0E85DFB4F70
:10205000998190838F5F809351048093500404C0D2
:1020600061E0CE01019656DF81E090E00F90DF91B4
:10207000CF910895089580E090E008950E94AF2ADE
:102080009091000289133DC0E8E4F1E0E4919FEFF4
:1020900090930002E230C9F050F4EE2399F0E13061
:1020A00081F590916F009D7F90936F002AC0E4307E
:1020B00019F1E0F0E53029F5909173009D7F909340
:1020C00073001FC010926E001CC0909170009D7F25
:1020D0009093700091E09093B0009091B100987F40
:1020E00094609093B1001092B3000BC09091710076
:1020F0009D7F9093710005C0909172009D7F909399
:10210000720060E00C94771B1F920F920FB60F9233
:1021100011240BB60F922F933F934F935F936F93BE
:102120007F938F939F93AF93BF93EF93FF93809190
:10213000940390919503A0919603B0919703892BF6
:102140008A2B8B2B51F190919303E0919103F091A5
:1021500092038081892780838091940390919503D5
:10216000A0919603B0919703181619061A061B063C
:10217000BCF48091940390919503A0919603B09143
:1021800097030197A109B109809394039093950354
:10219000A0939603B093970303C08091000270DF71
:1021A000FF91EF91BF91AF919F918F917F916F912F
:1021B0005F914F913F912F910F900BBE0F900FBEEB
:1021C0000F901F9018951F920F920FB60F92112427
:1021D0000BB60F922F933F934F935F936F937F9321
:1021E0008F939F93AF93BF93EF93FF9384E594E016
:1021F000CFDDFF91EF91BF91AF919F918F917F9133
:102200006F915F914F913F912F910F900BBE0F9067
:102210000FBE0F901F9018951F920F920FB60F923E
:1022200011240BB60F922F933F934F935F936F93AD
:102230007F938F939F93AF93BF93EF93FF9384E527
:1022400094E00E94361BFF91EF91BF91AF919F9157
:102250008F917F916F915F914F913F912F910F904F
:102260000BBE0F900FBE0F901F9018951F920F92EC
:102270000FB60F9211240BB60F922F933F934F93EB
:102280005F936F937F938F939F93AF93BF93EF93DE
:10229000FF9381EF94E07CDDFF91EF91BF91AF91CF
:1022A0009F918F917F916F915F914F913F912F916E
:1022B0000F900BBE0F900FBE0F901F9018951F929E
:1022C0000F920FB60F9211240BB60F922F933F93DC
:1022D0004F935F936F937F938F939F93AF93BF932E
:1022E000EF93FF9381EF94E00E94361BFF91EF91F3
:1022F000BF91AF919F918F917F916F915F914F911E
:102300003F912F910F900BBE0F900FBE0F901F901B
:1023100018951F920F920FB60F9211240BB60F92C1
:102320002F933F934F935F936F937F938F939F93DD
:10233000AF93BF93EF93FF938EE895E029DDFF9174
:10234000EF91BF91AF919F918F917F916F915F912D
:102350004F913F912F910F900BBE0F900FBE0F909A
:102360001F9018951F920F920FB60F9211240BB663
:102370000F922F933F934F935F936F937F938F931E
:102380009F93AF93BF93EF93FF938EE895E00E94E6
:10239000361BFF91EF91BF91AF919F918F917F91EC
:1023A0006F915F914F913F912F910F900BBE0F90C6
:1023B0000FBE0F901F9018951F920F920FB60F929D
:1023C00011240BB60F922F933F934F935F936F930C
:1023D0007F938F939F93AF93BF93EF93FF938BE282
:1023E00096E0D6DCFF91EF91BF91AF919F918F91D5
:1023F0007F916F915F914F913F912F910F900BBE05
:102400000F900FBE0F901F9018951F920F920FB64E
:102410000F9211240BB60F922F933F934F935F931C
:102420006F937F938F939F93AF93BF93EF93FF939C
:102430008BE296E00E94361BFF91EF91BF91AF9126
:102440009F918F917F916F915F914F913F912F91CC
:102450000F900BBE0F900FBE0F901F9018951F92FC
:102460000F920FB60F9211240BB60F922F933F933A
:102470004F935F936F937F938F939F93AF93BF938C
:10248000EF93FF938091B900887F803609F49CC058
:1024900068F5883209F45BC090F4803109F454C0C7
:1024A00038F4882309F4F6C0883009F44DC0F5C02B
:1024B000883109F44CC0803209F45DC0EEC080342C
:1024C00009F468C048F4803309F455C0883309F032
:1024D000E4C080932604D8C0803509F44FC0883505
:1024E00009F45DC0883409F0D8C0D6C0883909F431
:1024F000C7C0A8F4883709F467C038F4883609F4EF
:1025000063C0803709F460C0C8C0883809F4B8C017
:10251000803909F45FC0803809F0BFC05BC0803BE0
:1025200009F486C038F4803A09F466C0883A09F4A0
:102530007FC0B3C0803C09F4A7C0883C09F4A4C0A4
:10254000883B09F48AC0A9C08091030410C090910F
:10255000250480912404981770F5E091250481E00A
:102560008E0F80932504F0E0EC5FFB4F8081809319
:10257000BB0085EC86C0809326048EC0E0912504C4
:1025800081E08E0F809325048091BB00F0E0EC5F2A
:10259000FB4F808390912504809124046EC0E091CC
:1025A000250481E08E0F809325048091BB00F0E02C
:1025B000EC5FFB4F808380914E0481116DC081E000
:1025C00080934D0484EA61C083E080934F041092AD
:1025D000E203CFCF8091E203803208F051C0E09156
:1025E000E20381E08E0F8093E2038091BB00F0E074
:1025F000EE53FC4F8083BDCF85EC8093BC001092DE
:102600004F048091E203803230F4E091E203F0E085
:10261000EE53FC4F10826091E20370E0E0914904B8
:10262000F0914A0482EC93E019951092E20335C0D0
:1026300084E080934F041092C1031092C003E09194
:102640004B04F0914C0419958091C003811105C091
:1026500081E08093C0031092A003E091C10381E068
:102660008E0F8093C103F0E0E056FC4F8081809391
:10267000BB009091C1038091C003981708F479CFF3
:1026800085E88093BC0009C085EC8093BC00109263
:102690004F0403C01092260433DCFF91EF91BF91E9
:1026A000AF919F918F917F916F915F914F913F91EA
:1026B0002F910F900BBE0F900FBE0F901F9018958B
:1026C0004F925F926F927F928F929F92AF92BF9242
:1026D000CF92DF92EF92FF920F931F93CF93DF93EE
:1026E000CDB7DEB72A970FB6F894DEBF0FBECDBFC9
:1026F0009A8789872A013B0109831A832B833C83AC
:10270000DC015B96BC92AE925A9781E0AA94AB280A
:1027100009F080E0E985FA8583AF408251826282C8
:10272000738289819A81AB81BC8184839583A683DE
:10273000B783C086D186E286F38666A577A580A991
:1027400091A90E94692820E030E04AE754E40E9401
:10275000D0276D837E838F839887E985FA854486A9
:102760005586668677869B01AC0169817A818B816B
:102770009C810E941F294B015C01A985BA85509656
:102780006D937D938D939C9353972D813E814F81C3
:102790005885C701B6010E94D0276B017C01E985ED
:1027A000FA85648B758B868B978B808D918D0197C5
:1027B00059F5A301920160E070E0CB010E94672708
:1027C000A985BA851C966D937D938D939C931F97D5
:1027D000A501940160E070E0CB010E946727E985C4
:1027E000FA85608B718B828B938BA701960160E0D9
:1027F00070E0CB010E946727A985BA8554966D9336
:102800007D938D939C9357972A960FB6F894DEBFCD
:102810000FBECDBFDF91CF911F910F91FF90EF9031
:10282000DF90CF90BF90AF909F908F907F906F90F0
:102830005F904F9008951F920F920FB60F92112440
:102840000F900FBE0F901F901895E091D806F09151
:10285000D9060190F081E02D82AD811112C0DF0117
:10286000A457BF4F1D921D921D921C9213979397D0
:102870008C91811108C060E070E0CF018C599F4FAE
:10288000DDC312AEECCF08952F923F924F925F922C
:102890006F927F928F929F92AF92BF92CF92DF9270
:1028A000EF92FF920F931F93CF93DF93CDB7DEB7D5
:1028B0002F970FB6F894DEBF0FBECDBFE091D806BC
:1028C000F091D906808191819F878E87DC01DA960D
:1028D0008C9181114CC0AE85BF855E96ED91FC91C7
:1028E0005F97C080D180E280F380FD01C6A2D7A2AD
:1028F000E0A6F1A65C96ED91FC915D9780819181B7
:10290000A281B381EE85FF8582A793A7A4A7B5A76F
:1029100086A897A8A0ACB1ACA5019401C701B601E7
:102920000E941B29AE85BF851816D4F0D2968D90D3
:102930009D90AD90BC90D597A5019401C701B601BB
:102940000E94CC2787FD05C081E0EE85FF8582AF20
:102950000EC0EE85FF8586A297A2A0A6B1A6F4CFF1
:1029600096968D929D92AD92BC929997EDCF8E8561
:102970009F850E942A02EE85FF8582AD882309F497
:1029800038C10E94CF1C6D837E838F839887EE852C
:10299000FF8582A193A1A4A1B5A14D815E816F8124
:1029A0007885481B590B6A0B7B0B86A597A5A0A9B8
:1029B000B1A9481759076A077B0708F41AC1048CA4
:1029C000F58DE02D80819181A281B38189839A83E5
:1029D000AB83BC83AE85BF859096ED91FC919197BA
:1029E00029813A814B815C816081718182819381EF
:1029F0000E9467274B015C01EE85FF8522A533A568
:102A000044A555A569817A818B819C810E946727A5
:102A10006B017C01AE85BF8550962D913D914D9106
:102A20005C915397C501B4010E941F29EE85FF8573
:102A300026A137A140A551A50E9468272B013C0182
:102A4000AE85BF8596966D937D938D939C93999754
:102A5000DB96BC91B987BB2309F4B2C0EE85FF8534
:102A600046A057A060A471A416A907A930AC21AC58
:102A7000212F302F432D522DC301B2010E941B295B
:102A800018160CF492C0AE85BF85D2968D919D919B
:102A90000D90BC91A02D8A879B87AC87BD879C0138
:102AA000AD01C301B2010E94CC2787FD79C0F98531
:102AB000F11169C0812C912C5401AE85BF855496CB
:102AC0002D913D914D915C915797C701B6010E94A0
:102AD0001F299B01AC01EE85FF8566A177A180A52A
:102AE00091A50E946727A50194010E946827F62EF0
:102AF000E72ED82EC92E262F372F482F592F612F7A
:102B0000702F832D922D0E94CC2787FD1BC0AE8590
:102B1000BF85D2961C91D297D3960C91D397D49619
:102B20003C90D497D5962C90212F302F432D522DA9
:102B30006F2D7E2D8D2D9C2D0E94CC2787FD02C0F0
:102B400087011601AE85BF855E96ED91FC915F977A
:102B5000812F902FA32DB22D80839183A283B383E5
:102B600089819A81AB81BC81EE85FF8582A793A77D
:102B7000A4A7B5A78D819E81AF81B88582A393A3B9
:102B8000A4A3B5A336C0EE85FF852485358546858B
:102B90005785C501B4010E941F294B015C018DCFEF
:102BA0008A859B85AC85BD8504C0812F902FA32D80
:102BB000B22DEE85FF8586A397A3A0A7B1A777CFF7
:102BC000AE85BF851C962D913D914D915C911F97CF
:102BD000C701B6010E941F299B01AC01C301B201CC
:102BE0000E946727EE85FF8566A377A380A791A73C
:102BF00035CFEE85FF85E759FF4F8081811127C0D2
:102C0000EE85FF85E457FF4F60817181828193815A
:102C10000E943D288E859F858C599F4F2F960FB619
:102C2000F894DEBF0FBECDBFDF91CF911F910F9102
:102C3000FF90EF90DF90CF90BF90AF909F908F90DC
:102C40007F906F905F904F903F902F90F7C12F969D
:102C50000FB6F894DEBF0FBECDBFDF91CF911F91AD
:102C60000F91FF90EF90DF90CF90BF90AF909F902B
:102C70008F907F906F905F904F903F902F9008952E
:102C8000CF92DF92EF92FF92CF93DF9382E107D54D
:102C9000019751F40E94EF01609398037093990398
:102CA00080939A0390939B030E94EF0120919803D5
:102CB0003091990340919A0350919B030E9467279A
:102CC00020E030E040E450E40E941B2987FF33C03D
:102CD0000E94EF01C0908D03D0908E03E0908F038F
:102CE000F0909003A70196010E94672720E030E052
:102CF000A9010E94CC2787FF17C0A701960160E0B9
:102D000070E080E89FE40E9467279B01AC0160E0CF
:102D100070E0CB010E94672760938D0370938E0350
:102D200080938F03909390038091350390913603A5
:102D3000019709F091C033D6C0905207D090530745
:102D4000E0905407F0905507C616D706E806F90636
:102D500050F581E090E090935A03809359031092CC
:102D600036031092350360E08BE3C1D46EDD8091B1
:102D70009D03811103C081E080939D03E091D806FB
:102D8000F091D9060190F081E02DE857FF4F20E047
:102D900030E0A90160817181828193810E94CC27FA
:102DA000181664F107C010925A031092590310923A
:102DB0009D03E4CF82E090E090935A0380935903FF
:102DC00044DD80919C03811103C081E080939C03CA
:102DD000E091D806F091D906C081D181FE01E85773
:102DE000FF4F20E030E048EC53E460817181828144
:102DF00093810E941B29181644F42BC010925A0389
:102E00001092590310929C03E3CF20E030E040E29F
:102E100051E4FE01EB59FF4F608171818281938102
:102E20000E941B291816C4F4C457DF4F20E030E07D
:102E3000A901688179818A819B810E94CC278111B7
:102E40000BC08091350390913603019729F082E001
:102E500001C081E00E942726DF91CF91FF90EF9083
:102E6000DF90CF900895682F88EC96E0D5C8282F82
:102E700030915004313208F04AC080914F048111E2
:102E8000FCCF9091480442E040934F0420934E04BD
:102E90002FEF209326041092250430932404E8E2B7
:102EA000F4E0A4E0B4E020E0321721F041914D932A
:102EB0002F5FFACF1092030420910304990F922BF5
:102EC0009093030490914D04913061F410924D045D
:102ED000909103049093BB009091BC0093FDF8CFB8
:102EE00095EC01C095EE9093BC0090914F04923008
:102EF000E1F3909126049F3F79F08091260480327F
:102F000041F080912604803331F084E005C081E0F7
:102F100003C082E001C083E010925104109250047B
:102F200010922704089581E0A2CFCF93DF93EB01A5
:102F300091E09093270480934804109251041092DA
:102F4000500461E088EC96E067D86D2F88EC96E03D
:102F500063D86C2F88EC96E05FD8DF91CF91E3CFF8
:102F600090914F049111FCCF91E090934F04909376
:102F70004E042FEF2093260410922504260F209351
:102F800024049093030490910304880F892B809369
:102F9000030480914D04813061F410924D048091BE
:102FA00003048093BB008091BC0083FDF8CF85ECC7
:102FB00001C085EE8093BC0080914F048130E1F325
:102FC00080912504861710F460912504A4E0B4E0F4
:102FD000E3EEF3E080E0861721F09D9191938F5FFF
:102FE000FACF08951F93CF93DF93182F81E080933A
:102FF000270410934804109251041092500460E08A
:1030000088EC96E009D88FDF62E0812FA9DF10926B
:1030100053048093520488EC96E00E94C40F182F4A
:1030200088EC96E00E94C40FD12F20E0C22F9E01B1
:10303000282BC901DF91CF911F910895FF920F9323
:103040001F93CF93DF93EB0108EB10E0F801F080C2
:103050002CE02083FC01808191E0909327048093F1
:103060004804109251041092500460E488EC96E0F9
:103070000E940C10CE0124E0969587952A95E1F7E1
:10308000F2DECE0134E0880F991F3A95E1F79927D7
:10309000EADE49DFF801F082DF91CF911F910F91B5
:1030A000FF9008951F93CF93DF93EC01162F80912B
:1030B000570791E09093270480934804109251049D
:1030C000109250048D2F90E0CEDECE019927CBDEFA
:1030D000612F88EC96E00E940C10DF91CF911F9138
:1030E00022CFCF92DF92EF92FF92CF93DF93EC014A
:1030F0006A017B01E889F98982E080834115514E9C
:1031000061057105B1F060E079E08DE390E0A70121
:1031100096010E944527DA01C9010197A109B10969
:10312000B695A795979587959C01211580E138075D
:10313000A8F0E889F989108260E874E88EE190E0EF
:10314000A70196010E944527DA01C9010197A1094B
:10315000B109B695A795979587959C01EC85FD8556
:103160003083EE85FF852083188EEC89FD8986E00B
:103170008083EA89FB89808180618083EA89FB8979
:10318000808188608083EA89FB8980818068808370
:10319000EA89FB8980818F7D8083DF91CF91FF90C9
:1031A000EF90DF90CF900895E2E0F7E090E02FEF0E
:1031B0003FEF981791F04191242748E0B9016170E1
:1031C000772736952795672B21F051E0252750EA80
:1031D0003527415099F79F5FECCF922F832F0895A9
:1031E000CF93C09142078C2FDFDFEC2FF0E0E75048
:1031F000F94F9187E1E0EC0FF0E0E750F94F81875C
:10320000CE5FC09342079091FF068091FE069230F8
:1032100038F1823051F0833071F0813091F4909127
:10322000C80090649093C80011C09091D000906441
:103230009093D0000BC09091300190649093300136
:1032400005C09091C00090649093C00090910501DA
:10325000906490930501909105019062909305010F
:1032600040914207843028F48091F9069091FA0643
:1032700004C08091FB069091FC0650E0DC01ED91CA
:10328000FC910280F381E02D62E077E01995909146
:10329000FF068091FE06923018F1823049F08330AB
:1032A00061F0813079F49091C80096FFFCCF0EC098
:1032B0009091D00096FFFCCF09C09091300196FF0D
:1032C000FCCF04C09091C00096FFFCCF9091050107
:1032D0009F7B90930501909105019F7D909305013F
:1032E000843068F58091F9069091FA06DC01ED9141
:1032F000FC910284F385E02D199597FFF3CF10928E
:1033000042074DD320914C0730914D07DC01CB0192
:10331000820F931FA11DB11D8093520790935307F5
:10332000A0935407B093550780914807909149079F
:1033300001969093490780934807CF910895809113
:10334000FB069091FC06DC01ED91FC910284F38573
:10335000E02D199597FFF3CFD2CF009769F0FC01CC
:1033600001900020E9F73197AF01481B590BBC01D0
:103370008BE296E00C943D0E80E090E008958F92F1
:103380009F92AF92BF920F931F93CF93DF93CDB7CE
:10339000DEB7A1970FB6F894DEBF0FBECDBF19A25E
:1033A000423008F44AE08E010F5D1F4F842E912CAD
:1033B000A12CB12CA50194010E944527E62FB9014B
:1033C000CA0101501109EA3014F4E05D01C0E95C62
:1033D000D801EC93232B242B252B61F7C801BDDFEB
:1033E000A1960FB6F894DEBF0FBECDBFDF91CF918F
:1033F0001F910F91BF90AF909F908F9008958F92E3
:103400009F92AF92BF92CF92DF92EF92FF920F9373
:103410001F93CF93DF936B017C01142F9B01AC01B1
:103420000E948229882319F08FE792E027C0460185
:103430005701E894B7F82FEF3FEF4FE75FE7C5017B
:10344000B4010E94822981110DC02FEF3FEF4FE799
:103450005FE7C501B4010E94CC2718161CF483E86D
:1034600092E00CC02FEF3FEF4FE75FE4C701B601DA
:103470000E941B2918167CF487E892E0DF91CF9117
:103480001F910F91FF90EF90DF90CF90BF90AF9082
:103490009F908F9062CF2FEF3FEF4FE75FECC70118
:1034A000B6010E94CC2787FDE7CF20E030E0A901DC
:1034B000C701B6010E94CC2787FF0BC06DE28BE2EB
:1034C00096E00E94EA0EEC01F7FAF094F7F8F09417
:1034D00002C0C0E0D0E000E060E070E080E09FE388
:1034E000101741F020E030E040E251E40E94D02784
:1034F0000F5FF6CFA70196010E9468276B017C0140
:103500000E943D284B015C014AE039DFC80FD91FFA
:103510001123B1F1C501B4010E9469289B01AC01DE
:10352000C701B6010E9467276B017C016EE28BE246
:1035300096E00E94EA0EC80FD91F20E030E040E27A
:1035400051E4C701B6010E941F294B015C010E9492
:103550003D286B01E12CF12C4AE0C701B6010FDFD9
:10356000C80FD91FC701B6010E9469289B01AC0191
:10357000C501B4010E9467276B017C011150E9F677
:10358000CE01DF91CF911F910F91FF90EF90DF90CF
:10359000CF90BF90AF909F908F9008958091E1065B
:1035A0009091E206811524E0920709F130F400972A
:1035B000A1F081159240B1F00895811528E092079D
:1035C000D9F081152AE09207E1F08115964029F59E
:1035D0008DEC9CECACECBBE318C08AE999E9A9E15D
:1035E000BDE313C08DEC9CECACECBCE30EC08DECE9
:1035F0009CECACE4BCE309C08DEC9CECACE4BBE31C
:1036000004C08DEC9CECACECBAE38093E90690939B
:10361000EA06A093EB06B093EC0608950F931F9370
:10362000CF93DF938C01C7E5D7E0888191E0909339
:103630002704809348041092510410925004812F63
:1036400090E011DCC80199270EDC6DDC61E0888117
:1036500087DC109253048093520488EC96E00E9419
:10366000C40FDF91CF911F910F910895FC01A089A4
:10367000B1898C91A689B78982FD0FC09C91818DFB
:103680008F5F8F73228D821749F0218DDF01A20F8A
:10369000B11D5D969C93818F08958C910895CF9371
:1036A000DF93282F30E0F901E75FFD4F8491F901A6
:1036B000ED53FE4FD491F901E358FE4FC491CC2352
:1036C00089F0811172D0EC2FF0E0EE0FFF1FED5961
:1036D000FE4FA591B491EC91ED2381E090E021F4AF
:1036E00080E002C080E090E0DF91CF9108951F93C9
:1036F000CF93DF93282F30E0F901E75FFD4F8491EE
:10370000F901ED53FE4FD491F901E358FE4FC491F6
:10371000CC23B9F0162F811148D0EC2FF0E0EE0F3A
:10372000FF1FE75BFE4FA591B4919FB7F89411116D
:1037300004C08C91D095D82302C0EC91DE2BDC9391
:103740009FBFDF91CF911F91089510925304109263
:103750005204109251041092500410924F0481E0D0
:1037600080934E0410924D0461E084E1C0DF61E07B
:1037700085E1BDDFE9EBF0E080818E7F8083808191
:103780008D7F808388E48093B80085E48093BC00BB
:1037900082EB9FE090934C0480934B0483EB9FE07B
:1037A00090934A0480934904089590E0FC01319776
:1037B000E231F10508F04EC08827EE56FF4F8F4FDB
:1037C0000C948629809180008F7703C080918000BF
:1037D0008F7D80938000089580918000877FF9CF4E
:1037E00084B58F7702C084B58F7D84BD08958091A4
:1037F000B0008F7703C08091B0008F7D8093B000C0
:103800000895809190008F7707C0809190008F7D00
:1038100003C080919000877F8093900008958091ED
:10382000A0008F7707C08091A0008F7D03C080919A
:10383000A000877F8093A0000895809120018F775A
:1038400007C0809120018F7D03C080912001877F78
:10385000809320010895CF93DF9390E0FC01ED5316
:10386000FE4F2491FC01E358FE4F8491882361F1BF
:1038700090E0880F991FFC01E15BFD4FC591D49149
:10388000FC01E75BFE4FA591B491611109C09FB7A0
:10389000F8948881209582238883EC912E230BC095
:1038A000623061F49FB7F8948881322F309583237A
:1038B0008883EC912E2B2C939FBF06C08FB7F89472
:1038C000E8812E2B28838FBFDF91CF91089582301E
:1038D000910538F0880F991F880F991F0597019758
:1038E000F1F708953FB7F8948091630790916407CA
:1038F000A0916507B091660726B5A89B05C02F3F2C
:1039000019F00196A11DB11D3FBFBA2FA92F982F05
:103910008827820F911DA11DB11DBC01CD0142E080
:10392000660F771F881F991F4A95D1F708958F92C8
:103930009F92AF92BF92CF92DF92EF92FF926B0174
:103940007C01D0DF4B015C01C114D104E104F1041E
:10395000E9F0C8DFDC01CB0188199909AA09BB0984
:10396000883E9340A105B10578F321E0C21AD10841
:10397000E108F10888EE880E83E0981EA11CB11CB6
:10398000C114D104E104F10421F7DECFFF90EF90E0
:10399000DF90CF90BF90AF909F908F9008952FB7FA
:1039A000F89460915F077091600780916107909132
:1039B00062072FBF08951F920F920FB60F92112426
:1039C0002F933F938F939F93AF93BF9380915F0704
:1039D00090916007A0916107B091620730915E07F6
:1039E00023E0230F2D3720F40196A11DB11D05C042
:1039F00026E8230F0296A11DB11D20935E07809338
:103A00005F0790936007A0936107B093620780916E
:103A1000630790916407A0916507B09166070196CE
:103A2000A11DB11D8093630790936407A093650760
:103A3000B0936607BF91AF919F918F913F912F9166
:103A40000F900FBE0F901F901895CF93DF93CDB7B7
:103A5000DEB768970FB6F894DEBF0FBECDBF78947F
:103A600084B5826084BD84B5816084BD85B5826083
:103A700085BD85B5816085BD80916E008160809334
:103A80006E0010928100809181008260809381009D
:103A900080918100816080938100809180008160AD
:103AA000809380008091B10084608093B100809108
:103AB000B00081608093B00080919100826080931B
:103AC000910080919100816080939100809190009D
:103AD0008160809390008091A10082608093A1001A
:103AE0008091A10081608093A1008091A0008160FD
:103AF0008093A000809121018260809321018091B8
:103B00002101816080932101809120018160809357
:103B1000200180917A00846080937A0080917A00FD
:103B2000826080937A0080917A00816080937A002D
:103B300080917A00806880937A001092C10082E3BD
:103B400090E0909356038093550383E68093DA06C2
:103B5000FCDD60E070E08AED96E070DA60E086E31C
:103B60007ADE61E089E077DE61E08FE374DE61E0B8
:103B70008AE071DE60E08AE0BADD61E08BE06BDE56
:103B800060E08BE0B4DD61E08CE065DE61E08CE05C
:103B9000AEDD60E082E15FDE61E08BE35CDE61E090
:103BA0008BE3A5DD61E088E056DE40E251EA67E0A4
:103BB00070E08BE296E095DA8091E1069091E20662
:103BC0009093DF068093DE06E9DC80EE90E0909330
:103BD000E4068093E3068AE999E9A9E9BFE38093C3
:103BE000E5069093E606A093E706B093E80680E525
:103BF00080935707AADDFF24F394F09227048CE703
:103C00008093480410925104109250046091570719
:103C100070E0660F771F88EC96E00E940C1080E041
:103C200026D963E08CE79CD9109253048093520408
:103C300088EC96E00E94C40F8C0188EC96E00E940C
:103C4000C40F9A83898388EC96E00E94C40F1127E1
:103C5000F4E0000F111FFA95E1F769817A81772767
:103C6000A4E075956795AA95E1F7060F171F2981BE
:103C70002F70622F70E0762F6627AB01480F511D21
:103C80005A8349830A30110541F086E492E065DBEE
:103C9000B801110F880B990B0EC089819A81803170
:103CA000954079F085E692E058DBE981FA81BF0121
:103CB000FF0F880B990B40E162DB83E492E04DDB60
:103CC00002C0F09258078091FE06823039F08330AE
:103CD00041F0813049F48EE895E008C081EF94E02E
:103CE00005C084E594E002C08BE296E09093FA066A
:103CF0008093F90640E052EC61E070E08091F906B3
:103D00009091FA06EED98091FF06823078F080918A
:103D10000401806680930401809105018F7B80936C
:103D20000501809105018F7D809305018091F90641
:103D30009091FA06DC01ED91FC910284F385E02D6F
:103D4000199597FFF3CF10924207109243071092F4
:103D50004B0710924A071092490710924807109299
:103D60004707109246070BEC12E0E8EEF3E0FA8307
:103D7000E98389819A810E94FA01D8018D939D93EC
:103D80008D01E981FA813496FA83E983E115F440E3
:103D900081F70DEA12E01A82198289819A810E94C4
:103DA000FA01D8018D939D938D01E981FA813496B2
:103DB000FA83E983749789F701EC12E089819A818B
:103DC0000E94FA01D8018D939D938D01E981FA81BA
:103DD0003496FA83E983B89789F788E290E00E94E5
:103DE000FA019093200380931F038CE290E00E94DD
:103DF000FA01909322038093210380E390E00E94D4
:103E0000FA0190932E0380932D0384E390E00E94A7
:103E1000FA019093300380932F0388E390E00E948F
:103E2000FA0190935C0380935B038CE390E00E9423
:103E3000FA0190935E0380935D0380E490E00E941A
:103E4000FA019093600380935F0384E490E00E9402
:103E5000FA01909332038093310388E490E00E944A
:103E6000FA0190937E0380937D038CE490E00E949E
:103E7000FA019093800380937F0380E590E00E9495
:103E8000FA01909334038093330301E613E024E5B1
:103E900030E03A83298389819A810E94FA01D8010E
:103EA0008D939D938D01E981FA813496FA83E9839C
:103EB000E836F10581F788EC90E00E948E29988F12
:103EC0008F8B4C01BEE68B0E911CF4018081918199
:103ED0002F89388D28553F4F3E832D83D901CD90B2
:103EE000DD90ED90FC90EF89F88DEC55FF4FFC8B49
:103EF000EB8B40805180628073802F89388D2056F3
:103F00003F4F3E8B2D8BD9012D913D914D915C9171
:103F100029833A834B835C832F88388CBCE82B0E33
:103F2000311CEF89F88D378E268E9F0128573F4F21
:103F3000358F248F245C3F4F31A320A312AE12AAE9
:103F400013AA14AA15AA40E050E06FE773E446AB49
:103F500057AB60AF71AF44E650E060E070E046A759
:103F600057A760AB71AB918F808F20E030E0A90143
:103F700069817A818B819C810E94CC2787FD1EC03C
:103F800020E030E0A901C301B2010E94CC2787FDE7
:103F900015C020E030E0A901C701B601FDD787FDBB
:103FA0000DC0AA24A394B12C9301820149815A81A6
:103FB0006B817C818F89988D0E946013F0DCEF8982
:103FC000F88D06A517A520A931A9DC01CB01801B1E
:103FD000910BA20BB30B82A393A3A4A3B5A382E37B
:103FE00091E1A0E8BBE384AF95AFA6AFB7AF8FE791
:103FF00095E0ABE1B5EBE05CFF4F80839183A2835A
:10400000B3834F88588CF6E44F0E511C88E4D201DC
:104010008C9314961C921E92139798E011969C9381
:10402000119712961C92EF89F88DE05AFF4F10827B
:10403000118212821382EF89F88DEC5BFF4F80832F
:10404000EF89F88DEB5BFF4FFA83E98382E680838B
:104050008091DA06EF89F88DEC59FF4F8083EF8964
:10406000F88DEB59FF4F10821182128213822F8933
:10407000388D27593F4F3A8B298BD9011C92F40177
:1040800011821082EF89F88DE059FF4F1082118262
:10409000128213828CE291E0A0E0B0E0EF89F88D0B
:1040A000E858FF4F80839183A283B38380E090EF31
:1040B000AFE7B5E48F88988CFCE78F0E911CF40174
:1040C00080839183A283B383EF89F88DE857FF4FF4
:1040D0001082118212821382D1011D921D921D92B3
:1040E0001C92139780E090E0A0E8BEE3EF89F88D82
:1040F000EC56FF4F80839183A283B38380E090E0EE
:10410000AAEFB3E4EF89F88DE856FF4F80839183DF
:10411000A283B383EF89F88DE456FF4F108211829A
:1041200012821382ED89FE8910821182128213821B
:10413000AB89BC891D921D921D921C921397ED8133
:10414000FE81108211821282138280E090E0A0E84A
:10415000BFE3EF89F88DE455FF4F80839183A283FD
:10416000B383EF89F88DE055FF4F108211821282E0
:1041700013828AE097EDA3E2BCE3EF89F88DEC545B
:10418000FF4F80839183A283B38384EA90E7ADE7F6
:10419000BFE3EF89F88DE854FF4F80839183A283BA
:1041A000B3832F88388CFCEB2F0E311C80E090E01D
:1041B000A8ECB4E4F10180839183A283B3832F89B7
:1041C000388D20543F4F3E832D8380E090E0AAE756
:1041D000B4E4F90180839183A283B383EF89F88DDE
:1041E000EC53FF4F1082118212821382AF89B88D77
:1041F0005A96AD90BC905B97C12CD12C760197015B
:104200008601B701A601CD010E946013F401C080B0
:10421000D180E280F38020E030E0A901C701B6013F
:10422000BBD618160CF059C0AF89B88DD2961D9226
:104230001D921D921C92D597FD01C6AAD7AAE0AE89
:10424000F1AE82AD882309F448C0668C778CD30127
:104250008D909D90AD90BC90A5019401C701B601D1
:104260009BD687FF06C0F301C082D182E282F3822F
:104270000EC020E030E0A901C501B4018DD687FF52
:1042800006C0D3011D921D921D921C921397EF89B7
:10429000F88D86A097A0A0A4B1A4C6A8D7A8E0AC2A
:1042A000F1ACA7019601C501B401C5D718166CF091
:1042B000EF89F88DC2A8D3A8E4A8F5A8A7019601B4
:1042C000C501B40169D687FF08C0AF89B88D96963D
:1042D000CD92DD92ED92FC929997EF89F88D66A5CB
:1042E00077A580A991A9F5D69B01AC0160E070E0AB
:1042F00080EA90E455D66B017C019B01AC01AF894B
:10430000B88D50966D917D918D919C91539797D7D3
:10431000EF89F88D608B718B828B938BA70196014F
:1043200064897589868997893BD6AF89B88D5496FB
:104330006D937D938D939C93579785E090E0A0E0DB
:10434000B0E0EF89F88D86A797A7A0ABB1ABFDD9F8
:10435000EF89F88DE55BFF4FA981BA818C9180834D
:10436000F4D9F201148213826FEF7FE08F89988D68
:10437000855B9F4F0E941E182F89388D245B3F4F0D
:10438000F10180819181A281B381F90180839183C0
:10439000A283B3832F89388D205B3F4FED81FE814F
:1043A00080819181A281B381F90180839183A2836D
:1043B000B3832F89388D3093840320938303A98995
:1043C000BA891C928091D6069091D7062091D40686
:1043D0003091D5068217930719F57C01EE0CFF1C6E
:1043E000892B11F0C70102C081E090E09093D706BD
:1043F0008093D606880F991F91D79A83898300915D
:10440000D8061091D906A701B8010E94B32AC801A5
:104410000E94262AE981FA81F093D906E093D80612
:10442000E091D806F091D9068091D4069091D506F6
:104430009C012F5F3F4F3093D5062093D4062091E7
:10444000830330918403880F991FE80FF91F31838C
:104450002083E091D806F091D906208131813E83F6
:104460002D83F901E659FF4F118210826091CF022E
:104470007091D00280E090E02CD620E030E048EC53
:1044800052E48ED56B017C016091CD027091CE0219
:1044900080E090E01ED620E030E048EC52E480D589
:1044A00069837A838B839C836091CB027091CC0269
:1044B00080E090E00ED620E030E048EC52E470D589
:1044C0002B013C01ED81FE81E056FF4F608371833B
:1044D00082839383ED81FE81EC55FF4F89819A8120
:1044E000AB81BC8180839183A283B383ED81FE8104
:1044F000E855FF4FC082D182E282F382AD81BE8156
:104500005A96AD90BC905B9720E030E0A901C301C2
:10451000B20142D587FD1CC020E030E0A9016981CD
:104520007A818B819C8138D587FD12C020E030E0F4
:10453000A901C701B60130D587FD0AC009811A81DA
:104540002B813C81B301A2018D819E810E94601369
:10455000E091D806F091D906208131813A832983F0
:10456000890104551F4F6091D1027091D20280E001
:1045700090E0AFD520E030E04AE754E411D5D8010F
:104580006D937D938D939C93139709811A810055A8
:104590001F4F6091D3027091D40280E090E099D5D2
:1045A00020E030E048EC52E4FBD4F80160837183F2
:1045B000828393836091D5027091D60280E090E06F
:1045C00088D5E981FA81E454FF4F60837183828347
:1045D0009383E981FA81E45BFF4F60837183828377
:1045E000938329813A8120583F4F3A8329836091F0
:1045F00033037091340380E090E06BD520E030E02D
:1046000040E251E4CDD4A981BA816D937D938D931D
:104610009C93139761E088E06AD88091350390916C
:104620003603019709F0F3C2809137039091380364
:10463000892B09F486C20E9402040E94EF01809037
:10464000850390908603A0908703B0908803A5010E
:1046500094013DD46B017C016091C1027091C20252
:1046600080E090E036D520E030E040E251E498D49C
:104670001B018C0120E030E0A901C701B601DBD5A8
:1046800018160CF441C16091C3027091C40280E01D
:1046900090E01FD520E030E040E251E481D4562E76
:1046A000472E89839D83262F372FAC01B101C80186
:1046B0000FD4698B7B8B782E692E9101A801C701DD
:1046C000B601B9D518160CF4EEC06091C502709110
:1046D000C60280E090E0FDD420E030E040E251E40A
:1046E0005FD4562E472E89839D83262F372FAC010A
:1046F00069897B89872D962DEBD31B018C01298934
:104700003B89472D562DC701B60195D518160CF4D7
:1047100097C06091C7027091C80280E090E0D9D440
:1047200020E030E040E251E43BD4562E472E89830E
:104730009D83262F372FAC01B101C801C9D3762E36
:104740007B8B898B692E9101A801C701B60173D5B6
:1047500018160CF444C0272D3B894989562DC701F2
:10476000B60169D518160CF0FDC06091B5027091C4
:10477000B60280E090E0ADD420E030E040E251E4C9
:104780000FD46F83788789879A876091B30270917D
:10479000B40280E090E09DD420E030E040E251E4BB
:1047A000FFD36B877C878D879E87E0916903F091AB
:1047B0006A03F88BEF876091C9027091CA0280E0AA
:1047C00090E087D420E030E040E251E4E9D3562E77
:1047D000472E89839D83272C3B88098962C0272D1A
:1047E0003B894989562DC701B601D6D318160CF45A
:1047F000B2CF6091B3027091B40280E090E069D4CE
:1048000020E030E040E251E4CBD36F8378878987A2
:104810009A876091B1027091B20280E090E059D421
:1048200020E030E040E251E4BBD36B877C878D878A
:104830009E872091670330916803388B2F8792C041
:104840009101A801C701B601A7D318160CF461CFD6
:104850006091B1027091B20280E090E03AD420E021
:1048600030E040E251E49CD36F83788789879A8750
:104870006091AF027091B00280E090E02AD420E015
:1048800030E040E251E48CD36B877C878D879E8734
:104890004091650350916603588B4F8729883B8868
:1048A000072D162D5FC029893B89472D562DC7013D
:1048B000B60172D318160CF408CF6091AF02709154
:1048C000B00280E090E005D420E030E040E251E426
:1048D00067D36F83788789879A876091AD027091DB
:1048E000AE0280E090E0F5D320E030E040E251E419
:1048F00057D36B877C878D879E87809163039091C8
:104900006403988B8F872EC09101A801C701B6015F
:1049100043D318160CF4B7CE6091AD027091AE027D
:1049200080E090E0D6D320E030E040E251E438D39C
:104930006F83788789879A87A0916103B09162031A
:10494000B88BAF87522C432C09831D83212C312C2B
:1049500000E010E020E030E040EA51E42B873C87A3
:104960004D875E874F8558894130510549F0E09168
:10497000D806F091D9064F81588569857A8525C07A
:104980002B853C854D855E856F81788589859A85E7
:104990009ED2252D342D49815D8102D32B013C010E
:1049A0009101A801C701B60192D29B01AC01C301DC
:1049B000B20145D42B853C854D855E8589D2AB01FE
:1049C000BC01E091D806F091D906808191810E94C6
:1049D000C203E091D806F091D9060190F081E02D54
:1049E000EC53FF4F20E030E040E251E46081718100
:1049F0008281938124D441D37093200360931F0359
:104A00000E9469010E9444140E9440166091C102F4
:104A10007091C20280E090E05CD320E030E040E2A0
:104A200051E4BED26B017C016091C3027091C4025B
:104A300080E090E04ED320E030E040E251E4B0D29C
:104A40009B01AC01C701B60143D26B017C016091AF
:104A5000C5027091C60280E090E03BD320E030E0D8
:104A600040E251E49DD29B01AC01C701B60130D2B6
:104A70006B017C016091C7027091C80280E090E0F8
:104A800028D320E030E040E251E48AD29B01AC011F
:104A9000C701B6011DD26B017C016091C902709102
:104AA000CA0280E090E015D320E030E040E251E41B
:104AB00077D29B01AC01C701B6010AD2D9D22B0132
:104AC0003C010E94EF01A501940101D26B017C0120
:104AD000C301B20100D39B01AC01C701B601ABD346
:104AE00018160CF48FC00E94EF01A5019401EFD1BC
:104AF00020E030E0A90150D287FF15C0A501940144
:104B000060E070E080E89FE4E2D19B01AC0160E0EE
:104B100070E0CB01DCD160938503709386038093B2
:104B20008703909388038091350390913603019712
:104B300009F06DC060E088E00E94771B0E94570F6B
:104B400069CD0E94020460911F037091200380E0F0
:104B500090E0BFD220E030E040E251E421D2AB014E
:104B6000BC01E091D806F091D906808191810E9424
:104B7000C2030E9469010E9444140E9440160E94D0
:104B8000EF01C0908903D0908A03E0908B03F090EE
:104B90008C03A70196019BD14B015C0160912D0311
:104BA00070912E0380E090E094D220E030E040E26B
:104BB00051E4F6D19B01AC01C501B4013CD31816F8
:104BC0000CF10E94EF01A701960181D120E030E0B5
:104BD000A901E2D187FFA7CFA701960160E070E0AD
:104BE00080E89FE474D19B01AC0160E070E0CB01F0
:104BF0006ED16093890370938A0380938B039093A3
:104C00008C0391CF10923603109235038CCF0E9403
:104C100002040E9425140E9440160E94EF01609336
:104C2000890370938A0380938B0390938C030E9473
:104C3000EF016093850370938603809387039093BD
:104C4000880378CF8091D8069091D906FFC3C82FEA
:104C50000E9425148C2F90E0909358038093570363
:104C600061E08AE00E94771B61E08BE00E94771B85
:104C700060E08CE00E94771B0E940204FDCF1F932E
:104C8000CF93DF93E4E5F4E01382128288EE93E0A1
:104C9000A0E0B0E084839583A683B78320E232E06E
:104CA0003183208345E351E05587448744E351E055
:104CB0005787468740E351E0518B408B41E351E0F9
:104CC000538B428B42E351E0558B448B46E351E0DA
:104CD000578B468B118E128E138E148EE1EFF4E0FB
:104CE0001382128284839583A683B78331832083C2
:104CF00045ED50E05587448744ED50E0578746879F
:104D000040ED50E0518B408B41ED50E0538B428B96
:104D100042ED50E0558B448B46ED50E0578B468B6F
:104D2000118E128E138E148EEEE8F5E0138212822D
:104D300084839583A683B783318320834DEC50E031
:104D4000558744874CEC50E05787468748EC50E045
:104D5000518B408B49EC50E0538B428B4AEC50E036
:104D6000558B448B4EEC50E0578B468B118E128E38
:104D7000138E148EEBE2F6E0138212828483958305
:104D8000A683B7833183208325EC30E035872487E1
:104D900024EC30E03787268720EC30E0318B208B05
:104DA00021EC30E0338B228B22EC30E0358B248BEE
:104DB00026EC30E0378B268B118E128E138E148EDC
:104DC000E8ECF6E01382128284839583A683B7838E
:104DD00082E392E09183808310925807E9EFF6E036
:104DE00081E0848383E0858312E0168388EE93E07C
:104DF00090934D0780934C07E9E5F7E01482138206
:104E00008AE4808388E08183128285E0ABEDB6E09E
:104E100001900D928A95E1F7CBEDD6E080E090E02D
:104E2000AAE7B3E48A8B9B8BAC8BBD8B0E94A51B3E
:104E30001D831F821E820E94CE1AE4EDF6E01182CD
:104E400010821382128215821482DF91CF911F91FA
:104E50000895052E97FB16F400940FD057FD05D04A
:104E600014D007FC02D046F408C050954095309508
:104E700021953F4F4F4F5F4F0895909580957095C6
:104E800061957F4F8F4F9F4F0895A1E21A2EAA1B65
:104E9000BB1BFD010DC0AA1FBB1FEE1FFF1FA217EA
:104EA000B307E407F50720F0A21BB30BE40BF50BE7
:104EB000661F771F881F991F1A9469F76095709570
:104EC000809590959B01AC01BD01CF01089550588C
:104ED000BB27AA270ED075C166D130F06BD120F068
:104EE00031F49F3F11F41EF45BC10EF4E095E7FB33
:104EF00051C1E92F77D180F3BA176207730784078E
:104F0000950718F071F49EF58FC10EF4E0950B2E05
:104F1000BA2FA02D0B01B90190010C01CA01A0010B
:104F20001124FF27591B99F0593F50F4503E68F166
:104F30001A16F040A22F232F342F4427585FF3CFA7
:104F4000469537952795A795F0405395C9F77EF478
:104F50001F16BA0B620B730B840BBAF09150A1F0C1
:104F6000FF0FBB1F661F771F881FC2F70EC0BA0F47
:104F7000621F731F841F48F4879577956795B795CF
:104F8000F7959E3F08F0B3CF9395880F08F09927C7
:104F9000EE0F979587950895D9D008F481E008958C
:104FA0000CD00FC107D140F0FED030F021F45F3FAC
:104FB00019F0F0C0511139C1F3C014D198F39923FD
:104FC000C9F35523B1F3951B550BBB27AA276217CD
:104FD0007307840738F09F5F5F4F220F331F441F12
:104FE000AA1FA9F333D00E2E3AF0E0E830D091504A
:104FF0005040E695001CCAF729D0FE2F27D0660F37
:10500000771F881FBB1F261737074807AB07B0E875
:1050100009F0BB0B802DBF01FF2793585F4F2AF08B
:105020009E3F510568F0B6C000C15F3FECF3983E6B
:10503000DCF3869577956795B795F7959F5FC9F7E8
:10504000880F911D9695879597F90895E1E0660F71
:10505000771F881FBB1F621773078407BA0720F0EA
:10506000621B730B840BBA0BEE1F88F7E095089553
:1050700004D06894B111D9C00895BCD088F09F576E
:1050800090F0B92F9927B751A0F0D1F0660F771F94
:10509000881F991F1AF0BA95C9F712C0B13081F074
:1050A000C3D0B1E00895C0C0672F782F8827B85FBC
:1050B00039F0B93FCCF3869577956795B395D9F7D5
:1050C0003EF490958095709561957F4F8F4F9F4FDF
:1050D0000895E89409C097FB3EF4909580957095EB
:1050E00061957F4F8F4F9F4F9923A9F0F92F96E934
:1050F000BB279395F695879577956795B795F111A9
:10510000F8CFFAF4BB0F11F460FF1BC06F5F7F4F45
:105110008F4F9F4F16C0882311F096E911C0772357
:1051200021F09EE8872F762F05C0662371F096E860
:10513000862F70E060E02AF09A95660F771F881F2F
:10514000DAF7880F9695879597F90895990F0008D3
:10515000550FAA0BE0E8FEEF16161706E807F90749
:10516000C0F012161306E407F50798F0621B730BE4
:10517000840B950B39F40A2661F0232B242B252B65
:1051800021F408950A2609F4A140A6958FEF811D08
:10519000811D089597F99F6780E870E060E00895A9
:1051A0009FEF80EC089500240A941616170618063F
:1051B0000906089500240A9412161306140605061B
:1051C0000895092E0394000C11F4882352F0BB0FAC
:1051D00040F4BF2B11F460FF04C06F5F7F4F8F4F0F
:1051E0009F4F089557FD9058440F551F59F05F3F4A
:1051F00071F04795880F97FB991F61F09F3F79F0F9
:1052000087950895121613061406551FF2CF46957A
:10521000F1DF08C0161617061806991FF1CF8695FC
:105220007105610508940895E894BB2766277727E0
:10523000CB0197F908958ADF08F48FEF08950BD01A
:10524000C0CFB1DF28F0B6DF18F0952309F0A2CF68
:10525000A7CF1124EACFC6DFA0F3959FD1F3950F16
:1052600050E0551F629FF001729FBB27F00DB11DEA
:10527000639FAA27F00DB11DAA1F649F6627B00D7A
:10528000A11D661F829F2227B00DA11D621F739F63
:10529000B00DA11D621F839FA00D611D221F749F71
:1052A0003327A00D611D231F849F600D211D822FB8
:1052B000762F6A2F11249F5750408AF0E1F08823FF
:1052C0004AF0EE0FFF1FBB1F661F771F881F91500C
:1052D0005040A9F79E3F510570F05CCFA6CF5F3FCD
:1052E000ECF3983EDCF3869577956795B795F7953F
:1052F000E7959F5FC1F7FE2B880F911D96958795C7
:1053000097F9089523DF880B990B0895EE0FFF1F7F
:10531000881F8BBF0790F691E02D19940F931F9370
:10532000CF93DF938230910510F482E090E0E0911A
:105330006907F0916A0720E030E0A0E0B0E0309724
:1053400019F1408151810281138148175907C8F032
:105350008417950769F4109731F012960C93129701
:1053600013961C9327C00093690710936A0722C005
:105370002115310519F04217530718F49A01BD01A0
:10538000EF01DF01F801DBCF21153105F9F0281B12
:10539000390B2430310580F48A819B8161157105B8
:1053A00021F0FB019383828304C090936A0780936A
:1053B0006907FE01329644C0FE01E20FF31F81939C
:1053C000919322503109398328833AC0209167078D
:1053D00030916807232B41F420910302309104029D
:1053E00030936807209367072091010230910202F1
:1053F0002115310541F42DB73EB74091050250917A
:105400000602241B350BE0916707F0916807E2174D
:10541000F307A0F42E1B3F0B2817390778F0AC01D7
:105420004E5F5F4F2417350748F04E0F5F1F5093B4
:105430006807409367078193919302C0E0E0F0E032
:10544000CF01DF91CF911F910F910895CF93DF93FB
:10545000009709F481C0FC01329713821282A09157
:105460006907B0916A07109781F420813181820F1A
:10547000931F20916707309168072817390751F566
:10548000F0936807E093670767C0ED0120E030E024
:10549000CE17DF0740F44A815B819E01411551051B
:1054A000F1F0EA01F5CFD383C28340815181840FAB
:1054B000951FC817D90759F488819981840F951FC2
:1054C0000296918380838A819B81938382832115B5
:1054D000310529F4F0936A07E09369073DC0E901BB
:1054E000FB83EA8349915991C40FD51FEC17FD073F
:1054F00061F480819181840F951F0296E90199835F
:105500008883828193819B838A83E0E0F0E0129616
:105510008D919C911397009719F0FD01DC01F7CF55
:105520008D919C9111979D012E5F3F4F820F931F8C
:1055300020916707309168072817390769F4309779
:1055400029F410926A071092690702C0138212822E
:10555000B0936807A0936707DF91CF91089581E02A
:1055600090E0F89409C0FB01DC0102C001900D92AB
:1055700041505040D8F7089511E0C6E3D1E000E073
:1055800005C0802FFE01C2DE2196011DC733D10761
:0A55900080E00807B1F7F894FFCFA0
:10559A00FF00006B0780000102030405060F1000DC
:1055AA0000C84200007A44000000204100000000C8
:1055BA00EA0E3D0E670E360F980E760E8A0E000022
:1055CA0000000C10E00F3B10B40FD80FC40FB50F3A
:1055DA002C20000D0A00556E657870656374656449
:1055EA00204D616E756661637475726572204944F7
:1055FA003A20307800556E6578706563746564206A
:10560A0050726F647563742049443A203078006E92
:0C561A00616E00696E66006F766600002D
:00000001FF
