:1000000036C1000065C1000063C1000061C100008D
:100010005FC100005DC100005BC1000059C100006C
:1000200057C100000C943D150C943D150C943D15E2
:100030004FC100000C946C104BC1000049C100007E
:1000400047C1000045C1000043C1000041C100009C
:100050003FC100003DC100003BC100000C946A1D7F
:1000600037C100000C9428130C94FF1231C100001A
:100070002FC100002DC100002BC1000029C10000CC
:1000800027C1000025C1000023C1000021C10000DC
:100090000C94D6120C94AD121BC100000C94511399
:1000A00017C1000015C1000013C1000011C10000FC
:1000B0000FC100000DC100000BC1000009C100000C
:1000C00007C1000005C1000003C100000C948312A9
:1000D0000C945A12FDC000000C9430120C940712BC
:1000E000F7C00000AB04AB04C106C106A306B50609
:1000F000D506D506D506D506D506D506D506D50628
:10010000AB04C106DD04DD04390739076F07AE070C
:100110001B051B051B051B051B051B051B051B05DF
:10012000BD070E088617891778177C178217C01726
:100130008D17911797179B179F17A517A917AD171D
:10014000C017B317B717BB17020000210024002700
:10015000002A002D003000330001010000040107D7
:10016000010A0100002200250028002B002E00318A
:1001700000340002010000050108010B010000200D
:10018000002300260029002C002F0032000001006F
:100190000003010601090105050505070508080812
:1001A00008020202020A0A08080404040401010108
:1001B0000101010101030303030303030304070710
:1001C000070C0C0C0C0C0C0C0C02020202060606AE
:1001D00006060606060B0B0B0B0B0B0B0B01021096
:1001E0002020080810204010204080020102010851
:1001F0000402010102040810204080804020100801
:100200000402018004020180402010080402010859
:1002100004020101020408102040800102040810B9
:1002200020408000000A0B02090C0D0E0807030491
:1002300001000000000000000000000000000000BD
:10024000000000000000000000000000000000129C
:10025000111000000000000000000000000000007D
:10026000000000000000000000000027FB26112411
:100270001FBECFEFD1E2DEBFCDBF00E00CBF12E06A
:10028000A0E0B2E0EEE7F7E500E00BBF02C00790A8
:100290000D92A235B107D9F727E0A2E5B2E001C07F
:1002A0001D92A833B207E1F711E0C6E3D1E000E008
:1002B00006C021970109802FFE010E94782AC533CC
:1002C000D10780E00807A9F70E94B41D0C94AE2B5B
:1002D00097CE0E94391D0E945B2920E034E244E75A
:1002E00059E40C94C22808951F93CF93DF93EC0137
:1002F0000E947F1A182FCE0101960E947F1A90E06B
:10030000982F8827810F911DDF91CF911F9108951C
:100310000F931F93CF93DF938C01EB01CB01E4DFAD
:100320008017910759F0602FCE010E94E418612FC9
:10033000CE0101960E94E41881E001C080E0DF91C7
:10034000CF911F910F9108952F923F924F925F92FC
:100350006F927F928F929F92AF92BF92CF92DF92D5
:10036000EF92FF920F931F93CF93DF9300D01F92D2
:10037000CDB7DEB79C838B83FC01E759FF4F8081AB
:100380000B811C8108571F4F882309F465C00E9408
:100390005E1D6B017C01F80180809180A280B3809A
:1003A0002DEC3CEC4CE45DE3EB81FC81E457FF4F2A
:1003B00060817181828193810E94112A2B013C010D
:1003C00020E030E040EB51E4C501B4010E9459281F
:1003D000EB81FC81EC56FF4F2081318142815381BA
:1003E0000E94112A9B01AC01C301B2010E9459284D
:1003F000EB81FC81E856FF4F20813181428153819E
:100400000E94C2282B013C012B803C80FCE92F0E6E
:10041000311CF10180819181B601681B790B072E97
:10042000000C880B990B0E945D299B01AC01C30154
:10043000B2010E94112AA50194010E945A28F801D4
:1004400060837183828393830E945E1DF1016083C8
:100450007183828393838BC0EB80FC80F6E4EF0E84
:10046000F11CF70163817481636E716880810E9461
:10047000231880EB94E00E94821BF70180810E9488
:100480008318F7012281022E02C0969587950A945F
:10049000E2F7222329F08115F8E09F0708F0906F1A
:1004A000CB80DC8024E5C20ED11CF60191838083D1
:1004B000F70163817481636E716B80810E942318E0
:1004C00080EB94E00E94821BF70180810E948318D8
:1004D000F7012281022E02C0969587950A94E2F7D1
:1004E000222329F08115F8E09F0708F0906FEB8137
:1004F000FC81EA5AFF4F91838083BC01990F880BDE
:10050000990B0E945D294B015C01F60160817181AC
:10051000072E000C880B990B0E945D299B01AC01F2
:10052000C501B4010E94C228EB81FC81E45BFF4F4E
:1005300020813181428153810E94112AEB81FC810B
:10054000E455FF4F20813181428153810E94112A5D
:10055000EB81FC81E055FF4F208131814281538145
:100560000E945928F80160837183828393830E94DB
:100570005E1DEB81FC81EC58FF4F608371838283A9
:1005800093832B803C80F0E72F0E311CF101C0805B
:10059000D180E280F3809B01AC012C193D094E090A
:1005A0005F0969017A01EB81FC81E858FF4F808186
:1005B0009181A281B38182179307A407B50708F040
:1005C0003FC0F80180809180A280B3802B813C8164
:1005D0002B593F4F3A8329834B815C814C575F4FA6
:1005E0005C834B83FA012081318142815381C501B3
:1005F000B4010E9459282B013C01C701B6010E9499
:100600005B2920E030E04AE754E40E94C2289B01C5
:10061000AC01C301B2010E94C228E981FA81608362
:10062000718382839383EB81FC8180829182A28299
:10063000B3820E945E1DF101608371838283938384
:10064000F80160817181828193810F900F900F90EA
:100650000F90DF91CF911F910F91FF90EF90DF905E
:10066000CF90BF90AF909F908F907F906F905F9052
:100670004F903F902F9008958F929F92AF92BF928C
:10068000CF92DF92EF92FF92CF93DF93EC016A015A
:100690007B01FC01E058FF4F80809180A280B380F5
:1006A0009A01AB01C501B4010E94BE28CC53DF4FB3
:1006B00087FF05C088829982AA82BB8212C020E08F
:1006C00030E0A901C701B6010E94BE2887FF05C01E
:1006D000188219821A821B8204C0C882D982EA82D7
:1006E000FB82DF91CF91FF90EF90DF90CF90BF9092
:1006F000AF909F908F9008954F925F926F927F92EC
:100700008F929F92AF92BF92CF92DF92EF92FF9221
:100710000F931F93CF93DF93CDB7DEB727970FB615
:10072000F894DEBF0FBECDBF88E792E090930C0730
:1007300080930B078BE680931D078091C50684305C
:1007400028F48091C0069091C10604C08091C20631
:100750009091C306DC01ED91FC910084F185E02DC0
:100760001995882309F47FC490910A07891791F09D
:1007700080930A070E945E1DDC01CB010596A11D36
:10078000B11D8093150790931607A0931707B09398
:10079000180769C40E945E1D009115071091160785
:1007A0002091170730911807601771078207930788
:1007B00008F459C410920A078091C606823050F09E
:1007C000809105018F7B80930501809105018F7DCC
:1007D00080930501109209078091C50610E08430CE
:1007E00008F04BC08091C0069091C106DC01ED91EC
:1007F000FC910084F185E02D1995892B09F44AC0FC
:10080000B0910907EB2FF0E0FA83E9838091C006ED
:100810009091C106DC01ED91FC910284F385E02DFD
:100820001995E981FA81E054F94F81878091090790
:100830008F5F809309078034A8F211E0D3CFB09185
:100840000907EB2FF0E0FA83E9838091C2069091CB
:10085000C306DC01ED91FC910284F385E02D19952E
:10086000E981FA81E054F94F8187809109078F5F10
:1008700080930907803408F011E08091C2069091BE
:10088000C306DC01ED91FC910084F185E02D199502
:10089000892BA9F680910D0790910E0701969093F0
:1008A0000E0780930D07112361F08091110790913D
:1008B000120701969093120780931107FDEFF983B9
:1008C00003C020910907298339813093C806373046
:1008D0000CF4ADC09091C9068091C4069813C3C3AF
:1008E00080910907A82FB0E0BA83A98382500E94A3
:1008F0006619E981FA81E054F94F278130E0322FFF
:1009000022274085242B2817390761F08091110791
:100910009091120701969093120780931107BFEFF1
:10092000B98347C04091CA06E7E0F2E08FE092E069
:100930002191241709F4FAC18E179F07C9F78091F6
:100940001107909112070196909312078093110757
:10095000A1E00C949C0D8091CB069091CC06982739
:10096000892798279C0184E0369527958A95E1F799
:100970008091CD069091CE0698278927982754E03C
:10098000969587955A95E1F7820F931F90911D07D1
:10099000981708F00AC232E0398380E8840F809308
:1009A000CA06B981B093CB0683E0809309070E9401
:1009B0008219E981E093C8063AC02091CB063091B4
:1009C000CC063227232732274091CD065091CE0600
:1009D000542745275427FA0113E0F695E7951A9511
:1009E000E1F78E2FBA01677077276115710511F055
:1009F00081E08E0F8093CB0683E080930907420F3E
:100A0000531F90E0812C912C54018394421753077B
:100A100009F0F1C180930907672B19F08F5F80936C
:100A20000907F0910907FE5FF9830E948219398155
:100A300035300CF418C361E08BE30E94E81A809112
:100A40004C0390914D03019709F07FC080915A02A9
:100A500090915B02A0915C02B0915D0289839A83C0
:100A6000AB83BC8336DC6B017C01E0919F06F09187
:100A7000A006A081B181BF83AE83FD01E457FF4F83
:100A8000A458BF4F2D913D914D915C916081718132
:100A9000828193810E94C22820E030E048EC52E439
:100AA0000E94112A4B015C01EE81FF81E857FF4F44
:100AB0004080518062807380EE81FF81EC53FF4F54
:100AC000408151816281738122E082EF95E00E9432
:100AD000E01060E472E082EF95E00E94CB1022E02B
:100AE000B301A20182EF95E00E94E01060E472E0A1
:100AF00082EF95E00E94CB1022E0B501A40182EFC5
:100B000095E00E94E01060E472E082EF95E00E94C0
:100B1000CB1026E0B701A60182EF95E00E94E0101D
:100B200060E472E082EF95E00E94CB1022E0498100
:100B30005A816B817C8182EF95E00E94E01063E432
:100B400072E082EF95E00E94CB10C3DBC0905202AE
:100B5000D0905302E0905402F0905502A701960104
:100B60000E9459284B015C016091FC027091FD02CA
:100B700080E090E00E945B2920E030E040E251E418
:100B80000E94C2289B01AC01C501B4010E940D2A3C
:100B900087FD14C09EDB60935202709353028093D2
:100BA0005402909355020E94611781115EC206E9BA
:100BB00012E028EE33E03A83298324C08ADBA701C0
:100BC00096010E94592820E030E0A9010E94BE2829
:100BD00087FF4BC2A701960160E070E080E89FE4C8
:100BE0000E9459289B01AC0160E070E0CB010E949B
:100BF0005928609352027093530280935402909349
:100C0000550233C269817A81D8018D919D918D0100
:100C10007FDBE981FA813496FA83E983E115F440B8
:100C200089F708E712E01A82198269817A81D8016E
:100C30008D919D918D016CDBE981FA813496FA8367
:100C4000E983749791F70CE812E069817A81D80101
:100C50008D919D918D015CDBE981FA813496FA8357
:100C6000E983B89791F768E270E08091EA02909189
:100C7000EB024EDB6CE270E08091EC029091ED02B1
:100C800047DB60E370E08091F8029091F90240DB6D
:100C900064E370E08091FA029091FB0239DB68E333
:100CA00070E0809126039091270332DB6CE370E0C3
:100CB00080912803909129032BDB60E470E0809100
:100CC0002A0390912B0324DB64E470E08091FC0202
:100CD0009091FD021DDB68E470E0809148039091E3
:100CE000490316DB6CE470E080914A0390914B035A
:100CF0000FDB60E570E08091FE029091FF0208DB5F
:100D00000CE213E024E530E03A83298369817A819B
:100D1000D8018D919D918D01FBDAE981FA8134969C
:100D2000FA83E983E836F10589F79FC1842F90E0C3
:100D3000FC013197E031F105C0F58827EE58FF4FEF
:100D40008F4F0C94782A8091CB069091CC069827EF
:100D50008927982704E0969587950A95E1F7909161
:100D60001D07981708F4DFC620C08091CB0690912C
:100D7000CC069827892790911D07981708F4D7C6A5
:100D800014C08091CB069091CC06382F292F8091EA
:100D9000CD069091CE06982789279827820F931F1A
:100DA00090911D07981708F4C6C60E945E1D2091F9
:100DB000130730911407DC01CB01820F931FA11D93
:100DC000B11D8093190790931A07A0931B07B09346
:100DD0001C071092C806E091CA068E2F90E0FC0115
:100DE0003197E031F10508F026CE8827EE57FF4F06
:100DF0008F4F0C94782AF901A3E0F695E795AA9510
:100E0000E1F7EE7FF170E858FD4FA081B181E22F4C
:100E1000EF7002C0B695A795EA95E2F7E82FF0E0EB
:100E2000E054F94FA0FF0EC0A18575016401092EA1
:100E300004C0CC0CDD1CEE1CFF1C0A94D2F7CA2A9D
:100E4000C1860FC075016401092E04C0CC0CDD1CE5
:100E5000EE1CFF1C0A94D2F7AC2DA095B185AB23F4
:100E6000A1879F5F983010F08F5F90E02F5F3F4F1A
:100E7000CDCD2091CB063091CC0632272327322FBF
:100E80008091CD069091CE06982789279827482FE4
:100E9000440F4093CB06E3E09927820F911D22E097
:100EA0002E0F2983A32FB0E0A817B907ACF4AA0F1F
:100EB000BB1FA858BD4F2C9111964C91AE2FB0E09E
:100EC000A054B94F19964C93EF5FF0E0E054F94FFE
:100ED00021873F5FE981E3CFE0930907A6CD8091A9
:100EE000CB069091CC06982789279827FC0194E09F
:100EF000F695E7959A95E1F7282F2F708091CD060A
:100F0000FF27EE0FFF1FE858FD4F8F3F81F481E070
:100F100090E0A0E0B0E004C0880F991FAA1FBB1F9B
:100F20002A95D2F720813181822B932B11C081E049
:100F300090E0A0E0B0E004C0880F991FAA1FBB1F7B
:100F40002A95D2F780959095208131818223932331
:100F50009183808386E08093090782C0E091CC066C
:100F6000F0E0EE0FFF1FE858FD4F8091CD06909105
:100F7000CE06982789279827EBCF8091CB069091B2
:100F8000CC069827892798274091CD065091CE0608
:100F9000542745275427480F591F20E037E0812C5C
:100FA000912C5401839484179507A1F2A82FAF7058
:100FB000E32FF0E0E054F94F618570E0022E02C0AB
:100FC000759567950A94E2F7FC0174E0F695E7954C
:100FD0007A95E1F7FF27EE0FFF1FE858FD4F7501E7
:100FE000640104C0CC0CDD1CEE1CFF1CAA95D2F7DA
:100FF00060FF05C060817181C62AD72A06C0C094EF
:10100000D09460817181C622D722D182C0822F5FA5
:10101000283010F03F5F20E00196C5CFE091CC066C
:101020004091CE061092CD0686E080930907A0EC91
:10103000B6E0F0E0EE0FFF1FE858FD4F20E01296FB
:10104000421771F01E968C911E9790E0982F88277A
:101050001F963C911F97832B819391932F5FEFCF26
:101060000E948219E8CC60E0E7CCE0919F06F09105
:10107000A006208131813F832E83F901E659FF4F7D
:101080001182108280900F0290901002A0901102A5
:10109000B090120260919A0270919B0280E090E001
:1010A0000E945B29A50194010E94C2286B017C016A
:1010B000609198027091990280E090E00E945B2913
:1010C000A50194010E94C22869837A838B839C8343
:1010D000609196027091970280E090E00E945B29F7
:1010E000A50194010E94C2282B013C01EE81FF81E1
:1010F000E056FF4F6083718382839383EE81FF818B
:10110000EC55FF4F89819A81AB81BC8180839183AB
:10111000A283B383EE81FF81E855FF4FC082D18265
:10112000E282F38220E030E0A901C301B2010E9413
:10113000BE2887FD23C020E030E0A90169817A81C3
:101140008B819C810E94BE2887FD18C020E030E082
:10115000A901C701B6010E94BE2887FD0FC0AE815C
:10116000BF815A96AD90BC905B9709811A812B8103
:101170003C81B301A201CD010E948214E0919F063F
:10118000F091A006208131813A8329838901045599
:101190001F4F60919C0270919D0280E090E00E9440
:1011A0005B2920E030E04AE754E40E94C228D801DD
:1011B0006D937D938D939C93139709811A810055AC
:1011C0001F4F60919E0270919F0280E090E00E940C
:1011D0005B2920E030E040E251E40E94C228F8019F
:1011E00060837183828393836091A0027091A102D6
:1011F00080E090E00E945B29E981FA81E454FF4F8E
:101200006083718382839383E981FA81E45BFF4F7A
:10121000608371838283938309811A8100581F4FF1
:101220006091FE027091FF0280E090E00E945B29D5
:1012300020E030E040E251E40E94C228D8016D93E2
:101240007D938D939C9313970E946117811103C026
:1012500089819A8179D8E0919F06F091A00620813A
:1012600031813A832983F901E857FF4F20E030E0CC
:1012700040E251E460817181828193810E94112A50
:101280000E942F297093050360930403E981FA817A
:10129000E457FF4FA981BA81A458BF4F2D913D91CA
:1012A0004D915C9160817181828193810E94C228FD
:1012B00020E030E048EC52E40E94112A20E030E0C7
:1012C00040E251E40E94112A0E942F2970931303D7
:1012D000609312036091EA027091EB0280E090E06B
:1012E0000E945B2920E030E040E251E40E94C228E5
:1012F000AB01BC0189819A81BFD9E0919F06F09131
:10130000A0060190F081E02DEC53FF4F20E030E08B
:1013100040E251E460817181828193810E94112AAF
:101320000E942F297093EB026093EA020E946901E8
:10133000C0905602D0905702E0905802F0905902A7
:10134000A70196010E9459282FE632E143E05CE3B1
:101350000E940D2A87FD0FC00E946901609356020A
:101360007093570280935802909359022091A706D8
:10137000243030F179C00E946901A70196010E94D2
:10138000592820E030E0A9010E94BE2887FF97C0BD
:10139000A701960160E070E080E89FE40E94592870
:1013A0009B01AC0160E070E0CB010E945928609382
:1013B00056027093570280935802909359027FC04F
:1013C0006091AA067091AB06636071608091A5067A
:1013D0009091A606682B792B223041F0233041F002
:1013E000213011F0706405C0706503C0706601C0E3
:1013F0007067C090AC06D090AD06E090AE06F0905D
:10140000AF0670688091A2060E94231820E030E0A9
:1014100040E251E4C701B6010E94BE2887FF0EC01A
:1014200020E030E04AE754E4C701B6010E94112AE7
:101430000E942A29CB010E94821B0AC0C701B60163
:101440000E942A29072E000C880B990B0E948D1BE5
:101450008091A2060E9483180090A40602C096956F
:1014600087950A94E2F702C080E090E0BC0180E03A
:1014700090E00E945B292091B0063091B106409126
:10148000B2065091B3060E94112A2091B406309101
:10149000B5064091B6065091B7060E945928609350
:1014A000BC067093BD068093BE069093BF06609302
:1014B0005A0270935B0280935C0290935D0220E07D
:1014C00030E04FE254E460915A0270915B028091E7
:1014D0005C0290915D020E940D2A181644F410924D
:1014E0005A0210925B0210925C0210925D0220E0A0
:1014F00030E040E251E460915A0270915B028091C9
:101500005C0290915D020E94112A0E942F29709323
:1015100047036093460386E30E94C01A892B39F083
:1015200081E090E0909341038093400304C01092C7
:10153000410310924003609104037091050380E021
:1015400090E00E945B296B017C01609148037091DF
:10155000490380E090E00E945B2926E636E646E8F3
:101560005FE30E94112A9B01AC01C701B6010E94F2
:101570000D2A18160CF0C2C280910003909101034D
:10158000019709F0BBC2809177028111B7C2009127
:101590004A0310914B034801A12CB12CC501B401A1
:1015A0000E945B299B01AC0160E070E08AE794E453
:1015B0000E94C2280E942F292B013C018091000229
:1015C000823021F08F3F09F096C205C0E8E4F1E0D7
:1015D00034913D83DAC082E080930002E8E4F1E0D8
:1015E00084918D838F3F09F486C2823009F469C0EB
:1015F00030F5882309F44CC0813009F0C6C0109240
:101600008000109281008091810088608093810029
:1016100080918100816080938100E9E9F1E0E491AB
:10162000F0E0EE0FFF1FED59FE4F85919491EFED25
:10163000F1E0E491E0936102A1E0AD835AC19D81A4
:10164000943009F482C008F460C0953009F09DC060
:1016500010922001109221018091210188608093D5
:10166000210180912101816080932101E9E9F1E06C
:10167000E491F0E0EE0FFF1FED59FE4F859194913C
:10168000EFEDF1E0E491E0935E0225E02D8331C1BE
:1016900014BC15BC84B5826084BD85B5816085BDF0
:1016A000E9E9F1E0E491F0E0EE0FFF1FED59FE4FA4
:1016B00085919491EFEDF1E0E491E09362021D8257
:1016C000A8C21092B0001092B1008091B000826068
:1016D0008093B0008091B10081608093B100E9E90E
:1016E000F1E0E491F0E0EE0FFF1FED59FE4F859120
:1016F000949190935F0380935E03EFEDF1E0E491AA
:10170000E0936003B2E0BD8384C210929000109217
:101710009100809191008860809391008091910068
:10172000816080939100E9E9F1E0E491F0E0EE0F4F
:10173000FF1FED59FE4F85919491EFEDF1E0E4919B
:10174000E0936002E3E0ED83D4C01092A000109219
:10175000A1008091A10088608093A1008091A100E8
:1017600081608093A100E9E9F1E0E491F0E0EE0FFF
:10177000FF1FED59FE4F85919491EFEDF1E0E4915B
:10178000E0935F02F4E0FD83B4C03D8137FDB3C157
:1017900061E082E00E94461B8D818D7F09F0ADC023
:1017A00060E072E18AE790E0A50194010E940228BE
:1017B00029833A834B835C8369017A0181E0C81AEB
:1017C000D108E108F1089FEFC916D104E104F10442
:1017D00009F008F44DC060E472E48FE090E0A501E8
:1017E00094010E94022869017A01A1E0CA1AD10875
:1017F000E108F108BD81B23001F5EFEFCE16D1045A
:10180000E104F10409F008F48CC160E970ED83E0B3
:1018100090E0A50194010E94022869017A01F1E09B
:10182000CF1AD108E108F1082FEFC216D104E10464
:10183000F10409F040F583E055C03FEFC316D10431
:10184000E104F104B9F0B0F068E478EE81E090E0F2
:10185000A50194010E94022869017A0181E0C81A59
:10186000D108E108F1089D81992309F49DC193C134
:1018700081E001C082E0FD81F11134C095B5987F0F
:10188000892B85BDAAC068E478EE81E090E0A501CF
:1018900094010E94022869017A0191E0C91AD108D5
:1018A000E108F108AFEFCA16D104E104F10409F030
:1018B00008F435C164E274EF80E090E0A501940182
:1018C0000E94022869017A01A1E0CA1AD108E10840
:1018D000F108BFEFCB16D104E104F10411F008F0D8
:1018E0002EC185E09091B100987F892B8093B10043
:1018F00074C061E082E00E94461B60E072E18AE70A
:1019000090E0A50194010E94022869017A0181E01A
:10191000C81AD108E108F108C114D10491E0E90620
:10192000F10488F068E478EE81E090E0A50194018C
:101930000E94022869017A01A1E0CA1AD108E108CF
:10194000F10883E001C081E0BD81B13081F4909164
:101950008100987F892B8093810041145104610498
:10196000710409F03FC02FEF3FEFA9016DC0ED8179
:10197000E33079F490919100987F892B80939100C6
:10198000411451046104710469F52FEF3FEFA9017F
:101990007DC0FD81F43079F49091A100987F892B6E
:1019A0008093A1004114510461047104D9F42FEF14
:1019B0003FEFA9017DC02D81253079F4909121015F
:1019C000987F892B80932101411451046104710493
:1019D00049F42FEF3FEFA9017DC041145104610488
:1019E000710471F0D801AA0FBB1FA30192010E94DC
:1019F0001E2828EE33E040E050E00E94282803C073
:101A00002FEF3FEFA9018D81823081F12CF48823E3
:101A100061F08130C9F06FC09D81943009F448C0F5
:101A2000ACF1953009F456C066C0C7BC2093730270
:101A300030937402409375025093760280916E0049
:101A4000826080936E0057C0D0928900C092880057
:101A500020936F0230937002409371025093720290
:101A600080916F00826080936F0045C0C092B30088
:101A700020936103309362034093630350936403A4
:101A80008091700082608093700035C0D092990080
:101A9000C092980020936B0230936C0240936D02C9
:101AA00050936E028091710082608093710023C018
:101AB000D092A900C092A8002093670230936802D8
:101AC0004093690250936A02809172008260809311
:101AD000720011C0D0922901C092280120936302A4
:101AE00030936402409365025093660280917300C4
:101AF00082608093730081E080937702809100037D
:101B000090910103892B09F089C080917702882385
:101B100009F484C082E09CD2109277027FC084E0F6
:101B2000E1CE82E0DFCE82E089830C94CD0492E0A6
:101B300099830C94CD04A2E0A9830C94CD0462E1B6
:101B40007AE780E090E0A50194010E9402286901F3
:101B50007A01E1E0CE1AD108E108F1082FEFC216B0
:101B6000D104E104F104A9F0A0F089819A81AB814C
:101B7000BC812AE0B595A795979587952A95D1F7C9
:101B80006C017D01F1E0CF1AD108E108F10887E08E
:101B9000A9CE86E0A7CEFFEFCF16D104E104F10471
:101BA00009F068F684E067CEAFEFCA16D104E1040D
:101BB000F10469F160F162E17AE780E090E0A5016B
:101BC00094010E94022869017A0181E0C81AD108B3
:101BD000E108F1089FEFC916D104E104F104A9F06E
:101BE000A0F089819A81AB81BC813AE0B595A79537
:101BF000979587953A95D1F76C017D01E1E0CE1A72
:101C0000D108E108F10885E039CE84E037CE83E0E1
:101C100035CE61E082E00E94461BC2CD27960FB60A
:101C2000F894DEBF0FBECDBFDF91CF911F910F9112
:101C3000FF90EF90DF90CF90BF90AF909F908F90EC
:101C40007F906F905F904F900895CF92DF92EF92C8
:101C5000FF920F931F93CF93DF936C017A018B0157
:101C6000C0E0D0E0CE15DF0581F0D8016D918D0187
:101C7000D601ED91FC910190F081E02DC6011995FE
:101C8000892B11F02196EECF7E01C701DF91CF9114
:101C90001F910F91FF90EF90DF90CF900895FC017E
:101CA000538D448D252F30E0842F90E0821B930BC1
:101CB000541710F0CF96089501970895FC01918D67
:101CC000828D981761F0828DDF01A80FB11D5D969E
:101CD0008C91928D9F5F9F73928F90E008958FEF0C
:101CE0009FEF0895FC01918D828D981731F0828DC0
:101CF000E80FF11D858D90E008958FEF9FEF089517
:101D0000FC01918D228D892F90E0805C9F4F821B7A
:101D100091098F73992708958BE194E0F1DF21E019
:101D2000892B09F420E0822F089588EB94E0E8DF06
:101D300021E0892B09F420E0822F089585E595E0C4
:101D4000DFDF21E0892B09F420E0822F089582EF64
:101D500095E0D6DF21E0892B09F420E0822F089559
:101D6000FC01848DDF01A80FB11DA35ABF4F2C9138
:101D7000848D90E001968F739927848FA689B78907
:101D80002C93A089B1898C91837080648C93938DFE
:101D9000848D981306C00288F389E02D80818F7DA1
:101DA00080830895EF92FF920F931F93CF93DF9359
:101DB000EC0181E0888F9B8D8C8D981305C0E8899C
:101DC000F989808185FD25C0F62E0B8D10E00F5F0F
:101DD0001F4F0F731127E02E8C8DE8120BC00FB62A
:101DE00007FCFACFE889F989808185FFF5CFCE011C
:101DF000B7DFF2CF8B8DFE01E80FF11DE35AFF4FE5
:101E0000F0829FB7F8940B8FEA89FB89808180620A
:101E10000AC09FB7F894EE89FF896083E889F98941
:101E200080818370806480839FBF81E090E0DF9138
:101E3000CF911F910F91FF90EF900895CF93DF9373
:101E4000EC01888D8823C1F0EA89FB89808185FDBA
:101E500005C0A889B9898C9186FD0EC00FB607FC14
:101E6000F5CF808185FFF2CFA889B9898C9185FF54
:101E7000EDCFCE0175DFE8CFDF91CF91089580E0FF
:101E800090E0892B19F063DF811116C080E090E0AB
:101E9000892B19F053DF811112C080E090E0892B6B
:101EA00019F043DF81110EC080E090E0892B79F0BA
:101EB00033DF81110AC008950E940000E7CF0E941D
:101EC0000000EBCF0E940000EFCF0C9400000895BB
:101ED00085ED8093BC008091BC0084FDFCCF109206
:101EE0001604089540918703262F30E0240F311DFA
:101EF00021323105DCF4209116042430C9F4FC01B0
:101F000080E090E0861758F4309187032191DC013E
:101F1000A959BC4FA30FB11D2C930196F3CF80910B
:101F20008703680F6093870380E0089581E0089538
:101F300082E00895089508950895E0911A0480912B
:101F40001904E81730F4F0E0E655FC4F808190E08A
:101F500008958FEF9FEF089590911A0480911904CE
:101F6000981750F4E92FF0E0E655FC4F208130E05F
:101F70009F5F90931A0402C02FEF3FEFC9010895AD
:101F80008091190490E020911A04821B9109089510
:101F9000CF92DF92EF92FF920F931F93CF93DF9335
:101FA0007C01CB018A012091EE03222389F0EB0111
:101FB0006B01C40ED51ECC15DD0561F06991D7010A
:101FC000ED91FC910190F081E02DC7011995F3CFBF
:101FD000642F88DFC801DF91CF911F910F91FF908F
:101FE000EF90DF90CF900895CF93DF931F92CDB7FE
:101FF000DEB769832091EE032223D1F020911704EC
:10200000203240F021E030E0FC013383228380E085
:1020100090E014C080911804E82FF0E0E151FC4FEB
:10202000998190838F5F809318048093170404C074
:1020300061E0CE01019656DF81E090E00F90DF91E4
:10204000CF910895089580E090E008950E94A12B1B
:102050009091000289133DC0E8E4F1E0E4919FEF24
:1020600090930002E230C9F050F4EE2399F0E13091
:1020700081F590916F009D7F90936F002AC0E430AE
:1020800019F1E0F0E53029F5909173009D7F909370
:1020900073001FC010926E001CC0909170009D7F55
:1020A0009093700091E09093B0009091B100987F70
:1020B00094609093B1001092B3000BC090917100A6
:1020C0009D7F9093710005C0909172009D7F9093C9
:1020D000720060E00C94E81A1F920F920FB60F92F4
:1020E00011240BB60F922F933F934F935F936F93EF
:1020F0007F938F939F93AF93BF93EF93FF938091C1
:10210000610390916203A0916303B0916403892BF2
:102110008A2B8B2B51F190916003E0915E03F0913B
:102120005F0380818927808380916103909162039E
:10213000A0916303B0916403181619061A061B06D2
:10214000BCF48091610390916203A0916303B0910C
:1021500064030197A109B10980936103909362031D
:10216000A0936303B093640303C08091000270DF07
:10217000FF91EF91BF91AF919F918F917F916F915F
:102180005F914F913F912F910F900BBE0F900FBE1B
:102190000F901F9018956115710579F0FB01019062
:1021A0000020E9F73197AF01461B570BDC01ED9199
:1021B000FC910280F381E02D199480E090E0089575
:1021C0002F923F924F925F926F927F928F929F9247
:1021D000AF92BF92CF92DF92EF92FF920F931F9335
:1021E000CF93DF93CDB7DEB7A2970FB6F894DEBFDB
:1021F0000FBECDBF8C014A015B01D22E9A01AB010B
:10220000C501B4010E94742A882319F066E472E0C3
:1022100027C024013501E89477F82FEF3FEF4FE70F
:102220005FE7C301B2010E94742A81110DC02FEF34
:102230003FEF4FE75FE7C301B2010E94BE281816C7
:102240001CF46AE472E00CC02FEF3FEF4FE75FE44D
:10225000C501B4010E940D2A18162CF46EE472E038
:10226000C80199DFBBC02FEF3FEF4FE75FECC5011F
:10227000B4010E94BE2887FDF1CF20E030E0A90123
:10228000C501B4010E94BE2887FF0FC0D801ED919F
:10229000FC910190F081E02D6DE2C80119951C01BF
:1022A000B7FAB094B7F8B09402C0212C312CF12CBD
:1022B00060E070E080E09FE3DF1441F020E030E078
:1022C00040E251E40E94C228F394F6CFA5019401A4
:1022D0000E945A284B015C010E942F29562E672E1E
:1022E000782EC92E19A2262F372F482F592F7E015D
:1022F000B1E2EB0EF11CEAA24F2CCA01B9012AE0AF
:1023000030E040E050E00E942828605DF7016293D1
:102310007F01211531054105510579F7BF01C8013C
:102320003ADF7101E80EF91EDD2009F456C0652D73
:10233000762D872D9C2D0E945B299B01AC01C50148
:10234000B4010E9459284B015C01D801ED91FC9128
:102350000190F081E02D6EE2C8011995E80EF91E9A
:1023600020E030E040E251E4C501B4010E94112AAE
:102370004B015C010E942F299B0140E050E019A213
:102380002AA0342C562E632E742EC52ECA01B901F4
:102390002AE030E040E050E00E942828605DF10132
:1023A00062931F01211531054105510579F7BF01E0
:1023B000C801F1DEE80EF91E652D762D872D9C2DC6
:1023C0000E945B299B01AC01C501B4010E94592800
:1023D0004B015C01DA94D110C3CFC701A2960FB6AE
:1023E000F894DEBF0FBECDBFDF91CF911F910F914B
:1023F000FF90EF90DF90CF90BF90AF909F908F9025
:102400007F906F905F904F903F902F9008951F9214
:102410000F920FB60F9211240BB60F922F933F938A
:102420004F935F936F937F938F939F93AF93BF93DC
:10243000EF93FF938BE194E093DCFF91EF91BF91D9
:10244000AF919F918F917F916F915F914F913F914C
:102450002F910F900BBE0F900FBE0F901F901895ED
:102460001F920F920FB60F9211240BB60F922F935B
:102470003F934F935F936F937F938F939F93AF930C
:10248000BF93EF93FF938BE194E00E94A71AFF9113
:10249000EF91BF91AF919F918F917F916F915F91DC
:1024A0004F913F912F910F900BBE0F900FBE0F9049
:1024B0001F9018951F920F920FB60F9211240BB612
:1024C0000F922F933F934F935F936F937F938F93CD
:1024D0009F93AF93BF93EF93FF9388EB94E040DC1F
:1024E000FF91EF91BF91AF919F918F917F916F91EC
:1024F0005F914F913F912F910F900BBE0F900FBEA8
:102500000F901F9018951F920F920FB60F921124E3
:102510000BB60F922F933F934F935F936F937F93DD
:102520008F939F93AF93BF93EF93FF9388EB94E0C8
:102530000E94A71AFF91EF91BF91AF919F918F9148
:102540007F916F915F914F913F912F910F900BBEB3
:102550000F900FBE0F901F9018951F920F920FB6FD
:102560000F9211240BB60F922F933F934F935F93CB
:102570006F937F938F939F93AF93BF93EF93FF934B
:1025800085E595E0EDDBFF91EF91BF91AF919F91D4
:102590008F917F916F915F914F913F912F910F900C
:1025A0000BBE0F900FBE0F901F9018951F920F92A9
:1025B0000FB60F9211240BB60F922F933F934F93A8
:1025C0005F936F937F938F939F93AF93BF93EF939B
:1025D000FF9385E595E0BBD7FF91EF91BF91AF9158
:1025E0009F918F917F916F915F914F913F912F912B
:1025F0000F900BBE0F900FBE0F901F9018951F925B
:102600000F920FB60F9211240BB60F922F933F9398
:102610004F935F936F937F938F939F93AF93BF93EA
:10262000EF93FF9382EF95E09BDBFF91EF91BF91DA
:10263000AF919F918F917F916F915F914F913F915A
:102640002F910F900BBE0F900FBE0F901F901895FB
:102650001F920F920FB60F9211240BB60F922F9369
:102660003F934F935F936F937F938F939F93AF931A
:10267000BF93EF93FF9382EF95E069D7FF91EF91BE
:10268000BF91AF919F918F917F916F915F914F918A
:102690003F912F910F900BBE0F900FBE0F901F9088
:1026A00018951F920F920FB60F9211240BB60F922E
:1026B0002F933F934F935F936F937F938F939F934A
:1026C000AF93BF93EF93FF938091B900887F8036DB
:1026D00009F49CC068F5883209F45BC090F480313D
:1026E00009F454C038F4882309F4F6C0883009F49A
:1026F0004DC0F5C0883109F44CC0803209F45DC08A
:10270000EEC0803409F468C048F4803309F455C041
:10271000883309F0E4C08093ED03D8C0803509F414
:102720004FC0883509F45DC0883409F0D8C0D6C0E0
:10273000883909F4C7C0A8F4883709F467C038F4A9
:10274000883609F463C0803709F460C0C8C088388F
:1027500009F4B8C0803909F45FC0803809F0BFC0FF
:102760005BC0803B09F486C038F4803A09F466C047
:10277000883A09F47FC0B3C0803C09F4A7C0883C04
:1027800009F4A4C0883B09F48AC0A9C08091CA0397
:1027900010C09091EC038091EB03981770F5E091D5
:1027A000EC0381E08E0F8093EC03F0E0E553FC4FE7
:1027B00080818093BB0085EC86C08093ED038EC042
:1027C000E091EC0381E08E0F8093EC038091BB00DD
:1027D000F0E0E553FC4F80839091EC038091EB0394
:1027E0006EC0E091EC0381E08E0F8093EC0380914A
:1027F000BB00F0E0E553FC4F80838091150481110C
:102800006DC081E08093140484EA61C083E080930A
:1028100016041092A903CFCF8091A903803208F04B
:1028200051C0E091A90381E08E0F8093A9038091AC
:10283000BB00F0E0E757FC4F8083BDCF85EC809371
:10284000BC00109216048091A903803230F4E0910C
:10285000A903F0E0E757FC4F10826091A90370E0F4
:10286000E0911004F091110489E893E01995109219
:10287000A90335C084E08093160410928803109257
:102880008703E0911204F091130419958091870356
:10289000811105C081E08093870310926703E09166
:1028A000880381E08E0F80938803F0E0E959FC4FA4
:1028B00080818093BB009091880380918703981753
:1028C00008F479CF85E88093BC0009C085EC80933B
:1028D000BC001092160403C01092ED03F9DAFF91C8
:1028E000EF91BF91AF919F918F917F916F915F9188
:1028F0004F913F912F910F900BBE0F900FBE0F90F5
:102900001F9018954F925F926F927F928F929F9235
:10291000AF92BF92CF92DF92EF92FF920F931F93ED
:10292000CF93DF93CDB7DEB72A970FB6F894DEBF0B
:102930000FBECDBF9A8789872A013B0109831A837D
:102940002B833C83DC015B96BC92AE925A9781E06C
:10295000AA94AB2809F080E0E985FA8583AF40822C
:1029600051826282738289819A81AB81BC81848326
:102970009583A683B783C086D186E286F38666A553
:1029800077A580A991A90E945B2920E030E04AE761
:1029900054E40E94C2286D837E838F839887E985E3
:1029A000FA8544865586668677869B01AC016981E7
:1029B0007A818B819C810E94112A4B015C01A9853F
:1029C000BA8550966D937D938D939C9353972D81EB
:1029D0003E814F815885C701B6010E94C2286B0114
:1029E0007C01E985FA85648B758B868B978B808D4E
:1029F000918D019759F5A301920160E070E0CB0140
:102A00000E945928A985BA851C966D937D938D9354
:102A10009C931F97A501940160E070E0CB010E9498
:102A20005928E985FA85608B718B828B938BA7017E
:102A3000960160E070E0CB010E945928A985BA8513
:102A400054966D937D938D939C9357972A960FB6CA
:102A5000F894DEBF0FBECDBFDF91CF911F910F91D4
:102A6000FF90EF90DF90CF90BF90AF909F908F90AE
:102A70007F906F905F904F9008951F920F920FB6C6
:102A80000F9211240F900FBE0F901F901895E09198
:102A90009F06F091A0060190F081E02D82AD81119A
:102AA00012C0DF01A457BF4F1D921D921D921C92B0
:102AB000139793978C91811108C060E070E0CF016B
:102AC0008C599F4F4DC312AEECCF08952F923F9279
:102AD0004F925F926F927F928F929F92AF92BF922E
:102AE000CF92DF92EF92FF920F931F93CF93DF93DA
:102AF000CDB7DEB72F970FB6F894DEBF0FBECDBFB0
:102B0000E0919F06F091A006808191819F878E873A
:102B1000DC01DA968C9181114CC0AE85BF855E9642
:102B2000ED91FC915F97C080D180E280F380FD0140
:102B3000C6A2D7A2E0A6F1A65C96ED91FC915D97A6
:102B400080819181A281B381EE85FF8582A793A7C1
:102B5000A4A7B5A786A897A8A0ACB1ACA50194017D
:102B6000C701B6010E940D2AAE85BF851816D4F0A4
:102B7000D2968D909D90AD90BC90D597A501940173
:102B8000C701B6010E94BE2887FD05C081E0EE8521
:102B9000FF8582AF0EC0EE85FF8586A297A2A0A614
:102BA000B1A6F4CF96968D929D92AD92BC929997D4
:102BB000EDCF8E859F850E94A401EE85FF8582ADB5
:102BC000882309F437C17AD76D837E838F839887F2
:102BD000EE85FF8582A193A1A4A1B5A14D815E815F
:102BE0006F817885481B590B6A0B7B0B86A597A5CF
:102BF000A0A9B1A9481759076A077B0708F41AC1A9
:102C0000048CF58DE02D80819181A281B38189832F
:102C10009A83AB83BC83AE85BF859096ED91FC9182
:102C2000919729813A814B815C8160817181828198
:102C300093810E9459284B015C01EE85FF8522A5F6
:102C400033A544A555A569817A818B819C810E9419
:102C500059286B017C01AE85BF8550962D913D9121
:102C60004D915C915397C501B4010E94112AEE85E4
:102C7000FF8526A137A140A551A50E945A282B0106
:102C80003C01AE85BF8596966D937D938D939C9305
:102C90009997DB96BC91B987BB2309F4B2C0EE8546
:102CA000FF8546A057A060A471A416A907A930AC5F
:102CB00021AC212F302F432D522DC301B2010E9490
:102CC0000D2A18160CF492C0AE85BF85D2968D9150
:102CD0009D910D90BC91A02D8A879B87AC87BD8765
:102CE0009C01AD01C301B2010E94BE2887FD79C0DD
:102CF000F985F11169C0812C912C5401AE85BF85F5
:102D000054962D913D914D915C915797C701B60115
:102D10000E94112A9B01AC01EE85FF8566A177A177
:102D200080A591A50E945928A50194010E945A28C6
:102D3000F62EE72ED82EC92E262F372F482F592FA3
:102D4000612F702F832D922D0E94BE2887FD1BC0FE
:102D5000AE85BF85D2961C91D297D3960C91D3970E
:102D6000D4963C90D497D5962C90212F302F432D7C
:102D7000522D6F2D7E2D8D2D9C2D0E94BE2887FDFE
:102D800002C087011601AE85BF855E96ED91FC916C
:102D90005F97812F902FA32DB22D80839183A283E3
:102DA000B38389819A81AB81BC81EE85FF8582A73F
:102DB00093A7A4A7B5A78D819E81AF81B88582A373
:102DC00093A3A4A3B5A336C0EE85FF8524853585DE
:102DD00046855785C501B4010E94112A4B015C014B
:102DE0008DCF8A859B85AC85BD8504C0812F902FB2
:102DF000A32DB22DEE85FF8586A397A3A0A7B1A72B
:102E000077CFAE85BF851C962D913D914D915C91FC
:102E10001F97C701B6010E94112A9B01AC01C30193
:102E2000B2010E945928EE85FF8566A377A380A78B
:102E300091A735CFEE85FF85E759FF4F808181113E
:102E400027C0EE85FF85E457FF4F60817181828145
:102E500093810E942F298E859F858C599F4F2F9695
:102E60000FB6F894DEBF0FBECDBFDF91CF911F919B
:102E70000F91FF90EF90DF90CF90BF90AF909F9019
:102E80008F907F906F905F904F903F902F9068C190
:102E90002F960FB6F894DEBF0FBECDBFDF91CF9156
:102EA0001F910F91FF90EF90DF90CF90BF90AF9068
:102EB0009F908F907F906F905F904F903F902F905A
:102EC000089581E020910003309101032130310504
:102ED00009F080E0089590E0FC013197E231F105BE
:102EE00008F04EC08827EE56FF4F8F4F0C94782A7B
:102EF000809180008F7703C0809180008F7D8093C8
:102F00008000089580918000877FF9CF84B58F7706
:102F100002C084B58F7D84BD08958091B0008F7705
:102F200003C08091B0008F7D8093B00008958091A0
:102F300090008F7707C0809190008F7D03C08091B3
:102F40009000877F8093900008958091A0008F77F4
:102F500007C08091A0008F7D03C08091A000877F73
:102F60008093A0000895809120018F7707C0809101
:102F700020018F7D03C080912001877F80932001F5
:102F80000895682F8FE896E02FC8282F30911704F6
:102F9000313208F04AC0809116048111FCCF909123
:102FA0000F0442E040931604209315042FEF209362
:102FB000ED031092EC033093EB03EFEEF3E0ABEC98
:102FC000B3E020E0321721F041914D932F5FFACF0B
:102FD0001092CA032091CA03990F922B9093CA03AF
:102FE00090911404913061F4109214049091CA03EA
:102FF0009093BB009091BC0093FDF8CF95EC01C07D
:1030000095EE9093BC00909116049230E1F390916C
:10301000ED039F3F79F08091ED03803241F0809184
:10302000ED03803331F084E005C081E003C082E02D
:1030300001C083E010921804109217041092EE035E
:10304000089581E0A2CFCF93DF93EB0191E09093BD
:10305000EE0380930F04109218041092170461E09D
:103060008FE896E00E94F40F6D2F8FE896E00E94A3
:10307000F40F6C2F8FE896E00E94F40FDF91CF9150
:10308000E0CF909116049111FCCF91E0909316043B
:10309000909315042FEF2093ED031092EC03260F6D
:1030A0002093EB039093CA039091CA03880F892B56
:1030B0008093CA0380911404813061F41092140447
:1030C0008091CA038093BB008091BC0083FDF8CF40
:1030D00085EC01C085EE8093BC00809116048130A0
:1030E000E1F38091EC03861710F46091EC03ABECF4
:1030F000B3E0EAEAF3E080E0861721F09D91919336
:103100008F5FFACF08951F93CF93DF93182F81E03D
:103110008093EE0310930F0410921804109217047A
:1031200060E08FE896E00E94F40F8BDF62E0812F71
:10313000A8DF10921A04809319048FE896E00E9489
:10314000AC0F182F8FE896E00E94AC0FD12F20E033
:10315000C22F9E01282BC901DF91CF911F910895A5
:10316000FF920F931F93CF93DF93EB0108EB10E0D7
:10317000F801F0802CE02083FC01808191E09093A5
:10318000EE0380930F04109218041092170460E469
:103190008FE896E00E94F40FCE0124E09695879583
:1031A0002A95E1F7EEDECE0134E0880F991F3A95BB
:1031B000E1F79927E6DE45DFF801F082DF91CF9154
:1031C0001F910F91FF9008951F93CF93DF93EC0110
:1031D000162F80911E0791E09093EE0380930F04C9
:1031E00010921804109217048D2F90E0CADECE01C1
:1031F0009927C7DE612F8FE896E00E94F40FDF91D8
:10320000CF911F911ECFCF92DF92EF92FF92CF937B
:10321000DF93EC016A017B01E889F98982E0808310
:103220004115514E61057105B1F060E079E08DE323
:1032300090E0A70196010E942828DA01C9010197B0
:10324000A109B109B695A795979587959C01211578
:1032500080E13807A8F0E889F989108260E874E80D
:103260008EE190E0A70196010E942828DA01C901A9
:103270000197A109B109B695A795979587959C01E6
:10328000EC85FD853083EE85FF852083188EEC89E3
:10329000FD8986E08083EA89FB8980818061808363
:1032A000EA89FB89808188608083EA89FB89808143
:1032B00080688083EA89FB8980818F7D8083DF91AC
:1032C000CF91FF90EF90DF90CF900895E9ECF6E07A
:1032D00090E02FEF3FEF981791F04191242748E0BD
:1032E000B9016170772736952795672B21F051E05A
:1032F000252750EA3527415099F79F5FECCF922F51
:10330000832F0895CF93C09109078C2FDFDFEC2F17
:10331000F0E0E054F94F9187E1E0EC0FF0E0E05489
:10332000F94F8187CE5FC09309079091C6068091BF
:10333000C506923038F1823051F0833071F081301F
:1033400091F49091C80090649093C80011C090913E
:10335000D00090649093D0000BC0909130019064A5
:103360009093300105C09091C00090649093C0008C
:1033700090910501906490930501909105019062F0
:103380009093050140910907843028F48091C0068C
:103390009091C10604C08091C2069091C30650E08E
:1033A000DC01ED91FC910280F381E02D69EC76E087
:1033B00019959091C6068091C506923018F1823019
:1033C00049F0833061F0813079F49091C80096FF24
:1033D000FCCF0EC09091D00096FFFCCF09C0909119
:1033E000300196FFFCCF04C09091C00096FFFCCF47
:1033F000909105019F7B90930501909105019F7D20
:1034000090930501843068F58091C0069091C106C3
:10341000DC01ED91FC910284F385E02D199597FF75
:10342000F3CF109209074AD3209113073091140764
:10343000DC01CB01820F931FA11DB11D80931907E1
:1034400090931A07A0931B07B0931C0780910F0756
:103450009091100701969093100780930F07CF91DA
:1034600008958091C2069091C306DC01ED91FC9114
:103470000284F385E02D199597FFF3CFD2CF809189
:10348000A8069091A906811524E0920709F130F46D
:103490000097A1F081159240B1F00895811528E0C0
:1034A0009207D9F081152AE09207E1F08115964044
:1034B00029F58DEC9CECACECBBE318C08AE999E9EA
:1034C000A9E1BDE313C08DEC9CECACECBCE30EC0F9
:1034D0008DEC9CECACE4BCE309C08DEC9CECACE462
:1034E000BBE304C08DEC9CECACECBAE38093B0067B
:1034F0009093B106A093B206B093B30608950F93CC
:103500001F93CF93DF938C01CEE1D7E0888191E0C8
:103510009093EE0380930F041092180410921704F6
:10352000812F90E02EDDC80199272BDD8ADD61E037
:103530008881A7DD10921A04809319048FE896E021
:103540000E94AC0FDF91CF911F910F910895FC0164
:10355000A089B1898C91A689B78982FD0FC09C9101
:10356000818D8F5F8F73228D821749F0218DDF014E
:10357000A20FB11D5D969C93818F08958C91089543
:10358000CF93DF93282F30E0F901ED5DFD4F84915B
:10359000F901E352FE4FD491F901E956FE4FC4916F
:1035A000CC2389F0811197DCEC2FF0E0EE0FFF1FA8
:1035B000E358FE4FA591B491EC91ED2381E090E0AA
:1035C00021F480E002C080E090E0DF91CF91089587
:1035D0001F93CF93DF93282F30E0F901ED5DFD4F6E
:1035E0008491F901E352FE4FD491F901E956FE4F5F
:1035F000C491CC23B9F0162F81116DDCEC2FF0E0D3
:10360000EE0FFF1FED59FE4FA591B4919FB7F894AF
:10361000111104C08C91D095D82302C0EC91DE2BFF
:10362000DC939FBFDF91CF911F91089510921A04F0
:103630001092190410921804109217041092160494
:1036400081E0809315041092140461E084E1C0DFEE
:1036500061E085E1BDDFE9EBF0E080818E7F808372
:1036600080818D7F808388E48093B80085E4809397
:10367000BC008AE99FE090931304809312048BE9C5
:103680009FE090931104809310040895CF93DF93EB
:1036900090E0FC01E352FE4F2491FC01E956FE4FFD
:1036A0008491882361F190E0880F991FFC01E75B0A
:1036B000FE4FC591D491FC01ED59FE4FA591B491F7
:1036C000611109C09FB7F89488812095822388836F
:1036D000EC912E230BC0623061F49FB7F89488817F
:1036E000322F309583238883EC912E2B2C939FBF10
:1036F00006C08FB7F894E8812E2B28838FBFDF9107
:10370000CF9108958230910538F0880F991F880F66
:10371000991F05970197F1F708958F929F92AF92A5
:10372000BF92CF92DF92EF92FF926B017C01A1D109
:103730004B015C01C114D104E104F104E9F099D119
:10374000DC01CB0188199909AA09BB09883E93407D
:10375000A105B10578F321E0C21AD108E108F1080A
:1037600088EE880E83E0981EA11CB11CC114D10400
:10377000E104F10421F7DECFFF90EF90DF90CF90CE
:10378000BF90AF909F908F900895CF92DF92EF926D
:10379000FF92CF93DF9382E1F3DE892B51F40E94F5
:1037A00069016093250770932607809327079093FC
:1037B00028070E946901C0902507D0902607E09055
:1037C0002707F0902807A70196010E94592820E0BA
:1037D00030E040E450E40E940D2A87FF25C00E949B
:1037E0006901A70196010E94592820E030E0A90153
:1037F0000E94BE2887FFA6C0A701960160E070E086
:1038000080E89FE40E9459289B01AC0160E070E0D1
:10381000CB010E9459286093250770932607809357
:103820002707909328078EC049D1C0901907D090E0
:103830001A07E0901B07F0901C07C616D706E8068B
:10384000F90650F581E090E09093250380932403DE
:10385000109201031092000360E08BE3B9DE17D9E8
:1038600080912A07811103C081E080932A07E091AB
:103870009F06F091A0060190F081E02DE857FF4FE0
:1038800020E030E0A90160817181828193810E94F2
:10389000BE28181664F107C0109225031092240365
:1038A00010922A07E4CF82E090E090932503809362
:1038B0002403EDD880912907811103C081E0809312
:1038C0002907E0919F06F091A006C081D181FE01F9
:1038D000E857FF4F20E030E048EC53E4608171810D
:1038E000828193810E940D2A181644F428C01092F8
:1038F00025031092240310922907E3CF20E030E043
:1039000040E251E4FE01EB59FF4F608171818281F9
:1039100093810E940D2A1816FCF4C457DF4F20E053
:1039200030E0A901688179818A819B810E94BE284B
:10393000811112C0C6DA81110FC082E001C081E09E
:103940000E94EA27BEDA81116FCFDF91CF91FF90FD
:10395000EF90DF90CF909BC8DF91CF91FF90EF90D9
:10396000DF90CF9008954F925F926F927F928F92E7
:103970009F92AF92BF92CF92DF92EF92FF920F93FE
:103980001F93CF93DF93E0919F06F091A006C08133
:10399000D181812C912C88ECA82E82E4B82E8AAAA1
:1039A0009BAAACAABDAAC12C90EFD92E9FE7E92E05
:1039B00095E4F92ECEAADFAAE8AEF9AE8AAD882347
:1039C00009F446C00E8D1F8DF80140805180628041
:1039D0007380A7019601C301B2010E940D2A181637
:1039E0008CF120E030E048EC52E4C301B2010E94C7
:1039F000BE2887FD21C08EA09FA0A8A4B9A4CEA8F0
:103A0000DFA8E8ACF9ACA7019601C501B4010E949A
:103A10000D2A181664F0CAA8DBA8ECA8FDA8A70117
:103A20009601C501B4010E94BE2887FF11C0CEA235
:103A3000DFA2E8A6F9A60CC0F80180829182A282DA
:103A4000B382D9CFF801C082D182E282F382D3CF90
:103A5000DF91CF911F910F91FF90EF90DF90CF906A
:103A6000BF90AF909F908F907F906F905F904F909E
:103A700008953FB7F8948091300790913107A09155
:103A80003207B091330726B5A89B05C02F3F19F028
:103A90000196A11DB11D3FBFBA2FA92F982F8827CE
:103AA000820F911DA11DB11DBC01CD0142E0660F29
:103AB000771F881F991F4A95D1F708952FB7F8945B
:103AC00060912C0770912D0780912E0790912F0700
:103AD0002FBF08951F920F920FB60F9211242F93AC
:103AE0003F938F939F93AF93BF9380912C079091B7
:103AF0002D07A0912E07B0912F0730912B0723E0BF
:103B0000230F2D3720F40196A11DB11D05C026E815
:103B1000230F0296A11DB11D20932B0780932C0724
:103B200090932D07A0932E07B0932F078091300715
:103B300090913107A0913207B09133070196A11DF2
:103B4000B11D8093300790933107A0933207B09353
:103B50003307BF91AF919F918F913F912F910F901C
:103B60000FBE0F901F901895CF93DF93CDB7DEB7A0
:103B700068970FB6F894DEBF0FBECDBF789484B5BA
:103B8000826084BD84B5816084BD85B5826085BD59
:103B900085B5816085BD80916E00816080936E00E7
:103BA00010928100809181008260809381008091D9
:103BB000810081608093810080918000816080938A
:103BC00080008091B10084608093B1008091B0004A
:103BD00081608093B0008091910082608093910019
:103BE000809191008160809391008091900081602C
:103BF000809390008091A10082608093A1008091C9
:103C0000A10081608093A1008091A00081608093D9
:103C1000A000809121018260809321018091210187
:103C20008160809321018091200181608093200137
:103C300080917A00846080937A0080917A0082601B
:103C400080937A0080917A00816080937A008091DD
:103C50007A00806880937A001092C10068EE73E069
:103C600080E090E05ADD82E390E09093210380931E
:103C7000200383E68093A106D9DC60E070E081EA4E
:103C800096E06EDA60E086E301DD61E089E0FEDC6B
:103C900061E082E0FBDC61E08AE0F8DC60E08AE081
:103CA00097DC61E08BE0F2DC60E08BE091DC61E0CE
:103CB0008CE0ECDC61E08CE08BDC60E082E1E6DC57
:103CC00061E08BE3E3DC61E08BE382DC61E088E0D0
:103CD000DDDC40E251EA67E070E082EF95E093DAE4
:103CE0008091A8069091A9069093A6068093A506B8
:103CF000C6DB80EE90E09093AB068093AA068AE93B
:103D000099E9A9E9BFE38093AC069093AD06A0932F
:103D1000AE06B093AF0680E580931E0787DCFF24D4
:103D2000F394F092EE038CE780930F041092180442
:103D30001092170460911E0770E0660F771F8FE8DE
:103D400096E00E94F40F80E020D963E08CE799D9D7
:103D500010921A04809319048FE896E00E94AC0F29
:103D60008C018FE896E00E94AC0F9A8389838FE8DC
:103D700096E00E94AC0F29812F7030E0322F22276D
:103D8000A901480F511D1127A4E0000F111FAA958A
:103D9000E1F7A981BA81BB2724E0B595A7952A95BB
:103DA000E1F7A00FB11F1A9729F44031554011F4E3
:103DB000F0921F078091C506823039F0833041F0C0
:103DC000813049F485E595E008C088EB94E005C0B2
:103DD0008BE194E002C082EF95E09093C10680935E
:103DE000C00640E052EC61E070E08091C006909126
:103DF000C10609DA8091C606823078F0809104010C
:103E0000806680930401809105018F7B809305017A
:103E1000809105018F7D809305018091C00690916E
:103E2000C106DC01ED91FC910284F385E02D19952A
:103E300097FFF3CF1092090710920A07109212070A
:103E4000109211071092100710920F0710920E0790
:103E500010920D0706E912E0E8EEF3E0FA83E98339
:103E600089819A810E947401D8018D939D938D015F
:103E7000E981FA813496FA83E983E115F44081F708
:103E800008E712E01A82198289819A810E947401DE
:103E9000D8018D939D938D01E981FA813496FA833F
:103EA000E983749789F70CE812E089819A810E946E
:103EB0007401D8018D939D938D01E981FA81349627
:103EC000FA83E983B89789F788E290E00E94740149
:103ED0009093EB028093EA028CE290E00E947401DE
:103EE0009093ED028093EC0280E390E00E947401D5
:103EF0009093F9028093F80284E390E00E947401A9
:103F00009093FB028093FA0288E390E00E94740190
:103F100090932703809326038CE390E00E94740122
:103F2000909329038093280380E490E00E94740119
:103F300090932B0380932A0384E490E00E94740101
:103F40009093FD028093FC0288E490E00E9474014B
:103F500090934903809348038CE490E00E9474019D
:103F600090934B0380934A0380E590E00E94740194
:103F70009093FF028093FE020CE213E024E530E010
:103F80003A83298389819A810E947401D8018D9393
:103F90009D938D01E981FA813496FA83E983E836AD
:103FA000F10581F788EC90E00E94802A988F8F8B32
:103FB0004C01BEE68B0E911CF401808191812F890A
:103FC000388D28553F4F3E832D83D901CD90DD900C
:103FD000ED90FC90EF89F88DEC55FF4FFC8BEB8B4F
:103FE00040805180628073802F89388D20563F4FEA
:103FF0003E8B2D8BD9012D913D914D915C91298363
:104000003A834B835C832F88388CBCE82B0E311CA1
:10401000EF89F88D378E268E9F0128573F4F358FB9
:10402000248F245C3F4F31A320A312AE12AA13AAFF
:1040300014AA15AA40E050E06FE773E446AB57AB13
:1040400060AF71AF44E650E060E070E046A757A76C
:1040500060AB71AB918F808F20E030E0A901698166
:104060007A818B819C810E94BE2887FD1FC020E041
:1040700030E0A901C301B2010E94BE2887FD16C02D
:1040800020E030E0A901C701B6010E94BE2887FDEB
:104090000DC0AA24A394B12C9301820149815A81B5
:1040A0006B817C818F89988D0E94821407DDEF8956
:1040B000F88D06A517A520A931A9DC01CB01801B2D
:1040C000910BA20BB30B82A393A3A4A3B5A382E38A
:1040D00091E1A0E8BBE384AF95AFA6AFB7AF8FE7A0
:1040E00095E0ABE1B5EBE05CFF4F80839183A28369
:1040F000B3834F88588CF6E44F0E511C88E4D201EC
:104100008C9314961C921E92139798E011969C9390
:10411000119712961C92EF89F88DE05AFF4F10828A
:10412000118212821382EF89F88DEC5BFF4F80833E
:10413000EF89F88DEB5BFF4FFA83E98382E680839A
:104140008091A106EF89F88DEC59FF4F8083EF89AC
:10415000F88DEB59FF4F10821182128213822F8942
:10416000388D27593F4F3A8B298BD9011C92F40186
:1041700011821082EF89F88DE059FF4F1082118271
:10418000128213828CE291E0A0E0B0E0EF89F88D1A
:10419000E858FF4F80839183A283B38380E090EF40
:1041A000AFE7B5E48F88988CFCE78F0E911CF40183
:1041B00080839183A283B383EF89F88DE857FF4F03
:1041C0001082118212821382D1011D921D921D92C2
:1041D0001C92139780E090E0A0E8BEE3EF89F88D91
:1041E000EC56FF4F80839183A283B38380E090E0FD
:1041F000AAEFB3E4EF89F88DE856FF4F80839183EF
:10420000A283B383EF89F88DE456FF4F10821182A9
:1042100012821382ED89FE8910821182128213822A
:10422000AB89BC891D921D921D921C921397ED8142
:10423000FE81108211821282138280E090E0A0E859
:10424000BFE3EF89F88DE455FF4F80839183A2830C
:10425000B383EF89F88DE055FF4F108211821282EF
:1042600013828AE097EDA3E2BCE3EF89F88DEC546A
:10427000FF4F80839183A283B38384EA90E7ADE705
:10428000BFE3EF89F88DE854FF4F80839183A283C9
:10429000B3832F88388CFCEB2F0E311C80E090E02C
:1042A000A8ECB4E4F10180839183A283B3832F89C6
:1042B000388D20543F4F3E832D8380E090E0AAE765
:1042C000B4E4F90180839183A283B383EF89F88DED
:1042D000EC53FF4F1082118212821382AF89B88D86
:1042E0005A96AD90BC905B97C12CD12C760197016A
:1042F0008601B701A601CD010E948214F401C0809D
:10430000D180E280F38020E030E0A901C701B6014E
:1043100035D718160CF05AC0AF89B88DD2961D92B9
:104320001D921D921C92D597FD01C6AAD7AAE0AE98
:10433000F1AE82AD882309F449C0668C778CD30135
:104340008D909D90AD90BC90A5019401C701B601E0
:1043500015D787FF06C0F301C082D182E282F382C3
:104360000EC020E030E0A901C501B40107D787FFE6
:1043700006C0D3011D921D921D921C921397EF89C6
:10438000F88D86A097A0A0A4B1A4C6A8D7A8E0AC39
:10439000F1ACA7019601C501B4010E940D2A1816BF
:1043A0006CF0EF89F88DC2A8D3A8E4A8F5A8A701FE
:1043B0009601C501B401E2D687FF08C0AF89B88D68
:1043C0009696CD92DD92ED92FC929997EF89F88DB9
:1043D00066A577A580A991A96ED79B01AC0160E085
:1043E00070E080EA90E4CED66B017C019B01AC01C9
:1043F000AF89B88D50966D917D918D919C91539719
:104400000E94112AEF89F88D608B718B828B938BC0
:10441000A70196016489758986899789B3D6AF8982
:10442000B88D54966D937D938D939C93579785E0AB
:1044300090E0A0E0B0E0EF89F88D86A797A7A0AB49
:10444000B1ABF4D8EF89F88DE55BFF4FA981BA8154
:104450008C918083EBD8F201148213826FEF7FE09E
:104460008F89988D855B9F4F0E94B0182F89388D5A
:10447000245B3F4FF10180819181A281B381F901D9
:1044800080839183A283B3832F89388D205B3F4F34
:10449000ED81FE8180819181A281B381F9018083C8
:1044A0009183A283B3832F89388D30934F03209358
:1044B0004E03A989BA891C9280919D0690919E060F
:1044C00020919B0630919C068217930721F57C0171
:1044D000EE0CFF1C892B11F0C70102C081E090E0B7
:1044E00090939E0680939D06880F991F0E94802AB4
:1044F0009A83898300919F061091A006A701B801B5
:104500000E94A52BC8010E94182BE981FA81F09323
:10451000A006E0939F06E0919F06F091A00680918F
:104520009B0690919C069C012F5F3F4F30939C0609
:1045300020939B0620914E0330914F03880F991FC3
:10454000E80FF91F31832083E0919F06F091A006C8
:10455000208131813E832D83F901E659FF4F11827D
:10456000108260919A0270919B0280E090E0A3D645
:1045700020E030E048EC52E405D66B017C0160910C
:1045800098027091990280E090E095D620E030E0AA
:1045900048EC52E4F7D569837A838B839C836091DE
:1045A00096027091970280E090E085D620E030E09E
:1045B00048EC52E4E7D52B013C01ED81FE81E05649
:1045C000FF4F6083718382839383ED81FE81EC557D
:1045D000FF4F89819A81AB81BC8180839183A283C3
:1045E000B383ED81FE81E855FF4FC082D182E28224
:1045F000F382AD81BE815A96AD90BC905B9720E06E
:1046000030E0A901C301B201B9D587FD1CC020E08B
:1046100030E0A90169817A818B819C81AFD587FDCA
:1046200012C020E030E0A901C701B601A7D587FD7F
:104630000AC009811A812B813C81B301A2018D81BD
:104640009E810E948214E0919F06F091A006208135
:1046500031813A832983890104551F4F60919C025F
:1046600070919D0280E090E026D620E030E04AE79D
:1046700054E488D5D8016D937D938D939C931397C3
:1046800009811A8100551F4F60919E0270919F020F
:1046900080E090E010D620E030E040E251E472D5B6
:1046A000F80160837183828393836091A00270918B
:1046B000A10280E090E0FFD5E981FA81E454FF4F48
:1046C0006083718382839383E981FA81E45BFF4F86
:1046D000608371838283938329813A8120583F4F7D
:1046E0003A8329836091FE027091FF0280E090E09E
:1046F000E2D520E030E040E251E444D5A981BA811E
:104700006D937D938D939C93139761E088E00E9455
:10471000E81A0E946117882309F42AC38091500384
:1047200090915103009709F063C010920303109217
:1047300002030E947C036091EA027091EB0280E028
:1047400090E0B9D520E030E040E251E41BD5AB0168
:10475000BC01E0919F06F091A006808191810E94AA
:104760003C0301D90E94661510D80E94690160932C
:104770005A0370935B0380935C0390935D03E09115
:104780009F06F091A0060190F081E02DE857FF4FC1
:1047900080819181A281B3818093560390935703C6
:1047A000A0935803B09359030E946901C09052032B
:1047B000D0905303E0905403F0905503A701960165
:1047C00078D44B015C016091F8027091F90280E0AD
:1047D00090E071D520E030E040E251E4D3D49B0179
:1047E000AC01C501B40119D618160CF4FFC22FC0D4
:1047F00090930303809302030E947C030E9469014B
:1048000080905A0390905B03A0905C03B0905D038E
:10481000A50194014ED46B017C0160918C027091D2
:104820008D0280E090E047D520E030E040E251E4A6
:10483000A9D4162F072F382E292E20E030E0A90109
:10484000C701B601EAD518160CF46FC121C00E9449
:104850006901A70196012DD420E030E0A9018ED492
:1048600087FF82C2A701960160E070E080E89FE4C4
:1048700020D49B01AC0160E070E0CB011AD46093BE
:1048800052037093530380935403909355036CC267
:1048900060918E0270918F0280E090E00CD520E054
:1048A00030E040E251E46ED4562E472E89839D833A
:1048B000262F372FAC01612F702F832D922DFAD325
:1048C000698B7B8B782E692E212F302F432D522D13
:1048D000C701B601A2D518160CF4F6C0609190027B
:1048E0007091910280E090E0E6D420E030E040E278
:1048F00051E448D4562E472E89839D83262F372F87
:10490000AC0169897B89872D962DD4D3162F072F6B
:10491000382E292E29893B89472D562DC701B601EE
:104920007CD518160CF49BC0609192027091930292
:1049300080E090E0C0D420E030E040E251E422D4B6
:10494000562E472E89839D83262F372FAC01612F4A
:10495000702F832D922DAED3762E7B8B898B692E73
:10496000212F302F432D522DC701B60156D51816D1
:104970000CF444C0272D3B894989562DC701B60147
:104980004CD518160CF004C1609180027091810220
:1049900080E090E090D420E030E040E251E4F2D3B7
:1049A0006F83788789879A8760917E0270917F02F2
:1049B00080E090E080D420E030E040E251E4E2D3B7
:1049C0006B877C878D879E87E0913403F091350358
:1049D000F88BEF87609194027091950280E090E0EF
:1049E0006AD420E030E040E251E4CCD3562E472E8A
:1049F00089839D83172D0B89398864C0272D3B89B6
:104A00004989562DC701B601B9D318160CF4B2CF97
:104A100060917E0270917F0280E090E04CD420E0B3
:104A200030E040E251E4AED36F83788789879A877C
:104A300060917C0270917D0280E090E03CD420E0A7
:104A400030E040E251E49ED36B877C878D879E8760
:104A50002091320330913303388B2F8799C0212F57
:104A6000302F432D522DC701B60188D318160CF4F0
:104A70005BCF60917C0270917D0280E090E01BD45E
:104A800020E030E040E251E47DD36F83788789876E
:104A90009A8760917A0270917B0280E090E00BD45B
:104AA00020E030E040E251E46DD36B877C878D8756
:104AB0009E874091300350913103588B4F8719895D
:104AC0000B89372C262C64C029893B89472D562D0C
:104AD000C701B60153D318160CF400CF60917A02C7
:104AE00070917B0280E090E0E6D320E030E040E28D
:104AF00051E448D36F83788789879A8760917802D9
:104B00007091790280E090E0D6D320E030E040E27E
:104B100051E438D36B877C878D879E8780912E03E5
:104B200090912F03988B8F8733C0212F302F432DE7
:104B3000522DC701B60122D318160CF4A9CE6091EC
:104B400078027091790280E090E0B5D320E030E007
:104B500040E251E417D36F83788789879A87209141
:104B600056033091570340915803509159032B87B6
:104B70003C874D875E8740912C0350912D03588BC5
:104B80004F87280139822D8210E000E0312C212C42
:104B90008F859889019749F0E0919F06F091A006D2
:104BA0004F81588569857A8527C02B853C854D8541
:104BB0005E856F81788589859A857BD2252D342DF8
:104BC00049815D81DFD22B013C01212F302F432D04
:104BD000522DC701B6016DD29B01AC01C301B201D8
:104BE00020D42B853C854D855E8564D2AB01BC010C
:104BF000E0919F06F091A006808191810E943C0384
:104C0000E0919F06F091A0060190F081E02DEC5319
:104C1000FF4F20E030E040E251E460817181828109
:104C20009381FFD31CD37093EB026093EA020E943E
:104C3000B31C0E9466150E94C51B0E946901609307
:104C400052037093530380935403909355036091E0
:104C50008C0270918D0280E090E02DD320E030E056
:104C600040E251E48FD26B017C0160918E02709121
:104C70008F0280E090E01FD320E030E040E251E47A
:104C800081D29B01AC01C701B60114D26B017C013A
:104C9000609190027091910280E090E00CD320E04E
:104CA00030E040E251E46ED29B01AC01C701B60195
:104CB00001D26B017C01609192027091930280E0BD
:104CC00090E0F9D220E030E040E251E45BD29B0179
:104CD000AC01C701B601EED16B017C016091940279
:104CE0007091950280E090E0E6D220E030E040E272
:104CF00051E448D29B01AC01C701B601DBD1AAD275
:104D00002B013C010E946901A5019401D2D16B01E4
:104D10007C01C301B201D1D29B01AC01C701B60134
:104D20007CD318160CF462C00E946901A50194019D
:104D3000C0D120E030E0A90121D287FF15C0A50134
:104D4000940160E070E080E89FE4B3D19B01AC0186
:104D500060E070E0CB01ADD160935A0370935B03C8
:104D600080935C0390935D030E946117811137C0AB
:104D70000E947C030E9447150E94C51B809102037C
:104D80009091030390935103809350030E94690113
:104D9000609352037093530380935403909355038D
:104DA0000E94690160935A0370935B0380935C03D4
:104DB00090935D03E0919F06F091A0060190F08131
:104DC000E02DE857FF4F80819181A281B3818093CC
:104DD000560390935703A0935803B093590360E090
:104DE00088E00E94E81A0E943F0F8FCC10920103C6
:104DF00010920003B9CF80919F069091A00618C42D
:104E00001F93CF93DF93EBE1F4E01382128288EEDD
:104E100093E0A0E0B0E084839583A683B78320E28B
:104E200032E03183208345E351E05587448744E3F2
:104E300051E05787468740E351E0518B408B41E377
:104E400051E0538B428B42E351E0558B448B46E358
:104E500051E0578B468B118E128E138E148EE8EB19
:104E6000F4E01382128284839583A683B78331830F
:104E7000208345ED50E05587448744ED50E0578747
:104E8000468740ED50E0518B408B41ED50E0538B15
:104E9000428B42ED50E0558B448B46ED50E0578BF2
:104EA000468B118E128E138E148EE5E5F5E013827B
:104EB000128284839583A683B783318320834DEC4C
:104EC00050E0558744874CEC50E05787468748ECC4
:104ED00050E0518B408B49EC50E0538B428B4AECB5
:104EE00050E0558B448B4EEC50E0578B468B118E27
:104EF000128E138E148EE2EFF5E0138212828483F9
:104F00009583A683B7833183208325EC30E03587F2
:104F1000248724EC30E03787268720EC30E0318B83
:104F2000208B21EC30E0338B228B22EC30E0358B70
:104F3000248B26EC30E0378B268B118E128E138E4D
:104F4000148EEFE8F6E01382128284839583A683A1
:104F5000B78382E392E09183808310921F07E0EC95
:104F6000F6E081E0848383E0858312E0168388EE97
:104F700093E09093140780931307E0E2F7E0148224
:104F800013828AE4808388E08183128285E0A2EA2A
:104F9000B6E001900D928A95E1F7C2EAD6E080E092
:104FA00090E0AAE7B3E48A8B9B8BAC8BBD8B0E940D
:104FB000161B1D831F821E820E943F1AEBE9F6E03A
:104FC000118210821382128215821482DF91CF9196
:104FD0001F910895C82F0E9447158C2F90E0909341
:104FE00023038093220361E08AE00E94E81A61E0D3
:104FF0008BE00E94E81A60E08CE00E94E81A0E94B0
:105000007C03FDCF052E97FB16F400940FD057FDBF
:1050100005D01ED007FC02D046F408C0509540953C
:10502000309521953F4F4F4F5F4F08959095809554
:10503000709561957F4F8F4F9F4F08952BD0A59FFF
:10504000900DB49F900DA49F800D911D1124089583
:10505000A1E21A2EAA1BBB1BFD010DC0AA1FBB1F7C
:10506000EE1FFF1FA217B307E407F50720F0A21BEE
:10507000B30BE40BF50B661F771F881F991F1A945B
:1050800069F760957095809590959B01AC01BD0185
:10509000CF010895A29FB001B39FC001A39F700DDF
:1050A000811D1124911DB29F700D811D1124911D30
:1050B00008955058BB27AA270ED075C166D130F08D
:1050C0006BD120F031F49F3F11F41EF45BC10EF45C
:1050D000E095E7FB51C1E92F77D180F3BA1762075A
:1050E00073078407950718F071F49EF58FC10EF4CD
:1050F000E0950B2EBA2FA02D0B01B90190010C01E8
:10510000CA01A0011124FF27591B99F0593F50F4FF
:10511000503E68F11A16F040A22F232F342F442757
:10512000585FF3CF469537952795A795F04053954F
:10513000C9F77EF41F16BA0B620B730B840BBAF01F
:105140009150A1F0FF0FBB1F661F771F881FC2F78A
:105150000EC0BA0F621F731F841F48F4879577959E
:105160006795B795F7959E3F08F0B3CF9395880F55
:1051700008F09927EE0F979587950895D9D008F4F0
:1051800081E008950CD00FC107D140F0FED030F07F
:1051900021F45F3F19F0F0C0511139C1F3C014D1AF
:1051A00098F39923C9F35523B1F3951B550BBB27EE
:1051B000AA2762177307840738F09F5F5F4F220F9B
:1051C000331F441FAA1FA9F333D00E2E3AF0E0E894
:1051D00030D091505040E695001CCAF729D0FE2FE0
:1051E00027D0660F771F881FBB1F26173707480772
:1051F000AB07B0E809F0BB0B802DBF01FF27935828
:105200005F4F2AF09E3F510568F0B6C000C15F3F76
:10521000ECF3983EDCF3869577956795B795F7950F
:105220009F5FC9F7880F911D9695879597F9089507
:10523000E1E0660F771F881FBB1F621773078407A3
:10524000BA0720F0621B730B840BBA0BEE1F88F7B2
:10525000E095089504D06894B111D9C00895BCD0E8
:1052600088F09F5790F0B92F9927B751A0F0D1F04F
:10527000660F771F881F991F1AF0BA95C9F712C0D9
:10528000B13081F0C3D0B1E00895C0C0672F782F4E
:105290008827B85F39F0B93FCCF386957795679545
:1052A000B395D9F73EF490958095709561957F4FB1
:1052B0008F4F9F4F0895E89409C097FB3EF4909557
:1052C0008095709561957F4F8F4F9F4F9923A9F0DF
:1052D000F92F96E9BB279395F6958795779567956E
:1052E000B795F111F8CFFAF4BB0F11F460FF1BC0B2
:1052F0006F5F7F4F8F4F9F4F16C0882311F096E945
:1053000011C0772321F09EE8872F762F05C06623F2
:1053100071F096E8862F70E060E02AF09A95660FAB
:10532000771F881FDAF7880F9695879597F9089564
:10533000990F0008550FAA0BE0E8FEEF16161706A6
:10534000E807F907C0F012161306E407F50798F00E
:10535000621B730B840B950B39F40A2661F0232B27
:10536000242B252B21F408950A2609F4A140A695A3
:105370008FEF811D811D089597F99F6780E870E088
:1053800060E008959FEF80EC089500240A941616BB
:10539000170618060906089500240A941216130623
:1053A000140605060895092E0394000C11F48823B1
:1053B00052F0BB0F40F4BF2B11F460FF04C06F5FCD
:1053C0007F4F8F4F9F4F089557FD9058440F551FA3
:1053D00059F05F3F71F04795880F97FB991F61F077
:1053E0009F3F79F087950895121613061406551FEE
:1053F000F2CF4695F1DF08C0161617061806991F5A
:10540000F1CF86957105610508940895E894BB274E
:1054100066277727CB0197F908958ADF08F48FEF85
:1054200008950BD0C0CFB1DF28F0B6DF18F0952378
:1054300009F0A2CFA7CF1124EACFC6DFA0F3959F32
:10544000D1F3950F50E0551F629FF001729FBB276B
:10545000F00DB11D639FAA27F00DB11DAA1F649F17
:105460006627B00DA11D661F829F2227B00DA11DCA
:10547000621F739FB00DA11D621F839FA00D611D50
:10548000221F749F3327A00D611D231F849F600D71
:10549000211D822F762F6A2F11249F5750408AF0AA
:1054A000E1F088234AF0EE0FFF1FBB1F661F771F36
:1054B000881F91505040A9F79E3F510570F05CCF76
:1054C000A6CF5F3FECF3983EDCF386957795679522
:1054D000B795F795E7959F5FC1F7FE2B880F911D54
:1054E0009695879597F9089523DF880B990B089572
:1054F000EE0FFF1F881F8BBF0790F691E02D1994C8
:105500000F931F93CF93DF938230910510F482E0C5
:1055100090E0E0913607F091370720E030E0A0E01E
:10552000B0E0309719F14081518102811381481711
:105530005907C8F08417950769F4109731F012964F
:105540000C93129713961C9327C000933607109361
:10555000370722C02115310519F04217530718F4F7
:105560009A01BD01EF01DF01F801DBCF2115310503
:10557000F9F0281B390B2430310580F48A819B8196
:105580006115710521F0FB019383828304C0909320
:10559000370780933607FE01329644C0FE01E20FC2
:1055A000F31F8193919322503109398328833AC0A4
:1055B0002091340730913507232B41F420910302C9
:1055C0003091040230933507209334072091010273
:1055D000309102022115310541F42DB73EB74091BB
:1055E000050250910602241B350BE0913407F0911F
:1055F0003507E217F307A0F42E1B3F0B28173907D6
:1056000078F0AC014E5F5F4F2417350748F04E0F1E
:105610005F1F50933507409334078193919302C0E5
:10562000E0E0F0E0CF01DF91CF911F910F9108955D
:10563000CF93DF93009709F481C0FC013297138266
:105640001282A0913607B0913707109781F420811C
:105650003181820F931F209134073091350728172D
:10566000390751F5F0933507E093340767C0ED0132
:1056700020E030E0CE17DF0740F44A815B819E01D5
:1056800041155105F1F0EA01F5CFD383C283408182
:105690005181840F951FC817D90759F488819981C2
:1056A000840F951F0296918380838A819B819383C7
:1056B00082832115310529F4F0933707E0933607EB
:1056C0003DC0E901FB83EA8349915991C40FD51F7D
:1056D000EC17FD0761F480819181840F951F02967C
:1056E000E90199838883828193819B838A83E0E0A7
:1056F000F0E012968D919C911397009719F0FD019F
:10570000DC01F7CF8D919C9111979D012E5F3F4F4A
:10571000820F931F209134073091350728173907DE
:1057200069F4309729F4109237071092360702C0B7
:1057300013821282B0933507A0933407DF91CF9183
:10574000089581E090E0F89409C0FB01DC0102C0FB
:1057500001900D9241505040D8F7089511E0C6E3F2
:10576000D1E000E005C0802FFE01C2DE2196011DC0
:0E577000C733D10780E00807B1F7F894FFCFE8
:10577E00FF0000380780000102030405060F100029
:10578E0000C84200007A44000000204100000000E2
:10579E00D20E250E4F0E1E0F800E5E0E720E0000E4
:1057AE000000F40FC80F23109C0FC00FAC0F9D0FFD
:1057BE002C20000D0A006E616E00696E66006F7619
:0257CE00660073
:00000001FF
