:1000000035C1000064C1000062C1000060C1000091
:100010005EC100005CC100005AC1000058C1000070
:1000200056C100000C940B150C940B150C940B1579
:100030004EC100004CC100004AC1000048C1000090
:1000400046C1000044C1000042C1000040C10000A0
:100050003EC100003CC100003AC100000C94591997
:1000600036C100000C94F6120C94CD1230C1000081
:100070002EC100002CC100002AC1000028C10000D0
:1000800026C1000024C1000022C1000020C10000E0
:100090000C94A4120C947B121AC100000C941F1330
:1000A00016C1000014C1000012C1000010C1000000
:1000B0000EC100000CC100000AC1000008C1000010
:1000C00006C1000004C1000002C100000C945212DD
:1000D0000C942912FCC000000C9400120C94D7114F
:1000E000F6C000003509380927092B0931096F09C5
:1000F0003C09400946094A094E09540958095C0956
:100100006F09620966096A096A0B6A0B8B0B8B0B14
:100110003E0B840B9B0B9B0B9B0B9B0B9B0B9B0B23
:100120009B0B9B0B6A0B8B0BC10BC10B360C360C5C
:100130006C0CAB0C2F0D2F0D2F0D2F0D2F0D2F0D28
:100140002F0D2F0DBA0C0B0D0000210024002700ED
:100150002A002D00300033000101000004010701D6
:100160000A0100002200250028002B002E0031008B
:10017000340002010000050108010B01000020000D
:100180002300260029002C002F003200000100006F
:10019000030106010901050505050705080808080A
:1001A000020202020A0A080804040404010101010F
:1001B000010101010303030303030303040707070A
:1001C0000C0C0C0C0C0C0C0C0202020206060606AF
:1001D000060606060B0B0B0B0B0B0B0B010210207C
:1001E000200808102040102040800201020108046D
:1001F0000201010204081020408080402010080401
:100200000201800402018040201008040201080459
:10021000020101020408102040800102040810209D
:10022000408000000A0B02090C0D0E0807030401B0
:1002300000000000000000000000000000000000BE
:10024000000000000000000000000000000012118B
:10025000100000000000000000000000000000008E
:10026000000000000000000014230F2311241FBE13
:10027000CFEFD1E2DEBFCDBF00E00CBF12E0A0E0C7
:10028000B2E0ECE0FFE400E00BBF02C007900D928B
:10029000A235B107D9F727E0A2E5B2E001C01D926F
:1002A000AF31B207E1F711E0C5E3D1E000E006C0ED
:1002B00021970109802FFE010E943F26C433D107F8
:1002C00080E00807A9F70E94A3190C94752798CE1F
:1002D0004F925F926F927F928F929F92AF92BF9256
:1002E000CF92DF92EF92FF920F931F93CF93DF9302
:1002F000E0918C06F0918D06C081D181812C912CEA
:1003000088ECA82E82E4B82E8AAA9BAAACAABDAA21
:10031000C12C90EFD92E9FE7E92E95E4F92ECEAAB5
:10032000DFAAE8AEF9AE8AAD882309F446C00E8D87
:100330001F8DF8014080518062807380A701960173
:10034000C301B2010E94D42518168CF120E030E0E0
:1003500048EC52E4C301B2010E94852487FD21C00C
:100360008EA09FA0A8A4B9A4CEA8DFA8E8ACF9AC41
:10037000A7019601C501B4010E94D425181664F0A6
:10038000CAA8DBA8ECA8FDA8A7019601C501B40185
:100390000E94852487FF11C0CEA2DFA2E8A6F9A69D
:1003A0000CC0F80180829182A282B382D9CFF80179
:1003B000C082D182E282F382D3CFDF91CF911F91AD
:1003C0000F91FF90EF90DF90CF90BF90AF909F90F4
:1003D0008F907F906F905F904F9008950E942819A2
:1003E0000E94222520E034E244E759E40C94892459
:1003F00008951F93CF93DF93EC010E947D0D182F7A
:10040000CE0101960E947D0D90E0982F8827810FE4
:10041000911DDF91CF911F9108950F931F93CF935B
:10042000DF938C01EB01CB01E4DF8017910759F0DA
:10043000602FCE010E948A18612FCE0101960E9482
:100440008A1881E001C080E0DF91CF911F910F9168
:1004500008952F923F924F925F926F927F928F9268
:100460009F92AF92BF92CF92DF92EF92FF920F9343
:100470001F93CF93DF9300D01F92CDB7DEB79C833D
:100480008B83FC01E759FF4F80810B811C8108574A
:100490001F4F882309F465C00E944D196B017C0130
:1004A000F80180809180A280B3802DEC3CEC4CE47C
:1004B0005DE3EB81FC81E457FF4F608171818281B4
:1004C00093810E94D8252B013C0120E030E040EBD5
:1004D00051E4C501B4010E942024EB81FC81EC565B
:1004E000FF4F20813181428153810E94D8259B0199
:1004F000AC01C301B2010E942024EB81FC81E856CB
:10050000FF4F20813181428153810E9489242B0138
:100510003C012B803C80FCE92F0E311CF1018081D5
:100520009181B601681B790B072E000C880B990B83
:100530000E9424259B01AC01C301B2010E94D82571
:10054000A50194010E942124F801608371838283B4
:1005500093830E944D19F101608371838283938399
:100560008BC0EB80FC80F6E4EF0EF11CF701638199
:100570007481636E716880810E94C91780EB94E07A
:100580000E94530EF70180810E942618F7012281F4
:10059000022E02C0969587950A94E2F7222329F04D
:1005A0008115F8E09F0708F0906FCB80DC8024E590
:1005B000C20ED11CF60191838083F701638174819F
:1005C000636E716B80810E94C91780EB94E00E947A
:1005D000530EF70180810E942618F7012281022E16
:1005E00002C0969587950A94E2F7222329F0811597
:1005F000F8E09F0708F0906FEB81FC81EA5AFF4F0B
:1006000091838083BC01990F880B990B0E9424254C
:100610004B015C01F60160817181072E000C880B93
:10062000990B0E9424259B01AC01C501B4010E94D5
:100630008924EB81FC81E45BFF4F20813181428181
:1006400053810E94D825EB81FC81E455FF4F208126
:100650003181428153810E94D825EB81FC81E05594
:10066000FF4F20813181428153810E942024F80173
:1006700060837183828393830E944D19EB81FC8197
:10068000EC58FF4F60837183828393832B803C807F
:10069000F0E72F0E311CF101C080D180E280F380A1
:1006A0009B01AC012C193D094E095F0969017A01D2
:1006B000EB81FC81E858FF4F80819181A281B38159
:1006C00082179307A407B50708F03FC0F8018080A0
:1006D0009180A280B3802B813C812B593F4F3A837C
:1006E00029834B815C814C575F4F5C834B83FA01BC
:1006F0002081318142815381C501B4010E942024AF
:100700002B013C01C701B6010E94222520E030E008
:100710004AE754E40E9489249B01AC01C301B20161
:100720000E948924E981FA816083718382839383A3
:10073000EB81FC8180829182A282B3820E944D195A
:10074000F1016083718382839383F80160817181F9
:10075000828193810F900F900F900F90DF91CF9136
:100760001F910F91FF90EF90DF90CF90BF90AF90CF
:100770009F908F907F906F905F904F903F902F90C1
:1007800008958F929F92AF92BF92CF92DF92EF9295
:10079000FF92CF93DF93EC016A017B01FC01E058EB
:1007A000FF4F80809180A280B3809A01AB01C50188
:1007B000B4010E948524CC53DF4F87FF05C0888297
:1007C0009982AA82BB8212C020E030E0A901C70151
:1007D000B6010E94852487FF05C0188219821A82FB
:1007E0001B8204C0C882D982EA82FB82DF91CF914A
:1007F000FF90EF90DF90CF90BF90AF909F908F9041
:1008000008954F925F926F927F928F929F92AF92D4
:10081000BF92CF92DF92EF92FF920F931F93CF93ED
:10082000DF9300D000D0CDB7DEB787E30E94C10DC3
:1008300090934F0380934E0388E30E94C10D9093E1
:1008400051038093500386E30E94C10D892B39F038
:1008500081E090E090933D0380933C0304C01092AC
:100860003D0310923C03FBD5853014F061E001C0DC
:1008700060E08BE30E94E90D809148039091490369
:10088000019709F07FC080916A0290916B02A0915C
:100890006C02B0916D0289839A83AB83BC839EDD29
:1008A0006B017C01E0918C06F0918D06A081B181F5
:1008B000BE83AD83FD01E457FF4FA458BF4F2D9178
:1008C0003D914D915C9160817181828193810E9403
:1008D000892420E030E048EC52E40E94D8254B0106
:1008E0005C01ED81FE81E857FF4F408051806280BE
:1008F0007380ED81FE81EC53FF4F40815181628115
:10090000738122E08FED95E00E94B0106FE372E0FA
:100910008FED95E00E949B1022E0B301A2018FEDC4
:1009200095E00E94B0106FE372E08FED95E00E94B9
:100930009B1022E0B501A4018FED95E00E94B0105C
:100940006FE372E08FED95E00E949B1026E0B70107
:10095000A6018FED95E00E94B0106FE372E08FED7D
:1009600095E00E949B1022E049815A816B817C8135
:100970008FED95E00E94B01062E472E08FED95E09B
:100980000E949B102BDDC0906202D0906302E09029
:100990006402F0906502A70196010E9420244B0199
:1009A0005C016091F8027091F90280E090E00E9491
:1009B000222520E030E040E251E40E9489249B019E
:1009C000AC01C501B4010E94D42587FD14C006DD29
:1009D0006093620270936302809364029093650255
:1009E0000E942F178111BEC002E912E088EE93E049
:1009F0009A83898324C0F2DCA70196010E942024F7
:100A000020E030E0A9010E94852487FFABC0A70148
:100A1000960160E070E080E89FE40E9420249B0142
:100A2000AC0160E070E0CB010E9420246093620280
:100A300070936302809364029093650293C069810E
:100A40007A81D8018D919D918D01E7DCE981FA8150
:100A50003496FA83E983E115F44089F704E712E05C
:100A60001A82198269817A81D8018D919D918D01B7
:100A7000D4DCE981FA813496FA83E983749791F79B
:100A800008E812E069817A81D8018D919D918D01EC
:100A9000C4DCE981FA813496FA83E983B89791F747
:100AA00068E270E08091E6029091E702B6DC6CE2C9
:100AB00070E08091E8029091E902AFDC60E370E0C1
:100AC0008091F4029091F502A8DC64E370E08091DB
:100AD000F6029091F702A1DC68E370E080912203B6
:100AE000909123039ADC6CE370E080912403909151
:100AF000250393DC60E470E0809126039091270346
:100B00008CDC64E470E08091F8029091F90285DC5D
:100B100068E470E080914403909145037EDC6CE4CE
:100B200070E0809146039091470377DC60E570E0C8
:100B30008091FA029091FB0270DC08E213E084E5F8
:100B400090E09A83898369817A81D8018D919D9102
:100B50008D0163DCE981FA813496FA83E983E83612
:100B6000F10589F7E0918C06F0918D06A081B181A5
:100B7000BE83AD83FD01E659FF4F11821082809044
:100B8000060290900702A0900802B09009026091BE
:100B900096027091970280E090E00E942225A501C4
:100BA00094010E9489246B017C01609194027091F0
:100BB000950280E090E00E942225A50194010E9408
:100BC000892469837A838B839C83609192027091DC
:100BD000930280E090E00E942225A50194010E94EA
:100BE00089242B013C01ED81FE81E056FF4F60839B
:100BF000718382839383ED81FE81EC55FF4F898160
:100C00009A81AB81BC8180839183A283B383ED8180
:100C1000FE81E855FF4FC082D182E282F38220E05C
:100C200030E0A901C301B2010E94852487FD23C0E1
:100C300020E030E0A90169817A818B819C810E944A
:100C4000852487FD18C020E030E0A901C701B60166
:100C50000E94852487FD0FC0AD81BE815A96AD905C
:100C6000BC905B9709811A812B813C81B301A20161
:100C7000CD010E945014E0918C06F0918D06808188
:100C800091819A8389838C0104551F4F609198024A
:100C90007091990280E090E00E94222520E030E0EF
:100CA0004AE754E40E948924D8016D937D938D9383
:100CB0009C93139709811A8100551F4F60919A02E6
:100CC00070919B0280E090E00E94222520E030E0BD
:100CD00040E251E40E948924F80160837183828399
:100CE000938360919C0270919D0280E090E00E944D
:100CF0002225E981FA81E454FF4F60837183828366
:100D00009383E981FA81E45BFF4F6083718382837F
:100D1000938309811A8100581F4F6091FA027091E4
:100D2000FB0280E090E00E94222520E030E040E2DB
:100D300051E40E948924D8016D937D938D939C93F7
:100D400013970E942F17811103C089819A8181DB3B
:100D5000E0918C06F0918D06808191819A83898340
:100D6000FC01E857FF4F20E030E040E251E46081B1
:100D70007181828193810E94D8250E94F62470930C
:100D8000010360930003E981FA81E457FF4FA981D1
:100D9000BA81A458BF4F2D913D914D915C916081D6
:100DA0007181828193810E94892420E030E048ECA7
:100DB00052E40E94D82520E030E040E251E40E9455
:100DC000D8250E94F62470930F0360930E03609160
:100DD000E6027091E70280E090E00E94222520E088
:100DE00030E040E251E40E948924AB01BC018981DA
:100DF0009A81C7DCE0918C06F0918D060190F0811C
:100E0000E02DEC53FF4F20E030E040E251E4608100
:100E10007181828193810E94D8250E94F62470936B
:100E2000E7026093E602DADAC0906602D0906702C9
:100E3000E0906802F0906902A70196010E942024C8
:100E40002FE632E143E05CE30E94D42587FD0EC02B
:100E5000C5DA60936602709367028093680290938C
:100E6000690220919406243028F176C0B7DAA701F0
:100E700096010E94202420E030E0A9010E948524F0
:100E800087FF95C0A701960160E070E080E89FE4CD
:100E90000E9420249B01AC0160E070E0CB010E9425
:100EA0002024609366027093670280936802909397
:100EB00069027DC0609197067091980663607160C9
:100EC0008091920690919306682B792B223041F005
:100ED000233041F0213011F0706405C0706503C00B
:100EE000706601C07067C0909906D0909A06E09035
:100EF0009B06F0909C06706880918F060E94C9172F
:100F000020E030E040E251E4C701B6010E948524B0
:100F100087FF0DC020E030E04AE754E4C701B60186
:100F20000E94D8250E94F124CB01BDD609C0C7017B
:100F3000B6010E94F124072E000C880B990BBED637
:100F400080918F060E9426180090910602C0969507
:100F500087950A94E2F702C080E090E0BC0180E04F
:100F600090E00E94222520919D0630919E0640919E
:100F70009F065091A0060E94D8252091A10630918D
:100F8000A2064091A3065091A4060E9420246093DB
:100F9000A9067093AA068093AB069093AC06609363
:100FA0006A0270936B0280936C0290936D0220E052
:100FB00030E04FE254E460916A0270916B028091DC
:100FC0006C0290916D020E94D425181644F4109280
:100FD0006A0210926B0210926C0210926D0220E075
:100FE00030E040E251E460916A0270916B028091BE
:100FF0006C0290916D020E94D8250E94F624709395
:1010000043036093420326960FB6F894DEBF0FBEEB
:10101000CDBFDF91CF911F910F91FF90EF90DF90A7
:10102000CF90BF90AF909F908F907F906F905F9088
:101030004F900895CF92DF92EF92FF92CF93DF937C
:1010400080914A0390914B03892B49F081E090E015
:1010500090934B0380934A0302D20C94000082E1E8
:1010600090D5892B49F4BAD960936E0270936F02C0
:101070008093700290937102B1D9C0906E02D090AB
:101080006F02E0907002F0907102A70196010E9439
:10109000202420E030E040E450E40E94D42587FF83
:1010A00024C09CD9A70196010E94202420E030E0B2
:1010B000A9010E94852487FFAAC0A701960160E0CC
:1010C00070E080E89FE40E9420249B01AC0160E076
:1010D00070E0CB010E94202460936E0270936F0237
:1010E000809370029093710292C00E944D19C0903B
:1010F0000607D0900707E0900807F0900907C6168A
:10110000D706E806F90658F581E090E090932103B0
:10111000809320031092FD021092FC0260E08BE3AA
:1011200058D50E94151580917302811103C081E08A
:1011300080937302E0918C06F0918D060190F0810E
:10114000E02DE857FF4F20E030E0A9016081718178
:10115000828193810E94852418166CF107C0109239
:1011600021031092200310927302E4CF82E090E0FA
:1011700090932103809320030E94151580917202A1
:10118000811103C081E080937202E0918C06F0919E
:101190008D06C081D181FE01E857FF4F20E030E08D
:1011A00048EC53E460817181828193810E94D4254F
:1011B000181644F429C010922103109220031092B3
:1011C0007202E3CF20E030E040E251E4FE01EB594F
:1011D000FF4F60817181828193810E94D42518160E
:1011E00014F5C457DF4F20E030E0A9016881798110
:1011F0008A819B810E948524811115C00E942F172E
:10120000811111C082E001C081E00E94F7220E949A
:101210002F1781116ACFDF91CF91FF90EF90DF9070
:10122000CF900C941515DF91CF91FF90EF90DF9048
:10123000CF90089590E0FC013197E231F10508F07C
:101240004EC08827EE58FF4F8F4F0C943F26809159
:1012500080008F7703C0809180008F7D8093800015
:10126000089580918000877FF9CF84B58F7702C081
:1012700084B58F7D84BD08958091B0008F7703C0C1
:101280008091B0008F7D8093B00008958091900090
:101290008F7707C0809190008F7D03C08091900070
:1012A000877F8093900008958091A0008F7707C07A
:1012B0008091A0008F7D03C08091A000877F8093E4
:1012C000A0000895809120018F7707C080912001B0
:1012D0008F7D03C080912001877F80932001089536
:1012E000CF93C091F6068C2F0E940C19EC2FF0E0E2
:1012F000E355F94F9187E1E0EC0FF0E0E355F94F4A
:101300008187CE5FC093F6069091B3068091B206B6
:10131000923038F1823051F0833071F0813091F4A5
:101320009091C80090649093C80011C09091D00033
:1013300090649093D0000BC0909130019064909392
:10134000300105C09091C00090649093C0009091CE
:10135000050190649093050190910501906290932E
:1013600005014091F606843028F48091AD069091F5
:10137000AE0604C08091AF069091B00650E0DC014B
:10138000ED91FC910280F381E02D66EB76E01995FA
:101390009091B3068091B206923018F1823049F0F4
:1013A000833061F0813079F49091C80096FFFCCFD2
:1013B0000EC09091D00096FFFCCF09C090913001F3
:1013C00096FFFCCF04C09091C00096FFFCCF909197
:1013D00005019F7B90930501909105019F7D90935E
:1013E0000501843070F58091AD069091AE06DC0168
:1013F000ED91FC910284F385E02D199597FFF3CFD1
:101400001092F6060E944D192091000730910107B5
:10141000DC01CB01820F931FA11DB11D8093060734
:1014200090930707A0930807B09309078091FC06E3
:101430009091FD0601969093FD068093FC06CF9156
:1014400008958091AF069091B006DC01ED91FC917A
:101450000284F385E02D199597FFF3CFD1CF8F92BA
:101460009F92AF92BF92CF92DF92EF92FF920F9333
:101470001F93CF93DF9384E792E09093F9068093D4
:10148000F8068FE680930A078091B206843028F42C
:101490008091AD069091AE0604C08091AF06909108
:1014A000B006DC01ED91FC910084F185E02D1995E9
:1014B0008823A9F09091F706891799F08093F70691
:1014C0000E944D19DC01CB010596A11DB11D809331
:1014D000020790930307A0930407B0930507C0E0A9
:1014E000BEC20E944D19009102071091030720917E
:1014F000040730910507601771078207930778F397
:101500001092F7068091B306823050F08091050169
:101510008F7B80930501809105018F7D809305016C
:101520001092F6068091B20610E0843008F041C0B7
:101530008091AD069091AE06DC01ED91FC910084A6
:10154000F185E02D1995892B09F440C0C091F6066C
:10155000D0E08091AD069091AE06DC01ED91FC915A
:101560000284F385E02D1995C355D94F8987809161
:10157000F6068F5F8093F6068034D0F211E0D8CF64
:10158000C091F606D0E08091AF069091B006DC01E4
:10159000ED91FC910284F385E02D1995C355D94F47
:1015A00089878091F6068F5F8093F606803408F075
:1015B00011E08091AF069091B006DC01ED91FC91B5
:1015C0000084F185E02D1995892BD1F68091FA06DA
:1015D0009091FB0601969093FB068093FA061123E7
:1015E00059F08091FE069091FF0601969093FF06B8
:1015F0008093FE06C3E002C0C091F606C093B50614
:10160000C7300CF42CC29091B6068091B1069813A5
:1016100066CF8091F606082F10E082500E940C19C8
:10162000F801E355F94F278130E0322F222740851A
:10163000242B2817390759F08091FE069091FF0658
:1016400001969093FF068093FE06CFEF33C0409142
:10165000B706E3E1F2E08BE192E02191241769F112
:101660008E179F07D1F78091FE069091FF06019695
:101670009093FF068093FE06C1E012C08091B806E9
:101680009091B906982789279827D4E09695879551
:10169000DA95E1F790910A07981708F04CC0C2E07C
:1016A00080E8840F8093B706C093B80683E08093E8
:1016B000F60616DEC093B506D2C1842F90E0FC0179
:1016C0003197E031F105B8F58827EC57FF4F8F4F80
:1016D0000C943F268091B8069091B90698278927E7
:1016E00098279C0114E0369527951A95E1F780918B
:1016F000BA069091BB0698278927982704E096950B
:1017000087950A95E1F714C08091B8069091B906C3
:1017100098278927BFCF8091BA069091BB06382FB2
:10172000292F8091B8069091B90698278927982784
:10173000820F931FAFCF0E944D1920910007309167
:101740000107DC01CB01820F931FA11DB11D809306
:10175000060790930707A0930807B0930907109214
:10176000B506E091B7068E2F90E0FC013197E0318D
:10177000F10508F074C18827EC56FF4F8F4F0C9489
:101780003F262091B8063091B90632272327322709
:101790004091BA065091BB06542745275427FA01B9
:1017A000C3E0F695E795CA95E1F78E2FBA01677009
:1017B00077276115710511F081E08E0F8093B806CF
:1017C00083E08093F606420F531F90E0812C912C0A
:1017D0005401839424173507F1F1F901A3E0F6953C
:1017E000E795AA95E1F7EE7FF170EC58FD4FA081E7
:1017F000B181E22FEF7002C0B695A795EA95E2F7A6
:10180000E82FF0E0E355F94FA0FF0EC0A185750168
:101810006401092E04C0CC0CDD1CEE1CFF1C0A94D4
:10182000D2F7CA2AC1860FC075016401092E04C00F
:10183000CC0CDD1CEE1CFF1C0A94D2F7AC2DA0953D
:10184000B185AB23A1879F5F983010F08F5F90E048
:101850002F5F3F4FBFCF8093F606672B19F08F5F46
:101860008093F606C091F606CE5F34C02091B8068C
:101870003091B90632272327322F8091BA069091F2
:10188000BB06982789279827482F440F4093B8060E
:10189000E3E09927820F911DC2E0CE0FA32FB0E0A5
:1018A000A817B907ACF4AA0FBB1FAC58BD4F2C91B9
:1018B00011964C91AE2FB0E0A355B94F19964C93A9
:1018C000EF5FF0E0E355F94F21873F5FEC2FE4CF66
:1018D000E093F60605DDC3C08091B8069091B90685
:1018E000982789279827FC0114E0F695E7951A9523
:1018F000E1F7282F2F708091BA06FF27EE0FFF1F08
:10190000EC58FD4F8F3F81F481E090E0A0E0B0E023
:1019100004C0880F991FAA1FBB1F2A95D2F72081E8
:101920003181822B932B11C081E090E0A0E0B0E0E8
:1019300004C0880F991FAA1FBB1F2A95D2F7809554
:10194000909520813181822393239183808386E047
:101950008093F60682C0E091B906F0E0EE0FFF1F1B
:10196000EC58FD4F8091BA069091BB0698278927C5
:101970009827EBCF8091B8069091B90698278927D0
:1019800098272091BA063091BB06322723273227A9
:10199000280F391F40E057E0812C912C540183948B
:1019A00028173907A1F2A82FAF70E52FF0E0E35513
:1019B000F94F618570E0042E02C0759567950A9411
:1019C000E2F7FC0174E0F695E7957A95E1F7FF27D9
:1019D000EE0FFF1FEC58FD4F7501640104C0CC0CE5
:1019E000DD1CEE1CFF1CAA95D2F760FF05C06081CC
:1019F0007181C62AD72A06C0C094D09460817181B3
:101A0000C622D722D182C0824F5F483010F05F5F7C
:101A100040E00196C5CFE091B9064091BB06109217
:101A2000BA0686E08093F606ADEAB6E0F0E0EE0F87
:101A3000FF1FEC58FD4F20E01296421771F01E96E2
:101A40008C911E9790E0982F88271F963C911F97A6
:101A5000832B819391932F5FEFCF42DCC8E08C2FD3
:101A6000DF91CF911F910F91FF90EF90DF90CF907A
:101A7000BF90AF909F908F90089580919506909120
:101A80009606811524E0920709F130F40097A1F041
:101A900081159240B1F00895811528E09207D9F0A0
:101AA00081152AE09207E1F08115964029F58DEC29
:101AB0009CECACECBBE318C08AE999E9A9E1BDE371
:101AC00013C08DEC9CECACECBCE30EC08DEC9CEC3C
:101AD000ACE4BCE309C08DEC9CECACE4BBE304C01B
:101AE0008DEC9CECACECBAE380939D0690939E0643
:101AF000A0939F06B093A00608950F931F93CF93D2
:101B0000DF938C01CBE0D7E0888191E09093DB03F9
:101B10008093FC031092050410920404812F90E03E
:101B20000E945218C80199270E9452180E94C71794
:101B300061E088810E94E4171092070480930604F4
:101B40008CE796E07CD2DF91CF911F910F910895A1
:101B5000FC01A089B1898C91A689B78982FD0FC04B
:101B60009C91818D8F5F8F73228D821749F0218D1B
:101B7000DF01A20FB11D5D969C93818F08958C911A
:101B80000895CF93DF93282F30E0F901EE5DFD4FEC
:101B90008491F901E452FE4FD491F901EA56FE4FC7
:101BA000C491CC2389F0811145DBEC2FF0E0EE0FDE
:101BB000FF1FE458FE4FA591B491EC91ED2381E015
:101BC00090E021F480E002C080E090E0DF91CF91CE
:101BD00008951F93CF93DF93282F30E0F901EE5D36
:101BE000FD4F8491F901E452FE4FD491F901EA5678
:101BF000FE4FC491CC23B9F0162F81111BDBEC2FC3
:101C0000F0E0EE0FFF1FEE59FE4FA591B4919FB784
:101C1000F894111104C08C91D095D82302C0EC9196
:101C2000DE2BDC939FBFDF91CF911F910895CF935F
:101C3000DF9390E0FC01E452FE4F2491FC01EA5650
:101C4000FE4F8491882361F190E0880F991FFC0179
:101C5000E85BFE4FC591D491FC01EE59FE4FA59172
:101C6000B491611109C09FB7F894888120958223AF
:101C70008883EC912E230BC0623061F49FB7F894F7
:101C80008881322F309583238883EC912E2B2C93DF
:101C90009FBF06C08FB7F894E8812E2B28838FBF93
:101CA000DF91CF9108958230910538F0880F991F08
:101CB000880F991F05970197F1F708958F929F92CA
:101CC000AF92BF92CF92DF92EF92FF926B017C01B5
:101CD0000E9428194B015C01C114D104E104F104F4
:101CE000F1F00E942819DC01CB0188199909AA0991
:101CF000BB09883E9340A105B10570F321E0C21AEB
:101D0000D108E108F10888EE880E83E0981EA11C36
:101D1000B11CC114D104E104F10419F7DDCFFF9027
:101D2000EF90DF90CF90BF90AF909F908F900895ED
:101D3000CF92DF92EF92FF920F931F93CF93DF9397
:101D40006C017A018B01C0E0D0E0CE15DF0581F097
:101D5000D8016D918D01D601ED91FC910190F0813A
:101D6000E02DC6011995892B11F02196EECF7E0149
:101D7000C701DF91CF911F910F91FF90EF90DF90FE
:101D8000CF900895FC01538D448D252F30E0842F92
:101D900090E0821B930B541710F0CF960895019793
:101DA0000895FC01918D828D981761F0828DDF017D
:101DB000A80FB11D5D968C91928D9F5F9F73928F3E
:101DC00090E008958FEF9FEF0895FC01918D828D33
:101DD000981731F0828DE80FF11D858D90E0089500
:101DE0008FEF9FEF0895FC01918D228D892F90E058
:101DF000805C9F4F821B91098F739927089588E01B
:101E000094E0F1DF21E0892B09F420E0822F08958E
:101E100085EA94E0E8DF21E0892B09F420E0822FB5
:101E2000089582E495E0DFDF21E0892B09F420E0CA
:101E3000822F08958FED95E0D6DF21E0892B09F4FC
:101E400020E0822F0895FC01848DDF01A80FB11DD1
:101E5000A35ABF4F2C91848D90E001968F739927E0
:101E6000848FA689B7892C93A089B1898C918370BE
:101E700080648C93938D848D981306C00288F389B7
:101E8000E02D80818F7D80830895EF92FF920F93E4
:101E90001F93CF93DF93EC0181E0888F9B8D8C8D16
:101EA000981305C0E889F989808185FD25C0F62E43
:101EB0000B8D10E00F5F1F4F0F731127E02E8C8DDD
:101EC000E8120BC00FB607FCFACFE889F9898081C8
:101ED00085FFF5CFCE01B7DFF2CF8B8DFE01E80F86
:101EE000F11DE35AFF4FF0829FB7F8940B8FEA89F8
:101EF000FB89808180620AC09FB7F894EE89FF89D0
:101F00006083E889F98980818370806480839FBFC2
:101F100081E090E0DF91CF911F910F91FF90EF90C2
:101F20000895CF93DF93EC01888D8823C1F0EA896F
:101F3000FB89808185FD05C0A889B9898C9186FDC2
:101F40000EC00FB607FCF5CF808185FFF2CFA889C0
:101F5000B9898C9185FFEDCFCE0175DFE8CFDF9198
:101F6000CF91089580E090E0892B19F063DF811113
:101F700016C080E090E0892B19F053DF811112C068
:101F800080E090E0892B19F043DF81110EC080E0E2
:101F900090E0892B79F033DF81110AC008950E9407
:101FA0000000E7CF0E940000EBCF0E940000EFCFBF
:101FB0000C940000089585ED8093BC008091BC00D6
:101FC00084FDFCCF10920304089540917403262FE2
:101FD00030E0240F311D21323105DCF4209103045F
:101FE0002430C9F4FC0180E090E0861758F4309169
:101FF00074032191DC01AC5ABC4FA30FB11D2C938B
:102000000196F3CF80917403680F6093740380E0AE
:10201000089581E0089582E008950895089508954F
:10202000E091070480910604E81730F4F0E0E956E7
:10203000FC4F808190E008958FEF9FEF089590917D
:10204000070480910604981750F4E92FF0E0E95650
:10205000FC4F208130E09F5F9093070402C02FEF78
:102060003FEFC90108958091060490E02091070494
:10207000821B91090895CF92DF92EF92FF920F9306
:102080001F93CF93DF937C01CB018A012091DB0367
:10209000222389F0EB016B01C40ED51ECC15DD05A2
:1020A00061F06991D701ED91FC910190F081E02DF3
:1020B000C7011995F3CF642F88DFC801DF91CF9155
:1020C0001F910F91FF90EF90DF90CF900895CF93E5
:1020D000DF931F92CDB7DEB769832091DB03222304
:1020E000D1F020910404203240F021E030E0FC01E6
:1020F0003383228380E090E014C080910504E82FB0
:10210000F0E0E452FC4F998190838F5F8093050447
:102110008093040404C061E0CE01019656DF81E0A3
:1021200090E00F90DF91CF910895089580E090E0C6
:1021300008950E9468276115710579F0FB010190EF
:102140000020E9F73197AF01461B570BDC01ED91F9
:10215000FC910280F381E02D199480E090E00895D5
:102160002F923F924F925F926F927F928F929F92A7
:10217000AF92BF92CF92DF92EF92FF920F931F9395
:10218000CF93DF93CDB7DEB7A2970FB6F894DEBF3B
:102190000FBECDBF8C014A015B01D22E9A01AB016B
:1021A000C501B4010E943B26882319F065E472E062
:1021B00027C024013501E89477F82FEF3FEF4FE770
:1021C0005FE7C301B2010E943B2681110DC02FEFD2
:1021D0003FEF4FE75FE7C301B2010E948524181665
:1021E0001CF469E472E00CC02FEF3FEF4FE75FE4AF
:1021F000C501B4010E94D42518162CF46DE472E0D8
:10220000C80199DFBBC02FEF3FEF4FE75FECC5017F
:10221000B4010E94852487FDF1CF20E030E0A901C0
:10222000C501B4010E94852487FF0FC0D801ED913C
:10223000FC910190F081E02D6DE2C80119951C011F
:10224000B7FAB094B7F8B09402C0212C312CF12C1D
:1022500060E070E080E09FE3DF1441F020E030E0D8
:1022600040E251E40E948924F394F6CFA501940141
:102270000E9421244B015C010E94F624562E672EF9
:10228000782EC92E19A2262F372F482F592F7E01BD
:10229000B1E2EB0EF11CEAA24F2CCA01B9012AE00F
:1022A00030E040E050E00E94FE23605DF701629361
:1022B0007F01211531054105510579F7BF01C8019D
:1022C0003ADF7101E80EF91EDD2009F456C0652DD4
:1022D000762D872D9C2D0E9422259B01AC01C501E6
:1022E000B4010E9420244B015C01D801ED91FC91C6
:1022F0000190F081E02D6EE2C8011995E80EF91EFB
:1023000020E030E040E251E4C501B4010E94D8254C
:102310004B015C010E94F6249B0140E050E019A2B1
:102320002AA0342C562E632E742EC52ECA01B90154
:102330002AE030E040E050E00E94FE23605DF101C1
:1023400062931F01211531054105510579F7BF0140
:10235000C801F1DEE80EF91E652D762D872D9C2D26
:102360000E9422259B01AC01C501B4010E942024DA
:102370004B015C01DA94D110C3CFC701A2960FB60E
:10238000F894DEBF0FBECDBFDF91CF911F910F91AB
:10239000FF90EF90DF90CF90BF90AF909F908F9085
:1023A0007F906F905F904F903F902F9008951F9275
:1023B0000F920FB60F9211240BB60F922F933F93EB
:1023C0004F935F936F937F938F939F93AF93BF933D
:1023D000EF93FF9388E094E036DDFF91EF91BF919A
:1023E000AF919F918F917F916F915F914F913F91AD
:1023F0002F910F900BBE0F900FBE0F901F9018954E
:102400001F920F920FB60F9211240BB60F922F93BB
:102410003F934F935F936F937F938F939F93AF936C
:10242000BF93EF93FF9388E094E092DBFF91EF91ED
:10243000BF91AF919F918F917F916F915F914F91DC
:102440003F912F910F900BBE0F900FBE0F901F90DA
:1024500018951F920F920FB60F9211240BB60F9280
:102460002F933F934F935F936F937F938F939F939C
:10247000AF93BF93EF93FF9385EA94E0E4DCFF9181
:10248000EF91BF91AF919F918F917F916F915F91EC
:102490004F913F912F910F900BBE0F900FBE0F9059
:1024A0001F9018951F920F920FB60F9211240BB622
:1024B0000F922F933F934F935F936F937F938F93DD
:1024C0009F93AF93BF93EF93FF9385EA94E040DB34
:1024D000FF91EF91BF91AF919F918F917F916F91FC
:1024E0005F914F913F912F910F900BBE0F900FBEB8
:1024F0000F901F9018951F920F920FB60F921124F4
:102500000BB60F922F933F934F935F936F937F93ED
:102510008F939F93AF93BF93EF93FF9382E495E0E4
:1025200092DCFF91EF91BF91AF919F918F917F913D
:102530006F915F914F913F912F910F900BBE0F9034
:102540000FBE0F901F9018951F920F920FB60F920B
:1025500011240BB60F922F933F934F935F936F937A
:102560007F938F939F93AF93BF93EF93FF9382E4F7
:1025700095E0EEDAFF91EF91BF91AF919F918F912E
:102580007F916F915F914F913F912F910F900BBE73
:102590000F900FBE0F901F9018951F920F920FB6BD
:1025A0000F9211240BB60F922F933F934F935F938B
:1025B0006F937F938F939F93AF93BF93EF93FF930B
:1025C0008FED95E040DCFF91EF91BF91AF919F912E
:1025D0008F917F916F915F914F913F912F910F90CC
:1025E0000BBE0F900FBE0F901F9018951F920F9269
:1025F0000FB60F9211240BB60F922F933F934F9368
:102600005F936F937F938F939F93AF93BF93EF935A
:10261000FF938FED95E09CDAFF91EF91BF91AF9121
:102620009F918F917F916F915F914F913F912F91EA
:102630000F900BBE0F900FBE0F901F9018951F921A
:102640000F920FB60F9211240BB60F922F933F9358
:102650004F935F936F937F938F939F93AF93BF93AA
:10266000EF93FF938091B900887F803609F49CC076
:1026700068F5883209F45BC090F4803109F454C0E5
:1026800038F4882309F4F6C0883009F44DC0F5C049
:10269000883109F44CC0803209F45DC0EEC080344A
:1026A00009F468C048F4803309F455C0883309F050
:1026B000E4C08093DA03D8C0803509F44FC0883570
:1026C00009F45DC0883409F0D8C0D6C0883909F44F
:1026D000C7C0A8F4883709F467C038F4883609F40D
:1026E00063C0803709F460C0C8C0883809F4B8C036
:1026F000803909F45FC0803809F0BFC05BC0803BFF
:1027000009F486C038F4803A09F466C0883A09F4BE
:102710007FC0B3C0803C09F4A7C0883C09F4A4C0C2
:10272000883B09F48AC0A9C08091B70310C090917A
:10273000D9038091D803981770F5E091D90381E00F
:102740008E0F8093D903F0E0E854FC4F8081809392
:10275000BB0085EC86C08093DA038EC0E091D9037C
:1027600081E08E0F8093D9038091BB00F0E0E854A4
:10277000FC4F80839091D9038091D8036EC0E09183
:10278000D90381E08E0F8093D9038091BB00F0E0E4
:10279000E854FC4F80838091020481116DC081E078
:1027A0008093010484EA61C083E080930304109263
:1027B0009603CFCF80919603803208F051C0E0910C
:1027C000960381E08E0F809396038091BB00F0E02A
:1027D000EA58FC4F8083BDCF85EC8093BC001092FB
:1027E000030480919603803230F4E0919603F0E088
:1027F000EA58FC4F10826091960370E0E091FD036F
:10280000F091FE0386E793E019951092960335C088
:1028100084E0809303041092750310927403E09196
:10282000FF03F0910004199580917403811105C094
:1028300081E08093740310925403E091750381E06A
:102840008E0F80937503F0E0EC5AFC4F80818093EB
:10285000BB009091750380917403981708F479CFA9
:1028600085E88093BC0009C085EC8093BC00109281
:10287000030403C01092DA039EDBFF91EF91BF9136
:10288000AF919F918F917F916F915F914F913F9108
:102890002F910F900BBE0F900FBE0F901F901895A9
:1028A0004F925F926F927F928F929F92AF92BF9260
:1028B000CF92DF92EF92FF920F931F93CF93DF930C
:1028C000CDB7DEB72A970FB6F894DEBF0FBECDBFE7
:1028D0009A8789872A013B0109831A832B833C83CA
:1028E000DC015B96BC92AE925A9781E0AA94AB2829
:1028F00009F080E0E985FA8583AF408251826282E7
:10290000738289819A81AB81BC8184839583A683FC
:10291000B783C086D186E286F38666A577A580A9AF
:1029200091A90E94222520E030E04AE754E40E9469
:1029300089246D837E838F839887E985FA85448611
:102940005586668677869B01AC0169817A818B8189
:102950009C810E94D8254B015C01A985BA855096BF
:102960006D937D938D939C9353972D813E814F81E1
:102970005885C701B6010E9489246B017C01E98555
:10298000FA85648B758B868B978B808D918D0197E3
:1029900059F5A301920160E070E0CB010E94202470
:1029A000A985BA851C966D937D938D939C931F97F3
:1029B000A501940160E070E0CB010E942024E9852C
:1029C000FA85608B718B828B938BA701960160E0F7
:1029D00070E0CB010E942024A985BA8554966D939E
:1029E0007D938D939C9357972A960FB6F894DEBFEC
:1029F0000FBECDBFDF91CF911F910F91FF90EF9050
:102A0000DF90CF90BF90AF909F908F907F906F900E
:102A10005F904F9008951F920F920FB60F9211245E
:102A20000F900FBE0F901F901895E0918C06F091BB
:102A30008D060190F081E02D82AD811112C0DF0181
:102A4000A457BF4F1D921D921D921C9213979397EE
:102A50008C91811108C060E070E0CF018C599F4FCC
:102A600025C312AEECCF08952F923F924F925F9202
:102A70006F927F928F929F92AF92BF92CF92DF928E
:102A8000EF92FF920F931F93CF93DF93CDB7DEB7F3
:102A90002F970FB6F894DEBF0FBECDBFE0918C0626
:102AA000F0918D06808191819F878E87DC01DA9677
:102AB0008C9181114CC0AE85BF855E96ED91FC91E5
:102AC0005F97C080D180E280F380FD01C6A2D7A2CB
:102AD000E0A6F1A65C96ED91FC915D9780819181D5
:102AE000A281B381EE85FF8582A793A7A4A7B5A78E
:102AF00086A897A8A0ACB1ACA5019401C701B60106
:102B00000E94D425AE85BF851816D4F0D2968D903C
:102B10009D90AD90BC90D597A5019401C701B601D9
:102B20000E94852487FD05C081E0EE85FF8582AF88
:102B30000EC0EE85FF8586A297A2A0A6B1A6F4CF0F
:102B400096968D929D92AD92BC929997EDCF8E857F
:102B50009F850E942902EE85FF8582AD882309F4B6
:102B600037C19BD36D837E838F839887EE85FF85E6
:102B700082A193A1A4A1B5A14D815E816F817885C9
:102B8000481B590B6A0B7B0B86A597A5A0A9B1A979
:102B9000481759076A077B0708F41AC1048CF58D9A
:102BA000E02D80819181A281B38189839A83AB8357
:102BB000BC83AE85BF859096ED91FC91919729815C
:102BC0003A814B815C8160817181828193810E9415
:102BD00020244B015C01EE85FF8522A533A544A589
:102BE00055A569817A818B819C810E9420246B018B
:102BF0007C01AE85BF8550962D913D914D915C91A4
:102C00005397C501B4010E94D825EE85FF8526A102
:102C100037A140A551A50E9421242B013C01AE857E
:102C2000BF8596966D937D938D939C939997DB9634
:102C3000BC91B987BB2309F4B2C0EE85FF8546A0DD
:102C400057A060A471A416A907A930AC21AC212F0C
:102C5000302F432D522DC301B2010E94D4251816E6
:102C60000CF492C0AE85BF85D2968D919D910D904A
:102C7000BC91A02D8A879B87AC87BD879C01AD0145
:102C8000C301B2010E94852487FD79C0F985F11145
:102C900069C0812C912C5401AE85BF8554962D912D
:102CA0003D914D915C915797C701B6010E94D8257F
:102CB0009B01AC01EE85FF8566A177A180A591A55A
:102CC0000E942024A50194010E942124F62EE72EC3
:102CD000D82EC92E262F372F482F592F612F702F0E
:102CE000832D922D0E94852487FD1BC0AE85BF8554
:102CF000D2961C91D297D3960C91D397D4963C90B0
:102D0000D497D5962C90212F302F432D522D6F2DF7
:102D10007E2D8D2D9C2D0E94852487FD02C087016C
:102D20001601AE85BF855E96ED91FC915F97812F70
:102D3000902FA32DB22D80839183A283B3838981A9
:102D40009A81AB81BC81EE85FF8582A793A7A4A75A
:102D5000B5A78D819E81AF81B88582A393A3A4A3DB
:102D6000B5A336C0EE85FF85248535854685578514
:102D7000C501B4010E94D8254B015C018DCF8A8525
:102D80009B85AC85BD8504C0812F902FA32DB22DCE
:102D9000EE85FF8586A397A3A0A7B1A777CFAE85C1
:102DA000BF851C962D913D914D915C911F97C70158
:102DB000B6010E94D8259B01AC01C301B2010E945B
:102DC0002024EE85FF8566A377A380A791A735CF42
:102DD000EE85FF85E759FF4F8081811127C0EE8581
:102DE000FF85E457FF4F60817181828193810E944A
:102DF000F6248E859F858C599F4F2F960FB6F89499
:102E0000DEBF0FBECDBFDF91CF911F910F91FF901D
:102E1000EF90DF90CF90BF90AF909F908F907F907A
:102E20006F905F904F903F902F9040C12F960FB6BC
:102E3000F894DEBF0FBECDBFDF91CF911F910F91F0
:102E4000FF90EF90DF90CF90BF90AF909F908F90CA
:102E50007F906F905F904F903F902F90089581E00A
:102E60002091FC023091FD022130310509F080E013
:102E7000089510920704109206041092050410920F
:102E800004041092030481E0809302041092010470
:102E900061E084E10E94E90D61E085E10E94E90DB5
:102EA000E9EBF0E080818E7F808380818D7F80835D
:102EB00088E48093B80085E48093BC008DE090E1C5
:102EC000909300048093FF038EE090E19093FE03C3
:102ED0008093FD030895282F30910404313208F0C7
:102EE0004AC0809103048111FCCF9091FC0342E021
:102EF00040930304209302042FEF2093DA031092EF
:102F0000D9033093D803ECEDF3E0A8EBB3E020E075
:102F1000321721F041914D932F5FFACF1092B703F2
:102F20002091B703990F922B9093B70390910104CE
:102F3000913061F4109201049091B7039093BB001B
:102F40009091BC0093FDF8CF95EC01C095EE909365
:102F5000BC00909103049230E1F39091DA039F3F1B
:102F600079F08091DA03803241F08091DA03803386
:102F700031F084E005C081E003C082E001C083E05D
:102F800010920504109204041092DB03089581E06E
:102F9000A2CFCF93DF93EB0191E09093DB0380937B
:102FA000FC03109205041092040461E08CE796E0A3
:102FB0008ED86D2F8CE796E08AD86C2F8CE796E040
:102FC00086D8DF91CF91E3CF909103049111FCCF8C
:102FD00091E090930304909302042FEF2093DA037F
:102FE0001092D903260F2093D8039093B7039091A2
:102FF000B703880F892B8093B70380910104813038
:1030000061F4109201048091B7038093BB0080911A
:10301000BC0083FDF8CF85EC01C085EE8093BC0039
:10302000809103048130E1F38091D903861710F475
:103030006091D903A8EBB3E0E7E9F3E080E08617FD
:1030400021F09D9191938F5FFACF08951F93CF93B5
:10305000DF93182F81E08093DB031093FC03109221
:1030600005041092040460E08CE796E030D88FDF0E
:1030700062E0812FA9DF10920704809306048CE799
:1030800096E00E941F10182F8CE796E00E941F10F8
:10309000D12F20E0C22F9E01282BC901DF91CF91B3
:1030A0001F910895682F8CE796E011C8FF920F9347
:1030B0001F93CF93DF93EB0108EB10E0F801F08052
:1030C0002CE02083FC01808191E09093DB038093CE
:1030D000FC03109205041092040460E48CE796E06F
:1030E0000E946710CE0124E0969587952A95E1F716
:1030F000D9DFCE0134E0880F991F3A95E1F799277F
:10310000D1DF45DFF801F082DF91CF911F910F9160
:10311000FF9008951F93CF93DF93EC01162F8091BA
:103120000B0791E09093DB038093FC03109205045E
:10313000109204048D2F90E0B5DFCE019927B2DF05
:10314000612F8CE796E00E946710DF91CF911F916D
:103150001ECFCF92DF92EF92FF92CF93DF93EC01DD
:103160006A017B01E889F98982E080834115514E2B
:1031700061057105B1F060E079E08DE390E0A701B1
:1031800096010E94FE23DA01C9010197A109B10944
:10319000B695A795979587959C01211580E13807ED
:1031A000A8F0E889F989108260E874E88EE190E07F
:1031B000A70196010E94FE23DA01C9010197A10926
:1031C000B109B695A795979587959C01EC85FD85E6
:1031D0003083EE85FF852083188EEC89FD8986E09B
:1031E0008083EA89FB89808180618083EA89FB8909
:1031F000808188608083EA89FB8980818068808300
:10320000EA89FB8980818F7D8083DF91CF91FF9058
:10321000EF90DF90CF900895E6EBF6E090E02FEF8F
:103220003FEF981791F04191242748E0B901617070
:10323000772736952795672B21F051E0252750EA0F
:103240003527415099F79F5FECCF922F832F089538
:103250003FB7F8948091170790911807A09119072C
:10326000B0911A0726B5A89B05C02F3F19F001960B
:10327000A11DB11D3FBFBA2FA92F982F8827820FFC
:10328000911DA11DB11DBC01CD0142E0660F771F4C
:10329000881F991F4A95D1F708952FB7F894609128
:1032A00013077091140780911507909116072FBF8F
:1032B00008951F920F920FB60F9211242F933F93F0
:1032C0008F939F93AF93BF938091130790911407AF
:1032D000A0911507B09116073091120723E0230F34
:1032E0002D3720F40196A11DB11D05C026E8230F3E
:1032F0000296A11DB11D209312078093130790938E
:103300001407A0931507B0931607809117079091A3
:103310001807A0911907B0911A070196A11DB11DB8
:103320008093170790931807A0931907B0931A0773
:10333000BF91AF919F918F913F912F910F900FBEB1
:103340000F901F901895CF93DF93CDB7DEB7689796
:103350000FB6F894DEBF0FBECDBF789484B58260FF
:1033600084BD84B5816084BD85B5826085BD85B529
:10337000816085BD80916E00816080936E001092A7
:103380008100809181008260809381008091810022
:1033900081608093810080918000816080938000B3
:1033A0008091B10084608093B1008091B000816011
:1033B0008093B00080919100826080939100809111
:1033C0009100816080939100809190008160809352
:1033D00090008091A10082608093A1008091A10063
:1033E00081608093A1008091A00081608093A00003
:1033F000809121018260809321018091210181606F
:10340000809321018091200181608093200180912F
:103410007A00846080937A0080917A008260809341
:103420007A0080917A00816080937A0080917A009E
:10343000806880937A001092C10068EE73E080E0AB
:1034400090E00E945E0E82E390E090931D038093D3
:103450001C0383E680938E060CDD60E070E08EE84E
:1034600096E024DE60E086E30E94170E62E087E3C8
:103470000E94170E60E088E30E94170E61E089E069
:103480000E94170E61E082E00E94170E61E08AE060
:103490000E94170E60E08AE00E94E90D61E08BE077
:1034A0000E94170E60E08BE00E94E90D61E08CE065
:1034B0000E94170E61E08CE00E94E90D60E082E15D
:1034C0000E94170E61E08BE30E94170E61E08BE310
:1034D0000E94E90D61E088E00E94170E40E251EA87
:1034E00067E070E08FED95E034DE80919506909175
:1034F000960690939306809392060E943D0D80EE6F
:1035000090E090939806809397068AE999E9A9E953
:10351000BFE38093990690939A06A0939B06B0937D
:103520009C0610E5F12EEE24E3940CE7D02EF092E9
:103530000B079FDCE092DB03D092FC0310920504A2
:103540001092040460910B0770E0660F771F8CE700
:1035500096E00E94671080E0BEDC63E08CE734DD1B
:1035600010920704809306048CE796E00E941F10D7
:103570008C018CE796E00E941F109A8389838CE768
:1035800096E00E941F101127A4E0000F111FAA95BA
:10359000E1F729813A813327B4E035952795BA952B
:1035A000E1F7020F131F0A30110509F0C0CF29817E
:1035B0002F70422F50E0B42FAA27A80FB11DA031C1
:1035C000B54009F0B4CF81E080930C078091B2063A
:1035D000823039F0833041F0813049F482E495E063
:1035E00008C085EA94E005C088E094E002C08FED51
:1035F00095E09093AE068093AD0640E052EC61E01A
:1036000070E08091AD069091AE06A3DD8091B30687
:10361000823078F08091040180668093040180916B
:1036200005018F7B80930501809105018F7D80933B
:1036300005018091AD069091AE06DC01ED91FC9103
:103640000284F385E02D199597FFF3CF1092F606CB
:103650001092F7061092FF061092FE061092FD06D9
:103660001092FC061092FB061092FA0602E912E094
:10367000E8EEF3E0FA83E98389819A810E94F901F7
:10368000D8018D939D938D01E981FA813496FA8357
:10369000E983E115F44081F704E712E01A82198208
:1036A00089819A810E94F901D8018D939D938D01A2
:1036B000E981FA813496FA83E983749789F708E8F7
:1036C00012E089819A810E94F901D8018D939D931E
:1036D0008D01E981FA813496FA83E983B89789F7F5
:1036E00088E290E00E94F9019093E7028093E6025D
:1036F0008CE290E00E94F9019093E9028093E80245
:1037000080E390E00E94F9019093F5028093F40227
:1037100084E390E00E94F9019093F7028093F6020F
:1037200088E390E00E94F9019093230380932203A1
:103730008CE390E00E94F901909325038093240389
:1037400080E490E00E94F901909327038093260380
:1037500084E490E00E94F9019093F9028093F802CA
:1037600088E490E00E94F90190934503809344031C
:103770008CE490E00E94F901909347038093460304
:1037800080E590E00E94F9019093FB028093FA0299
:1037900008E213E024E530E03A83298389819A81A5
:1037A0000E94F901D8018D939D938D01E981FA81E1
:1037B0003496FA83E983E836F10581F788EC90E0E6
:1037C0000E944726988F8F8B4C01BEE68B0E911C72
:1037D000F401808191812F89388D28553F4F3E8398
:1037E0002D83D901CD90DD90ED90FC90EF89F88D7F
:1037F000EC55FF4FFC8BEB8B4080518062807380D7
:103800002F89388D20563F4F3E8B2D8BD9012D911E
:103810003D914D915C9129833A834B835C83EF8981
:10382000F88DE457FF4FF88BEF87AF89B88D5F961F
:10383000FC93EE935E979D0128573F4F5D963C9316
:103840002E935C97245C3F4F91963C932E939097D8
:10385000DA961C92DA97FD0112AA13AA14AA15AAE5
:1038600040E050E06FE773E4D6964D935D936D931F
:103870007C93D99744E650E060E070E046A757A7F4
:1038800060AB71AB918F808F20E030E0A90169813E
:103890007A818B819C810E94852487FD1FC020E056
:1038A00030E0A901C301B2010E94852487FD16C042
:1038B00020E030E0A901C701B6010E94852487FD00
:1038C0000DC0AA24A394B12C9301820149815A818D
:1038D0006B817C818F89988D0E945014DEDCAF89CA
:1038E000B88D9E960D911D912D913C91D197DC0143
:1038F000CB01801B910BA20BB30BEF89F88D82A338
:1039000093A3A4A3B5A382E391E1A0E8BBE384AFB2
:1039100095AFA6AFB7AF8FE795E0ABE1B5EBE05C55
:10392000FF4F80839183A283B3836F88788CF6E402
:103930006F0E711C88E4D3018C9314961C921E9216
:10394000139798E011969C93119712961C92EF8909
:10395000F88DE05AFF4F1082118212821382EF8994
:10396000F88DEC5BFF4F8083EF89F88DEB5BFF4FA9
:10397000FA83E98382E6808380918E06EF89F88D51
:10398000EC59FF4F8083EF89F88DEB59FF4F108280
:103990001182128213822F89388D27593F4F3A8B1B
:1039A000298BD9011C92F40111821082EF89F88DC4
:1039B000E059FF4F10821182128213828CE291E053
:1039C000A0E0B0E0EF89F88DE858FF4F8083918345
:1039D000A283B38380E090EFAFE7B5E48F88988C43
:1039E000FCE78F0E911CF40180839183A283B38343
:1039F000EF89F88DE857FF4F1082118212821382EF
:103A0000AF85B8891D921D921D921C92139780E07C
:103A100090E0A0E8BEE3EF89F88DEC56FF4F80837D
:103A20009183A283B38380E090E0AAEFB3E4EF89AF
:103A3000F88DE856FF4F80839183A283B383EF898B
:103A4000F88DE456FF4F1082118212821382ED89A5
:103A5000FE891082118212821382AB89BC891D9269
:103A60001D921D921C921397ED81FE81108211828E
:103A70001282138280E090E0A0E8BFE3EF89F88D26
:103A8000E455FF4F80839183A283B383EF89F88D40
:103A9000E055FF4F10821182128213828AE097ED67
:103AA000A3E2BCE3EF89F88DEC54FF4F8083918350
:103AB000A283B38384EA90E7ADE7BFE3EF89F88D93
:103AC000E854FF4F80839183A283B3834F88588C3F
:103AD000FCEB4F0E511C80E090E0A8ECB4E4F20146
:103AE00080839183A283B3832F89388D20543F4FE5
:103AF0003E832D8380E090E0AAE7B4E4F90180835F
:103B00009183A283B383EF89F88DEC53FF4F10822A
:103B1000118212821382AF89B88D5A96AD90BC90F3
:103B20005B97C12CD12C760197018601B701A601C4
:103B3000CD010E945014F401C080D180E280F38056
:103B400020E030E0A901C701B601DFD618160CF05D
:103B500059C0AF89B88DD2961D921D921D921C92AC
:103B6000D597FD01C6AAD7AAE0AEF1AE82AD8823F3
:103B700009F448C0068D178DD8018D909D90AD90A9
:103B8000BC90A5019401C701B601BFD687FF06C04E
:103B9000F801C082D182E282F3820EC020E030E0E0
:103BA000A901C501B401B1D687FF06C0D8011D9295
:103BB0001D921D921C921397EF89F88D86A097A0F5
:103BC000A0A4B1A4C6A8D7A8E0ACF1ACA701960107
:103BD000C501B401E9D718166CF0EF89F88DC2A8B9
:103BE000D3A8E4A8F5A8A7019601C501B4018DD614
:103BF00087FF08C0AF89B88D9696CD92DD92ED9281
:103C0000FC929997EF89F88D66A577A580A991A96F
:103C100019D79B01AC0160E070E080EA90E479D6AE
:103C20006B017C019B01AC01AF89B88D50966D9101
:103C30007D918D919C915397BBD7EF89F88D608BC7
:103C4000718B828B938BA701960164897589868914
:103C500097895FD6AF89B88D54966D937D938D9378
:103C60009C93579785E090E0A0E0B0E0EF89F88D55
:103C700086A797A7A0ABB1ABFCD8EF89F88DE55B21
:103C8000FF4FA981BA818C918083F3D8F30114820C
:103C900013826FEF7FE08F89988D855B9F4F06DAE7
:103CA0002F89388D245B3F4FF20180819181A28161
:103CB000B381F90180839183A283B3832F89388DE7
:103CC000205B3F4FED81FE8180819181A281B38194
:103CD000F90180839183A283B3832F89388D309338
:103CE000530220935202A989BA891C9280918A06B4
:103CF00090918B0620918806309189068217930750
:103D000019F57C01EE0CFF1C892B11F0C70102C0D4
:103D100081E090E090938B0680938A06880F991F2C
:103D2000B6D79A83898300918C0610918D06A701DE
:103D3000B8010E946C27C8010E94DF26E981FA8140
:103D4000F0938D06E0938C06E0918C06F0918D0641
:103D500080918806909189069C012F5F3F4F309398
:103D60008906209388062091520230915302880FD1
:103D7000991FE80FF91F31832083E0918C06F091A1
:103D80008D06208131813E832D83F901E659FF4F55
:103D900011821082609196027091970280E090E00B
:103DA00051D620E030E048EC52E4B3D56B017C0101
:103DB000609194027091950280E090E043D620E0FB
:103DC00030E048EC52E4A5D569837A838B839C83E9
:103DD000609192027091930280E090E033D620E0EF
:103DE00030E048EC52E495D52B013C01ED81FE8199
:103DF000E056FF4F6083718382839383ED81FE8160
:103E0000EC55FF4F89819A81AB81BC81808391837E
:103E1000A283B383ED81FE81E855FF4FC082D1823A
:103E2000E282F382AD81BE815A96AD90BC905B97E1
:103E300020E030E0A901C301B20167D587FD1CC0B5
:103E400020E030E0A90169817A818B819C815DD578
:103E500087FD12C020E030E0A901C701B60155D5A9
:103E600087FD0AC009811A812B813C81B301A2011F
:103E70008D819E810E945014E0918C06F0918D06F8
:103E8000208131813A832983890104551F4F609134
:103E900098027091990280E090E0D4D520E030E063
:103EA0004AE754E436D5D8016D937D938D939C9366
:103EB000139709811A8100551F4F60919A027091E2
:103EC0009B0280E090E0BED520E030E040E251E48B
:103ED00020D5F801608371838283938360919C0273
:103EE00070919D0280E090E0ADD5E981FA81E454C3
:103EF000FF4F6083718382839383E981FA81E45B5E
:103F0000FF4F608371838283938329813A81205894
:103F10003F4F3A8329836091FA027091FB0280E05F
:103F200090E090D520E030E040E251E4F2D4A98165
:103F3000BA816D937D938D939C93139761E088E094
:103F40000E94E90D0E942F17882309F404C3809171
:103F5000540290915502009709F065C01092FF023B
:103F60001092FE020E9401046091E6027091E70245
:103F700080E090E067D520E030E040E251E4C9D431
:103F8000AB01BC01E0918C06F0918D06808191819E
:103F90000E94C1030E9468010E9434150E941A0801
:103FA0000E94EE0160935E0270935F028093600254
:103FB00090936102E0918C06F0918D060190F08162
:103FC000E02DE857FF4F80819181A281B3818093DA
:103FD0005A0290935B02A0935C02B0935D020E9430
:103FE000EE01C0905602D0905702E0905802F09037
:103FF0005902A701960124D44B015C016091F4029F
:104000007091F50280E090E01DD520E030E040E2C4
:1040100051E47FD49B01AC01C501B401C5D518168C
:104020000CF4D7C22CC09093FF028093FE020E9432
:1040300001040E94EE0120915E0230915F024091E6
:10404000600250916102FCD32B013C016091880217
:104050007091890280E090E0F5D420E030E040E209
:1040600051E457D47B018D83998320E030E0A9018E
:10407000C301B20199D518160CF444C121C00E94A5
:10408000EE01A7019601DCD320E030E0A9013DD488
:1040900087FF5DC2A701960160E070E080E89FE4C1
:1040A000CFD39B01AC0160E070E0CB01C9D360933A
:1040B000560270935702809358029093590247C258
:1040C00060918A0270918B0280E090E0BBD420E086
:1040D00030E040E251E41DD48B016C019B01AC0146
:1040E000B7018D819981ADD34B015C0197014D8161
:1040F0005981C301B20158D518160CF4D6C060918D
:104100008C0270918D0280E090E09CD420E030E041
:1041100040E251E4FED38B016C019B01AC01B40180
:10412000C5018FD37B018D8399839401A501C301C0
:10413000B2013AD518160CF487C060918E027091C6
:104140008F0280E090E07ED420E030E040E251E455
:10415000E0D38B016C019B01AC01B7018D8199818A
:1041600070D34B015C0197014D815981C301B201AC
:104170001BD518160CF43BC09401A501C301B20174
:1041800013D518160CF0EEC060917C0270917D0280
:1041900080E090E057D420E030E040E251E4B9D331
:1041A0006F83788789879A8760917A0270917B0202
:1041B00080E090E047D420E030E040E251E4A9D331
:1041C0006B877C878D879E872090300330903103EA
:1041D000609190027091910280E090E033D420E0F1
:1041E00030E040E251E495D38B016C015AC0940158
:1041F000A501C301B20189D318160CF4BDCF60919B
:104200007A0270917B0280E090E01CD420E030E0E4
:1042100040E251E47ED36F83788789879A876091E3
:1042200078027091790280E090E00CD420E030E0D8
:1042300040E251E46ED36B877C878D879E87209008
:104240002E0330902F038EC097014D815981C301F9
:10425000B2015BD318160CF470CF609178027091A4
:10426000790280E090E0EED320E030E040E251E4DB
:1042700050D36F83788789879A876091760270918F
:10428000770280E090E0DED320E030E040E251E4CD
:1042900040D36B877C878D879E8720902C0330903E
:1042A0002D037401AD82B9825DC09401A501C301E3
:1042B000B2012BD318160CF422CF609176027091C4
:1042C000770280E090E0BED320E030E040E251E4AD
:1042D00020D36F83788789879A8760917402709161
:1042E000750280E090E0AED320E030E040E251E49F
:1042F00010D36B877C878D879E8720902A03309010
:104300002B0330C097014D815981C301B201FDD209
:1043100018160CF4D5CE609174027091750280E08D
:1043200090E090D320E030E040E251E4F2D26F839D
:10433000788789879A8720915A0230915B02409151
:104340005C0250915D022B873C874D875E872090F1
:104350002803309029038701CD80D980E12CF12CEE
:104360001D82198231E02316310449F0E0918C0658
:10437000F0918D064F81588569857A8524C02B85FB
:104380003C854D855E856F81788589859A8558D273
:104390009801A601BED24B015C0197014D81598164
:1043A000C301B2014DD29B01AC01C501B40100D4DF
:1043B0002B853C854D855E8544D2AB01BC01E091E7
:1043C0008C06F0918D06808191810E94C103E0915D
:1043D0008C06F0918D060190F081E02DEC53FF4F9B
:1043E00020E030E040E251E460817181828193817C
:1043F000DFD3FCD27093E7026093E6020E9468016B
:1044000061E082E00E94E90D0E9434150E941A08C2
:104410000E94EE01609356027093570280935802F7
:1044200090935902609188027091890280E090E037
:1044300009D320E030E040E251E46BD26B017C0113
:1044400060918A0270918B0280E090E0FBD220E0C4
:1044500030E040E251E45DD29B01AC01C701B601FE
:10446000F0D16B017C0160918C0270918D0280E033
:1044700090E0E8D220E030E040E251E44AD29B01F3
:10448000AC01C701B601DDD16B017C0160918E02E8
:1044900070918F0280E090E0D5D220E030E040E2E1
:1044A00051E437D29B01AC01C701B601CAD16B01FF
:1044B0007C01609190027091910280E090E0C2D204
:1044C00020E030E040E251E424D29B01AC01C7017E
:1044D000B601B7D186D22B013C010E94EE01C090FB
:1044E0005E02D0905F02E0906002F0906102A7014E
:1044F0009601A6D14B015C01C301B201A5D29B017B
:10450000AC01C501B40150D318160CF467C00E9469
:10451000EE01A701960194D120E030E0A901F5D188
:1045200087FF15C0A701960160E070E080E89FE476
:1045300087D19B01AC0160E070E0CB0181D1609339
:104540005E0270935F0280936002909361020E940A
:104550002F17811137C00E9401040E9415150E9477
:104560001A088091FE029091FF0290935502809369
:1045700054020E94EE01609356027093570280939A
:104580005802909359020E94EE0160935E0270936C
:104590005F028093600290936102E0918C06F0913B
:1045A0008D060190F081E02DE857FF4F80819181C9
:1045B000A281B38180935A0290935B02A0935C0224
:1045C000B0935D0260E088E00E94E90D0E94B20FA6
:1045D000B5CC1092FD021092FC02B9CF1092FD02F0
:1045E0001092FC0260E082E00E94E90DB0CFC82F7B
:1045F0000E9415158C2F90E090931F0380931E034B
:1046000061E08AE00E94E90D61E08BE00E94E90D23
:1046100060E08CE00E94E90D0E940104FDCF8091D2
:104620008C0690918D06CBC31F93CF93DF93E8E068
:10463000F4E01382128288EE93E0A0E0B0E084837D
:104640009583A683B7832FE132E03183208345E34E
:1046500051E05587448744E351E05787468740E35C
:1046600051E0518B408B41E351E0538B428B42E34D
:1046700051E0558B448B46E351E0578B468B118EAE
:10468000128E138E148EE5EAF4E013821282848374
:104690009583A683B7833183208345ED50E055870A
:1046A000448744ED50E05787468740ED50E0518BFA
:1046B000408B41ED50E0538B428B42ED50E0558BE7
:1046C000448B46ED50E0578B468B118E128E138E25
:1046D000148EE2E4F5E01382128284839583A6832C
:1046E000B783318320834DEC50E0558744874CECF1
:1046F00050E05787468748EC50E0518B408B49EC9F
:1047000050E0538B428B4AEC50E0558B448B4EEC7F
:1047100050E0578B468B118E128E138E148EEFED58
:10472000F5E01382128284839583A683B783318355
:10473000208325EC30E03587248724EC30E0378770
:10474000268720EC30E0318B208B21EC30E0338B5E
:10475000228B22EC30E0358B248B26EC30E0378B3B
:10476000268B118E128E138E148EECE7F6E01382D8
:10477000128284839583A683B78381E392E0918339
:10478000808310920C07EDEAF6E081E0848383E0F9
:10479000858312E0168388EE93E09093010780935F
:1047A0000007EDE0F7E0148213828AE4808388E05A
:1047B0008183128285E0AFE8B6E001900D928A9580
:1047C000E1F7CFE8D6E080E090E0AAE7B3E48A8B97
:1047D0009B8BAC8BBD8B0E9439171D831F821E8261
:1047E0000E943D0DE8E8F6E01182108213821282E9
:1047F00015821482DF91CF911F910895A1E21A2EA4
:10480000AA1BBB1BFD010DC0AA1FBB1FEE1FFF1F74
:10481000A217B307E407F50720F0A21BB30BE40BC4
:10482000F50B661F771F881F991F1A9469F760950B
:104830007095809590959B01AC01BD01CF010895C5
:104840005058BB27AA270ED075C166D130F06BD166
:1048500020F031F49F3F11F41EF45BC10EF4E0959B
:10486000E7FB51C1E92F77D180F3BA1762077307CD
:104870008407950718F071F49EF58FC10EF4E0954A
:104880000B2EBA2FA02D0B01B90190010C01CA010A
:10489000A0011124FF27591B99F0593F50F4503EB5
:1048A00068F11A16F040A22F232F342F4427585FA7
:1048B000F3CF469537952795A795F0405395C9F7BF
:1048C0007EF41F16BA0B620B730B840BBAF0915077
:1048D000A1F0FF0FBB1F661F771F881FC2F70EC016
:1048E000BA0F621F731F841F48F4879577956795E9
:1048F000B795F7959E3F08F0B3CF9395880F08F0D2
:104900009927EE0F979587950895D9D008F481E0FF
:1049100008950CD00FC107D140F0FED030F021F443
:104920005F3F19F0F0C0511139C1F3C014D198F3B1
:104930009923C9F35523B1F3951B550BBB27AA2720
:1049400062177307840738F09F5F5F4F220F331F92
:10495000441FAA1FA9F333D00E2E3AF0E0E830D05E
:1049600091505040E695001CCAF729D0FE2F27D061
:10497000660F771F881FBB1F261737074807AB072F
:10498000B0E809F0BB0B802DBF01FF2793585F4FA4
:104990002AF09E3F510568F0B6C000C15F3FECF3BE
:1049A000983EDCF3869577956795B795F7959F5F69
:1049B000C9F7880F911D9695879597F90895E1E0BD
:1049C000660F771F881FBB1F621773078407BA071C
:1049D00020F0621B730B840BBA0BEE1F88F7E09577
:1049E000089504D06894B111D9C00895BCD088F05E
:1049F0009F5790F0B92F9927B751A0F0D1F0660FCB
:104A0000771F881F991F1AF0BA95C9F712C0B130E5
:104A100081F0C3D0B1E00895C0C0672F782F8827F8
:104A2000B85F39F0B93FCCF3869577956795B39524
:104A3000D9F73EF490958095709561957F4F8F4F93
:104A40009F4F0895E89409C097FB3EF49095809598
:104A5000709561957F4F8F4F9F4F9923A9F0F92F44
:104A600096E9BB279395F695879577956795B795C2
:104A7000F111F8CFFAF4BB0F11F460FF1BC06F5FA8
:104A80007F4F8F4F9F4F16C0882311F096E911C0BA
:104A9000772321F09EE8872F762F05C0662371F0DB
:104AA00096E8862F70E060E02AF09A95660F771FEF
:104AB000881FDAF7880F9695879597F90895990FCB
:104AC0000008550FAA0BE0E8FEEF16161706E807D8
:104AD000F907C0F012161306E407F50798F0621BF9
:104AE000730B840B950B39F40A2661F0232B242BCE
:104AF000252B21F408950A2609F4A140A6958FEFED
:104B0000811D811D089597F99F6780E870E060E03E
:104B100008959FEF80EC089500240A941616170656
:104B200018060906089500240A941216130614069E
:104B300005060895092E0394000C11F4882352F001
:104B4000BB0F40F4BF2B11F460FF04C06F5F7F4FB9
:104B50008F4F9F4F089557FD9058440F551F59F0A0
:104B60005F3F71F04795880F97FB991F61F09F3F5A
:104B700079F087950895121613061406551FF2CF83
:104B80004695F1DF08C0161617061806991FF1CFD3
:104B900086957105610508940895E894BB276627FA
:104BA0007727CB0197F908958ADF08F48FEF0895EE
:104BB0000BD0C0CFB1DF28F0B6DF18F0952309F095
:104BC000A2CFA7CF1124EACFC6DFA0F3959FD1F3E0
:104BD000950F50E0551F629FF001729FBB27F00DAB
:104BE000B11D639FAA27F00DB11DAA1F649F662700
:104BF000B00DA11D661F829F2227B00DA11D621F4F
:104C0000739FB00DA11D621F839FA00D611D221F08
:104C1000749F3327A00D611D231F849F600D211DEC
:104C2000822F762F6A2F11249F5750408AF0E1F08F
:104C300088234AF0EE0FFF1FBB1F661F771F881FD8
:104C400091505040A9F79E3F510570F05CCFA6CF20
:104C50005F3FECF3983EDCF3869577956795B795C3
:104C6000F795E7959F5FC1F7FE2B880F911D9695ED
:104C7000879597F9089523DF880B990B0895EE0F18
:104C8000FF1F881F8BBF0790F691E02D19940F939B
:104C90001F93CF93DF938230910510F482E090E070
:104CA000E0911D07F0911E0720E030E0A0E0B0E0A9
:104CB000309719F1408151810281138148175907BA
:104CC000C8F08417950769F4109731F012960C9389
:104CD000129713961C9327C000931D0710931E076D
:104CE00022C02115310519F04217530718F49A0113
:104CF000BD01EF01DF01F801DBCF21153105F9F02E
:104D0000281B390B2430310580F48A819B81611581
:104D1000710521F0FB019383828304C090931E07E9
:104D200080931D07FE01329644C0FE01E20FF31F7F
:104D30008193919322503109398328833AC020917D
:104D40001B0730911C07232B41F420910202309164
:104D5000030230931C0720931B072091000230911F
:104D600001022115310541F42DB73EB740910402EF
:104D700050910502241B350BE0911B07F0911C0795
:104D8000E217F307A0F42E1B3F0B2817390778F022
:104D9000AC014E5F5F4F2417350748F04E0F5F1F81
:104DA00050931C0740931B078193919302C0E0E04E
:104DB000F0E0CF01DF91CF911F910F910895CF9334
:104DC000DF93009709F481C0FC01329713821282AD
:104DD000A0911D07B0911E07109781F420813181A9
:104DE000820F931F20911B0730911C07281739074A
:104DF00051F5F0931C07E0931B0767C0ED0120E01D
:104E000030E0CE17DF0740F44A815B819E014115F7
:104E10005105F1F0EA01F5CFD383C283408151817E
:104E2000840F951FC817D90759F488819981840F79
:104E3000951F0296918380838A819B8193838283CD
:104E40002115310529F4F0931E07E0931D073DC09D
:104E5000E901FB83EA8349915991C40FD51FEC17EF
:104E6000FD0761F480819181840F951F0296E9010D
:104E700099838883828193819B838A83E0E0F0E039
:104E800012968D919C911397009719F0FD01DC010A
:104E9000F7CF8D919C9111979D012E5F3F4F820F0F
:104EA000931F20911B0730911C072817390769F4BD
:104EB000309729F410921E0710921D0702C013822A
:104EC0001282B0931C07A0931B07DF91CF91089526
:104ED00081E090E0F89409C0FB01DC0102C0019080
:104EE0000D9241505040D8F7089511E0C5E3D1E04C
:104EF00000E005C0802FFE01C2DE2196011DC633F1
:0C4F0000D10780E00807B1F7F894FFCF5C
:104F0C0000001F0780000000C84200007A44000027
:104F1C000020410102030405060F100000000045AB
:104F2C000F980EC20E910FF30ED10EE50E0000007D
:104F3C000067103B1096100F1033101F1010102C20
:104F4C0020000D0A006E616E00696E66006F766659
:024F5C00000053
:00000001FF
