:1000000003C1000032C1000030C100002EC1000059
:100010002CC100002AC1000028C1000026C1000038
:1000200024C100000C94521C0C94521C0C94521CC1
:100030001CC100001AC1000018C1000016C1000058
:1000400014C1000012C1000010C100000EC1000068
:100050000CC100000AC1000008C100000C949819EE
:1000600004C100000C94061B0C94DC1AFEC00000B6
:10007000FCC00000FAC00000F8C00000F6C000009C
:10008000F4C00000F2C00000F0C00000EEC00000AC
:100090000C94B21A0C94881AE8C000000C94301B1F
:1000A000E4C00000E2C00000E0C00000DEC00000CC
:1000B000DCC00000DAC00000D8C00000D6C00000DC
:1000C000D4C00000D2C00000D0C000000C945E1A62
:1000D0000C94341ACAC000000C940A1A0C94E0194B
:1000E000C4C0000000002100240027002A002D00C9
:1000F0003000330001010000040107010A01000083
:100100002200250028002B002E00310034000201BF
:100110000000050108010B0100002000230026005B
:1001200029002C002F00320000010000030106010D
:10013000090105050505070508080808020202026D
:100140000A0A080804040404010101010101010173
:100150000303030303030303040707070C0C0C0C3E
:100160000C0C0C0C02020202060606060606060627
:100170000B0B0B0B0B0B0B0B0102102020080810B4
:100180002040102040800201020108040201010207
:1001900004081020408080402010080402018004E0
:1001A000020180402010080402010804020101023B
:1001B0000408102040800102040810204080000044
:1001C0000A0B02090C0D0E080703040100000000D1
:1001D000000000000000000000000000000000001F
:1001E00000000000000000000000121110000000DC
:1001F00000000000000000000000000000000000FF
:1002000000000000531CE62911241FBECFEFD1E2ED
:10021000DEBFCDBF00E00CBF27E0A8E8B2E001C020
:100220001D92A731B207E1F712E0A0E0B2E0EAEBDD
:10023000FBE500E00BBF02C007900D92A838B107A4
:10024000D9F711E0C3E0D1E000E006C02197010931
:10025000802FFE010E94EB29C230D10780E0080701
:10026000A9F70E94281D0C94BA2DCACE982F61328E
:1002700008F049C0809107048111FCCF22E020934F
:100280000704409306042FEF209305041092040402
:100290006093030448E054E0A3EEB3E0FA012E2F8C
:1002A000241B261758F11092E2032091E203990FC4
:1002B000922B9093E2039091E103913011F510920B
:1002C000E1039091E2039093BB009091BC0093FDF9
:1002D000F8CF95EC9093BC00909107049230E1F335
:1002E000909105049F3FA1F080910504803269F050
:1002F00080910504803359F084E0089521912D9375
:10030000CECF95EEE7CF81E0089582E0089583E0B7
:100310000895482F6091E0038091DF03A7DF1092DA
:10032000DE031092E0031092DD030895CF92DF9276
:10033000EF92FF92CF93DF93EC016A017B01E88992
:10034000F98982E08083C11481EED806E104F104CA
:10035000A1F060E079E08DE390E0A70196010E94B2
:10036000262B21503109410951095695479537955A
:100370002795211580E1380798F0E889F9891082DE
:1003800060E874E88EE190E0A70196010E94262BB8
:1003900021503109410951095695479537952795BF
:1003A000EC85FD853083EE85FF852083188EEC89F2
:1003B000FD8986E08083EA89FB8980818061808372
:1003C000EA89FB89808188608083EA89FB89808152
:1003D00080688083EA89FB8980818F7D8083DF91BB
:1003E000CF91FF90EF90DF90CF900895382FEAEBF8
:1003F000F6E020E08FEF9FEF231791F041918427E3
:1004000048E0BC016170772796958795672B21F0AE
:1004100051E0852750EA9527415099F72F5FECCF9F
:100420009827892798270895CF92DF92EF92FF921D
:100430000F931F93CF93DF9300D000D000D00F9283
:10044000CDB7DEB789879A877A018B0120E030E04B
:10045000A901E982FA826B831C8369817A818B818D
:100460009C810E94AD2B18160CF076C0A985BA8528
:10047000D2961D921D921D921C92D597C701D8014C
:10048000E985FA8586AB97ABA0AFB1AF82AD882383
:1004900009F462C0C68CD78CD6018D919D910D90C8
:1004A000BC91A02D8D839E83AF83B8879C01AD0145
:1004B00069817A818B819C810E94AD2B87FF2AC044
:1004C000C701D801F60180839183A283B383A985F4
:1004D000BA8596968D919D910D90BC91A02D8983A2
:1004E0009A83AB83BC83E985FA85C6A8D7A8E0AC1C
:1004F000F1ACA7019601BC01CD010E944F2D181649
:10050000DCF4A985BA859696CD92DD92ED92FC92A7
:10051000999722C020E030E0A9016D817E818F8112
:1005200098850E94AD2B87FFD2CFD6011D921D92D8
:100530001D921C921397CBCFE985FA85C2A8D3A848
:10054000E4A8F5A8A701960169817A818B819C8135
:100550000E94AD2B87FDD5CF2A960FB6F894DEBF4B
:100560000FBECDBFDF91CF911F910F91FF90EF9004
:10057000DF90CF900895982F862F209107042111A6
:10058000FCCF21E020930704209306043FEF309333
:10059000050410920404380F309303042093E203FF
:1005A0002091E203990F922B9093E2039091E10343
:1005B000913009F51092E1039091E2039093BB0012
:1005C0009091BC0093FDF8CF95EC9093BC00909176
:1005D00007049130E1F390910404981710F480918E
:1005E000040423EE33E0ADEBB3E0F9019E2F921B40
:1005F000981718F0089595EEE8CF91919D93F6CF56
:1006000087E093E09093BA038093B9030895089527
:100610008FE093E09093B8038093B7030895089513
:100620008150823108F048C0E82FF0E08827E55378
:10063000F24D8F4F0C94EB29809180008F7780933F
:1006400080000895809180008F7DF9CF8091800097
:10065000877FF5CF84B58F7784BD089584B58F7D6E
:10066000FBCF8091B0008F778093B0000895809188
:10067000B0008F7DF9CF809190008F7780939000AC
:100680000895809190008F7DF9CF80919000877FB1
:10069000F5CF8091A0008F778093A000089580917E
:1006A000A0008F7DF9CF8091A000877FF5CF80914A
:1006B00020018F77809320010895809120018F7D04
:1006C000F9CF80912001877FF5CFCF93DF93282F3B
:1006D00030E0F901E254FE4F8491F901E858FE4FF1
:1006E000D491F901EE5CFE4FC491CC2399F08111B5
:1006F00097DFEC2FF0E0EE0FFF1FE85EFE4FA591B5
:10070000B491EC91ED2381E090E009F480E0DF9179
:10071000CF91089580E090E0FACF1F93CF93DF93BD
:10072000162F282F30E0F901E254FE4F8491F90191
:10073000E858FE4FD491F901EE5CFE4FC491CC23F2
:1007400099F081116DDFEC2FF0E0EE0FFF1FE2500A
:10075000FF4FA591B4918FB7F894EC91111108C097
:10076000D095DE23DC938FBFDF91CF911F91089549
:10077000DE2BF8CFCF93DF9390E0FC01E858FE4FDB
:1007800024918E5C9E4FFC0184918823D1F090E0EF
:10079000880F991FFC01EC51FF4FA591B491FC010A
:1007A000E250FF4FC591D49161110EC09FB7F894EC
:1007B0008C91E22FE0958E238C932881E223E883AD
:1007C0009FBFDF91CF9108958FB7F894EC91E22B02
:1007D000EC938FBFF6CF789484B5826084BD84B5E6
:1007E000816084BD85B5826085BD85B5816085BD2C
:1007F000EEE6F0E0808181608083E1E8F0E0108245
:10080000808182608083808181608083E0E8F0E085
:10081000808181608083E1EBF0E08081846080836F
:10082000E0EBF0E0808181608083E1E9F0E08081AD
:1008300082608083808181608083E0E9F0E0808154
:1008400081608083E1EAF0E0808182608083808142
:1008500081608083E0EAF0E0808181608083E1E272
:10086000F1E0808182608083808181608083E0E22A
:10087000F1E0808181608083EAE7F0E0808184603C
:100880008083808182608083808181608083808199
:10089000806880831092C1000895CF93DF9300D0C9
:1008A0000F92CDB7DEB73FB7F8948091B303909124
:1008B000B403A091B503B091B60326B5A89B05C0BB
:1008C0002F3F19F00196A11DB11D3FBFBA2FA92FCF
:1008D000982F8827820F911DA11DB11D9C01AD018C
:1008E00062E0220F331F441F551F6A95D1F7CA01DA
:1008F000B9010F900F900F900F90DF91CF91089555
:100900008F929F92AF92BF92CF92DF92EF92FF921F
:10091000CF93DF9300D00F92CDB7DEB74B015C01D0
:10092000BCDF6B017C01B9DFDC01CB018C199D09B7
:10093000AE09BF09883E9340A105B105A0F321E0AF
:10094000821A9108A108B10888EEC80E83E0D81E6B
:10095000E11CF11C81149104A104B10421F70F9052
:100960000F900F900F90DF91CF91FF90EF90DF905D
:10097000CF90BF90AF909F908F900895CF93DF93CB
:1009800000D00F92CDB7DEB78FB7F8942091AF03A8
:100990003091B0034091B1035091B20329833A835F
:1009A0004B835C838FBF69817A818B819C810F909F
:1009B0000F900F900F90DF91CF910895CF93DF9319
:1009C00000D00F92CDB7DEB72091FA062983822F8F
:1009D0000DDD3981E32FF0E0EF54F94F9187E32FDC
:1009E000EF5FF0E0EF54F94F81873E5F3093FA06F6
:1009F0009091B7068091B6069230C0F0823009F42B
:100A000082C0833009F485C0813009F088C090919C
:100A1000C80090649093C8009091050190649093F1
:100A20000501909105019062909305014091FA06AD
:100A300050E0843008F079C08091B1069091B20600
:100A4000DC01ED91FC910280F381E02D6AEB76E010
:100A500019959091B7068091B6069230B8F0823021
:100A600009F468C0833009F46AC0813009F06CC0B1
:100A70009091C80096FFFCCF909105019F7B9093C9
:100A80000501909105019F7D90930501843008F048
:100A900060C08091B1069091B206DC01ED91FC91AD
:100AA0000284F385E02D199597FFF3CF1092FA0693
:100AB00065DF69837A838B839C838091040790919F
:100AC000050729813A814B815C81280F391F411D1F
:100AD000511DDA01C90180930A0790930B07A09377
:100AE0000C07B0930D0780910007909101070196C4
:100AF00090930107809300070F900F900F900F9035
:100B0000DF91CF9108959091D00090649093D000A0
:100B100083CF909130019064909330017DCF90917C
:100B2000C00090649093C00077CF8091B3069091FD
:100B3000B40686CF9091D00096FFFCCF9DCF9091C8
:100B4000300196FFFCCF98CF9091C00096FFFCCF6C
:100B500093CF8091B3069091B406DC01ED91FC91A6
:100B60000284F385E02D199597FFF3CF9FCFCF92A5
:100B7000DF92EF92FF920F931F93CF93DF937C014D
:100B80006A0110E000E00C151D0581F0EB01D701B2
:100B9000ED91FC910190F081E02D6991C7011995CB
:100BA000892B21F00F5F1F4FBE01EDCFC801DF91F0
:100BB000CF911F910F91FF90EF90DF90CF9008950C
:100BC000FC01A089B1898C91A689B78982FD0FC0EB
:100BD0009C91818D8F5F8F73228D821749F0A18D3B
:100BE000AE0FBF2FB11D5D969C93818F08958C91A0
:100BF0000895FC01538D448D252F30E0842F90E023
:100C0000821B930B541710F0CF9608950197089507
:100C1000FC01918D828D981761F0A28DAE0FBF2FD0
:100C2000B11D5D968C91928D9F5F9F73928F90E026
:100C300008958FEF9FEF0895FC01918D828D981795
:100C400031F0828DE80FF11D858D90E008958FEFD2
:100C50009FEF0895FC01818D228D90E0805C9F4F75
:100C6000821B91098F739927089588E294E0F2DF3F
:100C70009C0181E0232B09F480E0089585EC94E049
:100C8000E9DF9C0181E0232B09F480E0089582E6EE
:100C900095E0E0DF9C0181E0232B09F480E00895DA
:100CA0008FEF95E0D7DF9C0181E0232B09F480E0F2
:100CB0000895FC01A48DA80FB92FB11DA35ABF4FF1
:100CC0002C91848D90E001968F739927848FA6894B
:100CD000B7892C93A089B1898C91837080648C939F
:100CE000938D848D981306C00288F389E02D80814E
:100CF0008F7D80830895EF92FF920F931F93CF9380
:100D0000DF93EC01F62E81E0888F9B8D8C8D9813FC
:100D10001AC0E889F989808185FF15C09FB7F894CA
:100D2000EE89FF896083E889F98980818370806416
:100D300080839FBF81E090E0DF91CF911F910F9161
:100D4000FF90EF9008950B8D10E00F5F1F4F0F7312
:100D50001127E02E8C8D8E110BC00FB607FCFACF39
:100D6000E889F989808185FFF5CFCE01A2DFF2CF36
:100D7000EB8DEC0FFD2FF11DE35AFF4FF0829FB773
:100D8000F8940B8FEA89FB8980818062D1CFCF9361
:100D9000DF93EC01888D8823B1F0AA89BB89E889AB
:100DA000F9898C9185FD03C0808186FD0CC00FB64A
:100DB00007FCF7CF8C9185FFF2CF808185FFEDCFC7
:100DC000CE0177DFEACFDF91CF91089580E090E008
:100DD000892B21F065DF81110E94000080E090E006
:100DE000892B21F054DF81110E94000080E090E007
:100DF000892B21F043DF81110E94000080E090E008
:100E0000892B21F032DF81110C940000089585EDCB
:100E10008093BC008091BC0084FDFCCF109207043D
:100E200008952091AE02260F3327331F213231055A
:100E3000ECF420910704FC0190E080E0243069F09C
:100E400082E00895A091AE022191AC0142575D4F1E
:100E5000A40FB52FB11D2C930196861798F380919E
:100E6000AE02680F6093AE0280E0089581E00895BD
:100E70001092070481E0809306041092E10361E080
:100E800084E14BDC61E085E148DCE9EBF0E0808166
:100E90008E7F808380818D7F808388E48093B800FB
:100EA00085E48093BC0008951092BC031092BB03AC
:100EB0001092DE031092E003DBDFAADBA1CB0895E2
:100EC000E091BC038091BB03E81730F4F0E0E354F9
:100ED000FC4F808190E008958FEF9FEF08959091EF
:100EE000BC038091BB032FEF3FEF981748F4E92F25
:100EF000F0E0E354FC4F208130E09F5F9093BC030F
:100F0000C90108958091BB039091BC03891B990B83
:100F10000895CF92DF92EF92FF920F931F93CF939A
:100F2000DF937C01CB018A012091DD03222389F02C
:100F3000EB016B01C40ED51ECC15DD0561F0699186
:100F4000D701ED91FC910190F081E02DC701199539
:100F5000F3CF642F66DFC801DF91CF911F910F910E
:100F6000FF90EF90DF90CF900895CF93DF930F9293
:100F7000CDB7DEB7FC0169838091DD038823F1F0F2
:100F80008091E003803250F081E090E0938382838F
:100F900090E080E00F90DF91CF9108958091DE0383
:100FA000E82FF0E0E85FFB4F998190838F5F80939B
:100FB000DE038093E00381E090E0ECCF61E0CE01BE
:100FC00001962FDFF8CF81E0A4C91F93CF93DF9361
:100FD000982F162FCEEAD6E0A981BA81888121E028
:100FE0002093DD038093DF031092DE031092E00371
:100FF000ED91FC9111970190F081E02D692FCD01C9
:10100000199589819A81DC01ED91FC910190F08123
:10101000E02D612F199589819A81DF91CF911F91E0
:10102000D2CFDC01ED91FC910190F081E02D19947B
:101030000F931F93CF93DF93EC018A0189819A81EB
:10104000288131E03093DD032093DF031092DE032B
:101050001092E00324E0629FB00111246A5F7F4F89
:10106000DC01ED91FC910190F081E02D199570E08B
:1010700060E089819A81D5DF70E060E089819A81A2
:10108000D0DFB80189819A81CCDF612F70E089813E
:101090009A81C7DF89819A81DF91CF911F910F914A
:1010A00092CF1F93CF93DF93EC01162F80910F0700
:1010B00091E09093DD038093DF031092DE031092A2
:1010C000E0036D2F70E08CE996E0ABDFBE0177277F
:1010D0008CE996E0A6DF612F8CE996E046DF8CE98B
:1010E00096E0DF91CF911F916ECF0F931F93CF9317
:1010F000DF93EC010FE017E0F801808191E090931D
:10110000DD038093DF031092DE031092E0036D2F66
:1011100070E08CE996E085DFBE0177278CE996E0E8
:1011200080DF8CE996E04FDF61E0F801808123DA0F
:101130001092BC038093BB038CE996E0D0DEDF9174
:10114000CF911F910F9108952F923F924F925F92EE
:101150006F927F928F929F92AF92BF92CF92DF92C7
:10116000EF92FF920F931F93CF93DF93CDB7DEB72C
:1011700062970FB6F894DEBF0FBECDBF8D839E83FE
:101180003A014B012901C501AD81BE815B96BC923C
:10119000AE925A9721E0019709F020E0ED81FE819F
:1011A00023AFC301D40180839183A283B383C80199
:1011B000D20184839583A683B783C601D701808734
:1011C0009187A287B38766A577A580A991A90E9478
:1011D0004A2C20E030E04AE754E469837A838B8329
:1011E0009C8369817A818B819C810E94B12B1B0138
:1011F0005C01C301D401ED81FE8184879587A687B8
:10120000B7879101A50109831A834B825C826981AA
:101210007A818B819C810E94532D2B018C01CB0103
:10122000D801ED81FE81808B918BA28BB38B9101D4
:10123000A501C982DA82EB82FC8269817A818B8185
:101240009C810E94B12B6B017C01CB01D701ED8108
:10125000FE81848B958BA68BB78B808D918D0197AA
:1012600099F59301A40160E070E0CB010E94482B46
:101270006F83788789879A87AD81BE811C966D932D
:101280007D938D939C931F979201A80160E070E07D
:10129000CB010E94482B6B877C878D879E87ED81D1
:1012A000FE81608B718B828B938B9601A70160E02E
:1012B00070E0CB010E94482BAD81BE8154966D93A6
:1012C0007D938D939C93579762960FB6F894DEBFEB
:1012D0000FBECDBFDF91CF911F910F91FF90EF9087
:1012E000DF90CF90BF90AF909F908F907F906F9046
:1012F0005F904F903F902F90089590E080E0089588
:101300008F929F92AF92BF92CF92DF92EF92FF9215
:101310000F931F93CF93DF9300D000D00F92CDB7E0
:10132000DEB780918603909187039C0150E040E0F6
:1013300029833A834B835C83CA01B9010E944A2CFA
:1013400020E030E040E251E469837A838B839C8320
:1013500069817A818B819C810E94B12B6B018F8383
:101360009D8380918203909183039C0150E040E033
:1013700029833A834B835C83CA01B9010E944A2CBA
:1013800020E030E048EC52E469837A838B839C83CD
:1013900069817A818B819C810E94B12B9B01AC0178
:1013A00060E070E080E89FE30E94482B7B018C01A5
:1013B00080918403909185039C0150E040E0298353
:1013C0003A834B835C83CA01B9010E944A2C20E016
:1013D00030E040E251E469837A838B839C836981A6
:1013E0007A818B819C810E94B12B9B01AC01C982C7
:1013F000DA828F818B839D819C8369817A818B8145
:101400009C810E94482B9B01AC01E982FA820B83EC
:101410001C8369817A818B819C810E94B12B20E0A1
:1014200030E040E855E469837A838B839C8369814B
:101430007A818B819C810E94532D7B018C019B01C1
:10144000AC01C982DA828F818B839D819C83698103
:101450007A818B819C810E94532D9B01AC0160E0BD
:1014600070E080E895E40E94482B4B016C01E0910C
:10147000AC06F091AD06A080B180F501EF5AFF4FA8
:101480002081318142815381E982FA820B831C835E
:1014900069817A818B819C810E94532D9401A601E0
:1014A00069837A838B839C8369817A818B819C8118
:1014B0000E94492B462F572FBC01C5010E941402E0
:1014C000E091AC06F091AD06228133813E832D83FD
:1014D000F901EF5AFF4F2081318142815381E98226
:1014E000FA820B831C8369817A818B819C810E94A3
:1014F000532D9401A60169837A838B839C83698130
:101500007A818B819C810E94492B462F572FBC01E9
:101510008D819E8127960FB6F894DEBF0FBECDBF9A
:10152000DF91CF911F910F91FF90EF90DF90CF90BF
:10153000BF90AF909F908F900C941402CF93DF9345
:1015400000D00F92CDB7DEB719DA0E944A2C20E006
:1015500030E04AE754E469837A838B839C83698112
:101560007A818B819C810E94B12B69837A838B83E2
:101570009C8369817A818B819C810F900F900F9061
:101580000F90DF91CF9108951F93CF93DF93EC01DC
:10159000ACDD182FCE010196A8DD90E0982F8827AA
:1015A000810F911DDF91CF911F9108950F931F938C
:1015B000CF93DF9304ED12E0D0E0C0E0CE01E4DF92
:1015C000F801819391938F012496C431D105B1F72D
:1015D0000EED12E0CE01D8DFF801819391938F01D7
:1015E0002496C832D105B1F708EE12E0CE01CCDF67
:1015F000F801819391938F012496CC33D105B1F7F3
:101600008CE390E0C1DF909347038093460380E42E
:1016100090E0BADF909349038093480384E490E01C
:10162000B3DF909355038093540388E490E0ACDFDC
:1016300090935703809356038CE490E0A5DF90933A
:1016400083038093820380E590E09EDF909385037F
:101650008093840384E590E097DF909387038093E1
:10166000860388E590E090DF9093590380935803B8
:1016700008E813E0CCE5D0E0CE0186DFF8018193E5
:1016800091938F012496C037D105B1F702E913E099
:10169000CE017ADFF801819391938F012496C438AB
:1016A000D105B1F7DF91CF911F910F9108950F935D
:1016B0001F93CF93DF9302EF12E0C8EED3E0CE0189
:1016C00063DFF801819391938F012496C115F4E0B3
:1016D000DF07A9F70EEF12E0C0EDD7E0CE0154DF2F
:1016E000F801819391938F012496C83EF7E0DF07BC
:1016F000A9F7DF91CF911F910F9108950F931F9339
:10170000CF93DF938C01EB01CB013EDF8017910774
:1017100069F0602FCE01C5DC612FCE010196C1DCDE
:1017200081E0DF91CF911F910F91089580E0F9CF73
:101730000F931F93CF93DF9304ED12E0D0E0C0E04E
:10174000BE01F801819191918F01D8DF2496C431B7
:10175000D105B1F70EED12E0BE01F8018191919132
:101760008F01CCDF2496C832D105B1F708EE12E024
:10177000BE01F801819191918F01C0DF2496CC3395
:10178000D105B1F76CE370E0809146039091470377
:10179000B5DF60E470E08091480390914903AEDFCB
:1017A00064E470E08091540390915503A7DF68E4EE
:1017B00070E08091560390915703A0DF6CE470E0D5
:1017C000809182039091830399DF60E570E08091BE
:1017D00084039091850392DF64E570E08091860335
:1017E000909187038BDF68E570E0809158039091BA
:1017F000590384DF08E813E0CCE5D0E0BE01F8012E
:10180000819191918F017ADF2496C037D105B1F78C
:1018100002E913E0BE01F801819191918F016EDF21
:101820002496C438D105B1F7DF91CF911F910F9164
:1018300008950F931F93CF93DF9302EF12E0C8EE4A
:10184000D3E0BE01F801819191918F0157DF249679
:10185000C115F4E0DF07A9F70EEF12E0C0EDD7E005
:10186000BE01F801819191918F0148DF2496C83E15
:10187000F7E0DF07A9F7DF91CF911F910F9108954E
:10188000EF92FF920F931F93CF93DF9300D000D07E
:10189000CDB7DEB78D839E837A018B01ED81FE810A
:1018A000E35BFF4F80819181A281B38189839A8319
:1018B000AB83BC839A01AB01BC01CD010E94AD2B6F
:1018C000AD81BE81A258BF4FBE83AD8387FF0BC0E1
:1018D00089819A81AB81BC81ED81FE818083918376
:1018E000A283B38316C020E030E0A901E982FA8226
:1018F0000B831C8369817A818B819C810E94AD2B33
:1019000087FF14C0AD81BE811D921D921D921C9255
:10191000139726960FB6F894DEBF0FBECDBFDF91AA
:10192000CF911F910F91FF90EF900895C701D801BB
:10193000D3CFCF92DF92EF92FF920F931F93CF936B
:10194000DF93EC01062F88818F3F81F46EBD00008C
:101950000DB407FEFDCF1EB5812FDF91CF911F91F2
:101960000F91FF90EF90DF90CF90089510E087E007
:10197000E82EF12CCC24C394D12C110F61E0888186
:101980000E948D03B6010E2C01C0660F0A94EAF77F
:1019900060238A810E948D0360E088810E948D030C
:1019A00089810E946503892B09F0116081E0E81AA2
:1019B000F10818F7D1CF08958CBD9DBD08951F93F0
:1019C000CF93DF93EC01162F88818F3FB1F4809184
:1019D000110790911207F0DF60E08B810E948D0368
:1019E00060E8CE01A6DF612FCE01A3DF61E08B812D
:1019F000DF91CF911F910C948D0360E00E948D03C5
:101A0000EBCFEF92FF920F931F93CF93DF93EC01F5
:101A1000062F7A01122F88818F3FA9F48091110738
:101A200090911207C9DF60E08B810E948D03602FC7
:101A3000CE017FDF115058F06FEFCE017ADFF70152
:101A400081937F01F7CF60E00E948D03ECCF61E0CE
:101A50008B81DF91CF911F910F91FF90EF900C94AC
:101A60008D03CF93DF930F92CDB7DEB7198221E0BC
:101A7000AE014F5F5F4F60E0C4DF89810F90DF915F
:101A8000CF9108951F93CF93DF93D82FC92F162F8F
:101A9000E8DF682F112339F060648D2F9C2FDF91D0
:101AA000CF911F918CCF6F7BF8CFCF93DF93D82F3F
:101AB000C92FD7DF682F637D62608D2F9C2FDF9148
:101AC000CF917DCF4F925F926F927F928F929F9234
:101AD000AF92BF92CF92DF92EF92FF920F931F933C
:101AE000CF93DF9300D000D000D00F92CDB7DEB7F8
:101AF0008C01FC01E358FF4F808198012F5A3F4F22
:101B00005901882309F4B0C00E94BE046B01D501BD
:101B10008D919D910D90BC91A02D8F839887A98761
:101B2000BA87F801EB5AFF4F2DEC3CEC4CE45DE337
:101B300060817181828193810E94532D2B013C0130
:101B40004801B9E58B0E911C20E030E040EB51E4F8
:101B50006F81788589859A850E94482BF4012081C0
:101B60003181428153816B837C838D839E836B8122
:101B70007C818D819E810E94532D9B01AC014B8203
:101B80005C826D827E826B817C818D819E810E94D0
:101B9000482BF801E35AFF4F208131814281538164
:101BA0006B837C838D839E836B817C818D819E8101
:101BB0000E94B12B3B014C010F591F4FD8018D9151
:101BC0009C91C81AD90A9601DD0C440B550B2B8346
:101BD0003C834D835E83CA01B9010E944C2C9B015A
:101BE000AC016B827C828D829E826B817C818D8137
:101BF0009E810E94532D2F81388549855A856B839C
:101C00007C838D839E836B817C818D819E810E94EC
:101C1000492BD5016D937D938D939C9313970E94CF
:101C2000BE04F8016083718382839383D5012D9173
:101C30003D914D915C91CA01B9012A960FB6F89475
:101C4000DEBF0FBECDBFDF91CF911F910F91FF90EF
:101C5000EF90DF90CF90BF90AF909F908F907F904C
:101C60006F905F904F9008957801FCE3EF0EF11CA8
:101C7000C7011BDF61E0C70105DF1A82198222E07C
:101C8000AE014F5F5F4F61E0C701BBDE89819A8182
:101C9000982789279827969587959C0150E040E0E2
:101CA0002B833C834D835E83CA01B9010E944A2C79
:101CB00020E030E040E058E36B837C838D839E839B
:101CC0006B817C818D819E810E94532DF801E758A4
:101CD000FF4F20813181428153816B837C838D83CF
:101CE0009E836B817C818D819E810E94532DF801A2
:101CF000EF58FF4F20813181428153816B837C8378
:101D00008D839E836B817C818D819E810E94532D6A
:101D1000F801EB58FF4F20813181428153816B8361
:101D20007C838D839E836B817C818D819E810E94CB
:101D3000492BD5016D937D938D939C93139776CF0B
:101D40002F923F924F925F926F927F928F929F92CB
:101D5000AF92BF92CF92DF92EF92FF920F931F93B9
:101D6000CF93DF93CDB7DEB765970FB6F894DEBF9C
:101D70000FBECDBFD12CC12CE091AC06F091AD06C9
:101D8000EC0DFD1D80819181998B888BDC01DA96A9
:101D90008C91DA97811145C05E96ED91FC9180811E
:101DA0009181A281B38189839A83AB83BC83E889C3
:101DB000F98986A397A3A0A7B1A7048CF58DE02D80
:101DC00080819181A281B381E889F98982A793A753
:101DD000A4A7B5A786A897A8A0ACB1ACA50194010B
:101DE00069817A818B819C810E944F2D18164CF459
:101DF000A889B98996968D929D92AD92BC92999739
:101E000010C0E889F98982A893A8A4A8B5A8A5015B
:101E1000940169817A818B819C810E94AD2B87FD21
:101E2000E7CF81E0E889F98982AFCF014BDEA8894D
:101E3000B989DA968C91882309F44EC10E94BE04B8
:101E40004B015C01E889F98982A193A1A4A1B5A104
:101E5000B501A401481B590B6A0B7B0B86A597A5FE
:101E6000A0A9B1A9481759076A077B0708F434C12C
:101E7000048CF58DE02D80819181A281B3818D83C9
:101E80009E83AF83B887A889B9899096ED91FC911C
:101E90002D813E814F81588560817181828193813E
:101EA0000E94482B362E79878A879B87E889F98993
:101EB00022A533A544A555A56D817E818F81988586
:101EC0000E94482B6C877D878E879F87A889B98958
:101ED00050962D913D914D915C9153973982B985E2
:101EE000BA83EA85EB83FB85FC8369817A818B81E8
:101EF0009C810E94532DA889B98996962D913D9178
:101F00004D915C91999769837A838B839C836981D6
:101F10007A818B819C810E94492B7B018C01CB01B2
:101F2000D801E889F98986A397A3A0A7B1A723AC14
:101F3000211028C02485358546855785FC85F98381
:101F40008D858A839E859B83AF85AC8369817A81E9
:101F50008B819C810E94532D9B01AC01E982FA8206
:101F60000B831C8369817A818B819C810E94482B21
:101F70006A8B7B8B8C8B9D8BE889F98966A377A311
:101F800080A791A7A889B98996968D919D910D906A
:101F9000BC91A02D89839A83AB83BC83E889F9899E
:101FA000E6A8F7A800AD11AD9701A801BC01CD01CD
:101FB0000E944F2D18160CF0CDC0C701D801E8893A
:101FC000F98986A397A3A0A7B1A7222009F4DBC0B3
:101FD000A889B9891C962D913D914D915C911F97CF
:101FE0003982B985BA83EA85EB83FB85FC836981F5
:101FF0007A818B819C810E94532D2B013C01A88901
:10200000B98954962D913D914D915C915797BC851E
:10201000B983ED85EA83FE85FB838F858C83698197
:102020007A818B819C810E94532D9B01AC01A889F0
:10203000B98996966D917D918D919C9199970E9409
:10204000482B9201A30169837A838B839C836981E6
:102050007A818B819C810E94492B2B013C019B0141
:10206000AC01E982FA820B831C8369817A818B81BE
:102070009C810E94AD2B87FD16C0E889F989E2A8F2
:10208000F3A804A915A99701A80149825A826B8275
:102090007C8269817A818B819C810E94AD2B87FD36
:1020A00002C072018301A889B9895E96ED91FC9105
:1020B000C701D80180839183A283B3838D819E81E0
:1020C000AF81B885E889F98982A793A7A4A7B5A7A6
:1020D00082A293A2A4A2B5A2E889F989E358FF4F8E
:1020E0008081811116C0E889F989EB5AFF4F608120
:1020F0007181828193810E941E2CE889F989ED5BB0
:10210000FF4FAB01608188899989805C9F4F0E9455
:102110001808B2E0CB0ED11CE4E0CE16D10409F0D1
:102120002BCE65960FB6F894DEBF0FBECDBFDF9104
:10213000CF911F910F91FF90EF90DF90CF90BF90C4
:10214000AF909F908F907F906F905F904F903F9057
:102150002F900895A889B989D2964D905D906D9081
:102160007C90D597A301920169817A818B819C81B2
:102170000E94AD2B87FF29CFE889F98946A257A293
:1021800060A671A622CF412C512C612C712C37CF27
:1021900010925D0310925C03E091AC06F091AD06E5
:1021A00080819181FC0112AEEB5AFF4F10821182A7
:1021B00012821382B8962081211108C0FA9750E04C
:1021C00040E06081805C9F4F0E941808E091AC065F
:1021D000F091AD0682819381FC0112AEEB5AFF4F64
:1021E0001082118212821382B8962081211108C0B8
:1021F000FA9750E040E06081805C9F4F0C94180893
:102200000895BC01009791F0FC0101900020E9F7CE
:102210003197AF01481B590BE091FF05F091000683
:102220000280F381E02D8FEF95E0199490E080E03B
:1022300008954F925F926F927F928F929F92AF928A
:10224000BF92CF92DF92EF92FF920F931F93CF93A3
:10225000DF93CDB7DEB7A1970FB6F894DEBF0FBE00
:10226000CDBF762E672E582E492E19A2423008F483
:102270004AE08E010F5D1F4FC42ED12CF12CE12CB2
:10228000672D762D852D942DA70196010E94262B72
:10229000872C962CA52CB42C722E632E542E452EF2
:1022A0006A3014F5605DF80162938F018C149D040F
:1022B000AE04BF0428F7CF01A4DFA1960FB6F894AF
:1022C000DEBF0FBECDBFDF91CF911F910F91FF9069
:1022D000EF90DF90CF90BF90AF909F908F907F90C6
:1022E0006F905F904F900895695CDDCF9F92AF92A1
:1022F000BF92CF92DF92EF92FF920F931F93CF93F3
:10230000DF9300D000D000D00F92CDB7DEB78B01A5
:102310009C0109831A832B833C83142F29813A81E2
:102320004B815C81CA01B9010E94B62D8823A1F0BE
:1023300080E492E02A960FB6F894DEBF0FBECDBFC0
:10234000DF91CF911F910F91FF90EF90DF90CF9091
:10235000BF90AF909F9055CF89819A81AB81BC810E
:10236000BF778D839E83AF83B8872FEF3FEF4FE713
:102370005FE7BC01CD010E94B62D81110FC02FEF88
:102380003FEF4FE75FE76D817E818F8198850E94E7
:10239000AD2B18161CF484E492E0CCCF2FEF3FEF66
:1023A0004FE75FE469817A818B819C810E944F2D88
:1023B00018161CF488E492E0BDCF2FEF3FEF4FE7F3
:1023C0005FEC69817A818B819C810E94AD2B87FDB6
:1023D000F1CF20E030E0A90169817A818B819C8175
:1023E0000E94AD2B87FF2DC0E091FF05F091000604
:1023F0000190F081E02D6DE28FEF95E019958987CE
:102400009A8789819A81AB81BC81B05889839A83EC
:10241000AB83BC8300E060E070E080E09FE31017D6
:1024200099F020E030E040E251E46D837E838F83B9
:1024300098876D817E818F8198850E94B12B0F5F77
:10244000EECF1A861986E6CF29813A814B815C81CD
:1024500069837A838B839C8369817A818B819C8158
:102460000E94492B69837A838B839C8369817A815B
:102470008B819C810E941E2C6B017C010E944A2C46
:102480009B01AC0169817A818B819C810E94482BE0
:10249000962EA72EB82E092F4AE0B601C701C9DE35
:1024A000A985BA85A80FB91FBE83AD83112389F012
:1024B000E091FF05F09100060190F081E02D6EE2C1
:1024C0008FEF95E019952D813E81280F391F3E83AE
:1024D0002D83115008F44AC020E030E040E251E47E
:1024E0009982AA82BB820C8369817A818B819C81CB
:1024F0000E94532DD62EE72EF82E092F69837A835A
:102500008B839C8369817A818B819C810E941E2CA4
:1025100069837A838B839C83A981BA81CD01B0E0E2
:10252000A0E089839A83AB83BC834AE0BC01CD01E0
:1025300080DE2D813E81280F391F3E832D836981E6
:102540007A818B819C810E944A2C9B01AC01D982AB
:10255000EA82FB820C8369817A818B819C810E9453
:10256000482B962EA72EB82E092FB3CF8D819E8192
:102570002A960FB6F894DEBF0FBECDBFDF91CF9184
:102580001F910F91FF90EF90DF90CF90BF90AF9091
:102590009F9008952F923F924F925F926F927F92F9
:1025A0008F929F92AF92BF92CF92DF92EF92FF9263
:1025B0000F931F93CF93DF9300D000D000D00F92E2
:1025C000CDB7DEB784ED92E09093FD068093FC06D4
:1025D00087E680930E078091B606843008F013C317
:1025E0008091B1069091B206DC01ED91FC910084DE
:1025F000F185E02D19958823B1F09091FB0689179C
:1026000009F406C38093FB060E94BE04DC01CB01E3
:102610000596A11DB11D8093060790930707A0930F
:102620000807B09309070E949E0A20918802309102
:10263000890240918A0250918B0269837A838B834D
:102640009C8369817A818B819C810E94482B8B01BC
:102650008E839D8380915803909159036C01F12CD6
:10266000E12CC982DA82EB82FC82C701B6010E94AA
:102670004A2C20E030E040E251E469837A838B8386
:102680009C8369817A818B819C810E94B12B9B0103
:10269000AC0109831A83DE80DB82ED80EC826981E4
:1026A0007A818B819C810E944F2D87FD12C00E94F0
:1026B0009E0A609388027093890280938A029093A5
:1026C0008B0280915C0390915D03019711F0B1D86A
:1026D0002FD824ED32E03A872987712C612C230111
:1026E000440C551CE091AC06F091AD06E40DF51DCF
:1026F00080809180F401ED5BFF4F71826082A9853B
:10270000BA8592968D919C916C01F12CE12CC98235
:10271000DA82EB82FC82C701B6010E944A2C20E0DB
:1027200030E048EC52E469837A838B839C8369812F
:102730007A818B819C810E94B12B6D837E83182FBF
:10274000092FA985BA8590968D919C916C01F12CE9
:10275000E12CC982DA82EB82FC82C701B6010E94B9
:102760004A2C20E030E048EC52E469837A838B8382
:102770009C8369817A818B819C810E94B12B6F83BC
:10278000272E382E9887A985BA855E968D919C91C3
:102790006C01F12CE12CC982DA82EB82FC82C70148
:1027A000B6010E944A2C20E030E048EC52E46983F4
:1027B0007A838B839C8369817A818B819C810E943F
:1027C000B12BFB01D401AB59BF4FAB01BC014D9301
:1027D0005D936D937C93139714964F81522D632DC7
:1027E00078854D935D936D937C93139714964D81EB
:1027F0005E81612F702F4D935D936D937C93139742
:10280000D4015A96AD90BC906A01E12EF02E0F8152
:10281000122D232D3885AF01BC01C4010E94A408EC
:10282000E090AC06F090AD06F701E40DF51D0081D7
:1028300011815801B1E7AB0EB11CE985FA8584A17D
:1028400095A19C0150E040E029833A834B835C834F
:10285000CA01B9010E944A2C20E030E44CE156E460
:1028600069837A838B839C8369817A818B819C8144
:102870000E94B12BD5016D937D938D939C931397FB
:102880005801B5E7AB0EB11CE985FA8586A197A181
:102890009C0150E040E029833A834B835C83CA016A
:1028A000B9010E944A2C20E030E048EC52E46983F0
:1028B0007A838B839C8369817A818B819C810E943E
:1028C000B12BD5016D937D938D939C9313975801F4
:1028D000B9E7AB0EB11CE985FA8580A591A59C01ED
:1028E00050E040E029833A834B835C83CA01B901FD
:1028F0000E944A2CD5016D937D938D939C931397E1
:10290000035B1F4F80918603909187039C0150E0E9
:1029100040E029833A834B835C83CA01B9010E945A
:102920004A2C20E030E040E251E469837A838B83D3
:102930009C8369817A818B819C810E94B12BD80113
:102940006D937D938D939C931397E985FA853C96BF
:10295000FA87E9876A94672809F068C380915C0365
:1029600090915D03019759F0D7018D919C91AAD860
:10297000E091AC06F091AD0682819381A3D8C0901E
:10298000AC06D090AD06DA86C986D6010D911C91B1
:10299000F801EF5AFF4F20E030E040E251E460815F
:1029A0007181828193810E94532D69837A838B8305
:1029B0009C8369817A818B819C810E941E2C7093FB
:1029C000610360936003F6010280F381E02DFA87D2
:1029D000E987EF5AFF4F20E030E040E251E46081A8
:1029E0007181828193810E94532D69837A838B83C5
:1029F0009C8369817A818B819C810E941E2C7093BB
:102A0000630360936203F801EB5AFF4FD801A75BA1
:102A1000BF4F2D913D914D915C916081718182817B
:102A200093810E94B12B20E030E048EC52E46983AE
:102A30007A838B839C8369817A818B819C810E94BC
:102A4000532D20E030E040E251E469837A838B83A8
:102A50009C8369817A818B819C810E94532D69833B
:102A60007A838B839C8369817A818B819C810E948C
:102A70001E2C70936F0360936E03A985BA85AB5AC1
:102A8000BF4F29853A85275B3F4FF901208131816E
:102A9000428153816D917D918D919C910E94B12BCA
:102AA00020E030E048EC52E469837A838B839C8396
:102AB00069817A818B819C810E94532D20E030E0D6
:102AC00040E251E469837A838B839C8369817A81B4
:102AD0008B819C810E94532D69837A838B839C8395
:102AE00069817A818B819C810E941E2C7093710375
:102AF0006093700380914603909147036C01F12C21
:102B0000E12CC982DA82EB82FC82C701B6010E9405
:102B10004A2C20E030E040E251E469837A838B83E1
:102B20009C8369817A818B819C810E94B12B462F85
:102B3000572FBC01C8010E94400C8091480390911E
:102B400049039C0150E040E029833A834B835C8336
:102B5000CA01B9010E944A2C20E030E040E251E471
:102B600069837A838B839C8369817A818B819C8141
:102B70000E94B12BE091AC06F091AD06462F572F85
:102B8000BC01828193810E94400C86E30E94650310
:102B9000892B09F44FC281E090E090939D038093CC
:102BA0009C0361E08BE10E948D0380919E039091D4
:102BB0009F0361E0019709F060E08BE00E948D03C4
:102BC0008091A0039091A10361E0019709F060E07A
:102BD00089E12A960FB6F894DEBF0FBECDBFDF9114
:102BE000CF911F910F91FF90EF90DF90CF90BF900A
:102BF000AF909F908F907F906F905F904F903F909D
:102C00002F900C948D038091B3069091B406ECCC78
:102C10000E94BE0469837A838B839C83809106071C
:102C200090910707A0910807B0910907C980DA8041
:102C3000EB80FC80C816D906EA06FB0608F4F3CC44
:102C40001092FB068091B706823050F0809105010A
:102C50008F7B80930501809105018F7D8093050115
:102C60001092FA068091B6061982843040F1809164
:102C7000B3069091B406DC01ED91FC910084F185DE
:102C8000E02D1995892B09F441C08091B3069091EC
:102C9000B406DC01ED91FC910284F385E02D1995D9
:102CA0009091FA06E92FF0E0EF54F94F81879F5F8A
:102CB0009093FA069034D8F2B1E0B983D8CF8091DE
:102CC000B1069091B206DC01ED91FC910084F18592
:102CD000E02D1995892BD1F08091B1069091B20623
:102CE000DC01ED91FC910284F385E02D1995909122
:102CF000FA06E92FF0E0EF54F94F81879F5F909338
:102D0000FA069034E0F2B1E0B983D9CF8091FE06A3
:102D10009091FF0601969093FF068093FE06C9806E
:102D2000CC2069F08091020790910307019690935F
:102D30000307809302078DEF8093B90674CC8091CE
:102D4000FA068093B90687300CF46DCCD090B506A6
:102D5000DD829091BA069D1166CC082F10E082505A
:102D60000E94F601F801EF54F94F378120852817AA
:102D7000390779F0809102079091030701969093AB
:102D80000307809302072FEF2983C980C092B906F9
:102D90004ACC8091BB06E6E0F2E098E09E0F2191DC
:102DA000281709F44DC19E13FACF209102073091E4
:102DB00003072F5F3F4F309303072093020721E063
:102DC00029836BC12091BC063091BD063227232791
:102DD0003227F4E036952795FA95E1F790910E07A2
:102DE000921708F06EC142E0498357C12091BC069A
:102DF0003091BD063227232790910E07921708F0D5
:102E000060C152E0598349C12091BC063091BD0692
:102E10003227232732274091BE065091BF06542700
:102E200045275427240F351F90910E07921708F05D
:102E300048C162E0698331C18F3009F4A1C080319B
:102E400009F0F1CBE091BD064091BF061092BE069D
:102E500086E08093FA06A1EBB6E0F0E0EE0FFF1FEC
:102E6000EC52FD4F80E01296481791F01E969C910F
:102E70001E971F962C911F97392F219331938F5FA7
:102E8000F2CF80948122A1C1EF2829F48093FA0621
:102E90000E94DE04C8CB8F5FF9CF8091BC06909171
:102EA000BD0698278927982F2091BE063091BF062E
:102EB00032272327322F330F3093BC06E3E0280F4D
:102EC0003327331F82E08E0FA92FB0E0A217B3077C
:102ED000ACF4AA0FBB1FAC52BD4F4C9111965C9144
:102EE000AE2FB0E0AF54B94F19965C93EF5FF0E0AE
:102EF000EF54F94F41879F5FE82FE4CFE093FA0644
:102F0000C7CF2091BC063091BD0632272327322738
:102F1000F90173E0F695E7957A95E1F7EE7FF170A8
:102F2000EC52FD4F408151812F7081E090E0A0E094
:102F3000B0E004C0880F991FAA1FBB1F2A95D2F7C3
:102F40002091BE062F3F31F4842B952B91838083F3
:102F500086E09CCF8095909584239523F7CFE091D0
:102F6000BD06F0E0EE0FFF1FEC52FD4F2091BE06B4
:102F70003091BF063227232732273183208386CF23
:102F80008091BC069091BD069827892798272091AB
:102F9000BE063091BF06322723273227280F391F5C
:102FA00010E007E0812C912C540183948217930741
:102FB00079F2FC0143E0F695E7954A95E1F7EE7F5B
:102FC000F170EC52FD4FC080D180DA82C982482F67
:102FD0004F707501640104C0CC0CDD1CEE1CFF1C9D
:102FE0004A95D2F7A601A02FB0E0AF54B94F199679
:102FF000AC91B0E0012E02C0B595A7950A94E2F716
:10300000A0FF0DC0E980FA804E295F2951834083DB
:103010001F5F183010F00F5F10E00196C7CF40958A
:10302000509569817A8146235723F0CF66246394B3
:10303000712C55CB10929D0310929C0360E0B2CD91
:10304000863009F4D3CEC0F5853009F4BBCE833089
:1030500008F0DACE8823A9F12091BC063091BD0694
:10306000322723273227A901A4E056954795AA9530
:10307000E1F72091BE063091BF0632272327322781
:10308000B4E036952795BA95E1F7240F351F909156
:103090000E079217B0F432E03983CD80C092BA06A1
:1030A00080588093BB06D980D092BC0683E0809381
:1030B000FA060E94DE0469CE8F3071F2803109F485
:1030C000A3CE0E94BE0469837A838B839C83809104
:1030D00004079091050729813A814B815C81280F73
:1030E000391F411D511DDA01C90180930A079093D0
:1030F0000B07A0930C07B0930D071092B9068091AF
:10310000BB06863009F42BCF08F096CE853009F443
:10311000F8CE833008F0C1CE8150823008F083CAE7
:103120002091BC063091BD063227232732274091DB
:10313000BE065091BF06542745275427BA01E3E045
:1031400076956795EA95E1F7862F7A0197E0E9226F
:10315000FF24E114F10411F081E0860F8093BC0696
:1031600083E08093FA06420F531F90E0412C512CCC
:10317000320143944217530709F486CEE82FF0E05A
:10318000EF54F94F118553014201092E04C0880CF8
:10319000991CAA1CBB1C0A94D2F7D90103E0B6956E
:1031A000A7950A95E1F7AE7FB170BD016C527D4FD6
:1031B000DB016D917C91B22FBF7002C0769567954F
:1031C000BA95E2F760FF5DCE812A81869F5F9830D5
:1031D00010F08F5F90E02F5F3F4FCCCFEF92FF92C8
:1031E0000F931F93CF93DF9300D00F920F92CDB721
:1031F000DEB726E636E646E65FE369837A838B83AD
:103200009C8369817A818B819C810E94532D9B01D3
:10321000AC0160E27CEB8EEB95E40E94B12B20E0E8
:1032200030E040E85FE369837A838B839C83698124
:103230007A818B819C810E94482B20E030E040E025
:103240005FE369837A838B839C8369817A818B8135
:103250009C810E94492B69837A838B839C8369813B
:103260007A818B819C810E94872C7B018C018091CB
:10327000AF069091B006AEEAB6E02C9131E0309303
:10328000DD032093DF031092DE031092E003DC01E4
:10329000ED91FC910190F081E02D60E01995809115
:1032A000AF069091B0060E94E30761E0EEEAF6E017
:1032B00080810E94BB021092BC038093BB0380916B
:1032C000AF069091B006DC01ED91FC910284F3858C
:1032D000E02D19958D83682F6F76606180E00E94E4
:1032E000E507E982FA820B831C8369817A818B81ED
:1032F0009C810E941E2C8EEF0E94E5076D8180E06C
:103300000E94E50765E070E080E090E00E948004A4
:103310006D81606A80E00F900F900F900F900F907A
:10332000DF91CF911F910F91FF90EF900C94E507E3
:103330001F921FB61F9211242F933F938F939F9339
:10334000AF93BF938091AF039091B003A091B1036D
:10335000B091B2033091AE0323E0230F2D3750F527
:103360000196A11DB11D2093AE038093AF039093EE
:10337000B003A093B103B093B2038091B3039091D3
:10338000B403A091B503B091B6030196A11DB11D80
:103390008093B3039093B403A093B503B093B603A3
:1033A000BF91AF919F918F913F912F911F901FBE21
:1033B0001F90189526E8230F0296A11DB11DD3CFAB
:1033C0001F920F920FB60F9211240BB60F922F93EC
:1033D0003F934F935F936F937F938F939F93AF939D
:1033E000BF93EF93FF9388E294E00E945906FF9108
:1033F000EF91BF91AF919F918F917F916F915F916D
:103400004F913F912F910F900BBE0F900FBE0F90D9
:103410001F9018951F920F920FB60F9211240BB6A2
:103420000F922F933F934F935F936F937F938F935D
:103430009F93AF93BF93EF93FF9388E294E00E9432
:10344000E005FF91EF91BF91AF919F918F917F9197
:103450006F915F914F913F912F910F900BBE0F9005
:103460000FBE0F901F9018951F920F920FB60F92DC
:1034700011240BB60F922F933F934F935F936F934B
:103480007F938F939F93AF93BF93EF93FF9385ECBD
:1034900094E00E945906FF91EF91BF91AF919F91E7
:1034A0008F917F916F915F914F913F912F910F90ED
:1034B0000BBE0F900FBE0F901F9018951F920F928A
:1034C0000FB60F9211240BB60F922F933F934F9389
:1034D0005F936F937F938F939F93AF93BF93EF937C
:1034E000FF9385EC94E00E94E005FF91EF91BF917E
:1034F000AF919F918F917F916F915F914F913F918C
:103500002F910F900BBE0F900FBE0F901F9018952C
:103510001F920F920FB60F9211240BB60F922F939A
:103520003F934F935F936F937F938F939F93AF934B
:10353000BF93EF93FF9382E695E00E945906FF91B7
:10354000EF91BF91AF919F918F917F916F915F911B
:103550004F913F912F910F900BBE0F900FBE0F9088
:103560001F9018951F920F920FB60F9211240BB651
:103570000F922F933F934F935F936F937F938F930C
:103580009F93AF93BF93EF93FF9382E695E00E94E2
:10359000E005FF91EF91BF91AF919F918F917F9146
:1035A0006F915F914F913F912F910F900BBE0F90B4
:1035B0000FBE0F901F9018951F920F920FB60F928B
:1035C00011240BB60F922F933F934F935F936F93FA
:1035D0007F938F939F93AF93BF93EF93FF938FEF5F
:1035E00095E00E945906FF91EF91BF91AF919F9195
:1035F0008F917F916F915F914F913F912F910F909C
:103600000BBE0F900FBE0F901F9018951F920F9238
:103610000FB60F9211240BB60F922F933F934F9337
:103620005F936F937F938F939F93AF93BF93EF932A
:10363000FF938FEF95E00E94E005FF91EF91BF911E
:10364000AF919F918F917F916F915F914F913F913A
:103650002F910F900BBE0F900FBE0F901F901895DB
:103660001F920F920FB60F9211240BB60F922F9349
:103670003F934F935F936F937F938F939F93AF93FA
:10368000BF93EF93FF939091B900892F887F803586
:1036900009F4C3C008F044C0803309F4B9C0A8F5E8
:1036A000883111F1E0F4883009F4AAC0803109F4BE
:1036B000A7C0882309F4F3C0FF91EF91BF91AF91A8
:1036C0009F918F917F916F915F914F913F912F913A
:1036D0000F900BBE0F900FBE0F901F901895803269
:1036E00009F496C0883241F7909104048091030454
:1036F000981780F5E091040481E08E0F8093040414
:10370000F0E0ED51FC4F80817DC0803409F491C020
:10371000883409F47FC0883379F6809305046EC03D
:10372000803A09F4A0C0C0F5803809F48AC058F581
:10373000803619F1E0F4883509F0BECFE091040439
:1037400081E08E0F809304048091BB00F0E0ED5186
:10375000FC4F80838091060481115CC081E08093DE
:10376000E10384EA8093BC0010920704A5CF803760
:1037700021F0987E983609F09FCF83E0809307046C
:103780001092D00241C0803909F45BC0987E98380D
:1037900009F092CF85E839C0883BD9F058F5883ACE
:1037A00019F0803B09F088CF84E0809307041092E1
:1037B000AF021092AE02E091B703F091B8031995F1
:1037C0008091AE02811105C081E08093AE0210921B
:1037D0008E02E091AF0281E08E0F8093AF02F0E0A5
:1037E000E257FD4F80818093BB009091AF028091A2
:1037F000AE0223C0907F903C09F05ECF85ECB2CF43
:103800008091E2038093BB0085EC8093BC0054CF91
:10381000809305040E9407074FCFE091040481E0E4
:103820008E0F809304048091BB00F0E0ED51FC4FBB
:1038300080839091040480910304981708F0AACF24
:10384000E3CF8091D002803208F0A4CFE091D00283
:1038500081E08E0F8093D0028091BB00F0E0E055B4
:10386000FD4F8083D1CF85EC8093BC00109207047C
:103870008091D002803230F4E091D002F0E0E05547
:10388000FD4F10826091D00270E0E091B903F09199
:10389000BA0380EB92E019951092D0020DCF1092EE
:1038A0000504B8CF1895E8E2F4E01382128288EE9E
:1038B00093E0A0E0B0E084839583A683B78320E201
:1038C00032E03183208345E351E05587448744E368
:1038D00051E05787468740E351E0518B408B41E3ED
:1038E00051E0538B428B42E351E0558B448B46E3CE
:1038F00051E0578B468B118E128E138E148EE5EC91
:10390000F4E01382128284839583A683B783318384
:10391000208345ED50E05587448744ED50E05787BC
:10392000468740ED50E0518B408B41ED50E0538B8A
:10393000428B42ED50E0558B448B46ED50E0578B67
:10394000468B118E128E138E148EE2E6F5E01382F2
:10395000128284839583A683B783318320834DECC1
:1039600050E0558744874CEC50E05787468748EC39
:1039700050E0518B408B49EC50E0538B428B4AEC2A
:1039800050E0558B448B4EEC50E0578B468B118E9C
:10399000128E138E148EEFEFF5E013821282848361
:1039A0009583A683B7833183208325EC30E0358768
:1039B000248724EC30E03787268720EC30E0318BF9
:1039C000208B21EC30E0338B228B22EC30E0358BE6
:1039D000248B26EC30E0378B268B118E128E138EC3
:1039E000148EECE9F6E01382128284839583A68319
:1039F000B78382E392E09183808310921007A1EB5A
:103A0000B6E081E014968C93149793E015969C93FE
:103A1000159792E016969C9328EE33E030930507B5
:103A200020930407AEEAB6E090E49C931296FC93D0
:103A3000EE931197E8EAF6E0118210821382128267
:103A400015821482E1E1F7E096E590838183089581
:103A5000CDB7DEB7CB54D1090FB6F894DEBF0FBE99
:103A6000CDBF0E94EB0361E086E10E94BA0361E0F2
:103A700086E10E948D0360E086E30E94BA0361E064
:103A80008BE00E94BA0361E089E10E94BA0361E021
:103A90008BE10E94BA0340E052EC61E070E08FEFEE
:103AA00095E00E9496010E94540760E880E00E9421
:103AB000E5076AE070E080E090E00E94800460E04A
:103AC00070E08AE794E48ADB60E070E088EC94E4DC
:103AD00085DB80E580930F070E945407FF24F39451
:103AE000F092DD038CE78093DF031092DE031092E7
:103AF000E00360910F0770E0660F771FE0919C066E
:103B0000F0919D060190F081E02D8CE996E01995E9
:103B100080E00E94890163E08CE70E94BB02109262
:103B2000BC038093BB038CE996E00E946F078C0175
:103B30008CE996E00E946F0789839A838CE996E06E
:103B40000E946F0794E0000F111F9A95E1F7007F24
:103B50001F7029813A8144E0359527954A95E1F710
:103B60002F703327022B132B0A30110509F4A4C53B
:103B70008CE492E00E9401119801110F440B550B47
:103B800029833A834B835C8340E169817A818B810D
:103B90009C810E9419118BE692E00E940111809194
:103BA000B606823009F4A2C5833009F4A2C581307B
:103BB00009F0A2C582E695E09093B2068093B10623
:103BC00040E052EC61E070E08091B1069091B20665
:103BD0000E9496018091B706823078F080910401AE
:103BE000806680930401809105018F7B809305019D
:103BF000809105018F7D809305018091B1069091A0
:103C0000B206DC01ED91FC910284F385E02D19955B
:103C100097FFF3CF1092FA061092FB06109203075B
:103C20001092020710920107109200071092FF06EF
:103C30001092FE060E94570B0E94D60A1EE0212E0B
:103C400012E0312E55245A9482E890E00E94F32924
:103C500088AB99ABF1014080F181FCA322E0220EF8
:103C6000311C68A879A837E4630E711CD3010D914B
:103C70001C91E8A9F9A9E359FF4F208131814281C4
:103C8000538129833A834B835C83E8A9F9A9E759D7
:103C9000FF4F80819181A281B3818B8F9C8FAD8FEB
:103CA000BE8FE8A9F9A9EB59FF4F208131814281EC
:103CB00053812F8F38A349A35AA388A999A98B5A56
:103CC0009F4FA8A9B9A95F969C938E935E97CD014B
:103CD0008F5A9F4F5D969C938E935C978D9691968D
:103CE0009C938E939097DA961C92DA9740E050E07E
:103CF0006FE773E4CD010E94140224E630E040E057
:103D000050E0A8A9B9A99E962D933D934D935C933D
:103D1000D197DA968C91DA97882309F449C058969E
:103D20008D919C9159970817190709F441C01C9669
:103D30002D913D914D915C911F9760E070E0CB011A
:103D40000E94482B68AF79AF8AAF9BAFE8A9F9A969
:103D50006487758786879787208931894289538947
:103D600060E070E0CB010E94482B6CAF7DAF8EAF5E
:103D70009FAFA8A9B9A950966D937D938D939C93FD
:103D8000539754962D913D914D915C91579760E0DA
:103D900070E0CB010E94482B24966CAF7DAF8EAFB4
:103DA0009FAF2497E8A9F9A9648B758B868B978BB5
:103DB000A8A9B9A959961C930E93589720E030E012
:103DC000A9016F8D78A189A19AA10E94AD2B87FDD1
:103DD00029C020E030E0A9016B8D7C8D8D8D9E8DFA
:103DE0000E94AD2B87FD1EC020E030E0A901698153
:103DF0007A818B819C810E94AD2B87FD13C0AA2400
:103E0000A394B12CC980DA80EB80FC800B8D1C8DD3
:103E10002D8D3E8D4F8D58A169A17AA188A999A9B0
:103E20000E94A4080E94BE0469837A838B839C83CA
:103E3000E8A9F9A986A597A5A0A9B1A929813A81E0
:103E40004B815C81281B390B4A0B5B0BDA01C901E2
:103E500082A393A3A4A3B5A34F01FCE38F0E911CEF
:103E6000A8A9B9A9DF964C92DF97DE965C92DE97FF
:103E7000DD965C92DD97DC965C928091AE06909127
:103E8000AF06A091B006E8A9F9A9E05CFF4F8083D6
:103E90009183A283F3011182108268A879A8F9E4C2
:103EA0006F0E711C20E030E040E855E4D3012D9303
:103EB0003D934D935C931397E8A9F9A9E35BFF4FFA
:103EC00020E030E046E154E4208331834283538391
:103ED000E8A9F9A9EF5AFF4F1082118212821382CA
:103EE000E8A9F9A9EB5AFF4F1082118212821382BE
:103EF000E8A9F9A9E75AFF4F80E090E0A0E8BEE307
:103F000080839183A283B383E8A9F9A9E35AFF4F81
:103F100020E030E04AEF53E420833183428353832F
:103F2000E8A9F9A9EF59FF4F10821182128213827A
:103F3000E8A9F9A9EB59FF4F10821182128213826E
:103F4000E8A9F9A9E759FF4F108211821282138262
:103F5000E8A9F9A9E359FF4F108211821282138256
:103F6000E8A9F9A9EF58FF4F80E090E0A0E8BFE38F
:103F700080839183A283B383E8A9F9A9EB58FF4F0B
:103F80001082118212821382E8A9F9A9E758FF4F23
:103F900020E030E048EC54E42083318342835383B3
:103FA000E8A9F9A9E358FF4F31E03083E8A9F9A95E
:103FB000E258FF4F1082118212821382A8A9B9A978
:103FC0005A96AD90BC905B97C12CD12C760197018D
:103FD0008601B701A601CD010E94A408F30140812A
:103FE00051816281738188A999A90E941402A8A9AC
:103FF000B9A99E966D917D918D919C91D1970E94CA
:104000004A2C9B01AC0160E070E080EA90E40E94E1
:10401000B12B7B018C019B01AC01E8A9F9A9608956
:104020007189828993890E94532D28966CAF7DAF48
:104030008EAF9FAF2897A8A9B9A950966D937D938D
:104040008D939C9353979701A80154966D917D9100
:104050008D919C9157970E94B12B2C966CAF7DAFA0
:104060008EAF9FAF2C97E8A9F9A9648B758B868BCF
:10407000978B25E030E040E050E026A737A740AB23
:1040800051AB61E087AD0E94BA0361E0E8A9F9A9EC
:1040900087AD0E948D03A8A9B9A9DC968C918F3FAA
:1040A00009F42DC361E00E94BA0360E0E8A9F9A910
:1040B00084AD0E948D0361E0A8A9B9A9DE968C9118
:1040C0000E94BA0360E0E8A9F9A985AD0E94BA038D
:1040D000C4010E94310D682F6F7EC4010E94DF0C65
:1040E000C4010E94310D682F6F77C4010E94DF0C5C
:1040F00060E0C4010E94420DC4010E94550D61E0C0
:10410000C4010E94420DE8A9F9A9EB5BFF4F408270
:104110002CA1218348A959A95093D3024093D202DC
:104120008091AA069091AB062091A8063091A9062D
:104130008217930719F58C01000F111F892B09F4C1
:1041400012C3C8019093AB068093AA06880F991FEB
:104150000E94F3297C018091AC069091AD069A8370
:104160008983A801BC01C7010E941D2B89819A8106
:104170000E948C2AE092AC06F092AD06E091AC066B
:10418000F091AD068091A8069091A9069C012F5F41
:104190003F4F3093A9062093A8062091D202309178
:1041A000D302880F991FE80FF91F31832083A2E102
:1041B000B2E0A215B30509F047CDE4EDF2E0F9ABAA
:1041C000E8AB312C212C9101220F331F3C8F2B8F18
:1041D000E091AC06F091AD06E20FF31F8080918074
:1041E000F401ED5BFF4F31822082A8A9B9A9929614
:1041F0008D919C919C0150E040E029833A834B8350
:104200005C83CA01B9010E944A2C20E030E048ECEE
:1042100052E469837A838B839C8369817A818B8161
:104220009C810E94B12B6F8F7CA38C01A8A9B9A996
:1042300090968D919C919C0150E040E029833A83B7
:104240004B835C83CA01B9010E944A2C20E030E014
:1042500048EC52E469837A838B839C8369817A81F9
:104260008B819C810E94B12B562E672E782E492E71
:10427000A8A9B9A95E968D919C919C0150E040E05F
:1042800029833A834B835C83CA01B9010E944A2C7B
:1042900020E030E048EC52E469837A838B839C838E
:1042A00069817A818B819C810E94B12BB62FA72FC7
:1042B000F401EB59FF4F462F572FBC014083518328
:1042C000628373833496452D562D672D742D40835C
:1042D00051836283738334964F8D5CA1B801408310
:1042E000518362837383F401A28CB38C6A017801D9
:1042F000052D162D272D342D4B2F5A2FBC01C4010F
:104300000E94A408E091AC06F091AD062B8D3C8D87
:10431000E20FF31FE080F18087010F581F4FA8A91B
:10432000B9A994968D919C919C0150E040E029831D
:104330003A834B835C83CA01B9010E944A2C20E076
:1043400030E44CE156E469837A838B839C836981F2
:104350007A818B819C810E94B12BD8016D937D93D2
:104360008D939C9313970C5F1F4FE8A9F9A986A121
:1043700097A19C0150E040E029833A834B835C8302
:10438000CA01B9010E944A2C20E030E048EC52E416
:1043900069837A838B839C8369817A818B819C81F9
:1043A0000E94B12BD8016D937D938D939C931397AD
:1043B0000C5F1F4FE8A9F9A980A591A59C0150E0C9
:1043C00040E029833A834B835C83CA01B9010E9490
:1043D0004A2CD8016D937D938D939C931397BDE4E4
:1043E000EB0EF11C80918603909187039C0150E0B5
:1043F00040E029833A834B835C83CA01B9010E9460
:104400004A2C20E030E040E251E469837A838B83D8
:104410009C8369817A818B819C810E94B12BD70119
:104420006D937D938D939C931397E8A9F9A93C967E
:10443000F9ABE8AB2A94232809F098C10E94CA126C
:1044400080915C0390915D03019709F093C10E94F4
:10445000190C0E94980B80915E0390915F03892B49
:1044600009F48DC10E949E0A6093A6037093A7036E
:104470008093A8039093A90380915C0390915D03BE
:10448000019709F0D9C18091E8029091E9029C015D
:1044900050E040E029833A834B835C83CA01B90131
:1044A0000E944A2C20E030E040E251E469837A83A4
:1044B0008B839C8369817A818B819C810E94B12B43
:1044C0008B018F8F9B8F8091EA029091EB029C0170
:1044D00050E040E029833A834B835C83CA01B901F1
:1044E0000E944A2C20E030E040E251E469837A8364
:1044F0008B839C8369817A818B819C810E94B12B03
:104500009B01AC0109831A838F8D8B839B8D9C83C8
:1045100069817A818B819C810E94492B8B018F8FCD
:104520009B8F8091EC029091ED029C0150E040E065
:1045300029833A834B835C83CA01B9010E944A2CC8
:1045400020E030E040E251E469837A838B839C83EE
:1045500069817A818B819C810E94B12B9B01AC0186
:1045600009831A838F8D8B839B8D9C8369817A81CC
:104570008B819C810E94492B8B018F8F9B8F809117
:10458000EE029091EF029C0150E040E029833A83D3
:104590004B835C83CA01B9010E944A2C20E030E0C1
:1045A00040E251E469837A838B839C8369817A81B9
:1045B0008B819C810E94B12B9B01AC0109831A83E2
:1045C0008F8D8B839B8D9C8369817A818B819C816C
:1045D0000E94492B8B018F8F9B8F8091F0029091CD
:1045E000F1029C0150E040E029833A834B835C83D5
:1045F000CA01B9010E944A2C20E030E040E251E4B7
:1046000069837A838B839C8369817A818B819C8186
:104610000E94B12B9B01AC0109831A838F8D8B8380
:104620009B8D9C8369817A818B819C810E94492B1F
:1046300069837A838B839C8369817A818B819C8156
:104640000E94192CB62ED72E7C010E949E0A209122
:10465000A6033091A7034091A8035091A903698351
:104660007A838B839C8369817A818B819C810E9470
:10467000482B8B018F8F9B8F6B2D7D2DC7010E9447
:104680004C2C9B01AC0109831A83AF8DAB83BB8D8E
:10469000BC8369817A818B819C810E944F2D87FD2B
:1046A0007CC10E949E0A6093A6037093A703809327
:1046B000A8039093A903C0C049815A81542F44276D
:1046C00044275F70482B5A8349834031554059F045
:1046D0008EE692E00E94011129813A81032E000C9E
:1046E000440B550B4DCAF092100759CA85EC94E063
:1046F00063CA88E294E060CA8FEF95E05DCA1FB795
:10470000F8948091D102811127C0E7E6F1E09491FD
:10471000EDEAF1E08491E92FF0E0EE0FFF1FEC519C
:10472000FF4FA591B4919C91892321F461E085E329
:104730000E948D0361E085E30E94BA038CB580611D
:104740008CBD8CB580648CBD61E084E30E94BA03AB
:1047500061E083E30E94BA038091D1028F5F80936E
:10476000D1021FBFB5CC81E090E0ECCC2224239491
:10477000312C29CD0E94C8100E94E6065FCE0E940F
:104780009E0A6093AA037093AB038093AC0390934B
:10479000AD0380915C0390915D03019709F04CC0DB
:1047A0000E949E0A2091AA033091AB034091AC0372
:1047B0005091AD0369837A838B839C8369817A816D
:1047C0008B819C8165D78B018F8F9B8F8091540348
:1047D000909155039C0150E040E029833A834B833C
:1047E0005C83CA01B9010E944A2C20E030E040E21B
:1047F00051E469837A838B839C8369817A818B817D
:104800009C81AFD79B01AC0109831A838F8D8B8369
:104810009B8D9C8369817A818B819C810E944F2D25
:1048200087FD6AC00E949E0A6093AA037093AB033F
:104830008093AC039093AD030E94570B0E94D60A5D
:104840000E94C8100E949E0A6093A2037093A30363
:104850008093A4039093A5030E949E0A2091A20333
:104860003091A3034091A4035091A50369837A83F7
:104870008B839C8369817A818B819C8109D78B0191
:104880008F8F9B8F80915603909157039C0150E02E
:1048900040E029833A834B835C83CA01B901FAD78C
:1048A00020E030E040E251E469837A838B839C838B
:1048B00069817A818B819C8154D79B01AC010983EA
:1048C0001A838F8D8B839B8D9C8369817A818B81E9
:1048D0009C810E944F2D87FD72C50E949E0A6093A5
:1048E000A2037093A3038093A4039093A50360E0B5
:1048F0008BE00E948D0340CF0E94CA128091460334
:10490000909147039C0150E040E029833A834B8318
:104910005C83CA01B901BED720E030E040E251E437
:1049200069837A838B839C8369817A818B819C8163
:1049300018D7E091AC06F091AD06AB01BC018081C7
:1049400091810E94400C80914803909149039C0101
:1049500050E040E029833A834B835C83CA01B9016C
:1049600099D720E030E040E251E469837A838B8379
:104970009C8369817A818B819C81F3D6E091AC061E
:10498000F091AD06AB01BC01828193810E94400C85
:104990000E9480090E94A00EFCCE0E94CA120E94B2
:1049A0009E0A2091A6033091A7034091A80350913D
:1049B000A90369837A838B839C8369817A818B8144
:1049C0009C8166D6F62EE72ED82EB92E8091E8026D
:1049D0009091E9029C0150E040E029833A834B83A7
:1049E0005C83CA01B90156D720E030E040E251E4CF
:1049F00069837A838B839C8369817A818B819C8193
:104A0000B0D6A62E972E882E792E8091EA0290910C
:104A1000EB029C0150E040E029833A834B835C83A6
:104A2000CA01B90137D720E030E040E251E46983A0
:104A30007A838B839C8369817A818B819C8191D6D7
:104A40002A2D392D482D572D69837A838B839C839A
:104A500069817A818B819C811CD66B8F7F8F8CA31F
:104A60009BA38091EC029091ED029C0150E040E00C
:104A700029833A834B835C83CA01B9010BD720E0B9
:104A800030E040E251E469837A838B839C836981BF
:104A90007A818B819C8165D62B8D3F8D4CA15BA14A
:104AA00069837A838B839C8369817A818B819C81E2
:104AB000F0D5C62E272E382E692E8091EE029091C9
:104AC000EF029C0150E040E029833A834B835C83F2
:104AD000CA01B901DFD620E030E040E251E4698349
:104AE0007A838B839C8369817A818B819C8139D67F
:104AF0002C2D322D432D562D69837A838B839C83F5
:104B000069817A818B819C81C4D56CA77DA78EA792
:104B10009FA746E453E059AB48AB512C412C20E011
:104B200030E0A901F982EA82DB82BC8269817A8164
:104B30008B819C81B4D718160CF015C12A2D392D04
:104B4000482D572D69817A818B819C8106D6181654
:104B50000CF409C14114510409F0E1C08091D40260
:104B60009091D5029C0150E040E02D833E834F831D
:104B70005887CA01B9018ED620E030E040E251E406
:104B80006D837E838F8398876D817E818F819885E9
:104B9000E8D56D837D8B8E8B9F8B409188035091E0
:104BA00089035A8749878091E8029091E9029C0124
:104BB00050E040E0298B3A8B4B8B5C8BCA01B901EA
:104BC00069D620E030E040E251E4698B7A8B8B8B30
:104BD0009C8B69897A898B899C89C3D56D877DA3D4
:104BE0008EA39FA318A619A61AA61BA6198A188E0B
:104BF00030EA398F41E44A8FD201AA0FBB1FBFAB05
:104C0000AEABE091AC06F091AD06EA0FFB1F008160
:104C10001181E985FA85319709F0CCC32989388D4E
:104C2000498D5A8DFD81F9838D898A839E899B8365
:104C3000AF89AC8369817A818B819C8129D52D854F
:104C40003DA14EA15FA169837A838B839C83698197
:104C50007A818B819C8185D56AAB7BAB8CAB9DAB1C
:104C600028A539A54AA55BA5F982EA82DB82BC8228
:104C700069817A818B819C810BD59B01AC01BAA99A
:104C8000B983EBA9EA83FCA9FB838DA98C83698195
:104C90007A818B819C8107D72989388D498D5A8DDE
:104CA00069837A838B839C8369817A818B819C81E0
:104CB000F0D4462F572FBC01C8010E94400C8091B0
:104CC000AC069091AD06AEA9BFA9A80FB91FED9192
:104CD000FC91E258FF4F20E030E040E251E4608177
:104CE000718182819381DFD669837A838B839C83F0
:104CF00069817A818B819C81A1D5E8A9F9A9619309
:104D00007193F9ABE8AB4A94452829F40E948009D5
:104D10000E94A00EB1CB44244394512C00CF80912B
:104D2000DE029091DF029C0150E040E02D833E8343
:104D30004F835887CA01B901ADD520E030E040E289
:104D400051E46D837E838F8398876D817E818F810F
:104D5000988507D56D837D8B8E8B9F8B40919203B9
:104D6000509193031ECF2A2D392D482D572DF982AE
:104D7000EA82DB82BC8269817A818B819C818FD6B9
:104D800018160CF0BBC02B8D3F8D4CA15BA1698127
:104D90007A818B819C81E1D418160CF4AFC0411448
:104DA000510409F068C08091D6029091D7029C010D
:104DB00050E040E02D833E834F835887CA01B901FC
:104DC00069D520E030E040E251E46D837E838F833B
:104DD00098876D817E818F819885C3D46D837D8B0B
:104DE0008E8B9F8B8091D4029091D5029C0150E0D4
:104DF00040E029873A874B875C87CA01B9014AD5C9
:104E000020E030E040E251E469877A878B879C8715
:104E100069857A858B859C85A4D4698B788F898FE9
:104E20009A8F40918A0350918B035A8749878091CA
:104E3000EA029091EB029C0150E040E02D873E8712
:104E40004F87588BCA01B90125D520E030E040E2F8
:104E500051E46D877E878F87988B6D857E858F85E2
:104E600098897FD46D877DA38EA39FA3A8A699A6BA
:104E70008AA67BA6C1CE8091E0029091E1029C01BE
:104E800050E040E02D833E834F835887CA01B9012B
:104E900001D520E030E040E251E46D837E838F83D2
:104EA00098876D817E818F8198855BD46D837D8BA2
:104EB0008E8B9F8B8091DE029091DF029C0150E0EF
:104EC00040E029873A874B875C87CA01B901E2D461
:104ED00020E030E040E251E469877A878B879C8745
:104EE00069857A858B859C853CD4698B788F898F81
:104EF0009A8F409194035091950397CF2B8D3F8DBE
:104F00004CA15BA1F982EA82DB82BC8269817A8151
:104F10008B819C81C4D518160CF0BFC02C2D322D6E
:104F2000432D562D69817A818B819C8116D4181668
:104F30000CF4B3C04114510409F06CC08091D80244
:104F40009091D9029C0150E040E02D833E834F8335
:104F50005887CA01B9019ED420E030E040E251E414
:104F60006D837E838F8398876D817E818F81988505
:104F7000F8D36D837D8B8E8B9F8B8091D602909121
:104F8000D7029C0150E040E029873A874B875C8735
:104F9000CA01B9017FD420E030E040E251E46987E2
:104FA0007A878B879C8769857A858B859C85D9D301
:104FB000698B788F898F9A8F40918C0350918D03E4
:104FC0005A8749878091EC029091ED029C0150E054
:104FD00040E02D873E874F87588BCA01B9015AD4CC
:104FE00020E030E040E251E46D877E878F87988B28
:104FF0006D857E858F859889B4D36D877DA38EA3BB
:105000009FA33B8D38A74F8D49A75CA15AA78BA1C1
:105010008BA7F2CD8091E2029091E3029C0150E0D7
:1050200040E02D833E834F835887CA01B90132D4B3
:1050300020E030E040E251E46D837E838F839887E7
:105040006D817E818F8198858CD36D837D8B8E8BD6
:105050009F8B8091E0029091E1029C0150E040E042
:1050600029873A874B875C87CA01B90113D420E0AE
:1050700030E040E251E469877A878B879C876985B5
:105080007A858B859C856DD3698B788F898F9A8F74
:10509000409196035091970393CF2C2D322D432DA1
:1050A000562DF982EA82DB82BC8269817A818B810A
:1050B0009C81F5D418160CF0BBC02CA53DA54EA5BF
:1050C0005FA569817A818B819C8147D318160CF486
:1050D000AFC04114510409F068C08091DA02909188
:1050E000DB029C0150E040E02D833E834F835887D4
:1050F000CA01B901CFD320E030E040E251E46D8332
:105100007E838F8398876D817E818F81988529D357
:105110006D837D8B8E8B9F8B8091D8029091D9026D
:105120009C0150E040E029873A874B875C87CA01A1
:10513000B901B0D320E030E040E251E469877A87DA
:105140008B879C8769857A858B859C850AD3698B3B
:10515000788F898F9A8F40918E0350918F035A8751
:1051600049878091EE029091EF029C0150E040E06F
:105170002D873E874F87588BCA01B9018BD320E01A
:1051800030E040E251E46D877E878F87988B6D8594
:105190007E858F859889E5D26D877DA38EA39FA399
:1051A000C8A629A63AA66BA627CD8091E4029091C5
:1051B000E5029C0150E040E02D833E834F835887F9
:1051C000CA01B90167D320E030E040E251E46D83C9
:1051D0007E838F8398876D817E818F819885C1D2F0
:1051E0006D837D8B8E8B9F8B8091E2029091E30289
:1051F0009C0150E040E029873A874B875C87CA01D1
:10520000B90148D320E030E040E251E469877A8771
:105210008B879C8769857A858B859C85A2D2698BD3
:10522000788F898F9A8F409198035091990397CFE7
:105230002CA53DA54EA55FA5F982EA82DB82BC8242
:1052400069817A818B819C812AD418160CF0D4CC88
:105250004114510409F06BC08091DC029091DD0291
:105260009C0150E040E02D833E834F835887CA0164
:10527000B90110D320E030E040E251E46D837E8339
:105280008F8398876D817E818F8198856AD26D83A7
:105290007D8B8E8B9F8B8091DA029091DB029C013B
:1052A00050E040E029873A874B875C87CA01B90103
:1052B000F1D220E030E040E251E469877A878B87C1
:1052C0009C8769857A858B859C854BD2698B788F85
:1052D000898F9A8F40919003509191035A87498703
:1052E0008091F0029091F1029C0150E040E02D8706
:1052F0003E874F87588BCA01B901CCD220E030E0FD
:1053000040E251E46D877E878F87988B6D857E851F
:105310008F85988926D26D877DA38EA39FA33CA5F8
:1053200038A74DA549A75EA55AA78FA571CE809134
:10533000E6029091E7029C0150E040E02D833E831D
:105340004F835887CA01B901A5D220E030E040E27E
:1053500051E46D837E838F8398876D817E818F81F9
:105360009885FFD16D837D8B8E8B9F8B8091E4021E
:105370009091E5029C0150E040E029873A874B87F5
:105380005C87CA01B90186D220E030E040E251E4F6
:1053900069877A878B879C8769857A858B859C85C9
:1053A000E0D1698B788F898F9A8F40919A035091C1
:1053B0009B0394CF4D815D896E897F897DCC0E944E
:1053C000CA1261E08BE00E948D0346CA8091AC0650
:1053D0009091AD06A1C0EE0FFF1F881F8BBF0790F5
:1053E000F691E02D19940F931F93CF93DF938230A2
:1053F000910510F482E090E0E0911507F091160716
:1054000030E020E0B0E0A0E0309799F421153105BC
:1054100009F447C0281B390B24303105C0F58A81B7
:105420009B816115710571F1FB0193838283FE01FC
:1054300011C0408151810281138148175907F8F04A
:105440004817590799F4109761F012960C93129728
:1054500013961C933296CF01DF91CF911F910F913C
:1054600008950093150710931607F4CF2115310501
:1054700019F04217530718F49A01BD01EF01DF013B
:10548000F801C2CF9093160780931507D0CFFE0185
:10549000E20FF31F819391932250310939832883BE
:1054A000DACF2091130730911407232B41F4209178
:1054B00002023091030230931407209313072091C6
:1054C0000002309101022115310541F42DB73EB79C
:1054D0004091040250910502241B350BE091130703
:1054E000F0911407E217F307A0F42E1B3F0B2817C7
:1054F000390778F0AC014E5F5F4F2417350748F04D
:105500004E0F5F1F5093140740931307819391939D
:10551000A2CFF0E0E0E09FCFCF93DF930097E9F0D8
:10552000FC01329713821282C0911507D0911607A1
:10553000DE0130E020E02097A1F420813181820F4C
:10554000931F20911307309114072817390709F08A
:1055500067C0F0931407E0931307DF91CF9108958C
:10556000DA01AE17BF0708F040C012964D915C916A
:1055700013979D014115510599F7D9011396FC9395
:10558000EE9312974D915D91A40FB51FEA17FB079B
:1055900079F4808191810296840F951FD90111962B
:1055A0009C938E938281938113969C938E931297F2
:1055B000B0E0A0E08A819B810097B9F5FE0181915E
:1055C0009191E80FF91F80911307909114078E179E
:1055D0009F0719F6109761F510921607109215079C
:1055E000D0931407C0931307B8CFB383A28340812D
:1055F0005181840F951FA817B90771F44E5F5F4F53
:105600008D919C911197480F591F51834083129699
:105610008D919C91938382832115310509F0ADCF43
:10562000F0931607E093150798CFDE01EC01C2CF87
:1056300013961C921E921297D3CFFB01DC0102C07D
:1056400001900D9241505040D8F70895A1E21A2ED2
:10565000AA1BBB1BFD010DC0AA1FBB1FEE1FFF1F16
:10566000A217B307E407F50720F0A21BB30BE40B66
:10567000F50B661F771F881F991F1A9469F76095AD
:105680007095809590959B01AC01BD01CF01089567
:105690005058BB27AA270ED0B1C1A2D130F0A7D154
:1056A00020F031F49F3F11F41EF497C10EF4E09501
:1056B000E7FB64C1E92FB3D180F3BA176207730720
:1056C0008407950718F071F49EF5E2C10EF4E09599
:1056D0000B2EBA2FA02D0B01B90190010C01CA01AC
:1056E000A0011124FF27591B99F0593F50F4503E57
:1056F00068F11A16F040A22F232F342F4427585F49
:10570000F3CF469537952795A795F0405395C9F760
:105710007EF41F16BA0B620B730B840BBAF0915018
:10572000A1F0FF0FBB1F661F771F881FC2F70EC0B7
:10573000BA0F621F731F841F48F48795779567958A
:10574000B795F7959E3F08F0B3CF9395880F08F073
:105750009927EE0F979587950895ECD008F481E08E
:1057600008950CD04BC143D140F03AD130F021F430
:105770005F3F19F003C151118CC12FC150D198F373
:105780009923C9F35523B1F3951B550BBB27AA27C2
:1057900062177307840738F09F5F5F4F220F331F34
:1057A000441FAA1FA9F333D00E2E3AF0E0E830D000
:1057B00091505040E695001CCAF729D0FE2F27D003
:1057C000660F771F881FBB1F261737074807AB07D1
:1057D000B0E809F0BB0B802DBF01FF2793585F4F46
:1057E0002AF09E3F510568F0C9C053C15F3FECF3FA
:1057F000983EDCF3869577956795B795F7959F5F0B
:10580000C9F7880F911D9695879597F90895E1E05E
:10581000660F771F881FBB1F621773078407BA07BD
:1058200020F0621B730B840BBA0BEE1F88F7E09518
:10583000089504D06894B1112CC10895F8D088F06F
:105840009F5790F0B92F9927B751A0F0D1F0660F6C
:10585000771F881F991F1AF0BA95C9F712C0B13087
:1058600081F016D1B1E0089513C1672F782F8827F2
:10587000B85F39F0B93FCCF3869577956795B395C6
:10588000D9F73EF490958095709561957F4F8F4F35
:105890009F4F0895E89409C097FB3EF4909580953A
:1058A000709561957F4F8F4F9F4F9923A9F0F92FE6
:1058B00096E9BB279395F695879577956795B79564
:1058C000F111F8CFFAF4BB0F11F460FF1BC06F5F4A
:1058D0007F4F8F4F9F4F16C0882311F096E911C05C
:1058E000772321F09EE8872F762F05C0662371F07D
:1058F00096E8862F70E060E02AF09A95660F771F91
:10590000881FDAF7880F9695879597F90895A9D09B
:1059100080F09F3740F491110EF0BBC060E070E062
:1059200080E89FEB089526F41B16611D711D811DF3
:105930002BC045C0990F0008550FAA0BE0E8FEEFF9
:1059400016161706E807F907C0F012161306E40743
:10595000F50798F0621B730B840B950B39F40A263C
:1059600061F0232B242B252B21F408950A2609F41A
:10597000A140A6958FEF811D811D089597F99F671E
:1059800080E870E060E00895882371F4772321F0C7
:105990009850872B762F07C0662311F499270DC0E6
:1059A0009051862B70E060E02AF09A95660F771F81
:1059B000881FDAF7880F9695879597F908959F3F86
:1059C00031F0915020F4879577956795B795880FBA
:1059D000911D9695879597F908959FEF80EC08950E
:1059E00000240A94161617061806090608950024BE
:1059F0000A9412161306140605060895092E039438
:105A0000000C11F4882352F0BB0F40F4BF2B11F4AB
:105A100060FF04C06F5F7F4F8F4F9F4F089557FD0A
:105A20009058440F551F59F05F3F71F04795880F0C
:105A300097FB991F61F09F3F79F0879508951216A3
:105A400013061406551FF2CF4695F1DF08C016164F
:105A500017061806991FF1CF869571056105089400
:105A60000895E5DFA0F0BEE7B91788F4BB279F389B
:105A700060F41616B11D672F782F8827985FF7CF2F
:105A8000869577956795B11D93959639C8F30895D6
:105A9000E894BB2766277727CB0197F908954ADF5B
:105AA00008F48FEF08950BD0A9CF9ADF28F09FDF7D
:105AB00018F0952309F062CF90CF1124EACFAFDF21
:105AC000A0F3959FD1F3950F50E0551F629FF00111
:105AD000729FBB27F00DB11D639FAA27F00DB11D6A
