:1000000004C1000033C1000031C100002FC1000055
:100010002DC100002BC1000029C1000027C1000034
:1000200025C100000C94AC1E0C94AC1E0C94AC1EAC
:100030001DC100000C94DA1B19C1000017C100009B
:1000400015C1000013C1000011C100000FC1000064
:100050000DC100000BC1000009C100000C94921BEF
:1000600005C100000C94601D0C94361DFFC00000FB
:10007000FDC00000FBC00000F9C00000F7C0000098
:10008000F5C00000F3C00000F1C00000EFC00000A8
:100090000C940C1D0C94E21CE9C000000C948A1D09
:1000A000E5C00000E3C00000E1C00000DFC00000C8
:1000B000DDC00000DBC00000D9C00000D7C00000D8
:1000C000D5C00000D3C00000D1C000000C94B81C03
:1000D0000C948E1CCBC000000C94641C0C943A1C35
:1000E000C5C000000200002100240027002A002DC6
:1000F000003000330001010000040107010A010083
:10010000002200250028002B002E003100340002C0
:10011000010000050108010B01000020002300265A
:100120000029002C002F003200000100000301060E
:10013000010901050505050705080808080202026E
:10014000020A0A0808040404040101010101010172
:10015000010303030303030303040707070C0C0C49
:100160000C0C0C0C0C020202020606060606060621
:10017000060B0B0B0B0B0B0B0B01021020200808BE
:1001800010204010204080020102010804020101F9
:1001900002040810204080804020100804020180E2
:1001A0000402018040201008040201080402010139
:1001B0000204081020408001020408102040800042
:1001C000000A0B02090C0D0E0807030401000000D1
:1001D000000000000000000000000000000000001F
:1001E00000000000000000000000001211100000DC
:1001F00000000000000000000000000000000000FF
:10020000000000000000AD1E6C2B11241FBECFEFBC
:10021000D1E2DEBFCDBF00E00CBF27E0AEE7B2E029
:1002200001C01D92A735B207E1F712E0A0E0B2E0ED
:10023000E8E5FEE500E00BBF02C007900D92AE3787
:10024000B107D9F711E0C4E0D1E000E006C0219782
:100250000109802FFE010E94712BC330D10780E07D
:100260000807A9F70E94971F0C94092FC9CE8EE3A7
:1002700091E090934804809347040895089586E49C
:1002800091E0909346048093450408950895982F33
:10029000613208F049C0809120048111FCCF22E036
:1002A0002093200440931F042FEF20931E041092EC
:1002B0001D0460931C0441E254E0ACEFB3E0FA018A
:1002C0002E2F241B261758F11092FB032091FB03BD
:1002D000990F922B9093FB039091FA03913011F5B3
:1002E0001092FA039091FB039093BB009091BC0095
:1002F00093FDF8CF95EC9093BC0090912004923040
:10030000E1F390911E049F3FA1F080911E04803282
:1003100069F080911E04803359F084E008952191A2
:100320002D93CECF95EEE7CF81E0089582E008953A
:1003300083E00895482F609141048091F903A7DF7D
:1003400010924204109241041092F803089581E043
:10035000F1CF982F862F209120042111FCCF21E08E
:100360002093200420931F043FEF30931E0410922B
:100370001D04380F30931C042093FB032091FB03D2
:10038000990F922B9093FB039091FA03913009F50A
:100390001092FA039091FB039093BB009091BC00E4
:1003A00093FDF8CF95EC9093BC0090912004913090
:1003B000E1F390911D04981710F480911D042CEF27
:1003C00033E0A8EDB3E0F9019E2F921B981718F0C7
:1003D000089595EEE8CF91919D93F6CF682FE09127
:1003E000BD06F091BE060190F081E02D8DEB96E008
:1003F0001994CF92DF92EF92FF92CF93DF93EC01AB
:100400006A017B01E889F98982E08083C11481EE69
:10041000D806E104F104A1F060E079E08DE390E01A
:10042000A70196010E94C82C2150310941095109A8
:100430005695479537952795211580E1380798F00F
:10044000E889F989108260E874E88EE190E0A701FC
:1004500096010E94C82C2150310941095109569535
:10046000479537952795EC85FD853083EE85FF858B
:100470002083188EEC89FD8986E08083EA89FB89D8
:10048000808180618083EA89FB89808188608083A4
:10049000EA89FB89808180688083EA89FB89808181
:1004A0008F7D8083DF91CF91FF90EF90DF90CF9091
:1004B0000895382FECEFF6E020E08FEF9FEF231741
:1004C00091F04191842748E0BC01617077279695AF
:1004D0008795672B21F051E0852750EA95274150F9
:1004E00099F72F5FECCF9827892798270895809157
:1004F000D6069091D706811526E0920759F158F457
:10050000811522E09207E1F0811524E09207E9F0DD
:10051000892B49F00895811528E0920701F1811592
:100520009A4011F108958AE999E9A9E1BDE3809320
:10053000DE069093DF06A093E006B093E1060895EF
:100540008DEC9CECACECBCE3F2CF8DEC9CECACE421
:10055000BCE3EDCF8DEC9CECACECBBE3E8CF8DECD9
:100560009CECACE4BBE3E3CF8DEC9CECACECBAE3ED
:10057000DECF8150823108F048C0E82FF0E08827B4
:10058000E65EF04D8F4F0C94712B809180008F7739
:10059000809380000895809180008F7DF9CF8091B5
:1005A0008000877FF5CF84B58F7784BD089584B5AB
:1005B0008F7DFBCF8091B0008F778093B00008953E
:1005C0008091B0008F7DF9CF809190008F778093DC
:1005D00090000895809190008F7DF9CF80919000D8
:1005E000877FF5CF8091A0008F778093A00008953A
:1005F0008091A0008F7DF9CF8091A000877FF5CFFB
:10060000809120018F7780932001089580912001AF
:100610008F7DF9CF80912001877FF5CFCF93DF9336
:10062000E5EFF1E08491EFEAF1E0D491E9E6F1E061
:10063000C491CC2399F081119CDFEC2FF0E0EE0FF8
:10064000FF1FE75EFE4FA591B491EC91ED2381E091
:1006500090E009F480E0DF91CF91089580E090E090
:10066000FACF1F93CF93DF93162F282F30E0F90195
:10067000E154FE4F8491F901E758FE4FD491F901FE
:10068000ED5CFE4FC491CC2399F0811172DFEC2F09
:10069000F0E0EE0FFF1FE150FF4FA591B4918FB72F
:1006A000F894EC91111108C0D095DE23DC938FBF34
:1006B000DF91CF911F910895DE2BF8CFCF93DF9379
:1006C00090E0FC01E758FE4F24918D5C9E4FFC01A9
:1006D00084918823D1F090E0880F991FFC01EB51A1
:1006E000FF4FA591B491FC01E150FF4FC591D4910A
:1006F00061110EC09FB7F8948C91E22FE0958E2384
:100700008C932881E223E8839FBFDF91CF910895E6
:100710008FB7F894EC91E22BEC938FBFF6CF7894DF
:1007200084B5826084BD84B5816084BD85B58260F6
:1007300085BD85B5816085BDEEE6F0E08081816094
:100740008083E1E8F0E01082808182608083808194
:1007500081608083E0E8F0E0808181608083E1EB6C
:10076000F0E0808184608083E0EBF0E08081816054
:100770008083E1E9F0E08081826080838081816014
:100780008083E0E9F0E0808181608083E1EAF0E04D
:10079000808182608083808181608083E0EAF0E0F4
:1007A000808181608083E1E2F1E0808182608083EA
:1007B000808181608083E0E2F1E0808181608083DC
:1007C000EAE7F0E0808184608083808182608083BA
:1007D0008081816080838081806880831092C100E5
:1007E00008958230910538F0880F991F880F991F5E
:1007F00005970197F1F70895CF93DF9300D00F92FB
:10080000CDB7DEB73FB7F8948091D4039091D5036C
:10081000A091D603B091D70326B5A89B05C02F3F62
:1008200019F00196A11DB11D3FBFBA2FA92F982F16
:100830008827820F911DA11DB11D9C01AD0162E0B1
:10084000220F331F441F551F6A95D1F7CA01B90102
:100850000F900F900F900F90DF91CF9108958F928E
:100860009F92AF92BF92CF92DF92EF92FF92CF937F
:10087000DF9300D00F92CDB7DEB76B017C01BCDFF8
:100880004B015C01C114D104E104F104C1F0B4DFF7
:10089000DC01CB0188199909AA09BB09883E93405C
:1008A000A105B10578F321E0C21AD108E108F108E9
:1008B00088EE880E83E0981EA11CB11CE3CF0F9038
:1008C0000F900F900F90DF91CF91FF90EF90DF90FE
:1008D000CF90BF90AF909F908F900895CF93DF936C
:1008E00000D00F92CDB7DEB78FB7F8942091D00328
:1008F0003091D1034091D2035091D30329833A839D
:100900004B835C838FBF69817A818B819C810F903F
:100910000F900F900F90DF91CF910895CF93DF93B9
:1009200000D00F92CDB7DEB720913C072983822FEC
:10093000C0DD3981E32FF0E0ED50F94F9187E32FCF
:10094000EF5FF0E0ED50F94F81873E5F30933C0759
:100950009091F9068091F8069230C0F0823009F447
:1009600082C0833009F485C0813009F088C090913D
:10097000C80090649093C800909105019064909392
:1009800005019091050190629093050140913C070B
:1009900050E0843008F079C08091F3069091F4061D
:1009A000DC01ED91FC910280F381E02D6CEF76E0AB
:1009B00019959091F9068091F8069230B8F082303E
:1009C00009F468C0833009F46AC0813009F06CC052
:1009D0009091C80096FFFCCF909105019F7B90936A
:1009E0000501909105019F7D90930501843008F0E9
:1009F00060C08091F3069091F406DC01ED91FC91CA
:100A00000284F385E02D199597FFF3CF10923C07F0
:100A100065DF69837A838B839C83809146079091FD
:100A2000470729813A814B815C81280F391F411D7D
:100A3000511DDA01C90180934C0790934D07A09393
:100A40004E07B0934F07809142079091430701965C
:100A500090934307809342070F900F900F900F9051
:100A6000DF91CF9108959091D00090649093D00041
:100A700083CF909130019064909330017DCF90911D
:100A8000C00090649093C00077CF8091F50690915C
:100A9000F60686CF9091D00096FFFCCF9DCF909127
:100AA000300196FFFCCF98CF9091C00096FFFCCF0D
:100AB00093CF8091F5069091F606DC01ED91FC91C3
:100AC0000284F385E02D199597FFF3CF9FCF909186
:100AD000000289130FC0E4EEF0E0E4919FEF9093E1
:100AE0000002E33069F140F4E13099F0E230B9F00E
:100AF000EE2361F060E0B5CDE43041F1E530D1F7AF
:100B0000909173009D7F90937300F4CF10926E00CC
:100B1000F1CF90916F009D7F90936F00EBCF9091FC
:100B200070009D7F9093700091E09093B000909141
:100B3000B100987F94609093B1001092B300DACF27
:100B4000909171009D7F90937100D4CF909172002D
:100B50009D7F90937200CECFCF92DF92EF92FF9263
:100B60000F931F93CF93DF937C016A0110E000E0A5
:100B70000C151D0581F0EB01D701ED91FC91019061
:100B8000F081E02D6991C7011995892B21F00F5F44
:100B90001F4FBE01EDCFC801DF91CF911F910F9183
:100BA000FF90EF90DF90CF900895FC01A089B1896C
:100BB0008C91A689B78982FD0FC09C91818D8F5F32
:100BC0008F73228D821749F0A18DAE0FBF2FB11DFB
:100BD0005D969C93818F08958C910895FC01538DAF
:100BE000448D252F30E0842F90E0821B930B541707
:100BF00010F0CF96089501970895FC01918D828D94
:100C0000981761F0A28DAE0FBF2FB11D5D968C912C
:100C1000928D9F5F9F73928F90E008958FEF9FEF6B
:100C20000895FC01918D828D981731F0828DE80F27
:100C3000F11D858D90E008958FEF9FEF0895FC01E1
:100C4000818D228D90E0805C9F4F821B91098F7374
:100C50009927089589E494E0F2DF9C0181E0232B39
:100C600009F480E0089586EE94E0E9DF9C0181E0DC
:100C7000232B09F480E0089583E895E0E0DF9C01F0
:100C800081E0232B09F480E0089580E296E0D7DF2D
:100C90009C0181E0232B09F480E00895FC01A48DE0
:100CA000A80FB92FB11DA35ABF4F2C91848D90E08E
:100CB00001968F739927848FA689B7892C93A08971
:100CC000B1898C91837080648C93938D848D9813FB
:100CD00006C00288F389E02D80818F7D808308958E
:100CE000EF92FF920F931F93CF93DF93EC01F62EB9
:100CF00081E0888F9B8D8C8D98131AC0E889F989C3
:100D0000808185FF15C09FB7F894EE89FF896083C5
:100D1000E889F98980818370806480839FBF81E046
:100D200090E0DF91CF911F910F91FF90EF90089588
:100D30000B8D10E00F5F1F4F0F731127E02E8C8D6E
:100D40008E110BC00FB607FCFACFE889F9898081B4
:100D500085FFF5CFCE01A2DFF2CFEB8DEC0FFD2F9B
:100D6000F11DE35AFF4FF0829FB7F8940B8FEA8989
:100D7000FB8980818062D1CFCF93DF93EC01888D96
:100D80008823B1F0AA89BB89E889F9898C9185FD0E
:100D900003C0808186FD0CC00FB607FCF7CF8C9195
:100DA00085FFF2CF808185FFEDCFCE0177DFEACFDF
:100DB000DF91CF91089580E090E0892B21F065DFED
:100DC00081110E94000080E090E0892B21F054DF27
:100DD00081110E94000080E090E0892B21F043DF28
:100DE00081110E94000080E090E0892B21F032DF29
:100DF00081110C940000089585ED8093BC008091D2
:100E0000BC0084FDFCCF1092200408952091C502FF
:100E1000260F3327331F21323105ECF420912004B3
:100E2000FC0190E080E0243069F082E00895A09118
:100E3000C5022191AC014B555D4FA40FB52FB11DDB
:100E40002C930196861798F38091C502680F6093E2
:100E5000C50280E0089581E008951092200481E0A9
:100E600080931F041092FA0361E084E1FADB61E0F1
:100E700085E1F7DBE9EBF0E080818E7F8083808184
:100E80008D7F808388E48093B80085E48093BC00E4
:100E90000895109244041092430410924204109258
:100EA0004104DBDFECD9E3C90895E091440480916B
:100EB0004304E81730F4F0E0E852FC4F808190E002
:100EC00008958FEF9FEF089590914404809143041B
:100ED0002FEF3FEF981748F4E92FF0E0E852FC4F6E
:100EE000208130E09F5F90934404C90108950F93DF
:100EF0001F93CF93DF93EC0101E517E0F8018081A8
:100F000091E09093F8038093F903109242041092B9
:100F100041048D2F90E062DACE0199275FDA17DA6B
:100F200061E0F801808115DA109244048093430453
:100F30008DEB96E0C9DFDF91CF911F910F9108955E
:100F40008091430490914404891B990B0895CF929A
:100F5000DF92EF92FF920F931F93CF93DF937C0169
:100F6000CB018A012091F803222389F0EB016B0168
:100F7000C40ED51ECC15DD0561F06991D701ED9148
:100F8000FC910190F081E02DC7011995F3CF642FFA
:100F90003DDFC801DF91CF911F910F91FF90EF903E
:100FA000DF90CF900895CF93DF930F92CDB7DEB748
:100FB000FC0169838091F8038823F1F0809141045A
:100FC000803250F081E090E09383828390E080E073
:100FD0000F90DF91CF91089580914204E82FF0E0C7
:100FE000EF5DFB4F998190838F5F809342048093E4
:100FF000410481E090E0ECCF61E0CE01019606DF94
:10100000F8CFCF93C82F81E08093F803C093F90302
:10101000109242041092410460E08DEB96E0C3DF31
:1010200096D962E08C2F95D91092440480934304A2
:101030008DEB96E049DFC82F8DEB96E045DF20E091
:101040003C2FA901482BCA01CF910895CF93DF937C
:10105000EB0191E09093F8038093F903109242041E
:101060001092410461E08DEB96E09DDF6D2F8DEBDA
:1010700096E099DF6C2F8DEB96E095DFDF91CF91B5
:1010800066C91F93CF93DF93EC01162F8091510710
:1010900091E09093F8038093F90310924204109228
:1010A00041048D2F90E09AD9CE01992797D9612FCD
:1010B0008DEB96E078DFDF91CF911F9148C92F9299
:1010C0003F924F925F926F927F928F929F92AF92D8
:1010D000BF92CF92DF92EF92FF920F931F93CF9325
:1010E000DF93CDB7DEB762970FB6F894DEBF0FBEC1
:1010F000CDBF8D839E833A014B012901C501AD818E
:10110000BE815B96BC92AE925A9721E0019709F09E
:1011100020E0ED81FE8123AFC301D4018083918360
:10112000A283B383C801D20184839583A683B78346
:10113000C601D70180879187A287B38766A577A567
:1011400080A991A90E94EC2D20E030E04AE754E408
:1011500069837A838B839C8369817A818B819C816B
:101160000E94532D1B015C01C301D401ED81FE815E
:1011700084879587A687B7879101A50109831A837C
:101180004B825C8269817A818B819C810E94A22E34
:101190002B018C01CB01D801ED81FE81808B918BDD
:1011A000A28BB38B9101A501C982DA82EB82FC820A
:1011B00069817A818B819C810E94532D6B017C0116
:1011C000CB01D701ED81FE81848B958BA68BB78BEC
:1011D000808D918D019799F59301A40160E070E0F5
:1011E000CB010E94EA2C6F83788789879A87AD812B
:1011F000BE811C966D937D938D939C931F97920156
:10120000A80160E070E0CB010E94EA2C6B877C872C
:101210008D879E87ED81FE81608B718B828B938B96
:101220009601A70160E070E0CB010E94EA2CAD813D
:10123000BE8154966D937D938D939C935797629640
:101240000FB6F894DEBF0FBECDBFDF91CF911F91D7
:101250000F91FF90EF90DF90CF90BF90AF909F9055
:101260008F907F906F905F904F903F902F90089558
:101270004F925F926F927F928F929F92AF92BF92A6
:10128000CF92DF92EF92FF920F931F93CF93DF9352
:1012900000D000D0CDB7DEB78D839E836A017B017D
:1012A00059019801A501C982DA826B83FC826981A8
:1012B0007A818B819C810E949E2E87FF72C0C6011D
:1012C000D701ED81FE8182AB93ABA4ABB5ABC80176
:1012D000D50186AB97ABA0AFB1AF82AD882309F43F
:1012E00060C0868C978CD4014D905D906D907C9001
:1012F000A301920109831A83AB82BC8269817A813E
:101300008B819C810E944F2D87FF2AC0C801D50187
:10131000F40180839183A283B383AD81BE819696CD
:101320008D919D910D90BC91A02D89839A83AB8363
:10133000BC83ED81FE81C6A8D7A8E0ACF1ACA701C3
:101340009601BC01CD010E949E2E1816D4F4AD81E9
:10135000BE819696CD92DD92ED92FC92999721C036
:10136000A3019201C982DA82EB82FC8269817A81CF
:101370008B819C810E949E2E18167CF6C601D70197
:10138000C7CFED81FE81C2A8D3A8E4A8F5A8A70124
:10139000960169817A818B819C810E944F2D87FD06
:1013A000D6CF26960FB6F894DEBF0FBECDBFDF9125
:1013B000CF911F910F91FF90EF90DF90CF90BF9052
:1013C000AF909F908F907F906F905F904F90089517
:1013D00090E080E008950F931F93E091CD06F09187
:1013E000CE0600E010EF2FE735E440E050E068EC77
:1013F00072E4808191813CDF1F910F910895CF931A
:10140000DF9300D00F92CDB7DEB7F6D90E94EC2D56
:1014100020E034E244E759E469837A838B839C8338
:1014200069817A818B819C810E94532D69837A83A3
:101430008B839C8369817A818B819C810F900F9033
:101440000F900F90DF91CF9108951F93CF93DF936B
:10145000EC014DDD182FCE01019649DD90E0982F6B
:101460008827810F911DDF91CF911F9108950F93D0
:101470001F93CF93DF938C01EB01CB01E6DF801745
:10148000910769F0602FCE01FCDD612FCE0101963E
:10149000F8DD81E0DF91CF911F910F91089580E0F9
:1014A000F9CF6F927F928F929F92AF92BF92CF921D
:1014B000DF92EF92FF920F931F93CF93DF9300D0B1
:1014C00000D000D00F92CDB7DEB789879A87E98523
:1014D000FA85E759FF4F808129853A8528573F4F84
:1014E0006901882309F433C1F9D94B01D6018D91E3
:1014F0009D910D90BC91A02D8D839E83AF83B88765
:101500002DEC3CEC4CE45DE3E985FA85E457FF4FB4
:1015100060817181828193810E94A22E7B018C0166
:1015200020E030E040EB51E46D817E818F81988531
:101530000E94EA2CE985FA85EC56FF4F2081318123
:101540004281538169837A838B839C8369817A8109
:101550008B819C810E94A22E9B01AC01E982FA82C0
:101560000B831C8369817A818B819C810E94EA2C88
:10157000E985FA85E856FF4F208131814281538108
:1015800069837A838B839C8369817A818B819C8137
:101590000E94532D3B017C0109851A8504561F4F7B
:1015A000F80180819181881A990A9401990C440B61
:1015B000550B29833A834B835C83CA01B9010E948E
:1015C000EE2D9B01AC0169827A82EB82FC826981FB
:1015D0007A818B819C810E94A22E2D813E814F8138
:1015E000588569837A838B839C8369817A818B8117
:1015F0009C810E94EB2CD6016D937D938D939C93DF
:1016000013976CD9F801608371838283938366D9C1
:10161000462F572FBC01E985FA85EC58FF4F4083D0
:1016200051836283738309851A8500591F4FF8011E
:1016300080819181A281B3814A015B01881A990A54
:10164000AA0ABB0A89829A82AB82BC82E985FA85A2
:10165000E858FF4F80819181A281B3818815990557
:10166000AA05BB0508F057C0D6012D913D914D91BB
:101670005C912D833E834F835887E984FA84B5E6D5
:10168000EB0EF11CE985FA85EC57FF4FFA87E987E5
:1016900020813181428153816D817E818F81988546
:1016A0000E94EA2C4B015C0169817A818B819C81CB
:1016B0000E94EC2D20E030E04AE754E469837A830D
:1016C0008B839C8369817A818B819C810E94532DBD
:1016D0009B01AC0189829A82AB82BC8269817A814A
:1016E0008B819C810E94532DD7016D937D938D93A7
:1016F0009C9313978D809E80AF80B884A985BA850E
:101700008D929D92AD92BC921397E8D8F8016083B8
:10171000718382839383D6018D909D90AD90BC9010
:10172000C501B4012A960FB6F894DEBF0FBECDBF37
:10173000DF91CF911F910F91FF90EF90DF90CF90AD
:10174000BF90AF909F908F907F906F900895098584
:101750001A850A5B1F4FD80113966D917C911497DF
:10176000636E71688C9172DC80EB94E03AD8F8017A
:10177000808147DCD80112962C91022E02C09695EA
:1017800087950A94E2F7222329F08115B8E09B0798
:1017900008F0906FE984FA84E4E5EE0EF11CD701BD
:1017A0008D939C93F80163817481636E716B80816A
:1017B0004DDC80EB94E015D8D8018C9122DCF80147
:1017C0002281022E02C0969587950A94E2F7222381
:1017D00029F08115F8E09F0708F0906FE985FA85F8
:1017E000EA5AFF4F918380834C01990FAA08BB08E6
:1017F00089829A82AB82BC82C501B4010E94EE2D1F
:101800005B018C01D7018D919C919C01990F440B38
:10181000550B29833A834B835C83CA01B9010E942B
:10182000EE2D9B01AC01A982BA820B831C836981D6
:101830007A818B819C810E94532DE985FA85E45B36
:10184000FF4F208131814281538169837A838B8369
:101850009C8369817A818B819C810E94A22EE9857B
:10186000FA85E455FF4F208131814281538169839C
:101870007A838B839C8369817A818B819C810E948E
:10188000A22EE985FA85E055FF4F20813181428102
:10189000538169837A838B839C8369817A818B816D
:1018A0009C810E94EA2CD6016D937D938D939C932D
:1018B0001397ADCEEF92FF920F931F93CF93DF93C9
:1018C00000D000D0CDB7DEB78D839E837A018B0127
:1018D000ED81FE81E058FF4F80819181A281B3812B
:1018E00089839A83AB83BC839A01AB01BC01CD0190
:1018F0000E944F2DAD81BE81AC53BF4FBE83AD83DF
:1019000087FF0BC089819A81AB81BC81ED81FE810B
:1019100080839183A283B38316C020E030E0A901C5
:10192000E982FA820B831C8369817A818B819C8195
:101930000E944F2D87FF14C0AD81BE811D921D9264
:101940001D921C92139726960FB6F894DEBF0FBE19
:10195000CDBFDF91CF911F910F91FF90EF90089530
:10196000C701D801D3CF4F925F926F927F928F922F
:101970009F92AF92BF92CF92DF92EF92FF920F931E
:101980001F93CF93DF9300D000D00F92CDB7DEB777
:1019900089EF92E090933F0780933E078BE6809318
:1019A00050078091F806843020F58091F3069091DD
:1019B000F406DC01ED91FC910084F185E02D199590
:1019C0008823A9F090913D078917C1F080933D07C6
:1019D0000E946E04DC01CB010596A11DB11D809310
:1019E000480790934907A0934A07B0934B0760E0DC
:1019F000D8C78091F5069091F606DBCF0E946E0461
:101A000069837A838B839C838091480790914907EF
:101A1000A0914A07B0914B0789809A80AB80BC8027
:101A200088169906AA06BB0610F310923D0780910E
:101A3000F906823050F0809105018F7B809305017B
:101A4000809105018F7D8093050110923C07809164
:101A5000F8061982843040F18091F5069091F606DF
:101A6000DC01ED91FC910084F185E02D1995892B25
:101A700009F441C08091F5069091F606DC01ED91E4
:101A8000FC910284F385E02D199590913C07E92F94
:101A9000F0E0ED50F94F81879F5F90933C079034C1
:101AA000D8F2B1E0B983D8CF8091F3069091F406D3
:101AB000DC01ED91FC910084F185E02D1995892BD5
:101AC000D1F08091F3069091F406DC01ED91FC9148
:101AD0000284F385E02D199590913C07E92FF0E001
:101AE000ED50F94F81879F5F90933C079034E0F26F
:101AF000B1E0B983D9CF8091400790914107019619
:101B000090934107809340078980882069F08091F5
:101B100044079091450701969093450780934407A9
:101B20008DEF8093FB0663CF80913C078983809380
:101B3000FB06873014F19090F7069D829091FC0689
:101B4000991155CF082F10E082500E945902F801D8
:101B5000ED50F94F378120852817390799F080918A
:101B60004407909145070196909345078093440759
:101B70002FEF298389808092FB06798175300CF0E4
:101B80000FC735CF8091FD06E7E0F2E098E09E0FA9
:101B90002191281709F4A2C69E13FACF2091440779
:101BA000309145072F5F3F4F3093450720934407FF
:101BB00021E0C0C62091FE063091FF063227232780
:101BC0003227F4E036952795FA95E1F79091500782
:101BD000921708F0B6C632E039838D808092FC06F9
:101BE00080588093FD0699809092FE0683E0809352
:101BF0003C070E948E04BECF2091FE063091FF0666
:101C00003227232790915007921708F09AC642E096
:101C10004983E3CF20910007309101073227232722
:101C200032274091FE065091FF065427452754273E
:101C3000240F351F90915007921708F082C652E08A
:101C40005983CBCF8F3009F409C1803109F0A8C680
:101C5000E091FF06409101071092000786E0809313
:101C60003C07A3EFB6E0F0E0EE0FFF1FE750FD4F9B
:101C700080E01296481709F4D8C01E969C911E97D2
:101C80001F962C911F97392F219331938F5FF1CF9E
:101C90002091FE063091FF063227232732274091FC
:101CA000000750910107542745275427BA01E3E064
:101CB00076956795EA95E1F7862F3A0197E06922D4
:101CC00077246114710411F081E0860F8093FE0681
:101CD00083E080933C07420F531F90E0812C912CAE
:101CE000540183942417350799F1E82FF0E0ED5063
:101CF000F94F118575016401092E04C0CC0CDD1C5F
:101D0000EE1CFF1C0A94D2F7D90163E0B695A795A3
:101D10006A95E1F7AE7FB170BD0167507D4FDB0181
:101D20006D917C91B22FBF7002C076956795BA9580
:101D3000E2F760FF0AC0C12AC1869F5F983010F0A9
:101D40008F5F90E02F5F3F4FCDCFC094C122F4CF83
:101D5000672849F480933C07B0913C07BE5FB98384
:101D60000E948E040ACF8F5FF5CF8091FE0690917E
:101D7000FF0698278927982F2091000730910107A7
:101D800032272327322F330F3093FE06E3E0280F4C
:101D90003327331F02E0802E8E0E8982A92FB0E0F8
:101DA000A217B307ACF4AA0FBB1FA750BD4F8C916D
:101DB00011964C91AE2FB0E0AD50B94F19964C939F
:101DC000EF5FF0E0ED50F94F81879F5FE82DE2CFA4
:101DD000E0933C07C5CF2091FE063091FF063227E5
:101DE00023273227F901B3E0F695E795BA95E1F795
:101DF000EE7FF170E750FD4F408151812F7081E0FF
:101E000090E0A0E0B0E004C0880F991FAA1FBB1F9C
:101E10002A95D2F7209100072F3F51F4842B952B60
:101E20009183808386E080933C070E948E04B8C52E
:101E30008095909584239523F3CFE091FF06F0E001
:101E4000EE0FFF1FE750FD4F209100073091010773
:101E500032272327322731832083E5CF8091FE0666
:101E60009091FF06982789279827209100073091A5
:101E70000107322723273227280F391F10E007E0F8
:101E8000C12CD12C7601C3948217930759F2FC011F
:101E900063E0F695E7956A95E1F7EE7FF170E7501C
:101EA000FD4FA080B180BA82A982482F4F704601B1
:101EB000570104C0880C991CAA1CBB1C4A95D2F778
:101EC000A401A02FB0E0AD50B94F1996AC91B0E08D
:101ED000012E02C0B595A7950A94E2F7A0FF0DC0A8
:101EE000A980BA804A295B29518340831F5F18303B
:101EF00010F00F5F10E00196C7CF409550956981B3
:101F00007A8146235723F0CF7ADAA70196016983B5
:101F10007A838B839C8369817A818B819C810E94E7
:101F2000EA2C20E030E0A90169837A838B839C83CB
:101F300069817A818B819C810E944F2D87FF8BC59F
:101F4000A701960160E070E080E89FE40E94EA2C1F
:101F50009B01AC0160E070E0CB010E94EA2C609331
:101F60007E0270937F02809380029093810273C5FA
:101F700007E113E0E8EEF3E0FA83E98369817A810F
:101F8000D8018D919D918D0172DAE981FA813496A3
:101F9000FA83E983E115F44089F729EF32E03A83C7
:101FA000298310E000E0B801A981BA818D919D914B
:101FB000BA83A9835CDA0C5F1F4F0431110599F7CE
:101FC000E3E0F3E0FA83E983B801A981BA818D9156
:101FD0009D91BA83A9834BDA0C5F1F4F083211051C
:101FE00099F74DE053E05A834983B801A981BA813A
:101FF0008D919D91BA83A9833ADA0C5F1F4F0C3300
:10200000110599F76CE370E080916B0390916C037C
:102010002EDA60E470E080916D0390916E0327DA10
:1020200064E470E08091790390917A0320DA68E4A7
:1020300070E080917B0390917C0319DA6CE470E08E
:102040008091A7039091A80312DA60E570E0809177
:10205000A9039091AA030BDA64E570E08091AB03C9
:102060009091AC0304DA68E570E080917D03909173
:102070007E03FDD96CE570E08091C9039091CA039D
:10208000F6D960E670E08091CB039091CC03EFD954
:10209000EDEAF3E0FA83E98304E610E0B801A981F0
:1020A000BA818D919D91BA83A983E1D90C5F1F4FAD
:1020B0000837110599F7E7EBF3E0FA83E983B801F4
:1020C000A981BA818D919D91BA83A983D0D90C5FE2
:1020D0001F4F0C38110599F7BEC491D9A70196017D
:1020E00069837A838B839C8369817A818B819C81CC
:1020F0000E94EA2C20E030E0A90169837A838B8377
:102100009C8369817A818B819C810E944F2D87FFFE
:1021100017C0A701960160E070E080E89FE40E948C
:10212000EA2C9B01AC0160E070E0CB010E94EA2C3C
:10213000609382027093830280938402909385025D
:1021400020E030E04FE254E4609186027091870213
:1021500080918802909189020E949E2E181644F464
:1021600010928602109287021092880210928902C1
:1021700020E030E040E251E46091860270918702F5
:1021800080918802909189020E94A22E69837A83AD
:102190008B839C8369817A818B819C810E94C02D75
:1021A0007093C8036093C7030E940E03892B09F440
:1021B0001EC181E090E09093C2038093C10380919F
:1021C000850390918603AC0170E060E049835A83F7
:1021D0006B837C83CB01BA010E94EC2D8B018F8332
:1021E0009D838091C9039091CA034C01B12CA12C0D
:1021F00089829A82AB82BC82C501B4010E94EC2D17
:1022000026E636E646E85FE369837A838B839C8320
:1022100069817A818B819C810E94A22E9B01AC01F5
:1022200009831A839F809B82AD80AC8269817A8109
:102230008B819C810E949E2E18160CF036C38091D3
:10224000810390918203019709F02FC30091CB0382
:102250001091CC03809100028F3309F4CDC08F3FE1
:1022600009F4D2C027960FB6F894DEBF0FBECDBFDB
:10227000DF91CF911F910F91FF90EF90DF90CF9062
:10228000BF90AF909F908F907F906F905F904F9096
:1022900008956091D8067091D906636071602091AD
:1022A000D3063091D406622B732B823009F48BC095
:1022B000833009F48AC0813009F483C0706480914E
:1022C000DA069091DB06A091DC06B091DD068983E9
:1022D0009A83AB83BC8370688091D0060E942608E5
:1022E00020E030E040E251E469817A818B819C8179
:1022F0000E944F2D87FF6BC020E030E04AE754E496
:1023000069817A818B819C810E94A22E69837A8364
:102310008B839C8369817A818B819C810E94BB2DF8
:10232000CB010E94F1038091D0060E940108209108
:10233000D20602C0969587952A95E2F79C0150E057
:1023400040E029833A834B835C83CA01B9010E9430
:10235000EC2D2091DE063091DF064091E006509191
:10236000E10669837A838B839C8369817A818B817F
:102370009C810E94A22E2091E2063091E3064091BA
:10238000E4065091E50669837A838B839C83698197
:102390007A818B819C810E94EA2C462F572FBC01A9
:1023A0004093EA065093EB066093EC067093ED06BB
:1023B000409386025093870260938802709389024B
:1023C000BFCE70657CCF70667ACF706778CF698139
:1023D0007A818B819C810E94BB2D4B01092C000CC2
:1023E000AA08BB08C501B4010E942F049CCF10921B
:1023F000C2031092C103E3CEE4EEF0E0B490B982E0
:10240000898087FC2FCF30C08FE380930002E4EEF9
:10241000F0E084908982282D2F3F09F423CF2330C8
:1024200009F427C108F0C0C0213009F4E2C022300D
:1024300009F4FDC08110E4CF14BC15BC84B58260E2
:1024400084BD85B5816085BDE2E7F1E0E491F0E00F
:10245000EE0FFF1FE150FF4F85919491E8EBF1E003
:10246000E491E0938E02198261E08FE30E945E03A3
:10247000980150E040E089818D7F09F067C160E0FC
:1024800074E284EF90E00E94AC2CDA01C901B595AA
:10249000A795979587950197A109B1098F3F910558
:1024A000A105B10509F00CF424C1DA01C90164E009
:1024B000B595A795979587956A95D1F70197A10945
:1024C000B1096981623009F010C18F3F9105A10502
:1024D000B10509F00CF49EC4DA01C90106E0B59516
:1024E000A795979587950A95D1F70197A109B10905
:1024F00063E08F3F9105A105B10509F008F4FAC02A
:10250000DA01C90117E0B595A795979587951A95B2
:10251000D1F70197A109B1098980882009F493C4F2
:10252000682D623009F0E3C08F3F9105A105B10528
:1025300009F00CF471C4BB2757FDBA95A52F942F51
:10254000832F0197A109B10965E08F3F9105A1058E
:10255000B10509F008F4CEC0DA01C901E9E0B5958A
:10256000A79597958795EA95D1F70197A109B109A4
:102570008980811053C48F3F9105A105B10509F0F1
:1025800008F4CCC0DA01C9017BE0B595A795979511
:1025900087957A95D1F70197A109B109998067E0EC
:1025A0009110ABC065E0BBC03981343009F47FC005
:1025B000353009F025CF1092200110922101809131
:1025C00021018860809321018091210181608093A5
:1025D0002101E2E7F1E0E491F0E0EE0FFF1FE150AE
:1025E000FF4F85919491E8EBF1E0E491E0938A024A
:1025F0003BCF109280001092810080918100886012
:102600008093810080918100816080938100E2E766
:10261000F1E0E491F0E0EE0FFF1FE150FF4F8591F4
:102620009491E8EBF1E0E491E0938D021DCF1092DC
:10263000B0001092B1008091B00082608093B00031
:102640008091B10081608093B100E2E7F1E0E49114
:10265000F0E0EE0FFF1FE150FF4F859194919093B2
:10266000E9028093E802E8EBF1E0E491E093EA020A
:10267000FBCE1092900010929100809191008860A2
:102680008093910080919100816080939100E2E7B6
:10269000F1E0E491F0E0EE0FFF1FE150FF4F859174
:1026A0009491E8EBF1E0E491E0938C02DDCE10929E
:1026B000A0001092A1008091A10088608093A100E9
:1026C0008091A10081608093A100E2E7F1E0E491B4
:1026D000F0E0EE0FFF1FE150FF4F85919491E8EB82
:1026E000F1E0E491E0938B02BFCE62E002CF64E0C0
:1026F0002CCF61E0A980AA2091F02091B100287F21
:10270000322F362B3093B1003981323009F4BAC000
:10271000332351F0313009F0A5CD36C064E025B542
:10272000287F322F362B35BD87BD8FEF9FEFDC0121
:1027300080939F029093A002A093A102B093A20263
:1027400080916E00826080936E008CCD60E074E2B8
:1027500084EF90E00E94AC2CDA01C901B595A795F1
:10276000979587950197A109B109009761E0A607A0
:10277000B105FCF431E07981713049F52091810097
:10278000287F232B209381009093890080938800D9
:102790008FEF9FEFDC0180939B0290939C02A093AC
:1027A0009D02B0939E0280916F00826080936F00C3
:1027B00059CDDA01C90127E0B595A7959795879579
:1027C0002A95D1F70197A109B10933E0D4CFE98166
:1027D000E330D9F420919100287F232B209391009E
:1027E00090939900809398008FEF9FEFDC01809386
:1027F000970290939802A0939902B0939A028091C5
:1028000071008260809371002DCDF981F430D9F48C
:102810002091A100287F232B2093A1009093A90051
:102820008093A8008FEF9FEFDC0180939302909339
:102830009402A0939502B0939602809172008260F8
:10284000809372000FCD2981253009F0F0C22091CC
:102850002101287F232B209321019093290180932C
:1028600028018FEF9FEFDC0180938F0290939002FD
:10287000A0939102B0939202809173008260809342
:102880007300F0CC8093B3008FEF9FEFDC01809357
:10289000EB029093EC02A093ED02B093EE028091D4
:1028A0007000826080937000DDCC8FE327960FB6B6
:1028B000F894DEBF0FBECDBFDF91CF911F910F9176
:1028C000FF90EF90DF90CF90BF90AF909F908F9050
:1028D0007F906F905F904F900C946705863009F45D
:1028E0008BC950F5853009F465C9833008F092C969
:1028F000882339F12091FE063091FF0632272327E5
:102900003227A901A4E056954795AA95E1F72091B1
:10291000000730910107322723273227B4E036958C
:102920002795BA95E1F7240F351F9091500792171C
:1029300040F422E0298351C98F30E1F2803109F45B
:1029400069C90E946E0469837A838B839C8380911A
:1029500046079091470729813A814B815C81280F76
:10296000391F411D511DDA01C90180934C07909315
:102970004D07A0934E07B0934F071092FB0680912E
:10298000FD06863009F459CA08F05CC9853009F49F
:1029900022CA833008F0E9C98150823008F478C92E
:1029A00061E08BE30E9431030E94FF09C0907E0228
:1029B000D0907F02E0908002F0908102A701960102
:1029C00069837A838B839C8369817A818B819C81E3
:1029D0000E94EA2C8B018F839D8380917D039091CF
:1029E0007E034C01B12CA12C89829A82AB82BC82DD
:1029F000C501B4010E94EC2D20E030E040E251E43A
:102A000069837A838B839C8369817A818B819C81A2
:102A10000E94532D9B01AC0109831A839F809B82E6
:102A2000AD80AC8269817A818B819C810E949E2ECF
:102A300087FD6ACA0E94FF0960937E0270937F023D
:102A40008093800290938102809181039091820310
:102A5000019709F08DCAE091CD06F091CE068080F5
:102A600091809E828D82F401E659FF4F118210827F
:102A700080911B0390911C039C0150E040E029834E
:102A80003A834B835C83CA01B9010E94EC2D20E09C
:102A900030E048EC52E469837A838B839C836981BC
:102AA0007A818B819C810E94532D2B018C01809116
:102AB000190390911A03AC0170E060E049835A83D6
:102AC0006B837C83CB01BA010E94EC2D20E030E0C7
:102AD00048EC52E469837A838B839C8369817A8191
:102AE0008B819C810E94532D3B014C0180911703E7
:102AF000909118039C0150E040E029833A834B8376
:102B00005C83CA01B9010E94EC2D20E030E048EC62
:102B100052E469837A838B839C8369817A818B8178
:102B20009C810E94532DF62FE72FAD81BE81A056C8
:102B3000BF4F462F572FBC014D935D936D937C93F0
:102B40001397AD81BE81AC55BF4FA301B4014D9326
:102B50005D936D937C931397AD81BE81A855BF4F54
:102B6000A201B8014D935D936D937C931397AD8152
:102B7000BE815A96AD90BC905B976201780183014B
:102B800094014F2F5E2FBC01CD010E945F08E091A0
:102B9000CD06F091CE06808091809E828D82840148
:102BA00004551F4F80911D0390911E039C0150E01E
:102BB00040E029833A834B835C83CA01B9010E94B8
:102BC000EC2D20E030E04AE754E469837A838B837C
:102BD0009C8369817A818B819C810E94532DD801CD
:102BE0006D937D938D939C9313970C5F1F4F8091F2
:102BF0001F03909120034C01B12CA12C89829A8251
:102C0000AB82BC82C501B4010E94EC2D20E030E013
:102C100048EC52E469837A838B839C8369817A814F
:102C20008B819C810E94532DD8016D937D938D9350
:102C30009C93139780912103909122034C01B12C16
:102C4000A12C89829A82AB82BC82C501B4010E9408
:102C5000EC2DED81FE81E454FF4F462F572FBC0130
:102C60004083518362837383ED81FE81E45BFF4F78
:102C70004083518362837383ED81FE81E058FF4F6F
:102C800080E090E0A6E9B3E480839183A283B383DC
:102C90008091810390918203019721F08D819E8123
:102CA0000E94510AE091CD06F091CE06808091807D
:102CB0009E828D82F401E857FF4F20E030E040E231
:102CC00051E460817181828193810E94A22E698387
:102CD0007A838B839C8369817A818B819C810E941A
:102CE000C02D7093860360938503F401E457FF4F72
:102CF000D401A458BF4F2D913D914D915C916081BD
:102D00007181828193810E94532D20E030E048EC54
:102D100052E469837A838B839C8369817A818B8176
:102D20009C810E94A22E20E030E040E251E46983C1
:102D30007A838B839C8369817A818B819C810E94B9
:102D4000A22E69837A838B839C8369817A818B81AC
:102D50009C810E94C02D7093940360939303809193
:102D60006B0390916C039C0150E040E029833A830F
:102D70004B835C83CA01B9010E94EC2D20E030E056
:102D800040E251E469837A838B839C8369817A81F1
:102D90008B819C810E94532D462F572FBC01C4016B
:102DA0000E945A0C0E94FF09C0908202D0908302B8
:102DB000E0908402F0908502A701960169837A83EE
:102DC0008B839C8369817A818B819C810E94EA2C10
:102DD00020E030E040E85FE369837A838B839C8363
:102DE00069817A818B819C810E949E2E87FD75C9A5
:102DF0000E94FF0960938202709383028093840291
:102E0000909385028091D506843008F442CA90E000
:102E100080E094CA62E071CC64E06FCC66E08F3FE2
:102E20009105A105B10509F008F467CCABCB398158
:102E300034300CF469CC4981443009F4EFCC45308E
:102E400009F40BCD0FCA63E08F3F9105A105B105D1
:102E500011F008F081CB63CCFF920F931F93CF93B7
:102E6000DF93EB0108EB10E0F801F0802CE0208309
:102E7000FC01808191E09093F8038093F903109214
:102E8000420410924104E091BD06F091BE0601900B
:102E9000F081E02D60E48DEB96E01995CE0124E001
:102EA000969587952A95E1F70E94EE01CE0134E0D0
:102EB000880F991F3A95E1F799270E94EE010E9429
:102EC000A701F801F082DF91CF911F910F91FF9040
:102ED00008952F923F924F925F926F927F928F92BE
:102EE0009F92AF92BF92CF92DF92EF92FF920F9399
:102EF0001F93CF93DF93CDB7DEB763970FB6F894E8
:102F0000DEBF0FBECDBFE091CD06F091CE06808131
:102F100091819F878E87DC01DA968C91DA978111F7
:102F200049C05E96ED91FC9180819181A281B3812F
:102F300089839A83AB83BC83EE85FF8586A397A3A1
:102F4000A0A7B1A7048CF58DE02D80819181A2818D
:102F5000B381EE85FF8582A793A7A4A7B5A7C6A8CE
:102F6000D7A8E0ACF1ACA701960169817A818B8189
:102F70009C810E949E2E18164CF4AE85BF859696B5
:102F8000CD92DD92ED92FC92999710C0EE85FF856F
:102F9000C2A8D3A8E4A8F5A8A701960169817A81FF
:102FA0008B819C810E944F2D87FDE7CF81E0EE85CC
:102FB000FF8582AF8E859F850E94510AAE85BF85B1
:102FC000DA968C91882309F44BC10E946E044B0160
:102FD0005C01EE85FF8582A193A1A4A1B5A1B501F5
:102FE000A401481B590B6A0B7B0B86A597A5A0A9CA
:102FF000B1A9481759076A077B0708F431C1048C47
:10300000F58DE02D80819181A281B3818D839E8396
:10301000AF83B887AE85BF859096ED91FC912D81E9
:103020003E814F81588560817181828193810E94A8
:10303000EA2C362EC72ED82E9987EE85FF8522A53D
:1030400033A544A555A56D817E818F8198850E9409
:10305000EA2C6A877B878C879D87AE85BF855096D3
:103060002D913D914D915C9153973982CA82DB82BB
:10307000B985BC8369817A818B819C810E94A22E53
:10308000EE85FF8526A137A140A551A569837A83E6
:103090008B839C8369817A818B819C810E94EB2C3C
:1030A0007B018C01CB01D801EE85FF8586A397A318
:1030B000A0A7B1A723AC211028C02485358546855B
:1030C0005785FA85F9838B858A839C859B83AD859B
:1030D000AC8369817A818B819C810E94A22E9B01A5
:1030E000AC01E982FA820B831C8369817A818B812E
:1030F0009C810E94EA2C688B798B8A8B9B8BEE8556
:10310000FF8566A377A380A791A7AE85BF85969616
:103110008D919D910D90BC91A02D89839A83AB8355
:10312000BC83EE85FF85E6A8F7A800AD11AD970139
:10313000A801BC01CD010E949E2E18160CF0BEC045
:10314000C701D801EE85FF8586A397A3A0A7B1A7E5
:10315000222009F4CCC0AE85BF851C962D913D91EF
:103160004D915C911F973982CA82DB82B985BC83FD
:1031700069817A818B819C810E94A22E3B016C0126
:10318000EE85FF852489358946895789FA85F98333
:103190008B858A839C859B83AD85AC8369817A818D
:1031A0008B819C810E94A22E9B01AC01EE85FF8544
:1031B00066A177A180A591A50E94EA2C9301A601A2
:1031C00069837A838B839C8369817A818B819C81DB
:1031D0000E94EB2C3B016C019B01AC01E982FA825D
:1031E0000B831C8369817A818B819C810E944F2D86
:1031F00087FD1DC0AE85BF85D296EC90D297D39641
:10320000FC90D397D4960C91D497D5961C919701A6
:10321000A80169827A82CB82DC8269817A818B8182
:103220009C810E944F2D87FD02C073018601AE85EF
:10323000BF855E96ED91FC91C701D8018083918393
:10324000A283B3838D819E81AF81B885EE85FF8592
:1032500082A793A7A4A7B5A782A293A2A4A2B5A26E
:10326000EE85FF85E759FF4F8081811145C0EE85CE
:10327000FF85E457FF4F60817181828193810E94B5
:10328000C02D8E859F858C599F4F63960FB6F894FD
:10329000DEBF0FBECDBFDF91CF911F910F91FF9089
:1032A000EF90DF90CF90BF90AF909F908F907F90E6
:1032B0006F905F904F903F902F90CECDAE85BF85A1
:1032C000D2964D905D906D907C90D597A301920120
:1032D00069817A818B819C810E944F2D87FF38CF35
:1032E000EE85FF8546A257A260A671A631CF612C5C
:1032F000712CC12CD12C44CF63960FB6F894DEBF4D
:103300000FBECDBFDF91CF911F910F91FF90EF9036
:10331000DF90CF90BF90AF909F908F907F906F90F5
:103320005F904F903F902F900895E091CD06F091DF
:10333000CE060190F081E02D82AD811112AEDF0149
:10334000A457BF4F1D921D921D921C9213979397E5
:103350008C91811106C070E060E0CF018C599F4FC5
:103360007BCD0895C82FE1DFD0E0D093A403C093B4
:10337000A30361E08AE00E94310361E08BE00E94D8
:10338000310360E08CE00E9431030E94B30CFDCF5A
:103390000895BC01009791F0FC0101900020E9F72D
:1033A0003197AF01481B590BE0912006F09121069F
:1033B0000280F381E02D80E296E0199490E080E0B5
:1033C00008954F925F926F927F928F929F92AF92E9
:1033D000BF92CF92DF92EF92FF920F931F93CF9302
:1033E000DF93CDB7DEB7A1970FB6F894DEBF0FBE5F
:1033F000CDBF762E672E582E492E19A2423008F4E2
:103400004AE08E010F5D1F4FC42ED12CF12CE12C10
:10341000672D762D852D942DA70196010E94C82C2D
:10342000872C962CA52CB42C722E632E542E452E50
:103430006A3014F5605DF80162938F018C149D046D
:10344000AE04BF0428F7CF01A4DFA1960FB6F8940D
:10345000DEBF0FBECDBFDF91CF911F910F91FF90C7
:10346000EF90DF90CF90BF90AF909F908F907F9024
:103470006F905F904F900895695CDDCF9F92AF92FF
:10348000BF92CF92DF92EF92FF920F931F93CF9351
:10349000DF9300D000D000D00F92CDB7DEB78B0104
:1034A0009C0109831A832B833C83142F29813A8141
:1034B0004B815C81CA01B9010E94052F8823A1F0CC
:1034C00083E392E02A960FB6F894DEBF0FBECDBF1D
:1034D000DF91CF911F910F91FF90EF90DF90CF90F0
:1034E000BF90AF909F9055CF89819A81AB81BC816D
:1034F000BF778D839E83AF83B8872FEF3FEF4FE772
:103500005FE7BC01CD010E94052F81110FC02FEF95
:103510003FEF4FE75FE76D817E818F8198850E9445
:103520004F2D18161CF487E392E0CCCF2FEF3FEF1E
:103530004FE75FE469817A818B819C810E949E2E96
:1035400018161CF48BE392E0BDCF2FEF3FEF4FE74F
:103550005FEC69817A818B819C810E944F2D87FD70
:10356000F1CF20E030E0A90169817A818B819C81D3
:103570000E944F2D87FF2DC0E0912006F09121067B
:103580000190F081E02D6DE280E296E01995898747
:103590009A8789819A81AB81BC81B05889839A834B
:1035A000AB83BC8300E060E070E080E09FE3101735
:1035B00099F020E030E040E251E46D837E838F8318
:1035C00098876D817E818F8198850E94532D0F5F32
:1035D000EECF1A861986E6CF29813A814B815C812C
:1035E00069837A838B839C8369817A818B819C81B7
:1035F0000E94EB2C69837A838B839C8369817A8117
:103600008B819C810E94C02D6B017C010E94EC2D5E
:103610009B01AC0169817A818B819C810E94EA2C9B
:10362000962EA72EB82E092F4AE0B601C701C9DE93
:10363000A985BA85A80FB91FBE83AD83112389F070
:10364000E0912006F09121060190F081E02D6EE2DC
:1036500080E296E019952D813E81280F391F3E8327
:103660002D83115008F44AC020E030E040E251E4DC
:103670009982AA82BB820C8369817A818B819C8129
:103680000E94A22ED62EE72EF82E092F69837A8368
:103690008B839C8369817A818B819C810E94C02D60
:1036A00069837A838B839C83A981BA81CD01B0E041
:1036B000A0E089839A83AB83BC834AE0BC01CD013F
:1036C00080DE2D813E81280F391F3E832D83698145
:1036D0007A818B819C810E94EC2D9B01AC01D98267
:1036E000EA82FB820C8369817A818B819C810E94B2
:1036F000EA2C962EA72EB82E092FB3CF8D819E814E
:103700002A960FB6F894DEBF0FBECDBFDF91CF91E2
:103710001F910F91FF90EF90DF90CF90BF90AF90EF
:103720009F9008951F921FB61F9211242F933F93CD
:103730008F939F93AF93BF938091D0039091D103C8
:10374000A091D203B091D3033091CF0323E0230F94
:103750002D3750F50196A11DB11D2093CF03809305
:10376000D0039093D103A093D203B093D30380915D
:10377000D4039091D503A091D603B091D7030196BD
:10378000A11DB11D8093D4039093D503A093D603BC
:10379000B093D703BF91AF919F918F913F912F919C
:1037A0001F901FBE1F90189526E8230F0296A11D9B
:1037B000B11DD3CF1F920F920FB60F9211240BB6EB
:1037C0000F922F933F934F935F936F937F938F93BA
:1037D0009F93AF93BF93EF93FF938091EB029091F0
:1037E000EC02A091ED02B091EE02892B8A2B8B2B7B
:1037F000E1F19091EA02E091E802F091E902808122
:10380000892780838091EB029091EC02A091ED02D8
:10381000B091EE02181619061A061B069CF4809148
:10382000EB029091EC02A091ED02B091EE020197B3
:10383000A109B1098093EB029093EC02A093ED02F1
:10384000B093EE02FF91EF91BF91AF919F918F9155
:103850007F916F915F914F913F912F910F900BBE90
:103860000F900FBE0F901F901895809100020E943C
:103870006705E8CF1F920F920FB60F9211240BB677
:103880000F922F933F934F935F936F937F938F93F9
:103890009F93AF93BF93EF93FF9389E494E00E94CB
:1038A0004E06FF91EF91BF91AF919F918F917F91C4
:1038B0006F915F914F913F912F910F900BBE0F90A1
:1038C0000FBE0F901F9018951F920F920FB60F9278
:1038D00011240BB60F922F933F934F935F936F93E7
:1038E0007F938F939F93AF93BF93EF93FF9389E45D
:1038F00094E00E94D505FF91EF91BF91AF919F9108
:103900008F917F916F915F914F913F912F910F9088
:103910000BBE0F900FBE0F901F9018951F920F9225
:103920000FB60F9211240BB60F922F933F934F9324
:103930005F936F937F938F939F93AF93BF93EF9317
:10394000FF9386EE94E00E944E06FF91EF91BF91A7
:10395000AF919F918F917F916F915F914F913F9127
:103960002F910F900BBE0F900FBE0F901F901895C8
:103970001F920F920FB60F9211240BB60F922F9336
:103980003F934F935F936F937F938F939F93AF93E7
:10399000BF93EF93FF9386EE94E00E94D505FF91CD
:1039A000EF91BF91AF919F918F917F916F915F91B7
:1039B0004F913F912F910F900BBE0F900FBE0F9024
:1039C0001F9018951F920F920FB60F9211240BB6ED
:1039D0000F922F933F934F935F936F937F938F93A8
:1039E0009F93AF93BF93EF93FF9383E895E00E947B
:1039F0004E06FF91EF91BF91AF919F918F917F9173
:103A00006F915F914F913F912F910F900BBE0F904F
:103A10000FBE0F901F9018951F920F920FB60F9226
:103A200011240BB60F922F933F934F935F936F9395
:103A30007F938F939F93AF93BF93EF93FF9383E80D
:103A400095E00E94D505FF91EF91BF91AF919F91B5
:103A50008F917F916F915F914F913F912F910F9037
:103A60000BBE0F900FBE0F901F9018951F920F92D4
:103A70000FB60F9211240BB60F922F933F934F93D3
:103A80005F936F937F938F939F93AF93BF93EF93C6
:103A9000FF9380E296E00E944E06FF91EF91BF9166
:103AA000AF919F918F917F916F915F914F913F91D6
:103AB0002F910F900BBE0F900FBE0F901F90189577
:103AC0001F920F920FB60F9211240BB60F922F93E5
:103AD0003F934F935F936F937F938F939F93AF9396
:103AE000BF93EF93FF9380E296E00E94D505FF918C
:103AF000EF91BF91AF919F918F917F916F915F9166
:103B00004F913F912F910F900BBE0F900FBE0F90D2
:103B10001F9018951F920F920FB60F9211240BB69B
:103B20000F922F933F934F935F936F937F938F9356
:103B30009F93AF93BF93EF93FF939091B900892F19
:103B4000887F803509F4C3C008F044C0803309F48D
:103B5000B9C0A8F5883111F1E0F4883009F4AAC0A1
:103B6000803109F4A7C0882309F4F3C0FF91EF91D5
:103B7000BF91AF919F918F917F916F915F914F9185
:103B80003F912F910F900BBE0F900FBE0F901F9083
:103B90001895803209F496C0883241F790911D043F
:103BA00080911C04981780F5E0911D0481E08E0F30
:103BB00080931D04F0E0E450FC4F80817DC0803490
:103BC00009F491C0883409F47FC0883379F6809372
:103BD0001E046EC0803A09F4A0C0C0F5803809F414
:103BE0008AC058F5803619F1E0F4883509F0BECF67
:103BF000E0911D0481E08E0F80931D048091BB0035
:103C0000F0E0E450FC4F808380911F0481115CC080
:103C100081E08093FA0384EA8093BC001092200430
:103C2000A5CF803721F0987E983609F09FCF83E0AA
:103C3000809320041092E70241C0803909F45BC0F0
:103C4000987E983809F092CF85E839C0883BD9F042
:103C500058F5883A19F0803B09F088CF84E08093CA
:103C600020041092C6021092C502E0914504F09122
:103C7000460419958091C502811105C081E08093A9
:103C8000C5021092A502E091C60281E08E0F8093DA
:103C9000C602F0E0EB55FD4F80818093BB00909110
:103CA000C6028091C50223C0907F903C09F05ECF90
:103CB00085ECB2CF8091FB038093BB0085EC8093B1
:103CC000BC0054CF80931E040E94FC064FCFE091AD
:103CD0001D0481E08E0F80931D048091BB00F0E0F5
:103CE000E450FC4F808390911D0480911C04981730
:103CF00008F0AACFE3CF8091E702803208F0A4CF8A
:103D0000E091E70281E08E0F8093E7028091BB0093
:103D1000F0E0E953FD4F8083D1CF85EC8093BC0068
:103D2000109220048091E702803230F4E091E702A3
:103D3000F0E0E953FD4F10826091E70270E0E091FE
:103D40004704F091480487EC92E019951092E7023D
:103D50000DCF10921E04B8CF18951F93CF93DF9309
:103D6000E9E4F4E01382128288EE93E0A0E0B0E090
:103D700084839583A683B78323E132E03183208354
:103D800045E351E05587448744E351E05787468730
:103D900040E351E0518B408B41E351E0538B428B28
:103DA00042E351E0558B448B46E351E0578B468B01
:103DB000118E128E138E148EE6EEF4E013821282B0
:103DC00084839583A683B7833183208345ED50E0B8
:103DD0005587448744ED50E05787468740ED50E0D3
:103DE000518B408B41ED50E0538B428B42ED50E0C4
:103DF000558B448B46ED50E0578B468B118E128EBF
:103E0000138E148EE3E8F5E0138212828483958387
:103E1000A683B783318320834DEC50E055874487D8
:103E20004CEC50E05787468748EC50E0518B408B74
:103E300049EC50E0538B428B4AEC50E0558B448B5D
:103E40004EEC50E0578B468B118E128E138E148ED3
:103E5000E0E2F6E01382128284839583A683B7831F
:103E60003183208325EC30E03587248724EC30E053
:103E70003787268720EC30E0318B208B21EC30E037
:103E8000338B228B22EC30E0358B248B26EC30E018
:103E9000378B268B118E128E138E148EEDEBF6E07F
:103EA0001382128284839583A683B78385E292E08E
:103EB0009183808310925207E3EFF6E081E08483E0
:103EC00083E0858312E0168388EE93E090934707A2
:103ED00080934607EEEEF6E0148213828AE4808334
:103EE00088E08183128285E0A0EDB6E001900D921A
:103EF0008A95E1F7C0EDD6E080E090E0AAE7B3E470
:103F00008A8B9B8BAC8BBD8B0E9449071D831F82C4
:103F10001E820E947702E9ECF6E011821082138281
:103F2000128215821482DF91CF911F910895CDB72F
:103F3000DEB7E2970FB6F894DEBF0FBECDBF0E948A
:103F40008F0382E390E09093A2038093A10360E04B
:103F500086E30E945E0361E089E00E945E0361E007
:103F60008FE30E945E0361E08AE00E945E0360E0EE
:103F70008AE00E94310361E08BE00E945E0360E012
:103F80008BE00E94310361E08CE00E945E0361E0FF
:103F90008CE00E94310361E08BE30E945E0361E0EC
:103FA0008BE30E94310361E088E00E945E0340E2FF
:103FB00051EA67E070E080E296E00E94F90183E652
:103FC0008093CF060E9449078091D6069091D7062C
:103FD0009093D4068093D3060E94770280EE90E0FF
:103FE0009093D9068093D8068AE999E9A9E9BFE3B5
:103FF0008093DA069093DB06A093DC06B093DD068F
:1040000080E5809351070E944907FF24F394F092C2
:10401000F8038CE78093F903109242041092410454
:104020006091510770E0660F771FE091BD06F09137
:10403000BE060190F081E02D8DEB96E0199580E0B1
:104040000E949A0163E08CE70E94A9011092440447
:10405000809343048DEB96E00E9464078C018DEB06
:1040600096E00E94640789839A838DEB96E00E9414
:104070006407A4E0000F111FAA95E1F7007F1F70ED
:1040800029813A81B4E035952795BA95E1F72F70EB
:104090003327022B132B0A30110509F445C58FE392
:1040A00092E077D99801110F440B550B29833A837D
:1040B0004B835C8340E169817A818B819C8181D9CA
:1040C0008EE592E066D98091F806823009F446C503
:1040D000833009F446C5813009F046C583E895E090
:1040E0009093F4068093F30640E052EC61E070E0B8
:1040F0008091F3069091F4060E94F9018091F906EF
:10410000823078F080910401806680930401809170
:1041100005018F7B80930501809105018F7D809340
:1041200005018091F3069091F406DC01ED91FC917C
:104130000284F385E02D199597FFF3CF10923C0789
:1041400010923D07109245071092440710924307C2
:1041500010924207109241071092400707E113E0C6
:10416000E8EEF3E0FA83E98389819A810E94250AC7
:10417000D8018D939D938D01E981FA813496FA835C
:10418000E983E115F44081F709EF12E01A82198200
:1041900089819A810E94250AD8018D939D938D0172
:1041A000E981FA813496FA83E983749789F703E009
:1041B00013E089819A810E94250AD8018D939D93ED
:1041C0008D01E981FA813496FA83E983B89789F7FA
:1041D0000DE013E089819A810E94250AD8018D9310
:1041E0009D938D01E981FA813496FA83E983FC97E6
:1041F00089F78CE390E00E94250A90936C038093EA
:104200006B0380E490E00E94250A90936E038093F4
:104210006D0384E490E00E94250A90937A038093D2
:10422000790388E490E00E94250A90937C038093B0
:104230007B038CE490E00E94250A9093A80380936E
:10424000A70380E590E00E94250A9093AA0380933B
:10425000A90384E590E00E94250A9093AC03809323
:10426000AB0388E590E00E94250A90937E0380933B
:104270007D038CE590E00E94250A9093CA03809309
:10428000C90380E690E00E94250A9093CC038093B6
:10429000CB030DEA13E024E630E03A8329838981D9
:1042A0009A810E94250AD8018D939D938D01E98101
:1042B000FA813496FA83E983E837F10581F707EB51
:1042C00013E089819A810E94250AD8018D939D93DC
:1042D0008D01E981FA813496FA83E983EC38F1059E
:1042E00081F788EC90E00E94792B8D8F9E8FED8D69
:1042F000FE8DE259FF4FE080F180ED8DFE8DE85597
:10430000FF4F208131814281538129833A834B833E
:104310005C83ED8DFE8DEC55FF4F80819181A281F4
:10432000B3818D8B9E8BAF8BB88FED8DFE8DE0565C
:10433000FF4F2081318142815381298F3A8F4B8FEA
:104340005C8F8D8D9E8D84579F4FAD8DBE8D5F96FA
:104350009C938E935E97CD0188579F4F5D969C935B
:104360008E935C97CC9691969C938E939097DA96C9
:104370001C92DA9700E010E02FE733E440E050E0D1
:10438000BA01CD010E94380984E690E0A0E0B0E0D7
:10439000ED8DFE8D86A797A7A0ABB1AB82AD88232C
:1043A00009F445C0808D918DE816F90609F43FC0E7
:1043B000248535854685578560E070E0CB010E94F5
:1043C000EA2C6F8F78A389A39AA3AD8DBE8D1C961E
:1043D0006D937D938D939C931F9750962D913D9156
:1043E0004D915C91539760E070E0CB010E94EA2C04
:1043F0006BA37CA38DA39EA3ED8DFE8D608B718B33
:10440000828B938B248935894689578960E070E0D7
:10441000CB010E94EA2C6FA378A789A79AA7AD8D3C
:10442000BE8D54966D937D938D939C935797ED8D90
:10443000FE8DF18EE08E20E030E0A901698D7A8D4D
:104440008B8D9C8D0E944F2D87FD29C020E030E090
:10445000A9016D897E898F89988D0E944F2D87FDD6
:104460001EC020E030E0A90169817A818B819C81A6
:104470000E944F2D87FD13C0AA24A394B12CC9809C
:10448000DA80EB80FC800D891E892F89388D498D5B
:104490005A8D6B8D7C8D8D8D9E8D0E945F080E9444
:1044A0006E0469837A838B839C83ED8DFE8D86A554
:1044B00097A5A0A9B1A929813A814B815C81281BCC
:1044C000390B4A0B5B0BDA01C90182A393A3A4A3A6
:1044D000B5A382E391E1A0E8BBE384AF95AFA6AFBB
:1044E000B7AFE05CFF4F8FE795E0ABE1B5EB8083C2
:1044F0009183A283B3838D8C9E8CF6E48F0E911CE6
:10450000D40114961C921E92139788E48C9398E021
:1045100011969C93119712961C92ED8DFE8DE05A88
:10452000FF4F1082118212821382ED8DFE8DEC5BA3
:10453000FF4F8083ED8DFE8DEB5BFF4FFA83E983A8
:1045400082E68083ED8DFE8DEC59FF4F8091CF0682
:104550008083ED8DFE8DEB59FF4F10821182128208
:1045600013822D8D3E8D27593F4F3E8B2D8BD901C8
:104570001C92ED8DFE8DE259FF4F11821082ED8D60
:10458000FE8DE059FF4F1082118212821382ED8D51
:10459000FE8DE858FF4F8CE291E0A0E0B0E0808310
:1045A0009183A283B3832D8C3E8CBCE72B0E311CF0
:1045B00080E090EFAFE7B5E4F10180839183A283BF
:1045C000B383ED8DFE8DE857FF4F1082118212826A
:1045D0001382ED8DFE8DE457FF4F108211821282FF
:1045E0001382ED8DFE8DEC56FF4F80E090E0A0E849
:1045F000BEE380839183A283B383ED8DFE8DE85665
:10460000FF4F80E090E0AAEFB3E480839183A28320
:10461000B383ED8DFE8DE456FF4F1082118212821E
:104620001382ED8DFE8DE056FF4F108211821282B3
:104630001382ED8DFE8DEC55FF4F10821182128298
:104640001382ED8DFE8DE855FF4F1082118212828C
:104650001382ED8DFE8DE455FF4F80E090E0A0E8E1
:10466000BFE380839183A283B383ED8DFE8DE055FC
:10467000FF4F1082118212821382ED8DFE8DEC5459
:10468000FF4F8AE097EDA3E2BCE380839183A2838E
:10469000B383ED8DFE8DE854FF4F84EA90E7ADE7DC
:1046A000BFE380839183A283B3832D8D3E8D2454F9
:1046B0003F4F3A8F298F80E090E0A8ECB4E4F901F5
:1046C00080839183A283B3832D8D3E8D20543F4FF1
:1046D0003E872D8780E090E0AAE7B4E4F90180836B
:1046E0009183A283B383ED8DFE8DEC53FF4F108237
:1046F000118212821382AD8DBE8D5A96AD90BC9000
:104700005B97C12CD12C760197018601B701A601D8
:10471000CD010E945F08F101008111812281338166
:10472000B701A6018D8D9E8D0E943809AD8DBE8D7D
:104730009E966D917D918D919C91D1970E94EC2DCB
:104740009B01AC0160E070E080EA90E40E94532D90
:104750007B018C019B01AC01ED8DFE8D608971891F
:10476000828993890E94A22E6BA77CA78DA79EA702
:10477000AD8DBE8D50966D937D938D939C93539785
:104780009701A80154966D917D918D919C915797B9
:104790000E94532D6FA778AB89AB9AABED8DFE8D40
:1047A000648B758B868B978B85E090E0A0E0B0E002
:1047B00086A797A7A0ABB1AB0E944907ED8DFE8DF0
:1047C000E55BFF4FA981BA818C9180830E944907E4
:1047D000F401148213826FEF7FE08D8D9E8D855BD7
:1047E0009F4F0E942C172D8D3E8D245B3F4FE98DEE
:1047F000FA8D80819181A281B381F90180839183B7
:10480000A283B3832D8D3E8D205B3F4FED85FE85CA
:1048100080819181A281B381F90180839183A283F8
:10482000B3832D8D3E8D3093F0022093EF0281E013
:10483000AD89BE898C938091CB069091CC06209156
:10484000C9063091CA068217930701F58C01000F43
:10485000111F892B09F48BC1C8019093CC0680935A
:10486000CB06880F991F45D77C01E091CD06F091CA
:10487000CE06FA83E983A801BF010E94A32C898197
:104880009A81D0D7E092CD06F092CE06A091CD06C7
:10489000B091CE068091C9069091CA069C012F5F07
:1048A0003F4F3093CA062093C9062091EF02309102
:1048B000F002880F991FFD01E80FF91F3183208353
:1048C0002D913C913E872D87F901E659FF4F1182CA
:1048D000108280911B0390911C039C0150E040E0EA
:1048E00029833A834B835C83CA01B9010E94EC2D72
:1048F00020E030E048EC52E469837A838B839C8328
:1049000069817A818B819C810E94532D1B01182F14
:10491000092F8091190390911A039C0150E040E007
:1049200029833A834B835C83CA01B9010E94EC2D31
:1049300020E030E048EC52E469837A838B839C83E7
:1049400069817A818B819C810E94532D762E872EDE
:10495000982E492E80911703909118039C0150E0E6
:1049600040E029833A834B835C83CA01B9010E94EA
:10497000EC2D20E030E048EC52E469837A838B83AD
:104980009C8369817A818B819C810E94532DB62FF3
:10499000A72FED85FE85E056FF4F462F572FBC0110
:1049A0004083518362837383ED85FE85EC55FF4F11
:1049B000472D582D692D742D408351836283738355
:1049C000ED85FE85E855FF4FA101612F702F4083D3
:1049D000518362837383ED85FE85A28CB38C610164
:1049E000E12EF02E072D182D292D342D4B2F5A2F67
:1049F000BC01CF010E945F08E091CD06F091CE0688
:104A0000208131813E872D87890104551F4F809178
:104A10001D0390911E039C0150E040E029833A83DE
:104A20004B835C83CA01B9010E94EC2D20E030E089
:104A30004AE754E469837A838B839C8369817A8112
:104A40008B819C810E94532DD8016D937D938D9312
:104A50009C9313970D851E8500551F4F80911F0352
:104A6000909120039C0150E040E029833A834B83DE
:104A70005C83CA01B9010E94EC2D20E030E048ECD3
:104A800052E469837A838B839C8369817A818B81E9
:104A90009C810E94532DD8016D937D938D939C939F
:104AA000139780912103909122039C0150E040E0F4
:104AB00029833A834B835C83CA01B9010E94EC2DA0
:104AC000ED85FE85E454FF4F462F572FBC014083F0
:104AD000518362837383ED85FE85E45BFF4F4083E2
:104AE0005183628373834D855E8540585F4F80E0BC
:104AF00090E0A6E9B3E4FA0180839183A283B383B3
:104B00000E94FF0920E030E040EA50E469837A83A4
:104B10008B839C8369817A818B819C81C0D787FF3D
:104B200061C10E94B30CECCF49815A81542F4427B4
:104B300044275F70482B5A8349834031554059F0D0
:104B400081E692E00E94C91929813A81032E000C66
:104B5000440B550BABCAF0925207B5CA86EE94E0EF
:104B6000BFCA89E494E0BCCA80E296E0B9CA81E099
:104B700090E073CE0E94B30C80916B0390916C0314
:104B80009C0150E040E029833A834B835C83CA0157
:104B9000B9010E94EC2D20E030E040E251E469834D
:104BA0007A838B839C8369817A818B819C817BD77B
:104BB000E091CD06F091CE06462F572FBC018081A3
:104BC00091810E945A0C0E94EB090E9469170E9471
:104BD000FF09C090F502D090F602E090F702F09045
:104BE000F802A701960169837A838B839C8369818C
:104BF0007A818B819C81EED68B018D8B9D878091F4
:104C0000790390917A039C0150E040E029833A8334
:104C10004B835C83CA01B901DFD720E030E040E27A
:104C200051E469837A838B839C8369817A818B8148
:104C30009C8139D79B01AC0109831A838D898B83B1
:104C40009D859C8369817A818B819C810E949E2EA7
:104C500018160CF4B2C10E94FF09A70196016983DE
:104C60007A838B839C8369817A818B819C81B2D684
:104C700020E030E0A90169837A838B839C8369817A
:104C80007A818B819C810BD787FF15C0A701960184
:104C900060E070E080E89FE49DD69B01AC0160E09D
:104CA00070E0CB0197D66093F5027093F602809383
:104CB000F7029093F802809181039091820301970B
:104CC00009F07FC160E088E00E9431038091CD034C
:104CD0009091CE03019709F083C0E091CD06F09149
:104CE000CE060190F081E02DEC53FF4F2081318101
:104CF0004281538129833A834B835C8342E06981FB
:104D00007A818B819C810E943E1A8BE792E00E94FF
:104D1000C919E091CD06F091CE060190F081E02D09
:104D2000E857FF4F80819181A281B38189839A8363
:104D3000AB83BC8342E0BC01CD010E943E1A8BE7ED
:104D400092E00E94C919E091CD06F091CE068081D3
:104D50009181FC01E457FF4F84589F4FDC012D9156
:104D60003D914D915C9160817181828193819BD64F
:104D700020E030E048EC52E469837A838B839C83A3
:104D800069817A818B819C81DDD742E069837A8356
:104D90008B839C8369817A818B819C810E943E1ADE
:104DA0008BE792E00E94C919E091CD06F091CE0602
:104DB0000190F081E02DEB59FF4F2081318142813C
:104DC000538129833A834B835C8342E069817A81F2
:104DD0008B819C810E943E1A8EE592E00E94C91947
:104DE0000E94DB0661E088E00E943103809181032C
:104DF00090918203019709F0E4C080918303909120
:104E00008403892B09F4B6CE0E94B30C0E94FF09DB
:104E10002091F1023091F2024091F3025091F4029C
:104E200069837A838B839C8369817A818B819C815E
:104E3000D1D5462EC72E782E892E80910D039091C4
:104E40000E039C0150E040E029833A834B835C834E
:104E5000CA01B901C1D620E030E040E251E46983E3
:104E60007A838B839C8369817A818B819C811BD619
:104E70008B018D8B9D8720E030E0A9014982CA8299
:104E80007B828C8269817A818B819C8157D71816AD
:104E90000CF4B0C080910F03909110039C0150E07E
:104EA00040E029833A834B835C83CA01B90194D6DD
:104EB00020E030E040E251E469837A838B839C8375
:104EC00069817A818B819C81EED51B015C019B01FC
:104ED000AC0109831A838D898B839D859C836981AD
:104EE0007A818B819C8177D5962ED72E7C01980173
:104EF0004D895D854982CA827B828C8269817A81F3
:104F00008B819C811BD718160CF059C2292D3D2D81
:104F1000A70169817A818B819C81C1D518160CF417
:104F20004EC28091FB029091FC029C0150E040E057
:104F30002D833E834F835887CA01B9014DD620E0A7
:104F400030E040E251E46D837E838F8398876D81EA
:104F50007E818F819885A7D5662E572E8D839F875A
:104F60008091F9029091FA029C0150E040E029877B
:104F70003A874B875C87CA01B9012ED620E030E022
:104F800040E251E469877A878B879C8769857A85B7
:104F90008B859C8588D56987788B898B9A8B409186
:104FA000AF035091B0035C8B4B8B902ED12EED88CC
:104FB000FD848101AD8ABD865BC010928203109290
:104FC00081030E94B30C0E9495190E94FF0960930F
:104FD000F5027093F6028093F7029093F8020E9414
:104FE000FF096093F1027093F2028093F3029093B1
:104FF000F40268CE98014D895D854982CA827B8220
:105000008C8269817A818B819C8149D518160CF438
:1050100041CF8091F9029091FA029C0150E040E06A
:105020002D833E834F835887CA01B901D5D520E02F
:1050300030E040E251E46D837E838F8398876D81F9
:105040007E818F8198852FD5662E572E8D839F87E1
:105050004091AD035091AE035C8B4B8B912CD12CC6
:10506000E12CF12C1986188A50EA598B81E48A8B3D
:10507000E091CD06F091CE06A080B1804B895C898D
:105080004130510509F023C32985388949895A8956
:1050900069825A828D818B839F859C8369817A8105
:1050A0008B819C8197D498014D895D8569837A8332
:1050B0008B839C8369817A818B819C81F4D48B0161
:1050C0008D8B9D87292D3D2DA7014982CA827B8228
:1050D0008C8269817A818B819C817CD49B01AC011B
:1050E00009831A83AD89AB83BD85BC8369817A81CD
:1050F0008B819C8127D62985388949895A8969837A
:105100007A838B839C8369817A818B819C8163D430
:10511000462F572FBC01C5010E945A0CE091CD06C5
:10512000F091CE060190F081E02DEC53FF4F20E08E
:1051300030E040E251E4608171818281938102D646
:1051400069837A838B839C8369817A818B819C813B
:1051500017D570936C0360936B030E94EB090E9458
:10516000691780910D0390910E039C0150E040E07F
:1051700029833A834B835C83CA01B9012DD520E092
:1051800030E040E251E469837A838B839C836981B8
:105190007A818B819C8187D48B018D8B9D878091B7
:1051A0000F03909110039C0150E040E029833A8363
:1051B0004B835C83CA01B9010FD520E030E040E2A7
:1051C00051E469837A838B839C8369817A818B81A3
:1051D0009C8169D49B01AC0109831A838D898B83DF
:1051E0009D859C8369817A818B819C81F4D38B011D
:1051F0008D8B9D8780911103909112039C0150E04B
:1052000040E029833A834B835C83CA01B901E4D42B
:1052100020E030E040E251E469837A838B839C8311
:1052200069817A818B819C813ED49B01AC01098389
:105230001A838D898B839D859C8369817A818B817B
:105240009C81C9D38B018D8B9D8780911303909195
:1052500014039C0150E040E029833A834B835C8334
:10526000CA01B901B9D420E030E040E251E46983D9
:105270007A838B839C8369817A818B819C8113D40F
:105280009B01AC0109831A838D898B839D859C8347
:1052900069817A818B819C819ED38B018D8B9D87C7
:1052A00080911503909116039C0150E040E0298302
:1052B0003A834B835C83CA01B9018ED420E030E08D
:1052C00040E251E469837A838B839C8369817A818C
:1052D0008B819C81E8D39B01AC0109831A838D8962
:1052E0008B839D859C8369817A818B819C8173D31B
:1052F00069837A838B839C8369817A818B819C818A
:105300003AD44B015C010E94FF09C090F102D09099
:10531000F202E090F302F090F402A7019601698393
:105320007A838B839C8369817A818B819C8152D320
:105330008B018D8B9D87B401C50150D49B01AC01BD
:1053400009831A83AD89AB83BD85BC8369817A816A
:105350008B819C81F3D418160CF42FCE0E94FF0988
:10536000A701960169837A838B839C8369817A8103
:105370008B819C812FD320E030E0A90169837A835F
:105380008B839C8369817A818B819C8188D387FF01
:1053900092CCA701960160E070E080E89FE41AD308
:1053A0009B01AC0160E070E0CB0114D36093F1028B
:1053B0007093F2028093F3029093F4027CCC80917C
:1053C0001103909112039C0150E040E029833A833D
:1053D0004B835C83CA01B901FFD320E030E040E297
:1053E00051E469837A838B839C8369817A818B8181
:1053F0009C8159D38B018D8B9D879B01AC01998238
:10540000DA82EB82FC8269817A818B819C81E3D292
:105410001B015C01292D3D2DA7014982CA827B8297
:105420008C8269817A818B819C8188D418160CF0DA
:105430004FC09101A50169817A818B819C812FD315
:1054400018160CF445C08091FD029091FE029C015B
:1054500050E040E02D833E834F835887CA01B90155
:10546000BBD320E030E040E251E46D837E838F8344
:1054700098876D817E818F81988515D3662E572EF2
:105480008D839F878091FB029091FC029C0150E0EC
:1054900040E029873A874B875C87CA01B9019CD3D2
:1054A00020E030E040E251E469877A878B879C876F
:1054B00069857A858B859C85F6D26987788B898BFF
:1054C0009A8B4091B1035091B2035C8B4B8BD0CD42
:1054D00080911303909114039C0150E040E02983D4
:1054E0003A834B835C83CA01B90176D320E030E074
:1054F00040E251E469837A838B839C8369817A815A
:105500008B819C81D0D28B018D8B9D879B01AC01BF
:1055100029823A82AB82BC8269817A818B819C81AB
:105520005AD2962ED72E7C019101A5014982CA82BA
:105530007B828C8269817A818B819C81FFD3181652
:105540000CF053C0292D3D2DA70169817A818B81F3
:105550009C81A5D218160CF448C08091FF0290914E
:1055600000039C0150E040E02D833E834F83588729
:10557000CA01B90131D320E030E040E251E46D834B
:105580007E838F8398876D817E818F8198858BD272
:10559000662E572E8D839F878091FD029091FE028B
:1055A0009C0150E040E029873A874B875C87CA011D
:1055B000B90112D320E030E040E251E469877A87F4
:1055C0008B879C8769857A858B859C856CD269875A
:1055D000788B898B9A8B4091B3035091B4035C8B89
:1055E0004B8B922CD32C750143CD292D3D2DA7013A
:1055F0004982CA827B828C8269817A818B819C817B
:105600009DD318160CF034CD8091010390910203C4
:105610009C0150E040E02D833E834F835887CA01B0
:10562000B901DAD220E030E040E251E46D837E83BC
:105630008F8398876D817E818F81988534D2662E85
:10564000572E8D839F878091FF02909100039C01CC
:1056500050E040E029873A874B875C87CA01B9014F
:10566000BBD220E030E040E251E469877A878B8743
:105670009C8769857A858B859C8515D26987788B0F
:10568000898B9A8B4091B5035091B6035C8B4B8B01
:1056900080911503909116039C0150E040E029830E
:1056A0003A834B835C83CA01B90196D220E030E093
:1056B00040E251E469837A838B839C8369817A8198
:1056C0008B819C81F0D18B018D8B9D87D1CC462D18
:1056D000552D6D817F851FCD8091CD069091CE0691
:1056E000A1C0EE0FFF1F881F8BBF0790F691E02D22
:1056F00019940F931F93CF93DF938230910510F489
:1057000082E090E0E0915507F091560730E020E00C
:10571000B0E0A0E0309799F42115310509F447C0B5
:10572000281B390B24303105C0F58A819B81611516
:10573000710571F1FB0193838283FE0111C04081E9
:1057400051810281138148175907F8F0481759070A
:1057500099F4109761F012960C93129713961C937C
:105760003296CF01DF91CF911F910F910895009351
:10577000550710935607F4CF2115310519F042173C
:10578000530718F49A01BD01EF01DF01F801C2CF00
:105790009093560780935507D0CFFE01E20FF31F79
:1057A000819391932250310939832883DACF209154
:1057B000530730915407232B41F420910302309179
:1057C0000402309354072093530720910102309133
:1057D00002022115310541F42DB73EB74091050273
:1057E00050910602241B350BE0915307F0915407AA
:1057F000E217F307A0F42E1B3F0B2817390778F0A8
:10580000AC014E5F5F4F2417350748F04E0F5F1F06
:10581000509354074093530781939193A2CFF0E0A4
:10582000E0E09FCFCF93DF930097E9F0FC01329740
:1058300013821282C0915507D0915607DE0130E0E5
:1058400020E02097A1F420813181820F931F2091C5
:105850005307309154072817390709F067C0F093B0
:105860005407E0935307DF91CF910895DA01AE1703
:10587000BF0708F040C012964D915C9113979D01AF
:105880004115510599F7D9011396FC93EE931297A0
:105890004D915D91A40FB51FEA17FB0779F4808144
:1058A00091810296840F951FD90111969C938E9336
:1058B0008281938113969C938E931297B0E0A0E01F
:1058C0008A819B810097B9F5FE0181919191E80F42
:1058D000F91F80915307909154078E179F0719F66F
:1058E000109761F51092560710925507D093540700
:1058F000C0935307B8CFB383A28340815181840FF3
:10590000951FA817B90771F44E5F5F4F8D919C9159
:105910001197480F591F5183408312968D919C9186
:10592000938382832115310509F0ADCFF09356079B
:10593000E093550798CFDE01EC01C2CF13961C927D
:105940001E921297D3CFFB01DC0102C001900D9291
:1059500041505040D8F70895052E97FB16F4009457
:105960000FD057FD05D014D007FC02D046F408C074
:1059700050954095309521953F4F4F4F5F4F08957B
:1059800090958095709561957F4F8F4F9F4F0895AB
:10599000A1E21A2EAA1BBB1BFD010DC0AA1FBB1F33
:1059A000EE1FFF1FA217B307E407F50720F0A21BA5
:1059B000B30BE40BF50B661F771F881F991F1A9412
:1059C00069F760957095809590959B01AC01BD013C
:1059D000CF0108955058BB27AA270ED075C166D1B4
:1059E00030F06BD120F031F49F3F11F41EF45BC115
:1059F0000EF4E095E7FB51C1E92F77D180F3BA1798
:105A0000620773078407950718F071F49EF58FC13C
:105A10000EF4E0950B2EBA2FA02D0B01B9019001C9
:105A20000C01CA01A0011124FF27591B99F0593F0D
:105A300050F4503E68F11A16F040A22F232F342F55
:105A40004427585FF3CF469537952795A795F040A3
:105A50005395C9F77EF41F16BA0B620B730B840BB8
:105A6000BAF09150A1F0FF0FBB1F661F771F881F70
:105A7000C2F70EC0BA0F621F731F841F48F48795C8
:105A800077956795B795F7959E3F08F0B3CF9395B7
:105A9000880F08F09927EE0F979587950895D9D02C
:105AA00008F481E008950CD00FC107D140F0FED07A
:105AB00030F021F45F3F19F0F0C0511139C1F3C04B
:105AC00014D198F39923C9F35523B1F3951B550BC2
:105AD000BB27AA2762177307840738F09F5F5F4FC1
