:1000000036C1000065C1000063C1000061C100008D
:100010005FC100005DC100005BC1000059C100006C
:1000200057C100000C94A5170C94A5170C94A517A4
:100030004FC100000C9412144BC1000049C10000D4
:1000400047C1000045C1000043C1000041C100009C
:100050003FC100003DC100003BC100000C94371BB4
:1000600037C100000C9490150C94671531C1000045
:100070002FC100002DC100002BC1000029C10000CC
:1000800027C1000025C1000023C1000021C10000DC
:100090000C943E150C9415151BC100000C94B91559
:1000A00017C1000015C1000013C1000011C10000FC
:1000B0000FC100000DC100000BC1000009C100000C
:1000C00007C1000005C1000003C100000C94EC143E
:1000D0000C94C314FDC000000C949A140C94711479
:1000E000F7C00000A904A9045606560638064A06B9
:1000F0006A066A066A066A066A066A066A066A0680
:10010000A9045606DB04DB04CE06CE06040743072B
:1001100019051905190519051905190519051905EF
:100120005207A3074C1A4F1A3E1A421A481A861A47
:10013000531A571A5D1A611A651A6B1A6F1A731AD5
:10014000861A791A7D1A811A0000200023002600E1
:1001500029002C002F0032000001000003010601DD
:10016000090100002200250028002B002E0031008C
:10017000340002010000050108010B010505050519
:10018000070508080808020202020A0A080804040F
:10019000040401010101010101010303030303033D
:1001A0000303040707070C0C0C0C0C0C0C0C0202CC
:1001B000020206060606060606060B0B0B0B0B0BC9
:1001C0000B0B010210202008081020401020408056
:1001D000020102010804020101020408102040800B
:1001E0008040201008040201800402018040201099
:1001F00008040201080402010102040810204080E2
:10020000010204081020408000000A0B02090C0DB6
:100210000E080703040100000000000000000000B9
:1002200000000000000000000000000000000000CE
:10023000000000001211100000000000000000008B
:1002400000000000000000000000000000000200AC
:10025000002100240027002A002D00300033000177
:10026000010000040107010A01001B2505261124D5
:100270001FBECFEFD1E2DEBFCDBF00E00CBF12E06A
:10028000A0E0B2E0ECE5F3E500E00BBF02C00790B0
:100290000D92AA38B107D9F727E0AAE8B2E001C069
:1002A0001D92A336B207E1F711E0C6E3D1E000E00A
:1002B00006C021970109802FFE010E946728C533DF
:1002C000D10780E00807A9F70E94811B0C949D29A3
:1002D00097CE0E94CE1A0E944A2720E034E244E7DB
:1002E00059E40C94B12608951F93CF93DF93EC014A
:1002F0000E940F10182FCE0101960E940F1090E05F
:10030000982F8827810F911DDF91CF911F9108951C
:100310000F931F93CF93DF938C01EB01CB01E4DFAD
:100320008017910759F0602FCE010E94740E612F43
:10033000CE0101960E94740E81E001C080E0DF9141
:10034000CF911F910F9108952F923F924F925F92FC
:100350006F927F928F929F92AF92BF92CF92DF92D5
:10036000EF92FF920F931F93CF93DF9300D01F92D2
:10037000CDB7DEB79C838B83FC01ED53FF4F8081AB
:100380000B811C8109571F4F882309F465C00E9407
:100390002B1B6B017C01F80180809180A280B380CF
:1003A0002DEC3CEC4CE45DE3EB81FC81E557FF4F29
:1003B00060817181828193810E9400282B013C0120
:1003C00020E030E040EB51E4C501B4010E94482632
:1003D000EB81FC81ED56FF4F2081318142815381B9
:1003E0000E9400289B01AC01C301B2010E94482673
:1003F000EB81FC81E956FF4F20813181428153819D
:100400000E94B1262B013C012B803C80FBE92F0E82
:10041000311CF10180819181B601681B790B072E97
:10042000000C880B990B0E944C279B01AC01C30167
:10043000B2010E940028A50194010E944926F801FA
:1004400060837183828393830E942B1BF1016083FD
:100450007183828393838BC0EB80FC80F6E4EF0E84
:10046000F11CF70163817481636E716880810E9461
:10047000BA0D80EB94E00E94C31AF70180810E94BC
:10048000170EF7012281022E02C0969587950A94D5
:10049000E2F7222329F08115F8E09F0708F0906F1A
:1004A000CB80DC8024E5C20ED11CF60191838083D1
:1004B000F70163817481636E716B80810E94BA0D54
:1004C00080EB94E00E94C31AF70180810E94170E0E
:1004D000F7012281022E02C0969587950A94E2F7D1
:1004E000222329F08115F8E09F0708F0906FEB8137
:1004F000FC81EA5AFF4F91838083BC01990F880BDE
:10050000990B0E944C274B015C01F60160817181BF
:10051000072E000C880B990B0E944C279B01AC0105
:10052000C501B4010E94B126EB81FC81E45BFF4F61
:1005300020813181428153810E940028EB81FC811E
:10054000E555FF4F20813181428153810E9400286F
:10055000EB81FC81E155FF4F208131814281538144
:100560000E944826F80160837183828393830E94EE
:100570002B1BEB81FC81ED58FF4F608371838283DD
:1005800093832B803C80FFE62F0E311CF101C0804D
:10059000D180E280F3809B01AC012C193D094E090A
:1005A0005F0969017A01EB81FC81E958FF4F808185
:1005B0009181A281B38182179307A407B50708F040
:1005C0003FC0F80180809180A280B3802B813C8164
:1005D0002B593F4F3A8329834B815C814D575F4FA5
:1005E0005C834B83FA012081318142815381C501B3
:1005F000B4010E9448262B013C01C701B6010E94AC
:100600004A2720E030E04AE754E40E94B1269B01EB
:10061000AC01C301B2010E94B126E981FA81608375
:10062000718382839383EB81FC8180829182A28299
:10063000B3820E942B1BF1016083718382839383B9
:10064000F80160817181828193810F900F900F90EA
:100650000F90DF91CF911F910F91FF90EF90DF905E
:10066000CF90BF90AF909F908F907F906F905F9052
:100670004F903F902F9008958F929F92AF92BF928C
:10068000CF92DF92EF92FF92CF93DF93EC016A015A
:100690007B01FC01E158FF4F80809180A280B380F4
:1006A0009A01AB01C501B4010E94AD26CB53DF4FC7
:1006B00087FF05C088829982AA82BB8212C020E08F
:1006C00030E0A901C701B6010E94AD2687FF05C031
:1006D000188219821A821B8204C0C882D982EA82D7
:1006E000FB82DF91CF91FF90EF90DF90CF90BF9092
:1006F000AF909F908F9008954F925F926F927F92EC
:10070000AF92BF92CF92DF92EF92FF920F931F931F
:10071000CF93DF93CDB7DEB72A970FB6F894DEBF3D
:100720000FBECDBF8FEA92E09093F1068093F00662
:100730008BE6809302078091AA06843028F480918A
:10074000A5069091A60604C08091A7069091A806E0
:10075000DC01ED91FC910084F185E02D1995882351
:1007600009F415C49091EF06891791F08093EF0674
:100770000E942B1BDC01CB010596A11DB11D8093AE
:10078000FA069093FB06A093FC06B093FD06FFC308
:100790000E942B1B0091FA061091FB062091FC068B
:1007A0003091FD06601771078207930708F4EFC3C5
:1007B0001092EF068091AB06823050F080910501D7
:1007C0008F7B80930501809105018F7D80930501CA
:1007D0001092EE068091AA0610E0843008F04BC01B
:1007E0008091A5069091A606DC01ED91FC91008414
:1007F000F185E02D1995892B09F44AC0B091EE06D8
:10080000EB2FF0E0FA83E9838091A5069091A6068C
:10081000DC01ED91FC910284F385E02D1995E981CD
:10082000FA81EB55F94F81878091EE068F5F8093B7
:10083000EE068034A8F211E0D3CFB091EE06EB2F94
:10084000F0E0FA83E9838091A7069091A806DC0185
:10085000ED91FC910284F385E02D1995E981FA81EF
:10086000EB55F94F81878091EE068F5F8093EE06FE
:10087000803408F011E08091A7069091A806DC0171
:10088000ED91FC910084F185E02D1995892BA9F655
:100890008091F2069091F30601969093F30680936F
:1008A000F206112361F08091F6069091F706019609
:1008B0009093F7068093F606FDEFF98303C020912D
:1008C000EE06298339813093AD0637300CF4ADC084
:1008D0009091AE068091A906981359C38091EE06B7
:1008E000A82FB0E0BA83A98382500E94F50EE98157
:1008F000FA81EB55F94F278130E0322F22274085CE
:10090000242B2817390761F08091F6069091F7069D
:1009100001969093F7068093F606BFEFB98347C020
:100920004091AF06E7E0F2E08FE092E021912417DA
:1009300009F491C18E179F07C9F78091F60690912F
:10094000F70601969093F7068093F606A1E00C94C3
:10095000D50C8091B0069091B106982789279827E9
:100960009C0184E0369527958A95E1F78091B2063F
:100970009091B30698278927982754E096958795F4
:100980005A95E1F7820F931F90910207981708F08C
:10099000A1C192E0998380E8840F8093AF06F9812A
:1009A000F093B00683E08093EE060E94110FE98178
:1009B000E093AD063AC02091B0063091B1063227DF
:1009C000232732274091B2065091B306542745277A
:1009D0005427FA0113E0F695E7951A95E1F78E2F63
:1009E000BA01677077276115710511F081E08E0FEC
:1009F0008093B00683E08093EE06420F531F90E091
:100A0000412C512C320143942417350709F088C139
:100A10008093EE06672B19F08F5F8093EE06F091BE
:100A2000EE06FE5FF9830E94110F398135300CF418
:100A3000AEC261E08BE30E946D114BDCC0908A0274
:100A4000D0908B02E0908C02F0908D02A70196016D
:100A50000E9448262B013C016091330370913403BE
:100A600080E090E00E944A2720E030E040E251E43C
:100A70000E94B1269B01AC01C301B2010E94FC2778
:100A800087FD17C026DC60938A0270938B028093E7
:100A90008C0290938D0280913703909138030197D7
:100AA00009F477C20DEC12E088EE93E09A83898313
:100AB00024C00FDCA70196010E94482620E030E008
:100AC000A9010E94AD2687FF64C2A701960160E0DC
:100AD00070E080E89FE40E9448269B01AC0160E042
:100AE00070E0CB010E94482660938A0270938B02CB
:100AF00080938C0290938D024CC269817A81D801D7
:100B00008D919D918D0104DCE981FA813496FA83FF
:100B1000E983E115F44089F70FEA12E01A8219829D
:100B200069817A81D8018D919D918D01F1DBE981F7
:100B3000FA813496FA83E983749791F709EB12E00E
:100B400069817A81D8018D919D918D01E1DBE981E7
:100B5000FA813496FA83E983B89791F703EC12E0AF
:100B600069817A81D8018D919D918D01D1DBE981D7
:100B7000FA813496FA83E983FC9791F76CE370E08D
:100B80008091210390912203C3DB60E470E08091A7
:100B9000230390912403BCDB64E470E080912F0375
:100BA00090913003B5DB68E470E08091310390915F
:100BB0003203AEDB6CE470E080915D0390915E03E4
:100BC000A7DB60E570E080915F0390916003A0DB9C
:100BD00064E570E0809161039091620399DB68E5C0
:100BE00070E0809133039091340392DB6CE570E008
:100BF00080917F03909180038BDB60E670E08091B1
:100C000081039091820384DB03E613E024E630E065
:100C10003A83298369817A81D8018D919D918D01D3
:100C200077DBE981FA813496FA83E983E837F105C5
:100C300089F70DE613E069817A81D8018D919D9144
:100C40008D0166DBE981FA813496FA83E983EC3819
:100C5000F10589F79EC1842F90E0FC013197E031C6
:100C6000F105C0F58827EE58FF4F8F4F0C94672889
:100C70008091B0069091B10698278927982704E0C3
:100C8000969587950A95E1F790910207981708F4D1
:100C90008BC620C08091B0069091B1069827892715
:100CA00090910207981708F483C614C08091B20689
:100CB0009091B306382F292F8091B0069091B106FC
:100CC000982789279827820F931F909102079817DA
:100CD00008F472C60E942B1B2091F8063091F90689
:100CE000DC01CB01820F931FA11DB11D8093FE0675
:100CF0009093FF06A0930007B09301071092AD06F2
:100D0000E091AF068E2F90E0FC013197E031F105C4
:100D100008F08FCE8827EE57FF4F8F4F0C9467282F
:100D2000F901A3E0F695E795AA95E1F7EE7FF1705A
:100D3000E155FD4FA081B181E22FEF7002C0B69561
:100D4000A795EA95E2F7E82FF0E0EB55F94FA0FF01
:100D50000EC0A18573016201092E04C0CC0CDD1CFC
:100D6000EE1CFF1C0A94D2F7CA2AC1860FC0730179
:100D70006201092E04C0CC0CDD1CEE1CFF1C0A9481
:100D8000D2F7AC2DA095B185AB23A1879F5F98309A
:100D900010F08F5F90E02F5F3F4F36CE2091B0066E
:100DA0003091B10632272327322F8091B2069091DD
:100DB000B306982789279827482F440F4093B006F9
:100DC000E3E09927820F911D22E02E0F2983A32FA4
:100DD000B0E0A817B907ACF4AA0FBB1FA155BD4FCF
:100DE0002C9111964C91AE2FB0E0AB55B94F19969E
:100DF0004C93EF5FF0E0EB55F94F21873F5FE981BE
:100E0000E3CFE093EE060FCE8091B0069091B1064D
:100E1000982789279827FC0194E0F695E7959A95FD
:100E2000E1F7282F2F708091B206FF27EE0FFF1FEA
:100E3000E155FD4F8F3F81F481E090E0A0E0B0E00C
:100E400004C0880F991FAA1FBB1F2A95D2F72081C3
:100E50003181822B932B11C081E090E0A0E0B0E0C3
:100E600004C0880F991FAA1FBB1F2A95D2F780952F
:100E7000909520813181822393239183808386E022
:100E80008093EE0682C0E091B106F0E0EE0FFF1F06
:100E9000E155FD4F8091B2069091B30698278927BE
:100EA0009827EBCF8091B0069091B10698278927BB
:100EB00098274091B2065091B306542745275427EE
:100EC000480F591F20E037E0412C512C3201439448
:100ED00084179507A1F2A82FAF70E32FF0E0EB5530
:100EE000F94F618570E0022E02C0759567950A94EE
:100EF000E2F7FC0174E0F695E7957A95E1F7FF27B4
:100F0000EE0FFF1FE155FD4F7301620104C0CC0CD1
:100F1000DD1CEE1CFF1CAA95D2F760FF05C06081A6
:100F20007181C62AD72A06C0C094D094608171818D
:100F3000C622D722D182C0822F5F283010F03F5FB7
:100F400020E00196C5CFE091B1064091B306109222
:100F5000B20686E08093EE06A5EAB6E0F0E0EE0F7A
:100F6000FF1FE155FD4F20E01296421771F01E96CB
:100F70008C911E9790E0982F88271F963C911F9781
:100F8000832B819391932F5FEFCF4BD752CD60E0AE
:100F900051CDE0918406F0918506208131813A8718
:100FA0002987F901E759FF4F1182108240900F0203
:100FB0005090100260901102709012026091D10264
:100FC0007091D20280E090E00E944A27A301920132
:100FD0000E94B1266B017C016091CF027091D0021A
:100FE00080E090E00E944A27A30192010E94B1266E
:100FF00069837A838B839C836091CD027091CE024A
:1010000080E090E00E944A27A30192010E94B1264D
:101010006D837E838F839887E985FA85E156FF4F3C
:101020006083718382839383E985FA85ED55FF4F51
:1010300089819A81AB81BC8180839183A283B383B0
:10104000E985FA85E955FF4FC082D182E282F382B9
:1010500020E030E0A9016D817E818F8198850E941A
:10106000AD2687FD25C020E030E0A90169817A81A5
:101070008B819C810E94AD2687FD1AC020E030E064
:10108000A901C701B6010E94AD2687FD11C0A9853F
:10109000BA855A96AD90BC905B9709811A812B81D5
:1010A0003C814D815E816F817885CD010E94EA1679
:1010B000E0918406F0918506208131813A8329836D
:1010C00079013BEAE30EF11C6091D3027091D402E6
:1010D00080E090E00E944A2720E030E04AE754E4B4
:1010E0000E94B126D7016D937D938D939C931397A6
:1010F000E980FA80BFEAEB0EF11C6091D502709195
:10110000D60280E090E00E944A27A30192010E944B
:10111000B126F70160837183828393836091D70244
:101120007091D80280E090E00E944A27E981FA811C
:10113000E554FF4F6083718382839383E981FA8151
:10114000E45BFF4F6083718382839383E981FA813B
:10115000E158FF4F80E090E0A6E9B3E480839183FB
:10116000A283B3838091370390913803019709F0EC
:101170000DC4E0918406F0918506208131813A8387
:101180002983F901E957FF4F20E030E040E251E4C4
:1011900060817181828193810E9400280E941E27B4
:1011A00070933C0360933B03E981FA81E557FF4F5D
:1011B000A981BA81A558BF4F2D913D914D915C9168
:1011C00060817181828193810E94B12620E030E0AC
:1011D00048EC52E40E94002820E030E040E251E474
:1011E0000E9400280E941E2770934A0360934903BF
:1011F000609121037091220380E090E00E944A27D1
:1012000020E030E040E251E40E94B126AB01BC0195
:1012100089819A8131DA5DD8C0908E02D0908F0298
:10122000E0909002F0909102A70196010E9448265A
:1012300020E030E040E85FE30E94FC2787FD0EC01D
:1012400048D860938E0270938F028093900290939F
:10125000910220918C06243028F176C03AD8A7015B
:1012600096010E94482620E030E0A9010E94AD26A8
:1012700087FF95C0A701960160E070E080E89FE4D9
:101280000E9448269B01AC0160E070E0CB010E9407
:10129000482660938E0270938F0280939002909301
:1012A00091027DC060918F067091900663607160BD
:1012B00080918A0690918B06682B792B223041F021
:1012C000233041F0213011F0706405C0706503C017
:1012D000706601C07067C0909106D0909206E09051
:1012E0009306F090940670688091870643D420E0BE
:1012F00030E040E251E4C701B6010E94AD2687FF0D
:101300000EC020E030E04AE754E4C701B6010E9475
:1013100000280E941927CB010E94C31A0AC0C701E6
:10132000B6010E941927072E000C880B990B0E940A
:10133000F31A809187067BD40090890602C09695A7
:1013400087950A94E2F702C080E090E0BC0180E05B
:1013500090E00E944A272091950630919606409190
:101360009706509198060E94002820919906309186
:101370009A0640919B0650919C060E9448266093D5
:10138000A1067093A2068093A3069093A40660938F
:10139000920270939302809394029093950220E0BE
:1013A00030E04FE254E46091920270919302809198
:1013B0009402909195020E94FC27181644F4109212
:1013C000920210929302109294021092950220E0E1
:1013D00030E040E251E4609192027091930280917A
:1013E0009402909195020E9400280E941E277093FB
:1013F0007E0360937D03EEE3F2E08491E8EFF1E099
:1014000034913D83E2EBF1E094919983992309F4BF
:10141000C2C281110E94311AA981EA2FF0E0EE0FB9
:10142000FF1FE85BFE4FA591B491EC91BD81EB23CA
:1014300009F4B1C281E090E0909378038093770340
:1014400060913B0370913C0380E090E00E944A274A
:101450006B017C0160917F037091800380E090E0DC
:101460000E944A2726E636E646E85FE30E94002807
:101470009B01AC01C701B6010E94FC2718160CF0B5
:101480006FC28091370390913803019709F068C2C9
:10149000E0918103F0918203FA83E9838091000255
:1014A0008F3321F08F3F09F0EEC204C0EEE4F2E08A
:1014B0001491D3C08FE380930002EEE4F2E0149124
:1014C0001F3F09F4E0C2123009F466C028F5112369
:1014D00009F449C0113009F0C0C010928000109288
:1014E00081008091810088608093810080918100DB
:1014F000816080938100EBEBF1E0E491F0E0EE0F8E
:10150000FF1FEE59FE4F85919491E1E0F2E0E491E6
:10151000E093990211E048C1143009F47FC008F447
:101520005EC0153009F099C010922001109221017F
:101530008091210188608093210180912101816047
:1015400080932101EBEBF1E0E491F0E0EE0FFF1F5F
:10155000EE59FE4F85919491E1E0F2E0E491E09341
:10156000960215E021C114BC15BC84B5826084BD0F
:1015700085B5816085BDEBEBF1E0E491F0E0EE0F25
:10158000FF1FEE59FE4F85919491E1E0F2E0E49166
:10159000E0939A0210E072C21092B0001092B10073
:1015A0008091B00082608093B0008091B100816032
:1015B0008093B100EBEBF1E0E491F0E0EE0FFF1F60
:1015C000EE59FE4F8591949190930B0780930A07F3
:1015D000E1E0F2E0E491E0930C0712E04FC21092D8
:1015E000900010929100809191008860809391000A
:1015F00080919100816080939100EBEBF1E0E491A8
:10160000F0E0EE0FFF1FEE59FE4F85919491E1E05F
:10161000F2E0E491E093980213E0C6C01092A000BB
:101620001092A1008091A10088608093A100809118
:10163000A10081608093A100EBEBF1E0E491F0E088
:10164000EE0FFF1FEE59FE4F85919491E1E0F2E01D
:10165000E491E093970214E0A7C017FD14C261E083
:101660008FE30E94871A812F8D7F09F0A1C0298105
:101670003A816901E12CF12C60E072E18AE790E0A7
:10168000A70196010E940A2629013A01BA01A9017F
:1016900041505109610971094F3F510561057105BB
:1016A00009F008F445C060E472E48FE090E0A7011F
:1016B00096010E940A26BA01A90141505109610907
:1016C00071091230E9F44F3F51056105710509F0C8
:1016D00008F468C160E970ED83E090E0A70196012D
:1016E0000E940A26BA01A9014150510961097109F4
:1016F0004F3F51056105710509F020F583E04DC0AC
:101700004F3F510561057105A9F0A0F068E478EE3E
:1017100081E090E0A70196010E940A26BA01A90182
:101720004150510961097109112309F449C19EC150
:1017300081E001C082E0111130C095B5987F892BFE
:1017400085BD95C068E478EE81E090E0A701960140
:101750000E940A26BA01A901415051096109710983
:101760004F3F51056105710509F008F419C164E2A4
:1017700074EF80E090E0A70196010E940A26BA016A
:10178000A90141505109610971094F3F5105610596
:10179000710511F008F043C185E09091B100987F88
:1017A000892B8093B10052C061E08FE30E94871AB9
:1017B00089819A816C01E12CF12C60E072E18AE769
:1017C00090E0A70196010E940A26BA01A9014150A2
:1017D0005109610971094115510591E069077105C8
:1017E00080F068E478EE81E090E0A70196010E9425
:1017F0000A26BA01A901415051096109710983E022
:1018000001C081E0113039F490918100987F892BDB
:10181000809381003EC0133039F490919100987FFD
:10182000892B809391005DC0143039F49091A10010
:10183000987F892B8093A10069C0153039F490916D
:101840002101987F892B8093210175C01230B1F15D
:1018500034F4112361F0113009F015C11AC01430AD
:1018600009F454C0F4F1153009F465C00CC147BD4A
:101870008FEF9FEFDC018093AB029093AC02A093BB
:10188000AD02B093AE0280916E00826080936E00D4
:10189000FAC050938900409388008FEF9FEFDC01DE
:1018A0008093A7029093A802A093A902B093AA02E2
:1018B00080916F00826080936F00E5C04093B30019
:1018C0008FEF9FEFDC0180930D0790930E07A0939D
:1018D0000F07B093100780917000826080937000B2
:1018E000D2C050939900409398008FEF9FEFDC0196
:1018F0008093A3029093A402A093A502B093A602A2
:1019000080917100826080937100BDC05093A900E6
:101910004093A8008FEF9FEFDC0180939F0290938C
:10192000A002A093A102B093A202809172008260F3
:1019300080937200A8C050932901409328018FEF33
:101940009FEFDC0180939B0290939C02A0939D02E9
:10195000B0939E028091730082608093730093C065
:101960008FE32A960FB6F894DEBF0FBECDBFDF918E
:10197000CF911F910F91FF90EF90DF90CF90BF908C
:10198000AF907F906F905F904F9009C789819A8147
:101990000E94A401EECB109278031092770350CDF1
:1019A00084E0FBCE82E0F9CEA2E0A9830C94CB04C4
:1019B000B2E0B9830C94CB04E2E0E9830C94CB044D
:1019C0004F3F51056105710541F138F162E17AE758
:1019D00080E090E0A70196010E940A26BA01A901C1
:1019E00041505109610971094F3F51056105710568
:1019F00091F088F0D301C2013AE0B595A79597958B
:101A000087953A95D1F7AC01BD0141505109610963
:101A1000710985E092CE84E090CE83E08ECE62E1C3
:101A20007AE780E090E0A70196010E940A26BA01B9
:101A3000A90141505109610971094F3F51056105E3
:101A4000710591F088F0D301C2012AE0B595A79500
:101A5000979587952A95D1F7AC01BD014150510961
:101A60006109710987E099CE86E097CE4F3F510515
:101A70006105710509F098F684E05DCE61E08FE3C1
:101A80000E94871AF4CD2A960FB6F894DEBF0FBED7
:101A9000CDBFDF91CF911F910F91FF90EF90DF901D
:101AA000CF90BF90AF907F906F905F904F900895D0
:101AB000682F84E796E03FC6282F3091FC0331322F
:101AC00008F04AC08091FB038111FCCF9091F40390
:101AD00042E04093FB032093FA032FEF2093D203BD
:101AE0001092D1033093D003E4EDF3E0A0EBB3E028
:101AF00020E0321721F041914D932F5FFACF1092E1
:101B0000AF032091AF03990F922B9093AF03909165
:101B1000F903913061F41092F9039091AF0390931F
:101B2000BB009091BC0093FDF8CF95EC01C095EE01
:101B30009093BC009091FB039230E1F39091D2031B
:101B40009F3F79F08091D203803241F08091D2039F
:101B5000803331F084E005C081E003C082E001C041
:101B600083E01092FD031092FC031092D3030895BA
:101B700081E0A2CFCF93DF93EB0191E09093D30369
:101B80008093F4031092FD031092FC0361E084E75C
:101B900096E0D1D56D2F84E796E0CDD56C2F84E704
:101BA00096E0C9D5DF91CF91E3CF9091FB039111DE
:101BB000FCCF91E09093FB039093FA032FEF2093D7
:101BC000D2031092D103260F2093D0039093AF033A
:101BD0009091AF03880F892B8093AF038091F90315
:101BE000813061F41092F9038091AF038093BB00C0
:101BF0008091BC0083FDF8CF85EC01C085EE809319
:101C0000BC008091FB038130E1F38091D103861702
:101C100010F46091D103A0EBB3E0EFE8F3E080E0D3
:101C2000861721F09D9191938F5FFACF08951F93AE
:101C3000CF93DF93182F81E08093D3031093F403A5
:101C40001092FD031092FC0360E084E796E073D5E8
:101C50008FDF62E0812FA9DF1092FF038093FE03E4
:101C600084E796E020D5182F84E796E01CD5D12F85
:101C700020E0C22F9E01282BC901DF91CF911F9137
:101C80000895FF920F931F93CF93DF93EB0108EB1F
:101C900010E0F801F0802CE02083FC01808191E0CD
:101CA0009093D3038093F4031092FD031092FC03EE
:101CB00060E484E796E03FD5CE0124E096958795D1
:101CC0002A95E1F7F5DECE0134E0880F991F3A95A9
:101CD000E1F79927EDDE4CDFF801F082DF91CF913B
:101CE0001F910F91FF9008951F93CF93DF93EC0105
:101CF000162F8091030791E09093D3038093F40310
:101D00001092FD031092FC038D2F90E0D1DECE01E6
:101D10009927CEDE612F84E796E00DD5DF91CF9134
:101D20001F9126CFCF92DF92EF92FF92CF93DF9356
:101D3000EC016A017B01E889F98982E08083411521
:101D4000514E61057105B1F060E079E08DE390E0FE
:101D5000A70196010E942626DA01C9010197A1096F
:101D6000B109B695A795979587959C01211580E1B6
:101D70003807A8F0E889F989108260E874E88EE1F4
:101D800090E0A70196010E942626DA01C901019779
:101D9000A109B109B695A795979587959C01EC8502
:101DA000FD853083EE85FF852083188EEC89FD89C3
:101DB00086E08083EA89FB89808180618083EA896B
:101DC000FB89808188608083EA89FB8980818068C3
:101DD0008083EA89FB8980818F7D8083DF91CF9129
:101DE000FF90EF90DF90CF900895EEEAF6E090E05C
:101DF0002FEF3FEF981791F04191242748E0B90168
:101E00006170772736952795672B21F051E02527BC
:101E100050EA3527415099F79F5FECCF922F832FDF
:101E20000895CF93C091EE068C2FDFDFEC2FF0E00A
:101E3000EB55F94F9187E1E0EC0FF0E0EB55F94FEE
:101E40008187CE5FC093EE069091AB068091AA0683
:101E5000923038F1823051F0833071F0813091F45A
:101E60009091C80090649093C80011C09091D000E8
:101E700090649093D0000BC0909130019064909347
:101E8000300105C09091C00090649093C000909183
:101E900005019064909305019091050190629093E3
:101EA00005014091EE06843028F48091A5069091BA
:101EB000A60604C08091A7069091A80650E0DC0118
:101EC000ED91FC910280F381E02D6EEA76E01995A8
:101ED0009091AB068091AA06923018F1823049F0B9
:101EE000833061F0813079F49091C80096FFFCCF87
:101EF0000EC09091D00096FFFCCF09C090913001A8
:101F000096FFFCCF04C09091C00096FFFCCF90914B
:101F100005019F7B90930501909105019F7D909312
:101F20000501843070F58091A5069091A606DC012C
:101F3000ED91FC910284F385E02D199597FFF3CF85
:101F40001092EE060E942B1B2091F8063091F906A4
:101F5000DC01CB01820F931FA11DB11D8093FE06F2
:101F60009093FF06A0930007B09301078091F406B9
:101F70009091F50601969093F5068093F406CF9123
:101F800008958091A7069091A806DC01ED91FC913F
:101F90000284F385E02D199597FFF3CFD1CF80917F
:101FA0008D0690918E06811524E0920709F130F498
:101FB0000097A1F081159240B1F00895811528E0B5
:101FC0009207D9F081152AE09207E1F08115964039
:101FD00029F58DEC9CECACECBBE318C08AE999E9DF
:101FE000A9E1BDE313C08DEC9CECACECBCE30EC0EE
:101FF0008DEC9CECACE4BCE309C08DEC9CECACE457
:10200000BBE304C08DEC9CECACECBAE3809395068A
:1020100090939606A0939706B093980608950F9311
:102020001F93CF93DF938C01C3E0D7E0888191E0C9
:102030009093D3038093F4031092FD031092FC035A
:10204000812F90E035DDC801992732DD91DD61E017
:102050008881ABDD1092FF038093FE0384E796E056
:1020600022D3DF91CF911F910F910895009761F0D6
:10207000FC0101900020E9F73197AF01481B590B93
:10208000BC0187ED95E088C180E090E008958F92D3
:102090009F92AF92BF920F931F93CF93DF93CDB7D1
:1020A000DEB7A1970FB6F894DEBF0FBECDBF19A261
:1020B000423008F44AE08E010F5D1F4F842E912CB0
:1020C000A12CB12CA50194010E942626E62FB9016E
:1020D000CA0101501109EA3014F4E05D01C0E95C65
:1020E000D801EC93232B242B252B61F7C801BEDFED
:1020F000A1960FB6F894DEBF0FBECDBFDF91CF9192
:102100001F910F91BF90AF909F908F9008958F92E5
:102110009F92AF92BF92CF92DF92EF92FF920F9376
:102120001F93CF93DF936B017C01142F9B01AC01B4
:102130000E946328882319F08EE792E027C04601A9
:102140005701E894B7F82FEF3FEF4FE75FE7C5017E
:10215000B4010E94632881110DC02FEF3FEF4FE7BC
:102160005FE7C501B4010E94AD2618161CF482E891
:1021700092E00CC02FEF3FEF4FE75FE4C701B601DD
:102180000E94FC2718167CF486E892E0DF91CF913C
:102190001F910F91FF90EF90DF90CF90BF90AF9085
:1021A0009F908F9063CF2FEF3FEF4FE75FECC7011A
:1021B000B6010E94AD2687FDE7CF20E030E0A901FF
:1021C000C701B6010E94AD2687FF0AC06DE287ED08
:1021D00095E08FD1EC01F7FAF094F7F8F09402C093
:1021E000C0E0D0E000E060E070E080E09FE3101726
:1021F00041F020E030E040E251E40E94B1260F5F60
:10220000F6CFA70196010E9449266B017C010E942E
:102210001E274B015C014AE03ADFC80FD91F11238A
:10222000A9F1C501B4010E944A279B01AC01C70175
:10223000B6010E9448266B017C016EE287ED95E0B5
:1022400058D1C80FD91F20E030E040E251E4C70167
:10225000B6010E9400284B015C010E941E276B0101
:10226000E12CF12C4AE0C701B60111DFC80FD91FDC
:10227000C701B6010E944A279B01AC01C501B40108
:102280000E9448266B017C011150E9F6CE01DF91D6
:10229000CF911F910F91FF90EF90DF90CF90BF9063
:1022A000AF909F908F900895FC01A089B1898C9187
:1022B000A689B78982FD0FC09C91818D8F5F8F7336
:1022C000228D821749F0218DDF01A20FB11D5D968D
:1022D0009C93818F08958C9108951F93CF93DF93E2
:1022E000282F30E0F901E85FFD4F8491F901EE53AA
:1022F000FE4FD491F901E458FE4FC491CC23C1F0B4
:10230000162F81110E94311AEC2FF0E0EE0FFF1F03
:10231000EE59FE4FA591B4919FB7F894111104C0E6
:102320008C91D095D82302C0EC91DE2BDC939FBF1B
:10233000DF91CF911F9108951092FF031092FE0339
:102340001092FD031092FC031092FB0381E0809336
:10235000FA031092F90361E084E1BFDF61E085E1F7
:10236000BCDFE9EBF0E080818E7F808380818D7F10
:10237000808388E48093B80085E48093BC0081E486
:1023800093E19093F8038093F70382E493E19093B1
:10239000F6038093F5030895CF92DF92EF92FF92B8
:1023A0000F931F93CF93DF936C017A018B01C0E0F1
:1023B000D0E0CE15DF0581F0D8016D918D01D601F9
:1023C000ED91FC910190F081E02DC6011995892BCA
:1023D00011F02196EECF7E01C701DF91CF911F91C1
:1023E0000F91FF90EF90DF90CF900895FC01538DF7
:1023F000448D252F30E0842F90E0821B930B5417DF
:1024000010F0CF96089501970895FC01918D828D6B
:10241000981761F0828DDF01A80FB11D5D968C9138
:10242000928D9F5F9F73928F90E008958FEF9FEF43
:102430000895FC01918D828D981731F0828DE80FFF
:10244000F11D858D90E008958FEF9FEF0895FC01B9
:10245000918D228D892F90E0805C9F4F821B910986
:102460008F739927089580E094E0F1DF21E0892BB4
:1024700009F420E0822F08958DE994E0E8DF21E05F
:10248000892B09F420E0822F08958AE395E0DFDFAD
:1024900021E0892B09F420E0822F089587ED95E053
:1024A000D6DF21E0892B09F420E0822F0895FC017A
:1024B000848DDF01A80FB11DA35ABF4F2C91848DCD
:1024C00090E001968F739927848FA689B7892C9302
:1024D000A089B1898C91837080648C93938D848D55
:1024E000981306C00288F389E02D80818F7D808358
:1024F0000895EF92FF920F931F93CF93DF93EC0118
:1025000081E0888F9B8D8C8D981305C0E889F989AF
:10251000808185FD25C0F62E0B8D10E00F5F1F4FCB
:102520000F731127E02E8C8DE8120BC00FB607FC3D
:10253000FACFE889F989808185FFF5CFCE01B7DF31
:10254000F2CF8B8DFE01E80FF11DE35AFF4FF082B1
:102550009FB7F8940B8FEA89FB89808180620AC05B
:102560009FB7F894EE89FF896083E889F9898081B3
:102570008370806480839FBF81E090E0DF91CF9182
:102580001F910F91FF90EF900895CF93DF93EC018F
:10259000888D8823C1F0EA89FB89808185FD05C08B
:1025A000A889B9898C9186FD0EC00FB607FCF5CFBE
:1025B000808185FFF2CFA889B9898C9185FFEDCF05
:1025C000CE0175DFE8CFDF91CF91089580E090E0F4
:1025D000892B19F063DF811116C080E090E0892B10
:1025E00019F053DF811112C080E090E0892B19F0BF
:1025F00043DF81110EC080E090E0892B79F033DF5A
:1026000081110AC008950E940000E7CF0E940000D7
:10261000EBCF0E940000EFCF0C940000089585EDF1
:102620008093BC008091BC0084FDFCCF1092FB0322
:10263000089540913307262F30E0240F311D2132B9
:102640003105DCF42091FB032430C9F4FC0180E067
:1026500090E0861758F4309133072191DC01AD5E8C
:10266000B84FA30FB11D2C930196F3CF8091330780
:10267000680F6093330780E0089581E0089582E059
:102680000895089508950895E091FF038091FE0351
:10269000E81730F4F0E0E157FC4F808190E00895B6
:1026A0008FEF9FEF08959091FF038091FE0398179D
:1026B00050F4E92FF0E0E157FC4F208130E09F5FBC
:1026C0009093FF0302C02FEF3FEFC901089580915F
:1026D000FE0390E02091FF03821B91090895CF92A1
:1026E000DF92EF92FF920F931F93CF93DF937C01C2
:1026F000CB018A012091D303222389F0EB016B01E6
:10270000C40ED51ECC15DD0561F06991D701ED91A0
:10271000FC910190F081E02DC7011995F3CF642F52
:1027200088DFC801DF91CF911F910F91FF90EF904B
:10273000DF90CF900895CF93DF931F92CDB7DEB790
:1027400069832091D3032223D1F02091FC0320320E
:1027500040F021E030E0FC013383228380E090E010
:1027600014C08091FD03E82FF0E0EC52FC4F9981FA
:1027700090838F5F8093FD038093FC0304C061E02E
:10278000CE01019656DF81E090E00F90DF91CF916E
:102790000895089580E090E008950E949029909116
:1027A000000289133DC0EEE4F2E0E4919FEF9093C4
:1027B0000002E230C9F050F4EE2399F0E13081F5E7
:1027C00090916F009D7F90936F002AC0E43019F1C3
:1027D000E0F0E53029F5909173009D7F90937300B0
:1027E0001FC010926E001CC0909170009D7F90934E
:1027F000700091E09093B0009091B100987F946048
:102800009093B1001092B3000BC0909171009D7F26
:102810009093710005C0909172009D7F909372001B
:1028200060E05BCD1F920F920FB60F9211240BB692
:102830000F922F933F934F935F936F937F938F9359
:102840009F93AF93BF93EF93FF9380910D07909168
:102850000E07A0910F07B0911007892B8A2B8B2BA5
:1028600051F190910C07E0910A07F0910B078081DC
:102870008927808380910D0790910E07A0910F0703
:10288000B0911007181619061A061B06BCF48091A1
:102890000D0790910E07A0910F07B09110070197B7
:1028A000A109B10980930D0790930E07A0930F071C
:1028B000B093100703C08091000271DFFF91EF9188
:1028C000BF91AF919F918F917F916F915F914F9148
:1028D0003F912F910F900BBE0F900FBE0F901F9046
:1028E00018951F920F920FB60F9211240BB60F92EC
:1028F0002F933F934F935F936F937F938F939F9308
:10290000AF93BF93EF93FF9380E094E0D0DDFF910E
:10291000EF91BF91AF919F918F917F916F915F9157
:102920004F913F912F910F900BBE0F900FBE0F90C4
:102930001F9018951F920F920FB60F9211240BB68D
:102940000F922F933F934F935F936F937F938F9348
:102950009F93AF93BF93EF93FF9380E094E0A4DC49
:10296000FF91EF91BF91AF919F918F917F916F9167
:102970005F914F913F912F910F900BBE0F900FBE23
:102980000F901F9018951F920F920FB60F9211245F
:102990000BB60F922F933F934F935F936F937F9359
:1029A0008F939F93AF93BF93EF93FF938DE994E041
:1029B0007EDDFF91EF91BF91AF919F918F917F91BC
:1029C0006F915F914F913F912F910F900BBE0F90A0
:1029D0000FBE0F901F9018951F920F920FB60F9277
:1029E00011240BB60F922F933F934F935F936F93E6
:1029F0007F938F939F93AF93BF93EF93FF938DE953
:102A000094E052DCFF91EF91BF91AF919F918F9134
:102A10007F916F915F914F913F912F910F900BBEDE
:102A20000F900FBE0F901F9018951F920F920FB628
:102A30000F9211240BB60F922F933F934F935F93F6
:102A40006F937F938F939F93AF93BF93EF93FF9376
:102A50008AE395E02CDDFF91EF91BF91AF919F91BB
:102A60008F917F916F915F914F913F912F910F9037
:102A70000BBE0F900FBE0F901F9018951F920F92D4
:102A80000FB60F9211240BB60F922F933F934F93D3
:102A90005F936F937F938F939F93AF93BF93EF93C6
:102AA000FF938AE395E000DCFF91EF91BF91AF9136
:102AB0009F918F917F916F915F914F913F912F9156
:102AC0000F900BBE0F900FBE0F901F9018951F9286
:102AD0000F920FB60F9211240BB60F922F933F93C4
:102AE0004F935F936F937F938F939F93AF93BF9316
:102AF000EF93FF9387ED95E0DADCFF91EF91BF91C3
:102B0000AF919F918F917F916F915F914F913F9185
:102B10002F910F900BBE0F900FBE0F901F90189526
:102B20001F920F920FB60F9211240BB60F922F9394
:102B30003F934F935F936F937F938F939F93AF9345
:102B4000BF93EF93FF9387ED95E0AEDBFF91EF919D
:102B5000BF91AF919F918F917F916F915F914F91B5
:102B60003F912F910F900BBE0F900FBE0F901F90B3
:102B700018951F920F920FB60F9211240BB60F9259
:102B80002F933F934F935F936F937F938F939F9375
:102B9000AF93BF93EF93FF938091B900887F803606
:102BA00009F49CC068F5883209F45BC090F4803168
:102BB00009F454C038F4882309F4F6C0883009F4C5
:102BC0004DC0F5C0883109F44CC0803209F45DC0B5
:102BD000EEC0803409F468C048F4803309F455C06D
:102BE000883309F0E4C08093D203D8C0803509F45B
:102BF0004FC0883509F45DC0883409F0D8C0D6C00C
:102C0000883909F4C7C0A8F4883709F467C038F4D4
:102C1000883609F463C0803709F460C0C8C08838BA
:102C200009F4B8C0803909F45FC0803809F0BFC02A
:102C30005BC0803B09F486C038F4803A09F466C072
:102C4000883A09F47FC0B3C0803C09F4A7C0883C2F
:102C500009F4A4C0883B09F48AC0A9C08091AF03DD
:102C600010C09091D1038091D003981770F5E09136
:102C7000D10381E08E0F8093D103F0E0E055FC4F4B
:102C800080818093BB0085EC86C08093D2038EC088
:102C9000E091D10381E08E0F8093D1038091BB003E
:102CA000F0E0E055FC4F80839091D1038091D003F8
:102CB0006EC0E091D10381E08E0F8093D1038091AB
:102CC000BB00F0E0E055FC4F80838091FA03811156
:102CD0006DC081E08093F90384EA61C083E0809352
:102CE000FB0310925507CFCF80915507803208F033
:102CF00051C0E091550781E08E0F80935507809178
:102D0000BB00F0E0EB5CF84F8083BDCF85EC809397
:102D1000BC001092FB0380915507803230F4E091A3
:102D20005507F0E0EB5CF84F10826091550770E0BA
:102D3000E091F503F091F60385E397E01995109281
:102D4000550735C084E08093FB031092340710923E
:102D50003307E091F703F091F80319958091330759
:102D6000811105C081E08093330710921307E09131
:102D7000340781E08E0F80933407F0E0ED5EF84F6A
:102D800080818093BB00909134078091330798171E
:102D900008F479CF85E88093BC0009C085EC809366
:102DA000BC001092FB0303C01092D20338DCFF91E9
:102DB000EF91BF91AF919F918F917F916F915F91B3
:102DC0004F913F912F910F900BBE0F900FBE0F9020
:102DD0001F9018954F925F926F927F928F929F9261
:102DE000AF92BF92CF92DF92EF92FF920F931F9319
:102DF000CF93DF93CDB7DEB72A970FB6F894DEBF37
:102E00000FBECDBF9A8789872A013B0109831A83A8
:102E10002B833C83DC015B96BC92AE925A9781E097
:102E2000AA94AB2809F080E0E985FA8583AF408257
:102E300051826282738289819A81AB81BC81848351
:102E40009583A683B783C086D186E286F38666A57E
:102E500077A580A991A90E944A2720E030E04AE79F
:102E600054E40E94B1266D837E838F839887E98521
:102E7000FA8544865586668677869B01AC01698112
:102E80007A818B819C810E9400284B015C01A9857D
:102E9000BA8550966D937D938D939C9353972D8116
:102EA0003E814F815885C701B6010E94B1266B0152
:102EB0007C01E985FA85648B758B868B978B808D79
:102EC000918D019759F5A301920160E070E0CB016B
:102ED0000E944826A985BA851C966D937D938D9393
:102EE0009C931F97A501940160E070E0CB010E94C4
:102EF0004826E985FA85608B718B828B938BA701BD
:102F0000960160E070E0CB010E944826A985BA8551
:102F100054966D937D938D939C9357972A960FB6F5
:102F2000F894DEBF0FBECDBFDF91CF911F910F91FF
:102F3000FF90EF90DF90CF90BF90AF909F908F90D9
:102F40007F906F905F904F9008951F920F920FB6F1
:102F50000F9211240F900FBE0F901F9018952F9273
:102F60003F924F925F926F927F928F929F92AF9219
:102F7000BF92CF92DF92EF92FF920F931F93CF9366
:102F8000DF93CDB7DEB72F970FB6F894DEBF0FBE35
:102F9000CDBFE0918406F0918506808191819F8765
:102FA0008E87DC01DA968C9181114CC0AE85BF858D
:102FB0005E96ED91FC915F97C080D180E280F380B6
:102FC000FD01C6A2D7A2E0A6F1A65C96ED91FC9108
:102FD0005D9780819181A281B381EE85FF8582A773
:102FE00093A7A4A7B5A786A897A8A0ACB1ACA50144
:102FF0009401C701B6010E94FC27AE85BF85181653
:10300000D4F0D2968D909D90AD90BC90D597A501AF
:103010009401C701B6010E94AD2687FD05C081E07D
:10302000EE85FF8582AF0EC0EE85FF8586A297A252
:10303000A0A6B1A6F4CF96968D929D92AD92BC9229
:103040009997EDCF8E859F850E94A401EE85FF851F
:1030500082AD882309F437C1FED26D837E838F83CE
:103060009887EE85FF8582A193A1A4A1B5A14D818A
:103070005E816F817885481B590B6A0B7B0B86A597
:1030800097A5A0A9B1A9481759076A077B0708F4B3
:103090001AC1048CF58DE02D80819181A281B381CC
:1030A00089839A83AB83BC83AE85BF859096ED916F
:1030B000FC91919729813A814B815C81608171817A
:1030C000828193810E9448264B015C01EE85FF8539
:1030D00022A533A544A555A569817A818B819C8160
:1030E0000E9448266B017C01AE85BF8550962D91CC
:1030F0003D914D915C915397C501B4010E94002808
:10310000EE85FF8526A137A140A551A50E9449263D
:103110002B013C01AE85BF8596966D937D938D9373
:103120009C939997DB96BC91B987BB2309F4B2C0F5
:10313000EE85FF8546A057A060A471A416A907A933
:1031400030AC21AC212F302F432D522DC301B201C1
:103150000E94FC2718160CF492C0AE85BF85D2964B
:103160008D919D910D90BC91A02D8A879B87AC87F6
:10317000BD879C01AD01C301B2010E94AD2687FD50
:1031800079C0F985F11169C0812C912C5401AE856B
:10319000BF8554962D913D914D915C915797C701F4
:1031A000B6010E9400289B01AC01EE85FF8566A157
:1031B00077A180A591A50E944826A50194010E94AF
:1031C0004926F62EE72ED82EC92E262F372F482F28
:1031D000592F612F702F832D922D0E94AD2687FDD0
:1031E0001BC0AE85BF85D2961C91D297D3960C9109
:1031F000D397D4963C90D497D5962C90212F302FEE
:10320000432D522D6F2D7E2D8D2D9C2D0E94AD2690
:1032100087FD02C087011601AE85BF855E96ED91E0
:10322000FC915F97812F902FA32DB22D80839183E6
:10323000A283B38389819A81AB81BC81EE85FF85AE
:1032400082A793A7A4A7B5A78D819E81AF81B885DA
:1032500082A393A3A4A3B5A336C0EE85FF852485DE
:10326000358546855785C501B4010E9400284B016C
:103270005C018DCF8A859B85AC85BD8504C0812F7F
:10328000902FA32DB22DEE85FF8586A397A3A0A72F
:10329000B1A777CFAE85BF851C962D913D914D91FD
:1032A0005C911F97C701B6010E9400289B01AC01E9
:1032B000C301B2010E944826EE85FF8566A377A36D
:1032C00080A791A735CFEE85FF85ED53FF4F808115
:1032D000811128C0EE85FF85E557FF4F6081718120
:1032E000828193810E941E278E859F858C599F4FD6
:1032F0002F960FB6F894DEBF0FBECDBFDF91CF91F2
:103300001F910F91FF90EF90DF90CF90BF90AF9003
:103310009F908F907F906F905F904F903F902F90F5
:103320000C94410E2F960FB6F894DEBF0FBECDBFA2
:10333000DF91CF911F910F91FF90EF90DF90CF9091
:10334000BF90AF909F908F907F906F905F904F90C5
:103350003F902F9008954F925F926F927F928F923D
:103360009F92AF92BF92CF92DF92EF92FF920F9314
:103370001F93CF93DF93E0918406F0918506C0817F
:10338000D181812C912C88ECA82E82E4B82E8AAAB7
:103390009BAAACAABDAAC12C90EFD92E9FE7E92E1B
:1033A00095E4F92ECEAADFAAE8AEF9AE8AAD88235D
:1033B00009F446C00E8D1F8DF80140805180628057
:1033C0007380A7019601C301B2010E94FC27181661
:1033D0008CF120E030E048EC52E4C301B2010E94DD
:1033E000AD2687FD21C08EA09FA0A8A4B9A4CEA819
:1033F000DFA8E8ACF9ACA7019601C501B4010E94B1
:10340000FC27181664F0CAA8DBA8ECA8FDA8A70141
:103410009601C501B4010E94AD2687FF11C0CEA25E
:10342000DFA2E8A6F9A60CC0F80180829182A282F0
:10343000B382D9CFF801C082D182E282F382D3CFA6
:10344000DF91CF911F910F91FF90EF90DF90CF9080
:10345000BF90AF909F908F907F906F905F904F90B4
:10346000089590E0FC013197E231F10508F04EC07B
:103470008827EE56FF4F8F4F0C946728809180006D
:103480008F7703C0809180008F7D809380000895A6
:1034900080918000877FF9CF84B58F7702C084B593
:1034A0008F7D84BD08958091B0008F7703C0809197
:1034B000B0008F7D8093B0000895809190008F7749
:1034C00007C0809190008F7D03C080919000877F1E
:1034D0008093900008958091A0008F7707C080911D
:1034E000A0008F7D03C08091A000877F8093A00003
:1034F0000895809120018F7707C0809120018F7DF2
:1035000003C080912001877F809320010895CF938D
:10351000DF9390E0FC01EE53FE4F2491FC01E45850
:10352000FE4F8491882361F190E0880F991FFC0180
:10353000E15BFD4FC591D491FC01EE59FE4FA59181
:10354000B491611109C09FB7F894888120958223B6
:103550008883EC912E230BC0623061F49FB7F894FE
:103560008881322F309583238883EC912E2B2C93E6
:103570009FBF06C08FB7F894E8812E2B28838FBF9A
:10358000DF91CF9108958230910538F0880F991F0F
:10359000880F991F05970197F1F708953FB7F894A1
:1035A00080915B0790915C07A0915D07B0915E07E9
:1035B00026B5A89B05C02F3F19F00196A11DB11D8E
:1035C0003FBFBA2FA92F982F8827820F911DA11DC9
:1035D000B11DBC01CD0142E0660F771F881F991F06
:1035E0004A95D1F708958F929F92AF92BF92CF9252
:1035F000DF92EF92FF926B017C01D0DF4B015C0107
:10360000C114D104E104F104E9F0C8DFDC01CB010D
:1036100088199909AA09BB09883E9340A105B105FB
:1036200078F321E0C21AD108E108F10888EE880E8B
:1036300083E0981EA11CB11CC114D104E104F10463
:1036400021F7DECFFF90EF90DF90CF90BF90AF904B
:103650009F908F9008952FB7F894609157077091BD
:1036600058078091590790915A072FBF08951F92CC
:103670000F920FB60F9211242F933F938F939F9326
:10368000AF93BF938091570790915807A091590726
:10369000B0915A073091560723E0230F2D3720F4BD
:1036A0000196A11DB11D05C026E8230F0296A11D9C
:1036B000B11D209356078093570790935807A09306
:1036C0005907B0935A0780915B0790915C07A091CE
:1036D0005D07B0915E070196A11DB11D80935B0748
:1036E00090935C07A0935D07B0935E07BF91AF9185
:1036F0009F918F913F912F910F900FBE0F901F9030
:103700001895CF93DF93CDB7DEB768970FB6F894CF
:10371000DEBF0FBECDBF789484B5826084BD84B512
:10372000816084BD85B5826085BD85B5816085BDBC
:1037300080916E00816080936E0010928100809174
:1037400081008260809381008091810081608093FC
:103750008100809180008160809380008091B10021
:1037600084608093B1008091B00081608093B0004C
:10377000809191008260809391008091910081609E
:10378000809391008091900081608093900080915F
:10379000A10082608093A1008091A100816080934C
:1037A000A1008091A00081608093A0008091210100
:1037B00082608093210180912101816080932101A9
:1037C0008091200181608093200180917A00846043
:1037D00080937A0080917A00826080937A00809151
:1037E0007A00816080937A0080917A00806880936B
:1037F0007A001092C10082E390E090935803809386
:10380000570360E086E383DE61E089E080DE61E00B
:103810008FE37DDE61E08AE07ADE60E08AE00E948C
:103820006D1161E08BE073DE60E08BE00E946D1152
:1038300061E08CE06CDE61E08CE00E946D1161E083
:103840008BE365DE61E08BE30E946D1161E088E04F
:103850005EDE40E452E46FE070E087ED95E00E94A8
:10386000920E83E6809386060E949C1180918D06BD
:1038700090918E0690938B0680938A060E94CF0FBC
:1038800080EE90E09093900680938F068AE999E904
:10389000A9E9BFE38093910690939206A0939306C3
:1038A000B093940680E5809303070E949C11FF2447
:1038B000F394F092D3038CE78093F4031092FD030A
:1038C0001092FC036091030770E0660F771F84E796
:1038D00096E00E949B1380E00E945C0D63E08CE701
:1038E0000E94D50D1092FF038093FE0384E796E0BB
:1038F0000E9453138C0184E796E00E9453139A832D
:10390000898384E796E00E9453131127F4E0000FA7
:10391000111FFA95E1F769817A817727A4E07595FF
:103920006795AA95E1F7060F171F29812F70622F5F
:1039300070E0762F6627AB01480F511D5A834983EB
:103940000A30110549F08FE392E00E943610B80169
:10395000110F880B990B0FC089819A818031954096
:1039600091F081E692E00E943610E981FA81BF0170
:10397000FF0F880B990B40E10E9447108EE592E003
:103980000E94361002C0F09204078091AA0682308D
:1039900039F0833041F0813049F48AE395E008C082
:1039A0008DE994E005C080E094E002C087ED95E0E9
:1039B0009093A6068093A50640E052EC61E070E08B
:1039C0008091A5069091A6060E94920E8091AB066A
:1039D000823078F0809104018066809304018091A8
:1039E00005018F7B80930501809105018F7D809378
:1039F00005018091A5069091A606DC01ED91FC9150
:103A00000284F385E02D199597FFF3CF1092EE060F
:103A10001092EF061092F7061092F6061092F50635
:103A20001092F4061092F3061092F2060DEC12E0DA
:103A3000E8EEF3E0FA83E98389819A810E947401B8
:103A4000D8018D939D938D01E981FA813496FA8393
:103A5000E983E115F44081F70FEA12E01A82198236
:103A600089819A810E947401D8018D939D938D0163
:103A7000E981FA813496FA83E983749789F709EB2F
:103A800012E089819A810E947401D8018D939D93DF
:103A90008D01E981FA813496FA83E983B89789F731
:103AA00003EC12E089819A810E947401D8018D9300
:103AB0009D938D01E981FA813496FA83E983FC971D
:103AC00089F78CE390E00E94740190932203809325
:103AD000210380E490E00E9474019093240380937A
:103AE000230384E490E00E94740190933003809358
:103AF0002F0388E490E00E94740190933203809336
:103B000031038CE490E00E94740190935E038093F3
:103B10005D0380E590E00E947401909360038093C0
:103B20005F0384E590E00E947401909362038093A8
:103B3000610388E590E00E947401909334038093C0
:103B400033038CE590E00E9474019093800380938E
:103B50007F0380E690E00E9474019093820380933B
:103B6000810303E613E024E630E03A832983898168
:103B70009A810E947401D8018D939D938D01E981F2
:103B8000FA813496FA83E983E837F10581F70DE687
:103B900013E089819A810E947401D8018D939D93CD
:103BA0008D01E981FA813496FA83E983EC38F105D5
:103BB00081F789EC90E00E946F28988F8F8B835952
:103BC0009F4F9A838983DC018D919C91EF89F88DB9
:103BD000E955FF4FFA8BE98BC080D180E280F380FA
:103BE0002F89388D2D553F4F3C8B2B8BD9014D9014
:103BF0005D906D907C90EF89F88DE156FF4FFE8BC4
:103C0000ED8B20813181428153812B833C834D8315
:103C10005E838F88988CBBE88B0E911CEF89F88DA2
:103C2000978E868E9F0129573F4F358F248F225CB8
:103C30003F4F31A320A312AE12AA13AA14AA15AAA9
:103C400040E050E06FE773E446AB57AB60AF71AF55
:103C500044E650E060E070E046A757A760AB71AB68
:103C6000918F808F20E030E0A9016B817C818D8174
:103C70009E810E94AD2687FD1EC020E030E0A90194
:103C8000C301B2010E94AD2687FD15C020E030E0DF
:103C9000A901C701B6010E94AD2687FD0CC0AA2468
:103CA000A394B12C930182014B815C816D817E8153
:103CB0008F89988D8FD8CFDCAF89B88D9E960D9166
:103CC0001D912D913C91D197DC01CB01801B910B73
:103CD000A20BB30BEF89F88D82A393A3A4A3B5A382
:103CE00082E391E1A0E8BBE384AF95AFA6AFB7AFA5
:103CF0008FE795E0ABE1B5EBE05CFF4F808391830C
:103D0000A283B3832F88388CF6E42F0E311C88E40D
:103D1000D1018C9314961C921E92139798E01196E1
:103D20009C93119712961C92EF89F88DE05AFF4FE1
:103D30001082118212821382EF89F88DEC5BFF4FA3
:103D40008083EF89F88DEB5BFF4FFC83EB8382E68A
:103D5000808380918606EF89F88DEC59FF4F808330
:103D6000EF89F88DEB59FF4F108211821282138276
:103D7000A981BA811D921C92EF89F88DE159FF4FFC
:103D800010821182128213828CE291E0A0E0B0E0F6
:103D9000EF89F88DE958FF4F80839183A283B38325
:103DA00080E090EFAFE7B5E46F88788CEBE76E0EBC
:103DB000711CF30180839183A283B383EF89F88D13
:103DC000E957FF4F1082118212821382D4011D9293
:103DD0001D921D921C92139780E090E0A0E8BEE334
:103DE000EF89F88DED56FF4F80839183A283B383D3
:103DF00080E090E0AAEFB3E4EF89F88DE956FF4F39
:103E000080839183A283B383EF89F88DE556FF4FBA
:103E10001082118212821382ED89FE891082118232
:103E200012821382AB89BC891D921D921D921C9235
:103E30001397E989FA89108211821282138280E035
:103E400090E0A0E8BFE3EF89F88DE555FF4F808350
:103E50009183A283B383EF89F88DE155FF4F1082E0
:103E60001182128213828AE097EDA3E2BCE3EF890C
:103E7000F88DED54FF4F80839183A283B38384EA4E
:103E800090E7ADE7BFE3EF89F88DE954FF4F8083FA
:103E90009183A283B3832F89388D25543F4F3A8372
:103EA000298380E090E0A8ECB4E4F9018083918359
:103EB000A283B3832F89388D21543F4F3A8B298BAE
:103EC00080E090E0AAE7B4E4F90180839183A283C3
:103ED000B38381E0EF89F88DED53FF4F8083EF8945
:103EE000F88DEC53FF4F1082EF89F88DEB53FF4FA5
:103EF0001082118212821382AF89B88D5A96AD90CA
:103F0000BC905B97C12CD12C760197018601B7013B
:103F1000A601CD010E94EA16F301C080D180E280A3
:103F2000F38020E030E0A901C701B60116D71816CA
:103F30000CF05AC0AF89B88DD2961D921D921D9279
:103F40001C92D597FD01C6AAD7AAE0AEF1AE82AD0C
:103F5000882309F449C0A68CB78CD5014D905D909B
:103F60006D907C90A3019201C701B601F6D687FF40
:103F700006C0F501C082D182E282F3820EC020E049
:103F800030E0A901C301B201E8D687FF06C0D50120
:103F90001D921D921D921C921397EF89F88D86A099
:103FA00097A0A0A4B1A4C6A8D7A8E0ACF1ACA70183
:103FB0009601C501B4010E94FC2718166CF0EF8928
:103FC000F88DC2A8D3A8E4A8F5A8A7019601C50159
:103FD000B401C3D687FF08C0AF89B88D9696CD923D
:103FE000DD92ED92FC929997EF89F88D66A577A501
:103FF00080A991A94FD79B01AC0160E070E080EAF5
:1040000090E4AFD66B017C019B01AC01AF89B88D08
:1040100050966D917D918D919C915397F1D7EF8939
:10402000F88D608B718B828B938BA70196016489CD
:1040300075898689978995D6AF89B88D54966D9381
:104040007D938D939C93579785E090E0A0E0B0E03E
:10405000EF89F88D86A797A7A0ABB1AB0E949C1102
:10406000EF89F88DE55BFF4FAB81BC818C9180833C
:104070000E949C11F101148213826FEF7FE08F89FF
:10408000988D855B9F4F0E94410E2F89388D245B50
:104090003F4FE981FA8180819181A281B381F90149
:1040A00080839183A283B3832F89388D205B3F4F18
:1040B000E989FA8980819181A281B381F9018083A4
:1040C0009183A283B3832F89388D30938603209305
:1040D000850380918206909183062091800630911D
:1040E00081068217930719F57C01EE0CFF1C892BC2
:1040F00011F0C70102C081E090E0909383068093A5
:104100008206880F991FEBD79A83898300918406D2
:1041100010918506A701B8010E949429C8010E9448
:10412000072949815A815093850640938406E0917E
:104130008406F091850680918006909181069C010D
:104140002F5F3F4F30938106209380062091850397
:1041500030918603880F991FE80FF91F3183208360
:10416000E0918406F0918506808191819A8389830C
:10417000FC01E759FF4F118210826091D1027091CA
:10418000D20280E090E086D620E030E048EC52E4B5
:10419000E8D56B017C016091CF027091D00280E084
:1041A00090E078D620E030E048EC52E4DAD56B833A
:1041B0007C838D839E836091CD027091CE0280E0DE
:1041C00090E068D620E030E048EC52E4CAD52B01FC
:1041D0003C01E981FA81E156FF4F6083718382835C
:1041E0009383E981FA81ED55FF4F2B813C814D810D
:1041F0005E812083318342835383E981FA81E955CB
:10420000FF4FC082D182E282F382A981BA815A969D
:10421000AD90BC905B9720E030E0A9019ED587FD72
:104220001CC020E030E0A9016B817C818D819E81E2
:1042300094D587FD12C020E030E0A901C701B60186
:104240008CD587FD0AC00B811C812D813E81B30175
:10425000A20189819A810E94EA16E0918406F09178
:104260008506208131813A832983890105551F4FB5
:104270006091D3027091D40280E090E00BD620E0F0
:1042800030E04AE754E46DD5D8016D937D938D936A
:104290009C93139709811A8101551F4F6091D50294
:1042A0007091D60280E090E0F5D520E030E048EC57
:1042B00052E457D5F80160837183828393836091C0
:1042C000D7027091D80280E090E0E4D5E981FA81CC
:1042D000E554FF4F6083718382839383E981FA8180
:1042E000E45BFF4F608371838283938329813A81EA
:1042F00021583F4F80E090E0A6E9B3E4F9018083C4
:104300009183A283B3830E94690120E030E040EAF8
:1043100050E423D587FFD2C00E947C03F4CF809164
:10432000390390913A03892B09F0D4C00E947C0391
:10433000609121037091220380E090E0ABD520E0F2
:1043400030E040E251E40DD5AB01BC01E0918406C0
:10435000F0918506808191810E943C030E94AB19F7
:104360000E94AF170E946901C0908B03D0908C030C
:10437000E0908D03F0908E03A701960189D44B0144
:104380005C0160912F037091300380E090E082D552
:1043900020E030E040E251E4E4D49B01AC01C501EF
:1043A000B4012AD618160CF40BC30E946901A701A8
:1043B00096016ED420E030E0A901CFD487FF15C06C
:1043C000A701960160E070E080E89FE461D49B0162
:1043D000AC0160E070E0CB015BD460938B03709321
:1043E0008C0380938D0390938E038091370390917B
:1043F0003803019709F0E9C260E088E00E946D117E
:104400008091830390918403019709F055C0E09156
:104410008406F0918506808191819A838983FC01CD
:10442000EB59FF4FC080D180E280F380B696DC016B
:10443000A558BF4F2D913D914D915C916081718147
:10444000828193818ED420E030E048EC52E4D8D5CC
:104450002B013C01E981FA81E957FF4F808091806F
:10446000A280B380A981BA81AB53BF4F6D917D917A
:104470008D919C9142E00E9487108BE792E00E9410
:10448000361042E0C501B4010E9487108BE792E02C
:104490000E94361042E0C301B2010E9487108BE7F0
:1044A00092E00E94361042E0C701B6010E948710D8
:1044B0008EE592E00E9436100E94E61261E088E0EC
:1044C0000E946D118091370390913803019709F094
:1044D0007CC225CF0E947C030E9469014090870323
:1044E000509088036090890370908A03A301920121
:1044F000CFD36B017C016091C3027091C40280E054
:1045000090E0C8D420E030E040E251E42AD48B01AE
:104510001C0120E030E0A901C701B6016DD51816D5
:104520000CF441C16091C5027091C60280E090E038
:10453000B1D420E030E040E251E413D4962E872E2F
:104540008B839983262F372FAC01B801C101A1D3EA
:10455000698B7B8BB82EA92E9801A101C701B601EA
:104560004BD518160CF4EEC06091C7027091C802CA
:1045700080E090E08FD420E030E040E251E4F1D3DD
:10458000962E872E8B839983262F372FAC0169892E
:104590007B898B2D9A2D7DD38B011C0129893B8929
:1045A0004B2D5A2DC701B60127D518160CF497C00C
:1045B0006091C9027091CA0280E090E06BD420E063
:1045C00030E040E251E4CDD3962E872E8B83998341
:1045D000262F372FAC01B801C1015BD3B62E7B8BE0
:1045E000898BA92E9801A101C701B60105D518161E
:1045F0000CF444C02B2D3B8949895A2DC701B601C3
:10460000FBD418160CF0FDC06091B7027091B8028F
:1046100080E090E03FD420E030E040E251E4A1D3DC
:104620006F83788789879A876091B5027091B60207
:1046300080E090E02FD420E030E040E251E491D3DC
:104640006B877C878D879E87E0916B03F0916C036D
:10465000F88BEF876091CB027091CC0280E090E004
:1046600019D420E030E040E251E47BD3962E872E2F
:104670008B8399830B2D1B89298862C02B2D3B8945
:1046800049895A2DC701B60168D318160CF4B2CF68
:104690006091B5027091B60280E090E0FBD320E01B
:1046A00030E040E251E45DD36F83788789879A8751
:1046B0006091B3027091B40280E090E0EBD320E00F
:1046C00030E040E251E44DD36B877C878D879E8735
:1046D0002091690330916A03388B2F8792C098012B
:1046E000A101C701B60139D318160CF461CF60914E
:1046F000B3027091B40280E090E0CCD320E030E0CF
:1047000040E251E42ED36F83788789879A8760913E
:10471000B1027091B20280E090E0BCD320E030E0C2
:1047200040E251E41ED36B877C878D879E87409142
:10473000670350916803588B4F8709891B892B2C7D
:104740003A2C5FC029893B894B2D5A2DC701B601F0
:1047500004D318160CF408CF6091B1027091B20224
:1047600080E090E097D320E030E040E251E4F9D2DD
:104770006F83788789879A876091AF027091B002C2
:1047800080E090E087D320E030E040E251E4E9D2DD
:104790006B877C878D879E878091650390916603E8
:1047A000988B8F872EC09801A101C701B601D5D281
:1047B00018160CF4B7CE6091AF027091B00280E091
:1047C00090E068D320E030E040E251E4CAD26F8349
:1047D000788789879A87A0916303B0916403B88B27
:1047E000AF87902E812E2B82398200E010E0212CA1
:1047F000312C20E030E040EA51E42B873C874D87A4
:104800005E874F8558894130510549F0E091840613
:10481000F09185064F81588569857A8525C02B855D
:104820003C854D855E856F81788589859A8530D2F6
:10483000292D382D4B81598194D24B015C0198016F
:10484000A101C701B60124D29B01AC01C501B4018D
:10485000D7D32B853C854D855E851BD2AB01BC0132
:10486000E0918406F0918506808191810E943C034D
:10487000E0918406F09185060190F081E02DEB53E4
:10488000FF4F20E030E040E251E46081718182819D
:104890009381B6D3D3D270932203609321030E94F5
:1048A000AB190E94AF176091C3027091C40280E0FF
:1048B00090E0F0D220E030E040E251E452D26B01CF
:1048C0007C016091C5027091C60280E090E0E2D266
:1048D00020E030E040E251E444D29B01AC01C7014A
:1048E000B601D7D16B017C016091C7027091C802FB
:1048F00080E090E0CFD220E030E040E251E431D2DD
:104900009B01AC01C701B601C4D16B017C01609170
:10491000C9027091CA0280E090E0BCD220E030E091
:1049200040E251E41ED29B01AC01C701B601B1D1F6
:104930006B017C016091CB027091CC0280E090E031
:10494000A9D220E030E040E251E40BD29B01AC015F
:10495000C701B6019ED16DD24B015C010E94690175
:10496000A301920195D16B017C01C501B40194D2E0
:104970009B01AC01C701B6013FD318160CF10E9490
:104980006901A301920184D120E030E0A901E5D1C1
:1049900087FF2BCDA301920160E070E080E89FE4E7
:1049A00077D19B01AC0160E070E0CB0171D16093E5
:1049B0008703709388038093890390938A0315CDAE
:1049C000109238031092370310CD0E947C03E091BF
:1049D0008406F09185060190F081E02D82AD811171
:1049E00028C0DF01A557BF4F1D921D921D921C923A
:1049F0001397D8968C91811107C060E070E0CF01C9
:104A00008C599F4F0E94410E0E94690160938B0355
:104A100070938C0380938D0390938E030E946901A1
:104A200060938703709388038093890390938A032C
:104A3000E3CC12AED6CF1F93CF93DF93E0E0F4E048
:104A40001382128288EE93E0A0E0B0E08483958325
:104A5000A683B7832FE132E03183208345E351E021
:104A60005587448744E351E05787468740E351E048
:104A7000518B408B41E351E0538B428B42E351E039
:104A8000558B448B46E351E0578B468B118E128E2B
:104A9000138E148EEDE9F4E01382128284839583E1
:104AA000A683B7833183208345ED50E05587448743
:104AB00044ED50E05787468740ED50E0518B408BE6
:104AC00041ED50E0538B428B42ED50E0558B448BCF
:104AD00046ED50E0578B468B118E128E138E148E3E
:104AE000EAE3F5E01382128284839583A683B78379
:104AF000318320834DEC50E0558744874CEC50E0E7
:104B00005787468748EC50E0518B408B49EC50E08A
:104B1000538B428B4AEC50E0558B448B4EEC50E06B
:104B2000578B468B118E128E138E148EE7EDF5E0A7
:104B30001382128284839583A683B7833183208373
:104B400025EC30E03587248724EC30E03787268752
:104B500020EC30E0318B208B21EC30E0338B228B4A
:104B600022EC30E0358B248B26EC30E0378B268B23
:104B7000118E128E138E148EE4E7F6E013821282E9
:104B800084839583A683B78381E392E091838083B6
:104B900010920407E5EAF6E081E0848383E08583F0
:104BA00012E0168388EE93E09093F9068093F8065E
:104BB000E5E0F7E0148213828AE4808388E0818351
:104BC000128285E0A7E8B6E001900D928A95E1F7A0
:104BD000C7E8D6E080E090E0AAE7B3E48A8B9B8B3D
:104BE000AC8BBD8B0E949C111D831F821E820E9474
:104BF000CF0FE0E8F6E01182108213821282158254
:104C00001482DF91CF911F91089580918406909135
:104C10008506FDC2052E97FB16F400940FD057FDB4
:104C200005D014D007FC02D046F408C0509540953A
:104C3000309521953F4F4F4F5F4F08959095809548
:104C4000709561957F4F8F4F9F4F0895A1E21A2E67
:104C5000AA1BBB1BFD010DC0AA1FBB1FEE1FFF1F20
:104C6000A217B307E407F50720F0A21BB30BE40B70
:104C7000F50B661F771F881F991F1A9469F76095B7
:104C80007095809590959B01AC01BD01CF01089571
:104C90005058BB27AA270ED075C166D130F06BD112
:104CA00020F031F49F3F11F41EF45BC10EF4E09547
:104CB000E7FB51C1E92F77D180F3BA176207730779
:104CC0008407950718F071F49EF58FC10EF4E095F6
:104CD0000B2EBA2FA02D0B01B90190010C01CA01B6
:104CE000A0011124FF27591B99F0593F50F4503E61
:104CF00068F11A16F040A22F232F342F4427585F53
:104D0000F3CF469537952795A795F0405395C9F76A
:104D10007EF41F16BA0B620B730B840BBAF0915022
:104D2000A1F0FF0FBB1F661F771F881FC2F70EC0C1
:104D3000BA0F621F731F841F48F487957795679594
:104D4000B795F7959E3F08F0B3CF9395880F08F07D
:104D50009927EE0F979587950895D9D008F481E0AB
:104D600008950CD00FC107D140F0FED030F021F4EF
:104D70005F3F19F0F0C0511139C1F3C014D198F35D
:104D80009923C9F35523B1F3951B550BBB27AA27CC
:104D900062177307840738F09F5F5F4F220F331F3E
:104DA000441FAA1FA9F333D00E2E3AF0E0E830D00A
:104DB00091505040E695001CCAF729D0FE2F27D00D
:104DC000660F771F881FBB1F261737074807AB07DB
:104DD000B0E809F0BB0B802DBF01FF2793585F4F50
:104DE0002AF09E3F510568F0B6C000C15F3FECF36A
:104DF000983EDCF3869577956795B795F7959F5F15
:104E0000C9F7880F911D9695879597F90895E1E068
:104E1000660F771F881FBB1F621773078407BA07C7
:104E200020F0621B730B840BBA0BEE1F88F7E09522
:104E3000089504D06894B111D9C00895BCD088F009
:104E40009F5790F0B92F9927B751A0F0D1F0660F76
:104E5000771F881F991F1AF0BA95C9F712C0B13091
:104E600081F0C3D0B1E00895C0C0672F782F8827A4
:104E7000B85F39F0B93FCCF3869577956795B395D0
:104E8000D9F73EF490958095709561957F4F8F4F3F
:104E90009F4F0895E89409C097FB3EF49095809544
:104EA000709561957F4F8F4F9F4F9923A9F0F92FF0
:104EB00096E9BB279395F695879577956795B7956E
:104EC000F111F8CFFAF4BB0F11F460FF1BC06F5F54
:104ED0007F4F8F4F9F4F16C0882311F096E911C066
:104EE000772321F09EE8872F762F05C0662371F087
:104EF00096E8862F70E060E02AF09A95660F771F9B
:104F0000881FDAF7880F9695879597F90895990F76
:104F10000008550FAA0BE0E8FEEF16161706E80783
:104F2000F907C0F012161306E407F50798F0621BA4
:104F3000730B840B950B39F40A2661F0232B242B79
:104F4000252B21F408950A2609F4A140A6958FEF98
:104F5000811D811D089597F99F6780E870E060E0EA
:104F600008959FEF80EC089500240A941616170602
:104F700018060906089500240A941216130614064A
:104F800005060895092E0394000C11F4882352F0AD
:104F9000BB0F40F4BF2B11F460FF04C06F5F7F4F65
:104FA0008F4F9F4F089557FD9058440F551F59F04C
:104FB0005F3F71F04795880F97FB991F61F09F3F06
:104FC00079F087950895121613061406551FF2CF2F
:104FD0004695F1DF08C0161617061806991FF1CF7F
:104FE00086957105610508940895E894BB276627A6
:104FF0007727CB0197F908958ADF08F48FEF08959A
:105000000BD0C0CFB1DF28F0B6DF18F0952309F040
:10501000A2CFA7CF1124EACFC6DFA0F3959FD1F38B
:10502000950F50E0551F629FF001729FBB27F00D56
:10503000B11D639FAA27F00DB11DAA1F649F6627AB
:10504000B00DA11D661F829F2227B00DA11D621FFA
:10505000739FB00DA11D621F839FA00D611D221FB4
:10506000749F3327A00D611D231F849F600D211D98
:10507000822F762F6A2F11249F5750408AF0E1F03B
:1050800088234AF0EE0FFF1FBB1F661F771F881F84
:1050900091505040A9F79E3F510570F05CCFA6CFCC
:1050A0005F3FECF3983EDCF3869577956795B7956F
:1050B000F795E7959F5FC1F7FE2B880F911D969599
:1050C000879597F9089523DF880B990B0895EE0FC4
:1050D000FF1F881F8BBF0790F691E02D19940F9347
:1050E0001F93CF93DF938230910510F482E090E01C
:1050F000E0916107F091620720E030E0A0E0B0E0CD
:10510000309719F140815181028113814817590765
:10511000C8F08417950769F4109731F012960C9334
:10512000129713961C9327C0009361071093620790
:1051300022C02115310519F04217530718F49A01BE
:10514000BD01EF01DF01F801DBCF21153105F9F0D9
:10515000281B390B2430310580F48A819B8161152D
:10516000710521F0FB019383828304C09093620751
:1051700080936107FE01329644C0FE01E20FF31FE7
:105180008193919322503109398328833AC0209129
:105190005F0730916007232B41F420910302309187
:1051A00004023093600720935F0720910102309141
:1051B00002022115310541F42DB73EB74091050299
:1051C00050910602241B350BE0915F07F0916007B8
:1051D000E217F307A0F42E1B3F0B2817390778F0CE
:1051E000AC014E5F5F4F2417350748F04E0F5F1F2D
:1051F0005093600740935F078193919302C0E0E072
:10520000F0E0CF01DF91CF911F910F910895CF93DF
:10521000DF93009709F481C0FC0132971382128258
:10522000A0916107B0916207109781F420813181CC
:10523000820F931F20915F0730916007281739076D
:1052400051F5F0936007E0935F0767C0ED0120E040
:1052500030E0CE17DF0740F44A815B819E014115A3
:105260005105F1F0EA01F5CFD383C283408151812A
:10527000840F951FC817D90759F488819981840F25
:10528000951F0296918380838A819B819383828379
:105290002115310529F4F0936207E09361073DC0C1
:1052A000E901FB83EA8349915991C40FD51FEC179B
:1052B000FD0761F480819181840F951F0296E901B9
:1052C00099838883828193819B838A83E0E0F0E0E5
:1052D00012968D919C911397009719F0FD01DC01B6
:1052E000F7CF8D919C9111979D012E5F3F4F820FBB
:1052F000931F20915F07309160072817390769F4E1
:10530000309729F4109262071092610702C013824D
:105310001282B0936007A0935F07DF91CF91089549
:1053200081E090E0F89409C0FB01DC0102C001902B
:105330000D9241505040D8F7089511E0C6E3D1E0F6
:1053400000E005C0802FFE01C2DE2196011DC7339B
:0C535000D10780E00807B1F7F894FFCF08
:10535C00FF0000630780000102030405060F100024
:10536C0000C84200007A440000204100000000798F
:10537C0012CC11F611C512271205121912000000D9
:10538C00009B136F13CA1343136713531344135522
:10539C006E6578706563746564204D616E756661C9
:1053AC006374757265722049443A203078000D0A96
:1053BC0000556E65787065637465642050726F6417
:1053CC007563742049443A203078002C20006E61BB
:0A53DC006E00696E66006F766600D1
:00000001FF
