:1000000035C1000064C1000062C1000060C1000091
:100010005EC100005CC100005AC1000058C1000070
:1000200056C100000C94FC140C94FC140C94FC14A9
:100030004EC100004CC100004AC1000048C1000090
:1000400046C1000044C1000042C1000040C10000A0
:100050003EC100003CC100003AC100000C944A19A6
:1000600036C100000C94E7120C94BE1230C100009F
:100070002EC100002CC100002AC1000028C10000D0
:1000800026C1000024C1000022C1000020C10000E0
:100090000C9495120C946C121AC100000C9410135D
:1000A00016C1000014C1000012C1000010C1000000
:1000B0000EC100000CC100000AC1000008C1000010
:1000C00006C1000004C1000002C100000C944312EC
:1000D0000C941A12FCC000000C94F1110C94C8117D
:1000E000F6C000002609290918091C09220960091F
:1000F0002D09310937093B093F09450949094D09CE
:100100006009530957095B095B0B5B0B7C0B7C0B8C
:100110002F0B750B8C0B8C0B8C0B8C0B8C0B8C0B9B
:100120008C0B8C0B5B0B7C0BB20BB20B270C270CD4
:100130005D0C9C0C200D200D200D200D200D200DA0
:10014000200D200DAB0CFC0C00002100240027002A
:100150002A002D00300033000101000004010701D6
:100160000A0100002200250028002B002E0031008B
:10017000340002010000050108010B01000020000D
:100180002300260029002C002F003200000100006F
:10019000030106010901050505050705080808080A
:1001A000020202020A0A080804040404010101010F
:1001B000010101010303030303030303040707070A
:1001C0000C0C0C0C0C0C0C0C0202020206060606AF
:1001D000060606060B0B0B0B0B0B0B0B010210207C
:1001E000200808102040102040800201020108046D
:1001F0000201010204081020408080402010080401
:100200000201800402018040201008040201080459
:10021000020101020408102040800102040810209D
:10022000408000000A0B02090C0D0E0807030401B0
:1002300000000000000000000000000000000000BE
:10024000000000000000000000000000000012118B
:10025000100000000000000000000000000000008E
:100260000000000000000000FD22F82211241FBE43
:10027000CFEFD1E2DEBFCDBF00E00CBF12E0A0E0C7
:10028000B2E0EEEDFEE400E00BBF02C007900D927D
:10029000A235B107D9F727E0A2E5B2E001C01D926F
:1002A000AB31B207E1F711E0C5E3D1E000E006C0F1
:1002B00021970109802FFE010E942826C433D1070F
:1002C00080E00807A9F70E9494190C945E2798CE45
:1002D0004F925F926F927F928F929F92AF92BF9256
:1002E000CF92DF92EF92FF920F931F93CF93DF9302
:1002F000E0918806F0918906C081D181812C912CF2
:1003000088ECA82E82E4B82E8AAA9BAAACAABDAA21
:10031000C12C90EFD92E9FE7E92E95E4F92ECEAAB5
:10032000DFAAE8AEF9AE8AAD882309F446C00E8D87
:100330001F8DF8014080518062807380A701960173
:10034000C301B2010E94BD2518168CF120E030E0F7
:1003500048EC52E4C301B2010E946E2487FD21C023
:100360008EA09FA0A8A4B9A4CEA8DFA8E8ACF9AC41
:10037000A7019601C501B4010E94BD25181664F0BD
:10038000CAA8DBA8ECA8FDA8A7019601C501B40185
:100390000E946E2487FF11C0CEA2DFA2E8A6F9A6B4
:1003A0000CC0F80180829182A282B382D9CFF80179
:1003B000C082D182E282F382D3CFDF91CF911F91AD
:1003C0000F91FF90EF90DF90CF90BF90AF909F90F4
:1003D0008F907F906F905F904F9008950E941919B1
:1003E0000E940B2520E034E244E759E40C94722487
:1003F00008951F93CF93DF93EC010E946E0D182F89
:10040000CE0101960E946E0D90E0982F8827810FF3
:10041000911DDF91CF911F9108950F931F93CF935B
:10042000DF938C01EB01CB01E4DF8017910759F0DA
:10043000602FCE010E947B18612FCE0101960E9491
:100440007B1881E001C080E0DF91CF911F910F9177
:1004500008952F923F924F925F926F927F928F9268
:100460009F92AF92BF92CF92DF92EF92FF920F9343
:100470001F93CF93DF9300D01F92CDB7DEB79C833D
:100480008B83FC01E759FF4F80810B811C8108574A
:100490001F4F882309F465C00E943E196B017C013F
:1004A000F80180809180A280B3802DEC3CEC4CE47C
:1004B0005DE3EB81FC81E457FF4F608171818281B4
:1004C00093810E94C1252B013C0120E030E040EBEC
:1004D00051E4C501B4010E940924EB81FC81EC5672
:1004E000FF4F20813181428153810E94C1259B01B0
:1004F000AC01C301B2010E940924EB81FC81E856E2
:10050000FF4F20813181428153810E9472242B014F
:100510003C012B803C80FCE92F0E311CF1018081D5
:100520009181B601681B790B072E000C880B990B83
:100530000E940D259B01AC01C301B2010E94C1259F
:10054000A50194010E940A24F801608371838283CB
:1005500093830E943E19F1016083718382839383A8
:100560008BC0EB80FC80F6E4EF0EF11CF701638199
:100570007481636E716880810E94BA1780EB94E089
:100580000E94440EF70180810E941718F701228112
:10059000022E02C0969587950A94E2F7222329F04D
:1005A0008115F8E09F0708F0906FCB80DC8024E590
:1005B000C20ED11CF60191838083F701638174819F
:1005C000636E716B80810E94BA1780EB94E00E9489
:1005D000440EF70180810E941718F7012281022E34
:1005E00002C0969587950A94E2F7222329F0811597
:1005F000F8E09F0708F0906FEB81FC81EA5AFF4F0B
:1006000091838083BC01990F880B990B0E940D2563
:100610004B015C01F60160817181072E000C880B93
:10062000990B0E940D259B01AC01C501B4010E94EC
:100630007224EB81FC81E45BFF4F20813181428198
:1006400053810E94C125EB81FC81E455FF4F20813D
:100650003181428153810E94C125EB81FC81E055AB
:10066000FF4F20813181428153810E940924F8018A
:1006700060837183828393830E943E19EB81FC81A6
:10068000EC58FF4F60837183828393832B803C807F
:10069000F0E72F0E311CF101C080D180E280F380A1
:1006A0009B01AC012C193D094E095F0969017A01D2
:1006B000EB81FC81E858FF4F80819181A281B38159
:1006C00082179307A407B50708F03FC0F8018080A0
:1006D0009180A280B3802B813C812B593F4F3A837C
:1006E00029834B815C814C575F4F5C834B83FA01BC
:1006F0002081318142815381C501B4010E940924C6
:100700002B013C01C701B6010E940B2520E030E01F
:100710004AE754E40E9472249B01AC01C301B20178
:100720000E947224E981FA816083718382839383BA
:10073000EB81FC8180829182A282B3820E943E1969
:10074000F1016083718382839383F80160817181F9
:10075000828193810F900F900F900F90DF91CF9136
:100760001F910F91FF90EF90DF90CF90BF90AF90CF
:100770009F908F907F906F905F904F903F902F90C1
:1007800008958F929F92AF92BF92CF92DF92EF9295
:10079000FF92CF93DF93EC016A017B01FC01E058EB
:1007A000FF4F80809180A280B3809A01AB01C50188
:1007B000B4010E946E24CC53DF4F87FF05C08882AE
:1007C0009982AA82BB8212C020E030E0A901C70151
:1007D000B6010E946E2487FF05C0188219821A8212
:1007E0001B8204C0C882D982EA82FB82DF91CF914A
:1007F000FF90EF90DF90CF90BF90AF909F908F9041
:1008000008954F925F926F927F928F929F92AF92D4
:10081000BF92CF92DF92EF92FF920F931F93CF93ED
:10082000DF9300D000D0CDB7DEB70AD6853014F004
:1008300061E001C060E08BE30E94DA0D8091480323
:1008400090914903019709F07FC080916A029091CD
:100850006B02A0916C02B0916D0289839A83AB8385
:10086000BC83BCDD6B017C01E0918806F0918906B8
:10087000A081B181BE83AD83FD01E457FF4FA45831
:10088000BF4F2D913D914D915C916081718182812D
:1008900093810E94722420E030E048EC52E40E94F0
:1008A000C1254B015C01ED81FE81E857FF4F40807F
:1008B000518062807380ED81FE81EC53FF4F408157
:1008C00051816281738122E08BED95E00E94A1103D
:1008D0006FE372E08BED95E00E948C1022E0B30193
:1008E000A2018BED95E00E94A1106FE372E08BED09
:1008F00095E00E948C1022E0B501A4018BED95E0FB
:100900000E94A1106FE372E08BED95E00E948C10C5
:1009100026E0B701A6018BED95E00E94A1106FE3E0
:1009200072E08BED95E00E948C1022E049815A81A3
:100930006B817C818BED95E00E94A11062E472E0F6
:100940008BED95E00E948C1049DDC0906202D09042
:100950006302E0906402F0906502A70196010E9494
:1009600009244B015C016091F8027091F90280E06A
:1009700090E00E940B2520E030E040E251E40E942C
:1009800072249B01AC01C501B4010E94BD2587FD05
:1009900014C024DD6093620270936302809364024A
:1009A000909365020E9420178111BEC002E912E0F7
:1009B00088EE93E09A83898324C010DDA701960115
:1009C0000E94092420E030E0A9010E946E2487FFE4
:1009D000ABC0A701960160E070E080E89FE40E9450
:1009E00009249B01AC0160E070E0CB010E94092466
:1009F0006093620270936302809364029093650235
:100A000093C069817A81D8018D919D918D0105DD19
:100A1000E981FA813496FA83E983E115F44089F794
:100A200004E712E01A82198269817A81D8018D91D6
:100A30009D918D01F2DCE981FA813496FA83E98394
:100A4000749791F708E812E069817A81D8018D9155
:100A50009D918D01E2DCE981FA813496FA83E98384
:100A6000B89791F768E270E08091E6029091E70212
:100A7000D4DC6CE270E08091E8029091E902CDDC78
:100A800060E370E08091F4029091F502C6DC64E3CB
:100A900070E08091F6029091F702BFDC68E370E0AD
:100AA0008091220390912303B8DC6CE370E0809185
:100AB000240390912503B1DC60E470E0809126036B
:100AC00090912703AADC64E470E08091F802909191
:100AD000F902A3DC68E470E080914403909145033F
:100AE0009CDC6CE470E0809146039091470395DCB8
:100AF00060E570E08091FA029091FB028EDC08E2E2
:100B000013E084E590E09A83898369817A81D80132
:100B10008D919D918D0181DCE981FA813496FA8372
:100B2000E983E836F10589F7E0918806F0918906B6
:100B3000A081B181BE83AD83FD01E659FF4F1182D3
:100B400010828090060290900702A0900802B09058
:100B50000902609196027091970280E090E00E94F5
:100B60000B25A50194010E9472246B017C01609108
:100B700094027091950280E090E00E940B25A501FF
:100B800094010E94722469837A838B839C83609191
:100B900092027091930280E090E00E940B25A501E3
:100BA00094010E9472242B013C01ED81FE81E056EC
:100BB000FF4F6083718382839383ED81FE81EC55C7
:100BC000FF4F89819A81AB81BC8180839183A2830D
:100BD000B383ED81FE81E855FF4FC082D182E2826E
:100BE000F38220E030E0A901C301B2010E946E242B
:100BF00087FD23C020E030E0A90169817A818B81E3
:100C00009C810E946E2487FD18C020E030E0A9017D
:100C1000C701B6010E946E2487FD0FC0AD81BE8161
:100C20005A96AD90BC905B9709811A812B813C81CB
:100C3000B301A201CD010E944114E0918806F09118
:100C40008906808191819A8389838C0104551F4F85
:100C5000609198027091990280E090E00E940B25CB
:100C600020E030E04AE754E40E947224D8016D93FA
:100C70007D938D939C93139709811A8100551F4F83
:100C800060919A0270919B0280E090E00E940B2597
:100C900020E030E040E251E40E947224F8016083D9
:100CA00071838283938360919C0270919D0280E0A6
:100CB00090E00E940B25E981FA81E454FF4F6083A4
:100CC000718382839383E981FA81E45BFF4F6083C0
:100CD00071838283938309811A8100581F4F609129
:100CE000FA027091FB0280E090E00E940B2520E068
:100CF00030E040E251E40E947224D8016D937D936C
:100D00008D939C9313970E942017811103C08981B2
:100D10009A819FDBE0918806F0918906808191811C
:100D20009A838983FC01E857FF4F20E030E040E2DE
:100D300051E460817181828193810E94C1250E946A
:100D4000DF247093010360930003E981FA81E45783
:100D5000FF4FA981BA81A458BF4F2D913D914D916C
:100D60005C9160817181828193810E94722420E074
:100D700030E048EC52E40E94C12520E030E040E23F
:100D800051E40E94C1250E94DF2470930F036093F9
:100D90000E036091E6027091E70280E090E00E940D
:100DA0000B2520E030E040E251E40E947224AB01C8
:100DB000BC0189819A81E5DCE0918806F091890681
:100DC0000190F081E02DEC53FF4F20E030E040E255
:100DD00051E460817181828193810E94C1250E94CA
:100DE000DF247093E7026093E602F8DAC0906602AF
:100DF000D0906702E0906802F0906902A701960126
:100E00000E9409242FE632E143E05CE30E94BD2505
:100E100087FD0EC0E3DA60936602709367028093E9
:100E200068029093690220919006243028F176C0E0
:100E3000D5DAA70196010E94092420E030E0A9013B
:100E40000E946E2487FF95C0A701960160E070E0C4
:100E500080E89FE40E9409249B01AC0160E070E0FF
:100E6000CB010E940924609366027093670280930D
:100E70006802909369027DC0609193067091940618
:100E80006360716080918E0690918F06682B792B3C
:100E9000223041F0233041F0213011F0706405C060
:100EA000706503C0706601C07067C0909506D090F1
:100EB0009606E0909706F0909806706880918B06F1
:100EC0000E94BA1720E030E040E251E4C701B601C9
:100ED0000E946E2487FF0DC020E030E04AE754E412
:100EE000C701B6010E94C1250E94DA24CB01CCD6ED
:100EF00009C0C701B6010E94DA24072E000C880B36
:100F0000990BCDD680918B060E94171800908D0604
:100F100002C0969587950A94E2F702C080E090E0BF
:100F2000BC0180E090E00E940B2520919906309151
:100F30009A0640919B0650919C060E94C1252091E3
:100F40009D0630919E0640919F065091A0060E94FA
:100F500009246093A5067093A6068093A706909334
:100F6000A80660936A0270936B0280936C02909360
:100F70006D0220E030E04FE254E460916A0270912B
:100F80006B0280916C0290916D020E94BD25181633
:100F900044F410926A0210926B0210926C0210924A
:100FA0006D0220E030E040E251E460916A0270910D
:100FB0006B0280916C0290916D020E94C1250E948B
:100FC000DF24709343036093420386E3CBD5892BE0
:100FD00039F081E090E090933D0380933C0304C09E
:100FE00010923D0310923C0326960FB6F894DEBF94
:100FF0000FBECDBFDF91CF911F910F91FF90EF906A
:10100000DF90CF90BF90AF909F908F907F906F9028
:101010005F904F900895CF92DF92EF92FF92CF931F
:10102000DF9380914A0390914B03892B49F081E033
:1010300090E090934B0380934A0302D20C940000FB
:1010400082E190D5892B49F4C9D960936E027093DF
:101050006F028093700290937102C0D9C0906E02AB
:10106000D0906F02E0907002F0907102A70196019B
:101070000E94092420E030E040E450E40E94BD25B5
:1010800087FF24C0ABD9A70196010E94092420E064
:1010900030E0A9010E946E2487FFAAC0A701960133
:1010A00060E070E080E89FE40E9409249B01AC01AD
:1010B00060E070E0CB010E94092460936E0270939F
:1010C0006F02809370029093710292C00E943E1949
:1010D000C0900207D0900307E0900407F090050746
:1010E000C616D706E806F90658F581E090E0909319
:1010F0002103809320031092FD021092FC0260E015
:101100008BE358D50E94061580917302811103C0AC
:1011100081E080937302E0918806F0918906019046
:10112000F081E02DE857FF4F20E030E0A901608119
:101130007181828193810E946E2418166CF107C020
:10114000109221031092200310927302E4CF82E0E8
:1011500090E090932103809320030E9406158091D4
:101160007202811103C081E080937202E0918806CF
:10117000F0918906C081D181FE01E857FF4F20E040
:1011800030E048EC53E460817181828193810E9458
:10119000BD25181644F429C0109221031092200393
:1011A00010927202E3CF20E030E040E251E4FE0111
:1011B000EB59FF4F60817181828193810E94BD252F
:1011C000181614F5C457DF4F20E030E0A9016881FC
:1011D00079818A819B810E946E24811115C00E94B1
:1011E0002017811111C082E001C081E00E94E0223D
:1011F0000E94201781116ACFDF91CF91FF90EF906D
:10120000DF90CF900C940615DF91CF91FF90EF9077
:10121000DF90CF90089590E0FC013197E231F10525
:1012200008F04EC08827EE58FF4F8F4F0C942826A9
:10123000809180008F7703C0809180008F7D8093A4
:101240008000089580918000877FF9CF84B58F77E3
:1012500002C084B58F7D84BD08958091B0008F77E2
:1012600003C08091B0008F7D8093B000089580917D
:1012700090008F7707C0809190008F7D03C0809190
:101280009000877F8093900008958091A0008F77D1
:1012900007C08091A0008F7D03C08091A000877F50
:1012A0008093A0000895809120018F7707C08091DE
:1012B00020018F7D03C080912001877F80932001D2
:1012C0000895CF93C091F2068C2F0E94FD18EC2F49
:1012D000F0E0E755F94F9187E1E0EC0FF0E0E755DA
:1012E000F94F8187CE5FC093F2069091AF0680914F
:1012F000AE06923038F1823051F0833071F0813097
:1013000091F49091C80090649093C80011C090919E
:10131000D00090649093D0000BC090913001906405
:101320009093300105C09091C00090649093C000EC
:101330009091050190649093050190910501906250
:10134000909305014091F206843028F48091A9061B
:101350009091AA0604C08091AB069091AC0650E033
:10136000DC01ED91FC910280F381E02D62EB76E0EF
:1013700019959091AF068091AE06923018F18230A7
:1013800049F0833061F0813079F49091C80096FF84
:10139000FCCF0EC09091D00096FFFCCF09C0909179
:1013A000300196FFFCCF04C09091C00096FFFCCFA7
:1013B000909105019F7B90930501909105019F7D80
:1013C00090930501843070F58091A9069091AA064A
:1013D000DC01ED91FC910284F385E02D199597FFD6
:1013E000F3CF1092F2060E943E192091FC06309134
:1013F000FD06DC01CB01820F931FA11DB11D80935F
:10140000020790930307A0930407B0930507809108
:10141000F8069091F90601969093F9068093F806E4
:10142000CF9108958091AB069091AC06DC01ED91CF
:10143000FC910284F385E02D199597FFF3CFD1CF6E
:101440008F929F92AF92BF92CF92DF92EF92FF92D4
:101450000F931F93CF93DF9384E792E09093F50669
:101460008093F4068DE6809306078091AE06843063
:1014700028F48091A9069091AA0604C08091AB0639
:101480009091AC06DC01ED91FC910084F185E02D9A
:1014900019958823A9F09091F306891799F0809304
:1014A000F3060E943E19DC01CB010596A11DB11D7A
:1014B0008093FE069093FF06A0930007B093010768
:1014C000C0E0BEC20E943E190091FE061091FF06C8
:1014D0002091000730910107601771078207930779
:1014E00078F31092F3068091AF06823050F080912D
:1014F00005018F7B80930501809105018F7D80938D
:1015000005011092F2068091AE0610E0843008F0DA
:1015100041C08091A9069091AA06DC01ED91FC9151
:101520000084F185E02D1995892B09F440C0C09104
:10153000F206D0E08091A9069091AA06DC01ED9117
:10154000FC910284F385E02D1995C755D94F898701
:101550008091F2068F5F8093F2068034D0F211E022
:10156000D8CFC091F206D0E08091AB069091AC0646
:10157000DC01ED91FC910284F385E02D1995C755AE
:10158000D94F89878091F2068F5F8093F20680346D
:1015900008F011E08091AB069091AC06DC01ED9172
:1015A000FC910084F185E02D1995892BD1F680916D
:1015B000F6069091F70601969093F7068093F6064B
:1015C000112359F08091FA069091FB0601969093B1
:1015D000FB068093FA06C3E002C0C091F206C093F6
:1015E000B106C7300CF42CC29091B2068091AD06C2
:1015F000981366CF8091F206082F10E082500E9467
:10160000FD18F801E755F94F278130E0322F2227E6
:101610004085242B2817390759F08091FA069091BC
:10162000FB0601969093FB068093FA06CFEF33C03A
:101630004091B306E3E1F2E08BE192E021912417BF
:1016400069F18E179F07D1F78091FA069091FB06FA
:1016500001969093FB068093FA06C1E012C0809138
:10166000B4069091B506982789279827D4E09695D7
:101670008795DA95E1F790910607981708F04CC026
:10168000C2E080E8840F8093B306C093B40683E081
:101690008093F20616DEC093B106D2C1842F90E08B
:1016A000FC013197E031F105B8F58827EC57FF4F81
:1016B0008F4F0C9428268091B4069091B5069827F8
:1016C000892798279C0114E0369527951A95E1F70C
:1016D0008091B6069091B70698278927982704E04D
:1016E000969587950A95E1F714C08091B40690917C
:1016F000B50698278927BFCF8091B6069091B70687
:10170000382F292F8091B4069091B5069827892704
:101710009827820F931FAFCF0E943E192091FC069D
:101720003091FD06DC01CB01820F931FA11DB11D7D
:101730008093020790930307A0930407B0930507D3
:101740001092B106E091B3068E2F90E0FC01319724
:10175000E031F10508F074C18827EC56FF4F8F4F38
:101760000C9428262091B4063091B5063227232701
:1017700032274091B6065091B70654274527542783
:10178000FA01C3E0F695E795CA95E1F78E2FBA0105
:10179000677077276115710511F081E08E0F8093D6
:1017A000B40683E08093F206420F531F90E0812C31
:1017B000912C5401839424173507F1F1F901A3E02A
:1017C000F695E795AA95E1F7EE7FF170EC58FD4F9D
:1017D000A081B181E22FEF7002C0B695A795EA957E
:1017E000E2F7E82FF0E0E755F94FA0FF0EC0A18522
:1017F00075016401092E04C0CC0CDD1CEE1CFF1C1D
:101800000A94D2F7CA2AC1860FC075016401092E55
:1018100004C0CC0CDD1CEE1CFF1C0A94D2F7AC2DCE
:10182000A095B185AB23A1879F5F983010F08F5FA3
:1018300090E02F5F3F4FBFCF8093F206672B19F0E8
:101840008F5F8093F206C091F206CE5F34C0209184
:10185000B4063091B50632272327322F8091B60681
:101860009091B706982789279827482F440F4093CF
:10187000B406E3E09927820F911DC2E0CE0FA32F9B
:10188000B0E0A817B907ACF4AA0FBB1FAC58BD4F06
:101890002C9111964C91AE2FB0E0A755B94F1996E7
:1018A0004C93EF5FF0E0E755F94F21873F5FEC2F56
:1018B000E4CFE093F20605DDC3C08091B4069091B9
:1018C000B506982789279827FC0114E0F695E79537
:1018D0001A95E1F7282F2F708091B606FF27EE0F9B
:1018E000FF1FEC58FD4F8F3F81F481E090E0A0E0B6
:1018F000B0E004C0880F991FAA1FBB1F2A95D2F71A
:1019000020813181822B932B11C081E090E0A0E0F7
:10191000B0E004C0880F991FAA1FBB1F2A95D2F7F9
:1019200080959095208131818223932391838083B8
:1019300086E08093F20682C0E091B506F0E0EE0FFB
:10194000FF1FEC58FD4F8091B6069091B70698277F
:1019500089279827EBCF8091B4069091B5069827F8
:10196000892798272091B6063091B706322723277A
:101970003227280F391F40E057E0812C912C540169
:10198000839428173907A1F2A82FAF70E52FF0E054
:10199000E755F94F618570E0042E02C07595679593
:1019A0000A94E2F7FC0174E0F695E7957A95E1F781
:1019B000FF27EE0FFF1FEC58FD4F7501640104C0B7
:1019C000CC0CDD1CEE1CFF1CAA95D2F760FF05C0F5
:1019D00060817181C62AD72A06C0C094D0946081E4
:1019E0007181C622D722D182C0824F5F483010F069
:1019F0005F5F40E00196C5CFE091B5064091B70624
:101A00001092B60686E08093F206A9EAB6E0F0E00E
:101A1000EE0FFF1FEC58FD4F20E01296421771F0B9
:101A20001E968C911E9790E0982F88271F963C91C8
:101A30001F97832B819391932F5FEFCF42DCC8E0F8
:101A40008C2FDF91CF911F910F91FF90EF90DF903E
:101A5000CF90BF90AF909F908F9008958091910606
:101A600090919206811524E0920709F130F40097D5
:101A7000A1F081159240B1F00895811528E09207F8
:101A8000D9F081152AE09207E1F08115964029F5F9
:101A90008DEC9CECACECBBE318C08AE999E9A9E1B8
:101AA000BDE313C08DEC9CECACECBCE30EC08DEC44
:101AB0009CECACE4BCE309C08DEC9CECACE4BBE377
:101AC00004C08DEC9CECACECBAE380939906909347
:101AD0009A06A0939B06B0939C0608950F931F93BC
:101AE000CF93DF938C01C7E0D7E0888191E090939A
:101AF000D7038093F8031092010410920004812F01
:101B000090E00E944318C80199270E9443180E9440
:101B1000B81761E088810E94D51710920304809362
:101B2000020488E796E07CD2DF91CF911F910F915C
:101B30000895FC01A089B1898C91A689B78982FD9D
:101B40000FC09C91818D8F5F8F73228D821749F01A
:101B5000218DDF01A20FB11D5D969C93818F0895A9
:101B60008C910895CF93DF93282F30E0F901EE5D3B
:101B7000FD4F8491F901E452FE4FD491F901EA56E8
:101B8000FE4FC491CC2389F0811145DBEC2FF0E0AE
:101B9000EE0FFF1FE458FE4FA591B491EC91ED2399
:101BA00081E090E021F480E002C080E090E0DF91ED
:101BB000CF9108951F93CF93DF93282F30E0F90141
:101BC000EE5DFD4F8491F901E452FE4FD491F9018D
:101BD000EA56FE4FC491CC23B9F0162F81111BDBBE
:101BE000EC2FF0E0EE0FFF1FEE59FE4FA591B491E0
:101BF0009FB7F894111104C08C91D095D82302C0DE
:101C0000EC91DE2BDC939FBFDF91CF911F91089564
:101C1000CF93DF9390E0FC01E452FE4F2491FC014E
:101C2000EA56FE4F8491882361F190E0880F991F56
:101C3000FC01E85BFE4FC591D491FC01EE59FE4FCB
:101C4000A591B491611109C09FB7F894888120953E
:101C500082238883EC912E230BC0623061F49FB7FE
:101C6000F8948881322F309583238883EC912E2B32
:101C70002C939FBF06C08FB7F894E8812E2B288342
:101C80008FBFDF91CF9108958230910538F0880F92
:101C9000991F880F991F05970197F1F708958F9263
:101CA0009F92AF92BF92CF92DF92EF92FF926B0121
:101CB0007C010E9419194B015C01C114D104E1049B
:101CC000F104F1F00E941919DC01CB01881999097E
:101CD000AA09BB09883E9340A105B10570F321E034
:101CE000C21AD108E108F10888EE880E83E0981E38
:101CF000A11CB11CC114D104E104F10419F7DDCF1A
:101D0000FF90EF90DF90CF90BF90AF909F908F901B
:101D10000895CF92DF92EF92FF920F931F93CF938C
:101D2000DF936C017A018B01C0E0D0E0CE15DF05B6
:101D300081F0D8016D918D01D601ED91FC9101905A
:101D4000F081E02DC6011995892B11F02196EECF77
:101D50007E01C701DF91CF911F910F91FF90EF900E
:101D6000DF90CF900895FC01538D448D252F30E0F6
:101D7000842F90E0821B930B541710F0CF96089598
:101D800001970895FC01918D828D981761F0828DE5
:101D9000DF01A80FB11D5D968C91928D9F5F9F739F
:101DA000928F90E008958FEF9FEF0895FC01918D41
:101DB000828D981731F0828DE80FF11D858D90E0AE
:101DC00008958FEF9FEF0895FC01918D228D892F4B
:101DD00090E0805C9F4F821B91098F739927089533
:101DE00084E094E0F1DF21E0892B09F420E0822FE8
:101DF000089581EA94E0E8DF21E0892B09F420E0EE
:101E0000822F08958EE395E0DFDF21E0892B09F42E
:101E100020E0822F08958BED95E0D6DF21E0892B1D
:101E200009F420E0822F0895FC01848DDF01A80FC2
:101E3000B11DA35ABF4F2C91848D90E001968F73F2
:101E40009927848FA689B7892C93A089B1898C9111
:101E5000837080648C93938D848D981306C0028860
:101E6000F389E02D80818F7D80830895EF92FF922A
:101E70000F931F93CF93DF93EC0181E0888F9B8DAD
:101E80008C8D981305C0E889F989808185FD25C06E
:101E9000F62E0B8D10E00F5F1F4F0F731127E02EF2
:101EA0008C8DE8120BC00FB607FCFACFE889F989D0
:101EB000808185FFF5CFCE01B7DFF2CF8B8DFE019C
:101EC000E80FF11DE35AFF4FF0829FB7F8940B8F94
:101ED000EA89FB89808180620AC09FB7F894EE8905
:101EE000FF896083E889F9898081837080648083B9
:101EF0009FBF81E090E0DF91CF911F910F91FF9004
:101F0000EF900895CF93DF93EC01888D8823C1F083
:101F1000EA89FB89808185FD05C0A889B9898C91F2
:101F200086FD0EC00FB607FCF5CF808185FFF2CF8E
:101F3000A889B9898C9185FFEDCFCE0175DFE8CFF7
:101F4000DF91CF91089580E090E0892B19F063DF55
:101F5000811116C080E090E0892B19F053DF8111C8
:101F600012C080E090E0892B19F043DF81110EC090
:101F700080E090E0892B79F033DF81110AC0089569
:101F80000E940000E7CF0E940000EBCF0E940000FB
:101F9000EFCF0C940000089585ED8093BC008091F4
:101FA000BC0084FDFCCF1092FF03089540917003A4
:101FB000262F30E0240F311D21323105DCF4209131
:101FC000FF032430C9F4FC0180E090E0861758F448
:101FD000309170032191DC01A05BBC4FA30FB11DB8
:101FE0002C930196F3CF80917003680F6093700378
:101FF00080E0089581E0089582E0089508950895AD
:102000000895E091030480910204E81730F4F0E0B1
:10201000ED56FC4F808190E008958FEF9FEF08957B
:102020009091030480910204981750F4E92FF0E096
:10203000ED56FC4F208130E09F5F9093030402C077
:102040002FEF3FEFC90108958091020490E02091A5
:102050000304821B91090895CF92DF92EF92FF92C1
:102060000F931F93CF93DF937C01CB018A012091C3
:10207000D703222389F0EB016B01C40ED51ECC15CA
:10208000DD0561F06991D701ED91FC910190F0813E
:10209000E02DC7011995F3CF642F88DFC801DF91C8
:1020A000CF911F910F91FF90EF90DF90CF90089507
:1020B000CF93DF931F92CDB7DEB769832091D7030B
:1020C0002223D1F020910004203240F021E030E0C2
:1020D000FC013383228380E090E014C080910104EE
:1020E000E82FF0E0E852FC4F998190838F5F809356
:1020F00001048093000404C061E0CE01019656DF24
:1021000081E090E00F90DF91CF910895089580E0F5
:1021100090E008950E9451276115710579F0FB0147
:1021200001900020E9F73197AF01461B570BDC0106
:10213000ED91FC910280F381E02D199480E090E014
:1021400008952F923F924F925F926F927F928F925B
:102150009F92AF92BF92CF92DF92EF92FF920F9336
:102160001F93CF93DF93CDB7DEB7A2970FB6F89446
:10217000DEBF0FBECDBF8C014A015B01D22E9A019A
:10218000AB01C501B4010E942426882319F065E43F
:1021900072E027C024013501E89477F82FEF3FEF74
:1021A0004FE75FE7C301B2010E94242681110DC0F1
:1021B0002FEF3FEF4FE75FE7C301B2010E946E24AC
:1021C00018161CF469E472E00CC02FEF3FEF4FE7E4
:1021D0005FE4C501B4010E94BD2518162CF46DE41E
:1021E00072E0C80199DFBBC02FEF3FEF4FE75FEC14
:1021F000C501B4010E946E2487FDF1CF20E030E0DC
:10220000A901C501B4010E946E2487FF0FC0D80147
:10221000ED91FC910190F081E02D6DE2C8011995DE
:102220001C01B7FAB094B7F8B09402C0212C312C3D
:10223000F12C60E070E080E09FE3DF1441F020E0EB
:1022400030E040E251E40E947224F394F6CFA501FD
:1022500094010E940A244B015C010E94DF24562E47
:10226000672E782EC92E19A2262F372F482F592FC7
:102270007E01B1E2EB0EF11CEAA24F2CCA01B901BA
:102280002AE030E040E050E00E94E723605DF70183
:1022900062937F01211531054105510579F7BF0191
:1022A000C8013ADF7101E80EF91EDD2009F456C0BD
:1022B000652D762D872D9C2D0E940B259B01AC0151
:1022C000C501B4010E9409244B015C01D801ED91C4
:1022D000FC910190F081E02D6EE2C8011995E80EA5
:1022E000F91E20E030E040E251E4C501B4010E9453
:1022F000C1254B015C010E94DF249B0140E050E0BE
:1023000019A22AA0342C562E632E742EC52ECA0173
:10231000B9012AE030E040E050E00E94E723605D30
:10232000F10162931F01211531054105510579F72E
:10233000BF01C801F1DEE80EF91E652D762D872D4F
:102340009C2D0E940B259B01AC01C501B4010E948C
:1023500009244B015C01DA94D110C3CFC701A296C6
:102360000FB6F894DEBF0FBECDBFDF91CF911F91A6
:102370000F91FF90EF90DF90CF90BF90AF909F9024
:102380008F907F906F905F904F903F902F90089527
:102390001F920F920FB60F9211240BB60F922F932C
:1023A0003F934F935F936F937F938F939F93AF93DD
:1023B000BF93EF93FF9384E094E036DDFF91EF91BC
:1023C000BF91AF919F918F917F916F915F914F914D
:1023D0003F912F910F900BBE0F900FBE0F901F904B
:1023E00018951F920F920FB60F9211240BB60F92F1
:1023F0002F933F934F935F936F937F938F939F930D
:10240000AF93BF93EF93FF9384E094E092DBFF914F
:10241000EF91BF91AF919F918F917F916F915F915C
:102420004F913F912F910F900BBE0F900FBE0F90C9
:102430001F9018951F920F920FB60F9211240BB692
:102440000F922F933F934F935F936F937F938F934D
:102450009F93AF93BF93EF93FF9381EA94E0E4DC03
:10246000FF91EF91BF91AF919F918F917F916F916C
:102470005F914F913F912F910F900BBE0F900FBE28
:102480000F901F9018951F920F920FB60F92112464
:102490000BB60F922F933F934F935F936F937F935E
:1024A0008F939F93AF93BF93EF93FF9381EA94E051
:1024B00040DBFF91EF91BF91AF919F918F917F9101
:1024C0006F915F914F913F912F910F900BBE0F90A5
:1024D0000FBE0F901F9018951F920F920FB60F927C
:1024E00011240BB60F922F933F934F935F936F93EB
:1024F0007F938F939F93AF93BF93EF93FF938EE35D
:1025000095E092DCFF91EF91BF91AF919F918F91F8
:102510007F916F915F914F913F912F910F900BBEE3
:102520000F900FBE0F901F9018951F920F920FB62D
:102530000F9211240BB60F922F933F934F935F93FB
:102540006F937F938F939F93AF93BF93EF93FF937B
:102550008EE395E0EEDAFF91EF91BF91AF919F91FD
:102560008F917F916F915F914F913F912F910F903C
:102570000BBE0F900FBE0F901F9018951F920F92D9
:102580000FB60F9211240BB60F922F933F934F93D8
:102590005F936F937F938F939F93AF93BF93EF93CB
:1025A000FF938BED95E040DCFF91EF91BF91AF91F0
:1025B0009F918F917F916F915F914F913F912F915B
:1025C0000F900BBE0F900FBE0F901F9018951F928B
:1025D0000F920FB60F9211240BB60F922F933F93C9
:1025E0004F935F936F937F938F939F93AF93BF931B
:1025F000EF93FF938BED95E09CDAFF91EF91BF9104
:10260000AF919F918F917F916F915F914F913F918A
:102610002F910F900BBE0F900FBE0F901F9018952B
:102620001F920F920FB60F9211240BB60F922F9399
:102630003F934F935F936F937F938F939F93AF934A
:10264000BF93EF93FF938091B900887F803609F4A0
:102650009CC068F5883209F45BC090F4803109F4BD
:1026600054C038F4882309F4F6C0883009F44DC00A
:10267000F5C0883109F44CC0803209F45DC0EEC069
:10268000803409F468C048F4803309F455C08833B5
:1026900009F0E4C08093D603D8C0803509F44FC058
:1026A000883509F45DC0883409F0D8C0D6C08839AF
:1026B00009F4C7C0A8F4883709F467C038F488362D
:1026C00009F463C0803709F460C0C8C0883809F4D1
:1026D000B8C0803909F45FC0803809F0BFC05BC062
:1026E000803B09F486C038F4803A09F466C0883A21
:1026F00009F47FC0B3C0803C09F4A7C0883C09F44A
:10270000A4C0883B09F48AC0A9C08091B30310C05B
:102710009091D5038091D403981770F5E091D5037B
:1027200081E08E0F8093D503F0E0EC54FC4F808164
:102730008093BB0085EC86C08093D6038EC0E09169
:10274000D50381E08E0F8093D5038091BB00F0E02C
:10275000EC54FC4F80839091D5038091D4036EC0DC
:10276000E091D50381E08E0F8093D5038091BB006B
:10277000F0E0EC54FC4F80838091FE0381116DC02A
:1027800081E08093FD0384EA61C083E08093FF03CE
:1027900010929203CFCF80919203803208F051C003
:1027A000E091920381E08E0F809392038091BB00B1
:1027B000F0E0EE58FC4F8083BDCF85EC8093BC00E9
:1027C0001092FF0380919203803230F4E0919203E3
:1027D000F0E0EE58FC4F10826091920370E0E091BF
:1027E000F903F091FA0382E793E0199510929203AE
:1027F00035C084E08093FF03109271031092700340
:10280000E091FB03F091FC03199580917003811115
:1028100005C081E08093700310925003E091710332
:1028200081E08E0F80937103F0E0E05BFC4F8081CC
:102830008093BB009091710380917003981708F406
:1028400079CF85E88093BC0009C085EC8093BC00FB
:102850001092FF0303C01092D6039EDBFF91EF910D
:10286000BF91AF919F918F917F916F915F914F91A8
:102870003F912F910F900BBE0F900FBE0F901F90A6
:1028800018954F925F926F927F928F929F92AF9224
:10289000BF92CF92DF92EF92FF920F931F93CF934D
:1028A000DF93CDB7DEB72A970FB6F894DEBF0FBE21
:1028B000CDBF9A8789872A013B0109831A832B831D
:1028C0003C83DC015B96BC92AE925A9781E0AA945D
:1028D000AB2809F080E0E985FA8583AF4082518218
:1028E0006282738289819A81AB81BC818483958362
:1028F000A683B783C086D186E286F38666A577A5D0
:1029000080A991A90E940B2520E030E04AE754E419
:102910000E9472246D837E838F839887E985FA8570
:1029200044865586668677869B01AC0169817A81EB
:102930008B819C810E94C1254B015C01A985BA85D0
:1029400050966D937D938D939C9353972D813E81EB
:102950004F815885C701B6010E9472246B017C012A
:10296000E985FA85648B758B868B978B808D918D2D
:10297000019759F5A301920160E070E0CB010E943C
:102980000924A985BA851C966D937D938D939C939C
:102990001F97A501940160E070E0CB010E9409241B
:1029A000E985FA85608B718B828B938BA7019601E9
:1029B00060E070E0CB010E940924A985BA85549695
:1029C0006D937D938D939C9357972A960FB6F894A9
:1029D000DEBF0FBECDBFDF91CF911F910F91FF9052
:1029E000EF90DF90CF90BF90AF909F908F907F90AF
:1029F0006F905F904F9008951F920F920FB60F92B5
:102A000011240F900FBE0F901F901895E09188062B
:102A1000F09189060190F081E02D82AD811112C004
:102A2000DF01A457BF4F1D921D921D921C92139758
:102A300093978C91811108C060E070E0CF018C59B0
:102A40009F4F25C312AEECCF08952F923F924F9225
:102A50005F926F927F928F929F92AF92BF92CF922E
:102A6000DF92EF92FF920F931F93CF93DF93CDB737
:102A7000DEB72F970FB6F894DEBF0FBECDBFE09143
:102A80008806F0918906808191819F878E87DC017D
:102A9000DA968C9181114CC0AE85BF855E96ED9122
:102AA000FC915F97C080D180E280F380FD01C6A2D7
:102AB000D7A2E0A6F1A65C96ED91FC915D9780818E
:102AC0009181A281B381EE85FF8582A793A7A4A7F8
:102AD000B5A786A897A8A0ACB1ACA5019401C70181
:102AE000B6010E94BD25AE85BF851816D4F0D296DA
:102AF0008D909D90AD90BC90D597A5019401C70194
:102B0000B6010E946E2487FD05C081E0EE85FF8539
:102B100082AF0EC0EE85FF8586A297A2A0A6B1A6C1
:102B2000F4CF96968D929D92AD92BC929997EDCFEF
:102B30008E859F850E942902EE85FF8582AD8823C0
:102B400009F437C19BD36D837E838F839887EE858D
:102B5000FF8582A193A1A4A1B5A14D815E816F8162
:102B60007885481B590B6A0B7B0B86A597A5A0A9F6
:102B7000B1A9481759076A077B0708F41AC1048CE2
:102B8000F58DE02D80819181A281B38189839A8323
:102B9000AB83BC83AE85BF859096ED91FC919197F8
:102BA00029813A814B815C8160817181828193812D
:102BB0000E9409244B015C01EE85FF8522A533A507
:102BC00044A555A569817A818B819C810E94092445
:102BD0006B017C01AE85BF8550962D913D914D9145
:102BE0005C915397C501B4010E94C125EE85FF8514
:102BF00026A137A140A551A50E940A242B013C0122
:102C0000AE85BF8596966D937D938D939C93999792
:102C1000DB96BC91B987BB2309F4B2C0EE85FF8572
:102C200046A057A060A471A416A907A930AC21AC96
:102C3000212F302F432D522DC301B2010E94BD25FB
:102C400018160CF492C0AE85BF85D2968D919D91D9
:102C50000D90BC91A02D8A879B87AC87BD879C0176
:102C6000AD01C301B2010E946E2487FD79C0F985D0
:102C7000F11169C0812C912C5401AE85BF85549609
:102C80002D913D914D915C915797C701B6010E94DE
:102C9000C1259B01AC01EE85FF8566A177A180A5CA
:102CA00091A50E940924A50194010E940A24F62EF0
:102CB000E72ED82EC92E262F372F482F592F612FB8
:102CC000702F832D922D0E946E2487FD1BC0AE8530
:102CD000BF85D2961C91D297D3960C91D397D49658
:102CE0003C90D497D5962C90212F302F432D522DE8
:102CF0006F2D7E2D8D2D9C2D0E946E2487FD02C090
:102D000087011601AE85BF855E96ED91FC915F97B8
:102D1000812F902FA32DB22D80839183A283B38323
:102D200089819A81AB81BC81EE85FF8582A793A7BB
:102D3000A4A7B5A78D819E81AF81B88582A393A3F7
:102D4000A4A3B5A336C0EE85FF85248535854685C9
:102D50005785C501B4010E94C1254B015C018DCF8F
:102D60008A859B85AC85BD8504C0812F902FA32DBE
:102D7000B22DEE85FF8586A397A3A0A7B1A777CF35
:102D8000AE85BF851C962D913D914D915C911F970D
:102D9000C701B6010E94C1259B01AC01C301B2016C
:102DA0000E940924EE85FF8566A377A380A791A7DB
:102DB00035CFEE85FF85E759FF4F8081811127C010
:102DC000EE85FF85E457FF4F608171818281938199
:102DD0000E94DF248E859F858C599F4F2F960FB6BA
:102DE000F894DEBF0FBECDBFDF91CF911F910F9141
:102DF000FF90EF90DF90CF90BF90AF909F908F901B
:102E00007F906F905F904F903F902F9040C12F9692
:102E10000FB6F894DEBF0FBECDBFDF91CF911F91EB
:102E20000F91FF90EF90DF90CF90BF90AF909F9069
:102E30008F907F906F905F904F903F902F9008956C
:102E400081E02091FC023091FD022130310509F032
:102E500080E008951092030410920204109201047D
:102E6000109200041092FF0381E08093FE03109201
:102E7000FD0361E084E10E94DA0D61E085E10E94DA
:102E8000DA0DE9EBF0E080818E7F808380818D7F99
:102E9000808388E48093B80085E48093BC008EEF43
:102EA0009FE09093FC038093FB038FEF9FE0909350
:102EB000FA038093F9030895282F309100043132EA
:102EC00008F04AC08091FF038111FCCF9091F80374
:102ED00042E04093FF032093FE032FEF2093D6039D
:102EE0001092D5033093D403E8EDF3E0A4EBB3E004
:102EF00020E0321721F041914D932F5FFACF1092CD
:102F0000B3032091B303990F922B9093B303909145
:102F1000FD03913061F41092FD039091B3039093FF
:102F2000BB009091BC0093FDF8CF95EC01C095EEED
:102F30009093BC009091FF039230E1F39091D603FF
:102F40009F3F79F08091D603803241F08091D60383
:102F5000803331F084E005C081E003C082E001C02D
:102F600083E010920104109200041092D703089598
:102F700081E0A2CFCF93DF93EB0191E09093D70351
:102F80008093F803109201041092000461E088E736
:102F900096E08ED86D2F88E796E08AD86C2F88E768
:102FA00096E086D8DF91CF91E3CF9091FF03911106
:102FB000FCCF91E09093FF039093FE032FEF2093BB
:102FC000D6031092D503260F2093D4039093B30316
:102FD0009091B303880F892B8093B3038091FD03F5
:102FE000813061F41092FD038091B3038093BB00A4
:102FF0008091BC0083FDF8CF85EC01C085EE809305
:10300000BC008091FF038130E1F38091D5038617E6
:1030100010F46091D503A4EBB3E0E3E9F3E080E0C2
:10302000861721F09D9191938F5FFACF08951F939A
:10303000CF93DF93182F81E08093D7031093F80389
:10304000109201041092000460E088E796E030D806
:103050008FDF62E0812FA9DF1092030480930204C6
:1030600088E796E00E941010182F88E796E00E94EB
:103070001010D12F20E0C22F9E01282BC901DF9113
:10308000CF911F910895682F88E796E011C8FF92AD
:103090000F931F93CF93DF93EB0108EB10E0F80140
:1030A000F0802CE02083FC01808191E09093D70395
:1030B0008093F803109201041092000460E488E702
:1030C00096E00E945810CE0124E0969587952A95A7
:1030D000E1F7D9DFCE0134E0880F991F3A95E1F787
:1030E0009927D1DF45DFF801F082DF91CF911F9161
:1030F0000F91FF9008951F93CF93DF93EC01162F4C
:103100008091070791E09093D7038093F803109282
:103110000104109200048D2F90E0B5DFCE019927B5
:10312000B2DF612F88E796E00E945810DF91CF91BF
:103130001F911ECFCF92DF92EF92FF92CF93DF933A
:10314000EC016A017B01E889F98982E080834115FD
:10315000514E61057105B1F060E079E08DE390E0DA
:10316000A70196010E94E723DA01C9010197A1098D
:10317000B109B695A795979587959C01211580E192
:103180003807A8F0E889F989108260E874E88EE1D0
:1031900090E0A70196010E94E723DA01C901019797
:1031A000A109B109B695A795979587959C01EC85DE
:1031B000FD853083EE85FF852083188EEC89FD899F
:1031C00086E08083EA89FB89808180618083EA8947
:1031D000FB89808188608083EA89FB89808180689F
:1031E0008083EA89FB8980818F7D8083DF91CF9105
:1031F000FF90EF90DF90CF900895E2EBF6E090E043
:103200002FEF3FEF981791F04191242748E0B90143
:103210006170772736952795672B21F051E0252798
:1032200050EA3527415099F79F5FECCF922F832FBB
:1032300008953FB7F8948091130790911407A091D7
:103240001507B091160726B5A89B05C02F3F19F0AA
:103250000196A11DB11D3FBFBA2FA92F982F882716
:10326000820F911DA11DB11DBC01CD0142E0660F71
:10327000771F881F991F4A95D1F708952FB7F894A3
:1032800060910F07709110078091110790911207BC
:103290002FBF08951F920F920FB60F9211242F93F4
:1032A0003F938F939F93AF93BF9380910F0790911C
:1032B0001007A0911107B091120730910E0723E07B
:1032C000230F2D3720F40196A11DB11D05C026E85E
:1032D000230F0296A11DB11D20930E0780930F07A7
:1032E00090931007A0931107B093120780911307D2
:1032F00090911407A0911507B09116070196A11D92
:10330000B11D8093130790931407A0931507B093F2
:103310001607BF91AF919F918F913F912F910F9081
:103320000FBE0F901F901895CF93DF93CDB7DEB7E8
:1033300068970FB6F894DEBF0FBECDBF789484B502
:10334000826084BD84B5816084BD85B5826085BDA1
:1033500085B5816085BD80916E00816080936E002F
:103360001092810080918100826080938100809121
:1033700081008160809381008091800081608093D2
:1033800080008091B10084608093B1008091B00092
:1033900081608093B0008091910082608093910061
:1033A0008091910081608093910080919000816074
:1033B000809390008091A10082608093A100809111
:1033C000A10081608093A1008091A0008160809322
:1033D000A0008091210182608093210180912101D0
:1033E0008160809321018091200181608093200180
:1033F00080917A00846080937A0080917A00826064
:1034000080937A0080917A00816080937A00809125
:103410007A00806880937A001092C10068EE73E0B1
:1034200080E090E00E944F0E82E390E090931D03B5
:1034300080931C0383E680938A060CDD60E070E0D5
:103440008AE896E024DE60E086E30E94080E61E0F0
:1034500089E00E94080E61E082E00E94080E61E0AF
:103460008AE00E94080E60E08AE00E94DA0D61E0C6
:103470008BE00E94080E60E08BE00E94DA0D61E0B4
:103480008CE00E94080E61E08CE00E94DA0D60E0A2
:1034900082E10E94080E61E08BE30E94080E61E069
:1034A0008BE30E94DA0D61E088E00E94080E40E2A2
:1034B00051EA67E070E08BED95E03CDE809191068B
:1034C0009091920690938F0680938E060E942E0D07
:1034D00080EE90E090939406809393068AE999E9B0
:1034E000A9E9BFE38093950690939606A09397066B
:1034F000B093980610E5F12EEE24E3940CE7D02E5D
:10350000F0920707A7DCE092D703D092F80310925D
:103510000104109200046091070770E0660F771FA6
:1035200088E796E00E94581080E0C6DC63E08CE7F4
:103530003CDD109203048093020488E796E00E9429
:1035400010108C0188E796E00E9410109A838983FE
:1035500088E796E00E9410101127A4E0000F111FC9
:10356000AA95E1F729813A813327B4E0359527956B
:10357000BA95E1F7020F131F0A30110509F0C0CF09
:1035800029812F70422F50E0B42FAA27A80FB11D18
:10359000A031B54009F0B4CF81E080930807809155
:1035A000AE06823039F0833041F0813049F48EE349
:1035B00095E008C081EA94E005C084E094E002C090
:1035C0008BED95E09093AA068093A90640E052EC1B
:1035D00061E070E08091A9069091AA06ABDD809130
:1035E000AF06823078F080910401806680930401F8
:1035F000809105018F7B80930501809105018F7D6E
:10360000809305018091A9069091AA06DC01ED91B5
:10361000FC910284F385E02D199597FFF3CF10926A
:10362000F2061092F3061092FB061092FA06109220
:10363000F9061092F8061092F7061092F60602E9C3
:1036400012E0E8EEF3E0FA83E98389819A810E942F
:10365000F901D8018D939D938D01E981FA8134960A
:10366000FA83E983E115F44081F704E712E01A8256
:10367000198289819A810E94F901D8018D939D93C5
:103680008D01E981FA813496FA83E983749789F789
:1036900008E812E089819A810E94F901D8018D938E
:1036A0009D938D01E981FA813496FA83E983B89775
:1036B00089F788E290E00E94F9019093E7028093F5
:1036C000E6028CE290E00E94F9019093E902809377
:1036D000E80280E390E00E94F9019093F502809364
:1036E000F40284E390E00E94F9019093F702809342
:1036F000F60288E390E00E94F901909323038093FF
:1037000022038CE390E00E94F901909325038093BB
:10371000240380E490E00E94F901909327038093B2
:10372000260384E490E00E94F9019093F9028093CB
:10373000F80288E490E00E94F90190934503809399
:1037400044038CE490E00E94F90190934703809336
:10375000460380E590E00E94F9019093FB0280937C
:10376000FA0208E213E024E530E03A8329838981F4
:103770009A810E94F901D8018D939D938D01E98171
:10378000FA813496FA83E983E836F10581F788EC0B
:1037900090E00E943026988F8F8B4C01BEE68B0EF6
:1037A000911CF401808191812F89388D28553F4FDC
:1037B0003E832D83D901CD90DD90ED90FC90EF8973
:1037C000F88DEC55FF4FFC8BEB8B40805180628075
:1037D00073802F89388D20563F4F3E8B2D8BD9011A
:1037E0002D913D914D915C9129833A834B835C836C
:1037F000EF89F88DE457FF4FF88BEF87AF89B88DCD
:103800005F96FC93EE935E979D0128573F4F5D9620
:103810003C932E935C97245C3F4F91963C932E9360
:103820009097DA961C92DA97FD0112AA13AA14AAAD
:1038300015AA40E050E06FE773E4D6964D935D9390
:103840006D937C93D99744E650E060E070E046A722
:1038500057A760AB71AB918F808F20E030E0A9015A
:1038600069817A818B819C810E946E2487FD1FC0B3
:1038700020E030E0A901C301B2010E946E2487FD5F
:1038800016C020E030E0A901C701B6010E946E24F5
:1038900087FD0DC0AA24A394B12C93018201498114
:1038A0005A816B817C818F89988D0E944114E6DC5E
:1038B000AF89B88D9E960D911D912D913C91D19718
:1038C000DC01CB01801B910BA20BB30BEF89F88DB0
:1038D00082A393A3A4A3B5A382E391E1A0E8BBE3F1
:1038E00084AF95AFA6AFB7AF8FE795E0ABE1B5EB8F
:1038F000E05CFF4F80839183A283B3836F88788CD1
:10390000F6E46F0E711C88E4D3018C9314961C921C
:103910001E92139798E011969C93119712961C9201
:10392000EF89F88DE05AFF4F1082118212821382C4
:10393000EF89F88DEC5BFF4F8083EF89F88DEB5BAF
:10394000FF4FFA83E98382E6808380918A06EF89BC
:10395000F88DEC59FF4F8083EF89F88DEB59FF4FBD
:1039600010821182128213822F89388D27593F4F7E
:103970003A8B298BD9011C92F40111821082EF89B4
:10398000F88DE059FF4F10821182128213828CE26F
:1039900091E0A0E0B0E0EF89F88DE858FF4F808318
:1039A0009183A283B38380E090EFAFE7B5E48F8883
:1039B000988CFCE78F0E911CF40180839183A28385
:1039C000B383EF89F88DE857FF4F1082118212827E
:1039D0001382AF85B8891D921D921D921C92139778
:1039E00080E090E0A0E8BEE3EF89F88DEC56FF4F51
:1039F00080839183A283B38380E090E0AAEFB3E455
:103A0000EF89F88DE856FF4F80839183A283B383BB
:103A1000EF89F88DE456FF4F1082118212821382D3
:103A2000ED89FE891082118212821382AB89BC89D2
:103A30001D921D921D921C921397ED81FE811082A2
:103A400011821282138280E090E0A0E8BFE3EF8948
:103A5000F88DE455FF4F80839183A283B383EF8970
:103A6000F88DE055FF4F10821182128213828AE096
:103A700097EDA3E2BCE3EF89F88DEC54FF4F808310
:103A80009183A283B38384EA90E7ADE7BFE3EF8934
:103A9000F88DE854FF4F80839183A283B3834F88CE
:103AA000588CFCEB4F0E511C80E090E0A8ECB4E485
:103AB000F20180839183A283B3832F89388D2054B0
:103AC0003F4F3E832D8380E090E0AAE7B4E4F90104
:103AD00080839183A283B383EF89F88DEC53FF4FEA
:103AE0001082118212821382AF89B88D5A96AD90DE
:103AF000BC905B97C12CD12C760197018601B70150
:103B0000A601CD010E944114F401C080D180E28061
:103B1000F38020E030E0A901C701B601DFD6181616
:103B20000CF059C0AF89B88DD2961D921D921D928E
:103B30001C92D597FD01C6AAD7AAE0AEF1AE82AD20
:103B4000882309F448C0068D178DD8018D909D906B
:103B5000AD90BC90A5019401C701B601BFD687FF07
:103B600006C0F801C082D182E282F3820EC020E05A
:103B700030E0A901C501B401B1D687FF06C0D80164
:103B80001D921D921D921C921397EF89F88D86A0AD
:103B900097A0A0A4B1A4C6A8D7A8E0ACF1ACA70197
:103BA0009601C501B401E9D718166CF0EF89F88DBC
:103BB000C2A8D3A8E4A8F5A8A7019601C501B4013D
:103BC0008DD687FF08C0AF89B88D9696CD92DD92CD
:103BD000ED92FC929997EF89F88D66A577A580A95B
:103BE00091A919D79B01AC0160E070E080EA90E4F4
:103BF00079D66B017C019B01AC01AF89B88D5096E1
:103C00006D917D918D919C915397BBD7EF89F88DE4
:103C1000608B718B828B938BA70196016489758968
:103C2000868997895FD6AF89B88D54966D937D93B9
:103C30008D939C93579785E090E0A0E0B0E0EF89EA
:103C4000F88D86A797A7A0ABB1AB04D9EF89F88D03
:103C5000E55BFF4FA981BA818C918083FBD8F3018A
:103C6000148213826FEF7FE08F89988D855B9F4F61
:103C70000EDA2F89388D245B3F4FF20180819181CC
:103C8000A281B381F90180839183A283B3832F89B9
:103C9000388D205B3F4FED81FE8180819181A28133
:103CA000B381F90180839183A283B3832F89388DF7
:103CB0003093530220935202A989BA891C928091B1
:103CC000860690918706209184063091850682179A
:103CD000930719F57C01EE0CFF1C892B11F0C7012D
:103CE00002C081E090E09093870680938606880F5B
:103CF000991FB6D79A838983009188061091890607
:103D0000A701B8010E945527C8010E94C826E98171
:103D1000FA81F0938906E0938806E0918806F09195
:103D2000890680918406909185069C012F5F3F4F04
:103D300030938506209384062091520230915302DD
:103D4000880F991FE80FF91F31832083E0918806BF
:103D5000F0918906208131813E832D83F901E65956
:103D6000FF4F11821082609196027091970280E05D
:103D700090E051D620E030E048EC52E4B3D56B013E
:103D80007C01609194027091950280E090E043D6AE
:103D900020E030E048EC52E4A5D569837A838B8338
:103DA0009C83609192027091930280E090E033D600
:103DB00020E030E048EC52E495D52B013C01ED8148
:103DC000FE81E056FF4F6083718382839383ED8190
:103DD000FE81EC55FF4F89819A81AB81BC81808344
:103DE0009183A283B383ED81FE81E855FF4FC082AA
:103DF000D182E282F382AD81BE815A96AD90BC90B1
:103E00005B9720E030E0A901C301B20167D587FDCF
:103E10001CC020E030E0A90169817A818B819C81FE
:103E20005DD587FD12C020E030E0A901C701B601D1
:103E300055D587FD0AC009811A812B813C81B301C8
:103E4000A2018D819E810E944114E0918806F0912B
:103E50008906208131813A832983890104551F4FC6
:103E6000609198027091990280E090E0D4D520E0B2
:103E700030E04AE754E436D5D8016D937D938D93B5
:103E80009C93139709811A8100551F4F60919A02E4
:103E900070919B0280E090E0BED520E030E040E2EF
:103EA00051E420D5F801608371838283938360910C
:103EB0009C0270919D0280E090E0ADD5E981FA818D
:103EC000E454FF4F6083718382839383E981FA8195
:103ED000E45BFF4F608371838283938329813A81FE
:103EE00020583F4F3A8329836091FA027091FB0278
:103EF00080E090E090D520E030E040E251E4F2D460
:103F0000A981BA816D937D938D939C93139761E002
:103F100088E00E94DA0D0E942017882309F404C368
:103F20008091540290915502009709F065C010925B
:103F3000FF021092FE020E9401046091E60270915D
:103F4000E70280E090E067D520E030E040E251E415
:103F5000C9D4AB01BC01E0918806F091890680814B
:103F600091810E94C1030E9468010E9425150E9450
:103F70000B080E94EE0160935E0270935F028093D3
:103F8000600290936102E0918806F09189060190A9
:103F9000F081E02DE857FF4F80819181A281B381AC
:103FA00080935A0290935B02A0935C02B0935D02EF
:103FB0000E94EE01C0905602D0905702E090580245
:103FC000F0905902A701960124D44B015C01609145
:103FD000F4027091F50280E090E01DD520E030E021
:103FE00040E251E47FD49B01AC01C501B401C5D5C9
:103FF00018160CF4D7C22CC09093FF028093FE02D7
:104000000E9401040E94EE0120915E0230915F0245
:104010004091600250916102FCD32B013C01609100
:1040200088027091890280E090E0F5D420E030E0D1
:1040300040E251E457D47B018D83998320E030E046
:10404000A901C301B20199D518160CF444C121C0CD
:104050000E94EE01A7019601DCD320E030E0A90127
:104060003DD487FF5DC2A701960160E070E080E863
:104070009FE4CFD39B01AC0160E070E0CB01C9D3DA
:10408000609356027093570280935802909359029E
:1040900047C260918A0270918B0280E090E0BBD4AD
:1040A00020E030E040E251E41DD48B016C019B0123
:1040B000AC01B7018D819981ADD34B015C019701B2
:1040C0004D815981C301B20158D518160CF4D6C0E0
:1040D00060918C0270918D0280E090E09CD420E091
:1040E00030E040E251E4FED38B016C019B01AC0156
:1040F000B401C5018FD37B018D8399839401A50100
:10410000C301B2013AD518160CF487C060918E0233
:1041100070918F0280E090E07ED420E030E040E2B9
:1041200051E4E0D38B016C019B01AC01B7018D819F
:10413000998170D34B015C0197014D815981C30175
:10414000B2011BD518160CF43BC09401A501C301A4
:10415000B20113D518160CF0EEC060917C0270917C
:104160007D0280E090E057D420E030E040E251E46E
:10417000B9D36F83788789879A8760917A02709123
:104180007B0280E090E047D420E030E040E251E460
:10419000A9D36B877C878D879E87209030033090D2
:1041A0003103609190027091910280E090E033D4ED
:1041B00020E030E040E251E495D38B016C015AC01D
:1041C0009401A501C301B20189D318160CF4BDCF27
:1041D00060917A0270917B0280E090E01CD420E034
:1041E00030E040E251E47ED36F83788789879A87F5
:1041F000609178027091790280E090E00CD420E028
:1042000030E040E251E46ED36B877C878D879E87D8
:1042100020902E0330902F038EC097014D8159813D
:10422000C301B2015BD318160CF470CF6091780211
:104230007091790280E090E0EED320E030E040E23F
:1042400051E450D36F83788789879A87609176028B
:104250007091770280E090E0DED320E030E040E231
:1042600051E440D36B877C878D879E8720902C03F9
:1042700030902D037401AD82B9825DC09401A50117
:10428000C301B2012BD318160CF422CF6091760231
:104290007091770280E090E0BED320E030E040E211
:1042A00051E420D36F83788789879A87609174025D
:1042B0007091750280E090E0AED320E030E040E203
:1042C00051E410D36B877C878D879E8720902A03CB
:1042D00030902B0330C097014D815981C301B20149
:1042E000FDD218160CF4D5CE60917402709175024F
:1042F00080E090E090D320E030E040E251E4F2D260
:104300006F83788789879A8720915A0230915B0260
:1043100040915C0250915D022B873C874D875E8700
:1043200020902803309029038701CD80D980E12C8B
:10433000F12C1D82198231E02316310449F0E091FD
:104340008806F09189064F81588569857A8524C051
:104350002B853C854D855E856F81788589859A851D
:1043600058D29801A601BED24B015C0197014D8144
:104370005981C301B2014DD29B01AC01C501B40109
:1043800000D42B853C854D855E8544D2AB01BC01B4
:10439000E0918806F0918906808191810E94C10395
:1043A000E0918806F09189060190F081E02DEC53B0
:1043B000FF4F20E030E040E251E460817181828172
:1043C0009381DFD3FCD27093E7026093E6020E94F0
:1043D000680161E082E00E94DA0D0E9425150E94CA
:1043E0000B080E94EE01609356027093570280936F
:1043F000580290935902609188027091890280E07E
:1044000090E009D320E030E040E251E46BD26B0150
:104410007C0160918A0270918B0280E090E0FBD277
:1044200020E030E040E251E45DD29B01AC01C701E5
:10443000B601F0D16B017C0160918C0270918D020C
:1044400080E090E0E8D220E030E040E251E44AD25F
:104450009B01AC01C701B601DDD16B017C0160910C
:104460008E0270918F0280E090E0D5D220E030E0A3
:1044700040E251E437D29B01AC01C701B601CAD179
:104480006B017C01609190027091910280E090E05C
:10449000C2D220E030E040E251E424D29B01AC01E2
:1044A000C701B601B7D186D22B013C010E94EE01B3
:1044B000C0905E02D0905F02E0906002F0906102D6
:1044C000A7019601A6D14B015C01C301B201A5D29F
:1044D0009B01AC01C501B40150D318160CF467C0A0
:1044E0000E94EE01A701960194D120E030E0A901DD
:1044F000F5D187FF15C0A701960160E070E080E864
:104500009FE487D19B01AC0160E070E0CB0181D1D9
:1045100060935E0270935F028093600290936102E9
:104520000E942017811137C00E9401040E940615C5
:104530000E940B088091FE029091FF029093550219
:10454000809354020E94EE016093560270935702CA
:1045500080935802909359020E94EE0160935E028C
:1045600070935F028093600290936102E0918806ED
:10457000F09189060190F081E02DE857FF4F80818E
:104580009181A281B38180935A0290935B02A093A0
:104590005C02B0935D0260E088E00E94DA0D0E9448
:1045A000A30FB5CC1092FD021092FC02B9CF10926D
:1045B000FD021092FC0260E082E00E94DA0DB0CFB2
:1045C000C82F0E9406158C2F90E090931F038093B4
:1045D0001E0361E08AE00E94DA0D61E08BE00E9438
:1045E000DA0D60E08CE00E94DA0D0E940104FDCF3C
:1045F0008091880690918906CBC31F93CF93DF9358
:10460000E4E0F4E01382128288EE93E0A0E0B0E0F0
:1046100084839583A683B7832FE132E0318320839F
:1046200045E351E05587448744E351E05787468787
:1046300040E351E0518B408B41E351E0538B428B7F
:1046400042E351E0558B448B46E351E0578B468B58
:10465000118E128E138E148EE1EAF4E01382128210
:1046600084839583A683B7833183208345ED50E00F
:104670005587448744ED50E05787468740ED50E02A
:10468000518B408B41ED50E0538B428B42ED50E01B
:10469000558B448B46ED50E0578B468B118E128E16
:1046A000138E148EEEE3F5E01382128284839583D9
:1046B000A683B783318320834DEC50E05587448730
:1046C0004CEC50E05787468748EC50E0518B408BCC
:1046D00049EC50E0538B428B4AEC50E0558B448BB5
:1046E0004EEC50E0578B468B118E128E138E148E2B
:1046F000EBEDF5E01382128284839583A683B78362
:104700003183208325EC30E03587248724EC30E0AA
:104710003787268720EC30E0318B208B21EC30E08E
:10472000338B228B22EC30E0358B248B26EC30E06F
:10473000378B268B118E128E138E148EE8E7F6E0DF
:104740001382128284839583A683B78381E392E0E8
:104750009183808310920807E9EAF6E081E0848380
:1047600083E0858312E0168388EE93E09093FD0644
:104770008093FC06E9E0F7E0148213828AE48083E8
:1047800088E08183128285E0ABE8B6E001900D926B
:104790008A95E1F7CBE8D6E080E090E0AAE7B3E4C1
:1047A0008A8B9B8BAC8BBD8B0E942A171D831F822B
:1047B0001E820E942E0DE4E8F6E011821082138220
:1047C000128215821482DF91CF911F910895A1E288
:1047D0001A2EAA1BBB1BFD010DC0AA1FBB1FEE1F7B
:1047E000FF1FA217B307E407F50720F0A21BB30BC6
:1047F000E40BF50B661F771F881F991F1A9469F742
:1048000060957095809590959B01AC01BD01CF019D
:1048100008955058BB27AA270ED075C166D130F035
:104820006BD120F031F49F3F11F41EF45BC10EF404
:10483000E095E7FB51C1E92F77D180F3BA17620702
:1048400073078407950718F071F49EF58FC10EF475
:10485000E0950B2EBA2FA02D0B01B90190010C0190
:10486000CA01A0011124FF27591B99F0593F50F4A8
:10487000503E68F11A16F040A22F232F342F442700
:10488000585FF3CF469537952795A795F0405395F8
:10489000C9F77EF41F16BA0B620B730B840BBAF0C8
:1048A0009150A1F0FF0FBB1F661F771F881FC2F733
:1048B0000EC0BA0F621F731F841F48F48795779547
:1048C0006795B795F7959E3F08F0B3CF9395880FFE
:1048D00008F09927EE0F979587950895D9D008F499
:1048E00081E008950CD00FC107D140F0FED030F028
:1048F00021F45F3F19F0F0C0511139C1F3C014D158
:1049000098F39923C9F35523B1F3951B550BBB2796
:10491000AA2762177307840738F09F5F5F4F220F43
:10492000331F441FAA1FA9F333D00E2E3AF0E0E83C
:1049300030D091505040E695001CCAF729D0FE2F88
:1049400027D0660F771F881FBB1F2617370748071A
:10495000AB07B0E809F0BB0B802DBF01FF279358D0
:104960005F4F2AF09E3F510568F0B6C000C15F3F1F
:10497000ECF3983EDCF3869577956795B795F795B8
:104980009F5FC9F7880F911D9695879597F90895B0
:10499000E1E0660F771F881FBB1F6217730784074C
:1049A000BA0720F0621B730B840BBA0BEE1F88F75B
:1049B000E095089504D06894B111D9C00895BCD091
:1049C00088F09F5790F0B92F9927B751A0F0D1F0F8
:1049D000660F771F881F991F1AF0BA95C9F712C082
:1049E000B13081F0C3D0B1E00895C0C0672F782FF7
:1049F0008827B85F39F0B93FCCF3869577956795EE
:104A0000B395D9F73EF490958095709561957F4F59
:104A10008F4F9F4F0895E89409C097FB3EF49095FF
:104A20008095709561957F4F8F4F9F4F9923A9F087
:104A3000F92F96E9BB279395F69587957795679516
:104A4000B795F111F8CFFAF4BB0F11F460FF1BC05A
:104A50006F5F7F4F8F4F9F4F16C0882311F096E9ED
:104A600011C0772321F09EE8872F762F05C066239B
:104A700071F096E8862F70E060E02AF09A95660F54
:104A8000771F881FDAF7880F9695879597F908950D
:104A9000990F0008550FAA0BE0E8FEEF161617064F
:104AA000E807F907C0F012161306E407F50798F0B7
:104AB000621B730B840B950B39F40A2661F0232BD0
:104AC000242B252B21F408950A2609F4A140A6954C
:104AD0008FEF811D811D089597F99F6780E870E031
:104AE00060E008959FEF80EC089500240A94161664
:104AF000170618060906089500240A9412161306CC
:104B0000140605060895092E0394000C11F4882359
:104B100052F0BB0F40F4BF2B11F460FF04C06F5F75
:104B20007F4F8F4F9F4F089557FD9058440F551F4B
:104B300059F05F3F71F04795880F97FB991F61F01F
:104B40009F3F79F087950895121613061406551F96
:104B5000F2CF4695F1DF08C0161617061806991F02
:104B6000F1CF86957105610508940895E894BB27F7
:104B700066277727CB0197F908958ADF08F48FEF2E
:104B800008950BD0C0CFB1DF28F0B6DF18F0952321
:104B900009F0A2CFA7CF1124EACFC6DFA0F3959FDB
:104BA000D1F3950F50E0551F629FF001729FBB2714
:104BB000F00DB11D639FAA27F00DB11DAA1F649FC0
:104BC0006627B00DA11D661F829F2227B00DA11D73
:104BD000621F739FB00DA11D621F839FA00D611DF9
:104BE000221F749F3327A00D611D231F849F600D1A
:104BF000211D822F762F6A2F11249F5750408AF053
:104C0000E1F088234AF0EE0FFF1FBB1F661F771FDE
:104C1000881F91505040A9F79E3F510570F05CCF1E
:104C2000A6CF5F3FECF3983EDCF3869577956795CA
:104C3000B795F795E7959F5FC1F7FE2B880F911DFC
:104C40009695879597F9089523DF880B990B08951A
:104C5000EE0FFF1F881F8BBF0790F691E02D199470
:104C60000F931F93CF93DF938230910510F482E06E
:104C700090E0E0911907F0911A0720E030E0A0E001
:104C8000B0E0309719F140815181028113814817BA
:104C90005907C8F08417950769F4109731F01296F8
:104CA0000C93129713961C9327C000931907109327
:104CB0001A0722C02115310519F04217530718F4BD
:104CC0009A01BD01EF01DF01F801DBCF21153105AC
:104CD000F9F0281B390B2430310580F48A819B813F
:104CE0006115710521F0FB019383828304C09093C9
:104CF0001A0780931907FE01329644C0FE01E20FA5
:104D0000F31F8193919322503109398328833AC04C
:104D10002091170730911807232B41F420910202AC
:104D20003091030230931807209317072091000257
:104D3000309101022115310541F42DB73EB7409164
:104D4000040250910502241B350BE0911707F091E6
:104D50001807E217F307A0F42E1B3F0B281739079B
:104D600078F0AC014E5F5F4F2417350748F04E0FC7
:104D70005F1F50931807409317078193919302C0C8
:104D8000E0E0F0E0CF01DF91CF911F910F91089506
:104D9000CF93DF93009709F481C0FC01329713820F
:104DA0001282A0911907B0911A07109781F42081FF
:104DB0003181820F931F2091170730911807281710
:104DC000390751F5F0931807E093170767C0ED0115
:104DD00020E030E0CE17DF0740F44A815B819E017E
:104DE00041155105F1F0EA01F5CFD383C28340812B
:104DF0005181840F951FC817D90759F4888199816B
:104E0000840F951F0296918380838A819B8193836F
:104E100082832115310529F4F0931A07E0931907CD
:104E20003DC0E901FB83EA8349915991C40FD51F25
:104E3000EC17FD0761F480819181840F951F029624
:104E4000E90199838883828193819B838A83E0E04F
:104E5000F0E012968D919C911397009719F0FD0147
:104E6000DC01F7CF8D919C9111979D012E5F3F4FF3
:104E7000820F931F209117073091180728173907C1
:104E800069F4309729F410921A071092190702C09A
:104E900013821282B0931807A0931707DF91CF9166
:104EA000089581E090E0F89409C0FB01DC0102C0A4
:104EB00001900D9241505040D8F7089511E0C5E39C
:104EC000D1E000E005C0802FFE01C2DE2196011D69
:0E4ED000C633D10780E00807B1F7F894FFCF92
:104EDE0000001B0780000000C84200007A4400005A
:104EEE000020410102030405060F100000000036E9
:104EFE000F890EB30E820FE40EC20ED60E00000006
:104F0E000058102C10871000102410101001102CB7
:104F1E0020000D0A006E616E00696E66006F766687
:024F2E00000081
:00000001FF
