:1000000036C1000065C1000063C1000061C100008D
:100010005FC100005DC100005BC1000059C100006C
:1000200057C100000C94A7130C94A7130C94A713AA
:100030004FC100000C94D40E4BC1000049C1000018
:1000400047C1000045C1000043C1000041C100009C
:100050003FC100003DC100003BC100000C946D1D7C
:1000600037C100000C9491110C94681131C100004B
:100070002FC100002DC100002BC1000029C10000CC
:1000800027C1000025C1000023C1000021C10000DC
:100090000C943E110C9415111BC100000C94BB1163
:1000A00017C1000015C1000013C1000011C10000FC
:1000B0000FC100000DC100000BC1000009C100000C
:1000C00007C1000005C1000003C100000C94EB1043
:1000D0000C94C210FDC000000C9498100C946F108A
:1000E000F7C00000F215F515E415E815EE152C160D
:1000F000F915FD15031607160B1611161516191608
:100100002C161F16231627162218221843184318D8
:10011000F6173C18531853185318531853185318FC
:10012000531853182218431878187818ED18ED183A
:1001300023196219E619E619E619E619E619E6190E
:10014000E619E6197119C2190200002100240027DE
:10015000002A002D003000330001010000040107D7
:10016000010A0100002200250028002B002E00318A
:1001700000340002010000050108010B010000200D
:10018000002300260029002C002F0032000001006F
:100190000003010601090105050505070508080812
:1001A00008020202020A0A08080404040401010108
:1001B0000101010101030303030303030304070710
:1001C000070C0C0C0C0C0C0C0C02020202060606AE
:1001D00006060606060B0B0B0B0B0B0B0B01021096
:1001E0002020080810204010204080020102010851
:1001F0000402010102040810204080804020100801
:100200000402018004020180402010080402010859
:1002100004020101020408102040800102040810B9
:1002200020408000000A0B02090C0D0E0807030491
:1002300001000000000000000000000000000000BD
:10024000000000000000000000000000000000129C
:10025000111000000000000000000000000000007D
:1002600000000000000000000000FB26F62611241C
:100270001FBECFEFD1E2DEBFCDBF00E00CBF12E06A
:10028000A0E0B2E0E4E4F7E500E00BBF02C00790B5
:100290000D92A235B107D9F727E0A2E5B2E001C07F
:1002A0001D92AC33B207E1F711E0C6E3D1E000E004
:1002B00006C021970109802FFE010E945B2AC533E9
:1002C000D10780E00807A9F70E94CC1D0C94912B60
:1002D00097CE4F925F926F927F928F929F92AF9242
:1002E000BF92CF92DF92EF92FF920F931F93CF9323
:1002F000DF93E091A906F091AA06C081D181812CFB
:10030000912C88ECA82E82E4B82E8AAA9BAAACAACB
:10031000BDAAC12C90EFD92E9FE7E92E95E4F92EC6
:10032000CEAADFAAE8AEF9AE8AAD882309F446C0AA
:100330000E8D1F8DF8014080518062807380A7016F
:100340009601C301B2010E94F02918168CF120E039
:1003500030E048EC52E4C301B2010E94A12887FDBD
:1003600021C08EA09FA0A8A4B9A4CEA8DFA8E8AC05
:10037000F9ACA7019601C501B4010E94F029181635
:1003800064F0CAA8DBA8ECA8FDA8A7019601C501E6
:10039000B4010E94A12887FF11C0CEA2DFA2E8A667
:1003A000F9A60CC0F80180829182A282B382D9CFD3
:1003B000F801C082D182E282F382D3CFDF91CF9164
:1003C0001F910F91FF90EF90DF90CF90BF90AF9073
:1003D0009F908F907F906F905F904F9008950E94B4
:1003E0003C1D0E943E2920E034E244E759E40C948D
:1003F000A52808951F93CF93DF93EC010E94341A30
:10040000182FCE0101960E94341A90E0982F882769
:10041000810F911DDF91CF911F9108950F931F932D
:10042000CF93DF938C01EB01CB01E4DF80179107C1
:1004300059F0602FCE010E949E1C612FCE010196C3
:100440000E949E1C81E001C080E0DF91CF911F914E
:100450000F9108952F923F924F925F926F927F92E9
:100460008F929F92AF92BF92CF92DF92EF92FF92C4
:100470000F931F93CF93DF9300D01F92CDB7DEB7BA
:100480009C838B83FC01E759FF4F80810B811C818A
:1004900008571F4F882309F465C00E94611D6B0136
:1004A0007C01F80180809180A280B3802DEC3CEC2F
:1004B0004CE45DE3EB81FC81E457FF4F6081718187
:1004C000828193810E94F4292B013C0120E030E0DD
:1004D00040EB51E4C501B4010E943C28EB81FC8152
:1004E000EC56FF4F20813181428153810E94F429D3
:1004F0009B01AC01C301B2010E943C28EB81FC814D
:10050000E856FF4F20813181428153810E94A52806
:100510002B013C012B803C80FCE92F0E311CF101AA
:1005200080819181B601681B790B072E000C880B26
:10053000990B0E9440299B01AC01C301B2010E94AA
:10054000F429A50194010E943D28F801608371837C
:10055000828393830E94611DF10160837183828392
:1005600093838BC0EB80FC80F6E4EF0EF11CF70167
:1005700063817481636E716880810E94D81B80EBF7
:1005800094E00E94071BF70180810E94381CF7014C
:100590002281022E02C0969587950A94E2F72223C3
:1005A00029F08115F8E09F0708F0906FCB80DC8080
:1005B00024E5C20ED11CF60191838083F70163818B
:1005C0007481636E716B80810E94D81B80EB94E014
:1005D0000E94071BF70180810E94381CF7012281CD
:1005E000022E02C0969587950A94E2F7222329F0FD
:1005F0008115F8E09F0708F0906FEB81FC81EA5AC3
:10060000FF4F91838083BC01990F880B990B0E9447
:1006100040294B015C01F60160817181072E000CBD
:10062000880B990B0E9440299B01AC01C501B401C4
:100630000E94A528EB81FC81E45BFF4F2081318182
:10064000428153810E94F429EB81FC81E455FF4FE4
:1006500020813181428153810E94F429EB81FC8108
:10066000E055FF4F20813181428153810E943C2817
:10067000F80160837183828393830E94611DEB8103
:10068000FC81EC58FF4F60837183828393832B80BE
:100690003C80F0E72F0E311CF101C080D180E28058
:1006A000F3809B01AC012C193D094E095F096901DA
:1006B0007A01EB81FC81E858FF4F80819181A28112
:1006C000B38182179307A407B50708F03FC0F8016C
:1006D00080809180A280B3802B813C812B593F4F39
:1006E0003A8329834B815C814C575F4F5C834B83FA
:1006F000FA012081318142815381C501B4010E94F8
:100700003C282B013C01C701B6010E943E2920E094
:1007100030E04AE754E40E94A5289B01AC01C301E4
:10072000B2010E94A528E981FA81608371838283E6
:100730009383EB81FC8180829182A282B3820E94AA
:10074000611DF1016083718382839383F80160816D
:100750007181828193810F900F900F900F90DF91A4
:10076000CF911F910F91FF90EF90DF90CF90BF90AE
:10077000AF909F908F907F906F905F904F903F9041
:100780002F9008958F929F92AF92BF92CF92DF9257
:10079000EF92FF92CF93DF93EC016A017B01FC01A2
:1007A000E058FF4F80809180A280B3809A01AB0116
:1007B000C501B4010E94A128CC53DF4F87FF05C0BB
:1007C00088829982AA82BB8212C020E030E0A9010F
:1007D000C701B6010E94A12887FF05C018821982AF
:1007E0001A821B8204C0C882D982EA82FB82DF910E
:1007F000CF91FF90EF90DF90CF90BF90AF909F9000
:100800008F9008954F925F926F927F928F929F92F6
:10081000AF92BF92CF92DF92EF92FF920F931F930E
:10082000CF93DF9300D000D0CDB7DEB70E94EA1699
:10083000853014F061E001C060E08BE30E949D1AF6
:100840008091AE039091AF03019709F07FC0809132
:100850005A0290915B02A0915C02B0915D02898383
:100860009A83AB83BC83BBDD6B017C01E091A9065D
:10087000F091AA06A081B181BE83AD83FD01E4574A
:10088000FF4FA458BF4F2D913D914D915C916081D8
:100890007181828193810E94A52820E030E048EC9C
:1008A00052E40E94F4294B015C01ED81FE81E8577E
:1008B000FF4F4080518062807380ED81FE81EC5358
:1008C000FF4F408151816281738122E08CEF95E07E
:1008D0000E94480F60E472E08CEF95E00E94330FB5
:1008E00022E0B301A2018CEF95E00E94480F60E482
:1008F00072E08CEF95E00E94330F22E0B501A40175
:100900008CEF95E00E94480F60E472E08CEF95E078
:100910000E94330F26E0B701A6018CEF95E00E94FC
:10092000480F60E472E08CEF95E00E94330F22E004
:1009300049815A816B817C818CEF95E00E94480F40
:1009400063E472E08CEF95E00E94330F48DDC090C5
:100950005202D0905302E0905402F0905502A70149
:1009600096010E943C284B015C0160915E037091EE
:100970005F0380E090E00E943E2920E030E040E20A
:1009800051E40E94A5289B01AC01C501B4010E945D
:10099000F02987FD14C023DD609352027093530247
:1009A00080935402909355020E94CD158111BEC0D0
:1009B00008EF12E088EE93E09A83898324C00FDD6C
:1009C000A70196010E943C2820E030E0A9010E9486
:1009D000A12887FFABC0A701960160E070E080E826
:1009E0009FE40E943C289B01AC0160E070E0CB01D9
:1009F0000E943C28609352027093530280935402E9
:100A00009093550293C069817A81D8018D919D910F
:100A10008D0104DDE981FA813496FA83E983E115D9
:100A2000F44089F70AED12E01A82198269817A810D
:100A3000D8018D919D918D01F1DCE981FA81349687
:100A4000FA83E983749791F70EEE12E069817A8157
:100A5000D8018D919D918D01E1DCE981FA81349677
:100A6000FA83E983B89791F768E270E080914C03CC
:100A700090914D03D3DC6CE270E080914E03909135
:100A80004F03CCDC60E370E080915A0390915B03EC
:100A9000C5DC64E370E080915C0390915D03BEDC93
:100AA00068E370E08091880390918903B7DC6CE380
:100AB00070E080918A0390918B03B0DC60E470E079
:100AC00080918C0390918D03A9DC64E470E08091A7
:100AD0005E0390915F03A2DC68E470E08091AA035A
:100AE0009091AB039BDC6CE470E08091AC0390913F
:100AF000AD0394DC60E570E0809160039091610348
:100B00008DDC0EE813E084E590E09A8389836981A7
:100B10007A81D8018D919D918D0180DCE981FA81E6
:100B20003496FA83E983E836F10589F7E091A9065E
:100B3000F091AA06A081B181BE83AD83FD01E65983
:100B4000FF4F118210828090070290900802A090BF
:100B50000902B0900A026091FC027091FD0280E0EF
:100B600090E00E943E29A50194010E94A5286B01F6
:100B70007C016091FA027091FB0280E090E00E949B
:100B80003E29A50194010E94A52869837A838B835D
:100B90009C836091F8027091F90280E090E00E94DD
:100BA0003E29A50194010E94A5282B013C01ED815D
:100BB000FE81E056FF4F6083718382839383ED81D2
:100BC000FE81EC55FF4F89819A81AB81BC81808386
:100BD0009183A283B383ED81FE81E855FF4FC082EC
:100BE000D182E282F38220E030E0A901C301B201A8
:100BF0000E94A12887FD23C020E030E0A90169817F
:100C00007A818B819C810E94A12887FD18C020E0F9
:100C100030E0A901C701B6010E94A12887FD0FC0DD
:100C2000AD81BE815A96AD90BC905B9709811A81C7
:100C30002B813C81B301A201CD010E94EC12E09115
:100C4000A906F091AA06808191819A8389838C01FB
:100C500004551F4F6091FE027091FF0280E090E00A
:100C60000E943E2920E030E04AE754E40E94A52893
:100C7000D8016D937D938D939C93139709811A816D
:100C800000551F4F609100037091010380E090E0D8
:100C90000E943E2920E030E040E251E40E94A52875
:100CA000F801608371838283938360910203709162
:100CB000030380E090E00E943E29E981FA81E45438
:100CC000FF4F6083718382839383E981FA81E45BC0
:100CD000FF4F608371838283938309811A81005857
:100CE0001F4F609160037091610380E090E00E946B
:100CF0003E2920E030E040E251E40E94A528D801DE
:100D00006D937D938D939C9313970E94CD158111C4
:100D100003C089819A819EDBE091A906F091AA0621
:100D2000808191819A838983FC01E857FF4F20E0FD
:100D300030E040E251E460817181828193810E94C0
:100D4000F4290E9412297093670360936603E98176
:100D5000FA81E457FF4FA981BA81A458BF4F2D9162
:100D60003D914D915C9160817181828193810E945E
:100D7000A52820E030E048EC52E40E94F42920E06D
:100D800030E040E251E40E94F4290E94122970935D
:100D900075036093740360914C0370914D0380E080
:100DA00090E00E943E2920E030E040E251E40E94C1
:100DB000A528AB01BC0189819A81E4DCE091A906F8
:100DC000F091AA060190F081E02DEC53FF4F20E056
:100DD00030E040E251E460817181828193810E9420
:100DE000F4290E94122970934D0360934C03F7DAA3
:100DF000C0905602D0905702E0905802F0905902ED
:100E0000A70196010E943C282FE632E143E05CE313
:100E10000E94F02987FD0EC0E2DA609356027093BB
:100E2000570280935802909359022091B1062430C2
:100E300028F178C0D4DAA70196010E943C2820E06E
:100E400030E0A9010E94A12887FF97C0A701960161
:100E500060E070E080E89FE40E943C289B01AC01C8
:100E600060E070E0CB010E943C28609356027093D2
:100E7000570280935802909359027FC06091B40644
:100E80007091B506636071608091AF069091B00675
:100E9000682B792B223041F0233041F0213011F0C2
:100EA000706405C0706503C0706601C07067C09053
:100EB000B606D090B706E090B806F090B906706814
:100EC0008091AC060E94D81B20E030E040E251E463
:100ED000C701B6010E94A12887FF0EC020E030E0C4
:100EE0004AE754E4C701B6010E94F4290E940D2983
:100EF000CB010E94071B0AC0C701B6010E940D2941
:100F0000072E000C880B990B0E94121B8091AC06D7
:100F10000E94381C0090AE0602C0969587950A94F0
:100F2000E2F702C080E090E0BC0180E090E00E9427
:100F30003E292091BA063091BB064091BC065091E3
:100F4000BD060E94F4292091BE063091BF06409153
:100F5000C0065091C1060E943C286093C60670935B
:100F6000C7068093C8069093C90660935A0270938F
:100F70005B0280935C0290935D0220E030E04FE2E0
:100F800054E460915A0270915B0280915C029091EE
:100F90005D020E94F029181644F410925A02109231
:100FA0005B0210925C0210925D0220E030E040E2B1
:100FB00051E460915A0270915B0280915C029091C1
:100FC0005D020E94F4290E9412297093A903609384
:100FD000A80386E30E94751A892B39F081E090E01E
:100FE0009093A3038093A20304C01092A3031092D2
:100FF000A203609166037091670380E090E00E9415
:101000003E296B017C016091AA037091AB0380E0E3
:1010100090E00E943E2926E636E646E85FE30E941D
:10102000F4299B01AC01C701B6010E94F0291816F2
:101030000CF097C28091620390916303019709F0CD
:1010400090C28091770281118CC20091AC03109103
:10105000AD034801A12CB12CC501B4010E943E2969
:101060009B01AC0160E070E08AE794E40E94A5284F
:101070000E9412292B013C0180910002823021F054
:101080008F3F09F06BC205C0E8E4F1E094919D83C5
:10109000DCC082E080930002E8E4F1E0A491A9833F
:1010A000AF3F09F45BC2A23009F469C030F5AA234E
:1010B00009F44CC0A13009F0C6C010928000109213
:1010C00081008091810088608093810080918100FF
:1010D000816080938100E9E9F1E0E491F0E0EE0FB6
:1010E000FF1FED59FE4F85919491EFEDF1E0E491F2
:1010F000E0936102E1E0ED832FC1B981B43009F4DE
:1011000082C008F460C0B53009F09DC01092200183
:1011100010922101809121018860809321018091AA
:101120002101816080932101E9E9F1E0E491F0E09F
:10113000EE0FFF1FED59FE4F85919491EFEDF1E019
:10114000E491E0935E0295E09D8306C114BC15BC5A
:1011500084B5826084BD85B5816085BDE9E9F1E033
:10116000E491F0E0EE0FFF1FED59FE4F8591949151
:10117000EFEDF1E0E491E09362021D82AFC21092C4
:10118000B0001092B1008091B00082608093B000F6
:101190008091B10081608093B100E9E9F1E0E491D0
:1011A000F0E0EE0FFF1FED59FE4F85919491909363
:1011B0008F0280938E02EFEDF1E0E491E0939002D4
:1011C000F2E0FD838BC2109290001092910080910A
:1011D000910088608093910080919100816080935C
:1011E0009100E9E9F1E0E491F0E0EE0FFF1FED5925
:1011F000FE4F85919491EFEDF1E0E491E093600270
:1012000023E02D83A9C01092A0001092A10080912C
:10121000A10088608093A1008091A10081608093EB
:10122000A100E9E9F1E0E491F0E0EE0FFF1FED59D4
:10123000FE4F85919491EFEDF1E0E491E0935F0230
:1012400084E08D8389C0A981AD83BD81B7FD86C14E
:1012500061E082E00E94CB1A8D818D7F09F080C011
:1012600060E072E18AE790E0A50194010E94E52721
:1012700029833A834B835C8369017A01E1E0CE1ACA
:10128000D108E108F108FFEFCF16D104E104F10421
:1012900009F008F44EC060E472E48FE090E0A5012C
:1012A00094010E94E52769017A0181E0C81AD108FA
:1012B000E108F1089D81923009F5AFEFCA16D1041B
:1012C000E104F10409F008F4D0C160E970ED83E0B5
:1012D00090E0A50194010E94E52769017A01B1E03F
:1012E000CB1AD108E108F108EFEFCE16D104E104E2
:1012F000F10411F008F046C183E027C0FFEFCF16DC
:10130000D104E104F104B9F0B0F068E478EE81E0D2
:1013100090E0A50194010E94E52769017A0181E02E
:10132000C81AD108E108F1089D81992309F49FC1E9
:1013300068C181E001C082E0FD81F11106C095B570
:10134000987F892B85BD7CC085E09091B100987F06
:10135000892B8093B10074C061E082E00E94CB1AB7
:1013600060E072E18AE790E0A50194010E94E52720
:1013700069017A0181E0C81AD108E108F108C114B5
:10138000D10491E0E906F10488F068E478EE81E0A8
:1013900090E0A50194010E94E52769017A01A1E08E
:1013A000CA1AD108E108F10883E001C081E0BD81DB
:1013B000B13081F490918100987F892B80938100D6
:1013C000411451046104710409F03FC02FEF3FEF55
:1013D000A9016DC0ED81E33079F490919100987F7F
:1013E000892B80939100411451046104710469F5C3
:1013F0002FEF3FEFA9017DC0FD81F43079F490918A
:10140000A100987F892B8093A100411451046104AD
:101410007104D9F42FEF3FEFA9017DC02D81253054
:1014200079F490912101987F892B809321014114B7
:1014300051046104710449F42FEF3FEFA9017DC00D
:10144000411451046104710471F0D801AA0FBB1F4B
:10145000A30192010E94012828EE33E040E050E011
:101460000E940B2803C02FEF3FEFA9018D8182302E
:1014700081F12CF4882361F08130C9F06FC09D8127
:10148000943009F448C0ACF1953009F456C066C0F8
:10149000C7BC20937302309374024093750250933B
:1014A000760280916E00826080936E0057C0D09269
:1014B0008900C092880020936F023093700240939D
:1014C00071025093720280916F00826080936F006E
:1014D00045C0C092B3002093910230939202409392
:1014E0009302509394028091700082608093700008
:1014F00035C0D0929900C092980020936B0230932F
:101500006C0240936D0250936E0280917100826074
:101510008093710023C0D092A900C092A8002093AC
:101520006702309368024093690250936A02809187
:10153000720082608093720011C0D0922901C09223
:101540002801209363023093640240936502509314
:1015500066028091730082608093730081E08093C3
:1015600077028091620390916303892B09F0BBC0DD
:1015700080917702882309F4B6C082E0D1D310921B
:101580007702B1C068E478EE81E090E0A5019401B3
:101590000E94E52769017A0191E0C91AD108E108A2
:1015A000F108AFEFCA16D104E104F10441F138F1BA
:1015B00064E274EF80E090E0A50194010E94E527C9
:1015C00069017A01A1E0CA1AD108E108F108BFEF68
:1015D000CB16D104E104F10409F008F4B5CE62E1C0
:1015E0007AE780E090E0A50194010E94E527690177
:1015F0007A01E1E0CE1AD108E108F10819C084E0CF
:10160000A4CEEFEFCE16D104E104F10409F008F402
:1016100063C062E17AE780E090E0A50194010E9456
:10162000E52769017A01B1E0CB1AD108E108F10898
:101630002FEFC216D104E104F104A9F0A0F08981D2
:101640009A81AB81BC812AE0B595A795979587953E
:101650002A95D1F76C017D01F1E0CF1AD108E1089C
:10166000F10887E072CE86E070CE82E06ECEAFEFFA
:10167000CA16D104E104F10469F160F162E17AE78C
:1016800080E090E0A50194010E94E52769017A01BC
:1016900081E0C81AD108E108F1089FEFC916D1040A
:1016A000E104F104A9F0A0F089819A81AB81BC81A9
:1016B0003AE0B595A795979587953A95D1F76C013E
:1016C0007D01E1E0CE1AD108E108F10885E037CECE
:1016D00084E035CE83E033CE84E02ECE61E082E03C
:1016E0000E94CB1ABDCD26960FB6F894DEBF0FBE72
:1016F000CDBFDF91CF911F910F91FF90EF90DF90C1
:10170000CF90BF90AF909F908F907F906F905F90A1
:101710004F900895CF92DF92EF92FF92CF93DF9395
:101720008091B0039091B103892B51F081E090E05A
:101730009093B1038093B0030E94EA160C940000CA
:1017400082E10E94751A892B51F40E94EF01609387
:1017500078027093790280937A0290937B020E94C0
:10176000EF01C0907802D0907902E0907A02F09078
:101770007B02A70196010E943C2820E030E040E473
:1017800050E40E94F02987FF25C00E94EF01A701C5
:1017900096010E943C2820E030E0A9010E94A12887
:1017A00087FFA9C0A701960160E070E080E89FE490
:1017B0000E943C289B01AC0160E070E0CB010E94DC
:1017C0003C28609378027093790280937A02909318
:1017D0007B0291C00E94611DC0902307D090240716
:1017E000E0902507F0902607C616D706E806F9060A
:1017F00058F581E090E090938703809386031092E0
:1018000063031092620360E08BE30E949D1AA9D7E4
:1018100080917D02811103C081E080937D02E0917F
:10182000A906F091AA060190F081E02DE857FF4F3C
:1018300020E030E0A90160817181828193810E9462
:10184000A128181664F107C010928703109286032E
:1018500010927D02E4CF82E090E090938703809322
:1018600086037FD780917C02811103C081E0809341
:101870007C02E091A906F091AA06C081D181FE0107
:10188000E857FF4F20E030E048EC53E4608171817D
:10189000828193810E94F029181644F429C0109285
:1018A00087031092860310927C02E3CF20E030E0A1
:1018B00040E251E4FE01EB59FF4F6081718182816A
:1018C00093810E94F02918160CF5C457DF4F20E0D1
:1018D00030E0A901688179818A819B810E94A128D9
:1018E000811114C00E94CD15811110C082E001C089
:1018F00081E00E94B71D0E94CD1581116BCFDF9151
:10190000CF91FF90EF90DF90CF902BC7DF91CF91D9
:10191000FF90EF90DF90CF900895CF92DF92EF92FB
:10192000FF920F931F93CF93DF936C017A018B018A
:10193000C0E0D0E0CE15DF0581F0D8016D918D01BA
:10194000D601ED91FC910190F081E02DC601199531
:10195000892B11F02196EECF7E01C701DF91CF9147
:101960001F910F91FF90EF90DF90CF900895FC01B1
:10197000538D448D252F30E0842F90E0821B930BF4
:10198000541710F0CF96089501970895FC01918D9A
:10199000828D981761F0828DDF01A80FB11D5D96D1
:1019A0008C91928D9F5F9F73928F90E008958FEF3F
:1019B0009FEF0895FC01918D828D981731F0828DF3
:1019C000E80FF11D858D90E008958FEF9FEF08954A
:1019D000FC01918D228D892F90E0805C9F4F821BAE
:1019E00091098F739927089585E294E0F1DF21E052
:1019F000892B09F420E0822F089582EC94E0E8DF3F
:101A000021E0892B09F420E0822F08958FE595E0ED
:101A1000DFDF21E0892B09F420E0822F08958CEF8D
:101A200095E0D6DF21E0892B09F420E0822F08958C
:101A3000FC01848DDF01A80FB11DA35ABF4F2C916B
:101A4000848D90E001968F739927848FA689B7893A
:101A50002C93A089B1898C91837080648C93938D31
:101A6000848D981306C00288F389E02D80818F7DD4
:101A700080830895EF92FF920F931F93CF93DF938C
:101A8000EC0181E0888F9B8D8C8D981305C0E889CF
:101A9000F989808185FD25C0F62E0B8D10E00F5F42
:101AA0001F4F0F731127E02E8C8DE8120BC00FB65D
:101AB00007FCFACFE889F989808185FFF5CFCE014F
:101AC000B7DFF2CF8B8DFE01E80FF11DE35AFF4F18
:101AD000F0829FB7F8940B8FEA89FB89808180623E
:101AE0000AC09FB7F894EE89FF896083E889F98975
:101AF00080818370806480839FBF81E090E0DF916C
:101B0000CF911F910F91FF90EF900895CF93DF93A6
:101B1000EC01888D8823C1F0EA89FB89808185FDED
:101B200005C0A889B9898C9186FD0EC00FB607FC47
:101B3000F5CF808185FFF2CFA889B9898C9185FF87
:101B4000EDCFCE0175DFE8CFDF91CF91089580E032
:101B500090E0892B19F063DF811116C080E090E0DE
:101B6000892B19F053DF811112C080E090E0892B9E
:101B700019F043DF81110EC080E090E0892B79F0ED
:101B800033DF81110AC008950E940000E7CF0E9450
:101B90000000EBCF0E940000EFCF0C9400000895EE
:101BA00085ED8093BC008091BC0084FDFCCF109239
:101BB000200408954091B702262F30E0240F311DF4
:101BC00021323105DCF4209120042430C9F4FC01D9
:101BD00080E090E0861758F43091B7022191DC0143
:101BE000A956BD4FA30FB11D2C930196F3CF809141
:101BF000B702680F6093B70280E0089581E008950E
:101C000082E00895089508950895E0912404809154
:101C10002304E81730F4F0E0EC54FC4F808190E0AE
:101C200008958FEF9FEF08959091240480912304ED
:101C3000981750F4E92FF0E0EC54FC4F208130E08D
:101C40009F5F9093240402C02FEF3FEFC9010895D6
:101C50008091230490E020912404821B910908952F
:101C6000CF92DF92EF92FF920F931F93CF93DF9368
:101C70007C01CB018A012091F803222389F0EB013A
:101C80006B01C40ED51ECC15DD0561F06991D7013D
:101C9000ED91FC910190F081E02DC7011995F3CFF2
:101CA000642F88DFC801DF91CF911F910F91FF90C2
:101CB000EF90DF90CF900895CF93DF931F92CDB731
:101CC000DEB769832091F8032223D1F0209121040B
:101CD000203240F021E030E0FC013383228380E0B9
:101CE00090E014C080912204E82FF0E0E750FC4F10
:101CF000998190838F5F809322048093210404C094
:101D000061E0CE01019656DF81E090E00F90DF9117
:101D1000CF910895089580E090E008950E94842B6B
:101D20009091000289133DC0E8E4F1E0E4919FEF57
:101D300090930002E230C9F050F4EE2399F0E130C4
:101D400081F590916F009D7F90936F002AC0E430E1
:101D500019F1E0F0E53029F5909173009D7F9093A3
:101D600073001FC010926E001CC0909170009D7F88
:101D70009093700091E09093B0009091B100987FA3
:101D800094609093B1001092B3000BC090917100D9
:101D90009D7F9093710005C0909172009D7F9093FC
:101DA000720060E00C949D1A1F920F920FB60F9272
:101DB00011240BB60F922F933F934F935F936F9322
:101DC0007F938F939F93AF93BF93EF93FF938091F4
:101DD000910290919202A0919302B0919402892B6A
:101DE0008A2B8B2B51F190919002E0918E02F09111
:101DF0008F02808189278083809191029091920245
:101E0000A0919302B0919402181619061A061B06A7
:101E1000BCF48091910290919202A0919302B091B2
:101E200094020197A109B1098093910290939202C3
:101E3000A0939302B093940203C08091000270DFDC
:101E4000FF91EF91BF91AF919F918F917F916F9192
:101E50005F914F913F912F910F900BBE0F900FBE4E
:101E60000F901F9018956115710579F0FB01019095
:101E70000020E9F73197AF01461B570BDC01ED91CC
:101E8000FC910280F381E02D199480E090E00895A8
:101E90002F923F924F925F926F927F928F929F927A
:101EA000AF92BF92CF92DF92EF92FF920F931F9368
:101EB000CF93DF93CDB7DEB7A2970FB6F894DEBF0E
:101EC0000FBECDBF8C014A015B01D22E9A01AB013E
:101ED000C501B4010E94572A882319F066E472E014
:101EE00027C024013501E89477F82FEF3FEF4FE743
:101EF0005FE7C301B2010E94572A81110DC02FEF85
:101F00003FEF4FE75FE7C301B2010E94A128181617
:101F10001CF46AE472E00CC02FEF3FEF4FE75FE480
:101F2000C501B4010E94F02918162CF46EE472E089
:101F3000C80199DFBBC02FEF3FEF4FE75FECC50152
:101F4000B4010E94A12887FDF1CF20E030E0A90173
:101F5000C501B4010E94A12887FF0FC0D801ED91EF
:101F6000FC910190F081E02D6DE2C80119951C01F2
:101F7000B7FAB094B7F8B09402C0212C312CF12CF0
:101F800060E070E080E09FE3DF1441F020E030E0AB
:101F900040E251E40E94A528F394F6CFA5019401F4
:101FA0000E943D284B015C010E941229562E672E8B
:101FB000782EC92E19A2262F372F482F592F7E0190
:101FC000B1E2EB0EF11CEAA24F2CCA01B9012AE0E2
:101FD00030E040E050E00E940B28605DF701629322
:101FE0007F01211531054105510579F7BF01C80170
:101FF0003ADF7101E80EF91EDD2009F456C0652DA7
:10200000762D872D9C2D0E943E299B01AC01C50198
:10201000B4010E943C284B015C01D801ED91FC9178
:102020000190F081E02D6EE2C8011995E80EF91ECD
:1020300020E030E040E251E4C501B4010E94F429FF
:102040004B015C010E9412299B0140E050E019A263
:102050002AA0342C562E632E742EC52ECA01B90127
:102060002AE030E040E050E00E940B28605DF10182
:1020700062931F01211531054105510579F7BF0113
:10208000C801F1DEE80EF91E652D762D872D9C2DF9
:102090000E943E299B01AC01C501B4010E943C286D
:1020A0004B015C01DA94D110C3CFC701A2960FB6E1
:1020B000F894DEBF0FBECDBFDF91CF911F910F917E
:1020C000FF90EF90DF90CF90BF90AF909F908F9058
:1020D0007F906F905F904F903F902F9008951F9248
:1020E0000F920FB60F9211240BB60F922F933F93BE
:1020F0004F935F936F937F938F939F93AF93BF9310
:10210000EF93FF9385E294E093DCFF91EF91BF9111
:10211000AF919F918F917F916F915F914F913F917F
:102120002F910F900BBE0F900FBE0F901F90189520
:102130001F920F920FB60F9211240BB60F922F938E
:102140003F934F935F936F937F938F939F93AF933F
:10215000BF93EF93FF9385E294E00E945C1AFF9196
:10216000EF91BF91AF919F918F917F916F915F910F
:102170004F913F912F910F900BBE0F900FBE0F907C
:102180001F9018951F920F920FB60F9211240BB645
:102190000F922F933F934F935F936F937F938F9300
:1021A0009F93AF93BF93EF93FF9382EC94E040DC57
:1021B000FF91EF91BF91AF919F918F917F916F911F
:1021C0005F914F913F912F910F900BBE0F900FBEDB
:1021D0000F901F9018951F920F920FB60F92112417
:1021E0000BB60F922F933F934F935F936F937F9311
:1021F0008F939F93AF93BF93EF93FF9382EC94E001
:102200000E945C1AFF91EF91BF91AF919F918F91C6
:102210007F916F915F914F913F912F910F900BBEE6
:102220000F900FBE0F901F9018951F920F920FB630
:102230000F9211240BB60F922F933F934F935F93FE
:102240006F937F938F939F93AF93BF93EF93FF937E
:102250008FE595E0EDDBFF91EF91BF91AF919F91FD
:102260008F917F916F915F914F913F912F910F903F
:102270000BBE0F900FBE0F901F9018951F920F92DC
:102280000FB60F9211240BB60F922F933F934F93DB
:102290005F936F937F938F939F93AF93BF93EF93CE
:1022A000FF938FE595E00E945C1AFF91EF91BF913B
:1022B000AF919F918F917F916F915F914F913F91DE
:1022C0002F910F900BBE0F900FBE0F901F9018957F
:1022D0001F920F920FB60F9211240BB60F922F93ED
:1022E0003F934F935F936F937F938F939F93AF939E
:1022F000BF93EF93FF938CEF95E09ADBFF91EF9103
:10230000BF91AF919F918F917F916F915F914F910D
:102310003F912F910F900BBE0F900FBE0F901F900B
:1023200018951F920F920FB60F9211240BB60F92B1
:102330002F933F934F935F936F937F938F939F93CD
:10234000AF93BF93EF93FF938CEF95E00E945C1ADD
:10235000FF91EF91BF91AF919F918F917F916F917D
:102360005F914F913F912F910F900BBE0F900FBE39
:102370000F901F9018951F920F920FB60F92112475
:102380000BB60F922F933F934F935F936F937F936F
:102390008F939F93AF93BF93EF93FF938091B90077
:1023A000887F803609F49CC068F5883209F45BC0E8
:1023B00090F4803109F454C038F4882309F4F6C04D
:1023C000883009F44DC0F5C0883109F44CC0803222
:1023D00009F45DC0EEC0803409F468C048F480336D
:1023E00009F455C0883309F0E4C08093F703D8C0DE
:1023F000803509F44FC0883509F45DC0883409F090
:10240000D8C0D6C0883909F4C7C0A8F4883709F401
:1024100067C038F4883609F463C0803709F460C0B7
:10242000C8C0883809F4B8C0803909F45FC0803862
:1024300009F0BFC05BC0803B09F486C038F4803A25
:1024400009F466C0883A09F47FC0B3C0803C09F43F
:10245000A7C0883C09F4A4C0883B09F48AC0A9C07D
:102460008091D40310C09091F6038091F5039817E2
:1024700070F5E091F60381E08E0F8093F603F0E0B3
:10248000EB52FC4F80818093BB0085EC86C080932B
:10249000F7038EC0E091F60381E08E0F8093F60380
:1024A0008091BB00F0E0EB52FC4F80839091F603EB
:1024B0008091F5036EC0E091F60381E08E0F80936A
:1024C000F6038091BB00F0E0EB52FC4F80838091DB
:1024D0001F0481116DC081E080931E0484EA61C0F5
:1024E00083E0809320041092D902CFCF8091D9024B
:1024F000803208F051C0E091D90281E08E0F8093C4
:10250000D9028091BB00F0E0E754FD4F8083BDCF3E
:1025100085EC8093BC00109220048091D902803217
:1025200030F4E091D902F0E0E754FD4F1082609161
:10253000D90270E0E0911A04F0911B0489EB92E05B
:1025400019951092D90235C084E08093200410922E
:10255000B8021092B702E0911C04F0911D04199585
:102560008091B702811105C081E08093B70210927B
:102570009702E091B80281E08E0F8093B802F0E0FC
:10258000E956FD4F80818093BB009091B802809105
:10259000B702981708F479CF85E88093BC0009C08A
:1025A00085EC8093BC001092200403C01092F703C6
:1025B000F7DAFF91EF91BF91AF919F918F917F914A
:1025C0006F915F914F913F912F910F900BBE0F90A4
:1025D0000FBE0F901F9018954F925F926F927F924F
:1025E0008F929F92AF92BF92CF92DF92EF92FF9223
:1025F0000F931F93CF93DF93CDB7DEB72A970FB614
:10260000F894DEBF0FBECDBF9A8789872A013B01B0
:1026100009831A832B833C83DC015B96BC92AE92C8
:102620005A9781E0AA94AB2809F080E0E985FA8501
:1026300083AF408251826282738289819A81AB81A9
:10264000BC8184839583A683B783C086D186E286C6
:10265000F38666A577A580A991A90E943E2920E06E
:1026600030E04AE754E40E94A5286D837E838F837F
:102670009887E985FA8544865586668677869B0124
:10268000AC0169817A818B819C810E94F4294B0184
:102690005C01A985BA8550966D937D938D939C932B
:1026A00053972D813E814F815885C701B6010E9405
:1026B000A5286B017C01E985FA85648B758B868B77
:1026C000978B808D918D019759F5A301920160E060
:1026D00070E0CB010E943C28A985BA851C966D93B9
:1026E0007D938D939C931F97A501940160E070E00A
:1026F000CB010E943C28E985FA85608B718B828B27
:10270000938BA701960160E070E0CB010E943C280A
:10271000A985BA8554966D937D938D939C93579715
:102720002A960FB6F894DEBF0FBECDBFDF91CF91D2
:102730001F910F91FF90EF90DF90CF90BF90AF90DF
:102740009F908F907F906F905F904F9008951F9211
:102750000F920FB60F9211240F900FBE0F901F9083
:102760001895E091A906F091AA060190F081E02D5C
:1027700082AD811113C0DF01A457BF4F1D921D927E
:102780001D921C92139793978C91811109C060E060
:1027900070E0CF018C599F4F0C946A1C12AEEBCFA6
:1027A00008952F923F924F925F926F927F928F92F5
:1027B0009F92AF92BF92CF92DF92EF92FF920F93D0
:1027C0001F93CF93DF93CDB7DEB72F970FB6F89453
:1027D000DEBF0FBECDBFE091A906F091AA068081B1
:1027E00091819F878E87DC01DA968C9181114CC094
:1027F000AE85BF855E96ED91FC915F97C080D180DC
:10280000E280F380FD01C6A2D7A2E0A6F1A65C9605
:10281000ED91FC915D9780819181A281B381EE85DC
:10282000FF8582A793A7A4A7B5A786A897A8A0AC61
:10283000B1ACA5019401C701B6010E94F029AE8593
:10284000BF851816D4F0D2968D909D90AD90BC9017
:10285000D597A5019401C701B6010E94A12887FD63
:1028600005C081E0EE85FF8582AF0EC0EE85FF8555
:1028700086A297A2A0A6B1A6F4CF96968D929D921D
:10288000AD92BC929997EDCF8E859F850E942A02CA
:10289000EE85FF8582AD882309F438C10E94611D51
:1028A0006D837E838F839887EE85FF8582A193A1B8
:1028B000A4A1B5A14D815E816F817885481B590B1C
:1028C0006A0B7B0B86A597A5A0A9B1A94817590744
:1028D0006A077B0708F41AC1048CF58DE02D80810E
:1028E0009181A281B38189839A83AB83BC83AE85B6
:1028F000BF859096ED91FC91919729813A814B810A
:102900005C8160817181828193810E943C284B01AE
:102910005C01EE85FF8522A533A544A555A56981F7
:102920007A818B819C810E943C286B017C01AE8561
:10293000BF8550962D913D914D915C915397C50166
:10294000B4010E94F429EE85FF8526A137A140A598
:1029500051A50E943D282B013C01AE85BF8596966E
:102960006D937D938D939C939997DB96BC91B987DA
:10297000BB2309F4B2C0EE85FF8546A057A060A432
:1029800071A416A907A930AC21AC212F302F432DFB
:10299000522DC301B2010E94F02918160CF492C006
:1029A000AE85BF85D2968D919D910D90BC91A02D45
:1029B0008A879B87AC87BD879C01AD01C301B201AB
:1029C0000E94A12887FD79C0F985F11169C0812C89
:1029D000912C5401AE85BF8554962D913D914D911A
:1029E0005C915797C701B6010E94F4299B01AC0185
:1029F000EE85FF8566A177A180A591A50E943C2860
:102A0000A50194010E943D28F62EE72ED82EC92E4E
:102A1000262F372F482F592F612F702F832D922D5E
:102A20000E94A12887FD1BC0AE85BF85D2961C9150
:102A3000D297D3960C91D397D4963C90D497D596B1
:102A40002C90212F302F432D522D6F2D7E2D8D2D2B
:102A50009C2D0E94A12887FD02C087011601AE852A
:102A6000BF855E96ED91FC915F97812F902FA32DEE
:102A7000B22D80839183A283B38389819A81AB81B4
:102A8000BC81EE85FF8582A793A7A4A7B5A78D81FA
:102A90009E81AF81B88582A393A3A4A3B5A336C0BA
:102AA000EE85FF852485358546855785C501B401AA
:102AB0000E94F4294B015C018DCF8A859B85AC85F2
:102AC000BD8504C0812F902FA32DB22DEE85FF85EB
:102AD00086A397A3A0A7B1A777CFAE85BF851C9685
:102AE0002D913D914D915C911F97C701B6010E94B8
:102AF000F4299B01AC01C301B2010E943C28EE8580
:102B0000FF8566A377A380A791A735CFEE85FF85C4
:102B1000E759FF4F8081811127C0EE85FF85E4577B
:102B2000FF4F60817181828193810E9412298E857D
:102B30009F858C599F4F2F960FB6F894DEBF0FBE1E
:102B4000CDBFDF91CF911F910F91FF90EF90DF905C
:102B5000CF90BF90AF909F908F907F906F905F903D
:102B60004F903F902F90B6C62F960FB6F894DEBFC9
:102B70000FBECDBFDF91CF911F910F91FF90EF90CE
:102B8000DF90CF90BF90AF909F908F907F906F908D
:102B90005F904F903F902F90089581E020916203C5
:102BA000309163032130310509F080E0089590E011
:102BB000FC013197E231F10508F04EC08827EE584C
:102BC000FF4F8F4F0C945B2A809180008F7703C05A
:102BD000809180008F7D8093800008958091800097
:102BE000877FF9CF84B58F7702C084B58F7D84BD90
:102BF00008958091B0008F7703C08091B0008F7DE1
:102C00008093B0000895809190008F7707C08091E5
:102C100090008F7D03C080919000877F809390000B
:102C200008958091A0008F7707C08091A0008F7DCC
:102C300003C08091A000877F8093A00008958091B9
:102C400020018F7707C0809120018F7D03C0809184
:102C50002001877F809320010895CF93C0911307AF
:102C60008C2FEED6EC2FF0E0E653F94F9187E1E0A0
:102C7000EC0FF0E0E653F94F8187CE5FC093130766
:102C80009091D0068091CF06923038F1823051F089
:102C9000833071F0813091F49091C80090649093EA
:102CA000C80011C09091D00090649093D0000BC0E8
:102CB0009091300190649093300105C09091C000D4
:102CC00090649093C00090910501906490930501E9
:102CD0009091050190629093050140911307843013
:102CE00028F48091CA069091CB0604C08091CC064E
:102CF0009091CD0650E0DC01ED91FC910280F381D2
:102D0000E02D63ED76E019959091D0068091CF0685
:102D1000923018F1823049F0833061F0813079F4DB
:102D20009091C80096FFFCCF0EC09091D00096FF06
:102D3000FCCF09C09091300196FFFCCF04C0909168
:102D4000C00096FFFCCF909105019F7B90930501F9
:102D5000909105019F7D90930501843068F58091E5
:102D6000CA069091CB06DC01ED91FC910284F385BB
:102D7000E02D199597FFF3CF10921307A2D620915B
:102D80001D0730911E07DC01CB01820F931FA11D8F
:102D9000B11D8093230790932407A0932507B09338
:102DA00026078091190790911A07019690931A07A8
:102DB00080931907CF9108958091CC069091CD060C
:102DC000DC01ED91FC910284F385E02D199597FFCC
:102DD000F3CFD2CF8F929F92AF92BF92CF92DF92DA
:102DE000EF92FF920F931F93CF93DF938AED92E0C0
:102DF00090931607809315078DE68093270780919F
:102E0000CF06843028F48091CA069091CB0604C086
:102E10008091CC069091CD06DC01ED91FC9100846F
:102E2000F185E02D19958823A1F090911407891759
:102E300091F08093140745D6DC01CB010596A11DC6
:102E4000B11D80931F0790932007A0932107B09393
:102E50002207C0E0BBC235D600911F0710912007A2
:102E6000209121073091220760177107820793078D
:102E700080F3109214078091D006823050F0809138
:102E800005018F7B80930501809105018F7D8093E3
:102E90000501109213078091CF0610E0843008F0EE
:102EA00041C08091CA069091CB06DC01ED91FC9166
:102EB0000084F185E02D1995892B09F440C0C0915B
:102EC0001307D0E08091CA069091CB06DC01ED910A
:102ED000FC910284F385E02D1995C653D94F89875B
:102EE000809113078F5F809313078034D0F211E035
:102EF000D8CFC0911307D0E08091CC069091CD0639
:102F0000DC01ED91FC910284F385E02D1995C65307
:102F1000D94F8987809113078F5F8093130780347F
:102F200008F011E08091CC069091CD06DC01ED9186
:102F3000FC910084F185E02D1995892BD1F68091C3
:102F40001707909118070196909318078093170719
:102F5000112359F080911B0790911C0701969093C3
:102F60001C0780931B07CDEF02C0C0911307C093CD
:102F7000D206C7300CF42AC29091D3068091CE06B7
:102F8000981367CF80911307082F10E0825058D50F
:102F9000F801E653F94F278130E0322F2227408590
:102FA000242B2817390759F080911B0790911C0793
:102FB000019690931C0780931B07CFEF33C040917D
:102FC000D406E4E1F2E08CE192E02191241769F16A
:102FD0008E179F07D1F780911B0790911C070196D0
:102FE00090931C0780931B07C1E012C08091D50607
:102FF0009091D606982789279827D4E096958795AB
:10300000DA95E1F790912707981708F04CC0C2E0D5
:1030100080E8840F8093D406C093D50683E0809324
:1030200013071BDEC093D206D1C1842F90E0FC01B0
:103030003197E031F105B8F58827EC57FF4F8F4FF6
:103040000C945B2A8091D5069091D6069827892703
:1030500098279C0114E0369527951A95E1F7809101
:10306000D7069091D80698278927982704E0969547
:1030700087950A95E1F714C08091D5069091D60600
:1030800098278927BFCF8091D7069091D806382FEF
:10309000292F8091D5069091D606982789279827C1
:1030A000820F931FAFCF0DD520911D0730911E07C2
:1030B000DC01CB01820F931FA11DB11D809323075B
:1030C00090932407A0932507B09326071092D20669
:1030D000E091D4068E2F90E0FC013197E031F105AC
:1030E00008F074C18827EC56FF4F8F4F0C945B2A71
:1030F0002091D5063091D6063227232732274091DA
:10310000D7065091D806542745275427FA01C3E023
:10311000F695E795CA95E1F78E2FBA016770772784
:103120006115710511F081E08E0F8093D50683E063
:1031300080931307420F531F90E0812C912C540170
:10314000839424173507F1F1F901A3E0F695E7958B
:10315000AA95E1F7EE7FF170E652FD4FA081B181B3
:10316000E22FEF7002C0B695A795EA95E2F7E82F37
:10317000F0E0E653F94FA0FF0EC0A1857501640190
:10318000092E04C0CC0CDD1CEE1CFF1C0A94D2F7E7
:10319000CA2AC1860FC075016401092E04C0CC0C77
:1031A000DD1CEE1CFF1C0A94D2F7AC2DA095B18556
:1031B000AB23A1879F5F983010F08F5F90E02F5F67
:1031C0003F4FBFCF80931307672B19F08F5F80931A
:1031D0001307C0911307CE5F34C02091D5063091FC
:1031E000D60632272327322F8091D7069091D80612
:1031F000982789279827482F440F4093D506E3E066
:103200009927820F911DC2E0CE0FA32FB0E0A8171F
:10321000B907ACF4AA0FBB1FA652BD4F2C91119653
:103220004C91AE2FB0E0A653B94F19964C93EF5F77
:10323000F0E0E653F94F21873F5FEC2FE4CFE093B6
:1032400013070BDDC3C08091D5069091D606982751
:1032500089279827FC0114E0F695E7951A95E1F780
:10326000282F2F708091D706FF27EE0FFF1FE65201
:10327000FD4F8F3F81F481E090E0A0E0B0E004C01A
:10328000880F991FAA1FBB1F2A95D2F72081318171
:10329000822B932B11C081E090E0A0E0B0E004C04D
:1032A000880F991FAA1FBB1F2A95D2F7809590956A
:1032B00020813181822393239183808386E08093D0
:1032C000130782C0E091D606F0E0EE0FFF1FE65232
:1032D000FD4F8091D7069091D80698278927982787
:1032E000EBCF8091D5069091D6069827892798270D
:1032F0002091D7063091D806322723273227280F6E
:10330000391F40E057E0812C912C540183942817F9
:103310003907A1F2A82FAF70E52FF0E0E653F94F7F
:10332000618570E0042E02C0759567950A94E2F7F6
:10333000FC0174E0F695E7957A95E1F7FF27EE0F2B
:10334000FF1FE652FD4F7501640104C0CC0CDD1C6B
:10335000EE1CFF1CAA95D2F760FF05C06081718149
:10336000C62AD72A06C0C094D09460817181C62233
:10337000D722D182C0824F5F483010F05F5F40E0BB
:103380000196C5CFE091D6064091D8061092D70697
:1033900086E080931307AAECB6E0F0E0EE0FFF1F83
:1033A000E652FD4F20E01296421771F01E968C9166
:1033B0001E9790E0982F88271F963C911F97832B8C
:1033C000819391932F5FEFCF48DCC8E08C2FDF9182
:1033D000CF911F910F91FF90EF90DF90CF90BF9012
:1033E000AF909F908F9008958091B2069091B30610
:1033F000811524E0920709F130F40097A1F08115BE
:103400009240B1F00895811528E09207D9F0811516
:103410002AE09207E1F08115964029F58DEC9CECAD
:10342000ACECBBE318C08AE999E9A9E1BDE313C09C
:103430008DEC9CECACECBCE30EC08DEC9CECACE4F5
:10344000BCE309C08DEC9CECACE4BBE304C08DECA8
:103450009CECACECBAE38093BA069093BB06A093C5
:10346000BC06B093BD0608950F931F93CF93DF93CF
:103470008C01C8E2D7E0888191E09093F8038093B3
:1034800019041092220410922104812F90E01DD281
:10349000C80199271AD28AD161E08881A7D11092F8
:1034A00024048093230489E996E00E94140EDF919E
:1034B000CF911F910F910895FC01A089B1898C9142
:1034C000A689B78982FD0FC09C91818D8F5F8F7314
:1034D000228D821749F0218DDF01A20FB11D5D966B
:1034E0009C93818F08958C910895CF93DF93282F1B
:1034F00030E0F901ED5DFD4F8491F901E352FE4F9B
:10350000D491F901E956FE4FC491CC2389F0811181
:103510004EDBEC2FF0E0EE0FFF1FE358FE4FA591BE
:10352000B491EC91ED2381E090E021F480E002C0C1
:1035300080E090E0DF91CF9108951F93CF93DF93C8
:10354000282F30E0F901ED5DFD4F8491F901E35240
:10355000FE4FD491F901E956FE4FC491CC23B9F046
:10356000162F811124DBEC2FF0E0EE0FFF1FED5939
:10357000FE4FA591B4919FB7F894111104C08C919E
:10358000D095D82302C0EC91DE2BDC939FBFDF9156
:10359000CF911F910895CF93DF9390E0FC01E35208
:1035A000FE4F2491FC01E956FE4F8491882361F17E
:1035B00090E0880F991FFC01E75BFE4FC591D49105
:1035C000FC01ED59FE4FA591B491611109C09FB75F
:1035D000F8948881209582238883EC912E230BC058
:1035E000623061F49FB7F8948881322F309583233D
:1035F0008883EC912E2B2C939FBF06C08FB7F89435
:10360000E8812E2B28838FBFDF91CF9108958230E0
:10361000910538F0880F991F880F991F059701971A
:10362000F1F708958F929F92AF92BF92CF92DF925F
:10363000EF92FF926B017C011FD24B015C01C11420
:10364000D104E104F104E9F017D2DC01CB018819BF
:103650009909AA09BB09883E9340A105B10578F3F1
:1036600021E0C21AD108E108F10888EE880E83E053
:10367000981EA11CB11CC114D104E104F10421F76E
:10368000DECFFF90EF90DF90CF90BF90AF909F90F4
:103690008F90089510922404109223041092220413
:1036A000109221041092200481E080931F04109254
:1036B0001E0461E084E141DF61E085E13EDFE9EB8A
:1036C000F0E080818E7F808380818D7F808388E49D
:1036D0008093B80085E48093BC0082E09EE09093E4
:1036E0001D0480931C0483E09EE090931B04809350
:1036F0001A040895282F30912104313208F04AC06D
:10370000809120048111FCCF9091190442E04093F4
:10371000200420931F042FEF2093F7031092F60349
:103720003093F503E9EFF3E0A5EDB3E020E03217C5
:1037300021F041914D932F5FFACF1092D403209145
:10374000D403990F922B9093D40390911E0491303F
:1037500061F410921E049091D4039093BB00909159
:10376000BC0093FDF8CF95EC01C095EE9093BC00A2
:10377000909120049230E1F39091F7039F3F79F00C
:103780008091F703803241F08091F703803331F06C
:1037900084E005C081E003C082E001C083E01092B4
:1037A0002204109221041092F803089581E0A2CF20
:1037B000CF93DF93EB0191E09093F803809319048A
:1037C000109222041092210461E089E996E00E949F
:1037D0005C0E6D2F89E996E00E945C0E6C2F89E9E2
:1037E00096E00E945C0EDF91CF91E0CF9091200493
:1037F0009111FCCF91E09093200490931F042FEF40
:103800002093F7031092F603260F2093F50390936D
:10381000D4039091D403880F892B8093D403809193
:103820001E04813061F410921E048091D4038093B1
:10383000BB008091BC0083FDF8CF85EC01C085EE14
:103840008093BC00809120048130E1F38091F603E5
:10385000861710F46091F603A5EDB3E0E4EBF3E016
:1038600080E0861721F09D9191938F5FFACF0895A4
:103870001F93CF93DF93182F81E08093F803109369
:103880001904109222041092210460E089E996E064
:103890000E945C0E8BDF62E0812FA8DF109224046F
:1038A0008093230489E996E00E94140E182F89E979
:1038B00096E00E94140ED12F20E0C22F9E01282BEB
:1038C000C901DF91CF911F910895682F89E996E092
:1038D0000C945C0EFF920F931F93CF93DF93EB0139
:1038E00008EB10E0F801F0802CE02083FC018081DF
:1038F00091E09093F803809319041092220410929F
:10390000210460E489E996E00E945C0ECE0124E087
:10391000969587952A95E1F7D8DFCE0134E0880F98
:10392000991F3A95E1F79927D0DF40DFF801F0823F
:10393000DF91CF911F910F91FF9008951F93CF9327
:10394000DF93EC01162F8091280791E09093F80304
:103950008093190410922204109221048D2F90E07C
:10396000B4DFCE019927B1DF612F89E996E00E948B
:103970005C0EDF91CF911F9119CFCF92DF92EF9222
:10398000FF92CF93DF93EC016A017B01E889F9890B
:1039900082E080834115514E61057105B1F060E010
:1039A00079E08DE390E0A70196010E940B28DA01EF
:1039B000C9010197A109B109B695A7959795879572
:1039C0009C01211580E13807A8F0E889F989108267
:1039D00060E874E88EE190E0A70196010E940B2850
:1039E000DA01C9010197A109B109B695A795979583
:1039F00087959C01EC85FD853083EE85FF852083CE
:103A0000188EEC89FD8986E08083EA89FB898081B4
:103A100080618083EA89FB89808188608083EA896C
:103A2000FB89808180688083EA89FB8980818F7D22
:103A30008083DF91CF91FF90EF90DF90CF9008953A
:103A4000E3EDF6E090E02FEF3FEF981791F0419112
:103A5000242748E0B9016170772736952795672BB1
:103A600021F051E0252750EA3527415099F79F5F13
:103A7000ECCF922F832F08953FB7F89480913407AD
:103A800090913507A0913607B091370726B5A89BCE
:103A900005C02F3F19F00196A11DB11D3FBFBA2FE0
:103AA000A92F982F8827820F911DA11DB11DBC0140
:103AB000CD0142E0660F771F881F991F4A95D1F705
:103AC00008952FB7F8946091300770913107809175
:103AD0003207909133072FBF08951F920F920FB6B0
:103AE0000F9211242F933F938F939F93AF93BF9384
:103AF0008091300790913107A0913207B091330740
:103B000030912F0723E0230F2D3720F40196A11DBC
:103B1000B11D05C026E8230F0296A11DB11D2093FB
:103B20002F078093300790933107A0933207B0930B
:103B300033078091340790913507A0913607B091F3
:103B400037070196A11DB11D809334079093350767
:103B5000A0933607B0933707BF91AF919F918F9194
:103B60003F912F910F900FBE0F901F901895C82F67
:103B70000E94B1138C2F90E090938503809384036F
:103B800061E08AE0DADC61E08BE0D7DC60E08CE0C9
:103B9000D4DC0E940204FDCFCF93DF93CDB7DEB714
:103BA00068970FB6F894DEBF0FBECDBF789484B58A
:103BB000826084BD84B5816084BD85B5826085BD29
:103BC00085B5816085BD80916E00816080936E00B7
:103BD00010928100809181008260809381008091A9
:103BE000810081608093810080918000816080935A
:103BF00080008091B10084608093B1008091B0001A
:103C000081608093B00080919100826080939100E8
:103C100080919100816080939100809190008160FB
:103C2000809390008091A10082608093A100809198
:103C3000A10081608093A1008091A00081608093A9
:103C4000A000809121018260809321018091210157
:103C50008160809321018091200181608093200107
:103C600080917A00846080937A0080917A008260EB
:103C700080937A0080917A00816080937A008091AD
:103C80007A00806880937A001092C10068EE73E039
:103C900080E090E0C7DC82E390E090938303809320
:103CA000820383E68093AB06F5DC60E070E08BEA8C
:103CB00096E010DE60E086E36EDC61E089E06BDCBC
:103CC00061E082E068DC61E08AE065DC60E08AE077
:103CD00034DC61E08BE05FDC60E08BE02EDC61E0F7
:103CE0008CE059DC61E08CE028DC60E082E153DCB0
:103CF00061E08BE350DC61E08BE31FDC61E088E096
:103D00004ADC40E251EA67E070E08CEF95E035DE96
:103D10008091B2069091B3069093B0068093AF065F
:103D200063DB80EE90E09093B5068093B4068AE959
:103D300099E9A9E9BFE38093B6069093B706A093EB
:103D4000B806B093B90680E580932807A3DCFF246A
:103D5000F394F092F8038CE78093190410922204F4
:103D6000109221046091280770E0660F771F89E99F
:103D700096E00E945C0E80E0BDDC63E08CE736DDFF
:103D8000109224048093230489E996E00E94140E83
:103D90008C0189E996E00E94140E9A83898389E94F
:103DA00096E00E94140E29812F7030E0322F2227D6
:103DB000A901480F511D1127A4E0000F111FAA955A
:103DC000E1F7A981BA81BB2724E0B595A7952A958B
:103DD000E1F7A00FB11F1A9729F44031554011F4B3
:103DE000F09229078091CF06823039F0833041F07C
:103DF000813049F48FE595E008C082EC94E005C07D
:103E000085E294E002C08CEF95E09093CB0680931E
:103E1000CA0640E052EC61E070E08091CA069091E1
:103E2000CB06ABDD8091D006823078F08091040122
:103E3000806680930401809105018F7B809305014A
:103E4000809105018F7D809305018091CA06909134
:103E5000CB06DC01ED91FC910284F385E02D1995F0
:103E600097FFF3CF109213071092140710921C07BC
:103E700010921B0710921A07109219071092180738
:103E80001092170708EF12E0E8EEF3E0FA83E983F7
:103E900089819A810E94FA01D8018D939D938D01A9
:103EA000E981FA813496FA83E983E115F44081F7D8
:103EB0000AED12E01A82198289819A810E94FA0120
:103EC000D8018D939D938D01E981FA813496FA830F
:103ED000E983749789F70EEE12E089819A810E9436
:103EE000FA01D8018D939D938D01E981FA81349671
:103EF000FA83E983B89789F788E290E00E94FA0193
:103F000090934D0380934C038CE290E00E94FA0161
:103F100090934F0380934E0380E390E00E94FA0158
:103F200090935B0380935A0384E390E00E94FA012C
:103F300090935D0380935C0388E390E00E94FA0114
:103F400090938903809388038CE390E00E94FA01A8
:103F500090938B0380938A0380E490E00E94FA019F
:103F600090938D0380938C0384E490E00E94FA0187
:103F700090935F0380935E0388E490E00E94FA01CF
:103F80009093AB038093AA038CE490E00E94FA0123
:103F90009093AD038093AC0380E590E00E94FA011A
:103FA00090936103809360030EE813E024E530E012
:103FB0003A83298389819A810E94FA01D8018D93DD
:103FC0009D938D01E981FA813496FA83E983E8367D
:103FD000F10581F788EC90E00E94632A988F8F8B1F
:103FE0004C01BEE68B0E911CF401808191812F89DA
:103FF000388D28553F4F3E832D83D901CD90DD90DC
:10400000ED90FC90EF89F88DEC55FF4FFC8BEB8B1E
:1040100040805180628073802F89388D20563F4FB9
:104020003E8B2D8BD9012D913D914D915C91298332
:104030003A834B835C83EF89F88DE457FF4FF88B0D
:10404000EF87AF89B88D5F96FC93EE935E979D01E5
:1040500028573F4F5D963C932E935C97245C3F4FCF
:1040600091963C932E939097DA961C92DA97FD01E5
:1040700012AA13AA14AA15AA40E050E06FE773E44D
:10408000D6964D935D936D937C93D99744E650E01B
:1040900060E070E046A757A760AB71AB918F808F4F
:1040A00020E030E0A90169817A818B819C810E94A6
:1040B000A12887FD1FC020E030E0A901C301B201A3
:1040C0000E94A12887FD16C020E030E0A901C701A9
:1040D000B6010E94A12887FD0DC0AA24A394B12C8B
:1040E0009301820149815A816B817C818F89988DEE
:1040F0000E94EC12E6DCAF89B88D9E960D911D9161
:104100002D913C91D197DC01CB01801B910BA20B2F
:10411000B30BEF89F88D82A393A3A4A3B5A382E385
:1041200091E1A0E8BBE384AF95AFA6AFB7AF8FE74F
:1041300095E0ABE1B5EBE05CFF4F80839183A28318
:10414000B3836F88788CF6E46F0E711C88E4D3011A
:104150008C9314961C921E92139798E011969C9340
:10416000119712961C92EF89F88DE05AFF4F10823A
:10417000118212821382EF89F88DEC5BFF4F8083EE
:10418000EF89F88DEB5BFF4FFA83E98382E680834A
:104190008091AB06EF89F88DEC59FF4F8083EF8952
:1041A000F88DEB59FF4F10821182128213822F89F2
:1041B000388D27593F4F3A8B298BD9011C92F40136
:1041C00011821082EF89F88DE059FF4F1082118221
:1041D000128213828CE291E0A0E0B0E0EF89F88DCA
:1041E000E858FF4F80839183A283B38380E090EFF0
:1041F000AFE7B5E48F88988CFCE78F0E911CF40133
:1042000080839183A283B383EF89F88DE857FF4FB2
:104210001082118212821382AF85B8891D921D927D
:104220001D921C92139780E090E0A0E8BEE3EF8916
:10423000F88DEC56FF4F80839183A283B38380E097
:1042400090E0AAEFB3E4EF89F88DE856FF4F808342
:104250009183A283B383EF89F88DE456FF4F1082D8
:10426000118212821382ED89FE89108211821282DC
:104270001382AB89BC891D921D921D921C921397CB
:10428000ED81FE81108211821282138280E090E023
:10429000A0E8BFE3EF89F88DE455FF4F8083918359
:1042A000A283B383EF89F88DE055FF4F108211820E
:1042B000128213828AE097EDA3E2BCE3EF89F88DC6
:1042C000EC54FF4F80839183A283B38384EA90E709
:1042D000ADE7BFE3EF89F88DE854FF4F808391830A
:1042E000A283B3834F88588CFCEB4F0E511C80E0A7
:1042F00090E0A8ECB4E4F20180839183A283B383BD
:104300002F89388D20543F4F3E832D8380E090E0ED
:10431000AAE7B4E4F90180839183A283B383EF8990
:10432000F88DEC53FF4F1082118212821382AF89F5
:10433000B88D5A96AD90BC905B97C12CD12C76016C
:1043400097018601B701A601CD010E94EC12F4018C
:10435000C080D180E280F38020E030E0A901C70175
:10436000B601EFD618160CF059C0AF89B88DD296A9
:104370001D921D921D921C92D597FD01C6AAD7AA27
:10438000E0AEF1AE82AD882309F448C0068D178DEA
:10439000D8018D909D90AD90BC90A5019401C7016E
:1043A000B601CFD687FF06C0F801C082D182E28273
:1043B000F3820EC020E030E0A901C501B401C1D6EE
:1043C00087FF06C0D8011D921D921D921C92139763
:1043D000EF89F88D86A097A0A0A4B1A4C6A8D7A8FD
:1043E000E0ACF1ACA7019601C501B401F9D71816EC
:1043F0006CF0EF89F88DC2A8D3A8E4A8F5A8A701AE
:104400009601C501B4019DD687FF08C0AF89B88D5C
:104410009696CD92DD92ED92FC929997EF89F88D68
:1044200066A577A580A991A929D79B01AC0160E079
:1044300070E080EA90E489D66B017C019B01AC01BD
:10444000AF89B88D50966D917D918D919C915397C8
:10445000CBD7EF89F88D608B718B828B938BA70103
:10446000960164897589868997896FD6AF89B88DD9
:1044700054966D937D938D939C93579785E090E030
:10448000A0E0B0E0EF89F88D86A797A7A0ABB1AB0D
:1044900001D9EF89F88DE55BFF4FA981BA818C9135
:1044A0008083F8D8F301148213826FEF7FE08F8945
:1044B000988D855B9F4F0EDA2F89388D245B3F4F97
:1044C000F20180819181A281B381F901808391837E
:1044D000A283B3832F89388D205B3F4FED81FE810E
:1044E00080819181A281B381F90180839183A2832C
:1044F000B3832F89388D30937F0220937E02A98960
:10450000BA891C928091A7069091A8062091A506D1
:104510003091A6068217930719F57C01EE0CFF1C5B
:10452000892B11F0C70102C081E090E09093A806AA
:104530008093A706880F991FC6D79A838983009115
:10454000A9061091AA06A701B8010E94882BC801EC
:104550000E94FB2AE981FA81F093AA06E093A9065A
:10456000E091A906F091AA068091A5069091A60671
:104570009C012F5F3F4F3093A6062093A506209104
:104580007E0230917F02880F991FE80FF91F318357
:104590002083E091A906F091AA06208131813E8313
:1045A0002D83F901E659FF4F118210826091FC02C0
:1045B0007091FD0280E090E061D620E030E048ECB0
:1045C00052E4C3D56B017C016091FA027091FB0249
:1045D00080E090E053D620E030E048EC52E4B5D5DE
:1045E00069837A838B839C836091F8027091F902CE
:1045F00080E090E043D620E030E048EC52E4A5D5DE
:104600002B013C01ED81FE81E056FF4F60837183F9
:1046100082839383ED81FE81EC55FF4F89819A81DE
:10462000AB81BC8180839183A283B383ED81FE81C2
:10463000E855FF4FC082D182E282F382AD81BE8114
:104640005A96AD90BC905B9720E030E0A901C30181
:10465000B20177D587FD1CC020E030E0A901698157
:104660007A818B819C816DD587FD12C020E030E07E
:10467000A901C701B60165D587FD0AC009811A8164
:104680002B813C81B301A2018D819E810E94EC129D
:10469000E091A906F091AA06208131813A8329830D
:1046A000890104551F4F6091FE027091FF0280E066
:1046B00090E0E4D520E030E04AE754E446D5D80164
:1046C0006D937D938D939C93139709811A81005567
:1046D0001F4F609100037091010380E090E0CED500
:1046E00020E030E040E251E430D5F801608371838E
:1046F00082839383609102037091030380E090E0D2
:10470000BDD5E981FA81E454FF4F608371838283D0
:104710009383E981FA81E45BFF4F60837183828335
:10472000938329813A8120583F4F3A8329836091AE
:1047300060037091610380E090E0A0D520E030E05C
:1047400040E251E402D5A981BA816D937D938D93A6
:104750009C93139761E088E00E949D1A0E94CD15FA
:10476000882309F400C38091800290918102009710
:1047700009F065C010926503109264030E94020460
:1047800060914C0370914D0380E090E077D520E07C
:1047900030E040E251E4D9D4AB01BC01E091A9067C
:1047A000F091AA06808191810E94C2030E94690152
:1047B0000E94D1130E948A0B0E94EF0160938A022B
:1047C00070938B0280938C0290938D02E091A906E6
:1047D000F091AA060190F081E02DE857FF4F80810B
:1047E0009181A281B3818093860290938702A093E6
:1047F0008802B09389020E94EF01C0908202D0909B
:104800008302E0908402F0908502A701960134D4DF
:104810004B015C0160915A0370915B0380E090E072
:104820002DD520E030E040E251E48FD49B01AC0173
:10483000C501B401D5D518160CF4D3C22CC0909381
:104840006503809364030E9402040E94EF0120919B
:104850008A0230918B0240918C0250918D020CD4CF
:104860002B013C016091EE027091EF0280E090E03C
:1048700005D520E030E040E251E467D47B018D8330
:10488000998320E030E0A901C301B201A9D518162F
:104890000CF444C121C00E94EF01A7019601ECD3A2
:1048A00020E030E0A9014DD487FF59C2A70196014D
:1048B00060E070E080E89FE4DFD39B01AC0160E042
:1048C00070E0CB01D9D3609382027093830280930E
:1048D00084029093850243C26091F0027091F102CC
:1048E00080E090E0CBD420E030E040E251E42DD4F1
:1048F0008B016C019B01AC01B7018D819981BDD306
:104900004B015C0197014D815981C301B20168D50A
:1049100018160CF4D6C06091F2027091F30280E098
:1049200090E0ACD420E030E040E251E40ED48B01C2
:104930006C019B01AC01B401C5019FD37B018D8348
:1049400099839401A501C301B2014AD518160CF44C
:1049500087C06091F4027091F50280E090E08ED4FF
:1049600020E030E040E251E4F0D38B016C019B0188
:10497000AC01B7018D81998180D34B015C01970116
:104980004D815981C301B2012BD518160CF43BC0DF
:104990009401A501C301B20123D518160CF0EEC095
:1049A0006091E2027091E30280E090E067D420E041
:1049B00030E040E251E4C9D36F83788789879A87D2
:1049C0006091E0027091E10280E090E057D420E035
:1049D00030E040E251E4B9D36B877C878D879E87B6
:1049E00020909603309097036091F6027091F70241
:1049F00080E090E043D420E030E040E251E4A5D3F1
:104A00008B016C015AC09401A501C301B20199D375
:104A100018160CF4BDCF6091E0027091E10280E0C5
:104A200090E02CD420E030E040E251E48ED36F835C
:104A3000788789879A876091DE027091DF0280E033
:104A400090E01CD420E030E040E251E47ED36B875C
:104A50007C878D879E8720909403309095038EC02D
:104A600097014D815981C301B2016BD318160CF423
:104A700070CF6091DE027091DF0280E090E0FED3A3
:104A800020E030E040E251E460D36F83788789878B
:104A90009A876091DC027091DD0280E090E0EED3B5
:104AA00020E030E040E251E450D36B877C878D8773
:104AB0009E8720909203309093037401AD82B98257
:104AC0005DC09401A501C301B2013BD318160CF4DB
:104AD00022CF6091DC027091DD0280E090E0CED3C5
:104AE00020E030E040E251E430D36F83788789875B
:104AF0009A876091DA027091DB0280E090E0BED389
:104B000020E030E040E251E420D36B877C878D8742
:104B10009E87209090033090910330C097014D8183
:104B20005981C301B2010DD318160CF4D5CE609192
:104B3000DA027091DB0280E090E0A0D320E030E068
:104B400040E251E402D36F83788789879A87209166
:104B500086023091870240918802509189022B870A
:104B60003C874D875E8720908E0330908F038701AE
:104B7000CD80D980E12CF12C1D82198231E02316E1
:104B8000310449F0E091A906F091AA064F815885B9
:104B900069857A8524C02B853C854D855E856F812E
:104BA000788589859A8568D29801A601CED24B0175
:104BB0005C0197014D815981C301B2015DD29B0116
:104BC000AC01C501B40110D42B853C854D855E85B3
:104BD00054D2AB01BC01E091A906F091AA068081F4
:104BE00091810E94C203E091A906F091AA0601906A
:104BF000F081E02DEC53FF4F20E030E040E251E443
:104C00006081718182819381EFD30CD370934D03C6
:104C100060934C030E9469010E94D1130E948A0B89
:104C20000E94EF016093820270938302809384025A
:104C3000909385026091EE027091EF0280E090E027
:104C40001DD320E030E040E251E47FD26B017C01D3
:104C50006091F0027091F10280E090E00FD320E0CB
:104C600030E040E251E471D29B01AC01C701B601D2
:104C700004D26B017C016091F2027091F30280E03A
:104C800090E0FCD220E030E040E251E45ED29B01B3
:104C9000AC01C701B601F1D16B017C016091F40256
:104CA0007091F50280E090E0E9D220E030E040E24F
:104CB00051E44BD29B01AC01C701B601DED16B01BF
:104CC0007C016091F6027091F70280E090E0D6D20C
:104CD00020E030E040E251E438D29B01AC01C70152
:104CE000B601CBD19AD22B013C010E94EF01C090BA
:104CF0008A02D0908B02E0908C02F0908D02A70186
:104D00009601BAD14B015C01C301B201B9D29B013A
:104D1000AC01C501B40164D318160CF462C00E9442
:104D2000EF01A7019601A8D120E030E0A90109D246
:104D300087FF15C0A701960160E070E080E89FE45E
:104D40009BD19B01AC0160E070E0CB0195D16093F9
:104D50008A0270938B0280938C0290938D020E9442
:104D6000CD15811137C00E9402040E94B1130E9428
:104D70008A0B8091640390916503909381028093E4
:104D800080020E94EF0160938202709383028093FD
:104D90008402909385020E94EF0160938A027093CF
:104DA0008B0280938C0290938D02E091A906F09182
:104DB000AA060190F081E02DE857FF4F8081918194
:104DC000A281B3818093860290938702A093880288
:104DD000B093890260E088E00E949D1A0E94A70DAE
:104DE000B9CC1092630310926203B9CF8091A906E7
:104DF0009091AA0600C41F93CF93DF93E5E2F4E0FD
:104E00001382128288EE93E0A0E0B0E08483958361
:104E1000A683B78320E232E03183208345E351E06B
:104E20005587448744E351E05787468740E351E084
:104E3000518B408B41E351E0538B428B42E351E075
:104E4000558B448B46E351E0578B468B118E128E67
:104E5000138E148EE2ECF4E0138212828483958325
:104E6000A683B7833183208345ED50E0558744877F
:104E700044ED50E05787468740ED50E0518B408B22
:104E800041ED50E0538B428B42ED50E0558B448B0B
:104E900046ED50E0578B468B118E128E138E148E7A
:104EA000EFE5F5E01382128284839583A683B783AE
:104EB000318320834DEC50E0558744874CEC50E023
:104EC0005787468748EC50E0518B408B49EC50E0C7
:104ED000538B428B4AEC50E0558B448B4EEC50E0A8
:104EE000578B468B118E128E138E148EECEFF5E0DD
:104EF0001382128284839583A683B78331832083B0
:104F000025EC30E03587248724EC30E0378726878E
:104F100020EC30E0318B208B21EC30E0338B228B86
:104F200022EC30E0358B248B26EC30E0378B268B5F
:104F3000118E128E138E148EE9E9F6E0138212821E
:104F400084839583A683B78382E392E091838083F1
:104F500010922907EAECF6E081E0848383E0858300
:104F600012E0168388EE93E090931E0780931D074E
:104F7000EAE2F7E0148213828AE4808388E0818386
:104F8000128285E0ACEAB6E001900D928A95E1F7D5
:104F9000CCEAD6E080E090E0AAE7B3E48A8B9B8B72
:104FA000AC8BBD8B0E944A1B1D831F821E820E94F8
:104FB000F419E5EAF6E0118210821382128215825A
:104FC0001482DF91CF911F910895052E97FB16F45F
:104FD00000940FD057FD05D01ED007FC02D046F438
:104FE00008C050954095309521953F4F4F4F5F4FEA
:104FF000089590958095709561957F4F8F4F9F4F45
:1050000008952BD0A59F900DB49F900DA49F800D67
:10501000911D11240895A1E21A2EAA1BBB1BFD01AC
:105020000DC0AA1FBB1FEE1FFF1FA217B307E40787
:10503000F50720F0A21BB30BE40BF50B661F771FDF
:10504000881F991F1A9469F76095709580959095BF
:105050009B01AC01BD01CF010895A29FB001B39F98
:10506000C001A39F700D811D1124911DB29F700D71
:10507000811D1124911D08955058BB27AA270ED0D9
:1050800075C166D130F06BD120F031F49F3F11F43F
:105090001EF45BC10EF4E095E7FB51C1E92F77D117
:1050A00080F3BA17620773078407950718F071F445
:1050B0009EF58FC10EF4E0950B2EBA2FA02D0B019B
:1050C000B90190010C01CA01A0011124FF27591B4D
:1050D00099F0593F50F4503E68F11A16F040A22F53
:1050E000232F342F4427585FF3CF469537952795C4
:1050F000A795F0405395C9F77EF41F16BA0B620BC3
:10510000730B840BBAF09150A1F0FF0FBB1F661F09
:10511000771F881FC2F70EC0BA0F621F731F841F4C
:1051200048F4879577956795B795F7959E3F08F072
:10513000B3CF9395880F08F09927EE0F9795879531
:105140000895D9D008F481E008950CD00FC107D19B
:1051500040F0FED030F021F45F3F19F0F0C0511163
:1051600039C1F3C014D198F39923C9F35523B1F38E
:10517000951B550BBB27AA2762177307840738F0C6
:105180009F5F5F4F220F331F441FAA1FA9F333D025
:105190000E2E3AF0E0E830D091505040E695001CD9
:1051A000CAF729D0FE2F27D0660F771F881FBB1F95
:1051B000261737074807AB07B0E809F0BB0B802D6F
:1051C000BF01FF2793585F4F2AF09E3F510568F0BB
:1051D000B6C000C15F3FECF3983EDCF3869577954F
:1051E0006795B795F7959F5FC9F7880F911D9695BD
:1051F000879597F90895E1E0660F771F881FBB1F19
:10520000621773078407BA0720F0621B730B840BC5
:10521000BA0BEE1F88F7E095089504D06894B11199
:10522000D9C00895BCD088F09F5790F0B92F992726
:10523000B751A0F0D1F0660F771F881F991F1AF0A1
:10524000BA95C9F712C0B13081F0C3D0B1E008956A
:10525000C0C0672F782F8827B85F39F0B93FCCF3EB
:10526000869577956795B395D9F73EF49095809597
:10527000709561957F4F8F4F9F4F0895E89409C0B7
:1052800097FB3EF490958095709561957F4F8F4F79
:105290009F4F9923A9F0F92F96E9BB279395F6958F
:1052A000879577956795B795F111F8CFFAF4BB0F0D
:1052B00011F460FF1BC06F5F7F4F8F4F9F4F16C071
:1052C000882311F096E911C0772321F09EE8872FFB
:1052D000762F05C0662371F096E8862F70E060E0B7
:1052E0002AF09A95660F771F881FDAF7880F969530
:1052F000879597F90895990F0008550FAA0BE0E8D4
:10530000FEEF16161706E807F907C0F01216130687
:10531000E407F50798F0621B730B840B950B39F4C7
:105320000A2661F0232B242B252B21F408950A262D
:1053300009F4A140A6958FEF811D811D089597F96D
:105340009F6780E870E060E008959FEF80EC08952B
:1053500000240A9416161706180609060895002454
:105360000A9412161306140605060895092E0394CE
:10537000000C11F4882352F0BB0F40F4BF2B11F442
:1053800060FF04C06F5F7F4F8F4F9F4F089557FDA1
:105390009058440F551F59F05F3F71F04795880FA3
:1053A00097FB991F61F09F3F79F08795089512163A
:1053B00013061406551FF2CF4695F1DF08C01616E6
:1053C00017061806991FF1CF869571056105089497
:1053D0000895E894BB2766277727CB0197F90895AE
:1053E0008ADF08F48FEF08950BD0C0CFB1DF28F02B
:1053F000B6DF18F0952309F0A2CFA7CF1124EACF8A
:10540000C6DFA0F3959FD1F3950F50E0551F629F23
:10541000F001729FBB27F00DB11D639FAA27F00D0D
:10542000B11DAA1F649F6627B00DA11D661F829F34
:105430002227B00DA11D621F739FB00DA11D621F19
:10544000839FA00D611D221F749F3327A00D611D36
:10545000231F849F600D211D822F762F6A2F112418
:105460009F5750408AF0E1F088234AF0EE0FFF1F6B
:10547000BB1F661F771F881F91505040A9F79E3FA2
:10548000510570F05CCFA6CF5F3FECF3983EDCF3A4
:10549000869577956795B795F795E7959F5FC1F7DF
:1054A000FE2B880F911D9695879597F9089523DF18
:1054B000880B990B0895EE0FFF1F881F8BBF079075
:1054C000F691E02D19940F931F93CF93DF938230C1
:1054D000910510F482E090E0E0913A07F0913B07EB
:1054E00020E030E0A0E0B0E0309719F14081518138
:1054F0000281138148175907C8F08417950769F48A
:10550000109731F012960C93129713961C9327C0A4
:1055100000933A0710933B0722C02115310519F07B
:105520004217530718F49A01BD01EF01DF01F8019A
:10553000DBCF21153105F9F0281B390B243031055B
:1055400080F48A819B816115710521F0FB019383B1
:10555000828304C090933B0780933A07FE01329602
:1055600044C0FE01E20FF31F819391932250310951
:10557000398328833AC02091380730913907232B8B
:1055800041F42091030230910402309339072093B3
:10559000380720910102309102022115310541F4B2
:1055A0002DB73EB74091050250910602241B350BE2
:1055B000E0913807F0913907E217F307A0F42E1BAA
:1055C0003F0B2817390778F0AC014E5F5F4F241767
:1055D000350748F04E0F5F1F509339074093380747
:1055E0008193919302C0E0E0F0E0CF01DF91CF9191
:1055F0001F910F910895CF93DF93009709F481C015
:10560000FC01329713821282A0913A07B0913B07B6
:10561000109781F420813181820F931F20913807E8
:10562000309139072817390751F5F0933907E0937E
:10563000380767C0ED0120E030E0CE17DF0740F407
:105640004A815B819E0141155105F1F0EA01F5CFD8
:10565000D383C28340815181840F951FC817D90716
:1056600059F488819981840F951F029691838083D4
:105670008A819B81938382832115310529F4F093DC
:105680003B07E0933A073DC0E901FB83EA83499178
:105690005991C40FD51FEC17FD0761F480819181EA
:1056A000840F951F0296E9019983888382819381F3
:1056B0009B838A83E0E0F0E012968D919C91139792
:1056C000009719F0FD01DC01F7CF8D919C911197A6
:1056D0009D012E5F3F4F820F931F2091380730911D
:1056E00039072817390769F4309729F410923B07D6
:1056F00010923A0702C013821282B0933907A09326
:105700003807DF91CF91089581E090E0F89409C0C7
:10571000FB01DC0102C001900D9241505040D8F7CE
:10572000089511E0C6E3D1E000E005C0802FFE013E
:10573000C2DE2196011DC733D10780E00807B1F70B
:04574000F894FFCF0B
:10574400FF00003C0780000000C84200007A4400CB
:10575400000020410102030405060F1000000000B0
:105764003A0D8D0CB70C860DE80CC60CDA0C000053
:1057740000005C0E300E8B0E040E280E140E050E67
:105784002C20000D0A006E616E00696E66006F7653
:025794006600AD
:00000001FF
