:1000000036C1000065C1000063C1000061C100008D
:100010005FC100005DC100005BC1000059C100006C
:1000200057C100000C9496190C9496190C949619CB
:100030004FC100000C94C3144BC1000049C1000023
:1000400047C1000045C1000043C1000041C100009C
:100050003FC100003DC100003BC100000C946C1D7D
:1000600037C100000C9481170C94581731C100005F
:100070002FC100002DC100002BC1000029C10000CC
:1000800027C1000025C1000023C1000021C10000DC
:100090000C942F170C9406171BC100000C94AA1780
:1000A00017C1000015C1000013C1000011C10000FC
:1000B0000FC100000DC100000BC1000009C100000C
:1000C00007C1000005C1000003C100000C94DD164B
:1000D0000C94B416FDC000000C948B160C946216A0
:1000E000F7C00000AB04AB04C106C106A306B50609
:1000F000D506D506D506D506D506D506D506D50628
:10010000AB04C106DD04DD04390739076F07AE070C
:100110001B051B051B051B051B051B051B051B05DF
:10012000BD070E08440E470E360E3A0E400E7E0EE8
:100130004B0E4F0E550E590E5D0E630E670E6B0E75
:100140007E0E710E750E790E00002100240027002E
:100150002A002D00300033000101000004010701D6
:100160000A0100002200250028002B002E0031008B
:10017000340002010000050108010B01000020000D
:100180002300260029002C002F003200000100006F
:10019000030106010901050505050705080808080A
:1001A000020202020A0A080804040404010101010F
:1001B000010101010303030303030303040707070A
:1001C0000C0C0C0C0C0C0C0C0202020206060606AF
:1001D000060606060B0B0B0B0B0B0B0B010210207C
:1001E000200808102040102040800201020108046D
:1001F0000201010204081020408080402010080401
:100200000201800402018040201008040201080459
:10021000020101020408102040800102040810209D
:10022000408000000A0B02090C0D0E0807030401B0
:1002300000000000000000000000000000000000BE
:10024000000000000000000000000000000012118B
:10025000100000000000000000000000000000008E
:1002600000000000000000000200382722281124AE
:100270001FBECFEFD1E2DEBFCDBF00E00CBF12E06A
:10028000A0E0B2E0E8EFF7E500E00BBF02C00790A6
:100290000D92AC38B107D9F727E0ACE8B2E001C065
:1002A0001D92A237B207E1F711E0C6E3D1E000E00A
:1002B00006C021970109802FFE010E94B52AC5338F
:1002C000D10780E00807A9F70E94B61D0C94EB2B1C
:1002D00097CE0E943B1D0E94982920E034E244E71B
:1002E00059E40C94FF2808951F93CF93DF93EC01FA
:1002F0000E943611182FCE0101960E94361190E00F
:10030000982F8827810F911DDF91CF911F9108951C
:100310000F931F93CF93DF938C01EB01CB01E4DFAD
:100320008017910759F0602FCE010E949B0F612F1B
:10033000CE0101960E949B0F81E001C080E0DF9119
:10034000CF911F910F9108952F923F924F925F92FC
:100350006F927F928F929F92AF92BF92CF92DF92D5
:10036000EF92FF920F931F93CF93DF9300D01F92D2
:10037000CDB7DEB79C838B83FC01E759FF4F8081AB
:100380000B811C8108571F4F882309F465C00E9408
:10039000601D6B017C01F80180809180A280B38098
:1003A0002DEC3CEC4CE45DE3EB81FC81E457FF4F2A
:1003B00060817181828193810E944E2A2B013C01D0
:1003C00020E030E040EB51E4C501B4010E949628E2
:1003D000EB81FC81EC56FF4F2081318142815381BA
:1003E0000E944E2A9B01AC01C301B2010E949628D3
:1003F000EB81FC81E856FF4F20813181428153819E
:100400000E94FF282B013C012B803C80FCE92F0E31
:10041000311CF10180819181B601681B790B072E97
:10042000000C880B990B0E949A299B01AC01C30117
:10043000B2010E944E2AA50194010E949728F8015A
:1004400060837183828393830E94601DF1016083C6
:100450007183828393838BC0EB80FC80F6E4EF0E84
:10046000F11CF70163817481636E716880810E9461
:10047000E10E80EB94E00E943812F70180810E9427
:100480003E0FF7012281022E02C0969587950A94AD
:10049000E2F7222329F08115F8E09F0708F0906F1A
:1004A000CB80DC8024E5C20ED11CF60191838083D1
:1004B000F70163817481636E716B80810E94E10E2C
:1004C00080EB94E00E943812F70180810E943E0F79
:1004D000F7012281022E02C0969587950A94E2F7D1
:1004E000222329F08115F8E09F0708F0906FEB8137
:1004F000FC81EA5AFF4F91838083BC01990F880BDE
:10050000990B0E949A294B015C01F601608171816F
:10051000072E000C880B990B0E949A299B01AC01B5
:10052000C501B4010E94FF28EB81FC81E45BFF4F11
:1005300020813181428153810E944E2AEB81FC81CE
:10054000E455FF4F20813181428153810E944E2A20
:10055000EB81FC81E055FF4F208131814281538145
:100560000E949628F80160837183828393830E949E
:10057000601DEB81FC81EC58FF4F608371838283A7
:1005800093832B803C80F0E72F0E311CF101C0805B
:10059000D180E280F3809B01AC012C193D094E090A
:1005A0005F0969017A01EB81FC81E858FF4F808186
:1005B0009181A281B38182179307A407B50708F040
:1005C0003FC0F80180809180A280B3802B813C8164
:1005D0002B593F4F3A8329834B815C814C575F4FA6
:1005E0005C834B83FA012081318142815381C501B3
:1005F000B4010E9496282B013C01C701B6010E945C
:10060000982920E030E04AE754E40E94FF289B014B
:10061000AC01C301B2010E94FF28E981FA81608325
:10062000718382839383EB81FC8180829182A28299
:10063000B3820E94601DF101608371838283938382
:10064000F80160817181828193810F900F900F90EA
:100650000F90DF91CF911F910F91FF90EF90DF905E
:10066000CF90BF90AF909F908F907F906F905F9052
:100670004F903F902F9008958F929F92AF92BF928C
:10068000CF92DF92EF92FF92CF93DF93EC016A015A
:100690007B01FC01E058FF4F80809180A280B380F5
:1006A0009A01AB01C501B4010E94FB28CC53DF4F76
:1006B00087FF05C088829982AA82BB8212C020E08F
:1006C00030E0A901C701B6010E94FB2887FF05C0E1
:1006D000188219821A821B8204C0C882D982EA82D7
:1006E000FB82DF91CF91FF90EF90DF90CF90BF9092
:1006F000AF909F908F9008954F925F926F927F92EC
:100700008F929F92AF92BF92CF92DF92EF92FF9221
:100710000F931F93CF93DF93CDB7DEB72A970FB612
:10072000F894DEBF0FBECDBF8EEA92E09093F6063E
:100730008093F5068BE6809307078091AF0684309F
:1007400028F48091AA069091AB0604C08091AC0673
:100750009091AD06DC01ED91FC910084F185E02DD6
:100760001995882309F47FC49091F406891791F0B4
:100770008093F4060E94601DDC01CB010596A11D4B
:10078000B11D8093FF0690930007A0930107B093DB
:10079000020769C40E94601D0091FF0610910007C6
:1007A00020910107309102076017710782079307B4
:1007B00008F459C41092F4068091B006823050F0CB
:1007C000809105018F7B80930501809105018F7DCC
:1007D000809305011092F3068091AF0610E08430FB
:1007E00008F04BC08091AA069091AB06DC01ED9118
:1007F000FC910084F185E02D1995892B09F44AC0FC
:10080000B091F306EB2FF0E0FA83E9838091AA061A
:100810009091AB06DC01ED91FC910284F385E02D13
:100820001995E981FA81E655F94F81878091F306A0
:100830008F5F8093F3068034A8F211E0D3CFB0919C
:10084000F306EB2FF0E0FA83E9838091AC069091F8
:10085000AD06DC01ED91FC910284F385E02D199544
:10086000E981FA81E655F94F81878091F3068F5F20
:100870008093F306803408F011E08091AC069091EB
:10088000AD06DC01ED91FC910084F185E02D199518
:10089000892BA9F68091F7069091F806019690931E
:1008A000F8068093F706112361F08091FB06909182
:1008B000FC0601969093FC068093FB06FDEFF983FE
:1008C00003C02091F306298339813093B206373073
:1008D0000CF4ADC09091B3068091AE069813C3C3DB
:1008E0008091F306A82FB0E0BA83A98382500E94BA
:1008F0001C10E981FA81E655F94F278130E0322F4B
:1009000022274085242B2817390761F08091FB06A8
:100910009091FC0601969093FC068093FB06BFEF36
:10092000B98347C04091B406E7E0F2E08FE092E07F
:100930002191241709F4FAC18E179F07C9F78091F6
:10094000FB069091FC0601969093FC068093FB06B3
:10095000A1E00C94A10D8091B5069091B606982760
:10096000892798279C0184E0369527958A95E1F799
:100970008091B7069091B80698278927982754E068
:10098000969587955A95E1F7820F931F90910707E7
:10099000981708F00AC232E0398380E8840F809308
:1009A000B406B981B093B50683E08093F3060E9444
:1009B0003810E981E093B2063AC02091B506309133
:1009C000B6063227232732274091B7065091B80642
:1009D000542745275427FA0113E0F695E7951A9511
:1009E000E1F78E2FBA01677077276115710511F055
:1009F00081E08E0F8093B50683E08093F306420F6B
:100A0000531F90E0812C912C54018394421753077B
:100A100009F0F1C18093F306672B19F08F5F809383
:100A2000F306F091F306FE5FF9830E9438103981D6
:100A300035300CF418C361E08BE30E949E11809165
:100A4000820390918303019709F07FC08091900207
:100A500090919102A0919202B091930289839A831E
:100A6000AB83BC8336DC2B013C01E0918906F0911D
:100A70008A06A081B181BE83AD83FD01E457FF4F9B
:100A8000A458BF4F2D913D914D915C916081718132
:100A9000828193810E94FF2820E030E048EC52E4FC
:100AA0000E944E2A6B017C01ED81FE81E857FF4FC9
:100AB00080809180A280B380ED81FE81EC53FF4F56
:100AC000408151816281738122E08CED95E00E942A
:100AD0007F1560E472E08CED95E00E94221522E023
:100AE000B501A4018CED95E00E947F1560E472E0F1
:100AF0008CED95E00E94221522E0B701A6018CED55
:100B000095E00E947F1560E472E08CED95E00E9414
:100B1000221526E0B301A2018CED95E00E947F151D
:100B200060E472E08CED95E00E94221522E049819C
:100B30005A816B817C818CED95E00E947F1563E486
:100B400072E08CED95E00E942215C3DBC0908C0210
:100B5000D0908D02E0908E02F0908F02A701960156
:100B60000E9496284B015C0160913203709133031F
:100B700080E090E00E94982920E030E040E251E4DB
:100B80000E94FF289B01AC01C501B4010E944A2AC2
:100B900087FD14C09EDB60938C0270938D0280935E
:100BA0008E0290938F020E94BC1B81115EC20CECDE
:100BB00012E028EE33E03A83298324C08ADBA701C0
:100BC00096010E94962820E030E0A9010E94FB28AF
:100BD00087FF4BC2A701960160E070E080E89FE4C8
:100BE0000E9496289B01AC0160E070E0CB010E945E
:100BF000962860938C0270938D0280938E0290935E
:100C00008F0233C269817A81D8018D919D918D01C6
:100C10007FDBE981FA813496FA83E983E115F440B8
:100C200089F70EEA12E01A82198269817A81D80165
:100C30008D919D918D016CDBE981FA813496FA8367
:100C4000E983749791F702EC12E069817A81D80107
:100C50008D919D918D015CDBE981FA813496FA8357
:100C6000E983B89791F768E270E080912003909152
:100C700021034EDB6CE270E080912203909123030C
:100C800047DB60E370E080912E0390912F0340DBFF
:100C900064E370E0809130039091310339DB68E3C5
:100CA00070E080915C0390915D0332DB6CE370E057
:100CB00080915E0390915F032BDB60E470E0809194
:100CC00060039091610324DB64E470E0809132035F
:100CD000909133031DDB68E470E080917E03909176
:100CE0007F0316DB6CE470E08091800390918103B8
:100CF0000FDB60E570E0809134039091350308DBF1
:100D000002E613E024E530E03A83298369817A81A1
:100D1000D8018D919D918D01FBDAE981FA8134969C
:100D2000FA83E983E836F10589F79FC1842F90E0C3
:100D3000FC013197E031F105C0F58827EE58FF4FEF
:100D40008F4F0C94B52A8091B5069091B6069827DE
:100D50008927982704E0969587950A95E1F7909161
:100D60000707981708F4E4C620C08091B506909153
:100D7000B6069827892790910707981708F4DCC6CC
:100D800014C08091B7069091B806382F292F809112
:100D9000B5069091B606982789279827820F931F4A
:100DA00090910707981708F4CBC60E94601D209108
:100DB000FD063091FE06DC01CB01820F931FA11DC1
:100DC000B11D8093030790930407A0930507B09388
:100DD00006071092B206E091B4068E2F90E0FC0157
:100DE0003197E031F10508F026CE8827EE57FF4F06
:100DF0008F4F0C94B52AF901A3E0F695E795AA95D3
:100E0000E1F7EE7FF170E255FD4FA081B181E22F55
:100E1000EF7002C0B695A795EA95E2F7E82FF0E0EB
:100E2000E655F94FA0FF0EC0A18575016401092E9A
:100E300004C0CC0CDD1CEE1CFF1C0A94D2F7CA2A9D
:100E4000C1860FC075016401092E04C0CC0CDD1CE5
:100E5000EE1CFF1C0A94D2F7AC2DA095B185AB23F4
:100E6000A1879F5F983010F08F5F90E02F5F3F4F1A
:100E7000CDCD2091B5063091B60632272327322FEB
:100E80008091B7069091B806982789279827482F10
:100E9000440F4093B506E3E09927820F911D22E0AD
:100EA0002E0F2983A32FB0E0A817B907ACF4AA0F1F
:100EB000BB1FA255BD4F2C9111964C91AE2FB0E0A7
:100EC000A655B94F19964C93EF5FF0E0E655F94FF0
:100ED00021873F5FE981E3CFE093F306A6CD8091C0
:100EE000B5069091B606982789279827FC0194E0CB
:100EF000F695E7959A95E1F7282F2F708091B70620
:100F0000FF27EE0FFF1FE255FD4F8F3F81F481E079
:100F100090E0A0E0B0E004C0880F991FAA1FBB1F9B
:100F20002A95D2F720813181822B932B11C081E049
:100F300090E0A0E0B0E004C0880F991FAA1FBB1F7B
:100F40002A95D2F780959095208131818223932331
:100F50009183808386E08093F30682C0E091B60699
:100F6000F0E0EE0FFF1FE255FD4F8091B706909124
:100F7000B806982789279827EBCF8091B5069091DE
:100F8000B6069827892798274091B7065091B8064A
:100F9000542745275427480F591F20E037E0812C5C
:100FA000912C5401839484179507A1F2A82FAF7058
:100FB000E32FF0E0E655F94F618570E0022E02C0A4
:100FC000759567950A94E2F7FC0174E0F695E7954C
:100FD0007A95E1F7FF27EE0FFF1FE255FD4F7501F0
:100FE000640104C0CC0CDD1CEE1CFF1CAA95D2F7DA
:100FF00060FF05C060817181C62AD72A06C0C094EF
:10100000D09460817181C622D722D182C0822F5FA5
:10101000283010F03F5F20E00196C5CFE091B60682
:101020004091B8061092B70686E08093F306AAEACC
:10103000B6E0F0E0EE0FFF1FE255FD4F20E0129604
:10104000421771F01E968C911E9790E0982F88277A
:101050001F963C911F97832B819391932F5FEFCF26
:101060000E943810E8CC60E0E7CCE0918906F0916E
:101070008A06208131813A872987F901E659FF4F95
:101080001182108240900F02509010026090110265
:10109000709012026091D0027091D10280E090E0D5
:1010A0000E949829A30192010E94FF286B017C01F4
:1010B0006091CE027091CF0280E090E00E9498296A
:1010C000A30192010E94FF2869837A838B839C830A
:1010D0006091CC027091CD0280E090E00E9498294E
:1010E000A30192010E94FF286D837E838F839887DE
:1010F000E985FA85E056FF4F60837183828393838D
:10110000E985FA85EC55FF4F89819A81AB81BC81D5
:1011100080839183A283B383E985FA85E855FF4FE5
:10112000C082D182E282F38220E030E0A9016D81A9
:101130007E818F8198850E94FB2887FD25C020E055
:1011400030E0A90169817A818B819C810E94FB2812
:1011500087FD1AC020E030E0A901C701B6010E9456
:10116000FB2887FD11C0A985BA855A96AD90BC9021
:101170005B9709811A812B813C814D815E816F8152
:101180007885CD010E94DB18E0918906F0918A06EE
:10119000208131813A832983890104551F4F609151
:1011A000D2027091D30280E090E00E94982920E062
:1011B00030E04AE754E40E94FF28D8016D937D9304
:1011C0008D939C93139709811A8100551F4F60914D
:1011D000D4027091D50280E090E00E949829A3018A
:1011E00092010E94FF28F8016083718382839383B8
:1011F0006091D6027091D70280E090E00E94982919
:10120000E981FA81E454FF4F608371838283938381
:10121000E981FA81E45BFF4F60837183828393836A
:1012200009811A8100581F4F609134037091350372
:1012300080E090E00E94982920E030E040E251E414
:101240000E94FF28D8016D937D938D939C931397F3
:101250000E94BC1B811103C089819A8175D8E091DD
:101260008906F0918A06208131813A832983F90128
:10127000E857FF4F20E030E040E251E460817181A7
:10128000828193810E944E2A0E946C2970933B03B5
:1012900060933A03E981FA81E457FF4FA981BA814B
:1012A000A458BF4F2D913D914D915C91608171810A
:1012B000828193810E94FF2820E030E048EC52E4D4
:1012C0000E944E2A20E030E040E251E40E944E2A83
:1012D0000E946C2970934903609348036091200336
:1012E0007091210380E090E00E94982920E030E096
:1012F00040E251E40E94FF28AB01BC0189819A8140
:10130000BBD9E0918906F0918A060190F081E02D29
:10131000EC53FF4F20E030E040E251E46081718106
:10132000828193810E944E2A0E946C29709321032E
:10133000609320030E94690120915B0730915C0754
:1013400040915D0750915E070E94962820E030E0B2
:1013500040E85FE30E944A2A87FD0FC00E946901AE
:1013600060935B0770935C0780935D0790935E07C3
:1013700020919106243070F17FC00E946901C090D5
:101380005B07D0905C07E0905D07F0905E07A701D7
:1013900096010E94962820E030E0A9010E94FB28D7
:1013A00087FF95C0A701960160E070E080E89FE4A8
:1013B0000E9496289B01AC0160E070E0CB010E9486
:1013C000962860935B0770935C0780935D0790930A
:1013D0005E077DC0609194067091950663607160B0
:1013E00080918F0690919006682B792B223041F0E6
:1013F000233041F0213011F0706405C0706503C0E6
:10140000706601C07067C0909606D0909706E09015
:101410009806F0909906706880918C06D2D420E0EE
:1014200030E040E251E4C701B6010E94FB2887FF8B
:101430000EC020E030E04AE754E4C701B6010E9444
:101440004E2A0E946729CB010E9438120AC0C701A8
:10145000B6010E946729072E000C880B990B0E9489
:10146000431280918C060AD500908E0602C0969594
:1014700087950A94E2F702C080E090E0BC0180E02A
:1014800090E00E94982920919A0630919B06409105
:101490009C0650919D060E944E2A20919E063091F6
:1014A0009F064091A0065091A1060E949628609345
:1014B000A6067093A7068093A8069093A90660934A
:1014C000900270939102809392029093930220E095
:1014D00030E04FE254E4609190027091910280916B
:1014E0009202909193020E944A2A181644F4109294
:1014F000900210929102109292021092930220E0B8
:1015000030E040E251E4609190027091910280914C
:101510009202909193020E944E2A0E946C2970932D
:101520007D0360937C0386E3E1D6892B39F081E06B
:1015300090E0909377038093760304C01092770332
:101540001092760360913A0370913B0380E090E043
:101550000E9498296B017C0160917E0370917F034A
:1015600080E090E00E94982926E636E646E85FE3B0
:101570000E944E2A9B01AC01C701B6010E944A2A73
:1015800018160CF0C0C28091360390913703019772
:1015900009F0B9C28091AD028111B5C200918003FA
:1015A000109181034801A12CB12CC501B4010E9406
:1015B00098299B01AC0160E070E08AE794E40E9406
:1015C000FF280E946C292B013C018091000282308F
:1015D00021F08F3F09F094C205C0E8E6F2E03491B3
:1015E0003D83DAC082E080930002E8E6F2E0849175
:1015F0008D838F3F09F484C2823009F469C030F5CD
:10160000882309F44CC0813009F0C6C010928000D4
:101610001092810080918100886080938100809188
:101620008100816080938100E8E9F1E0E491F0E0DD
:10163000EE0FFF1FEE59FE4F85919491EEEDF1E014
:10164000E491E0939702A1E0AD8359C19D8194306C
:1016500009F482C008F460C0953009F09DC0109272
:101660002001109221018091210188608093210145
:1016700080912101816080932101E8E9F1E0E4910A
:10168000F0E0EE0FFF1FEE59FE4F85919491EEEDC5
:10169000F1E0E491E093940225E02D8330C114BC85
:1016A00015BC84B5826084BD85B5816085BDE8E9DF
:1016B000F1E0E491F0E0EE0FFF1FEE59FE4F85914F
:1016C0009491EEEDF1E0E491E09398021D82A6C2C0
:1016D0001092B0001092B1008091B00082608093AF
:1016E000B0008091B10081608093B100E8E9F1E041
:1016F000E491F0E0EE0FFF1FEE59FE4F85919491BB
:101700009093100780930F07EEEDF1E0E491E093E2
:101710001107B2E0BD8382C2109290001092910036
:101720008091910088608093910080919100816008
:1017300080939100E8E9F1E0E491F0E0EE0FFF1F03
:10174000EE59FE4F85919491EEEDF1E0E491E09336
:101750009602E3E0ED83D3C01092A0001092A100A6
:101760008091A10088608093A1008091A100816098
:101770008093A100E8E9F1E0E491F0E0EE0FFF1FB3
:10178000EE59FE4F85919491EEEDF1E0E491E093F6
:101790009502F4E0FD83B3C03D8137FDB1C161E046
:1017A00082E02AD68D818D7F09F0ACC060E072E1C5
:1017B0008AE790E0A50194010E943F2829833A839B
:1017C0004B835C8369017A0181E0C81AD108E10882
:1017D000F1089FEFC916D104E104F10409F008F4FF
:1017E0004DC060E472E48FE090E0A50194010E9496
:1017F0003F2869017A01A1E0CA1AD108E108F1087D
:10180000BD81B23001F5EFEFCE16D104E104F10451
:1018100009F008F48BC160E970ED83E090E0A50168
:1018200094010E943F2869017A01F1E0CF1AD108A2
:10183000E108F1082FEFC216D104E104F10409F028
:1018400040F583E055C03FEFC316D104E104F10435
:10185000B9F0B0F068E478EE81E090E0A501940181
:101860000E943F2869017A0181E0C81AD108E10885
:10187000F1089D81992309F49CC192C181E001C0C6
:1018800082E0FD81F11134C095B5987F892B85BD2B
:10189000A9C068E478EE81E090E0A50194010E947F
:1018A0003F2869017A0191E0C91AD108E108F108DD
:1018B000AFEFCA16D104E104F10409F008F434C111
:1018C00064E274EF80E090E0A50194010E943F285B
:1018D00069017A01A1E0CA1AD108E108F108BFEF55
:1018E000CB16D104E104F10411F008F02DC185E01C
:1018F0009091B100987F892B8093B10073C061E013
:1019000082E07AD560E072E18AE790E0A501940177
:101910000E943F2869017A0181E0C81AD108E108D4
:10192000F108C114D10491E0E906F10488F068E4FB
:1019300078EE81E090E0A50194010E943F286901C2
:101940007A01A1E0CA1AD108E108F10883E001C0D8
:1019500081E0BD81B13081F490918100987F892B25
:1019600080938100411451046104710409F03FC067
:101970002FEF3FEFA9016DC0ED81E33079F4909135
:101980009100987F892B8093910041145104610448
:10199000710469F52FEF3FEFA9017DC0FD81F4309F
:1019A00079F49091A100987F892B8093A100411434
:1019B000510461047104D9F42FEF3FEFA9017DC0F8
:1019C0002D81253079F490912101987F892B809386
:1019D0002101411451046104710449F42FEF3FEFD8
:1019E000A9017DC0411451046104710471F0D80152
:1019F000AA0FBB1FA30192010E945B2828EE33E0CF
:101A000040E050E00E94652803C02FEF3FEFA9019E
:101A10008D81823081F12CF4882361F08130C9F00E
:101A20006FC09D81943009F448C0ACF1953009F441
:101A300056C066C0C7BC2093A9023093AA02409347
:101A4000AB025093AC0280916E00826080936E0076
:101A500057C0D0928900C09288002093A50230938D
:101A6000A6024093A7025093A80280916F00826063
:101A700080936F0045C0C092B3002093120730934B
:101A800013074093140750931507809170008260EC
:101A90008093700035C0D0929900C0929800209336
:101AA000A1023093A2024093A3025093A40280911A
:101AB000710082608093710023C0D092A900C0920F
:101AC000A80020939D0230939E0240939F02509362
:101AD000A0028091720082608093720011C0D09247
:101AE0002901C09228012093990230939A024093D1
:101AF0009B0250939C0280917300826080937300DC
:101B000081E08093AD028091360390913703892B59
:101B100009F088C08091AD02882309F483C082E077
:101B2000EFD61092AD027EC084E0E2CE82E0E0CE3D
:101B300082E089830C94CD0492E099830C94CD04C7
:101B4000A2E0A9830C94CD0462E17AE780E090E002
:101B5000A50194010E943F2869017A01E1E0CE1AB3
:101B6000D108E108F1082FEFC216D104E104F10415
:101B7000A9F0A0F089819A81AB81BC812AE0B5955A
:101B8000A795979587952A95D1F76C017D01F1E08E
:101B9000CF1AD108E108F10887E0AACE86E0A8CEE6
:101BA000FFEFCF16D104E104F10409F068F684E0F8
:101BB00068CEAFEFCA16D104E104F10469F160F117
:101BC00062E17AE780E090E0A50194010E943F285D
:101BD00069017A0181E0C81AD108E108F1089FEF94
:101BE000C916D104E104F104A9F0A0F089819A8119
:101BF000AB81BC813AE0B595A795979587953A95C5
:101C0000D1F76C017D01E1E0CE1AD108E108F108BD
:101C100085E03ACE84E038CE83E036CE61E082E0E3
:101C2000EBD3C4CD2A960FB6F894DEBF0FBECDBF5E
:101C3000DF91CF911F910F91FF90EF90DF90CF90A8
:101C4000BF90AF909F908F907F906F905F904F90DC
:101C5000089590E0FC013197E231F10508F04EC0A3
:101C60008827EE56FF4F8F4F0C94B52A8091800045
:101C70008F7703C0809180008F7D809380000895CE
:101C800080918000877FF9CF84B58F7702C084B5BB
:101C90008F7D84BD08958091B0008F7703C08091BF
:101CA000B0008F7D8093B0000895809190008F7771
:101CB00007C0809190008F7D03C080919000877F46
:101CC0008093900008958091A0008F7707C0809145
:101CD000A0008F7D03C08091A000877F8093A0002B
:101CE0000895809120018F7707C0809120018F7D1A
:101CF00003C080912001877F809320010895682F81
:101D000089E796E0C9C5282F30910104313208F0E7
:101D10004AC0809100048111FCCF9091F90342E008
:101D2000409300042093FF032FEF2093D7031092DA
:101D3000D6033093D503E9EDF3E0A5EBB3E020E063
:101D4000321721F041914D932F5FFACF1092B403D7
:101D50002091B403990F922B9093B4039091FE03BA
:101D6000913061F41092FE039091B4039093BB0004
:101D70009091BC0093FDF8CF95EC01C095EE909347
:101D8000BC00909100049230E1F39091D7039F3F03
:101D900079F08091D703803241F08091D70380336E
:101DA00031F084E005C081E003C082E001C083E03F
:101DB00010920204109201041092D803089581E059
:101DC000A2CFCF93DF93EB0191E09093D803809360
:101DD000F903109202041092010461E089E796E091
:101DE0005BD56D2F89E796E057D56C2F89E796E094
:101DF00053D5DF91CF91E3CF909100049111FCCFA7
:101E000091E0909300049093FF032FEF2093D7036A
:101E10001092D603260F2093D5039093B40390918C
:101E2000B403880F892B8093B4038091FE03813023
:101E300061F41092FE038091B4038093BB00809103
:101E4000BC0083FDF8CF85EC01C085EE8093BC001B
:101E5000809100048130E1F38091D603861710F45D
:101E60006091D603A5EBB3E0E4E9F3E080E08617E8
:101E700021F09D9191938F5FFACF08951F93CF9397
:101E8000DF93182F81E08093D8031093F903109209
:101E900002041092010460E089E796E0FDD48FDF30
:101EA00062E0812FA9DF109204048093030489E784
:101EB00096E0AAD4182F89E796E0A6D4D12F20E087
:101EC000C22F9E01282BC901DF91CF911F91089548
:101ED000FF920F931F93CF93DF93EB0108EB10E07A
:101EE000F801F0802CE02083FC01808191E0909348
:101EF000D8038093F903109202041092010460E465
:101F000089E796E0C9D4CE0124E0969587952A9575
:101F1000E1F7F5DECE0134E0880F991F3A95E1F73D
:101F20009927EDDE4CDFF801F082DF91CF911F9110
:101F30000F91FF9008951F93CF93DF93EC01162F1D
:101F40008091080791E09093D8038093F903109251
:101F50000204109201048D2F90E0D1DECE0199276A
:101F6000CEDE612F89E796E097D4DF91CF911F9164
:101F700026CFCF92DF92EF92FF92CF93DF93EC01C7
:101F80006A017B01E889F98982E080834115514E1D
:101F900061057105B1F060E079E08DE390E0A701A3
:101FA00096010E946528DA01C9010197A109B109CA
:101FB000B695A795979587959C01211580E13807DF
:101FC000A8F0E889F989108260E874E88EE190E071
:101FD000A70196010E946528DA01C9010197A109AC
:101FE000B109B695A795979587959C01EC85FD85D8
:101FF0003083EE85FF852083188EEC89FD8986E08D
:102000008083EA89FB89808180618083EA89FB89FA
:10201000808188608083EA89FB89808180688083F1
:10202000EA89FB8980818F7D8083DF91CF91FF904A
:10203000EF90DF90CF900895E3EBF6E090E02FEF84
:102040003FEF981791F04191242748E0B901617062
:10205000772736952795672B21F051E0252750EA01
:102060003527415099F79F5FECCF922F832F08952A
:10207000CF93C091F3068C2FDFDFEC2FF0E0E65515
:10208000F94F9187E1E0EC0FF0E0E655F94F8187D9
:10209000CE5FC093F3069091B0068091AF06923068
:1020A00038F1823051F0833071F0813091F49091A9
:1020B000C80090649093C80011C09091D0009064C3
:1020C0009093D0000BC090913001906490933001B8
:1020D00005C09091C00090649093C000909105015C
:1020E0009064909305019091050190629093050191
:1020F0004091F306843028F48091AA069091AB06B3
:1021000004C08091AC069091AD0650E0DC01ED91E9
:10211000FC910280F381E02D63EB76E019959091BC
:10212000B0068091AF06923018F1823049F08330CA
:1021300061F0813079F49091C80096FFFCCF0EC019
:102140009091D00096FFFCCF09C09091300196FF8E
:10215000FCCF04C09091C00096FFFCCF9091050188
:102160009F7B90930501909105019F7D90930501C0
:10217000843070F58091AA069091AB06DC01ED9158
:10218000FC910284F385E02D199597FFF3CF10920F
:10219000F3060E94601D2091FD063091FE06DC01D1
:1021A000CB01820F931FA11DB11D80930307909354
:1021B0000407A0930507B09306078091F906909154
:1021C000FA0601969093FA068093F906CF91089546
:1021D0008091AC069091AD06DC01ED91FC910284FA
:1021E000F385E02D199597FFF3CFD1CF809192061B
:1021F00090919306811524E0920709F130F400973D
:10220000A1F081159240B1F00895811528E0920760
:10221000D9F081152AE09207E1F08115964029F561
:102220008DEC9CECACECBBE318C08AE999E9A9E120
:10223000BDE313C08DEC9CECACECBCE30EC08DECAC
:102240009CECACE4BCE309C08DEC9CECACE4BBE3DF
:1022500004C08DEC9CECACECBAE380939A069093AE
:102260009B06A0939C06B0939D0608950F931F9321
:10227000CF93DF938C01C8E0D7E0888191E0909301
:10228000D8038093F9031092020410920104812F65
:1022900090E035DDC801992732DD91DD61E088816C
:1022A000ABDD109204048093030489E796E0ACD27E
:1022B000DF91CF911F910F910895FC01A089B18901
:1022C0008C91A689B78982FD0FC09C91818D8F5F0B
:1022D0008F73228D821749F0218DDF01A20FB11D6E
:1022E0005D969C93818F08958C910895CF93DF9391
:1022F000282F30E0F901EE5DFD4F8491F901E452A1
:10230000FE4FD491F901EA56FE4FC491CC2389F0D7
:1023100081119FDCEC2FF0E0EE0FFF1FE458FE4F21
:10232000A591B491EC91ED2381E090E021F480E05F
:1023300002C080E090E0DF91CF9108951F93CF938A
:10234000DF93282F30E0F901EE5DFD4F8491F90114
:10235000E452FE4FD491F901EA56FE4FC491CC23CA
:10236000B9F0162F811175DCEC2FF0E0EE0FFF1F96
:10237000EE59FE4FA591B4919FB7F894111104C086
:102380008C91D095D82302C0EC91DE2BDC939FBFBB
:10239000DF91CF911F9108951092040410920304CD
:1023A00010920204109201041092000481E08093C4
:1023B000FF031092FE0361E084E1C0DF61E085E18C
:1023C000BDDFE9EBF0E080818E7F808380818D7FAF
:1023D000808388E48093B80085E48093BC0082EF1A
:1023E00093E19093FD038093FC0383EF93E190933B
:1023F000FB038093FA030895CF93DF9390E0FC01F1
:10240000E452FE4F2491FC01EA56FE4F849188234A
:1024100061F190E0880F991FFC01E85BFE4FC591C8
:10242000D491FC01EE59FE4FA591B491611109C000
:102430009FB7F8948881209582238883EC912E237E
:102440000BC0623061F49FB7F8948881322F3095C9
:1024500083238883EC912E2B2C939FBF06C08FB7CC
:10246000F894E8812E2B28838FBFDF91CF910895B8
:102470008230910538F0880F991F880F991F0597B2
:102480000197F1F708958F929F92AF92BF92CF92EA
:10249000DF92EF92FF926B017C010E943B1D4B018A
:1024A0005C01C114D104E104F104F1F00E943B1D70
:1024B000DC01CB0188199909AA09BB09883E934020
:1024C000A105B10570F321E0C21AD108E108F108B5
:1024D00088EE880E83E0981EA11CB11CC114D104A3
:1024E000E104F10419F7DDCFFF90EF90DF90CF907A
:1024F000BF90AF909F908F900895CF92DF92EF9210
:10250000FF920F931F93CF93DF936C017A018B019E
:10251000C0E0D0E0CE15DF0581F0D8016D918D01CE
:10252000D601ED91FC910190F081E02DC601199545
:10253000892B11F02196EECF7E01C701DF91CF915B
:102540001F910F91FF90EF90DF90CF900895FC01C5
:10255000538D448D252F30E0842F90E0821B930B08
:10256000541710F0CF96089501970895FC01918DAE
:10257000828D981761F0828DDF01A80FB11D5D96E5
:102580008C91928D9F5F9F73928F90E008958FEF53
:102590009FEF0895FC01918D828D981731F0828D07
:1025A000E80FF11D858D90E008958FEF9FEF08955E
:1025B000FC01918D228D892F90E0805C9F4F821BC2
:1025C00091098F739927089585E094E0F1DF21E068
:1025D000892B09F420E0822F089582EA94E0E8DF55
:1025E00021E0892B09F420E0822F08958FE395E004
:1025F000DFDF21E0892B09F420E0822F08958CEDA4
:1026000095E0D6DF21E0892B09F420E0822F0895A0
:10261000FC01848DDF01A80FB11DA35ABF4F2C917F
:10262000848D90E001968F739927848FA689B7894E
:102630002C93A089B1898C91837080648C93938D45
:10264000848D981306C00288F389E02D80818F7DE8
:1026500080830895EF92FF920F931F93CF93DF93A0
:10266000EC0181E0888F9B8D8C8D981305C0E889E3
:10267000F989808185FD25C0F62E0B8D10E00F5F56
:102680001F4F0F731127E02E8C8DE8120BC00FB671
:1026900007FCFACFE889F989808185FFF5CFCE0163
:1026A000B7DFF2CF8B8DFE01E80FF11DE35AFF4F2C
:1026B000F0829FB7F8940B8FEA89FB898081806252
:1026C0000AC09FB7F894EE89FF896083E889F98989
:1026D00080818370806480839FBF81E090E0DF9180
:1026E000CF911F910F91FF90EF900895CF93DF93BB
:1026F000EC01888D8823C1F0EA89FB89808185FD02
:1027000005C0A889B9898C9186FD0EC00FB607FC5B
:10271000F5CF808185FFF2CFA889B9898C9185FF9B
:10272000EDCFCE0175DFE8CFDF91CF91089580E046
:1027300090E0892B19F063DF811116C080E090E0F2
:10274000892B19F053DF811112C080E090E0892BB2
:1027500019F043DF81110EC080E090E0892B79F001
:1027600033DF81110AC008950E940000E7CF0E9464
:102770000000EBCF0E940000EFCF0C940000089502
:1027800085ED8093BC008091BC0084FDFCCF10924D
:102790000004089540913807262F30E0240F311DA2
:1027A00021323105DCF4209100042430C9F4FC010D
:1027B00080E090E0861758F4309138072191DC01D1
:1027C000A85EB84FA30FB11D2C930196F3CF809153
:1027D0003807680F6093380780E0089581E0089516
:1027E00082E00895089508950895E0910404809189
:1027F0000304E81730F4F0E0EC56FC4F808190E0E1
:1028000008958FEF9FEF0895909104048091030441
:10281000981750F4E92FF0E0EC56FC4F208130E09F
:102820009F5F9093040402C02FEF3FEFC90108950A
:102830008091030490E020910404821B9109089583
:10284000CF92DF92EF92FF920F931F93CF93DF937C
:102850007C01CB018A012091D803222389F0EB016E
:102860006B01C40ED51ECC15DD0561F06991D70151
:10287000ED91FC910190F081E02DC7011995F3CF06
:10288000642F88DFC801DF91CF911F910F91FF90D6
:10289000EF90DF90CF900895CF93DF931F92CDB745
:1028A000DEB769832091D8032223D1F0209101045F
:1028B000203240F021E030E0FC013383228380E0CD
:1028C00090E014C080910204E82FF0E0E752FC4F42
:1028D000998190838F5F809302048093010404C0E8
:1028E00061E0CE01019656DF81E090E00F90DF912C
:1028F000CF910895089580E090E008950E94DE2B26
:102900009091000289133DC0E8E6F2E0E4919FEF68
:1029100090930002E230C9F050F4EE2399F0E130D8
:1029200081F590916F009D7F90936F002AC0E430F5
:1029300019F1E0F0E53029F5909173009D7F9093B7
:1029400073001FC010926E001CC0909170009D7F9C
:102950009093700091E09093B0009091B100987FB7
:1029600094609093B1001092B3000BC090917100ED
:102970009D7F9093710005C0909172009D7F909310
:10298000720060E0DBCC1F920F920FB60F92112401
:102990000BB60F922F933F934F935F936F937F9359
:1029A0008F939F93AF93BF93EF93FF938091120701
:1029B00090911307A0911407B0911507892B8A2BCA
:1029C0008B2B51F190911107E0910F07F0911007B7
:1029D0008081892780838091120790911307A091AD
:1029E0001407B0911507181619061A061B06BCF431
:1029F0008091120790911307A0911407B0911507C9
:102A00000197A109B1098093120790931307A0932E
:102A10001407B093150703C08091000271DFFF9186
:102A2000EF91BF91AF919F918F917F916F915F9146
:102A30004F913F912F910F900BBE0F900FBE0F90B3
:102A40001F9018956115710579F0FB010190002028
:102A5000E9F73197AF01461B570BDC01ED91FC9173
:102A60000280F381E02D199480E090E008958F9228
:102A70009F92AF92BF92EF92FF920F931F93CF93CB
:102A8000DF93CDB7DEB7A1970FB6F894DEBF0FBEC8
:102A9000CDBF7C01FA01CB0119A2223008F42AE053
:102AA0008E010F5D1F4F822E912CA12CB12CBF01E6
:102AB000A50194010E946528F901CA01015011097C
:102AC0006A3014F4605D01C0695CD8016C93232BFB
:102AD000242B252B61F7B801C701B4DFA1960FB6EF
:102AE000F894DEBF0FBECDBFDF91CF911F910F9144
:102AF000FF90EF90BF90AF909F908F9008957F923E
:102B00008F929F92AF92BF92CF92DF92EF92FF92FD
:102B10000F931F93CF93DF938C016A017B01722E79
:102B20009A01AB01C701B6010E94B12A882319F0AE
:102B30006FE772E027C046015701E894B7F82FEF1E
:102B40003FEF4FE75FE7C501B4010E94B12A811151
:102B50000DC02FEF3FEF4FE75FE7C501B4010E94C3
:102B6000FB2818161CF463E872E00CC02FEF3FEF4F
:102B70004FE75FE4C701B6010E944A2A18168CF499
:102B800067E872E0C801DF91CF911F910F91FF902C
:102B9000EF90DF90CF90BF90AF909F908F907F90FD
:102BA00051CF2FEF3FEF4FE75FECC701B6010E9417
:102BB000FB2887FDE5CF20E030E0A901C701B60181
:102BC0000E94FB2887FF0FC0D801ED91FC91019076
:102BD000F081E02D6DE2C8011995EC01F7FAF0944F
:102BE000F7F8F09402C0C0E0D0E0B12C60E070E0F3
:102BF00080E09FE37B1441F020E030E040E251E4CC
:102C00000E94FF28B394F6CFA70196010E9497284F
:102C10006B017C010E946C294B015C012AE0AB0135
:102C2000BC01C80124DFC80FD91F7720E1F1C5011D
:102C3000B4010E9498299B01AC01C701B6010E9412
:102C400096286B017C01D801ED91FC910190F081F7
:102C5000E02D6EE2C8011995C80FD91F20E030E0C1
:102C600040E251E4C701B6010E944E2A4B015C01CB
:102C70000E946C296B01E12CF12C2AE0B701A6011E
:102C8000C801F5DEC80FD91FC701B6010E949829F7
:102C90009B01AC01C501B4010E9496286B017C0127
:102CA0007A947110DBCFCE01DF91CF911F910F91FC
:102CB000FF90EF90DF90CF90BF90AF909F908F905C
:102CC0007F9008951F920F920FB60F9211240BB6AA
:102CD0000F922F933F934F935F936F937F938F93B5
:102CE0009F93AF93BF93EF93FF9385E094E090DCC5
:102CF000FF91EF91BF91AF919F918F917F916F91D4
:102D00005F914F913F912F910F900BBE0F900FBE8F
:102D10000F901F9018951F920F920FB60F921124CB
:102D20000BB60F922F933F934F935F936F937F93C5
:102D30008F939F93AF93BF93EF93FF9385E094E0BE
:102D4000BCDAFF91EF91BF91AF919F918F917F91ED
:102D50006F915F914F913F912F910F900BBE0F900C
:102D60000FBE0F901F9018951F920F920FB60F92E3
:102D700011240BB60F922F933F934F935F936F9352
:102D80007F938F939F93AF93BF93EF93FF9382EAC9
:102D900094E03EDCFF91EF91BF91AF919F918F91B5
:102DA0007F916F915F914F913F912F910F900BBE4B
:102DB0000F900FBE0F901F9018951F920F920FB695
:102DC0000F9211240BB60F922F933F934F935F9363
:102DD0006F937F938F939F93AF93BF93EF93FF93E3
:102DE00082EA94E06ADAFF91EF91BF91AF919F91EF
:102DF0008F917F916F915F914F913F912F910F90A4
:102E00000BBE0F900FBE0F901F9018951F920F9240
:102E10000FB60F9211240BB60F922F933F934F933F
:102E20005F936F937F938F939F93AF93BF93EF9332
:102E3000FF938FE395E0ECDBFF91EF91BF91AF91B2
:102E40009F918F917F916F915F914F913F912F91C2
:102E50000F900BBE0F900FBE0F901F9018951F92F2
:102E60000F920FB60F9211240BB60F922F933F9330
:102E70004F935F936F937F938F939F93AF93BF9382
:102E8000EF93FF938FE395E018DAFF91EF91BF91F5
:102E9000AF919F918F917F916F915F914F913F91F2
:102EA0002F910F900BBE0F900FBE0F901F90189593
:102EB0001F920F920FB60F9211240BB60F922F9301
:102EC0003F934F935F936F937F938F939F93AF93B2
:102ED000BF93EF93FF938CED95E09ADBFF91EF9119
:102EE000BF91AF919F918F917F916F915F914F9122
:102EF0003F912F910F900BBE0F900FBE0F901F9020
:102F000018951F920F920FB60F9211240BB60F92C5
:102F10002F933F934F935F936F937F938F939F93E1
:102F2000AF93BF93EF93FF938CED95E0C6D9FF91DC
:102F3000EF91BF91AF919F918F917F916F915F9131
:102F40004F913F912F910F900BBE0F900FBE0F909E
:102F50001F9018951F920F920FB60F9211240BB667
:102F60000F922F933F934F935F936F937F938F9322
:102F70009F93AF93BF93EF93FF938091B900887FA6
:102F8000803609F49CC068F5883209F45BC090F47F
:102F9000803109F454C038F4882309F4F6C088302D
:102FA00009F44DC0F5C0883109F44CC0803209F4F1
:102FB0005DC0EEC0803409F468C048F4803309F481
:102FC00055C0883309F0E4C08093D703D8C080355A
:102FD00009F44FC0883509F45DC0883409F0D8C0C1
:102FE000D6C0883909F4C7C0A8F4883709F467C087
:102FF00038F4883609F463C0803709F460C0C8C06B
:10300000883809F4B8C0803909F45FC0803809F005
:10301000BFC05BC0803B09F486C038F4803A09F435
:1030200066C0883A09F47FC0B3C0803C09F4A7C0E9
:10303000883C09F4A4C0883B09F48AC0A9C08091E7
:10304000B40310C09091D6038091D503981770F502
:10305000E091D60381E08E0F8093D603F0E0EB542D
:10306000FC4F80818093BB0085EC86C08093D703A2
:103070008EC0E091D60381E08E0F8093D6038091BD
:10308000BB00F0E0EB54FC4F80839091D60380911D
:10309000D5036EC0E091D60381E08E0F8093D603F6
:1030A0008091BB00F0E0EB54FC4F80838091FF03E4
:1030B00081116DC081E08093FE0384EA61C083E0EA
:1030C0008093000410925A07CFCF80915A07803224
:1030D00008F051C0E0915A0781E08E0F80935A07A3
:1030E0008091BB00F0E0E65CF84F8083BDCF85ECBB
:1030F0008093BC001092000480915A07803230F413
:10310000E0915A07F0E0E65CF84F108260915A07B0
:1031100070E0E091FA03F091FB038AE397E01995E0
:1031200010925A0735C084E080930004109239074A
:1031300010923807E091FC03F091FD0319958091FE
:103140003807811105C081E0809338071092180775
:10315000E091390781E08E0F80933907F0E0E85E57
:10316000F84F80818093BB00909139078091380798
:10317000981708F479CF85E88093BC0009C085ECE6
:103180008093BC001092000403C01092D703F8DAB9
:10319000FF91EF91BF91AF919F918F917F916F912F
:1031A0005F914F913F912F910F900BBE0F900FBEEB
:1031B0000F901F9018954F925F926F927F928F920F
:1031C0009F92AF92BF92CF92DF92EF92FF920F93B6
:1031D0001F93CF93DF93CDB7DEB72A970FB6F8943E
:1031E000DEBF0FBECDBF9A8789872A013B010983C5
:1031F0001A832B833C83DC015B96BC92AE925A9778
:1032000081E0AA94AB2809F080E0E985FA8583AFD4
:10321000408251826282738289819A81AB81BC81B2
:1032200084839583A683B783C086D186E286F3869E
:1032300066A577A580A991A90E94982920E030E091
:103240004AE754E40E94FF286D837E838F8398872A
:10325000E985FA8544865586668677869B01AC01AA
:1032600069817A818B819C810E944E2A4B015C018D
:10327000A985BA8550966D937D938D939C935397B2
:103280002D813E814F815885C701B6010E94FF28DC
:103290006B017C01E985FA85648B758B868B978B36
:1032A000808D918D019759F5A301920160E070E046
:1032B000CB010E949628A985BA851C966D937D93B3
:1032C0008D939C931F97A501940160E070E0CB0162
:1032D0000E949628E985FA85608B718B828B938B8F
:1032E000A701960160E070E0CB010E949628A985B5
:1032F000BA8554966D937D938D939C9357972A9698
:103300000FB6F894DEBF0FBECDBFDF91CF911F91F6
:103310000F91FF90EF90DF90CF90BF90AF909F9074
:103320008F907F906F905F904F9008951F920F92B3
:103330000FB60F9211240F900FBE0F901F9018958B
:10334000E0918906F0918A060190F081E02D82AD2E
:10335000811113C0DF01A457BF4F1D921D921D9212
:103360001C92139793978C91811109C060E070E0D3
:10337000CF018C599F4F0C94680F12AEEBCF08957C
:103380002F923F924F925F926F927F928F929F9275
:10339000AF92BF92CF92DF92EF92FF920F931F9363
:1033A000CF93DF93CDB7DEB72F970FB6F894DEBF7C
:1033B0000FBECDBFE0918906F0918A068081918190
:1033C0009F878E87DC01DA968C9181114CC0AE8587
:1033D000BF855E96ED91FC915F97C080D180E280C1
:1033E000F380FD01C6A2D7A2E0A6F1A65C96ED91FE
:1033F000FC915D9780819181A281B381EE85FF85EB
:1034000082A793A7A4A7B5A786A897A8A0ACB1AC9C
:10341000A5019401C701B6010E944A2AAE85BF8565
:103420001816D4F0D2968D909D90AD90BC90D59703
:10343000A5019401C701B6010E94FB2887FD05C0C4
:1034400081E0EE85FF8582AF0EC0EE85FF8586A206
:1034500097A2A0A6B1A6F4CF96968D929D92AD921A
:10346000BC929997EDCF8E859F850E94A401EE8531
:10347000FF8582AD882309F437C122D36D837E8313
:103480008F839887EE85FF8582A193A1A4A1B5A122
:103490004D815E816F817885481B590B6A0B7B0BD0
:1034A00086A597A5A0A9B1A9481759076A077B0760
:1034B00008F41AC1048CF58DE02D80819181A281E0
:1034C000B38189839A83AB83BC83AE85BF85909695
:1034D000ED91FC91919729813A814B815C816081CA
:1034E0007181828193810E9496284B015C01EE8557
:1034F000FF8522A533A544A555A569817A818B81D5
:103500009C810E9496286B017C01AE85BF855096F8
:103510002D913D914D915C915397C501B4010E944D
:103520004E2AEE85FF8526A137A140A551A50E9410
:1035300097282B013C01AE85BF8596966D937D93B0
:103540008D939C939997DB96BC91B987BB2309F423
:10355000B2C0EE85FF8546A057A060A471A416A94D
:1035600007A930AC21AC212F302F432D522DC301A0
:10357000B2010E944A2A18160CF492C0AE85BF858B
:10358000D2968D919D910D90BC91A02D8A879B879D
:10359000AC87BD879C01AD01C301B2010E94FB282D
:1035A00087FD79C0F985F11169C0812C912C5401F6
:1035B000AE85BF8554962D913D914D915C91579765
:1035C000C701B6010E944E2A9B01AC01EE85FF8522
:1035D00066A177A180A591A50E949628A5019401D6
:1035E0000E949728F62EE72ED82EC92E262F372F89
:1035F000482F592F612F702F832D922D0E94FB2869
:1036000087FD1BC0AE85BF85D2961C91D297D396FD
:103610000C91D397D4963C90D497D5962C90212F8B
:10362000302F432D522D6F2D7E2D8D2D9C2D0E94E0
:10363000FB2887FD02C087011601AE85BF855E9617
:10364000ED91FC915F97812F902FA32DB22D808358
:103650009183A283B38389819A81AB81BC81EE85FA
:10366000FF8582A793A7A4A7B5A78D819E81AF816F
:10367000B88582A393A3A4A3B5A336C0EE85FF8526
:103680002485358546855785C501B4010E944E2A9B
:103690004B015C018DCF8A859B85AC85BD8504C0BF
:1036A000812F902FA32DB22DEE85FF8586A397A3A2
:1036B000A0A7B1A777CFAE85BF851C962D913D9170
:1036C0004D915C911F97C701B6010E944E2A9B0144
:1036D000AC01C301B2010E949628EE85FF8566A366
:1036E00077A380A791A735CFEE85FF85E759FF4FD8
:1036F0008081811128C0EE85FF85E457FF4F6081EE
:103700007181828193810E946C298E859F858C595D
:103710009F4F2F960FB6F894DEBF0FBECDBFDF913F
:10372000CF911F910F91FF90EF90DF90CF90BF90BE
:10373000AF909F908F907F906F905F904F903F9051
:103740002F900C94680F2F960FB6F894DEBF0FBE23
:10375000CDBFDF91CF911F910F91FF90EF90DF9040
:10376000CF90BF90AF909F908F907F906F905F9021
:103770004F903F902F90089581E020913603309133
:1037800037032130310509F080E00895CF92DF92B0
:10379000EF92FF92CF93DF9382E10E94761101971F
:1037A00051F40E94690160935F07709360078093F2
:1037B0006107909362070E94690120915F07309131
:1037C000600740916107509162070E94962820E0AF
:1037D00030E040E450E40E944A2A87FF30C00E9453
:1037E0006901C0905B07D0905C07E0905D07F090A6
:1037F0005E07A70196010E94962820E030E0A9010B
:103800000E94FB2887FF17C0A701960160E070E0C7
:1038100080E89FE40E9496289B01AC0160E070E084
:10382000CB010E94962860935B0770935C0780939E
:103830005D0790935E07A0DF882309F48FC040D115
:10384000C0900307D0900407E0900507F0900607AA
:10385000C616D706E806F90658F581E090E0909381
:103860005B0380935A03109237031092360360E093
:103870008BE30E949E1164DD80916407811103C077
:1038800081E080936407E0918906F0918A060190B7
:10389000F081E02DE857FF4F20E030E0A901608182
:1038A0007181828193810E94FB28181664F107C000
:1038B00010925B0310925A0310926407E4CF82E0E7
:1038C00090E090935B0380935A033ADD8091630705
:1038D000811103C081E080936307E0918906F09134
:1038E0008A06C081D181FE01E857FF4F20E030E019
:1038F00048EC53E460817181828193810E944A2A5D
:10390000181644F428C010925B0310925A031092C8
:103910006307E3CF20E030E040E251E4FE01EB59E1
:10392000FF4F60817181828193810E944A2A18161B
:10393000ACF4C457DF4F20E030E0A9016881798101
:103940008A819B810E94FB28811108C015DF8111AB
:1039500005C082E001C081E00E942728DF91CF915D
:10396000FF90EF90DF90CF9008954F925F926F920B
:103970007F928F929F92AF92BF92CF92DF92EF92FF
:10398000FF920F931F93CF93DF93E0918906F091FD
:103990008A06C081D181812C912C88ECA82E82E4EA
:1039A000B82E8AAA9BAAACAABDAAC12C90EFD92E88
:1039B0009FE7E92E95E4F92ECEAADFAAE8AEF9AE8C
:1039C0008AAD882309F446C00E8D1F8DF801408012
:1039D000518062807380A7019601C301B2010E94E9
:1039E0004A2A18168CF120E030E048EC52E4C3017A
:1039F000B2010E94FB2887FD21C08EA09FA0A8A431
:103A0000B9A4CEA8DFA8E8ACF9ACA7019601C5011E
:103A1000B4010E944A2A181664F0CAA8DBA8ECA8D0
:103A2000FDA8A7019601C501B4010E94FB2887FFEC
:103A300011C0CEA2DFA2E8A6F9A60CC0F8018082D0
:103A40009182A282B382D9CFF801C082D182E28270
:103A5000F382D3CFDF91CF911F910F91FF90EF9021
:103A6000DF90CF90BF90AF909F908F907F906F909E
:103A70005F904F9008953FB7F89480916A079091B6
:103A80006B07A0916C07B0916D0726B5A89B05C088
:103A90002F3F19F00196A11DB11D3FBFBA2FA92FCD
:103AA000982F8827820F911DA11DB11DBC01CD014A
:103AB00042E0660F771F881F991F4A95D1F7089536
:103AC0002FB7F89460916607709167078091680737
:103AD000909169072FBF08951F920F920FB60F9212
:103AE00011242F933F938F939F93AF93BF93809114
:103AF000660790916707A0916807B09169073091B8
:103B0000650723E0230F2D3720F40196A11DB11D79
:103B100005C026E8230F0296A11DB11D209365075D
:103B20008093660790936707A0936807B09369072F
:103B300080916A0790916B07A0916C07B0916D0717
:103B40000196A11DB11D80936A0790936B07A09306
:103B50006C07B0936D07BF91AF919F918F913F918B
:103B60002F910F900FBE0F901F901895CF93DF935A
:103B7000CDB7DEB768970FB6F894DEBF0FBECDBFE6
:103B8000789484B5826084BD84B5816084BD85B538
:103B9000826085BD85B5816085BD80916E00816044
:103BA00080936E00109281008091810082608093EA
:103BB00081008091810081608093810080918000EC
:103BC0008160809380008091B10084608093B10017
:103BD0008091B00081608093B000809191008260FC
:103BE00080939100809191008160809391008091F9
:103BF00090008160809390008091A100826080930A
:103C0000A1008091A10081608093A1008091A0001B
:103C100081608093A00080912101826080932101C6
:103C20008091210181608093210180912001816038
:103C30008093200180917A00846080937A00809143
:103C40007A00826080937A0080917A00816080930C
:103C50007A0080917A00806880937A001092C10087
:103C600082E390E0909357038093560383E680931A
:103C70008B060E94CC1160E070E08BE896E00E9419
:103C8000680F60E086E30E94FC1161E089E00E9419
:103C9000FC1161E082E00E94FC1161E08AE00E9478
:103CA000FC1160E08AE00E949E1161E08BE00E94BE
:103CB000FC1160E08BE00E949E1161E08CE00E94AC
:103CC000FC1161E08CE00E949E1160E082E10E94A4
:103CD000FC1161E08BE30E94FC1161E08BE30E9428
:103CE0009E1161E088E00E94FC1140E251EA67E029
:103CF00070E08CED95E00E94B90F80919206909152
:103D000093069093900680938F060E94F61080EEA3
:103D100090E090939506809394068AE999E9A9E941
:103D2000BFE38093960690939706A0939806B0936E
:103D3000990680E5809308070E94CC11FF24F39434
:103D4000F092D8038CE78093F9031092020410924A
:103D500001046091080770E0660F771F89E796E01D
:103D60000E944C1480E00E94830E63E08CE70E9466
:103D7000FC0E109204048093030489E796E00E94ED
:103D800004148C0189E796E00E9404149A838983C5
:103D900089E796E00E9404141127F4E0000F111F38
:103DA000FA95E1F749815A815527A4E05595479541
:103DB000AA95E1F7040F151F29812F70422F50E0BB
:103DC000542F4427DA01A80FB11DBA83A9830A3002
:103DD000110559F066E472E08CED95E00E94221521
:103DE000A801110F660B770B11C0E981FA81E03150
:103DF000F540C1F065E672E08CED95E00E94221579
:103E000089819A81AC01990F660B770B20E18CEDCB
:103E100095E00E94371563E472E08CED95E00E9416
:103E2000221502C0F09209078091AF06823039F066
:103E3000833041F0813049F48FE395E008C082EA95
:103E400094E005C085E094E002C08CED95E090938D
:103E5000AB068093AA0640E052EC61E070E08091EE
:103E6000AA069091AB060E94B90F8091B0068230ED
:103E700078F08091040180668093040180910501AF
:103E80008F7B80930501809105018F7D80930501D3
:103E90008091AA069091AB06DC01ED91FC91028421
:103EA000F385E02D199597FFF3CF1092F30610924A
:103EB000F4061092FC061092FB061092FA0610927D
:103EC000F9061092F8061092F7060CEC12E0E8EEF4
:103ED000F3E0FA83E98389819A810E947401D80111
:103EE0008D939D938D01E981FA813496FA83E9835C
:103EF000E115F44081F70EEA12E01A8219828981F5
:103F00009A810E947401D8018D939D938D01E9815E
:103F1000FA813496FA83E983749789F702EC12E008
:103F200089819A810E947401D8018D939D938D019E
:103F3000E981FA813496FA83E983B89789F788E2B0
:103F400090E00E94740190932103809320038CE2FF
:103F500090E00E947401909323038093220380E3F6
:103F600090E00E94740190932F0380932E0384E3CA
:103F700090E00E947401909331038093300388E3B2
:103F800090E00E94740190935D0380935C038CE346
:103F900090E00E94740190935F0380935E0380E43D
:103FA00090E00E947401909361038093600384E425
:103FB00090E00E947401909333038093320388E46D
:103FC00090E00E94740190937F0380937E038CE4C1
:103FD00090E00E947401909381038093800380E5B8
:103FE00090E00E947401909335038093340302E6BD
:103FF00013E024E530E03A83298389819A810E9485
:104000007401D8018D939D938D01E981FA813496D5
:10401000FA83E983E836F10581F788EC90E00E94A5
:10402000BD2A988F8F8B4C01BEE68B0E911CF4013C
:10403000808191812F89388D28553F4F3E832D8374
:10404000D901CD90DD90ED90FC90EF89F88DEC5585
:10405000FF4FFC8BEB8B40805180628073802F89F7
:10406000388D20563F4F3E8B2D8BD9012D913D91A0
:104070004D915C9129833A834B835C832F88388CE4
:10408000BCE82B0E311CEF89F88D378E268E9F01F0
:1040900028573F4F358F248F245C3F4F31A320A3F7
:1040A00012AE12AA13AA14AA15AA40E050E06FE7B4
:1040B00073E446AB57AB60AF71AF44E650E060E0ED
:1040C00070E046A757A760AB71AB918F808F20E05F
:1040D00030E0A90169817A818B819C810E94FB2853
:1040E00087FD1EC020E030E0A901C301B2010E949B
:1040F000FB2887FD15C020E030E0A901C701B6010B
:104100000E94FB2887FD0CC0AA24A394B12C930124
:10411000820149815A816B817C818F89988D4BD82E
:10412000CFDCEF89F88D06A517A520A931A9DC0100
:10413000CB01801B910BA20BB30B82A393A3A4A36F
:10414000B5A382E391E1A0E8BBE384AF95AFA6AF4E
:10415000B7AF8FE795E0ABE1B5EBE05CFF4F808355
:104160009183A283B3834F88588CF6E44F0E511C81
:1041700088E4D2018C9314961C921E92139798E0B7
:1041800011969C93119712961C92EF89F88DE05A24
:10419000FF4F1082118212821382EF89F88DEC5B3F
:1041A000FF4F8083EF89F88DEB5BFF4FFA83E98344
:1041B00082E6808380918B06EF89F88DEC59FF4F62
:1041C0008083EF89F88DEB59FF4F108211821282A4
:1041D00013822F89388D27593F4F3A8B298BD9016C
:1041E0001C92F40111821082EF89F88DE059FF4F83
:1041F00010821182128213828CE291E0A0E0B0E082
:10420000EF89F88DE858FF4F80839183A283B383B1
:1042100080E090EFAFE7B5E48F88988CFCE78F0ED5
:10422000911CF40180839183A283B383EF89F88D7D
:10423000E857FF4F1082118212821382D1011D9222
:104240001D921D921C92139780E090E0A0E8BEE3BF
:10425000EF89F88DEC56FF4F80839183A283B3835F
:1042600080E090E0AAEFB3E4EF89F88DE856FF4FC5
:1042700080839183A283B383EF89F88DE456FF4F47
:104280001082118212821382ED89FE8910821182BE
:1042900012821382AB89BC891D921D921D921C92C1
:1042A0001397ED81FE81108211821282138280E0C9
:1042B00090E0A0E8BFE3EF89F88DE455FF4F8083DD
:1042C0009183A283B383EF89F88DE055FF4F10826D
:1042D0001182128213828AE097EDA3E2BCE3EF8998
:1042E000F88DEC54FF4F80839183A283B38384EADB
:1042F00090E7ADE7BFE3EF89F88DE854FF4F808387
:104300009183A283B3832F88388CFCEB2F0E311C52
:1043100080E090E0A8ECB4E4F10180839183A28373
:10432000B3832F89388D20543F4F3E832D8380E007
:1043300090E0AAE7B4E4F90180839183A283B38378
:10434000EF89F88DEC53FF4F108211821282138295
:10435000AF89B88D5A96AD90BC905B97C12CD12C8B
:10436000760197018601B701A601CD010E94DB18F5
:10437000F401C080D180E280F38020E030E0A90128
:10438000C701B60138D718160CF05AC0AF89B88DDE
:10439000D2961D921D921D921C92D597FD01C6AA20
:1043A000D7AAE0AEF1AE82AD882309F449C0668C8D
:1043B000778CD3018D909D90AD90BC90A501940118
:1043C000C701B60118D787FF06C0F301C082D182AA
:1043D000E282F3820EC020E030E0A901C501B40101
:1043E0000AD787FF06C0D3011D921D921D921C9211
:1043F0001397EF89F88D86A097A0A0A4B1A4C6A8B2
:10440000D7A8E0ACF1ACA7019601C501B4010E94A8
:104410004A2A18166CF0EF89F88DC2A8D3A8E4A830
:10442000F5A8A7019601C501B401E5D687FF08C02C
:10443000AF89B88D9696CD92DD92ED92FC929997C8
:10444000EF89F88D66A577A580A991A971D79B0101
:10445000AC0160E070E080EA90E4D1D66B017C01B1
:104460009B01AC01AF89B88D50966D917D918D9176
:104470009C9153970E944E2AEF89F88D608B718B27
:10448000828B938BA70196016489758986899789A8
:10449000B6D6AF89B88D54966D937D938D939C93CA
:1044A000579785E090E0A0E0B0E0EF89F88D86A70F
:1044B00097A7A0ABB1AB0E94CC11EF89F88DE55B5B
:1044C000FF4FA981BA818C9180830E94CC11F201A7
:1044D000148213826FEF7FE08F89988D855B9F4FE9
:1044E0000E94680F2F89388D245B3F4FF101808136
:1044F0009181A281B381F90180839183A283B383E7
:104500002F89388D205B3F4FED81FE818081918125
:10451000A281B381F90180839183A283B3832F8920
:10452000388D3093850320938403A989BA891C921E
:1045300080918706909188062091850630918606A5
:104540008217930721F57C01EE0CFF1C892B11F0DB
:10455000C70102C081E090E09093880680938706AF
:10456000880F991F0E94BD2A9A838983009189062A
:1045700010918A06A701B8010E94E22BC8010E948F
:10458000552BE981FA81F0938A06E0938906E09140
:104590008906F0918A0680918506909186069C0195
:1045A0002F5F3F4F3093860620938506209184032A
:1045B00030918503880F991FE80FF91F31832083FD
:1045C000E0918906F0918A06208131813E832D8316
:1045D000F901E659FF4F118210826091D00270916B
:1045E000D10280E090E0A4D620E030E048EC52E434
:1045F00006D66B017C016091CE027091CF0280E003
:1046000090E096D620E030E048EC52E4F8D569839B
:104610007A838B839C836091CC027091CD0280E081
:1046200090E086D620E030E048EC52E4E8D52B015B
:104630003C01ED81FE81E056FF4F608371838283F0
:104640009383ED81FE81EC55FF4F89819A81AB8187
:10465000BC8180839183A283B383ED81FE81E85581
:10466000FF4FC082D182E282F382AD81BE815A9631
:10467000AD90BC905B9720E030E0A901C301B2018E
:10468000BAD587FD1CC020E030E0A90169817A819C
:104690008B819C81B0D587FD12C020E030E0A9015C
:1046A000C701B601A8D587FD0AC009811A812B81EF
:1046B0003C81B301A2018D819E810E94DB18E091B3
:1046C0008906F0918A06208131813A832983890104
:1046D00004551F4F6091D2027091D30280E090E0A8
:1046E00027D620E030E04AE754E489D5D8016D931D
:1046F0007D938D939C93139709811A8100551F4FC9
:104700006091D4027091D50280E090E011D620E053
:1047100030E048EC52E473D5F80160837183828302
:1047200093836091D6027091D70280E090E000D62A
:10473000E981FA81E454FF4F60837183828393831C
:10474000E981FA81E45BFF4F608371838283938305
:1047500029813A8120583F4F3A832983609134035D
:104760007091350380E090E0E3D520E030E040E256
:1047700051E445D5A981BA816D937D938D939C9326
:10478000139761E088E00E949E110E94BC1B882361
:1047900009F42BC38091860390918703009709F059
:1047A00064C010923903109238030E947C03609118
:1047B00020037091210380E090E0BAD520E030E042
:1047C00040E251E41CD5AB01BC01E0918906F091B7
:1047D0008A06808191810E943C03C7D80E94C0193B
:1047E0000E94C61B0E94690160939003709391031D
:1047F0008093920390939303E0918906F0918A0647
:104800000190F081E02DE857FF4F80819181A281D6
:10481000B38180938C0390938D03A0938E03B09308
:104820008F030E946901C0908803D0908903E090B3
:104830008A03F0908B03A701960178D44B015C01A9
:1048400060912E0370912F0380E090E071D520E0FD
:1048500030E040E251E4D3D49B01AC01C501B40186
:1048600019D618160CF4FFC22FC090933903809309
:1048700038030E947C030E9469018090900390900D
:104880009103A0909203B0909303A50194014ED49C
:104890006B017C016091C2027091C30280E090E0E4
:1048A00047D520E030E040E251E4A9D4162F072F8D
:1048B000382E292E20E030E0A901C701B601EAD543
:1048C00018160CF46FC121C00E946901A70196015E
:1048D0002DD420E030E0A9018ED487FF82C2A70149
:1048E000960160E070E080E89FE420D49B01AC0179
:1048F00060E070E0CB011AD4609388037093890361
:1049000080938A0390938B036CC26091C402709170
:10491000C50280E090E00CD520E030E040E251E4B8
:104920006ED4562E472E89839D83262F372FAC01B8
:10493000612F702F832D922DFAD3698B7B8B782E6C
:10494000692E212F302F432D522DC701B601A2D53C
:1049500018160CF4F6C06091C6027091C70280E090
:1049600090E0E6D420E030E040E251E448D4562E16
:10497000472E89839D83262F372FAC0169897B8938
:10498000872D962DD4D3162F072F382E292E29891F
:104990003B89472D562DC701B6017CD518160CF45E
:1049A0009BC06091C8027091C90280E090E0C0D4C1
:1049B00020E030E040E251E422D4562E472E898395
:1049C0009D83262F372FAC01612F702F832D922DC1
:1049D000AED3762E7B8B898B692E212F302F432DE2
:1049E000522DC701B60156D518160CF444C0272D18
:1049F0003B894989562DC701B6014CD518160CF0D4
:104A000004C16091B6027091B70280E090E090D44A
:104A100020E030E040E251E4F2D36F837887898769
:104A20009A876091B4027091B50280E090E080D4E2
:104A300020E030E040E251E4E2D36B877C878D8751
:104A40009E87E0916A03F0916B03F88BEF8760918A
:104A5000CA027091CB0280E090E06AD420E030E09E
:104A600040E251E4CCD3562E472E89839D83172DE7
:104A70000B89398864C0272D3B894989562DC70188
:104A8000B601B9D318160CF4B2CF6091B40270918C
:104A9000B50280E090E04CD420E030E040E251E408
:104AA000AED36F83788789879A876091B2027091BD
:104AB000B30280E090E03CD420E030E040E251E4FA
:104AC0009ED36B877C878D879E872091680330916A
:104AD0006903388B2F8799C0212F302F432D522DFA
:104AE000C701B60188D318160CF45BCF6091B202EF
:104AF0007091B30280E090E01BD420E030E040E20F
:104B000051E47DD36F83788789879A876091B0025B
:104B10007091B10280E090E00BD420E030E040E200
:104B200051E46DD36B877C878D879E8740916603A8
:104B300050916703588B4F8719890B89372C262C86
:104B400064C029893B89472D562DC701B60153D32F
:104B500018160CF400CF6091B0027091B10280E0A1
:104B600090E0E6D320E030E040E251E448D36F83A8
:104B7000788789879A876091AE027091AF0280E052
:104B800090E0D6D320E030E040E251E438D36B87A8
:104B90007C878D879E878091640390916503988BB5
:104BA0008F8733C0212F302F432D522DC701B601DF
:104BB00022D318160CF4A9CE6091AE027091AF0208
:104BC00080E090E0B5D320E030E040E251E417D33C
:104BD0006F83788789879A8720918C0330918D0322
:104BE00040918E0350918F032B873C874D875E87C2
:104BF0004091620350916303588B4F87280139829B
:104C00002D8210E000E0312C212C8F8598890197AE
:104C100049F0E0918906F0918A064F8158856985AF
:104C20007A8527C02B853C854D855E856F8178858B
:104C300089859A857BD2252D342D49815D81DFD2EE
:104C40002B013C01212F302F432D522DC701B601DE
:104C50006DD29B01AC01C301B20120D42B853C85F0
:104C60004D855E8564D2AB01BC01E0918906F0916F
:104C70008A06808191810E943C03E0918906F0912F
:104C80008A060190F081E02DEC53FF4F20E030E0E8
:104C900040E251E46081718182819381FFD31CD312
:104CA00070932103609320030E94B51C0E94C019D9
:104CB0000E94C61B0E946901609388037093890358
:104CC00080938A0390938B036091C2027091C30218
:104CD00080E090E02DD320E030E040E251E48FD23C
:104CE0006B017C016091C4027091C50280E090E08C
:104CF0001FD320E030E040E251E481D29B01AC01BF
:104D0000C701B60114D26B017C016091C60270919B
:104D1000C70280E090E00CD320E030E040E251E4B4
:104D20006ED29B01AC01C701B60101D26B017C01BF
:104D30006091C8027091C90280E090E0F9D220E051
:104D400030E040E251E45BD29B01AC01C701B60107
:104D5000EED16B017C016091CA027091CB0280E0C0
:104D600090E0E6D220E030E040E251E448D29B01FE
:104D7000AC01C701B601DBD1AAD22B013C010E94D4
:104D80006901A5019401D2D16B017C01C301B2017B
:104D9000D1D29B01AC01C701B6017CD318160CF42B
:104DA00062C00E946901A5019401C0D120E030E0F9
:104DB000A90121D287FF15C0A501940160E070E030
:104DC00080E89FE4B3D19B01AC0160E070E0CB01CF
:104DD000ADD160939003709391038093920390936D
:104DE00093030E94BC1B811137C00E947C030E9468
:104DF000A0190E94C61B80913803909139039093AB
:104E00008703809386030E946901609388037093EF
:104E1000890380938A0390938B030E9469016093B6
:104E20009003709391038093920390939303E09186
:104E30008906F0918A060190F081E02DE857FF4F36
:104E400080819181A281B38180938C0390938D03A3
:104E5000A0938E03B0938F0360E088E00E949E11C0
:104E60000E9497138ECC1092370310923603B9CF5D
:104E70001F93CF93DF93E5E0F4E01382128288EE74
:104E800093E0A0E0B0E084839583A683B78320E21B
:104E900032E03183208345E351E05587448744E382
:104EA00051E05787468740E351E0518B408B41E307
:104EB00051E0538B428B42E351E0558B448B46E3E8
:104EC00051E0578B468B118E128E138E148EE2EAB0
:104ED000F4E01382128284839583A683B78331839F
:104EE000208345ED50E05587448744ED50E05787D7
:104EF000468740ED50E0518B408B41ED50E0538BA5
:104F0000428B42ED50E0558B448B46ED50E0578B81
:104F1000468B118E128E138E148EEFE3F5E0138202
:104F2000128284839583A683B783318320834DECDB
:104F300050E0558744874CEC50E05787468748EC53
:104F400050E0518B408B49EC50E0538B428B4AEC44
:104F500050E0558B448B4EEC50E0578B468B118EB6
:104F6000128E138E148EECEDF5E013821282848380
:104F70009583A683B7833183208325EC30E0358782
:104F8000248724EC30E03787268720EC30E0318B13
:104F9000208B21EC30E0338B228B22EC30E0358B00
:104FA000248B26EC30E0378B268B118E128E138EDD
:104FB000148EE9E7F6E01382128284839583A68338
:104FC000B78382E392E09183808310920907EAEA33
:104FD000F6E081E0848383E0858312E0168388EE27
:104FE00093E09093FE068093FD06EAE0F7E01482DA
:104FF00013828AE4808388E08183128285E0ACE8B2
:10500000B6E001900D928A95E1F7CCE8D6E080E019
:1050100090E0AAE7B3E48A8B9B8BAC8BBD8B0E949C
:10502000CC111D831F821E820E94F610E5E8F6E077
:10503000118210821382128215821482DF91CF9125
:105040001F9108958091890690918A062EC3C82FDA
:105050000E94A0198C2F90E09093590380935803DD
:1050600061E08AE00E949E1161E08BE00E949E1147
:1050700060E08CE00E949E110E947C03FDCF052E13
:1050800097FB16F400940FD057FD05D01ED007FCF7
:1050900002D046F408C050954095309521953F4F79
:1050A0004F4F5F4F089590958095709561957F4F14
:1050B0008F4F9F4F08952BD0A59F900DB49F900DBB
:1050C000A49F800D911D11240895A1E21A2EAA1B00
:1050D000BB1BFD010DC0AA1FBB1FEE1FFF1FA217A8
:1050E000B307E407F50720F0A21BB30BE40BF50BA5
:1050F000661F771F881F991F1A9469F7609570952E
:10510000809590959B01AC01BD01CF010895A29FB0
:10511000B001B39FC001A39F700D811D1124911D8B
:10512000B29F700D811D1124911D08955058BB2709
:10513000AA270ED075C166D130F06BD120F031F4C2
:105140009F3F11F41EF45BC10EF4E095E7FB51C1E3
:10515000E92F77D180F3BA176207730784079507A1
:1051600018F071F49EF58FC10EF4E0950B2EBA2F56
:10517000A02D0B01B90190010C01CA01A00111245D
:10518000FF27591B99F0593F50F4503E68F11A1609
:10519000F040A22F232F342F4427585FF3CF46959A
:1051A00037952795A795F0405395C9F77EF41F16BC
:1051B000BA0B620B730B840BBAF09150A1F0FF0F86
:1051C000BB1F661F771F881FC2F70EC0BA0F621F72
:1051D000731F841F48F4879577956795B795F79562
:1051E0009E3F08F0B3CF9395880F08F09927EE0FF4
:1051F000979587950895D9D008F481E008950CD04B
:105200000FC107D140F0FED030F021F45F3F19F01C
:10521000F0C0511139C1F3C014D198F39923C9F3E7
:105220005523B1F3951B550BBB27AA2762177307AC
:10523000840738F09F5F5F4F220F331F441FAA1F60
:10524000A9F333D00E2E3AF0E0E830D09150504020
:10525000E695001CCAF729D0FE2F27D0660F771FCE
:10526000881FBB1F261737074807AB07B0E809F0B0
:10527000BB0B802DBF01FF2793585F4F2AF09E3F45
:10528000510568F0B6C000C15F3FECF3983EDCF317
:10529000869577956795B795F7959F5FC9F7880FBE
:1052A000911D9695879597F90895E1E0660F771F10
:1052B000881FBB1F621773078407BA0720F0621BA1
:1052C000730B840BBA0BEE1F88F7E095089504D09A
:1052D0006894B111D9C00895BCD088F09F5790F060
:1052E000B92F9927B751A0F0D1F0660F771F881F0B
:1052F000991F1AF0BA95C9F712C0B13081F0C3D026
:10530000B1E00895C0C0672F782F8827B85F39F0C3
:10531000B93FCCF3869577956795B395D9F73EF469
:1053200090958095709561957F4F8F4F9F4F089511
:10533000E89409C097FB3EF490958095709561952F
:105340007F4F8F4F9F4F9923A9F0F92F96E9BB27E5
:105350009395F695879577956795B795F111F8CF61
:10536000FAF4BB0F11F460FF1BC06F5F7F4F8F4FCC
:105370009F4F16C0882311F096E911C0772321F0C2
:105380009EE8872F762F05C0662371F096E8862F5A
:1053900070E060E02AF09A95660F771F881FDAF7B1
:1053A000880F9695879597F90895990F0008550FDE
:1053B000AA0BE0E8FEEF16161706E807F907C0F09B
:1053C00012161306E407F50798F0621B730B840BA3
:1053D000950B39F40A2661F0232B242B252B21F47D
:1053E00008950A2609F4A140A6958FEF811D811D1D
:1053F000089597F99F6780E870E060E008959FEF57
:1054000080EC089500240A9416161706180609065B
:10541000089500240A94121613061406050608952A
:10542000092E0394000C11F4882352F0BB0F40F4B2
:10543000BF2B11F460FF04C06F5F7F4F8F4F9F4FF2
:10544000089557FD9058440F551F59F05F3F71F074
:105450004795880F97FB991F61F09F3F79F08795DB
:105460000895121613061406551FF2CF4695F1DF64
:1054700008C0161617061806991FF1CF86957105F4
:10548000610508940895E894BB2766277727CB0128
:1054900097F908958ADF08F48FEF08950BD0C0CFF5
:1054A000B1DF28F0B6DF18F0952309F0A2CFA7CF1F
:1054B0001124EACFC6DFA0F3959FD1F3950F50E0FA
:1054C000551F629FF001729FBB27F00DB11D639FB6
:1054D000AA27F00DB11DAA1F649F6627B00DA11D5C
:1054E000661F829F2227B00DA11D621F739FB00D02
:1054F000A11D621F839FA00D611D221F749F332772
:10550000A00D611D231F849F600D211D822F762F0A
:105510006A2F11249F5750408AF0E1F088234AF007
:10552000EE0FFF1FBB1F661F771F881F9150504053
:10553000A9F79E3F510570F05CCFA6CF5F3FECF31B
:10554000983EDCF3869577956795B795F795E7953F
:105550009F5FC1F7FE2B880F911D9695879597F950
:10556000089523DF880B990B0895EE0FFF1F881F06
:105570008BBF0790F691E02D19940F931F93CF9353
:10558000DF938230910510F482E090E0E0917007A3
:10559000F091710720E030E0A0E0B0E0309719F121
:1055A000408151810281138148175907C8F084173F
:1055B000950769F4109731F012960C931297139691
:1055C0001C9327C0009370071093710722C0211508
:1055D000310519F04217530718F49A01BD01EF0184
:1055E000DF01F801DBCF21153105F9F0281B390B5C
:1055F0002430310580F48A819B816115710521F089
:10560000FB019383828304C090937107809370079A
:10561000FE01329644C0FE01E20FF31F8193919385
:1056200022503109398328833AC020916E07309186
:105630006F07232B41F42091030230910402309331
:105640006F0720936E07209101023091020221150D
:10565000310541F42DB73EB7409105025091060245
:10566000241B350BE0916E07F0916F07E217F307EB
:10567000A0F42E1B3F0B2817390778F0AC014E5FC2
:105680005F4F2417350748F04E0F5F1F50936F0789
:1056900040936E078193919302C0E0E0F0E0CF0168
:1056A000DF91CF911F910F910895CF93DF930097D2
:1056B00009F481C0FC01329713821282A091700715
:1056C000B0917107109781F420813181820F931F6F
:1056D00020916E0730916F072817390751F5F09325
:1056E0006F07E0936E0767C0ED0120E030E0CE1752
:1056F000DF0740F44A815B819E0141155105F1F0BD
:10570000EA01F5CFD383C28340815181840F951F75
:10571000C817D90759F488819981840F951F02967B
:10572000918380838A819B819383828321153105B4
:1057300029F4F0937107E09370073DC0E901FB8302
:10574000EA8349915991C40FD51FEC17FD0761F405
:1057500080819181840F951F0296E9019983888346
:10576000828193819B838A83E0E0F0E012968D91A1
:105770009C911397009719F0FD01DC01F7CF8D91F3
:105780009C9111979D012E5F3F4F820F931F209197
:105790006E0730916F072817390769F4309729F49D
:1057A000109271071092700702C013821282B09398
:1057B0006F07A0936E07DF91CF91089581E090E08D
:1057C000F89409C0FB01DC0102C001900D92415028
:1057D0005040D8F7089511E0C6E3D1E000E005C0DD
:1057E000802FFE01C2DE2196011DC733D10780E064
:0857F0000807B1F7F894FFCFA0
:1057F800FF0000720780000102030405060F100075
:1058080000C84200007A4400000020410000000067
:105818002A137D12A7127613D812B612CA120000E4
:1058280000004C1420147B14F41318140414F513FA
:105838002C20000D0A00556E6578706563746564E8
:10584800204D616E75666163747572657220494496
:105858003A20307800556E65787065637465642009
:1058680050726F647563742049443A203078006E32
:0C587800616E00696E66006F76660000CD
:00000001FF
