:1000000036C1000065C1000063C1000061C100008D
:100010005FC100005DC100005BC1000059C100006C
:1000200057C100000C949E190C949E190C949E19B3
:100030004FC100000C94CB144BC1000049C100001B
:1000400047C1000045C1000043C1000041C100009C
:100050003FC100003DC100003BC100000C947C1C6E
:1000600037C100000C9489170C94601731C100004F
:100070002FC100002DC100002BC1000029C10000CC
:1000800027C1000025C1000023C1000021C10000DC
:100090000C9437170C940E171BC100000C94B21768
:1000A00017C1000015C1000013C1000011C10000FC
:1000B0000FC100000DC100000BC1000009C100000C
:1000C00007C1000005C1000003C100000C94E51643
:1000D0000C94BC16FDC000000C9493160C946A1688
:1000E000F7C00000AB04AB04C406C406A606B806FD
:1000F000D806D806D806D806D806D806D806D80610
:10010000AB04C406DD04DD043C073C077207B107FD
:100110001B051B051B051B051B051B051B051B05DF
:10012000C00711084C0E4F0E3E0E420E480E860EB2
:10013000530E570E5D0E610E650E6B0E6F0E730E35
:10014000860E790E7D0E810E00002100240027000E
:100150002A002D00300033000101000004010701D6
:100160000A0100002200250028002B002E0031008B
:10017000340002010000050108010B01000020000D
:100180002300260029002C002F003200000100006F
:10019000030106010901050505050705080808080A
:1001A000020202020A0A080804040404010101010F
:1001B000010101010303030303030303040707070A
:1001C0000C0C0C0C0C0C0C0C0202020206060606AF
:1001D000060606060B0B0B0B0B0B0B0B010210207C
:1001E000200808102040102040800201020108046D
:1001F0000201010204081020408080402010080401
:100200000201800402018040201008040201080459
:10021000020101020408102040800102040810209D
:10022000408000000A0B02090C0D0E0807030401B0
:1002300000000000000000000000000000000000BE
:10024000000000000000000000000000000012118B
:10025000100000000000000000000000000000008E
:1002600000000000000000000200E725D126112454
:100270001FBECFEFD1E2DEBFCDBF00E00CBF12E06A
:10028000A0E0B2E0E6E2F5E500E00BBF02C00790B7
:100290000D92AC38B107D9F727E0ACE8B2E001C065
:1002A0001D92A636B207E1F711E0C6E3D1E000E007
:1002B00006C021970109802FFE010E944C29C533F9
:1002C000D10780E00807A9F70E94C61C0C94822A77
:1002D00097CE0E944B1C0E942F2820E034E244E776
:1002E00059E40C94962708951F93CF93DF93EC0164
:1002F0000E943E11182FCE0101960E943E1190E0FF
:10030000982F8827810F911DDF91CF911F9108951C
:100310000F931F93CF93DF938C01EB01CB01E4DFAD
:100320008017910759F0602FCE010E94A30F612F13
:10033000CE0101960E94A30F81E001C080E0DF9111
:10034000CF911F910F9108952F923F924F925F92FC
:100350006F927F928F929F92AF92BF92CF92DF92D5
:10036000EF92FF920F931F93CF93DF9300D01F92D2
:10037000CDB7DEB79C838B83FC01E759FF4F8081AB
:100380000B811C8108571F4F882309F465C00E9408
:10039000701C6B017C01F80180809180A280B38089
:1003A0002DEC3CEC4CE45DE3EB81FC81E457FF4F2A
:1003B00060817181828193810E94E5282B013C013B
:1003C00020E030E040EB51E4C501B4010E942D274C
:1003D000EB81FC81EC56FF4F2081318142815381BA
:1003E0000E94E5289B01AC01C301B2010E942D27A8
:1003F000EB81FC81E856FF4F20813181428153819E
:100400000E9496272B013C012B803C80FCE92F0E9B
:10041000311CF10180819181B601681B790B072E97
:10042000000C880B990B0E9431289B01AC01C30181
:10043000B2010E94E528A50194010E942E27F8012F
:1004400060837183828393830E94701CF1016083B7
:100450007183828393838BC0EB80FC80F6E4EF0E84
:10046000F11CF70163817481636E716880810E9461
:10047000E90E80EB94E00E944012F70180810E9417
:10048000460FF7012281022E02C0969587950A94A5
:10049000E2F7222329F08115F8E09F0708F0906F1A
:1004A000CB80DC8024E5C20ED11CF60191838083D1
:1004B000F70163817481636E716B80810E94E90E24
:1004C00080EB94E00E944012F70180810E94460F69
:1004D000F7012281022E02C0969587950A94E2F7D1
:1004E000222329F08115F8E09F0708F0906FEB8137
:1004F000FC81EA5AFF4F91838083BC01990F880BDE
:10050000990B0E9431284B015C01F60160817181D9
:10051000072E000C880B990B0E9431289B01AC011F
:10052000C501B4010E949627EB81FC81E45BFF4F7B
:1005300020813181428153810E94E528EB81FC8139
:10054000E455FF4F20813181428153810E94E5288B
:10055000EB81FC81E055FF4F208131814281538145
:100560000E942D27F80160837183828393830E9408
:10057000701CEB81FC81EC58FF4F60837183828398
:1005800093832B803C80F0E72F0E311CF101C0805B
:10059000D180E280F3809B01AC012C193D094E090A
:1005A0005F0969017A01EB81FC81E858FF4F808186
:1005B0009181A281B38182179307A407B50708F040
:1005C0003FC0F80180809180A280B3802B813C8164
:1005D0002B593F4F3A8329834B815C814C575F4FA6
:1005E0005C834B83FA012081318142815381C501B3
:1005F000B4010E942D272B013C01C701B6010E94C6
:100600002F2820E030E04AE754E40E9496279B011F
:10061000AC01C301B2010E949627E981FA8160838F
:10062000718382839383EB81FC8180829182A28299
:10063000B3820E94701CF101608371838283938373
:10064000F80160817181828193810F900F900F90EA
:100650000F90DF91CF911F910F91FF90EF90DF905E
:10066000CF90BF90AF909F908F907F906F905F9052
:100670004F903F902F9008958F929F92AF92BF928C
:10068000CF92DF92EF92FF92CF93DF93EC016A015A
:100690007B01FC01E058FF4F80809180A280B380F5
:1006A0009A01AB01C501B4010E949227CC53DF4FE0
:1006B00087FF05C088829982AA82BB8212C020E08F
:1006C00030E0A901C701B6010E94922787FF05C04B
:1006D000188219821A821B8204C0C882D982EA82D7
:1006E000FB82DF91CF91FF90EF90DF90CF90BF9092
:1006F000AF909F908F9008954F925F926F927F92EC
:100700008F929F92AF92BF92CF92DF92EF92FF9221
:100710000F931F93CF93DF93CDB7DEB72A970FB612
:10072000F894DEBF0FBECDBF8EEA92E09093F00644
:100730008093EF068BE6809301078091A9068430B1
:1007400028F48091A4069091A50604C08091A60685
:100750009091A706DC01ED91FC910084F185E02DDC
:100760001995882309F482C49091EE06891791F0B7
:100770008093EE060E94701CDC01CB010596A11D42
:10078000B11D8093F9069093FA06A093FB06B093EF
:10079000FC066CC40E94701C0091F9061091FA06C8
:1007A0002091FB063091FC066017710782079307C2
:1007B00008F45CC41092EE068091AA06823050F0D4
:1007C000809105018F7B80930501809105018F7DCC
:1007D000809305011092ED068091A90610E0843007
:1007E00008F04BC08091A4069091A506DC01ED9124
:1007F000FC910084F185E02D1995892B09F44AC0FC
:10080000B091ED06EB2FF0E0FA83E9838091A40626
:100810009091A506DC01ED91FC910284F385E02D19
:100820001995E981FA81EC55F94F81878091ED06A0
:100830008F5F8093ED068034A8F211E0D3CFB091A2
:10084000ED06EB2FF0E0FA83E9838091A606909104
:10085000A706DC01ED91FC910284F385E02D19954A
:10086000E981FA81EC55F94F81878091ED068F5F20
:100870008093ED06803408F011E08091A6069091F7
:10088000A706DC01ED91FC910084F185E02D19951E
:10089000892BA9F68091F1069091F206019690932A
:1008A000F2068093F106112361F08091F506909194
:1008B000F60601969093F6068093F506FDEFF98310
:1008C00003C02091ED06298339813093AC0637307F
:1008D0000CF4ADC09091AD068091A8069813C6C3E4
:1008E0008091ED06A82FB0E0BA83A98382500E94C0
:1008F0002410E981FA81EC55F94F278130E0322F3D
:1009000022274085242B2817390761F08091F506AE
:100910009091F60601969093F6068093F506BFEF48
:10092000B98347C04091AE06E7E0F2E08FE092E085
:100930002191241709F4FDC18E179F07C9F78091F3
:10094000F5069091F60601969093F6068093F506CB
:10095000A1E00C94A90D8091AF069091B006982764
:10096000892798279C0184E0369527958A95E1F799
:100970008091B1069091B20698278927982754E074
:10098000969587955A95E1F7820F931F90910107ED
:10099000981708F00DC232E0398380E8840F809305
:1009A000AE06B981B093AF0683E08093ED060E9456
:1009B0004010E981E093AC063AC02091AF06309137
:1009C000B0063227232732274091B1065091B20654
:1009D000542745275427FA0113E0F695E7951A9511
:1009E000E1F78E2FBA01677077276115710511F055
:1009F00081E08E0F8093AF0683E08093ED06420F77
:100A0000531F90E0812C912C54018394421753077B
:100A100009F0F4C18093ED06672B19F08F5F809386
:100A2000ED06F091ED06FE5FF9830E9440103981DA
:100A300035300CF41BC361E08BE30E94A61180915A
:100A4000820390918303019709F07FC08091900207
:100A500090919102A0919202B091930289839A831E
:100A6000AB83BC8336DC2B013C01E0918306F09123
:100A70008406A081B181BE83AD83FD01E457FF4FA1
:100A8000A458BF4F2D913D914D915C916081718132
:100A9000828193810E94962720E030E048EC52E466
:100AA0000E94E5286B017C01ED81FE81E857FF4F34
:100AB00080809180A280B380ED81FE81EC53FF4F56
:100AC000408151816281738122E086ED95E00E9430
:100AD000871560E472E086ED95E00E942A1522E019
:100AE000B501A40186ED95E00E94871560E472E0EF
:100AF00086ED95E00E942A1522E0B701A60186ED59
:100B000095E00E94871560E472E086ED95E00E9412
:100B10002A1526E0B301A20186ED95E00E94871513
:100B200060E472E086ED95E00E942A1522E049819A
:100B30005A816B817C8186ED95E00E94871563E484
:100B400072E086ED95E00E942A15C3DBC0908C020E
:100B5000D0908D02E0908E02F0908F02A701960156
:100B60000E942D274B015C01609132037091330389
:100B700080E090E00E942F2820E030E040E251E445
:100B80000E9496279B01AC01C501B4010E94E12897
:100B900087FD17C09EDB60938C0270938D0280935B
:100BA0008E0290938F0280913603909137030197C4
:100BB00009F45EC20CEC12E028EE33E03A8329839C
:100BC00024C087DBA70196010E942D2720E030E09A
:100BD000A9010E94922787FF4BC2A701960160E0FE
:100BE00070E080E89FE40E942D279B01AC0160E04B
:100BF00070E0CB010E942D2760938C0270938D02D0
:100C000080938E0290938F0233C269817A81D801DA
:100C10008D919D918D017CDBE981FA813496FA8377
:100C2000E983E115F44089F70EEA12E01A8219828D
:100C300069817A81D8018D919D918D0169DBE9816E
:100C4000FA813496FA83E983749791F702EC12E003
:100C500069817A81D8018D919D918D0159DBE9815E
:100C6000FA813496FA83E983B89791F768E270E0E5
:100C700080912003909121034BDB6CE270E0809126
:100C800022039091230344DB60E370E080912E0304
:100C900090912F033DDB64E370E0809130039091ED
:100CA000310336DB68E370E080915C0390915D0373
:100CB0002FDB6CE370E080915E0390915F0328DB93
:100CC00060E470E0809160039091610321DB64E453
:100CD00070E080913203909133031ADB68E470E096
:100CE00080917E0390917F0313DB6CE470E0809130
:100CF0008003909181030CDB60E570E08091340308
:100D00009091350305DB02E613E024E530E03A83F9
:100D1000298369817A81D8018D919D918D01F8DABD
:100D2000E981FA813496FA83E983E836F10589F797
:100D30009FC1842F90E0FC013197E031F105C0F5AF
:100D40008827EE58FF4F8F4F0C944C298091AF06A7
:100D50009091B00698278927982704E09695879563
:100D60000A95E1F790910107981708F4E9C620C0A9
:100D70008091AF069091B00698278927909101073E
:100D8000981708F4E1C614C08091B1069091B2069C
:100D9000382F292F8091AF069091B0069827892788
:100DA0009827820F931F90910107981708F4D0C6D7
:100DB0000E94701C2091F7063091F806DC01CB01EF
:100DC000820F931FA11DB11D8093FD069093FE0617
:100DD000A093FF06B09300071092AC06E091AE0618
:100DE0008E2F90E0FC013197E031F10508F023CE21
:100DF0008827EE57FF4F8F4F0C944C29F901A3E041
:100E0000F695E795AA95E1F7EE7FF170E255FD4F73
:100E1000A081B181E22FEF7002C0B695A795EA9547
:100E2000E2F7E82FF0E0EC55F94FA0FF0EC0A185E6
:100E300075016401092E04C0CC0CDD1CEE1CFF1CE6
:100E40000A94D2F7CA2AC1860FC075016401092E1F
:100E500004C0CC0CDD1CEE1CFF1C0A94D2F7AC2D98
:100E6000A095B185AB23A1879F5F983010F08F5F6D
:100E700090E02F5F3F4FCACD2091AF063091B00672
:100E800032272327322F8091B1069091B2069827FE
:100E900089279827482F440F4093AF06E3E099270E
:100EA000820F911D22E02E0F2983A32FB0E0A817F7
:100EB000B907ACF4AA0FBB1FA255BD4F2C911196D8
:100EC0004C91AE2FB0E0AC55B94F19964C93EF5FF3
:100ED000F0E0EC55F94F21873F5FE981E3CFE093E4
:100EE000ED06A3CD8091AF069091B0069827892793
:100EF0009827FC0194E0F695E7959A95E1F7282F5D
:100F00002F708091B106FF27EE0FFF1FE255FD4FB6
:100F10008F3F81F481E090E0A0E0B0E004C0880F52
:100F2000991FAA1FBB1F2A95D2F720813181822BDE
:100F3000932B11C081E090E0A0E0B0E004C0880FE6
:100F4000991FAA1FBB1F2A95D2F7809590952081E3
:100F50003181822393239183808386E08093ED0601
:100F600082C0E091B006F0E0EE0FFF1FE255FD4FAA
:100F70008091B1069091B206982789279827EBCFE8
:100F80008091AF069091B0069827892798274091C5
:100F9000B1065091B206542745275427480F591FD0
:100FA00020E037E0812C912C54018394841795071D
:100FB000A1F2A82FAF70E32FF0E0EC55F94F618557
:100FC00070E0022E02C0759567950A94E2F7FC0165
:100FD00074E0F695E7957A95E1F7FF27EE0FFF1F8E
:100FE000E255FD4F7501640104C0CC0CDD1CEE1C04
:100FF000FF1CAA95D2F760FF05C060817181C62AE7
:10100000D72A06C0C094D09460817181C622D722AD
:10101000D182C0822F5F283010F03F5F20E0019620
:10102000C5CFE091B0064091B2061092B10686E0BD
:101030008093ED06A4EAB6E0F0E0EE0FFF1FE25564
:10104000FD4F20E01296421771F01E968C911E976C
:1010500090E0982F88271F963C911F97832B8193B0
:1010600091932F5FEFCF0E944010E5CC60E0E4CC7D
:10107000E0918306F0918406208131813A872987A7
:10108000F901E659FF4F1182108240900F025090F3
:10109000100260901102709012026091D002709163
:1010A000D10280E090E00E942F28A30192010E94CB
:1010B00096276B017C016091CE027091CF0280E097
:1010C00090E00E942F28A30192010E949627698335
:1010D0007A838B839C836091CC027091CD0280E0F7
:1010E00090E00E942F28A30192010E9496276D8311
:1010F0007E838F839887E985FA85E056FF4F60836A
:10110000718382839383E985FA85EC55FF4F89814A
:101110009A81AB81BC8180839183A283B383E9856B
:10112000FA85E855FF4FC082D182E282F38220E047
:1011300030E0A9016D817E818F8198850E94922780
:1011400087FD25C020E030E0A90169817A818B818B
:101150009C810E94922787FD1AC020E030E0A901FF
:10116000C701B6010E94922787FD11C0A985BA85E3
:101170005A96AD90BC905B9709811A812B813C8176
:101180004D815E816F817885CD010E94E318E091E9
:101190008306F0918406208131813A832983890175
:1011A00004551F4F6091D2027091D30280E090E00D
:1011B0000E942F2820E030E04AE754E40E9496275E
:1011C000D8016D937D938D939C93139709811A8118
:1011D00000551F4F6091D4027091D50280E090E0DD
:1011E0000E942F28A30192010E949627F801608394
:1011F0007183828393836091D6027091D70280E0DD
:1012000090E00E942F28E981FA81E454FF4F608327
:10121000718382839383E981FA81E45BFF4F60836A
:1012200071838283938309811A8100581F4F6091D3
:1012300034037091350380E090E00E942F2820E075
:1012400030E040E251E40E949627D8016D937D93EF
:101250008D939C9313978091360390913703019758
:1012600009F065C4E0918306F09184062081318104
:101270003A832983F901E857FF4F20E030E040E24C
:1012800051E460817181828193810E94E5280E94EE
:10129000032870933B0360933A03E981FA81E45792
:1012A000FF4FA981BA81A458BF4F2D913D914D9117
:1012B0005C9160817181828193810E94962720E0F8
:1012C00030E048EC52E40E94E52820E030E040E2C3
:1012D00051E40E94E5280E9403287093490360931B
:1012E0004803609120037091210380E090E00E9408
:1012F0002F2820E030E040E251E40E949627AB0125
:10130000BC0189819A81B8D9E0918306F091840665
:101310000190F081E02DEC53FF4F20E030E040E2FF
:1013200051E460817181828193810E94E5280E944D
:10133000032870932103609320030E946901209188
:1013400055073091560740915707509158070E9412
:101350002D2720E030E040E85FE30E94E12887FD90
:101360000FC00E94690160935507709356078093E0
:1013700057079093580720918B06243070F17FC057
:101380000E946901C0905507D0905607E09057071A
:10139000F0905807A70196010E942D2720E030E029
:1013A000A9010E94922787FF95C0A701960160E0DE
:1013B00070E080E89FE40E942D279B01AC0160E073
:1013C00070E0CB010E942D2760935507709356075C
:1013D00080935707909358077DC060918E06709157
:1013E0008F06636071608091890690918A06682BF0
:1013F000792B223041F0233041F0213011F070641C
:1014000005C0706503C0706601C07067C09090062B
:10141000D0909106E0909206F090930670688091CB
:101420008606D7D420E030E040E251E4C701B6019F
:101430000E94922787FF0EC020E030E04AE754E484
:10144000C701B6010E94E5280E94FE27CB010E9439
:1014500040120AC0C701B6010E94FE27072E000CE9
:10146000880B990B0E944B12809186060FD5009035
:10147000880602C0969587950A94E2F702C080E03C
:1014800090E0BC0180E090E00E942F28209194061B
:101490003091950640919606509197060E94E52856
:1014A000209198063091990640919A0650919B069A
:1014B0000E942D276093A0067093A1068093A20638
:1014C0009093A3066093900270939102809392028E
:1014D0009093930220E030E04FE254E46091900258
:1014E0007091910280919202909193020E94E12862
:1014F000181644F4109290021092910210929202E7
:101500001092930220E030E040E251E460919002BA
:101510007091910280919202909193020E94E5282D
:101520000E94032870937D0360937C0386E3E6D6D4
:10153000892B39F081E090E09093770380937603D4
:1015400004C0109277031092760360913A03709171
:101550003B0380E090E00E942F286B017C016091AA
:101560007E0370917F0380E090E00E942F2826E6A2
:1015700036E646E85FE30E94E5289B01AC01C7011F
:10158000B6010E94E12818160CF0C0C28091360303
:1015900090913703019709F0B9C28091AD02811192
:1015A000B5C200918003109181034801A12CB12C98
:1015B000C501B4010E942F289B01AC0160E070E0DE
:1015C0008AE794E40E9496270E9403282B013C019D
:1015D00080910002823021F08F3F09F094C205C053
:1015E000E8E6F2E034913D83DAC082E080930002C5
:1015F000E8E6F2E084918D838F3F09F484C2823063
:1016000009F469C030F5882309F44CC0813009F031
:10161000C6C0109280001092810080918100886085
:101620008093810080918100816080938100E8E94E
:10163000F1E0E491F0E0EE0FFF1FEE59FE4F8591CF
:101640009491EEEDF1E0E491E0939702A1E0AD8397
:1016500059C19D81943009F482C008F460C095306E
:1016600009F09DC01092200110922101809121016A
:101670008860809321018091210181608093210104
:10168000E8E9F1E0E491F0E0EE0FFF1FEE59FE4FC4
:1016900085919491EEEDF1E0E491E093940225E0E0
:1016A0002D8330C114BC15BC84B5826084BD85B562
:1016B000816085BDE8E9F1E0E491F0E0EE0FFF1F05
:1016C000EE59FE4F85919491EEEDF1E0E491E093B7
:1016D00098021D82ABC21092B0001092B1008091AE
:1016E000B00082608093B0008091B10081608093EF
:1016F000B100E8E9F1E0E491F0E0EE0FFF1FEE59F0
:10170000FE4F8591949190930A0780930907EEED1F
:10171000F1E0E491E0930B07B2E0BD8387C2109241
:1017200090001092910080919100886080939100C8
:1017300080919100816080939100E8E9F1E0E4916B
:10174000F0E0EE0FFF1FEE59FE4F85919491EEED04
:10175000F1E0E491E0939602E3E0ED83D3C01092D0
:10176000A0001092A1008091A10088608093A10048
:101770008091A10081608093A100E8E9F1E0E4910B
:10178000F0E0EE0FFF1FEE59FE4F85919491EEEDC4
:10179000F1E0E491E0939502F4E0FD83B3C03D8174
:1017A00037FDB1C161E082E02FD68D818D7F09F0D8
:1017B000ACC060E072E18AE790E0A50194010E946C
:1017C000D62629833A834B835C8369017A0181E0C1
:1017D000C81AD108E108F1089FEFC916D104E10445
:1017E000F10409F008F44DC060E472E48FE090E089
:1017F000A50194010E94D62669017A01A1E0CA1AC6
:10180000D108E108F108BD81B23001F5EFEFCE1645
:10181000D104E104F10409F008F490C160E970ED2D
:1018200083E090E0A50194010E94D62669017A0127
:10183000F1E0CF1AD108E108F1082FEFC216D10468
:10184000E104F10409F040F583E055C03FEFC31611
:10185000D104E104F104B9F0B0F068E478EE81E07D
:1018600090E0A50194010E94D62669017A0181E0E9
:10187000C81AD108E108F1089D81992309F4A1C192
:1018800097C181E001C082E0FD81F11134C095B5BE
:10189000987F892B85BDA9C068E478EE81E090E04F
:1018A000A50194010E94D62669017A0191E0C91A26
:1018B000D108E108F108AFEFCA16D104E104F10440
:1018C00009F008F439C164E274EF80E090E0A5010A
:1018D00094010E94D62669017A01A1E0CA1AD108B2
:1018E000E108F108BFEFCB16D104E104F10411F0D7
:1018F00008F032C185E09091B100987F892B8093E8
:10190000B10073C061E082E07FD560E072E18AE7F8
:1019100090E0A50194010E94D62669017A0181E038
:10192000C81AD108E108F108C114D10491E0E90610
:10193000F10488F068E478EE81E090E0A50194017C
:101940000E94D62669017A01A1E0CA1AD108E108ED
:10195000F10883E001C081E0BD81B13081F4909154
:101960008100987F892B8093810041145104610488
:10197000710409F03FC02FEF3FEFA9016DC0ED8169
:10198000E33079F490919100987F892B80939100B6
:10199000411451046104710469F52FEF3FEFA9016F
:1019A0007DC0FD81F43079F49091A100987F892B5E
:1019B0008093A1004114510461047104D9F42FEF04
:1019C0003FEFA9017DC02D81253079F4909121014F
:1019D000987F892B80932101411451046104710483
:1019E00049F42FEF3FEFA9017DC041145104610478
:1019F000710471F0D801AA0FBB1FA30192010E94CC
:101A0000F22628EE33E040E050E00E94FC2603C0BE
:101A10002FEF3FEFA9018D81823081F12CF48823D3
:101A200061F08130C9F06FC09D81943009F448C0E5
:101A3000ACF1953009F456C066C0C7BC2093A9022A
:101A40003093AA024093AB025093AC0280916E0097
:101A5000826080936E0057C0D0928900C092880047
:101A60002093A5023093A6024093A7025093A802A8
:101A700080916F00826080936F0045C0C092B30078
:101A800020930C0730930D0740930E0750930F07D8
:101A90008091700082608093700035C0D092990070
:101AA000C09298002093A1023093A2024093A30217
:101AB0005093A4028091710082608093710023C0D2
:101AC000D092A900C092A80020939D0230939E025C
:101AD00040939F025093A002809172008260809395
:101AE000720011C0D0922901C0922801209399025E
:101AF00030939A0240939B0250939C028091730012
:101B000082608093730081E08093AD028091360300
:101B100090913703892B09F08DC08091AD02882305
:101B200009F488C082E0F4D61092AD0283C08981A6
:101B30009A810E94A40196CB84E0DDCE82E0DBCEC8
:101B400082E089830C94CD0492E099830C94CD04B7
:101B5000A2E0A9830C94CD0462E17AE780E090E0F2
:101B6000A50194010E94D62669017A01E1E0CE1A0E
:101B7000D108E108F1082FEFC216D104E104F10405
:101B8000A9F0A0F089819A81AB81BC812AE0B5954A
:101B9000A795979587952A95D1F76C017D01F1E07E
:101BA000CF1AD108E108F10887E0A5CE86E0A3CEE0
:101BB000FFEFCF16D104E104F10409F068F684E0E8
:101BC00063CEAFEFCA16D104E104F10469F160F10C
:101BD00062E17AE780E090E0A50194010E94D626B8
:101BE00069017A0181E0C81AD108E108F1089FEF84
:101BF000C916D104E104F104A9F0A0F089819A8109
:101C0000AB81BC813AE0B595A795979587953A95B4
:101C1000D1F76C017D01E1E0CE1AD108E108F108AD
:101C200085E035CE84E033CE83E031CE61E082E0E2
:101C3000EBD3BFCD2A960FB6F894DEBF0FBECDBF53
:101C4000DF91CF911F910F91FF90EF90DF90CF9098
:101C5000BF90AF909F908F907F906F905F904F90CC
:101C6000089590E0FC013197E231F10508F04EC093
:101C70008827EE56FF4F8F4F0C944C29809180009F
:101C80008F7703C0809180008F7D809380000895BE
:101C900080918000877FF9CF84B58F7702C084B5AB
:101CA0008F7D84BD08958091B0008F7703C08091AF
:101CB000B0008F7D8093B0000895809190008F7761
:101CC00007C0809190008F7D03C080919000877F36
:101CD0008093900008958091A0008F7707C0809135
:101CE000A0008F7D03C08091A000877F8093A0001B
:101CF0000895809120018F7707C0809120018F7D0A
:101D000003C080912001877F809320010895682F70
:101D100083E796E0C9C5282F3091FB03313208F0E4
:101D20004AC08091FA038111FCCF9091F30342E005
:101D30004093FA032093F9032FEF2093D1031092DD
:101D4000D0033093CF03E3EDF3E0AFEAB3E020E05C
:101D5000321721F041914D932F5FFACF1092AE03CD
:101D60002091AE03990F922B9093AE039091F803BC
:101D7000913061F41092F8039091AE039093BB0000
:101D80009091BC0093FDF8CF95EC01C095EE909337
:101D9000BC009091FA039230E1F39091D1039F3F00
:101DA00079F08091D103803241F08091D10380336A
:101DB00031F084E005C081E003C082E001C083E02F
:101DC0001092FC031092FB031092D203089581E05D
:101DD000A2CFCF93DF93EB0191E09093D203809356
:101DE000F3031092FC031092FB0361E083E796E09B
:101DF0005BD56D2F83E796E057D56C2F83E796E090
:101E000053D5DF91CF91E3CF9091FA039111FCCF9D
:101E100091E09093FA039093F9032FEF2093D1036D
:101E20001092D003260F2093CF039093AE0390918E
:101E3000AE03880F892B8093AE038091F803813025
:101E400061F41092F8038091AE038093BB008091FF
:101E5000BC0083FDF8CF85EC01C085EE8093BC000B
:101E60008091FA038130E1F38091D003861710F45A
:101E70006091D003AFEAB3E0EEE8F3E080E08617CC
:101E800021F09D9191938F5FFACF08951F93CF9387
:101E9000DF93182F81E08093D2031093F303109205
:101EA000FC031092FB0360E083E796E0FDD48FDF34
:101EB00062E0812FA9DF1092FE038093FD0383E788
:101EC00096E0AAD4182F83E796E0A6D4D12F20E07D
:101ED000C22F9E01282BC901DF91CF911F91089538
:101EE000FF920F931F93CF93DF93EB0108EB10E06A
:101EF000F801F0802CE02083FC01808191E0909338
:101F0000D2038093F3031092FC031092FB0360E46E
:101F100083E796E0C9D4CE0124E0969587952A956B
:101F2000E1F7F5DECE0134E0880F991F3A95E1F72D
:101F30009927EDDE4CDFF801F082DF91CF911F9100
:101F40000F91FF9008951F93CF93DF93EC01162F0D
:101F50008091020791E09093D2038093F303109253
:101F6000FC031092FB038D2F90E0D1DECE01992768
:101F7000CEDE612F83E796E097D4DF91CF911F915A
:101F800026CFCF92DF92EF92FF92CF93DF93EC01B7
:101F90006A017B01E889F98982E080834115514E0D
:101FA00061057105B1F060E079E08DE390E0A70193
:101FB00096010E94FC26DA01C9010197A109B10925
:101FC000B695A795979587959C01211580E13807CF
:101FD000A8F0E889F989108260E874E88EE190E061
:101FE000A70196010E94FC26DA01C9010197A10907
:101FF000B109B695A795979587959C01EC85FD85C8
:102000003083EE85FF852083188EEC89FD8986E07C
:102010008083EA89FB89808180618083EA89FB89EA
:10202000808188608083EA89FB89808180688083E1
:10203000EA89FB8980818F7D8083DF91CF91FF903A
:10204000EF90DF90CF900895EDEAF6E090E02FEF6B
:102050003FEF981791F04191242748E0B901617052
:10206000772736952795672B21F051E0252750EAF1
:102070003527415099F79F5FECCF922F832F08951A
:10208000CF93C091ED068C2FDFDFEC2FF0E0EC5505
:10209000F94F9187E1E0EC0FF0E0EC55F94F8187C3
:1020A000CE5FC093ED069091AA068091A90692306A
:1020B00038F1823051F0833071F0813091F4909199
:1020C000C80090649093C80011C09091D0009064B3
:1020D0009093D0000BC090913001906490933001A8
:1020E00005C09091C00090649093C000909105014C
:1020F0009064909305019091050190629093050181
:102100004091ED06843028F48091A4069091A506B4
:1021100004C08091A6069091A70650E0DC01ED91E5
:10212000FC910280F381E02D6DEA76E019959091A3
:10213000AA068091A906923018F1823049F08330C6
:1021400061F0813079F49091C80096FFFCCF0EC009
:102150009091D00096FFFCCF09C09091300196FF7E
:10216000FCCF04C09091C00096FFFCCF9091050178
:102170009F7B90930501909105019F7D90930501B0
:10218000843070F58091A4069091A506DC01ED9154
:10219000FC910284F385E02D199597FFF3CF1092FF
:1021A000ED060E94701C2091F7063091F806DC01C4
:1021B000CB01820F931FA11DB11D8093FD0690934B
:1021C000FE06A093FF06B09300078091F30690915E
:1021D000F40601969093F4068093F306CF91089548
:1021E0008091A6069091A706DC01ED91FC910284F6
:1021F000F385E02D199597FFF3CFD1CF80918C0611
:1022000090918D06811524E0920709F130F4009732
:10221000A1F081159240B1F00895811528E0920750
:10222000D9F081152AE09207E1F08115964029F551
:102230008DEC9CECACECBBE318C08AE999E9A9E110
:10224000BDE313C08DEC9CECACECBCE30EC08DEC9C
:102250009CECACE4BCE309C08DEC9CECACE4BBE3CF
:1022600004C08DEC9CECACECBAE3809394069093A4
:102270009506A0939606B093970608950F931F9323
:10228000CF93DF938C01C2E0D7E0888191E09093F7
:10229000D2038093F3031092FC031092FB03812F6F
:1022A00090E035DDC801992732DD91DD61E088815C
:1022B000ABDD1092FE038093FD0383E796E0ACD282
:1022C000DF91CF911F910F910895FC01A089B189F1
:1022D0008C91A689B78982FD0FC09C91818D8F5FFB
:1022E0008F73228D821749F0218DDF01A20FB11D5E
:1022F0005D969C93818F08958C910895CF93DF9381
:10230000282F30E0F901EE5DFD4F8491F901E45290
:10231000FE4FD491F901EA56FE4FC491CC2389F0C7
:1023200081119FDCEC2FF0E0EE0FFF1FE458FE4F11
:10233000A591B491EC91ED2381E090E021F480E04F
:1023400002C080E090E0DF91CF9108951F93CF937A
:10235000DF93282F30E0F901EE5DFD4F8491F90104
:10236000E452FE4FD491F901EA56FE4FC491CC23BA
:10237000B9F0162F811175DCEC2FF0E0EE0FFF1F86
:10238000EE59FE4FA591B4919FB7F894111104C076
:102390008C91D095D82302C0EC91DE2BDC939FBFAB
:1023A000DF91CF911F9108951092FE031092FD03CB
:1023B0001092FC031092FB031092FA0381E08093C9
:1023C000F9031092F80361E084E1C0DF61E085E188
:1023D000BDDFE9EBF0E080818E7F808380818D7F9F
:1023E000808388E48093B80085E48093BC008AEF02
:1023F00093E19093F7038093F6038BEF93E190932F
:10240000F5038093F4030895CF93DF9390E0FC01EC
:10241000E452FE4F2491FC01EA56FE4F849188233A
:1024200061F190E0880F991FFC01E85BFE4FC591B8
:10243000D491FC01EE59FE4FA591B491611109C0F0
:102440009FB7F8948881209582238883EC912E236E
:102450000BC0623061F49FB7F8948881322F3095B9
:1024600083238883EC912E2B2C939FBF06C08FB7BC
:10247000F894E8812E2B28838FBFDF91CF910895A8
:102480008230910538F0880F991F880F991F0597A2
:102490000197F1F708958F929F92AF92BF92CF92DA
:1024A000DF92EF92FF926B017C010E944B1C4B016B
:1024B0005C01C114D104E104F104F1F00E944B1C51
:1024C000DC01CB0188199909AA09BB09883E934010
:1024D000A105B10570F321E0C21AD108E108F108A5
:1024E00088EE880E83E0981EA11CB11CC114D10493
:1024F000E104F10419F7DDCFFF90EF90DF90CF906A
:10250000BF90AF909F908F900895CF92DF92EF92FF
:10251000FF920F931F93CF93DF936C017A018B018E
:10252000C0E0D0E0CE15DF0581F0D8016D918D01BE
:10253000D601ED91FC910190F081E02DC601199535
:10254000892B11F02196EECF7E01C701DF91CF914B
:102550001F910F91FF90EF90DF90CF900895FC01B5
:10256000538D448D252F30E0842F90E0821B930BF8
:10257000541710F0CF96089501970895FC01918D9E
:10258000828D981761F0828DDF01A80FB11D5D96D5
:102590008C91928D9F5F9F73928F90E008958FEF43
:1025A0009FEF0895FC01918D828D981731F0828DF7
:1025B000E80FF11D858D90E008958FEF9FEF08954E
:1025C000FC01918D228D892F90E0805C9F4F821BB2
:1025D00091098F73992708958FEF93E0F1DF21E040
:1025E000892B09F420E0822F08958CE994E0E8DF3C
:1025F00021E0892B09F420E0822F089589E395E0FA
:10260000DFDF21E0892B09F420E0822F089586ED99
:1026100095E0D6DF21E0892B09F420E0822F089590
:10262000FC01848DDF01A80FB11DA35ABF4F2C916F
:10263000848D90E001968F739927848FA689B7893E
:102640002C93A089B1898C91837080648C93938D35
:10265000848D981306C00288F389E02D80818F7DD8
:1026600080830895EF92FF920F931F93CF93DF9390
:10267000EC0181E0888F9B8D8C8D981305C0E889D3
:10268000F989808185FD25C0F62E0B8D10E00F5F46
:102690001F4F0F731127E02E8C8DE8120BC00FB661
:1026A00007FCFACFE889F989808185FFF5CFCE0153
:1026B000B7DFF2CF8B8DFE01E80FF11DE35AFF4F1C
:1026C000F0829FB7F8940B8FEA89FB898081806242
:1026D0000AC09FB7F894EE89FF896083E889F98979
:1026E00080818370806480839FBF81E090E0DF9170
:1026F000CF911F910F91FF90EF900895CF93DF93AB
:10270000EC01888D8823C1F0EA89FB89808185FDF1
:1027100005C0A889B9898C9186FD0EC00FB607FC4B
:10272000F5CF808185FFF2CFA889B9898C9185FF8B
:10273000EDCFCE0175DFE8CFDF91CF91089580E036
:1027400090E0892B19F063DF811116C080E090E0E2
:10275000892B19F053DF811112C080E090E0892BA2
:1027600019F043DF81110EC080E090E0892B79F0F1
:1027700033DF81110AC008950E940000E7CF0E9454
:102780000000EBCF0E940000EFCF0C9400000895F2
:1027900085ED8093BC008091BC0084FDFCCF10923D
:1027A000FA03089540913207262F30E0240F311D9F
:1027B00021323105DCF42091FA032430C9F4FC0104
:1027C00080E090E0861758F4309132072191DC01C7
:1027D000AE5EB84FA30FB11D2C930196F3CF80913D
:1027E0003207680F6093320780E0089581E0089512
:1027F00082E00895089508950895E091FE03809180
:10280000FD03E81730F4F0E0E257FC4F808190E0E0
:1028100008958FEF9FEF08959091FE038091FD033F
:10282000981750F4E92FF0E0E257FC4F208130E098
:102830009F5F9093FE0302C02FEF3FEFC901089501
:102840008091FD0390E02091FE03821B9109089581
:10285000CF92DF92EF92FF920F931F93CF93DF936C
:102860007C01CB018A012091D203222389F0EB0164
:102870006B01C40ED51ECC15DD0561F06991D70141
:10288000ED91FC910190F081E02DC7011995F3CFF6
:10289000642F88DFC801DF91CF911F910F91FF90C6
:1028A000EF90DF90CF900895CF93DF931F92CDB735
:1028B000DEB769832091D2032223D1F02091FB035C
:1028C000203240F021E030E0FC013383228380E0BD
:1028D00090E014C08091FC03E82FF0E0ED52FC4F33
:1028E000998190838F5F8093FC038093FB0304C0E6
:1028F00061E0CE01019656DF81E090E00F90DF911C
:10290000CF910895089580E090E008950E94752A7F
:102910009091000289133DC0E8E6F2E0E4919FEF58
:1029200090930002E230C9F050F4EE2399F0E130C8
:1029300081F590916F009D7F90936F002AC0E430E5
:1029400019F1E0F0E53029F5909173009D7F9093A7
:1029500073001FC010926E001CC0909170009D7F8C
:102960009093700091E09093B0009091B100987FA7
:1029700094609093B1001092B3000BC090917100DD
:102980009D7F9093710005C0909172009D7F909300
:10299000720060E0DBCC1F920F920FB60F921124F1
:1029A0000BB60F922F933F934F935F936F937F9349
:1029B0008F939F93AF93BF93EF93FF9380910C07F7
:1029C00090910D07A0910E07B0910F07892B8A2BCC
:1029D0008B2B51F190910B07E0910907F0910A07B9
:1029E00080818927808380910C0790910D07A091A9
:1029F0000E07B0910F07181619061A061B06BCF42D
:102A000080910C0790910D07A0910E07B0910F07D0
:102A10000197A109B10980930C0790930D07A0932A
:102A20000E07B0930F0703C08091000271DFFF9182
:102A3000EF91BF91AF919F918F917F916F915F9136
:102A40004F913F912F910F900BBE0F900FBE0F90A3
:102A50001F9018956115710579F0FB010190002018
:102A6000E9F73197AF01461B570BDC01ED91FC9163
:102A70000280F381E02D199480E090E008958F9218
:102A80009F92AF92BF92EF92FF920F931F93CF93BB
:102A9000DF93CDB7DEB7A1970FB6F894DEBF0FBEB8
:102AA000CDBF7C01FA01CB0119A2223008F42AE043
:102AB0008E010F5D1F4F822E912CA12CB12CBF01D6
:102AC000A50194010E94FC26F901CA0101501109D7
:102AD0006A3014F4605D01C0695CD8016C93232BEB
:102AE000242B252B61F7B801C701B4DFA1960FB6DF
:102AF000F894DEBF0FBECDBFDF91CF911F910F9134
:102B0000FF90EF90BF90AF909F908F9008957F922D
:102B10008F929F92AF92BF92CF92DF92EF92FF92ED
:102B20000F931F93CF93DF938C016A017B01722E69
:102B30009A01AB01C701B6010E944829882319F008
:102B40006FE772E027C046015701E894B7F82FEF0E
:102B50003FEF4FE75FE7C501B4010E9448298111AB
:102B60000DC02FEF3FEF4FE75FE7C501B4010E94B3
:102B7000922718161CF463E872E00CC02FEF3FEFA9
:102B80004FE75FE4C701B6010E94E12818168CF4F4
:102B900067E872E0C801DF91CF911F910F91FF901C
:102BA000EF90DF90CF90BF90AF909F908F907F90ED
:102BB00051CF2FEF3FEF4FE75FECC701B6010E9407
:102BC000922787FDE5CF20E030E0A901C701B601DB
:102BD0000E94922787FF0FC0D801ED91FC910190D0
:102BE000F081E02D6DE2C8011995EC01F7FAF0943F
:102BF000F7F8F09402C0C0E0D0E0B12C60E070E0E3
:102C000080E09FE37B1441F020E030E040E251E4BB
:102C10000E949627B394F6CFA70196010E942E2713
:102C20006B017C010E9403284B015C012AE0AB018F
:102C3000BC01C80124DFC80FD91F7720E1F1C5010D
:102C4000B4010E942F289B01AC01C701B6010E946C
:102C50002D276B017C01D801ED91FC910190F08151
:102C6000E02D6EE2C8011995C80FD91F20E030E0B1
:102C700040E251E4C701B6010E94E5284B015C0126
:102C80000E9403286B01E12CF12C2AE0B701A60178
:102C9000C801F5DEC80FD91FC701B6010E942F2851
:102CA0009B01AC01C501B4010E942D276B017C0181
:102CB0007A947110DBCFCE01DF91CF911F910F91EC
:102CC000FF90EF90DF90CF90BF90AF909F908F904C
:102CD0007F9008951F920F920FB60F9211240BB69A
:102CE0000F922F933F934F935F936F937F938F93A5
:102CF0009F93AF93BF93EF93FF938FEF93E090DC9D
:102D0000FF91EF91BF91AF919F918F917F916F91C3
:102D10005F914F913F912F910F900BBE0F900FBE7F
:102D20000F901F9018951F920F920FB60F921124BB
:102D30000BB60F922F933F934F935F936F937F93B5
:102D40008F939F93AF93BF93EF93FF938FEF93E096
:102D5000BCDAFF91EF91BF91AF919F918F917F91DD
:102D60006F915F914F913F912F910F900BBE0F90FC
:102D70000FBE0F901F9018951F920F920FB60F92D3
:102D800011240BB60F922F933F934F935F936F9342
:102D90007F938F939F93AF93BF93EF93FF938CE9B0
:102DA00094E03EDCFF91EF91BF91AF919F918F91A5
:102DB0007F916F915F914F913F912F910F900BBE3B
:102DC0000F900FBE0F901F9018951F920F920FB685
:102DD0000F9211240BB60F922F933F934F935F9353
:102DE0006F937F938F939F93AF93BF93EF93FF93D3
:102DF0008CE994E06ADAFF91EF91BF91AF919F91D6
:102E00008F917F916F915F914F913F912F910F9093
:102E10000BBE0F900FBE0F901F9018951F920F9230
:102E20000FB60F9211240BB60F922F933F934F932F
:102E30005F936F937F938F939F93AF93BF93EF9322
:102E4000FF9389E395E0ECDBFF91EF91BF91AF91A8
:102E50009F918F917F916F915F914F913F912F91B2
:102E60000F900BBE0F900FBE0F901F9018951F92E2
:102E70000F920FB60F9211240BB60F922F933F9320
:102E80004F935F936F937F938F939F93AF93BF9372
:102E9000EF93FF9389E395E018DAFF91EF91BF91EB
:102EA000AF919F918F917F916F915F914F913F91E2
:102EB0002F910F900BBE0F900FBE0F901F90189583
:102EC0001F920F920FB60F9211240BB60F922F93F1
:102ED0003F934F935F936F937F938F939F93AF93A2
:102EE000BF93EF93FF9386ED95E09ADBFF91EF910F
:102EF000BF91AF919F918F917F916F915F914F9112
:102F00003F912F910F900BBE0F900FBE0F901F900F
:102F100018951F920F920FB60F9211240BB60F92B5
:102F20002F933F934F935F936F937F938F939F93D1
:102F3000AF93BF93EF93FF9386ED95E0C6D9FF91D2
:102F4000EF91BF91AF919F918F917F916F915F9121
:102F50004F913F912F910F900BBE0F900FBE0F908E
:102F60001F9018951F920F920FB60F9211240BB657
:102F70000F922F933F934F935F936F937F938F9312
:102F80009F93AF93BF93EF93FF938091B900887F96
:102F9000803609F49CC068F5883209F45BC090F46F
:102FA000803109F454C038F4882309F4F6C088301D
:102FB00009F44DC0F5C0883109F44CC0803209F4E1
:102FC0005DC0EEC0803409F468C048F4803309F471
:102FD00055C0883309F0E4C08093D103D8C0803550
:102FE00009F44FC0883509F45DC0883409F0D8C0B1
:102FF000D6C0883909F4C7C0A8F4883709F467C077
:1030000038F4883609F463C0803709F460C0C8C05A
:10301000883809F4B8C0803909F45FC0803809F0F5
:10302000BFC05BC0803B09F486C038F4803A09F425
:1030300066C0883A09F47FC0B3C0803C09F4A7C0D9
:10304000883C09F4A4C0883B09F48AC0A9C08091D7
:10305000AE0310C09091D0038091CF03981770F504
:10306000E091D00381E08E0F8093D003F0E0E15532
:10307000FC4F80818093BB0085EC86C08093D10398
:103080008EC0E091D00381E08E0F8093D0038091B9
:10309000BB00F0E0E155FC4F80839091D00380911C
:1030A000CF036EC0E091D00381E08E0F8093D003F8
:1030B0008091BB00F0E0E155FC4F80838091F903E3
:1030C00081116DC081E08093F80384EA61C083E0E0
:1030D0008093FA0310925407CFCF80915407803227
:1030E00008F051C0E091540781E08E0F809354079F
:1030F0008091BB00F0E0EC5CF84F8083BDCF85ECA5
:103100008093BC001092FA0380915407803230F40F
:10311000E0915407F0E0EC5CF84F108260915407A6
:1031200070E0E091F403F091F50384E397E01995E2
:103130001092540735C084E08093FA03109233074D
:1031400010923207E091F603F091F7031995809100
:103150003207811105C081E0809332071092120777
:10316000E091330781E08E0F80933307F0E0EE5E4D
:10317000F84F80818093BB00909133078091320794
:10318000981708F479CF85E88093BC0009C085ECD6
:103190008093BC001092FA0303C01092D103F8DAB6
:1031A000FF91EF91BF91AF919F918F917F916F911F
:1031B0005F914F913F912F910F900BBE0F900FBEDB
:1031C0000F901F9018954F925F926F927F928F92FF
:1031D0009F92AF92BF92CF92DF92EF92FF920F93A6
:1031E0001F93CF93DF93CDB7DEB72A970FB6F8942E
:1031F000DEBF0FBECDBF9A8789872A013B010983B5
:103200001A832B833C83DC015B96BC92AE925A9767
:1032100081E0AA94AB2809F080E0E985FA8583AFC4
:10322000408251826282738289819A81AB81BC81A2
:1032300084839583A683B783C086D186E286F3868E
:1032400066A577A580A991A90E942F2820E030E0EB
:103250004AE754E40E9496276D837E838F83988784
:10326000E985FA8544865586668677869B01AC019A
:1032700069817A818B819C810E94E5284B015C01E8
:10328000A985BA8550966D937D938D939C935397A2
:103290002D813E814F815885C701B6010E94962736
:1032A0006B017C01E985FA85648B758B868B978B26
:1032B000808D918D019759F5A301920160E070E036
:1032C000CB010E942D27A985BA851C966D937D930D
:1032D0008D939C931F97A501940160E070E0CB0152
:1032E0000E942D27E985FA85608B718B828B938BE9
:1032F000A701960160E070E0CB010E942D27A9850F
:10330000BA8554966D937D938D939C9357972A9687
:103310000FB6F894DEBF0FBECDBFDF91CF911F91E6
:103320000F91FF90EF90DF90CF90BF90AF909F9064
:103330008F907F906F905F904F9008951F920F92A3
:103340000FB60F9211240F900FBE0F901F9018957B
:10335000E0918306F09184060190F081E02D82AD2A
:10336000811113C0DF01A457BF4F1D921D921D9202
:103370001C92139793978C91811109C060E070E0C3
:10338000CF018C599F4F0C94700F12AEEBCF089564
:103390002F923F924F925F926F927F928F929F9265
:1033A000AF92BF92CF92DF92EF92FF920F931F9353
:1033B000CF93DF93CDB7DEB72F970FB6F894DEBF6C
:1033C0000FBECDBFE0918306F0918406808191818C
:1033D0009F878E87DC01DA968C9181114CC0AE8577
:1033E000BF855E96ED91FC915F97C080D180E280B1
:1033F000F380FD01C6A2D7A2E0A6F1A65C96ED91EE
:10340000FC915D9780819181A281B381EE85FF85DA
:1034100082A793A7A4A7B5A786A897A8A0ACB1AC8C
:10342000A5019401C701B6010E94E128AE85BF85C0
:103430001816D4F0D2968D909D90AD90BC90D597F3
:10344000A5019401C701B6010E94922787FD05C01E
:1034500081E0EE85FF8582AF0EC0EE85FF8586A2F6
:1034600097A2A0A6B1A6F4CF96968D929D92AD920A
:10347000BC929997EDCF8E859F850E94A401EE8521
:10348000FF8582AD882309F437C12AD26D837E83FC
:103490008F839887EE85FF8582A193A1A4A1B5A112
:1034A0004D815E816F817885481B590B6A0B7B0BC0
:1034B00086A597A5A0A9B1A9481759076A077B0750
:1034C00008F41AC1048CF58DE02D80819181A281D0
:1034D000B38189839A83AB83BC83AE85BF85909685
:1034E000ED91FC91919729813A814B815C816081BA
:1034F0007181828193810E942D274B015C01EE85B1
:10350000FF8522A533A544A555A569817A818B81C4
:103510009C810E942D276B017C01AE85BF85509652
:103520002D913D914D915C915397C501B4010E943D
:10353000E528EE85FF8526A137A140A551A50E946B
:103540002E272B013C01AE85BF8596966D937D930A
:103550008D939C939997DB96BC91B987BB2309F413
:10356000B2C0EE85FF8546A057A060A471A416A93D
:1035700007A930AC21AC212F302F432D522DC30190
:10358000B2010E94E12818160CF492C0AE85BF85E6
:10359000D2968D919D910D90BC91A02D8A879B878D
:1035A000AC87BD879C01AD01C301B2010E94922787
:1035B00087FD79C0F985F11169C0812C912C5401E6
:1035C000AE85BF8554962D913D914D915C91579755
:1035D000C701B6010E94E5289B01AC01EE85FF857D
:1035E00066A177A180A591A50E942D27A501940130
:1035F0000E942E27F62EE72ED82EC92E262F372FE3
:10360000482F592F612F702F832D922D0E949227C2
:1036100087FD1BC0AE85BF85D2961C91D297D396ED
:103620000C91D397D4963C90D497D5962C90212F7B
:10363000302F432D522D6F2D7E2D8D2D9C2D0E94D0
:10364000922787FD02C087011601AE85BF855E9671
:10365000ED91FC915F97812F902FA32DB22D808348
:103660009183A283B38389819A81AB81BC81EE85EA
:10367000FF8582A793A7A4A7B5A78D819E81AF815F
:10368000B88582A393A3A4A3B5A336C0EE85FF8516
:103690002485358546855785C501B4010E94E528F6
:1036A0004B015C018DCF8A859B85AC85BD8504C0AF
:1036B000812F902FA32DB22DEE85FF8586A397A392
:1036C000A0A7B1A777CFAE85BF851C962D913D9160
:1036D0004D915C911F97C701B6010E94E5289B019F
:1036E000AC01C301B2010E942D27EE85FF8566A3C0
:1036F00077A380A791A735CFEE85FF85E759FF4FC8
:103700008081811128C0EE85FF85E457FF4F6081DD
:103710007181828193810E9403288E859F858C59B7
:103720009F4F2F960FB6F894DEBF0FBECDBFDF912F
:10373000CF911F910F91FF90EF90DF90CF90BF90AE
:10374000AF909F908F907F906F905F904F903F9041
:103750002F900C94700F2F960FB6F894DEBF0FBE0B
:10376000CDBFDF91CF911F910F91FF90EF90DF9030
:10377000CF90BF90AF909F908F907F906F905F9011
:103780004F903F902F90089508954F925F926F92BF
:103790007F928F929F92AF92BF92CF92DF92EF92E1
:1037A000FF920F931F93CF93DF93E0918306F091E5
:1037B0008406C081D181812C912C88ECA82E82E4D2
:1037C000B82E8AAA9BAAACAABDAAC12C90EFD92E6A
:1037D0009FE7E92E95E4F92ECEAADFAAE8AEF9AE6E
:1037E0008AAD882309F446C00E8D1F8DF8014080F4
:1037F000518062807380A7019601C301B2010E94CB
:10380000E12818168CF120E030E048EC52E4C301C6
:10381000B2010E94922787FD21C08EA09FA0A8A47C
:10382000B9A4CEA8DFA8E8ACF9ACA7019601C50100
:10383000B4010E94E128181664F0CAA8DBA8ECA81D
:10384000FDA8A7019601C501B4010E94922787FF38
:1038500011C0CEA2DFA2E8A6F9A60CC0F8018082B2
:103860009182A282B382D9CFF801C082D182E28252
:10387000F382D3CFDF91CF911F910F91FF90EF9003
:10388000DF90CF90BF90AF909F908F907F906F9080
:103890005F904F9008953FB7F89480915E079091A4
:1038A0005F07A0916007B091610726B5A89B05C08E
:1038B0002F3F19F00196A11DB11D3FBFBA2FA92FAF
:1038C000982F8827820F911DA11DB11DBC01CD012C
:1038D00042E0660F771F881F991F4A95D1F7089518
:1038E0002FB7F89460915A0770915B0780915C073D
:1038F00090915D072FBF08951F920F920FB60F9200
:1039000011242F933F938F939F93AF93BF938091F5
:103910005A0790915B07A0915C07B0915D073091C9
:10392000590723E0230F2D3720F40196A11DB11D67
:1039300005C026E8230F0296A11DB11D209359074B
:1039400080935A0790935B07A0935C07B0935D0741
:1039500080915E0790915F07A0916007B091610729
:103960000196A11DB11D80935E0790935F07A09300
:103970006007B0936107BF91AF919F918F913F9185
:103980002F910F900FBE0F901F901895CF93DF933C
:10399000CDB7DEB768970FB6F894DEBF0FBECDBFC8
:1039A000789484B5826084BD84B5816084BD85B51A
:1039B000826085BD85B5816085BD80916E00816026
:1039C00080936E00109281008091810082608093CC
:1039D00081008091810081608093810080918000CE
:1039E0008160809380008091B10084608093B100F9
:1039F0008091B00081608093B000809191008260DE
:103A000080939100809191008160809391008091DA
:103A100090008160809390008091A10082608093EB
:103A2000A1008091A10081608093A1008091A000FD
:103A300081608093A00080912101826080932101A8
:103A4000809121018160809321018091200181601A
:103A50008093200180917A00846080937A00809125
:103A60007A00826080937A0080917A0081608093EE
:103A70007A0080917A00806880937A001092C10069
:103A800082E390E0909357038093560383E68093FC
:103A900085060E94D41160E070E085E896E00E94FF
:103AA000700F60E086E30E94041261E089E00E94EA
:103AB000041261E082E00E94041261E08AE00E9448
:103AC000041260E08AE00E94A61161E08BE00E948F
:103AD000041260E08BE00E94A61161E08CE00E947D
:103AE000041261E08CE00E94A61160E082E10E9475
:103AF000041261E08BE30E94041261E08BE30E94F8
:103B0000A61161E088E00E94041240E251EA67E0F9
:103B100070E086ED95E00E94C10F80918C06909137
:103B20008D0690938A06809389060E94FE1080EE8F
:103B300090E090938F0680938E068AE999E9A9E92F
:103B4000BFE38093900690939106A0939206B09362
:103B5000930680E5809302070E94D411FF24F3941A
:103B6000F092D2038CE78093F3031092FC0310923F
:103B7000FB036091020770E0660F771F83E796E012
:103B80000E94541480E00E948B0E63E08CE70E9438
:103B9000040F1092FE038093FD0383E796E00E94DA
:103BA0000C148C0183E796E00E940C149A8389839D
:103BB00083E796E00E940C141127F4E0000F111F18
:103BC000FA95E1F749815A815527A4E05595479523
:103BD000AA95E1F7040F151F29812F70422F50E09D
:103BE000542F4427DA01A80FB11DBA83A9830A30E4
:103BF000110559F066E472E086ED95E00E942A1501
:103C0000A801110F660B770B11C0E981FA81E03131
:103C1000F540C1F065E672E086ED95E00E942A1558
:103C200089819A81AC01990F660B770B20E186EDB3
:103C300095E00E943F1563E472E086ED95E00E94F6
:103C40002A1502C0F09203078091A906823039F04C
:103C5000833041F0813049F489E395E008C08CE974
:103C600094E005C08FEF93E002C086ED95E090935D
:103C7000A5068093A40640E052EC61E070E08091DC
:103C8000A4069091A5060E94C10F8091AA068230D9
:103C900078F0809104018066809304018091050191
:103CA0008F7B80930501809105018F7D80930501B5
:103CB0008091A4069091A506DC01ED91FC9102840F
:103CC000F385E02D199597FFF3CF1092ED06109232
:103CD000EE061092F6061092F5061092F406109277
:103CE000F3061092F2061092F1060CEC12E0E8EEE8
:103CF000F3E0FA83E98389819A810E947401D801F3
:103D00008D939D938D01E981FA813496FA83E9833D
:103D1000E115F44081F70EEA12E01A8219828981D6
:103D20009A810E947401D8018D939D938D01E98140
:103D3000FA813496FA83E983749789F702EC12E0EA
:103D400089819A810E947401D8018D939D938D0180
:103D5000E981FA813496FA83E983B89789F788E292
:103D600090E00E94740190932103809320038CE2E1
:103D700090E00E947401909323038093220380E3D8
:103D800090E00E94740190932F0380932E0384E3AC
:103D900090E00E947401909331038093300388E394
:103DA00090E00E94740190935D0380935C038CE328
:103DB00090E00E94740190935F0380935E0380E41F
:103DC00090E00E947401909361038093600384E407
:103DD00090E00E947401909333038093320388E44F
:103DE00090E00E94740190937F0380937E038CE4A3
:103DF00090E00E947401909381038093800380E59A
:103E000090E00E947401909335038093340302E69E
:103E100013E024E530E03A83298389819A810E9466
:103E20007401D8018D939D938D01E981FA813496B7
:103E3000FA83E983E836F10581F788EC90E00E9487
:103E40005429988F8F8B4C01BEE68B0E911CF40188
:103E5000808191812F89388D28553F4F3E832D8356
:103E6000D901CD90DD90ED90FC90EF89F88DEC5567
:103E7000FF4FFC8BEB8B40805180628073802F89D9
:103E8000388D20563F4F3E8B2D8BD9012D913D9182
:103E90004D915C9129833A834B835C832F88388CC6
:103EA000BCE82B0E311CEF89F88D378E268E9F01D2
:103EB00028573F4F358F248F245C3F4F31A320A3D9
:103EC00012AE12AA13AA14AA15AA40E050E06FE796
:103ED00073E446AB57AB60AF71AF44E650E060E0CF
:103EE00070E046A757A760AB71AB918F808F20E041
:103EF00030E0A90169817A818B819C810E9492279F
:103F000087FD1EC020E030E0A901C301B2010E947C
:103F1000922787FD15C020E030E0A901C701B60156
:103F20000E94922787FD0CC0AA24A394B12C930170
:103F3000820149815A816B817C818F89988D43D917
:103F4000CFDCEF89F88D06A517A520A931A9DC01E2
:103F5000CB01801B910BA20BB30B82A393A3A4A351
:103F6000B5A382E391E1A0E8BBE384AF95AFA6AF30
:103F7000B7AF8FE795E0ABE1B5EBE05CFF4F808337
:103F80009183A283B3834F88588CF6E44F0E511C63
:103F900088E4D2018C9314961C921E92139798E099
:103FA00011969C93119712961C92EF89F88DE05A06
:103FB000FF4F1082118212821382EF89F88DEC5B21
:103FC000FF4F8083EF89F88DEB5BFF4FFA83E98326
:103FD00082E6808380918506EF89F88DEC59FF4F4A
:103FE0008083EF89F88DEB59FF4F10821182128286
:103FF00013822F89388D27593F4F3A8B298BD9014E
:104000001C92F40111821082EF89F88DE059FF4F64
:1040100010821182128213828CE291E0A0E0B0E063
:10402000EF89F88DE858FF4F80839183A283B38393
:1040300080E090EFAFE7B5E48F88988CFCE78F0EB7
:10404000911CF40180839183A283B383EF89F88D5F
:10405000E857FF4F1082118212821382D1011D9204
:104060001D921D921C92139780E090E0A0E8BEE3A1
:10407000EF89F88DEC56FF4F80839183A283B38341
:1040800080E090E0AAEFB3E4EF89F88DE856FF4FA7
:1040900080839183A283B383EF89F88DE456FF4F29
:1040A0001082118212821382ED89FE8910821182A0
:1040B00012821382AB89BC891D921D921D921C92A3
:1040C0001397ED81FE81108211821282138280E0AB
:1040D00090E0A0E8BFE3EF89F88DE455FF4F8083BF
:1040E0009183A283B383EF89F88DE055FF4F10824F
:1040F0001182128213828AE097EDA3E2BCE3EF897A
:10410000F88DEC54FF4F80839183A283B38384EABC
:1041100090E7ADE7BFE3EF89F88DE854FF4F808368
:104120009183A283B3832F88388CFCEB2F0E311C34
:1041300080E090E0A8ECB4E4F10180839183A28355
:10414000B3832F89388D20543F4F3E832D8380E0E9
:1041500090E0AAE7B4E4F90180839183A283B3835A
:10416000EF89F88DEC53FF4F108211821282138277
:10417000AF89B88D5A96AD90BC905B97C12CD12C6D
:10418000760197018601B701A601CD011CD8F40183
:10419000C080D180E280F38020E030E0A901C70137
:1041A000B601C0D618160CF059C0AF89B88DD2969A
:1041B0001D921D921D921C92D597FD01C6AAD7AAE9
:1041C000E0AEF1AE82AD882309F448C0668C778CEE
:1041D000D3018D909D90AD90BC90A5019401C70135
:1041E000B601A0D687FF06C0F301C082D182E28269
:1041F000F3820EC020E030E0A901C501B40192D6DF
:1042000087FF06C0D3011D921D921D921C92139729
:10421000EF89F88D86A097A0A0A4B1A4C6A8D7A8BE
:10422000E0ACF1ACA7019601C501B401CAD71816DC
:104230006CF0EF89F88DC2A8D3A8E4A8F5A8A7016F
:104240009601C501B4016ED687FF08C0AF89B88D4D
:104250009696CD92DD92ED92FC929997EF89F88D2A
:1042600066A577A580A991A9FAD69B01AC0160E06B
:1042700070E080EA90E45AD66B017C019B01AC01AE
:10428000AF89B88D50966D917D918D919C9153978A
:104290009CD7EF89F88D608B718B828B938BA701F4
:1042A0009601648975898689978940D6AF89B88DCA
:1042B00054966D937D938D939C93579785E090E0F2
:1042C000A0E0B0E0EF89F88D86A797A7A0ABB1ABCF
:1042D0000E94D411EF89F88DE55BFF4FA981BA8167
:1042E0008C9180830E94D411F201148213826FEFAB
:1042F0007FE08F89988D855B9F4F0E94700F2F897B
:10430000388D245B3F4FF10180819181A281B3817F
:10431000F90180839183A283B3832F89388D205B39
:104320003F4FED81FE8180819181A281B381F901AE
:1043300080839183A283B3832F89388D3093850343
:104340002093840381E0A989BA898C9380918106A6
:104350009091820620917F06309180068217930704
:1043600019F57C01EE0CFF1C892B11F0C70102C06E
:1043700081E090E09093820680938106880F991FD8
:1043800093D79A8389830091830610918406A701AD
:10439000B8010E94792AC8010E94EC29E981FA81BA
:1043A000F0938406E0938306E0918306F0918406FF
:1043B00080917F06909180069C012F5F3F4F309344
:1043C000800620937F062091840330918503880F17
:1043D000991FE80FF91F31832083E0918306F09144
:1043E0008406208131813E832D83F901E659FF4FF8
:1043F000118210826091D0027091D10280E090E031
:104400002ED620E030E048EC52E490D56B017C01E0
:104410006091CE027091CF0280E090E020D620E043
:1044200030E048EC52E482D569837A838B839C83A5
:104430006091CC027091CD0280E090E010D620E037
:1044400030E048EC52E472D52B013C01ED81FE8155
:10445000E056FF4F6083718382839383ED81FE81F9
:10446000EC55FF4F89819A81AB81BC818083918318
:10447000A283B383ED81FE81E855FF4FC082D182D4
:10448000E282F382AD81BE815A96AD90BC905B977B
:1044900020E030E0A901C301B20144D587FD1CC072
:1044A00020E030E0A90169817A818B819C813AD535
:1044B00087FD12C020E030E0A901C701B60132D566
:1044C00087FD0AC009811A812B813C81B301A201B9
:1044D0008D819E810E94E318E0918306F09184060D
:1044E000208131813A832983890104551F4F6091CE
:1044F000D2027091D30280E090E0B1D520E030E0AC
:104500004AE754E413D5D8016D937D938D939C9322
:10451000139709811A8100551F4F6091D402709141
:10452000D50280E090E09BD520E030E048EC52E4FA
:10453000FDD4F80160837183828393836091D602F6
:104540007091D70280E090E08AD5E981FA81E45445
:10455000FF4F6083718382839383E981FA81E45BF7
:10456000FF4F608371838283938329813A8120582E
:104570003F4F3A832983609134037091350380E083
:1045800090E06DD520E030E040E251E4CFD4A98145
:10459000BA816D937D938D939C93139761E088E02E
:1045A0000E94A6118091360390913703019709F07C
:1045B000F3C28091380390913903892B09F486C2A4
:1045C0000E947C030E94690180908603909087037B
:1045D000A0908803B0908903A50194013ED46B019B
:1045E0007C016091C2027091C30280E090E037D5F7
:1045F00020E030E040E251E499D41B018C0120E03E
:1046000030E0A901C701B601DCD518160CF441C190
:104610006091C4027091C50280E090E020D520E056
:1046200030E040E251E482D4562E472E89839D83A8
:10463000262F372FAC01B101C80110D4698B7B8BB9
:10464000782E692E9101A801C701B601BAD51816B6
:104650000CF4EEC06091C6027091C70280E090E059
:10466000FED420E030E040E251E460D4562E472EE4
:1046700089839D83262F372FAC0169897B89872DFC
:10468000962DECD31B018C0129893B89472D562D92
:10469000C701B60196D518160CF497C06091C802F0
:1046A0007091C90280E090E0DAD420E030E040E28E
:1046B00051E43CD4562E472E89839D83262F372FD5
:1046C000AC01B101C801CAD3762E7B8B898B692ED0
:1046D0009101A801C701B60174D518160CF444C0A5
:1046E000272D3B894989562DC701B6016AD5181671
:1046F0000CF0FDC06091B6027091B70280E090E0CE
:10470000AED420E030E040E251E410D46F837887EB
:1047100089879A876091B4027091B50280E090E039
:104720009ED420E030E040E251E400D46B877C87E7
:104730008D879E87E0916A03F0916B03F88BEF877A
:104740006091CA027091CB0280E090E088D420E0B2
:1047500030E040E251E4EAD3562E472E89839D8310
:10476000272C3B88098962C0272D3B894989562D12
:10477000C701B601D7D318160CF4B2CF6091B402BA
:104780007091B50280E090E06AD420E030E040E231
:1047900051E4CCD36F83788789879A876091B2027E
:1047A0007091B30280E090E05AD420E030E040E223
:1047B00051E4BCD36B877C878D879E8720916803EB
:1047C00030916903388B2F8792C09101A801C701EE
:1047D000B601A8D318160CF461CF6091B2027091A3
:1047E000B30280E090E03BD420E030E040E251E4CE
:1047F0009DD36F83788789879A876091B002709183
:10480000B10280E090E02BD420E030E040E251E4BF
:104810008DD36B877C878D879E87409166035091EF
:104820006703588B4F8729883B88072D162D5FC05B
:1048300029893B89472D562DC701B60173D3181618
:104840000CF408CF6091B0027091B10280E090E06A
:1048500006D420E030E040E251E468D36F837887EB
:1048600089879A876091AE027091AF0280E090E0F4
:10487000F6D320E030E040E251E458D36B877C87E8
:104880008D879E878091640390916503988B8F87B5
:104890002EC09101A801C701B60144D318160CF42B
:1048A000B7CE6091AE027091AF0280E090E0D7D3B6
:1048B00020E030E040E251E439D36F837887898784
:1048C0009A87A0916203B0916303B88BAF87522C93
:1048D000432C09831D83212C312C00E010E020E0C3
:1048E00030E040EA51E42B873C874D875E874F8557
:1048F00058894130510549F0E0918306F0918406D2
:104900004F81588569857A8525C02B853C854D85E5
:104910005E856F81788589859A859FD2252D342D76
:1049200049815D8103D32B013C019101A801C7019D
:10493000B60193D29B01AC01C301B20146D42B85D1
:104940003C854D855E858AD2AB01BC01E091830632
:10495000F0918406808191810E943C03E09183065E
:10496000F09184060190F081E02DEC53FF4F20E0A0
:1049700030E040E251E4608171818281938125D4ED
:1049800042D370932103609320030E94C51B0E94B1
:10499000C8190E94C41B6091C2027091C30280E0DA
:1049A00090E05DD320E030E040E251E4BFD26B0103
:1049B0007C016091C4027091C50280E090E04FD309
:1049C00020E030E040E251E4B1D29B01AC01C701EC
:1049D000B60144D26B017C016091C6027091C7029E
:1049E00080E090E03CD320E030E040E251E49ED211
:1049F0009B01AC01C701B60131D26B017C01609112
:104A0000C8027091C90280E090E029D320E030E034
:104A100040E251E48BD29B01AC01C701B6011ED22A
:104A20006B017C016091CA027091CB0280E090E042
:104A300016D320E030E040E251E478D29B01AC0193
:104A4000C701B6010BD2DAD22B013C010E946901E9
:104A5000A501940102D26B017C01C301B20101D313
:104A60009B01AC01C701B601ACD318160CF48FC082
:104A70000E946901A5019401F0D120E030E0A90174
:104A800051D287FF15C0A501940160E070E080E875
:104A90009FE4E3D19B01AC0160E070E0CB01DDD18C
:104AA00060938603709387038093880390938903B0
:104AB0008091360390913703019709F06DC060E053
:104AC00088E00E94A6110E949F1368CD0E947C037B
:104AD000609120037091210380E090E0C0D220E03B
:104AE00030E040E251E422D2AB01BC01E091830608
:104AF000F0918406808191810E943C030E94C51B35
:104B00000E94C8190E94C41B0E946901C0908A03B8
:104B1000D0908B03E0908C03F0908D03A701960159
:104B20009CD14B015C0160912E0370912F0380E0BA
:104B300090E095D220E030E040E251E4F7D19B01D3
:104B4000AC01C501B4013DD318160CF10E946901F6
:104B5000A701960182D120E030E0A901E3D187FFCF
:104B6000A7CFA701960160E070E080E89FE475D1CF
:104B70009B01AC0160E070E0CB016FD160938A03D0
:104B800070938B0380938C0390938D0391CF10923D
:104B90003703109236038CCF0E947C030E94A81921
:104BA0000E94C41B0E94690160938A0370938B0367
:104BB00080938C0390938D030E9469016093860318
:104BC00070938703809388039093890378CF1F9312
:104BD000CF93DF93EFEFF3E01382128288EE93E03E
:104BE000A0E0B0E084839583A683B78320E232E01F
:104BF0003183208345E351E05587448744E351E006
:104C00005787468740E351E0518B408B41E351E0A9
:104C1000538B428B42E351E0558B448B46E351E08A
:104C2000578B468B118E128E138E148EECE9F4E0A6
:104C30001382128284839583A683B7833183208372
:104C400045ED50E05587448744ED50E0578746874F
:104C500040ED50E0518B408B41ED50E0538B428B47
:104C600042ED50E0558B448B46ED50E0578B468B20
:104C7000118E128E138E148EE9E3F5E013821282E8
:104C800084839583A683B783318320834DEC50E0E2
:104C9000558744874CEC50E05787468748EC50E0F6
:104CA000518B408B49EC50E0538B428B4AEC50E0E7
:104CB000558B448B4EEC50E0578B468B118E128EE9
:104CC000138E148EE6EDF5E01382128284839583B1
:104CD000A683B7833183208325EC30E03587248792
:104CE00024EC30E03787268720EC30E0318B208BB6
:104CF00021EC30E0338B228B22EC30E0358B248B9F
:104D000026EC30E0378B268B118E128E138E148E8C
:104D1000E3E7F6E01382128284839583A683B78348
:104D200082E392E09183808310920307E4EAF6E045
:104D300081E0848383E0858312E0168388EE93E02C
:104D40009093F8068093F706E4E0F7E0148213826C
:104D50008AE4808388E08183128285E0A6E8B6E059
:104D600001900D928A95E1F7C6E8D6E080E090E0E8
:104D7000AAE7B3E48A8B9B8BAC8BBD8B0E94D411CA
:104D80001D831F821E820E94FE10EFE7F6E0118253
:104D900010821382128215821482DF91CF911F91AB
:104DA0000895809183069091840616C3052E97FB83
:104DB00016F400940FD057FD05D01ED007FC02D08A
:104DC00046F408C050954095309521953F4F4F4F80
:104DD0005F4F089590958095709561957F4F8F4FA7
:104DE0009F4F08952BD0A59F900DB49F900DA49F29
:104DF000800D911D11240895A1E21A2EAA1BBB1B40
:104E0000FD010DC0AA1FBB1FEE1FFF1FA217B30796
:104E1000E407F50720F0A21BB30BE40BF50B661FAC
:104E2000771F881F991F1A9469F760957095809570
:104E300090959B01AC01BD01CF010895A29FB001E7
:104E4000B39FC001A39F700D811D1124911DB29FBE
:104E5000700D811D1124911D08955058BB27AA275C
:104E60000ED075C166D130F06BD120F031F49F3F88
:104E700011F41EF45BC10EF4E095E7FB51C1E92F7C
:104E800077D180F3BA17620773078407950718F084
:104E900071F49EF58FC10EF4E0950B2EBA2FA02D64
:104EA0000B01B90190010C01CA01A0011124FF27D7
:104EB000591B99F0593F50F4503E68F11A16F040D2
:104EC000A22F232F342F4427585FF3CF46953795D1
:104ED0002795A795F0405395C9F77EF41F16BA0B96
:104EE000620B730B840BBAF09150A1F0FF0FBB1F44
:104EF000661F771F881FC2F70EC0BA0F621F731F8D
:104F0000841F48F4879577956795B795F7959E3FE9
:104F100008F0B3CF9395880F08F09927EE0F979577
:104F200087950895D9D008F481E008950CD00FC179
:104F300007D140F0FED030F021F45F3F19F0F0C00F
:104F4000511139C1F3C014D198F39923C9F35523F2
:104F5000B1F3951B550BBB27AA276217730784076C
:104F600038F09F5F5F4F220F331F441FAA1FA9F322
:104F700033D00E2E3AF0E0E830D091505040E69514
:104F8000001CCAF729D0FE2F27D0660F771F881F75
:104F9000BB1F261737074807AB07B0E809F0BB0B64
:104FA000802DBF01FF2793585F4F2AF09E3F510588
:104FB00068F0B6C000C15F3FECF3983EDCF3869525
:104FC00077956795B795F7959F5FC9F7880F911DFE
:104FD0009695879597F90895E1E0660F771F881FEA
:104FE000BB1F621773078407BA0720F0621B730B9D
:104FF000840BBA0BEE1F88F7E095089504D06894EF
:10500000B111D9C00895BCD088F09F5790F0B92F46
:105010009927B751A0F0D1F0660F771F881F991F0D
:105020001AF0BA95C9F712C0B13081F0C3D0B1E01F
:105030000895C0C0672F782F8827B85F39F0B93F2F
:10504000CCF3869577956795B395D9F73EF490950F
:105050008095709561957F4F8F4F9F4F0895E8948D
:1050600009C097FB3EF490958095709561957F4FB0
:105070008F4F9F4F9923A9F0F92F96E9BB2793955E
:10508000F695879577956795B795F111F8CFFAF46E
:10509000BB0F11F460FF1BC06F5F7F4F8F4F9F4F9F
:1050A00016C0882311F096E911C0772321F09EE8FD
:1050B000872F762F05C0662371F096E8862F70E063
:1050C00060E02AF09A95660F771F881FDAF7880F3D
:1050D0009695879597F90895990F0008550FAA0B93
:1050E000E0E8FEEF16161706E807F907C0F01216FB
:1050F0001306E407F50798F0621B730B840B950BFE
:1051000039F40A2661F0232B242B252B21F4089552
:105110000A2609F4A140A6958FEF811D811D0895EF
:1051200097F99F6780E870E060E008959FEF80EC5A
:10513000089500240A9416161706180609060895FD
:1051400000240A9412161306140605060895092E63
:105150000394000C11F4882352F0BB0F40F4BF2BD2
:1051600011F460FF04C06F5F7F4F8F4F9F4F089512
:1051700057FD9058440F551F59F05F3F71F0479508
:10518000880F97FB991F61F09F3F79F087950895ED
:10519000121613061406551FF2CF4695F1DF08C00C
:1051A000161617061806991FF1CF86957105610529
:1051B00008940895E894BB2766277727CB0197F9D1
:1051C00008958ADF08F48FEF08950BD0C0CFB1DFC8
:1051D00028F0B6DF18F0952309F0A2CFA7CF11244D
:1051E000EACFC6DFA0F3959FD1F3950F50E0551F8E
:1051F000629FF001729FBB27F00DB11D639FAA272C
:10520000F00DB11DAA1F649F6627B00DA11D661F7A
:10521000829F2227B00DA11D621F739FB00DA11D9B
:10522000621F839FA00D611D221F749F3327A00D55
:10523000611D231F849F600D211D822F762F6A2FF1
:1052400011249F5750408AF0E1F088234AF0EE0F76
:10525000FF1FBB1F661F771F881F91505040A9F783
:105260009E3F510570F05CCFA6CF5F3FECF3983EB8
:10527000DCF3869577956795B795F795E7959F5FEA
:10528000C1F7FE2B880F911D9695879597F9089584
:1052900023DF880B990B0895EE0FFF1F881F8BBF2C
:1052A0000790F691E02D19940F931F93CF93DF93FE
:1052B0008230910510F482E090E0E0916407F09173
:1052C000650720E030E0A0E0B0E0309719F14081C0
:1052D00051810281138148175907C8F08417950737
:1052E00069F4109731F012960C93129713961C9351
:1052F00027C0009364071093650722C0211531056C
:1053000019F04217530718F49A01BD01EF01DF01AC
:10531000F801DBCF21153105F9F0281B390B2430BA
:10532000310580F48A819B816115710521F0FB01B3
:105330009383828304C09093650780936407FE0182
:10534000329644C0FE01E20FF31F819391932250E5
:105350003109398328833AC020916207309163076D
:10536000232B41F420910302309104023093630710
:10537000209362072091010230910202211531052C
:1053800041F42DB73EB74091050250910602241B0F
:10539000350BE0916207F0916307E217F307A0F481
:1053A0002E1B3F0B2817390778F0AC014E5F5F4F7B
:1053B0002417350748F04E0F5F1F50936307409343
:1053C00062078193919302C0E0E0F0E0CF01DF91AA
:1053D000CF911F910F910895CF93DF93009709F418
:1053E00081C0FC01329713821282A0916407B091B0
:1053F0006507109781F420813181820F931F2091DE
:105400006207309163072817390751F5F093630756
:10541000E093620767C0ED0120E030E0CE17DF07C0
:1054200040F44A815B819E0141155105F1F0EA018A
:10543000F5CFD383C28340815181840F951FC81754
:10544000D90759F488819981840F951F0296918319
:1054500080838A819B81938382832115310529F47E
:10546000F0936507E09364073DC0E901FB83EA839D
:1054700049915991C40FD51FEC17FD0761F4808144
:105480009181840F951F0296E90199838883828117
:1054900093819B838A83E0E0F0E012968D919C914A
:1054A0001397009719F0FD01DC01F7CF8D919C91C6
:1054B00011979D012E5F3F4F820F931F209162072E
:1054C000309163072817390769F4309729F410924F
:1054D00065071092640702C013821282B0936307BB
:1054E000A0936207DF91CF91089581E090E0F89456
:1054F00009C0FB01DC0102C001900D9241505040F7
:10550000D8F7089511E0C6E3D1E000E005C0802F90
:10551000FE01C2DE2196011DC733D10780E00807D6
:06552000B1F7F894FFCF83
:10552600FF0000660780000102030405060F100055
:1055360000C84200007A440100002041000000003B
:1055460032138512AF127E13E012BE12D212000081
:105556000000541428148314FC1320140C14FD1397
:105566002C20000D0A00556E6578706563746564BD
:10557600204D616E7566616374757265722049446B
:105586003A20307800556E657870656374656420DE
:1055960050726F647563742049443A203078006E07
:0C55A600616E00696E66006F76660000A2
:00000001FF
