:1000000036C1000065C1000063C1000061C100008D
:100010005FC100005DC100005BC1000059C100006C
:1000200057C100000C9439130C9439130C943913F4
:100030004FC100000C94A20F4BC1000049C1000049
:1000400047C1000045C1000043C1000041C100009C
:100050003FC100003DC100003BC100000C94FF1BEC
:1000600037C100000C9423110C94FA1031C1000028
:100070002FC100002DC100002BC1000029C10000CC
:1000800027C1000025C1000023C1000021C10000DC
:100090000C94D0100C94A7101BC100000C944D11AF
:1000A00017C1000015C1000013C1000011C10000FC
:1000B0000FC100000DC100000BC1000009C100000C
:1000C00007C1000005C1000003C100000C947D10B1
:1000D0000C945410FDC000000C942A100C940110D4
:1000E000F7C00000A904A9045606560638064A06B9
:1000F0006A066A066A066A066A066A066A066A0680
:10010000A9045606DB04DB04CE06CE06040743072B
:1001100019051905190519051905190519051905EF
:100120005207A307141B171B061B0A1B101B4E1B91
:100130001B1B1F1B251B291B2D1B331B371B3B1B8D
:100140004E1B411B451B491B0000200023002600BD
:1001500029002C002F0032000001000003010601DD
:1001600009010200002200250028002B002E00318A
:1001700000340002010000050108010B010505051E
:1001800005070508080808020202020A0A0808040E
:10019000040404010101010101010103030303033C
:1001A000030303040707070C0C0C0C0C0C0C0C02CB
:1001B00002020206060606060606060B0B0B0B0BD2
:1001C0000B0B0B01021020200808102040102040CB
:1001D000800201020108040201010204081020400B
:1001E0008080402010080402018004020180402029
:1001F0001008040201080402010102040810204052
:1002000080010204081020408000000A0B02090C43
:100210000D0E0807030401000000000000000000AC
:1002200000000000000000000000000000000000CE
:10023000000000000012111000000000000000008B
:1002400000000000000000000000000000000000AE
:10025000002100240027002A002D00300033000177
:10026000010000040107010A0100D825BB25112463
:100270001FBECFEFD1E2DEBFCDBF00E00CBF12E06A
:10028000A0E0B2E0ECECF4E500E00BBF02C00790A8
:100290000D92AA38B107D9F727E0AAE8B2E001C069
:1002A0001D92A536B207E1F711E0C6E3D1E000E008
:1002B00006C021970109802FFE010E941F29C53326
:1002C000D10780E00807A9F70E94491C0C94552A21
:1002D00097CE0E94961B0E94022820E034E244E759
:1002E00059E40C94692708951F93CF93DF93EC0191
:1002F0000E943919182FCE0101960E94391990E0F9
:10030000982F8827810F911DDF91CF911F9108951C
:100310000F931F93CF93DF938C01EB01CB01E4DFAD
:100320008017910759F0602FCE010E949E17612F10
:10033000CE0101960E949E1781E001C080E0DF910E
:10034000CF911F910F9108952F923F924F925F92FC
:100350006F927F928F929F92AF92BF92CF92DF92D5
:10036000EF92FF920F931F93CF93DF9300D01F92D2
:10037000CDB7DEB79C838B83FC01ED53FF4F8081AB
:100380000B811C8109571F4F882309F465C00E9407
:10039000F31B6B017C01F80180809180A280B38007
:1003A0002DEC3CEC4CE45DE3EB81FC81E557FF4F29
:1003B00060817181828193810E94B8282B013C0168
:1003C00020E030E040EB51E4C501B4010E94002779
:1003D000EB81FC81ED56FF4F2081318142815381B9
:1003E0000E94B8289B01AC01C301B2010E94002702
:1003F000EB81FC81E956FF4F20813181428153819D
:100400000E9469272B013C012B803C80FBE92F0EC9
:10041000311CF10180819181B601681B790B072E97
:10042000000C880B990B0E9404289B01AC01C301AE
:10043000B2010E94B828A50194010E940127F80189
:1004400060837183828393830E94F31BF101608335
:100450007183828393838BC0EB80FC80F6E4EF0E84
:10046000F11CF70163817481636E716880810E9461
:10047000E01680EB94E00E948B1BF70180810E94C4
:100480003D17F7012281022E02C0969587950A94A6
:10049000E2F7222329F08115F8E09F0708F0906F1A
:1004A000CB80DC8024E5C20ED11CF60191838083D1
:1004B000F70163817481636E716B80810E94E01625
:1004C00080EB94E00E948B1BF70180810E943D1716
:1004D000F7012281022E02C0969587950A94E2F7D1
:1004E000222329F08115F8E09F0708F0906FEB8137
:1004F000FC81EA5AFF4F91838083BC01990F880BDE
:10050000990B0E9404284B015C01F6016081718106
:10051000072E000C880B990B0E9404289B01AC014C
:10052000C501B4010E946927EB81FC81E45BFF4FA8
:1005300020813181428153810E94B828EB81FC8166
:10054000E555FF4F20813181428153810E94B828B7
:10055000EB81FC81E155FF4F208131814281538144
:100560000E940027F80160837183828393830E9435
:10057000F31BEB81FC81ED58FF4F60837183828315
:1005800093832B803C80FFE62F0E311CF101C0804D
:10059000D180E280F3809B01AC012C193D094E090A
:1005A0005F0969017A01EB81FC81E958FF4F808185
:1005B0009181A281B38182179307A407B50708F040
:1005C0003FC0F80180809180A280B3802B813C8164
:1005D0002B593F4F3A8329834B815C814D575F4FA5
:1005E0005C834B83FA012081318142815381C501B3
:1005F000B4010E9400272B013C01C701B6010E94F3
:10060000022820E030E04AE754E40E9469279B0179
:10061000AC01C301B2010E946927E981FA816083BC
:10062000718382839383EB81FC8180829182A28299
:10063000B3820E94F31BF1016083718382839383F1
:10064000F80160817181828193810F900F900F90EA
:100650000F90DF91CF911F910F91FF90EF90DF905E
:10066000CF90BF90AF909F908F907F906F905F9052
:100670004F903F902F9008958F929F92AF92BF928C
:10068000CF92DF92EF92FF92CF93DF93EC016A015A
:100690007B01FC01E158FF4F80809180A280B380F4
:1006A0009A01AB01C501B4010E946527CB53DF4F0E
:1006B00087FF05C088829982AA82BB8212C020E08F
:1006C00030E0A901C701B6010E94652787FF05C078
:1006D000188219821A821B8204C0C882D982EA82D7
:1006E000FB82DF91CF91FF90EF90DF90CF90BF9092
:1006F000AF909F908F9008954F925F926F927F92EC
:10070000AF92BF92CF92DF92EF92FF920F931F931F
:10071000CF93DF93CDB7DEB72A970FB6F894DEBF3D
:100720000FBECDBF8FEA92E090933F0780933E07C4
:100730008BE6809350078091F806843028F48091EE
:10074000F3069091F40604C08091F5069091F606A8
:10075000DC01ED91FC910084F185E02D1995882351
:1007600009F416C490913D07891791F080933D07D5
:100770000E94F31BDC01CB010596A11DB11D8093E6
:10078000480790934907A0934A07B0934B0700C4CA
:100790000E94F31B009148071091490720914A07D6
:1007A00030914B07601771078207930708F4F0C375
:1007B00010923D078091F906823050F0809105013A
:1007C0008F7B80930501809105018F7D80930501CA
:1007D00010923C078091F80610E0843008F04BC07E
:1007E0008091F3069091F406DC01ED91FC91008478
:1007F000F185E02D1995892B09F44AC0B0913C0789
:10080000EB2FF0E0FA83E9838091F3069091F406F0
:10081000DC01ED91FC910284F385E02D1995E981CD
:10082000FA81ED50F94F818780913C078F5F80936B
:100830003C078034A8F211E0D3CFB0913C07EB2FF6
:10084000F0E0FA83E9838091F5069091F606DC01E9
:10085000ED91FC910284F385E02D1995E981FA81EF
:10086000ED50F94F818780913C078F5F80933C0763
:10087000803408F011E08091F5069091F606DC01D5
:10088000ED91FC910084F185E02D1995892BA9F655
:100890008091400790914107019690934107809382
:1008A0004007112361F0809144079091450701961C
:1008B0009093450780934407FDEFF98303C020918F
:1008C0003C07298339813093FB0637300CF4ADC0E7
:1008D0009091FC068091F70698135AC380913C07CB
:1008E000A82FB0E0BA83A98382500E942018E98122
:1008F000FA81ED50F94F278130E0322F22274085D1
:10090000242B2817390761F08091440790914507FF
:1009100001969093450780934407BFEFB98347C082
:100920004091FD06E7E0F2E08FE092E0219124178C
:1009300009F491C18E179F07C9F7809144079091E0
:10094000450701969093450780934407A1E00C94D6
:10095000D80C8091FE069091FF069827892798274A
:100960009C0184E0369527958A95E1F780910007F0
:100970009091010798278927982754E096958795A5
:100980005A95E1F7820F931F90915007981708F03E
:10099000A1C192E0998380E8840F8093FD06F981DC
:1009A000F093FE0683E080933C070E943C18E981A7
:1009B000E093FB063AC02091FE063091FF063227F5
:1009C00023273227409100075091010754274527DC
:1009D0005427FA0113E0F695E7951A95E1F78E2F63
:1009E000BA01677077276115710511F081E08E0FEC
:1009F0008093FE0683E080933C07420F531F90E0F4
:100A0000412C512C320143942417350709F088C139
:100A100080933C07672B19F08F5F80933C07F09120
:100A20003C07FE5FF9830E943C18398135300CF495
:100A3000AFC261E08BE30E949B1A4BDCC0908A023C
:100A4000D0908B02E0908C02F0908D02A70196016D
:100A50000E9400272B013C01609133037091340305
:100A600080E090E00E94022820E030E040E251E483
:100A70000E9469279B01AC01C301B2010E94B42806
:100A800087FD17C026DC60938A0270938B028093E7
:100A90008C0290938D0280913703909138030197D7
:100AA00009F478C20DEC12E088EE93E09A83898312
:100AB00024C00FDCA70196010E94002720E030E04F
:100AC000A9010E94652787FF65C2A701960160E022
:100AD00070E080E89FE40E9400279B01AC0160E089
:100AE00070E0CB010E94002760938A0270938B0212
:100AF00080938C0290938D024DC269817A81D801D6
:100B00008D919D918D0104DCE981FA813496FA83FF
:100B1000E983E115F44089F70FEA12E01A8219829D
:100B200069817A81D8018D919D918D01F1DBE981F7
:100B3000FA813496FA83E983749791F709EB12E00E
:100B400069817A81D8018D919D918D01E1DBE981E7
:100B5000FA813496FA83E983B89791F703EC12E0AF
:100B600069817A81D8018D919D918D01D1DBE981D7
:100B7000FA813496FA83E983FC9791F76CE370E08D
:100B80008091210390912203C3DB60E470E08091A7
:100B9000230390912403BCDB64E470E080912F0375
:100BA00090913003B5DB68E470E08091310390915F
:100BB0003203AEDB6CE470E080915D0390915E03E4
:100BC000A7DB60E570E080915F0390916003A0DB9C
:100BD00064E570E0809161039091620399DB68E5C0
:100BE00070E0809133039091340392DB6CE570E008
:100BF00080917F03909180038BDB60E670E08091B1
:100C000081039091820384DB03E613E024E630E065
:100C10003A83298369817A81D8018D919D918D01D3
:100C200077DBE981FA813496FA83E983E837F105C5
:100C300089F70DE613E069817A81D8018D919D9144
:100C40008D0166DBE981FA813496FA83E983EC3819
:100C5000F10589F79FC1842F90E0FC013197E031C5
:100C6000F105C0F58827EE58FF4F8F4F0C941F29D0
:100C70008091FE069091FF0698278927982704E027
:100C8000969587950A95E1F790915007981708F483
:100C90008EC620C08091FE069091FF069827892776
:100CA00090915007981708F486C614C080910007E9
:100CB00090910107382F292F8091FE069091FF0611
:100CC000982789279827820F931F9091500798178C
:100CD00008F475C60E94F31B209146073091470720
:100CE000DC01CB01820F931FA11DB11D80934C0726
:100CF00090934D07A0934E07B0934F071092FB06B9
:100D0000E091FD068E2F90E0FC013197E031F10576
:100D100008F08FCE8827EE57FF4F8F4F0C941F2976
:100D2000F901A3E0F695E795AA95E1F7EE7FF1705A
:100D3000E155FD4FA081B181E22FEF7002C0B69561
:100D4000A795EA95E2F7E82FF0E0ED50F94FA0FF04
:100D50000EC0A18573016201092E04C0CC0CDD1CFC
:100D6000EE1CFF1C0A94D2F7CA2AC1860FC0730179
:100D70006201092E04C0CC0CDD1CEE1CFF1C0A9481
:100D8000D2F7AC2DA095B185AB23A1879F5F98309A
:100D900010F08F5F90E02F5F3F4F36CE2091FE0620
:100DA0003091FF0632272327322F80910007909140
:100DB0000107982789279827482F440F4093FE065C
:100DC000E3E09927820F911D22E02E0F2983A32FA4
:100DD000B0E0A817B907ACF4AA0FBB1FA155BD4FCF
:100DE0002C9111964C91AE2FB0E0AD50B94F1996A1
:100DF0004C93EF5FF0E0ED50F94F21873F5FE981C1
:100E0000E3CFE0933C070FCE8091FE069091FF0662
:100E1000982789279827FC0194E0F695E7959A95FD
:100E2000E1F7282F2F7080910007FF27EE0FFF1F9B
:100E3000E155FD4F8F3F81F481E090E0A0E0B0E00C
:100E400004C0880F991FAA1FBB1F2A95D2F72081C3
:100E50003181822B932B11C081E090E0A0E0B0E0C3
:100E600004C0880F991FAA1FBB1F2A95D2F780952F
:100E7000909520813181822393239183808386E022
:100E800080933C0782C0E091FF06F0E0EE0FFF1F69
:100E9000E155FD4F80910007909101079827892720
:100EA0009827EBCF8091FE069091FF06982789271F
:100EB0009827409100075091010754274527542750
:100EC000480F591F20E037E0412C512C3201439448
:100ED00084179507A1F2A82FAF70E32FF0E0ED5033
:100EE000F94F618570E0022E02C0759567950A94EE
:100EF000E2F7FC0174E0F695E7957A95E1F7FF27B4
:100F0000EE0FFF1FE155FD4F7301620104C0CC0CD1
:100F1000DD1CEE1CFF1CAA95D2F760FF05C06081A6
:100F20007181C62AD72A06C0C094D094608171818D
:100F3000C622D722D182C0822F5F283010F03F5FB7
:100F400020E00196C5CFE091FF0640910107109285
:100F5000000786E080933C07A3EFB6E0F0E0EE0FD9
:100F6000FF1FE155FD4F20E01296421771F01E96CB
:100F70008C911E9790E0982F88271F963C911F9781
:100F8000832B819391932F5FEFCF0E943C1851CD1B
:100F900060E050CDE091D206F091D30620813181FE
:100FA0003A872987F901E759FF4F11821082409053
:100FB0000F02509010026090110270901202609126
:100FC000D1027091D20280E090E00E940228A30139
:100FD00092010E9469276B017C016091CF027091A0
:100FE000D00280E090E00E940228A30192010E94BA
:100FF000692769837A838B839C836091CD0270918A
:10100000CE0280E090E00E940228A30192010E949B
:1010100069276D837E838F839887E985FA85E156FA
:10102000FF4F6083718382839383E985FA85ED5551
:10103000FF4F89819A81AB81BC8180839183A28398
:10104000B383E985FA85E955FF4FC082D182E282F8
:10105000F38220E030E0A9016D817E818F81988547
:101060000E94652787FD25C020E030E0A901698145
:101070007A818B819C810E94652787FD1AC020E0C0
:1010800030E0A901C701B6010E94652787FD11C0A4
:10109000A985BA855A96AD90BC905B9709811A8153
:1010A0002B813C814D815E816F817885CD010E94CD
:1010B0007E12E091D206F091D306208131813A83ED
:1010C000298379013BEAE30EF11C6091D302709110
:1010D000D40280E090E00E94022820E030E04AE75D
:1010E00054E40E946927D7016D937D938D939C935F
:1010F0001397E980FA80BFEAEB0EF11C6091D502EC
:101100007091D60280E090E00E940228A301920133
:101110000E946927F70160837183828393836091C2
:10112000D7027091D80280E090E00E940228E98105
:10113000FA81E554FF4F6083718382839383E98151
:10114000FA81E45BFF4F6083718382839383E9813B
:10115000FA81E158FF4F80E090E0A6E9B3E4808394
:101160009183A283B38380913703909138030197D1
:1011700009F00FC4E091D206F091D30620813181AD
:101180003A832983F901E957FF4F20E030E040E23C
:1011900051E460817181828193810E94B8280E940C
:1011A000D62770933C0360933B03E981FA81E557AE
:1011B000FF4FA981BA81A558BF4F2D913D914D9107
:1011C0005C9160817181828193810E94692720E016
:1011D00030E048EC52E40E94B82820E030E040E2E1
:1011E00051E40E94B8280E94D62770934A03609366
:1011F0004903609121037091220380E090E00E94F6
:10120000022820E030E040E251E40E946927AB016F
:10121000BC0189819A8130DA5CD8C0908E02D0906E
:101220008F02E0909002F0909102A70196010E9437
:10123000002720E030E040E85FE30E94B42887FD0B
:101240000EC047D860938E0270938F0280939002F5
:10125000909391022091DA06243028F178C039D891
:10126000A70196010E94002720E030E0A9010E941A
:10127000652787FF97C0A701960160E070E080E8CE
:101280009FE40E9400279B01AC0160E070E0CB016D
:101290000E94002760938E0270938F0280939002C9
:1012A000909391027FC06091DD067091DE066360CD
:1012B00071608091D8069091D906682B792B2230E5
:1012C00041F0233041F0213011F0706405C07065A9
:1012D00003C0706601C07067C090DF06D090E00662
:1012E000E090E106F090E20670688091D5060E94D9
:1012F000E01620E030E040E251E4C701B6010E9470
:10130000652787FF0EC020E030E04AE754E4C701BC
:10131000B6010E94B8280E94D127CB010E948B1BE6
:101320000AC0C701B6010E94D127072E000C880B06
:10133000990B0E94BB1B8091D5060E943D1700901F
:10134000D70602C0969587950A94E2F702C080E01E
:1013500090E0BC0180E090E00E9402282091E3062A
:101360003091E4064091E5065091E6060E94B828C7
:101370002091E7063091E8064091E9065091EA068F
:101380000E9400276093EF067093F0068093F106A9
:101390009093F2066093920270939302809394026A
:1013A0009093950220E030E04FE254E46091920285
:1013B0007091930280919402909195020E94B428BA
:1013C000181644F410929202109293021092940212
:1013D0001092950220E030E040E251E460919202E8
:1013E0007091930280919402909195020E94B82886
:1013F0000E94D62770937E0360937D03EFE3F2E0B3
:101400008491E9EFF1E034913D83E3EBF1E09491D5
:101410009983992309F4C2C281110E94F91AA98102
:10142000EA2FF0E0EE0FFF1FE85BFE4FA591B491AD
:10143000EC91BD81EB2309F4B1C281E090E090937F
:1014400078038093770360913B0370913C0380E0C5
:1014500090E00E9402286B017C0160917F037091F3
:10146000800380E090E00E94022826E636E646E807
:101470005FE30E94B8289B01AC01C701B6010E943E
:10148000B42818160CF06FC280913703909138037E
:10149000019709F068C2E0918103F0918203FA8319
:1014A000E983809100028F3321F08F3F09F0EEC273
:1014B00004C0E2E6F1E01491D3C08FE38093000210
:1014C000E2E6F1E014911F3F09F4E0C2123009F4A2
:1014D00066C028F5112309F449C0113009F0C0C0D5
:1014E000109280001092810080918100886080932A
:1014F000810080918100816080938100ECEBF1E0BC
:10150000E491F0E0EE0FFF1FED59FE4F85919491AD
:10151000E2E0F2E0E491E093990211E048C1143076
:1015200009F47FC008F45EC0153009F099C010922C
:101530002001109221018091210188608093210176
:1015400080912101816080932101ECEBF1E0E49135
:10155000F0E0EE0FFF1FED59FE4F85919491E2E010
:10156000F2E0E491E093960215E021C114BC15BCB1
:1015700084B5826084BD85B5816085BDECEBF1E00A
:10158000E491F0E0EE0FFF1FED59FE4F859194912D
:10159000E2E0F2E0E491E0939A0210E072C210926D
:1015A000B0001092B1008091B00082608093B000D2
:1015B0008091B10081608093B100ECEBF1E0E491A7
:1015C000F0E0EE0FFF1FED59FE4F8591949190933F
:1015D000900380938F03E2E0F2E0E491E0939103C3
:1015E00012E04FC2109290001092910080919100F1
:1015F0008860809391008091910081608093910038
:10160000ECEBF1E0E491F0E0EE0FFF1FED59FE4F3F
:1016100085919491E2E0F2E0E491E093980213E086
:10162000C6C01092A0001092A1008091A100886015
:101630008093A1008091A10081608093A100ECEBD8
:10164000F1E0E491F0E0EE0FFF1FED59FE4F8591C0
:101650009491E2E0F2E0E491E093970214E0A7C0F5
:1016600017FD14C261E08FE30E944F1B812F8D7F15
:1016700009F0A1C029813A816901E12CF12C60E0D7
:1016800072E18AE790E0A70196010E94C226290133
:101690003A01BA01A90141505109610971094F3F4D
:1016A00051056105710509F008F445C060E472E474
:1016B0008FE090E0A70196010E94C226BA01A9011D
:1016C00041505109610971091230E9F44F3F510548
:1016D0006105710509F008F468C160E970ED83E007
:1016E00090E0A70196010E94C226BA01A9014150CB
:1016F0005109610971094F3F51056105710509F0F3
:1017000020F583E04DC04F3F510561057105A9F0FB
:10171000A0F068E478EE81E090E0A70196010E94D5
:10172000C226BA01A9014150510961097109112369
:1017300009F449C19EC181E001C082E0111130C0AD
:1017400095B5987F892B85BD95C068E478EE81E0DA
:1017500090E0A70196010E94C226BA01A90141505A
:101760005109610971094F3F51056105710509F082
:1017700008F419C164E274EF80E090E0A7019601DB
:101780000E94C226BA01A90141505109610971099B
:101790004F3F51056105710511F008F043C185E027
:1017A0009091B100987F892B8093B10052C061E085
:1017B0008FE30E944F1B89819A816C01E12CF12CEF
:1017C00060E072E18AE790E0A70196010E94C226DC
:1017D000BA01A90141505109610971094115510529
:1017E00091E06907710580F068E478EE81E090E0AF
:1017F000A70196010E94C226BA01A90141505109D0
:101800006109710983E001C081E0113039F49091E0
:101810008100987F892B809381003EC0133039F47A
:1018200090919100987F892B809391005DC0143036
:1018300039F49091A100987F892B8093A10069C011
:10184000153039F490912101987F892B80932101E3
:1018500075C01230B1F134F4112361F0113009F088
:1018600015C11AC0143009F454C0F4F1153009F44C
:1018700065C00CC147BD8FEF9FEFDC018093AB02C9
:101880009093AC02A093AD02B093AE0280916E0033
:10189000826080936E00FAC0509389004093880064
:1018A0008FEF9FEFDC018093A7029093A802A09393
:1018B000A902B093AA0280916F00826080936F00AA
:1018C000E5C04093B3008FEF9FEFDC01809392035C
:1018D00090939303A0939403B09395038091700029
:1018E000826080937000D2C050939900409398001A
:1018F0008FEF9FEFDC018093A3029093A402A0934B
:10190000A502B093A602809171008260809371005D
:10191000BDC05093A9004093A8008FEF9FEFDC015A
:1019200080939F029093A002A093A102B093A20281
:1019300080917200826080937200A8C05093290148
:10194000409328018FEF9FEFDC0180939B029093DF
:101950009C02A0939D02B0939E02809173008260CE
:101960008093730093C08FE32A960FB6F894DEBF7E
:101970000FBECDBFDF91CF911F910F91FF90EF90E0
:10198000DF90CF90BF90AF907F906F905F904F901F
:1019900095C289819A810E94A401ECCB10927803B0
:1019A0001092770350CD84E0FBCE82E0F9CEA2E026
:1019B000A9830C94CB04B2E0B9830C94CB04E2E08D
:1019C000E9830C94CB044F3F51056105710541F14A
:1019D00038F162E17AE780E090E0A70196010E9489
:1019E000C226BA01A90141505109610971094F3F4D
:1019F00051056105710591F088F0D301C2013AE00B
:101A0000B595A795979587953A95D1F7AC01BD0106
:101A1000415051096109710985E092CE84E090CE70
:101A200083E08ECE62E17AE780E090E0A701960144
:101A30000E94C226BA01A9014150510961097109E8
:101A40004F3F51056105710591F088F0D301C20146
:101A50002AE0B595A795979587952A95D1F7AC017A
:101A6000BD01415051096109710987E099CE86E0B5
:101A700097CE4F3F51056105710509F098F684E056
:101A80005DCE61E08FE30E944F1BF4CD2A960FB626
:101A9000F894DEBF0FBECDBFDF91CF911F910F91A4
:101AA000FF90EF90DF90CF90BF90AF907F906F90BE
:101AB0005F904F900895CF92DF92EF92FF920F9335
:101AC0001F93CF93DF936C017A018B01C0E0D0E0CC
:101AD000CE15DF0581F0D8016D918D01D601ED9114
:101AE000FC910190F081E02DC6011995892B11F030
:101AF0002196EECF7E01C701DF91CF911F910F910B
:101B0000FF90EF90DF90CF900895FC01538D448DAE
:101B1000252F30E0842F90E0821B930B541710F098
:101B2000CF96089501970895FC01918D828D9817A5
:101B300061F0828DDF01A80FB11D5D968C91928DB1
:101B40009F5F9F73928F90E008958FEF9FEF0895AE
:101B5000FC01918D828D981731F0828DE80FF11D77
:101B6000858D90E008958FEF9FEF0895FC01918D92
:101B7000228D892F90E0805C9F4F821B91098F738B
:101B8000992708958EE494E0F1DF21E0892B09F490
:101B900020E0822F08958BEE94E0E8DF21E0892B8E
:101BA00009F420E0822F089588E895E0DFDF21E046
:101BB000892B09F420E0822F089585E296E0D6DF94
:101BC00021E0892B09F420E0822F0895FC01848D07
:101BD000DF01A80FB11DA35ABF4F2C91848D90E057
:101BE00001968F739927848FA689B7892C93A08932
:101BF000B1898C91837080648C93938D848D9813BC
:101C000006C00288F389E02D80818F7D808308954E
:101C1000EF92FF920F931F93CF93DF93EC0181E03C
:101C2000888F9B8D8C8D981305C0E889F9898081F8
:101C300085FD25C0F62E0B8D10E00F5F1F4F0F7333
:101C40001127E02E8C8DE8120BC00FB607FCFACFDF
:101C5000E889F989808185FFF5CFCE01B7DFF2CF22
:101C60008B8DFE01E80FF11DE35AFF4FF0829FB705
:101C7000F8940B8FEA89FB89808180620AC09FB744
:101C8000F894EE89FF896083E889F98980818370FF
:101C9000806480839FBF81E090E0DF91CF911F91AE
:101CA0000F91FF90EF900895CF93DF93EC01888D13
:101CB0008823C1F0EA89FB89808185FD05C0A88958
:101CC000B9898C9186FD0EC00FB607FCF5CF8081D7
:101CD00085FFF2CFA889B9898C9185FFEDCFCE0120
:101CE00075DFE8CFDF91CF91089580E090E0892BF8
:101CF00019F063DF811116C080E090E0892B19F0A4
:101D000053DF811112C080E090E0892B19F043DF8E
:101D100081110EC080E090E0892B79F033DF8111D2
:101D20000AC008950E940000E7CF0E940000EBCF98
:101D30000E940000EFCF0C940000089585ED809381
:101D4000BC008091BC0084FDFCCF10924904089532
:101D50004091BA03262F30E0240F311D2132310586
:101D6000DCF4209149042430C9F4FC0180E090E0C7
:101D7000861758F43091BA032191DC01A656BC4F66
:101D8000A30FB11D2C930196F3CF8091BA03680F76
:101D90006093BA0380E0089581E0089582E0089599
:101DA000089508950895E0914D0480914C04E8173A
:101DB00030F4F0E0E352FC4F808190E008958FEF23
:101DC0009FEF089590914D0480914C04981750F422
:101DD000E92FF0E0E352FC4F208130E09F5F9093C9
:101DE0004D0402C02FEF3FEFC901089580914C04CC
:101DF00090E020914D04821B91090895CF92DF92CB
:101E0000EF92FF920F931F93CF93DF937C01CB014F
:101E10008A0120912104222389F0EB016B01C40E79
:101E2000D51ECC15DD0561F06991D701ED91FC91CE
:101E30000190F081E02DC7011995F3CF642F88DF61
:101E4000C801DF91CF911F910F91FF90EF90DF902C
:101E5000CF900895CF93DF931F92CDB7DEB76983FC
:101E6000209121042223D1F020914A04203240F015
:101E700021E030E0FC013383228380E090E014C055
:101E800080914B04E82FF0E0EE5DFB4F9981908349
:101E90008F5F80934B0480934A0404C061E0CE01BD
:101EA000019656DF81E090E00F90DF91CF91089589
:101EB000089580E090E008950E94482A90910002E1
:101EC00089133DC0E2E6F1E0E4919FEF90930002B8
:101ED000E230C9F050F4EE2399F0E13081F59091B1
:101EE0006F009D7F90936F002AC0E43019F1E0F0FD
:101EF000E53029F5909173009D7F909373001FC08A
:101F000010926E001CC0909170009D7F90937000A5
:101F100091E09093B0009091B100987F946090937D
:101F2000B1001092B3000BC0909171009D7F90930F
:101F3000710005C0909172009D7F9093720060E0E7
:101F40000C949B1A1F920F920FB60F9211240BB68E
:101F50000F922F933F934F935F936F937F938F9342
:101F60009F93AF93BF93EF93FF93809192039091D0
:101F70009303A0919403B0919503892B8A2B8B2B0B
:101F800051F190919103E0918F03F0919003808142
:101F9000892780838091920390919303A091940369
:101FA000B0919503181619061A061B06BCF4809109
:101FB000920390919303A0919403B091950301979C
:101FC000A109B1098093920390939303A093940382
:101FD000B093950303C08091000270DFFF91EF91F1
:101FE000BF91AF919F918F917F916F915F914F9131
:101FF0003F912F910F900BBE0F900FBE0F901F902F
:1020000018951F920F920FB60F9211240BB60F92D4
:102010002F933F934F935F936F937F938F939F93F0
:10202000AF93BF93EF93FF938EE494E0CFDDFF91E6
:10203000EF91BF91AF919F918F917F916F915F9140
:102040004F913F912F910F900BBE0F900FBE0F90AD
:102050001F9018951F920F920FB60F9211240BB676
:102060000F922F933F934F935F936F937F938F9331
:102070009F93AF93BF93EF93FF938EE494E00E94FE
:10208000821AFF91EF91BF91AF919F918F917F91B4
:102090006F915F914F913F912F910F900BBE0F90D9
:1020A0000FBE0F901F9018951F920F920FB60F92B0
:1020B00011240BB60F922F933F934F935F936F931F
:1020C0007F938F939F93AF93BF93EF93FF938BEE89
:1020D00094E07CDDFF91EF91BF91AF919F918F9143
:1020E0007F916F915F914F913F912F910F900BBE18
:1020F0000F900FBE0F901F9018951F920F920FB662
:102100000F9211240BB60F922F933F934F935F932F
:102110006F937F938F939F93AF93BF93EF93FF93AF
:102120008BEE94E00E94821AFF91EF91BF91AF91E4
:102130009F918F917F916F915F914F913F912F91DF
:102140000F900BBE0F900FBE0F901F9018951F920F
:102150000F920FB60F9211240BB60F922F933F934D
:102160004F935F936F937F938F939F93AF93BF939F
:10217000EF93FF9388E895E029DDFF91EF91BF9100
:10218000AF919F918F917F916F915F914F913F910F
:102190002F910F900BBE0F900FBE0F901F901895B0
:1021A0001F920F920FB60F9211240BB60F922F931E
:1021B0003F934F935F936F937F938F939F93AF93CF
:1021C000BF93EF93FF9388E895E00E94821AFF91F6
:1021D000EF91BF91AF919F918F917F916F915F919F
:1021E0004F913F912F910F900BBE0F900FBE0F900C
:1021F0001F9018951F920F920FB60F9211240BB6D5
:102200000F922F933F934F935F936F937F938F938F
:102210009F93AF93BF93EF93FF9385E296E0D6DC55
:10222000FF91EF91BF91AF919F918F917F916F91AE
:102230005F914F913F912F910F900BBE0F900FBE6A
:102240000F901F9018951F920F920FB60F921124A6
:102250000BB60F922F933F934F935F936F937F93A0
:102260008F939F93AF93BF93EF93FF9385E296E095
:102270000E94821AFF91EF91BF91AF919F918F9130
:102280007F916F915F914F913F912F910F900BBE76
:102290000F900FBE0F901F9018951F920F920FB6C0
:1022A0000F9211240BB60F922F933F934F935F938E
:1022B0006F937F938F939F93AF93BF93EF93FF930E
:1022C0008091B900887F803609F49CC068F5883217
:1022D00009F45BC090F4803109F454C038F48823C9
:1022E00009F4F6C0883009F44DC0F5C0883109F40E
:1022F0004CC0803209F45DC0EEC0803409F468C07F
:1023000048F4803309F455C0883309F0E4C0809361
:102310002004D8C0803509F44FC0883509F45DC069
:10232000883409F0D8C0D6C0883909F4C7C0A8F4E9
:10233000883709F467C038F4883609F463C08037F9
:1023400009F460C0C8C0883809F4B8C0803909F4FD
:102350005FC0803809F0BFC05BC0803B09F486C015
:1023600038F4803A09F466C0883A09F47FC0B3C0F3
:10237000803C09F4A7C0883C09F4A4C0883B09F458
:102380008AC0A9C08091FD0310C090911F04809164
:102390001E04981770F5E0911F0481E08E0F809362
:1023A0001F04F0E0E250FC4F80818093BB0085EC7D
:1023B00086C0809320048EC0E0911F0481E08E0FC0
:1023C00080931F048091BB00F0E0E250FC4F8083BB
:1023D00090911F0480911E046EC0E0911F0481E063
:1023E0008E0F80931F048091BB00F0E0E250FC4F01
:1023F00080838091480481116DC081E080934704FF
:1024000084EA61C083E0809349041092DC03CFCF5B
:102410008091DC03803208F051C0E091DC0381E060
:102420008E0F8093DC038091BB00F0E0E454FC4FFE
:102430008083BDCF85EC8093BC00109249048091CD
:10244000DC03803230F4E091DC03F0E0E454FC4F34
:1024500010826091DC0370E0E0914304F091440449
:102460008CEB93E019951092DC0335C084E08093E7
:1024700049041092BB031092BA03E0914504F09115
:10248000460419958091BA03811105C081E08093BB
:10249000BA0310929A03E091BB0381E08E0F809300
:1024A000BB03F0E0E656FC4F80818093BB00909127
:1024B000BB038091BA03981708F479CF85E880931D
:1024C000BC0009C085EC8093BC001092490403C095
:1024D0001092200433DCFF91EF91BF91AF919F9157
:1024E0008F917F916F915F914F913F912F910F90BD
:1024F0000BBE0F900FBE0F901F9018954F925F92DA
:102500006F927F928F929F92AF92BF92CF92DF9203
:10251000EF92FF920F931F93CF93DF93CDB7DEB768
:102520002A970FB6F894DEBF0FBECDBF9A87898772
:102530002A013B0109831A832B833C83DC015B96D0
:10254000BC92AE925A9781E0AA94AB2809F080E041
:10255000E985FA8583AF40825182628273828981E4
:102560009A81AB81BC8184839583A683B783C0861F
:10257000D186E286F38666A577A580A991A90E94F7
:10258000022820E030E04AE754E40E9469276D8386
:102590007E838F839887E985FA854486558666868B
:1025A00077869B01AC0169817A818B819C810E9435
:1025B000B8284B015C01A985BA8550966D937D932F
:1025C0008D939C9353972D813E814F815885C701F0
:1025D000B6010E9469276B017C01E985FA85648B4D
:1025E000758B868B978B808D918D019759F5A30103
:1025F000920160E070E0CB010E940027A985BA85B6
:102600001C966D937D938D939C931F97A5019401C8
:1026100060E070E0CB010E940027E985FA85608BBD
:10262000718B828B938BA701960160E070E0CB01E8
:102630000E940027A985BA8554966D937D938D934A
:102640009C9357972A960FB6F894DEBF0FBECDBF66
:10265000DF91CF911F910F91FF90EF90DF90CF907E
:10266000BF90AF909F908F907F906F905F904F90B2
:1026700008951F920F920FB60F9211240F900FBE64
:102680000F901F901895E091D206F091D30601901B
:10269000F081E02D82AD811112C0DF01A557BF4F3F
:1026A0001D921D921D921C921397D8968C918111A8
:1026B00008C060E070E0CF018C599F4F0BC412AE90
:1026C000ECCF08952F923F924F925F926F927F923C
:1026D0008F929F92AF92BF92CF92DF92EF92FF9232
:1026E0000F931F93CF93DF93CDB7DEB72F970FB61E
:1026F000F894DEBF0FBECDBFE091D206F091D306B5
:10270000808191819F878E87DC01DA968C9181117F
:102710004CC0AE85BF855E96ED91FC915F97C08001
:10272000D180E280F380FD01C6A2D7A2E0A6F1A687
:102730005C96ED91FC915D9780819181A281B3813E
:10274000EE85FF8582A793A7A4A7B5A786A897A81B
:10275000A0ACB1ACA5019401C701B6010E94B42898
:10276000AE85BF851816D4F0D2968D909D90AD9011
:10277000BC90D597A5019401C701B6010E946527B9
:1027800087FD05C081E0EE85FF8582AF0EC0EE8536
:10279000FF8586A297A2A0A6B1A6F4CF96968D92A9
:1027A0009D92AD92BC929997EDCF8E859F850E94A8
:1027B000A401EE85FF8582AD882309F438C10E940B
:1027C000F31B6D837E838F839887EE85FF8582A1BF
:1027D00093A1A4A1B5A14D815E816F817885481B2D
:1027E000590B6A0B7B0B86A597A5A0A9B1A9481721
:1027F00059076A077B0708F41AC1048CF58DE02D90
:1028000080819181A281B38189839A83AB83BC83C8
:10281000AE85BF859096ED91FC91919729813A8183
:102820004B815C8160817181828193810E9400274C
:102830004B015C01EE85FF8522A533A544A555A576
:1028400069817A818B819C810E9400276B017C01C8
:10285000AE85BF8550962D913D914D915C915397DA
:10286000C501B4010E94B828EE85FF8526A137A1D5
:1028700040A551A50E9401272B013C01AE85BF85D3
:1028800096966D937D938D939C939997DB96BC91CF
:10289000B987BB2309F4B2C0EE85FF8546A057A0D7
:1028A00060A471A416A907A930AC21AC212F302F48
:1028B000432D522DC301B2010E94B42818160CF406
:1028C00092C0AE85BF85D2968D919D910D90BC91A1
:1028D000A02D8A879B87AC87BD879C01AD01C30172
:1028E000B2010E94652787FD79C0F985F11169C0A1
:1028F000812C912C5401AE85BF8554962D913D912C
:102900004D915C915797C701B6010E94B8289B0171
:10291000AC01EE85FF8566A177A180A591A50E94F7
:102920000027A50194010E940127F62EE72ED82E3C
:10293000C92E262F372F482F592F612F702F832D07
:10294000922D0E94652787FD1BC0AE85BF85D2965C
:102950001C91D297D3960C91D397D4963C90D49750
:10296000D5962C90212F302F432D522D6F2D7E2D5B
:102970008D2D9C2D0E94652787FD02C087011601C1
:10298000AE85BF855E96ED91FC915F97812F902F6C
:10299000A32DB22D80839183A283B38389819A81F1
:1029A000AB81BC81EE85FF8582A793A7A4A7B5A7BD
:1029B0008D819E81AF81B88582A393A3A4A3B5A383
:1029C00036C0EE85FF852485358546855785C5014A
:1029D000B4010E94B8284B015C018DCF8A859B858C
:1029E000AC85BD8504C0812F902FA32DB22DEE851F
:1029F000FF8586A397A3A0A7B1A777CFAE85BF8594
:102A00001C962D913D914D915C911F97C701B60188
:102A10000E94B8289B01AC01C301B2010E940027AB
:102A2000EE85FF8566A377A380A791A735CFEE85B6
:102A3000FF85ED53FF4F8081811127C0EE85FF8513
:102A4000E557FF4F60817181828193810E94D62773
:102A50008E859F858C599F4F2F960FB6F894DEBFB9
:102A60000FBECDBFDF91CF911F910F91FF90EF90DF
:102A7000DF90CF90BF90AF909F908F907F906F909E
:102A80005F904F903F902F9025C22F960FB6F894ED
:102A9000DEBF0FBECDBFDF91CF911F910F91FF9091
:102AA000EF90DF90CF90BF90AF909F908F907F90EE
:102AB0006F905F904F903F902F9008950F931F93CA
:102AC000CF93DF9390D600914C0710914D07209142
:102AD0004E0730914F07061717072807390750F59B
:102AE00081E090E090935C0380935B031092380345
:102AF0001092370360E08BE31ED5C5DD809197030C
:102B0000811103C081E080939703E091D206F09198
:102B1000D3060190F081E02DE957FF4F20E030E02F
:102B2000A90160817181828193810E9465271816B5
:102B300064F107C010925C0310925B03109297033C
:102B4000E4CF82E090E090935C0380935B039BDD95
:102B500080919603811103C081E080939603E091F8
:102B6000D206F091D306C081D181FE01E957FF4F13
:102B700020E030E04FEA53E46081718182819381EB
:102B80000E94B428181644F42BC010925C031092D3
:102B90005B0310929603E3CF20E030E040E450E482
:102BA000FE01EB59FF4F60817181828193810E9408
:102BB000B4281816C4F4C557DF4F20E030E0A9014F
:102BC000688179818A819B810E94652781110BC070
:102BD0008091370390913803019729F082E001C07A
:102BE00081E00E94C025DF91CF911F910F91089540
:102BF0004F925F926F927F928F929F92AF92BF920D
:102C0000CF92DF92EF92FF920F931F93CF93DF93B8
:102C1000E091D206F091D306C081D181812C912C14
:102C200088ECA82E82E4B82E8AAA9BAAACAABDAAD8
:102C3000C12C90EFD92E9FE7E92E95E4F92ECEAA6C
:102C4000DFAAE8AEF9AE8AAD882309F446C00E8D3E
:102C50001F8DF8014080518062807380A70196012A
:102C6000C301B2010E94B42818168CF120E030E0B4
:102C700048EC52E4C301B2010E94652787FD21C0E0
:102C80008EA09FA0A8A4B9A4CEA8DFA8E8ACF9ACF8
:102C9000A7019601C501B4010E94B428181664F07A
:102CA000CAA8DBA8ECA8FDA8A7019601C501B4013C
:102CB0000E94652787FF11C0CEA2DFA2E8A6F9A671
:102CC0000CC0F80180829182A282B382D9CFF80130
:102CD000C082D182E282F382D3CFDF91CF911F9164
:102CE0000F91FF90EF90DF90CF90BF90AF909F90AB
:102CF0008F907F906F905F904F900895682F82EC37
:102D000096E0A8C8282F30914A04313208F04AC012
:102D1000809149048111FCCF9091420442E040939C
:102D20004904209348042FEF2093200410921F049D
:102D300030931E04E2E2F4E0AEEFB3E020E032179D
:102D400021F041914D932F5FFACF1092FD03209116
:102D5000FD03990F922B9093FD03909147049130BE
:102D600061F4109247049091FD039093BB00909101
:102D7000BC0093FDF8CF95EC01C095EE9093BC009C
:102D8000909149049230E1F3909120049F3F79F0B3
:102D900080912004803241F080912004803331F012
:102DA00084E005C081E003C082E001C083E01092AE
:102DB0004B0410924A0410922104089581E0A2CF9E
:102DC000CF93DF93EB0191E0909321048093420431
:102DD00010924B0410924A0461E082EC96E03AD8DB
:102DE0006D2F82EC96E036D86C2F82EC96E032D8CC
:102DF000DF91CF91E3CF909149049111FCCF91E005
:102E000090934904909348042FEF2093200410924C
:102E10001F04260F20931E049093FD039091FD0341
:102E2000880F892B8093FD0380914704813061F4E2
:102E3000109247048091FD038093BB008091BC00F9
:102E400083FDF8CF85EC01C085EE8093BC008091B6
:102E500049048130E1F380911F04861710F46091DA
:102E60001F04AEEFB3E0EDEDF3E080E0861721F054
:102E70009D9191938F5FFACF08951F93CF93DF9326
:102E8000182F81E0809321041093420410924B0488
:102E900010924A0460E082EC96E00E942A0F8EDFD6
:102EA00062E0812FA8DF10924D0480934C0482ECE5
:102EB00096E00E94E20E182F82EC96E00E94E20E4D
:102EC000D12F20E0C22F9E01282BC901DF91CF9185
:102ED0001F910895FF920F931F93CF93DF93EB0100
:102EE00008EB10E0F801F0802CE02083FC018081E9
:102EF00091E0909321048093420410924B0410922D
:102F00004A0460E482EC96E00E942A0FCE0124E09D
:102F1000969587952A95E1F7F1DECE0134E0880F8A
:102F2000991F3A95E1F79927E9DE48DFF801F08229
:102F3000DF91CF911F910F91FF9008951F93CF9331
:102F4000DF93EC01162F8091510791E090932104BB
:102F50008093420410924B0410924A048D2F90E00B
:102F6000CDDECE019927CADE612F82EC96E00E9469
:102F70002A0FDF91CF911F9121CFCF92DF92EF9255
:102F8000FF92CF93DF93EC016A017B01E889F98915
:102F900082E080834115514E61057105B1F060E01A
:102FA00079E08DE390E0A70196010E94DE26DA0128
:102FB000C9010197A109B109B695A795979587957C
:102FC0009C01211580E13807A8F0E889F989108271
:102FD00060E874E88EE190E0A70196010E94DE2689
:102FE000DA01C9010197A109B109B695A79597958D
:102FF00087959C01EC85FD853083EE85FF852083D8
:10300000188EEC89FD8986E08083EA89FB898081BE
:1030100080618083EA89FB89808188608083EA8976
:10302000FB89808180688083EA89FB8980818F7D2C
:103030008083DF91CF91FF90EF90DF90CF90089544
:10304000ECEFF6E090E02FEF3FEF981791F0419111
:10305000242748E0B9016170772736952795672BBB
:1030600021F051E0252750EA3527415099F79F5F1D
:10307000ECCF922F832F0895CF93C0913C078C2FD4
:10308000DFDFEC2FF0E0ED50F94F9187E1E0EC0F3E
:10309000F0E0ED50F94F8187CE5FC0933C079091EF
:1030A000F9068091F806923038F1823051F0833081
:1030B00071F0813091F49091C80090649093C800B1
:1030C00011C09091D00090649093D0000BC090916B
:1030D000300190649093300105C09091C0009064DD
:1030E0009093C00090910501906490930501909198
:1030F000050190629093050140913C07843028F4CB
:103100008091F3069091F40604C08091F5069091A9
:10311000F60650E0DC01ED91FC910280F381E02D98
:103120006CEF76E019959091F9068091F80692304F
:1031300018F1823049F0833061F0813079F4909158
:10314000C80096FFFCCF0EC09091D00096FFFCCF38
:1031500009C09091300196FFFCCF04C09091C0004F
:1031600096FFFCCF909105019F7B90930501909174
:1031700005019F7D90930501843068F58091F306E9
:103180009091F406DC01ED91FC910284F385E02D31
:10319000199597FFF3CF10923C0725D3209146074E
:1031A00030914707DC01CB01820F931FA11DB11D98
:1031B00080934C0790934D07A0934E07B0934F0711
:1031C0008091420790914307019690934307809323
:1031D0004207CF9108958091F5069091F606DC01A3
:1031E000ED91FC910284F385E02D199597FFF3CFC3
:1031F000D2CF8091DB069091DC06811524E0920706
:1032000009F130F40097A1F081159240B1F00895D2
:10321000811528E09207D9F081152AE09207E1F0A4
:103220008115964029F58DEC9CECACECBBE318C005
:103230008AE999E9A9E1BDE313C08DEC9CECACEC03
:10324000BCE30EC08DEC9CECACE4BCE309C08DEC9F
:103250009CECACE4BBE304C08DEC9CECACECBAE3BE
:103260008093E3069093E406A093E506B093E60608
:1032700008950F931F93CF93DF938C01C1E5D7E09F
:10328000888191E0909321048093420410924B0432
:1032900010924A04812F90E031DDC80199272EDD7C
:1032A0008DDD61E08881A7DD10924D0480934C0490
:1032B00082EC96E00E94E20EDF91CF911F910F9178
:1032C0000895009769F0FC0101900020E9F731971B
:1032D000AF01481B590BBC0185E296E00C945B0DD5
:1032E00080E090E008958F929F92AF92BF920F93EB
:1032F0001F93CF93DF93CDB7DEB7A1970FB6F894A6
:10330000DEBF0FBECDBF19A2423008F44AE08E01E5
:103310000F5D1F4F842E912CA12CB12CA50194017F
:103320000E94DE26E62FB901CA0101501109EA30D8
:1033300014F4E05D01C0E95CD801EC93232B242B4D
:10334000252B61F7C801BDDFA1960FB6F894DEBF4B
:103350000FBECDBFDF91CF911F910F91BF90AF9066
:103360009F908F9008958F929F92AF92BF92CF922D
:10337000DF92EF92FF920F931F93CF93DF936B0136
:103380007C01142F9B01AC010E941B29882319F09A
:103390008EE792E027C046015701E894B7F82FEF77
:1033A0003FEF4FE75FE7C501B4010E941B29811180
:1033B0000DC02FEF3FEF4FE75FE7C501B4010E945B
:1033C000652718161CF482E892E00CC02FEF3FEF3F
:1033D0004FE75FE4C701B6010E94B42818167CF4D9
:1033E00086E892E0DF91CF911F910F91FF90EF90CF
:1033F000DF90CF90BF90AF909F908F9062CF2FEFD4
:103400003FEF4FE75FECC701B6010E94652787FDDC
:10341000E7CF20E030E0A901C701B6010E9465278F
:1034200087FF0BC06DE285E296E00E94080EEC017A
:10343000F7FAF094F7F8F09402C0C0E0D0E000E0B2
:1034400060E070E080E09FE3101741F020E030E0A2
:1034500040E251E40E9469270F5FF6CFA701960171
:103460000E9401276B017C010E94D6274B015C0161
:103470004AE039DFC80FD91F1123B1F1C501B401EA
:103480000E9402289B01AC01C701B6010E940027DF
:103490006B017C016EE285E296E00E94080EC80F87
:1034A000D91F20E030E040E251E4C701B6010E949C
:1034B000B8284B015C010E94D6276B01E12CF12C4E
:1034C0004AE0C701B6010FDFC80FD91FC701B60117
:1034D0000E9402289B01AC01C501B4010E94002793
:1034E0006B017C011150E9F6CE01DF91CF911F9164
:1034F0000F91FF90EF90DF90CF90BF90AF909F9093
:103500008F900895FC01A089B1898C91A689B78913
:1035100082FD0FC09C91818D8F5F8F73228D8217EA
:1035200049F0218DDF01A20FB11D5D969C93818F23
:1035300008958C9108951F93CF93DF93282F30E047
:10354000F901E75FFD4F8491F901ED53FE4FD491EE
:10355000F901E358FE4FC491CC23B9F0162F811125
:1035600048D0EC2FF0E0EE0FFF1FED59FE4FA59174
:10357000B4919FB7F894111104C08C91D095D823C1
:1035800002C0EC91DE2BDC939FBFDF91CF911F91A6
:10359000089510924D0410924C0410924B04109216
:1035A0004A041092490481E0809348041092470431
:1035B00061E084E1C0DF61E085E1BDDFE9EBF0E0DF
:1035C00080818E7F808380818D7F808388E480935B
:1035D000B80085E48093BC0080ED9EE090934604A3
:1035E0008093450481ED9EE09093440480934304CE
:1035F000089590E0FC013197E231F10508F04EC0EA
:103600008827EE56FF4F8F4F0C941F298091800022
:103610008F7703C0809180008F7D80938000089514
:1036200080918000877FF9CF84B58F7702C084B501
:103630008F7D84BD08958091B0008F7703C0809105
:10364000B0008F7D8093B0000895809190008F77B7
:1036500007C0809190008F7D03C080919000877F8C
:103660008093900008958091A0008F7707C080918B
:10367000A0008F7D03C08091A000877F8093A00071
:103680000895809120018F7707C0809120018F7D60
:1036900003C080912001877F809320010895CF93FC
:1036A000DF9390E0FC01ED53FE4F2491FC01E358C1
:1036B000FE4F8491882361F190E0880F991FFC01EF
:1036C000E15BFD4FC591D491FC01ED59FE4FA591F1
:1036D000B491611109C09FB7F89488812095822325
:1036E0008883EC912E230BC0623061F49FB7F8946D
:1036F0008881322F309583238883EC912E2B2C9355
:103700009FBF06C08FB7F894E8812E2B28838FBF08
:10371000DF91CF9108958230910538F0880F991F7D
:10372000880F991F05970197F1F708953FB7F8940F
:1037300080915D0790915E07A0915F07B09160074F
:1037400026B5A89B05C02F3F19F00196A11DB11DFC
:103750003FBFBA2FA92F982F8827820F911DA11D37
:10376000B11DBC01CD0142E0660F771F881F991F74
:103770004A95D1F708958F929F92AF92BF92CF92C0
:10378000DF92EF92FF926B017C01D0DF4B015C0175
:10379000C114D104E104F104E9F0C8DFDC01CB017C
:1037A00088199909AA09BB09883E9340A105B1056A
:1037B00078F321E0C21AD108E108F10888EE880EFA
:1037C00083E0981EA11CB11CC114D104E104F104D2
:1037D00021F7DECFFF90EF90DF90CF90BF90AF90BA
:1037E0009F908F9008952FB7F8946091590770912A
:1037F0005A0780915B0790915C072FBF08951F9235
:103800000F920FB60F9211242F933F938F939F9394
:10381000AF93BF938091590790915A07A0915B078E
:10382000B0915C073091580723E0230F2D3720F427
:103830000196A11DB11D05C026E8230F0296A11D0A
:10384000B11D209358078093590790935A07A0936E
:103850005B07B0935C0780915D0790915E07A09134
:103860005F07B09160070196A11DB11D80935D07B0
:1038700090935E07A0935F07B0936007BF91AF91ED
:103880009F918F913F912F910F900FBE0F901F909E
:103890001895CF93DF93CDB7DEB768970FB6F8943E
:1038A000DEBF0FBECDBF789484B5826084BD84B581
:1038B000816084BD85B5826085BD85B5816085BD2B
:1038C00080916E00816080936E00109281008091E3
:1038D000810082608093810080918100816080936B
:1038E0008100809180008160809380008091B10090
:1038F00084608093B1008091B00081608093B000BB
:10390000809191008260809391008091910081600C
:1039100080939100809190008160809390008091CD
:10392000A10082608093A1008091A10081608093BA
:10393000A1008091A00081608093A000809121016E
:103940008260809321018091210181608093210117
:103950008091200181608093200180917A008460B1
:1039600080937A0080917A00826080937A008091BF
:103970007A00816080937A0080917A0080688093D9
:103980007A001092C10082E390E0909358038093F4
:10399000570360E086E383DE61E089E080DE61E07A
:1039A0008FE37DDE61E08AE07ADE60E08AE0C3DDFD
:1039B00061E08BE074DE60E08BE0BDDD61E08CE017
:1039C0006EDE61E08CE0B7DD61E08BE368DE61E034
:1039D0008BE3B1DD61E088E062DE40E452E46FE059
:1039E00070E085E296E0C9DA83E68093D406D1DD03
:1039F0008091DB069091DC069093D9068093D806DF
:103A0000F8DB80EE90E09093DE068093DD068AE995
:103A100099E9A9E9BFE38093DF069093E006A093BC
:103A2000E106B093E20680E580935107B2DDFF2402
:103A3000F394F09221048CE78093420410924B049B
:103A400010924A046091510770E0660F771F82EC74
:103A500096E00E942A0F80E055D963E08CE7CBD92D
:103A600010924D0480934C0482EC96E00E94E20E8A
:103A70008C0182EC96E00E94E20E9A83898382ECAC
:103A800096E00E94E20E1127F4E0000F111FFA9554
:103A9000E1F769817A817727A4E075956795AA9502
:103AA000E1F7060F171F29812F70622F70E0762F24
:103AB0006627AB01480F511D5A8349830A3011050F
:103AC00041F08FE392E0FDDBB801110F880B990BF9
:103AD0000EC089819A818031954079F081E692E02B
:103AE000F0DBE981FA81BF01FF0F880B990B40E100
:103AF000FADB8EE592E0E5DB02C0F092520780919E
:103B0000F806823039F0833041F0813049F488E89A
:103B100095E008C08BEE94E005C08EE494E002C00E
:103B200085E296E09093F4068093F30640E052EC31
:103B300061E070E08091F3069091F4061EDA8091C6
:103B4000F906823078F08091040180668093040148
:103B5000809105018F7B80930501809105018F7D08
:103B6000809305018091F3069091F406DC01ED91BC
:103B7000FC910284F385E02D199597FFF3CF109205
:103B80003C0710923D07109245071092440710928F
:103B900043071092420710924107109240070DEC24
:103BA00012E0E8EEF3E0FA83E98389819A810E94CA
:103BB0007401D8018D939D938D01E981FA8134962A
:103BC000FA83E983E115F44081F70FEA12E01A82E3
:103BD000198289819A810E947401D8018D939D93E5
:103BE0008D01E981FA813496FA83E983749789F724
:103BF00009EB12E089819A810E947401D8018D93AA
:103C00009D938D01E981FA813496FA83E983B8970F
:103C100089F703EC12E089819A810E947401D8012E
:103C20008D939D938D01E981FA813496FA83E9831E
:103C3000FC9789F78CE390E00E9474019093220333
:103C40008093210380E490E00E9474019093240308
:103C50008093230384E490E00E94740190933003E6
:103C600080932F0388E490E00E94740190933203C4
:103C7000809331038CE490E00E94740190935E0382
:103C800080935D0380E590E00E947401909360034F
:103C900080935F0384E590E00E9474019093620337
:103CA0008093610388E590E00E947401909334034F
:103CB000809333038CE590E00E947401909380031D
:103CC00080937F0380E690E00E94740190938203CA
:103CD0008093810303E613E024E630E03A832983EE
:103CE00089819A810E947401D8018D939D938D01E1
:103CF000E981FA813496FA83E983E837F10581F79F
:103D00000DE613E089819A810E947401D8018D9398
:103D10009D938D01E981FA813496FA83E983EC3829
:103D2000F10581F789EC90E00E942729988F8F8B0D
:103D300083599F4F9A838983DC018D919C91EF89F0
:103D4000F88DE955FF4FFA8BE98BC080D180E28076
:103D5000F3802F89388D2D553F4F3C8B2B8BD9010C
:103D60004D905D906D907C90EF89F88DE156FF4FFE
:103D7000FE8BED8B20813181428153812B833C83EB
:103D80004D835E838F88988CBBE88B0E911CEF89E6
:103D9000F88D978E868E9F0129573F4F358F248F40
:103DA000225C3F4F31A320A312AE12AA13AA14AA79
:103DB00015AA40E050E06FE773E446AB57AB60AF45
:103DC00071AF44E650E060E070E046A757A760ABF3
:103DD00071AB918F808F20E030E0A9016B817C81F5
:103DE0008D819E810E94652787FD1FC020E030E005
:103DF000A901C301B2010E94652787FD16C020E01A
:103E000030E0A901C701B6010E94652787FD0DC0FA
:103E1000AA24A394B12C930182014B815C816D8112
:103E20007E818F89988D0E947E12DDDCAF89B88DEE
:103E30009E960D911D912D913C91D197DC01CB0166
:103E4000801B910BA20BB30BEF89F88D82A393A378
:103E5000A4A3B5A382E391E1A0E8BBE384AF95AF4F
:103E6000A6AFB7AF8FE795E0ABE1B5EBE05CFF4FF6
:103E700080839183A283B3832F88388CF6E42F0E3E
:103E8000311C88E4D1018C9314961C921E921397D6
:103E900098E011969C93119712961C92EF89F88DD9
:103EA000E05AFF4F1082118212821382EF89F88D3F
:103EB000EC5BFF4F8083EF89F88DEB5BFF4FFC835A
:103EC000EB8382E680838091D406EF89F88DEC59EC
:103ED000FF4F8083EF89F88DEB59FF4F10821182DD
:103EE00012821382A981BA811D921C92EF89F88DEA
:103EF000E159FF4F10821182128213828CE291E00D
:103F0000A0E0B0E0EF89F88DE958FF4F80839183FE
:103F1000A283B38380E090EFAFE7B5E46F88788C3D
:103F2000EBE76E0E711CF30180839183A283B38350
:103F3000EF89F88DE957FF4F1082118212821382A8
:103F4000D4011D921D921D921C92139780E090E067
:103F5000A0E8BEE3EF89F88DED56FF4F8083918393
:103F6000A283B38380E090E0AAEFB3E4EF89F88DF9
:103F7000E956FF4F80839183A283B383EF89F88D45
:103F8000E556FF4F1082118212821382ED89FE895D
:103F90001082118212821382AB89BC891D921D92FC
:103FA0001D921C921397E989FA891082118212825C
:103FB000138280E090E0A0E8BFE3EF89F88DE5553B
:103FC000FF4F80839183A283B383EF89F88DE155FE
:103FD000FF4F10821182128213828AE097EDA3E2D2
:103FE000BCE3EF89F88DED54FF4F80839183A2836A
:103FF000B38384EA90E7ADE7BFE3EF89F88DE95436
:10400000FF4F80839183A283B3832F89388D2554FA
:104010003F4F3A83298380E090E0A8ECB4E4F901B3
:1040200080839183A283B3832F89388D21543F4F9E
:104030003A8B298B80E090E0AAE7B4E4F901808311
:104040009183A283B383EF89F88DED53FF4F1082E4
:10405000EF89F88DEC53FF4F1082EF89F88DEB5309
:10406000FF4F1082118212821382AF89B88D5A9647
:10407000AD90BC905B97C12CD12C76019701860145
:10408000B701A601CD010E947E12F301C080D1804C
:10409000E280F38020E030E0A901C701B60115D726
:1040A00018160CF05AC0AF89B88DD2961D921D9289
:1040B0001D921C92D597FD01C6AAD7AAE0AEF1AE1B
:1040C00082AD882309F449C0A68CB78CD5014D90E8
:1040D0005D906D907C90A3019201C701B601F5D669
:1040E00087FF06C0F501C082D182E282F3820EC052
:1040F00020E030E0A901C301B201E7D687FF06C086
:10410000D5011D921D921D921C921397EF89F88D77
:1041100086A097A0A0A4B1A4C6A8D7A8E0ACF1AC93
:10412000A7019601C501B4010E94B42818166CF0CD
:10413000EF89F88DC2A8D3A8E4A8F5A8A701960135
:10414000C501B401C2D687FF08C0AF89B88D969665
:10415000CD92DD92ED92FC929997EF89F88D66A54C
:1041600077A580A991A94ED79B01AC0160E070E0D2
:1041700080EA90E4AED66B017C019B01AC01AF8973
:10418000B88D50966D917D918D919C915397F0D7FC
:10419000EF89F88D608B718B828B938BA7019601D1
:1041A000648975898689978994D6AF89B88D549624
:1041B0006D937D938D939C93579785E090E0A0E05D
:1041C000B0E0EF89F88D86A797A7A0ABB1ABE1D996
:1041D000EF89F88DE55BFF4FAB81BC818C918083CB
:1041E000D8D9F101148213826FEF7FE08F89988D07
:1041F000855B9F4F0E946A172F89388D245B3F4F44
:10420000E981FA8180819181A281B381F901808362
:104210009183A283B3832F89388D205B3F4FE98937
:10422000FA8980819181A281B381F9018083918390
:10423000A283B3832F89388D30938603209385031F
:104240008091D0069091D1062091CE063091CF0674
:104250008217930719F57C01EE0CFF1C892B11F0D6
:10426000C70102C081E090E09093D1068093D00610
:10427000880F991FECD79A8389830091D2061091F9
:10428000D306A701B8010E944C2AC8010E94BF2989
:1042900049815A815093D3064093D206E091D206C9
:1042A000F091D3068091CE069091CF069C012F5FAE
:1042B0003F4F3093CF062093CE0620918503309157
:1042C0008603880F991FE80FF91F31832083E0913F
:1042D000D206F091D306808191819A838983FC0173
:1042E000E759FF4F118210826091D1027091D20282
:1042F00080E090E087D620E030E048EC52E4E9D559
:104300006B017C016091CF027091D00280E090E05F
:1043100079D620E030E048EC52E4DBD56B837C8337
:104320008D839E836091CD027091CE0280E090E0FB
:1043300069D620E030E048EC52E4CBD52B013C01BB
:10434000E981FA81E156FF4F608371838283938311
:10435000E981FA81ED55FF4F2B813C814D815E81D2
:104360002083318342835383E981FA81E955FF4FEA
:10437000C082D182E282F382A981BA815A96AD903D
:10438000BC905B9720E030E0A9019FD587FD1CC061
:1043900020E030E0A9016B817C818D819E8195D5E3
:1043A00087FD12C020E030E0A901C701B6018DD51C
:1043B00087FD0AC00B811C812D813E81B301A201C2
:1043C00089819A810E947E12E091D206F091D306F3
:1043D000208131813A832983890105551F4F6091DE
:1043E000D3027091D40280E090E00CD620E030E05F
:1043F0004AE754E46ED5D8016D937D938D939C93D9
:10440000139709811A8101551F4F6091D502709150
:10441000D60280E090E0F6D520E030E048EC52E4AF
:1044200058D5F80160837183828393836091D702AA
:104430007091D80280E090E0E5D5E981FA81E554F9
:10444000FF4F6083718382839383E981FA81E45B08
:10445000FF4F608371838283938329813A8121583E
:104460003F4F80E090E0A6E9B3E4F90180839183B7
:10447000A283B3830E94690120E030E040EA50E467
:1044800024D587FFD4C00E947C03F4CF80913903E8
:1044900090913A03892B09F0D6C00E947C03609169
:1044A00021037091220380E090E0ACD520E030E061
:1044B00040E251E40ED5AB01BC01E091D206F0918F
:1044C000D306808191810E943C030E94F8150E94CE
:1044D00062130E945E150E946901C0908B03D09008
:1044E0008C03E0908D03F0908E03A701960188D491
:1044F0004B015C0160912F037091300380E090E0EC
:1045000081D520E030E040E251E4E3D49B01AC01EE
:10451000C501B40129D618160CF40DC30E94690117
:10452000A70196016DD420E030E0A901CED487FF29
:1045300015C0A701960160E070E080E89FE460D4B8
:104540009B01AC0160E070E0CB015AD460938B0317
:1045500070938C0380938D0390938E038091370327
:1045600090913803019709F0EBC260E088E00E9467
:104570009B1A8091830390918403019709F055C0A1
:10458000E091D206F091D306808191819A8389834C
:10459000FC01EB59FF4FC080D180E280F380B696DA
:1045A000DC01A558BF4F2D913D914D915C916081EB
:1045B0007181828193818DD420E030E048EC52E417
:1045C000D7D52B013C01E981FA81E957FF4F808063
:1045D0009180A280B380A981BA81AB53BF4F6D9106
:1045E0007D918D919C9142E00E94B3198BE792E0FE
:1045F0000E94611942E0C501B4010E94B3198BE722
:1046000092E00E94611942E0C301B2010E94B31915
:104610008BE792E00E94611942E0C701B6010E9457
:10462000B3198EE592E00E9461190E94750E61E057
:1046300088E00E949B1A809137039091380301977C
:1046400009F07EC223CF0E947C030E946901409042
:104650008703509088036090890370908A03A301B8
:104660009201CED36B017C016091C3027091C402B0
:1046700080E090E0C7D420E030E040E251E429D46B
:104680008B011C0120E030E0A901C701B6016CD507
:1046900018160CF441C16091C5027091C60280E009
:1046A00090E0B0D420E030E040E251E412D4962E05
:1046B000872E8B839983262F372FAC01B801C10138
:1046C000A0D3698B7B8BB82EA92E9801A101C701BD
:1046D000B6014AD518160CF4EEC06091C70270916D
:1046E000C80280E090E08ED420E030E040E251E467
:1046F000F0D3962E872E8B839983262F372FAC01EC
:1047000069897B898B2D9A2D7CD38B011C0129898A
:104710003B894B2D5A2DC701B60126D518160CF42E
:1047200097C06091C9027091CA0280E090E06AD49B
:1047300020E030E040E251E4CCD3962E872E8B83EC
:104740009983262F372FAC01B801C1015AD3B62E59
:104750007B8B898BA92E9801A101C701B60104D5D5
:1047600018160CF444C02B2D3B8949895A2DC701DA
:10477000B601FAD418160CF0FDC06091B702709122
:10478000B80280E090E03ED420E030E040E251E426
:10479000A0D36F83788789879A876091B5027091DB
:1047A000B60280E090E02ED420E030E040E251E418
:1047B00090D36B877C878D879E87E0916B03F09108
:1047C0006C03F88BEF876091CB027091CC0280E094
:1047D00090E018D420E030E040E251E47AD3962E05
:1047E000872E8B8399830B2D1B89298862C02B2DE3
:1047F0003B8949895A2DC701B60167D318160CF4B5
:10480000B2CF6091B5027091B60280E090E0FAD329
:1048100020E030E040E251E45CD36F837887898701
:104820009A876091B3027091B40280E090E0EAD37D
:1048300020E030E040E251E44CD36B877C878D87E9
:104840009E872091690330916A03388B2F8792C02D
:104850009801A101C701B60138D318160CF461CF35
:104860006091B3027091B40280E090E0CBD320E07D
:1048700030E040E251E42DD36F83788789879A87AF
:104880006091B1027091B20280E090E0BBD320E071
:1048900030E040E251E41DD36B877C878D879E8793
:1048A0004091670350916803588B4F8709891B8992
:1048B0002B2C3A2C5FC029893B894B2D5A2DC701DF
:1048C000B60103D318160CF408CF6091B1027091B1
:1048D000B20280E090E096D320E030E040E251E484
:1048E000F8D26F83788789879A876091AF02709139
:1048F000B00280E090E086D320E030E040E251E476
:10490000E8D26B877C878D879E8780916503909125
:104910006603988B8F872EC09801A101C701B6014D
:10492000D4D218160CF4B7CE6091AF027091B002D9
:1049300080E090E067D320E030E040E251E4C9D26B
:104940006F83788789879A87A0916303B091640306
:10495000B88BAF87902E812E2B82398200E010E039
:10496000212C312C20E030E040EA51E42B873C87B9
:104970004D875E874F8558894130510549F0E09158
:10498000D206F091D3064F81588569857A8525C076
:104990002B853C854D855E856F81788589859A85D7
:1049A0002FD2292D382D4B81598193D24B015C0197
:1049B0009801A101C701B60123D29B01AC01C50139
:1049C000B401D6D32B853C854D855E851AD2AB01CB
:1049D000BC01E091D206F091D306808191810E94C2
:1049E0003C03E091D206F091D3060190F081E02DD6
:1049F000EB53FF4F20E030E040E251E460817181F1
:104A000082819381B5D3D2D2709322036093210324
:104A10000E94F8150E9462130E945E156091C30205
:104A20007091C40280E090E0EDD220E030E040E2FE
:104A300051E44FD26B017C016091C5027091C602B6
:104A400080E090E0DFD220E030E040E251E441D26B
:104A50009B01AC01C701B601D4D16B017C0160910F
:104A6000C7027091C80280E090E0CCD220E030E034
:104A700040E251E42ED29B01AC01C701B601C1D185
:104A80006B017C016091C9027091CA0280E090E0E4
:104A9000B9D220E030E040E251E41BD29B01AC01EE
:104AA000C701B601AED16B017C016091CB02709160
:104AB000CC0280E090E0A6D220E030E040E251E479
:104AC00008D29B01AC01C701B6019BD16AD24B0150
:104AD0005C010E946901A301920192D16B017C01EA
:104AE000C501B40191D29B01AC01C701B6013CD311
:104AF00018160CF10E946901A301920181D120E0F6
:104B000030E0A901E2D187FF29CDA301920160E045
:104B100070E080E89FE474D19B01AC0160E070E03C
:104B2000CB016ED1609387037093880380938903D0
:104B300090938A0313CD10923803109237030ECD51
:104B40000E947C030E9443130E945E150E9469012B
:104B500060938B0370938C0380938D0390938E03EB
:104B60000E9469016093870370938803809389038F
:104B700090938A03FACC8091D2069091D306FFC31A
:104B8000C82F0E9443138C2F90E090935A03809378
:104B9000590361E08AE00E949B1A61E08BE00E9469
:104BA0009B1A60E08CE00E949B1A0E947C03FDCF60
:104BB0001F93CF93DF93EEE4F4E01382128288EE2A
:104BC00093E0A0E0B0E084839583A683B7832FE1D0
:104BD00032E03183208345E351E05587448744E345
:104BE00051E05787468740E351E0518B408B41E3CA
:104BF00051E0538B428B42E351E0558B448B46E3AB
:104C000051E0578B468B118E128E138E148EEBEE65
:104C1000F4E01382128284839583A683B783318361
:104C2000208345ED50E05587448744ED50E0578799
:104C3000468740ED50E0518B408B41ED50E0538B67
:104C4000428B42ED50E0558B448B46ED50E0578B44
:104C5000468B118E128E138E148EE8E8F5E01382C7
:104C6000128284839583A683B783318320834DEC9E
:104C700050E0558744874CEC50E05787468748EC16
:104C800050E0518B408B49EC50E0538B428B4AEC07
:104C900050E0558B448B4EEC50E0578B468B118E79
:104CA000128E138E148EE5E2F6E013821282848354
:104CB0009583A683B7833183208325EC30E0358745
:104CC000248724EC30E03787268720EC30E0318BD6
:104CD000208B21EC30E0338B228B22EC30E0358BC3
:104CE000248B26EC30E0378B268B118E128E138EA0
:104CF000148EE2ECF6E01382128284839583A683FD
:104D0000B78381E392E09183808310925207E3EFAF
:104D1000F6E081E0848383E0858312E0168388EEE9
:104D200093E09093470780934607E3E5F7E014820A
:104D300013828AE4808388E08183128285E0A5ED76
:104D4000B6E001900D928A95E1F7C5EDD6E080E0DE
:104D500090E0AAE7B3E48A8B9B8BAC8BBD8B0E945F
:104D6000C91A1D831F821E820E94F918EEECF6E01C
:104D7000118210821382128215821482DF91CF91E8
:104D80001F910895052E97FB16F400940FD057FD40
:104D900005D014D007FC02D046F408C050954095C9
:104DA000309521953F4F4F4F5F4F089590958095D7
:104DB000709561957F4F8F4F9F4F0895A1E21A2EF6
:104DC000AA1BBB1BFD010DC0AA1FBB1FEE1FFF1FAF
:104DD000A217B307E407F50720F0A21BB30BE40BFF
:104DE000F50B661F771F881F991F1A9469F7609546
:104DF0007095809590959B01AC01BD01CF01089500
:104E00005058BB27AA270ED075C166D130F06BD1A0
:104E100020F031F49F3F11F41EF45BC10EF4E095D5
:104E2000E7FB51C1E92F77D180F3BA176207730707
:104E30008407950718F071F49EF58FC10EF4E09584
:104E40000B2EBA2FA02D0B01B90190010C01CA0144
:104E5000A0011124FF27591B99F0593F50F4503EEF
:104E600068F11A16F040A22F232F342F4427585FE1
:104E7000F3CF469537952795A795F0405395C9F7F9
:104E80007EF41F16BA0B620B730B840BBAF09150B1
:104E9000A1F0FF0FBB1F661F771F881FC2F70EC050
:104EA000BA0F621F731F841F48F487957795679523
:104EB000B795F7959E3F08F0B3CF9395880F08F00C
:104EC0009927EE0F979587950895D9D008F481E03A
:104ED00008950CD00FC107D140F0FED030F021F47E
:104EE0005F3F19F0F0C0511139C1F3C014D198F3EC
:104EF0009923C9F35523B1F3951B550BBB27AA275B
:104F000062177307840738F09F5F5F4F220F331FCC
:104F1000441FAA1FA9F333D00E2E3AF0E0E830D098
:104F200091505040E695001CCAF729D0FE2F27D09B
:104F3000660F771F881FBB1F261737074807AB0769
:104F4000B0E809F0BB0B802DBF01FF2793585F4FDE
:104F50002AF09E3F510568F0B6C000C15F3FECF3F8
:104F6000983EDCF3869577956795B795F7959F5FA3
:104F7000C9F7880F911D9695879597F90895E1E0F7
:104F8000660F771F881FBB1F621773078407BA0756
:104F900020F0621B730B840BBA0BEE1F88F7E095B1
:104FA000089504D06894B111D9C00895BCD088F098
:104FB0009F5790F0B92F9927B751A0F0D1F0660F05
:104FC000771F881F991F1AF0BA95C9F712C0B13020
:104FD00081F0C3D0B1E00895C0C0672F782F882733
:104FE000B85F39F0B93FCCF3869577956795B3955F
:104FF000D9F73EF490958095709561957F4F8F4FCE
:105000009F4F0895E89409C097FB3EF490958095D2
:10501000709561957F4F8F4F9F4F9923A9F0F92F7E
:1050200096E9BB279395F695879577956795B795FC
:10503000F111F8CFFAF4BB0F11F460FF1BC06F5FE2
:105040007F4F8F4F9F4F16C0882311F096E911C0F4
:10505000772321F09EE8872F762F05C0662371F015
:1050600096E8862F70E060E02AF09A95660F771F29
:10507000881FDAF7880F9695879597F90895990F05
:105080000008550FAA0BE0E8FEEF16161706E80712
:10509000F907C0F012161306E407F50798F0621B33
:1050A000730B840B950B39F40A2661F0232B242B08
:1050B000252B21F408950A2609F4A140A6958FEF27
:1050C000811D811D089597F99F6780E870E060E079
:1050D00008959FEF80EC089500240A941616170691
:1050E00018060906089500240A94121613061406D9
:1050F00005060895092E0394000C11F4882352F03C
:10510000BB0F40F4BF2B11F460FF04C06F5F7F4FF3
:105110008F4F9F4F089557FD9058440F551F59F0DA
:105120005F3F71F04795880F97FB991F61F09F3F94
:1051300079F087950895121613061406551FF2CFBD
:105140004695F1DF08C0161617061806991FF1CF0D
:1051500086957105610508940895E894BB27662734
:105160007727CB0197F908958ADF08F48FEF089528
:105170000BD0C0CFB1DF28F0B6DF18F0952309F0CF
:10518000A2CFA7CF1124EACFC6DFA0F3959FD1F31A
:10519000950F50E0551F629FF001729FBB27F00DE5
:1051A000B11D639FAA27F00DB11DAA1F649F66273A
:1051B000B00DA11D661F829F2227B00DA11D621F89
:1051C000739FB00DA11D621F839FA00D611D221F43
:1051D000749F3327A00D611D231F849F600D211D27
:1051E000822F762F6A2F11249F5750408AF0E1F0CA
:1051F00088234AF0EE0FFF1FBB1F661F771F881F13
:1052000091505040A9F79E3F510570F05CCFA6CF5A
:105210005F3FECF3983EDCF3869577956795B795FD
:10522000F795E7959F5FC1F7FE2B880F911D969527
:10523000879597F9089523DF880B990B0895EE0F52
:10524000FF1F881F8BBF0790F691E02D19940F93D5
:105250001F93CF93DF938230910510F482E090E0AA
:10526000E0916307F091640720E030E0A0E0B0E057
:10527000309719F1408151810281138148175907F4
:10528000C8F08417950769F4109731F012960C93C3
:10529000129713961C9327C000936307109364071B
:1052A00022C02115310519F04217530718F49A014D
:1052B000BD01EF01DF01F801DBCF21153105F9F068
:1052C000281B390B2430310580F48A819B816115BC
:1052D000710521F0FB019383828304C090936407DE
:1052E00080936307FE01329644C0FE01E20FF31F74
:1052F0008193919322503109398328833AC02091B8
:10530000610730916207232B41F420910302309111
:1053100004023093620720936107209101023091CB
:1053200002022115310541F42DB73EB74091050227
:1053300050910602241B350BE0916107F091620742
:10534000E217F307A0F42E1B3F0B2817390778F05C
:10535000AC014E5F5F4F2417350748F04E0F5F1FBB
:1053600050936207409361078193919302C0E0E0FC
:10537000F0E0CF01DF91CF911F910F910895CF936E
:10538000DF93009709F481C0FC01329713821282E7
:10539000A0916307B0916407109781F42081318157
:1053A000820F931F209161073091620728173907F8
:1053B00051F5F0936207E093610767C0ED0120E0CB
:1053C00030E0CE17DF0740F44A815B819E01411532
:1053D0005105F1F0EA01F5CFD383C28340815181B9
:1053E000840F951FC817D90759F488819981840FB4
:1053F000951F0296918380838A819B819383828308
:105400002115310529F4F0936407E09363073DC04B
:10541000E901FB83EA8349915991C40FD51FEC1729
:10542000FD0761F480819181840F951F0296E90147
:1054300099838883828193819B838A83E0E0F0E073
:1054400012968D919C911397009719F0FD01DC0144
:10545000F7CF8D919C9111979D012E5F3F4F820F49
:10546000931F20916107309162072817390769F46B
:10547000309729F4109264071092630702C01382D8
:105480001282B0936207A0936107DF91CF910895D4
:1054900081E090E0F89409C0FB01DC0102C00190BA
:1054A0000D9241505040D8F7089511E0C6E3D1E085
:1054B00000E005C0802FFE01C2DE2196011DC7332A
:0C54C000D10780E00807B1F7F894FFCF97
:1054CC00FF0000650780000102030405060F1000B1
:1054DC0000C84200007A440000204100000000088F
:1054EC000E5B0D850D540EB60D940DA80D0000002D
:1054FC00002A0FFE0E590FD20EF60EE20ED30E55E9
:10550C006E6578706563746564204D616E75666157
:10551C006374757265722049443A203078000D0A24
:10552C0000556E65787065637465642050726F64A5
:10553C007563742049443A203078002C20006E6149
:0A554C006E00696E66006F7666005F
:00000001FF
