:1000000003C1000032C1000030C100002EC1000059
:100010002CC100002AC1000028C1000026C1000038
:1000200024C100000C94C7180C94C7180C94C7186E
:100030001CC100001AC1000018C1000016C1000058
:1000400014C1000012C1000010C100000EC1000068
:100050000CC100000AC1000008C100000C9459172F
:1000600004C100000C942F170C940517FEC000006B
:10007000FCC00000FAC00000F8C00000F6C000009C
:10008000F4C00000F2C00000F0C00000EEC00000AC
:100090000C94DB160C94B116E8C000000C94A31766
:1000A000E4C00000E2C00000E0C00000DEC00000CC
:1000B000DCC00000DAC00000D8C00000D6C00000DC
:1000C000D4C00000D2C00000D0C000000C9487163D
:1000D0000C945D16CAC000000C9433160C940916DB
:1000E000C4C0000000002100240027002A002D00C9
:1000F0003000330001010000040107010A01000083
:100100002200250028002B002E00310034000201BF
:100110000000050108010B0100002000230026005B
:1001200029002C002F00320000010000030106010D
:10013000090105050505070508080808020202026D
:100140000A0A080804040404010101010101010173
:100150000303030303030303040707070C0C0C0C3E
:100160000C0C0C0C02020202060606060606060627
:100170000B0B0B0B0B0B0B0B0102102020080810B4
:100180002040102040800201020108040201010207
:1001900004081020408080402010080402018004E0
:1001A000020180402010080402010804020101023B
:1001B0000408102040800102040810204080000044
:1001C0000A0B02090C0D0E080703040100000000D1
:1001D000000000000000000000000000000000001F
:1001E00000000000000000000000121110000000DC
:1001F00000000000000000000000000000000000FF
:1002000000000000E7181E2311241FBECFEFD1E22B
:10021000DEBFCDBF00E00CBF12E0A0E0B2E0E6E53B
:10022000FDE400E00BBF02C007900D92AE37B107AE
:10023000D9F727E0AEE7B2E001C01D92AB34B207B8
:10024000E1F711E0C3E0D1E000E006C02197010929
:10025000802FFE010E946425C230D10780E008078C
:10026000A9F70E94D1190C949A26CACE0895089530
:10027000982F2091390481E0213208F043C0809109
:1002800038048111FCCF8091310432E0309338047E
:10029000909337049FEF90930F0410920E042093D5
:1002A0000D04A1E1B4E0EDEEF3E090E0291331C0DC
:1002B0001092EC039091EC03880F892B8093EC0350
:1002C00080913604813049F5109236048091EC0318
:1002D0008093BB008091BC0083FDF8CF85EC8093B8
:1002E000BC00809138048230E1F380910F048F3F8D
:1002F000B1F080910F048032A1F080910F0480331F
:1003000091F084E010923A04109239041092100493
:1003100008953D9131939F5FC9CF85EEE0CF80E096
:10032000F1CF82E0EFCF83E0EDCF81E0A1CF9091DC
:1003300038049111FCCF91E09093380490933704E6
:100340002FEF20930F0410920E04260F20930D041C
:100350009093EC039091EC03880F892B8093EC032E
:10036000809136048130F9F4109236048091EC03C8
:100370008093BB008091BC0083FDF8CF85EC809317
:10038000BC00809138048130E1F380910E0486171F
:1003900010F460910E04ADEEB3E0ECECF3E080E01D
:1003A000861303C0089585EEEACF9D9191938F5FE8
:1003B000F7CFCF92DF92EF92FF92CF93DF93EC01D2
:1003C0006A017B01E889F98982E08083C11481EEAA
:1003D000D806E104F104A1F060E079E08DE390E05B
:1003E000A70196010E942323215031094109510997
:1003F0005695479537952795211580E1380798F050
:10040000E889F989108260E874E88EE190E0A7013C
:1004100096010E9423232150310941095109569523
:10042000479537952795EC85FD853083EE85FF85CB
:100430002083188EEC89FD8986E08083EA89FB8918
:10044000808180618083EA89FB89808188608083E4
:10045000EA89FB89808180688083EA89FB898081C1
:100460008F7D8083DF91CF91FF90EF90DF90CF90D1
:100470000895E0EFF6E090E02FEF3FEF981791F04E
:100480004191242748E0B901617077273695279577
:10049000672B21F051E0252750EA3527415099F785
:1004A0009F5FECCF922F832F08958091CA06909181
:1004B000CB06811524E0920749F130F40097A1F0B2
:1004C00081159240F1F00895811528E0920719F105
:1004D00081152AE0920721F18115964089F48DEC6F
:1004E0009CECACECBBE304C08AE999E9A9E1BDE36B
:1004F0008093D2069093D306A093D406B093D506EA
:1005000008958DEC9CECACECBCE3F2CF8DEC9CEC54
:10051000ACE4BCE3EDCF8DEC9CECACE4BBE3E8CF0A
:100520008DEC9CECACECBAE3E3CFAF92BF92CF92F0
:10053000DF92EF92FF920F931F93CF93DF936C01A3
:100540007B018B01040F151FEB015E01AE18BF0884
:10055000C017D10759F06991D601ED91FC91019036
:10056000F081E02DC6011995892B79F7C501DF913E
:10057000CF911F910F91FF90EF90DF90CF90BF90A0
:10058000AF900895FC01A089B1898C91A689B789A3
:1005900082FD0FC09C91818D8F5F8F73228D82179A
:1005A00049F0A18DAE0FBF2FB11D5D969C93818F39
:1005B00008958C910895FC01538D448D252F30E0D2
:1005C000842F90E0821B930B541710F0CF96089560
:1005D00001970895FC01918D828D981761F0A28D8D
:1005E000AE0FBF2FB11D5D968C91928D9F5F9F7353
:1005F000928F90E008958FEF9FEF0895FC01918D09
:10060000828D981731F0828DE80FF11D858D90E075
:1006100008958FEF9FEF0895FC01918D228D892F12
:1006200090E0805C9F4F821B91098F7399270895FA
:100630008DE394E0F1DF21E0892B09F420E0822FA3
:1006400008958AED94E0E8DF21E0892B09F420E0A9
:10065000822F089587E795E0DFDF21E0892B09F4F9
:1006600020E0822F089584E196E0D6DF21E0892BF7
:1006700009F420E0822F0895FC01A48DA80FB92F62
:10068000B11DA35ABF4F2C91848D90E001968F73BA
:100690009927848FA689B7892C93A089B1898C91D9
:1006A000837080648C93938D848D981306C0028828
:1006B000F389E02D80818F7D80830895EF92FF92F2
:1006C0000F931F93CF93DF93EC0181E0888F9B8D75
:1006D0008C8D98131AC0E889F989808185FF15C02F
:1006E0009FB7F894EE89FF896083E889F989808152
:1006F0008370806480839FBF81E090E0DF91CF9121
:100700001F910F91FF90EF900895F62E0B8D10E042
:100710000F5F1F4F0F731127E02E8C8D8E110BC0B2
:100720000FB607FCFACFE889F989808185FFF5CFFC
:10073000CE01A2DFF2CFEB8DEC0FFD2FF11DE35ABE
:10074000FF4FF0829FB7F8940B8FEA89FB89808175
:100750008062D0CFCF93DF93EC01888D8823B1F0F6
:10076000AA89BB89E889F9898C9185FD03C08081BC
:1007700086FD0CC00FB607FCF7CF8C9185FFF2CF3A
:10078000808185FFEDCFCE0177DFEACFDF91CF917A
:10079000089580E090E0892B21F065DF81110E94AF
:1007A000000080E090E0892B21F054DF81110E944D
:1007B000000080E090E0892B21F043DF81110E944E
:1007C000000080E090E0892B21F032DF81110C9451
:1007D000000008958150823108F05AC0E82FF0E0FF
:1007E0008827EA50FC4F8F4F0C94642516041A0496
:1007F00008040E04120448041D04230427042D04D5
:10080000310435043B043F044804430449044D04C7
:10081000809180008F778093800008958091800080
:100820008F7DF9CF80918000877FF5CF84B58F775A
:1008300084BD089584B58F7DFBCF8091B0008F7704
:100840008093B00008958091B0008F7DF9CF8091A2
:1008500090008F77809390000895809190008F7D15
:10086000F9CF80919000877FF5CF8091A0008F779E
:100870008093A00008958091A0008F7DF9CF809192
:10088000A000877FF5CF809120018F778093200192
:100890000895809120018F7DF9CF80912001877F7D
:1008A000F5CFCF93DF93282F30E0F901E254FE4FCC
:1008B0008491F901E858FE4FD491F901EE5CFE4FA6
:1008C000C491CC2399F0811185DFEC2FF0E0EE0F7D
:1008D000FF1FE85EFE4FA591B491EC91ED2381E0FE
:1008E00090E009F480E0DF91CF91089580E090E0FE
:1008F000FACF1F93CF93DF93282F30E0F901E25412
:10090000FE4F8491F901E858FE4FD491F901EE5C55
:10091000FE4FC491CC23A1F0162F81115BDFEC2F89
:10092000F0E0EE0FFF1FE250FF4FA591B4918FB79B
:10093000F894EC91111108C0D095DE23DC938FBFA1
:10094000DF91CF911F910895DE2BF8CF10923C04D8
:1009500010923B0410923A04109239041092380419
:1009600081E0809337041092360461E084E1C1DFB6
:1009700061E085E1BEDFE9EBF0E080818E7F80837E
:1009800080818D7F808388E48093B80085E48093A4
:10099000BC0086E391E0909335048093340487E3B0
:1009A00091E090933304809332040895CF93DF93C2
:1009B00090E0FC01E858FE4F24918E5C9E4FFC01B4
:1009C00084918823C9F090E0880F991FFC01EC51B5
:1009D000FF4FA591B491FC01E250FF4FC591D49116
:1009E00061110DC09FB7F8948C91209582238C9350
:1009F0008881282328839FBFDF91CF91089562309B
:100A000051F49FB7F8943C91822F809583238C9367
:100A1000E8812E2BEFCF8FB7F894EC912E2B2C93EF
:100A20008FBFEACF8230910538F0880F991F880F69
:100A3000991F05970197F1F708953FB7F8948091B2
:100A4000DA029091DB02A091DC02B091DD0226B5C2
:100A5000A89B05C02F3F19F00196A11DB11D3FBFF6
:100A6000BA2FA92F982F8827BC01CD01620F711DC5
:100A7000811D911D42E0660F771F881F991F4A95BF
:100A8000D1F708958F929F92AF92BF92CF92DF924B
:100A9000EF92FF926B017C01D0DF4B015C01C1142E
:100AA000D104E104F104B1F0C8DF681979098A09B9
:100AB0009B09683E73408105910588F321E0C21AC5
:100AC000D108E108F10888EE880E83E0981EA11C89
:100AD000B11CE5CFFF90EF90DF90CF90BF90AF902B
:100AE0009F908F9008952FB7F8946091D6027091DF
:100AF000D7028091D8029091D9022FBF0895CF9349
:100B0000C09130078C2FB5DCEC2FF0E0E951F94FA4
:100B10009187E1E0EC0FF0E0E951F94F8187CE5F7A
:100B2000C09330079091ED068091EC069230C0F0B2
:100B3000823009F473C0833009F476C0813009F043
:100B400079C09091C80090649093C800909105017D
:100B50009064909305019091050190629093050136
:100B60004091300750E0843008F06AC08091E70679
:100B70009091E806DC01ED91FC910280F381E02D7B
:100B800060EF76E019959091ED068091EC06923039
:100B9000B8F0823009F459C0833009F45BC0813069
:100BA00009F05DC09091C80096FFFCCF90910501BF
:100BB0009F7B90930501909105019F7D9093050186
:100BC000843008F051C08091E7069091E806DC017E
:100BD000ED91FC910284F385E02D199597FFF3CFF9
:100BE0001092300780DF20913A0730913B07620F67
:100BF000731F811D911D609340077093410780937F
:100C000042079093430780913607909137070196EA
:100C10009093370780933607CF9108959091D00035
:100C200090649093D00092CF909130019064909313
:100C300030018CCF9091C00090649093C00086CF1B
:100C40008091E9069091EA0695CF9091D00096FFA9
:100C5000FCCFACCF9091300196FFFCCFA7CF909105
:100C6000C00096FFFCCFA2CF8091E9069091EA06E2
:100C7000DC01ED91FC910284F385E02D199597FF3D
:100C8000F3CFAECF8F929F92AF92BF92CF92DF926F
:100C9000EF92FF920F931F93CF93DF938EEE92E02C
:100CA00090933307809332078FE6809344078091B7
:100CB000EC068430E0F48091E7069091E806DC01D0
:100CC000ED91FC910084F185E02D1995811114C0FE
:100CD000C0E08C2FDF91CF911F910F91FF90EF908B
:100CE000DF90CF90BF90AF909F908F9008958091AC
:100CF000E9069091EA06E3CF90913107891781F0D8
:100D000080933107F0DE6B5F7F4F8F4F9F4F609373
:100D10003C0770933D0780933E0790933F07D8CFE1
:100D2000E2DE00913C0710913D0720913E07309193
:100D30003F07601771078207930750F2109231073F
:100D40008091ED06823050F0809105018F7B809379
:100D50000501809105018F7D809305011092300778
:100D60008091EC06C0E0843040F18091E9069091DA
:100D7000EA06DC01ED91FC910084F185E02D1995E6
:100D8000892B09F43FC08091E9069091EA06DC01C5
:100D9000ED91FC910284F385E02D19959091300737
:100DA000E92FF0E0E951F94F81879F5F9093300779
:100DB0009034D8F2C1E0D9CFC1E08091E70690919C
:100DC000E806DC01ED91FC910084F185E02D199598
:100DD000892BC1F08091E7069091E806DC01ED9146
:100DE000FC910284F385E02D199590913007E92F4D
:100DF000F0E0E951F94F81879F5F9093300790347D
:100E0000D8F6DBCF80913407909135070196909307
:100E1000350780933407CC2371F080913807909187
:100E200039070196909339078093380783E08093C0
:100E3000EF06C3E04ECFC0913007C093EF06C73036
:100E40000CF447CF9091F0068091EB06981340CFB9
:100E50000C2F10E08EEF8C0F0CDBF801E951F94FED
:100E6000278130852327322723272817390769F060
:100E700080913807909139070196909339078093B4
:100E80003807CFEFC093EF0624CF2091F106E6E0BC
:100E9000F2E08191821709F4DAC1B2E0EE30FB078B
:100EA000C1F78091380790913907019690933907DF
:100EB00080933807C1E020582093F106C093F206D2
:100EC00083E0809330071BDEDDCF8091F2069091A6
:100ED000F306982789279827AC01F4E056954795A3
:100EE000FA95E1F78091F4069091F5069827892705
:100EF0009827A4E096958795AA95E1F7840F951F0A
:100F00000CC08091F2069091F306982789279827C4
:100F1000E4E096958795EA95E1F790914407981754
:100F2000C0F4C2E0C8CF8091F2069091F3069827F2
:100F30008927F3CF8091F4069091F50698278927A9
:100F400098274091F2065091F306542745275427DD
:100F5000D5CFC9DD20913A0730913B07620F731F4F
:100F6000811D911D60934007709341078093420754
:100F7000909343071092EF06E091F106E150E031C3
:100F800008F0A7CEF0E08827E753F84F8F4F0C9476
:100F90006425D907D907410841087508A7086906DB
:100FA0006906690669066906690669066906B6087A
:100FB00006098091F2069091F306982789279827D1
:100FC0000091F4061091F506102701271027A801BB
:100FD00073E0569547957A95E1F7242FE801C7709D
:100FE000DD27209711F021E0240F2093F20623E063
:100FF00020933007080F191F30E0C12CD12C760147
:10100000C3940817190791F1E22FF0E0B701A60188
:10101000032E04C0440F551F661F771F0A94D2F792
:10102000E951F94FB184DC0153E0B695A7955A9583
:10103000E1F7AE7FB170A251BD4F8D909C90A82F6B
:10104000AF70AA2ED40102C0B695A795AA94E2F774
:10105000A0FF09C04B2941873F5F383010F02F5F58
:1010600030E00196CECF40954B21F5CFCD2B39F412
:1010700020933007C0913007CE5F41DD2ACE2F5F2D
:10108000F7CF8091F2069091F30698278927982F41
:101090002091F4063091F50632272327322F330FA3
:1010A0003093F206E3E0280F3327331FC2E0CE0F60
:1010B000A92FB0E0A217B307ACF4AA0FBB1FA2512F
:1010C000BD4F8C9111964C91AE2FB0E0A951B94F04
:1010D00019964C93EF5FF0E0E951F94F81879F5FDC
:1010E000EC2FE4CFE0933007C8CF2091F206309187
:1010F000F306322723273227F90173E0F695E795A7
:101100007A95E1F7EE7FF170E251FD4F4081518118
:101110002F7081E090E0A0E0B0E004C0880F991F3C
:10112000AA1FBB1F2A95D2F72091F4062F3F51F436
:10113000842B952B9183808386E080933007DFDCBE
:10114000C8E0C7CD8095909584239523F3CFE09197
:10115000F306F0E0EE0FFF1FE251FD4F8091F40621
:101160009091F506982789279827E4CF8091F20679
:101170009091F3069827892798272091F4063091BB
:10118000F506322723273227280F391F10E007E002
:10119000C12CD12C7601C3942817390769F2FC01C0
:1011A00043E0F695E7954A95E1F7EE7FF170E2515D
:1011B000FD4F482F4F704601570104C0880C991C01
:1011C000AA1CBB1C4A95D2F7A401C081D181A02FD3
:1011D000B0E0A951B94F1996AC91B0E0012E02C010
:1011E000B595A7950A94E2F7A0FF0BC04C2B5D2B99
:1011F000518340831F5F183010F00F5F10E001969D
:10120000CBCF409550954C235D23F2CFE091F30670
:101210004091F5061092F40686E080933007A7EE21
:10122000B6E0F0E0EE0FFF1FE251FD4F80E01296B6
:10123000481709F484CF1E962C911E971F969C91F7
:101240001F97322F292F219331938F5FF0CFEFEF2C
:10125000E20FE03108F07DCEF0E08827ED5CF64F3C
:101260008F4F0C946425650765079A079A078107D5
:101270009307A907A907A907A907A907A907A90704
:10128000A90765079A0785ED8093BC008091BC0093
:1012900084FDFCCF1092380408952091B202260FED
:1012A0003327331F21323105ECF420913804FC013F
:1012B00090E080E0243069F082E00895A091B202CD
:1012C0002191AC014E565D4FA40FB52FB11D2C934B
:1012D0000196861798F38091B202680F6093B2026C
:1012E00080E0089581E008950895E0913C048091A4
:1012F0003B04E81730F4F0E0E453FC4F808190E0C9
:1013000008958FEF9FEF089590913C0480913B04E6
:101310002FEF3FEF981748F4E92FF0E0E453FC4F2C
:10132000208130E09F5F90933C04C9010895809133
:101330003B0490913C04891B990B0895CF92DF9256
:10134000EF92FF920F931F93CF93DF937C01CB011A
:101350008A0120911004222389F0EB016B01C40E55
:10136000D51ECC15DD0561F06991D701ED91FC9199
:101370000190F081E02DC7011995F3CF642F8DDF27
:10138000C801DF91CF911F910F91FF90EF90DF90F7
:10139000CF900895CF93DF931F92CDB7DEB76983C7
:1013A000209110042223F9F020913904203258F0C2
:1013B00021E030E0FC013383228390E080E00F9055
:1013C000DF91CF91089580913A04E82FF0E0EF5E2D
:1013D000FB4F998190838F5F80933A048093390407
:1013E00081E090E0ECCF61E0CE01019656DFF8CFCE
:1013F000CF93DF93EB0191E090931004809331043D
:1014000010923A041092390461E081EB96E0C2DF59
:101410006D2F81EB96E0BEDF6C2F81EB96E0BADF9B
:10142000DF91CF910C949501682F81EB96E0B2CFBC
:101430001F93CF93DF93EC01162F8091450791E026
:10144000909310048093310410923A04109239045E
:101450008D2F90E0E9DFCE019927E6DF612F81EB48
:1014600096E098DFDF91CF911F910C9495014F92F8
:101470005F926F927F928F929F92AF92BF92CF9224
:10148000DF92EF92FF920F931F93CF93DF9300D0E1
:1014900000D000D01F92CDB7DEB79A8789872A0186
:1014A0003B0109831A832B833C83DC015B96BC924E
:1014B000AE925A9781E0AA94AB2809F080E0E985C2
:1014C000FA8583AF408251826282738289819A81D8
:1014D000AB81BC8184839583A683B783C086D18684
:1014E000E286F38666A577A580A991A90E94472484
:1014F00020E030E04AE754E40E94AE236D837E830F
:101500008F839887E985FA8544865586668677862F
:101510009B01AC0169817A818B819C810E94FD24B1
:101520004B015C01A985BA8550968D929D92AD9232
:10153000BC9253972D813E814F815885C701B601DA
:101540000E94AE236B017C01E985FA85C48AD58AA5
:10155000E68AF78A808D918D019759F5A301920152
:1015600060E070E0CB010E944523A985BA851C96F6
:101570006D937D938D939C931F97A501940160E0DB
:1015800070E0CB010E944523E985FA85608B718B61
:10159000828B938BA701960160E070E0CB010E94E3
:1015A0004523A985BA8554966D937D938D939C931D
:1015B00057972A960FB6F894DEBF0FBECDBFDF91C6
:1015C000CF911F910F91FF90EF90DF90CF90BF9040
:1015D000AF909F908F907F906F905F904F90089505
:1015E00090E080E0089581E02091760330917703C8
:1015F0002130310509F080E008954F925F926F929B
:101600007F928F929F92AF92BF92CF92DF92EF9292
:10161000FF920F931F93CF93DF93E091C106F09158
:10162000C206C081D181412C512C88EC682E82E405
:10163000782E4AAA5BAA6CAA7DAA812C90EF992EDB
:101640009FE7A92E95E4B92E8EAA9FAAA8AEB9AE9F
:101650008AAD882309F445C00E8D1F8DF801C08026
:10166000D180E280F380A5019401C701B6010E94F8
:10167000F9241816D4F4F80180829182A282B382F0
:101680008EA09FA0A8A4B9A4CEA8DFA8E8ACF9AC0E
:10169000A7019601C501B4010E94F9241816ACF403
:1016A000CEA2DFA2E8A6F9A61CC020E030E048ECFC
:1016B00052E4C701B6010E94AA2387FFE1CFF801D7
:1016C0004082518262827382DBCFCAA8DBA8ECA879
:1016D000FDA8A7019601C501B4010E94AA2387FDB8
:1016E000DFCFDF91CF911F910F91FF90EF90DF90AF
:1016F000CF90BF90AF909F908F907F906F905F90B2
:101700004F9008959AD90E94472420E034E244E79C
:1017100059E40C94AE238F929F92AF92BF92CF92D6
:10172000DF92EF92FF92CF93DF93EC016A017B018E
:10173000FC01E058FF4F80809180A280B380AB0114
:101740009601C501B4010E94AA23CC53DF4F87FF45
:101750000FC088829982AA82BB82DF91CF91FF90CD
:10176000EF90DF90CF90BF90AF909F908F900895B3
:1017700020E030E0A901C701B6010E94AA2387FF3B
:1017800005C0188219821A821B82E7CFC882D982CB
:10179000EA82FB82E2CF0F931F93CF93DF938C01FA
:1017A000C5E4D7E0888191E09093100480933104E0
:1017B00010923A0410923904812F90E035DEC8016E
:1017C000992732DE0E94950161E088810E9497018D
:1017D00010923C0480933B0481EB96E095DDDF9111
:1017E000CF911F910F9108951F93CF93DF93EC0139
:1017F000D2DF182FCE010196CEDF90E0982F8827F8
:10180000810F911DDF91CF911F9108950F931F9329
:10181000CF93DF938C01EB01CB01E6DF80179107BB
:1018200069F0602FCE0104DE612FCE01019600DE4B
:1018300081E0DF91CF911F910F91089580E0F9CF62
:10184000CF93C82F81E080931004C093310410928D
:101850003A041092390460E081EB96E09BDD0E942F
:10186000950162E08C2F0E94970110923C048093B6
:101870003B0481EB96E048DDC82F81EB96E044DD28
:1018800020E03C2FA901482BCA01CF9108952F9247
:101890003F924F925F926F927F928F929F92AF9200
:1018A000BF92CF92DF92EF92FF920F931F93CF934D
:1018B000DF9300D01F92CDB7DEB79C838B83FC01F2
:1018C000E759FF4F80810B811C8108571F4F8823E8
:1018D00009F4E3C008D96B01F80180809180A280EF
:1018E000B3802DEC3CEC4CE45DE3EB81FC81E457F0
:1018F000FF4F60817181828193810E94FD242B01C1
:101900003C0120E030E040EB51E4C501B4010E940D
:101910004523EB81FC81EC56FF4F208131814281D0
:1019200053810E94FD249B01AC01C301B2010E94BE
:101930004523EB81FC81E856FF4F208131814281B4
:1019400053810E94AE232B013C012B803C80FCE99B
:101950002F0E311CF10180819181C81AD90AB6017C
:10196000DD0C880B990B0E9449249B01AC01C3013B
:10197000B2010E94FD24A50194010E944623F801B2
:101980006083718382839383AED8F1016083718316
:1019900082839383A8D8EB81FC81EC58FF4F60834E
:1019A0007183828393832B803C80F0E72F0E311C60
:1019B000F101C080D180E280F3809B01AC012C1941
:1019C0003D094E095F0969017A01EB81FC81E85804
:1019D000FF4F80819181A281B3818C159D05AE0559
:1019E000BF0508F03EC0F80180809180A280B380DE
:1019F0002B813C812B593F4F3A8329834B815C815A
:101A00004C575F4F5C834B83FA01208131814281C7
:101A10005381C501B4010E9445232B013C01C7013C
:101A2000B6010E94472420E030E04AE754E40E94D7
:101A3000AE239B01AC01C301B2010E94AE23E98138
:101A4000FA816083718382839383EB81FC8180823E
:101A50009182A282B38247D8F1016083718382832D
:101A60009383F80160817181828193810F900F903F
:101A70000F900F90DF91CF911F910F91FF90EF90FA
:101A8000DF90CF90BF90AF909F908F907F906F909E
:101A90005F904F903F902F900895EB80FC80F6E48C
:101AA000EF0EF11CF70163817481636E71688081B0
:101AB0009FDC80EB94E00E941205F7018081C0DE7C
:101AC000F7012281022E02C0969587950A94E2F7CB
:101AD000222329F08115F8E09F0708F0906FCB8052
:101AE000DC8024E5C20ED11CF60191838083F701CE
:101AF00063817481636E716B80817ADC80EB94E02A
:101B00000E941205F70180819BDEF7012281022EDF
:101B100002C0969587950A94E2F7222329F0811551
:101B2000F8E09F0708F0906FEB81FC81EA5AFF4FC5
:101B300091838083BC01990F880B990B0E944924E3
:101B40004B015C01F60160817181072E000C880B4E
:101B5000990B0E9449249B01AC01C501B4010E946C
:101B6000AE23EB81FC81E45BFF4F20813181428118
:101B700053810E94FD24EB81FC81E455FF4F2081BD
:101B80003181428153810E94FD24EB81FC81E0552B
:101B9000FF4F20813181428153810E944523F8010A
:101BA0006083718382839383F5CEFF920F931F939B
:101BB000CF93DF93EB0108EB10E0F801F0802CE00D
:101BC0002083FC01808191E0909310048093310484
:101BD00010923A041092390460E481EB96E0DADB6B
:101BE000CE0124E0969587952A95E1F71DDCCE017C
:101BF00034E0880F991F3A95E1F7992715DC0E9488
:101C00009501F801F082DF91CF911F910F91FF9024
:101C100008952F923F924F925F926F927F928F9290
:101C20009F92AF92BF92CF92DF92EF92FF920F936B
:101C30001F93CF93DF93CDB7DEB72F970FB6F894EE
:101C4000DEBF0FBECDBFE091C106F091C20680811C
:101C500091819F878E87DC01DA968C91DA978111CA
:101C600041C05E96ED91FC915F97C080D180E2808B
:101C7000F380FD01C6A2D7A2E0A6F1A65C96ED9185
:101C8000FC9180819181A281B381EE85FF8582A73D
:101C900093A7A4A7B5A786A897A8A0ACB1ACA501A7
:101CA0009401C701B6010E94F92418164CF4AE85C0
:101CB000BF8596968D929D92AD92BC9299970EC0DB
:101CC000EE85FF8582A893A8A4A8B5A8A5019401D4
:101CD000C701B6010E94AA2387FDE9CF81E0EE8506
:101CE000FF8582AF8E859F85D2DDAE85BF85DA9672
:101CF0008C91882309F40DC10E9473056D837E8346
:101D00008F839887EE85FF8582A193A1A4A1B5A1B9
:101D10004D815E816F817885481B590B6A0B7B0B67
:101D200086A597A5A0A9B1A9481759076A077B07F7
:101D300008F4EFC0048CF58DE02D80819181A281A3
:101D4000B38189839A83AB83BC83AE85BF8590962C
:101D5000ED91FC9129813A814B815C816081718197
:101D6000828193810E9445234B015C01EE85FF85B2
:101D700022A533A544A555A569817A818B819C81D3
:101D80000E9445236B017C01AE85BF8550962D9145
:101D90003D914D915C915397C501B4010E94FD2482
:101DA000EE85FF8526A137A140A551A50E944623B7
:101DB0002B013C01AE85BF8596964D925D926D924A
:101DC0007C929997DB96BC91B987B11118C0EE85CA
:101DD000FF852485358546855785C701B6010E9454
:101DE000FD249B01AC01C301B2010E944523AE85D5
:101DF000BF8596966D937D938D939C939997EE8571
:101E0000FF8546A057A060A471A416A907A930AC0D
:101E100021AC212F302F432D522DC301B2010E943E
:101E2000F92418160CF0A3C0812F902FA32DB22DEA
:101E3000EE85FF8586A397A3A0A7B1A7F985FF2309
:101E400009F4AEC0AE85BF851C962D913D914D9194
:101E50005C911F97C501B4010E94FD244B015C01F8
:101E6000EE85FF852489358946895789C701B601E2
:101E70000E94FD249B01AC01AE85BF8596966D91B5
:101E80007D918D919C9199970E944523A501940184
:101E90000E9446236B017C019B01AC01612F702FD6
:101EA000832D922D0E94AA2387FD14C0EE85FF8505
:101EB00012A903A934A825A8212F302F432D522D74
:101EC000B601C7010E94AA2387FD04C01C2D0D2D59
:101ED0003E2C2F2CAE85BF855E96ED91FC91812F17
:101EE000902FA32DB22D80839183A283B383898108
:101EF0009A81AB81BC81EE85FF8582A793A7A4A7B9
:101F0000B5A78D819E81AF81B88582A393A3A4A339
:101F1000B5A3EE85FF85E759FF4F8081811144C04D
:101F2000EE85FF85E457FF4F608171818281938147
:101F30000E941B248E859F858C599F4F2F960FB62C
:101F4000F894DEBF0FBECDBFDF91CF911F910F91EF
:101F5000FF90EF90DF90CF90BF90AF909F908F90C9
:101F60007F906F905F904F903F902F901ECEAE85E8
:101F7000BF85D2968D919D910D90BC91A02D8A87A1
:101F80009B87AC87BD879C01AD01C301B2010E9454
:101F9000AA2387FF53CF8A859B85AC85BD8548CF13
:101FA000812C912C54015CCF2F960FB6F894DEBF94
:101FB0000FBECDBFDF91CF911F910F91FF90EF909A
:101FC000DF90CF90BF90AF909F908F907F906F9059
:101FD0005F904F903F902F900895E091C106F0914F
:101FE000C2060190F081E02D82AD811112AEDF01B9
:101FF000A457BF4F1D921D921D921C921397939749
:102000008C91811106C070E060E0CF018C599F4F28
:10201000CCCD0895FB0101900020E9F73197AF0185
:10202000461B570BDC01ED91FC910280F381E02D02
:1020300019948F929F92AF92BF92EF92FF920F935B
:102040001F93CF93DF93CDB7DEB7A1970FB6F89468
:10205000DEBF0FBECDBF7C01FA01CB0119A2223039
:1020600008F42AE08E010F5D1F4F822E912CB12CB7
:10207000A12CBF01A50194010E942323F901CA01EB
:102080006A3004F5605DD8016E938D01232B242BFB
:10209000252B79F790E080E0109719F0BD01C7017A
:1020A000B9DFA1960FB6F894DEBF0FBECDBFDF91AA
:1020B000CF911F910F91FF90EF90BF90AF909F90A5
:1020C0008F900895695CDFCF2F923F924F925F927D
:1020D0006F927F928F929F92AF92BF92CF92DF9238
:1020E000EF92FF921F93CF93DF93EC016A017B0184
:1020F000722EAB019601CB01B6010E94602562E30E
:1021000072E0811126C046015701E894B7F82FEF1D
:102110003FEF4FE75FE7C501B4010E9460258111E1
:102120000CC02FEF3FEF4FE75FE7C501B4010E94FE
:10213000AA2366E372E0181664F02FEF3FEF4FE733
:102140005FE4C701B6010E94F9241816ACF46AE3F3
:1021500072E0CE01DF91CF911F91FF90EF90DF9061
:10216000CF90BF90AF909F908F907F906F905F9037
:102170004F903F902F904ECF2FEF3FEF4FE75FEC08
:10218000C701B6010E94AA2387FDE1CF20E030E01D
:10219000A901C701B6010E94AA23312C212C87FF77
:1021A0000DC0E881F9810190F081E02D6DE2CE0152
:1021B00019951C01F7FAF094F7F8F09410E060E03C
:1021C00070E080E09FE3711641F020E030E040E2F3
:1021D00051E40E94AE231F5FF6CFA70196010E9433
:1021E00046232B013C010E941B244B015C012AE089
:1021F000BC01A401CE011DDF7C01E20CF31C112304
:10220000D9F1C501B4010E9447249B01AC01C3016F
:10221000B2010E9445234B015C01E881F9810190E4
:10222000F081E02D6EE2CE011995E80EF91E1150F5
:1022300018F120E030E040E251E4C501B4010E9411
:10224000FD242B013C010E941B244B01B12CA12C2D
:102250002AE0B501A401CE01ECDEE80EF91EC501AD
:10226000B4010E9447249B01AC01C301B2010E944A
:1022700045234B015C01DBCFC701DF91CF911F915B
:10228000FF90EF90DF90CF90BF90AF909F908F9096
:102290007F906F905F904F903F902F9008954F9256
:1022A0005F926F927F92AF92BF92CF92DF92EF9246
:1022B000FF920F931F93CF93DF9387E30E94510404
:1022C0009093C9038093C80388E30E9451049093BC
:1022D000CB038093CA0386E30E945104892B09F43F
:1022E0003CC181E090E09093B7038093B6030E94D5
:1022F000420661E085300CF460E08BE30E947904D3
:102300008091C2039091C303019709F070C0E091DE
:10231000C106F091C2060190F081E02DEC53FF4F11
:10232000408151816281738122E084E196E0CCDEBC
:102330006EE372E084E196E06DDEE091C106F0911B
:10234000C2060190F081E02DE857FF4F4081518196
:102350006281738122E084E196E0B6DE6EE372E092
:1023600084E196E057DEE091C106F091C2068081DB
:102370009181FC01E457FF4F84589F4FDC012D9160
:102380003D914D915C9160817181828193810E9428
:10239000AE2320E030E048EC52E40E94FD24AB0183
:1023A000BC0122E084E196E08FDE6EE372E084E11E
:1023B00096E030DEA7D9AB01BC0126E084E196E0CF
:1023C00083DE6EE372E084E196E024DE40918602D3
:1023D00050918702609188027091890222E084E125
:1023E00096E072DE61E472E084E196E013DE8AD961
:1023F000C0907E02D0907F02E0908002F090810237
:10240000A70196010E9445232B013C0160917203B4
:102410007091730390E080E00E94472420E030E058
:1024200040E251E40E94AE239B01AC01C301B20122
:102430000E94F92487FD96C065D960937E0270934F
:102440007F028093800290938102CDD88111ADC02C
:102450000CE013E0C8EED3E0BE01F8018191919148
:102460008F01D4D92496C115F4E0DF07A9F70EEE49
:1024700012E0D0E0C0E0BE01D8018D919D918D01A8
:10248000C5D92496C431D105B1F702E013E0BE01ED
:10249000F801819191918F01B9D92496C832D10563
:1024A000B1F768E270E08091600390916103AED96A
:1024B0006CE270E08091620390916303A7D960E3BE
:1024C00070E080916E0390916F03A0D964E370E097
:1024D000809170039091710399D968E370E08091C5
:1024E0009C0390919D0392D96CE370E080919E03D0
:1024F00090919F038BD960E470E08091A00390914C
:10250000A10384D964E470E0809172039091730315
:102510007DD968E470E08091BE039091BF0376D9C5
:102520006CE470E08091C0039091C1036FD960E5C5
:1025300070E0809174039091750368D902EA13E00A
:10254000C4E5D0E0BE01D8018D919D918D015ED989
:102550002496C836D105B1F728C01092B70310925F
:10256000B603C5CECFD8A70196010E94452320E02F
:1025700030E0A9010E94AA2387FF17C0A701960196
:1025800060E070E080E89FE40E9445239B01AC017D
:1025900060E070E0CB010E94452360937E0270935F
:1025A0007F028093800290938102E091C106F091B6
:1025B000C206C081D181FE01E659FF4F118210820F
:1025C000609110037091110390E080E00E94472415
:1025D00020E030E048EC52E40E94AE236B017C0125
:1025E00060910E0370910F0390E080E00E944724F9
:1025F00020E030E048EC52E40E94AE232B013C0185
:1026000060910C0370910D0390E080E00E944724DC
:1026100020E030E048EC52E40E94AE23AB01BC0164
:10262000FE01E056FF4F40835183628373833496EB
:1026300040825182628273823496C082D182E28269
:10264000F382AA8CBB8C93018201CE010E94370ACF
:10265000E091C106F091C206C081D1818E0104557E
:102660001F4F609112037091130390E080E00E946D
:10267000472420E030E04AE754E40E94AE23F8010A
:1026800060837183828393830C5F1F4F6091140377
:102690007091150390E080E00E94472420E030E034
:1026A00040E251E40E94AE23D8016D937D938D9357
:1026B0009C931397609116037091170390E080E04C
:1026C0000E944724FE01E454FF4F6083718382839C
:1026D0009383E057F109608371838283938300536E
:1026E0001109609174037091750390E080E00E947D
:1026F000472420E030E040E251E40E94AE23F8019C
:1027000060837183828393830E94F30A811102C0E4
:10271000CE01BDD8E091C106F091C206C081D18141
:10272000FE01E857FF4F20E030E040E251E46081D5
:102730007181828193810E94FD240E941B247093E9
:102740007B0360937A03FE01E457FF4FDE01A45838
:10275000BF4F2D913D914D915C916081718182813E
:1027600093810E94AE2320E030E048EC52E40E94C6
:10277000FD2420E030E040E251E40E94FD240E946C
:102780001B247093890360938803609160037091A8
:10279000610390E080E00E94472420E030E040E2C6
:1027A00051E40E94AE23AB01BC01CE010E948B0B11
:1027B000E091C106F091C2060190F081E02DEC534A
:1027C000FF4F20E030E040E251E46081718182817E
:1027D00093810E94FD240E941B24709361036093E7
:1027E00060030E94820BC0908202D0908302E0902E
:1027F0008402F0908502A70196010E9445232FE6EE
:1028000032E143E05CE30E94F92487FD12C00E949C
:10281000820B609382027093830280938402909370
:1028200085028091C906843008F462C090E080E09F
:10283000A4C00E94820BA70196010E94452320E0BC
:1028400030E0A9010E94AA2387FF17C0A7019601C3
:1028500060E070E080E89FE40E9445239B01AC01AA
:1028600060E070E0CB010E94452360938202709388
:102870008302809384029093850220E030E04FE24F
:1028800054E4609186027091870280918802909151
:1028900089020E94F924181644F4109286021092BC
:1028A0008702109288021092890220E030E040E214
:1028B00051E4609186027091870280918802909124
:1028C00089020E94FD240E941B247093BD03609323
:1028D000BC03DF91CF911F910F91FF90EF90DF909C
:1028E000CF90BF90AF907F906F905F904F90089582
:1028F0006091CC067091CD06636071602091C7062F
:102900003091C806622B732B823009F462C0833089
:1029100009F461C0813009F45AC07064C090CE06D9
:10292000D090CF06E090D006F090D10670688091EC
:10293000C4060E94F80920E030E040E251E4C701FB
:10294000B6010E94AA2387FF48C020E030E04AE792
:1029500054E4C701B6010E94FD240E941624CB0155
:102960000E9412058091C4060E94200C2091C60688
:1029700002C0969587952A95E2F7BC0190E080E029
:102980000E9447242091D2063091D3064091D4066C
:102990005091D5060E94FD242091D6063091D7068D
:1029A0004091D8065091D9060E9445236093DE06D7
:1029B0007093DF068093E0069093E10660938602B1
:1029C00070938702809388029093890256CF706536
:1029D000A5CF7066A3CF7067A1CFC701B6010E94D3
:1029E0001624072E000C880B990B0E944205BACFC3
:1029F000CF92DF92EF92FF92CF93DF938091C40347
:102A00009091C503892B51F081E090E09093C5032C
:102A10008093C4030E9442060C94000082E10E944D
:102A20005104892B51F40E94820B60938A027093A7
:102A30008B0280938C0290938D020E94820BC09037
:102A40008A02D0908B02E0908C02F0908D02A70158
:102A500096010E94452320E030E040E450E40E94CB
:102A6000F92487FF2FC00E94820BA70196010E94C4
:102A7000452320E030E0A9010E94AA2387FF17C068
:102A8000A701960160E070E080E89FE40E94452382
:102A90009B01AC0160E070E0CB010E944523609394
:102AA0008A0270938B0280938C0290938D020E9415
:102AB000F30A811107C0DF91CF91FF90EF90DF9073
:102AC000CF908BCA0E947305C0904007D0904107F9
:102AD000E0904207F0904307C616D706E806F906CD
:102AE00008F083C081E090E090939B0380939A0369
:102AF000109277031092760360E08BE30E947904D2
:102B00006CDA80918F02811103C081E080938F0283
:102B1000E091C106F091C2060190F081E02DE857E6
:102B2000FF4F20E030E0A9016081718182819381B3
:102B30000E94AA2318160CF45FC082E090E09093E4
:102B40009B0380939A0349DA80918E02811103C01E
:102B500081E080938E02E091C106F091C206C081AF
:102B6000D181FE01E857FF4F20E030E048EC53E40C
:102B700060817181828193810E94F92418160CF47E
:102B800042C030E020E090E07E0185E6E80EF11CD6
:102B9000C457DF4F21303105C1F1911138C020E019
:102BA00030E040E251E4F7016081718182819381DC
:102BB0000E94F924181694F420E030E0A9016881FD
:102BC00079818A819B810E94AA23811107C00E947A
:102BD000F30A91E021E030E08823E1F2DF91CF9128
:102BE000FF90EF90DF90CF90089510929B0310928A
:102BF0009A0310928F028CCF10929B0310929A032B
:102C000010928E02A8CF81E0CCD2992339F382E0D2
:102C1000FBCF1F920F920FB60F9211240BB60F929B
:102C20002F933F934F935F936F937F938F939F93D4
:102C3000AF93BF93EF93FF938DE394E00E943C0327
:102C4000FF91EF91BF91AF919F918F917F916F9184
:102C50005F914F913F912F910F900BBE0F900FBE40
:102C60000F901F9018951F920F920FB60F9211247C
:102C70000BB60F922F933F934F935F936F937F9376
:102C80008F939F93AF93BF93EF93FF938DE394E064
:102C90000E94C202FF91EF91BF91AF919F918F91DE
:102CA0007F916F915F914F913F912F910F900BBE4C
:102CB0000F900FBE0F901F9018951F920F920FB696
:102CC0000F9211240BB60F922F933F934F935F9364
:102CD0006F937F938F939F93AF93BF93EF93FF93E4
:102CE0008AED94E00E943C03FF91EF91BF91AF9178
:102CF0009F918F917F916F915F914F913F912F9114
:102D00000F900BBE0F900FBE0F901F9018951F9243
:102D10000F920FB60F9211240BB60F922F933F9381
:102D20004F935F936F937F938F939F93AF93BF93D3
:102D3000EF93FF938AED94E00E94C202FF91EF911E
:102D4000BF91AF919F918F917F916F915F914F91C3
:102D50003F912F910F900BBE0F900FBE0F901F90C1
:102D600018951F920F920FB60F9211240BB60F9267
:102D70002F933F934F935F936F937F938F939F9383
:102D8000AF93BF93EF93FF9387E795E00E943C03D7
:102D9000FF91EF91BF91AF919F918F917F916F9133
:102DA0005F914F913F912F910F900BBE0F900FBEEF
:102DB0000F901F9018951F920F920FB60F9211242B
:102DC0000BB60F922F933F934F935F936F937F9325
:102DD0008F939F93AF93BF93EF93FF9387E795E014
:102DE0000E94C202FF91EF91BF91AF919F918F918D
:102DF0007F916F915F914F913F912F910F900BBEFB
:102E00000F900FBE0F901F9018951F920F920FB644
:102E10000F9211240BB60F922F933F934F935F9312
:102E20006F937F938F939F93AF93BF93EF93FF9392
:102E300084E196E00E943C03FF91EF91BF91AF9136
:102E40009F918F917F916F915F914F913F912F91C2
:102E50000F900BBE0F900FBE0F901F9018951F92F2
:102E60000F920FB60F9211240BB60F922F933F9330
:102E70004F935F936F937F938F939F93AF93BF9382
:102E8000EF93FF9384E196E00E94C202FF91EF91DD
:102E9000BF91AF919F918F917F916F915F914F9172
:102EA0003F912F910F900BBE0F900FBE0F901F9070
:102EB00018951F920F920FB60F9211242F933F93E4
:102EC0008F939F93AF93BF938091D6029091D70237
:102ED000A091D802B091D9023091D50223E0230FFE
:102EE0002D3758F50196A11DB11D2093D502809371
:102EF000D6029093D702A093D802B093D9028091C2
:102F0000DA029091DB02A091DC02B091DD02019621
:102F1000A11DB11D8093DA029093DB02A093DC0225
:102F2000B093DD02BF91AF919F918F913F912F910F
:102F30000F900FBE0F901F90189526E8230F029652
:102F4000A11DB11DD2CF1F920F920FB60F92112467
:102F50000BB60F922F933F934F935F936F937F9393
:102F60008F939F93AF93BF93EF93FF938091B9009B
:102F7000887F803609F44DC008F040C0883209F4DB
:102F8000A9C028F5803109F49DC0C8F4882309F44C
:102F9000FBC0883009F496C0FF91EF91BF91AF91CB
:102FA0009F918F917F916F915F914F913F912F9161
:102FB0000F900BBE0F900FBE0F901F901895883189
:102FC00009F488C0803241F780930F0414C0803424
:102FD00009F49DC040F48033B9F38833E9F6809357
:102FE0000F0485ECB0C0803509F485C0883509F43C
:102FF00096C0883489F60E944309CECF883909F4F7
:103000008CC038F5883729F050F4883611F08037B5
:1030100019F683E0809338041092D40257C08838A0
:1030200009F47BC0803919F0803809F0B5CF809160
:10303000D402803208F071C0E091D40281E08E0F9A
:103040008093D4028091BB00F0E0EC54FD4F80836C
:103050003DC0803B39F0E0F4803A09F479C0883A09
:1030600009F09ACF84E0809338041092B302109252
:10307000B202E0913404F091350419958091B202C6
:1030800081110FC081E08093B2021092920209C0B8
:10309000803C09F4A6CF883C09F4A3CF883B09F013
:1030A0007BCFE091B30281E08E0F8093B302F0E01A
:1030B000EE56FD4F80818093BB009091B3028091CA
:1030C000B20229C08091EC038093BB0085EC809311
:1030D000BC0062CF90910E0480910D04981758F5B2
:1030E000E0910E0481E08E0F80930E04F0E0E35136
:1030F000FC4F8081E9CFE0910E0481E08E0F809338
:103100000E048091BB00F0E0E351FC4F808390916E
:103110000E0480910D049817C8F285E8D8CFE0918D
:103120000E0481E08E0F80930E048091BB00F0E0CE
:10313000E351FC4F80838091370481115CCF81E0A3
:103140008093360484EA8093BC001092380424CF24
:1031500085EC8093BC00109238048091D4028032B8
:1031600030F4E091D402F0E0EC54FD4F1082609115
:10317000D40270E0E0913204F091330484EB92E0E9
:1031800019951092D40208CF10920F0434CF1F92D9
:103190000F920FB60F9211240F900FBE0F901F9039
:1031A0001895C82F0E94ED0FD0E0D0939903C093DB
:1031B000980361E08AE00E94790461E08BE00E945C
:1031C000790460E08CE00E94790469D8FECF1F93F7
:1031D000CF93DF93EDE3F4E01382128288EE93E065
:1031E000A0E0B0E084839583A683B78322E132E038
:1031F0003183208345E351E05587448744E351E020
:103200005787468740E351E0518B408B41E351E0C3
:10321000538B428B42E351E0558B448B46E351E0A4
:10322000578B468B118E128E138E148EEAEDF4E0BE
:103230001382128284839583A683B783318320838C
:1032400045ED50E05587448744ED50E05787468769
:1032500040ED50E0518B408B41ED50E0538B428B61
:1032600042ED50E0558B448B46ED50E0578B468B3A
:10327000118E128E138E148EE7E7F5E01382128200
:1032800084839583A683B783318320834DEC50E0FC
:10329000558744874CEC50E05787468748EC50E010
:1032A000518B408B49EC50E0538B428B4AEC50E001
:1032B000558B448B4EEC50E0578B468B118E128E03
:1032C000138E148EE4E1F6E01382128284839583D8
:1032D000A683B7833183208325EC30E035872487AC
:1032E00024EC30E03787268720EC30E0318B208BD0
:1032F00021EC30E0338B228B22EC30E0358B248BB9
:1033000026EC30E0378B268B118E128E138E148EA6
:10331000E1EBF6E01382128284839583A683B78360
:1033200084E292E09183808310924607E7EEF6E014
:1033300081E0848383E0858312E0168388EE93E046
:1033400090933B0780933A07E2EEF6E014821382F3
:103350008AE4808388E08183128285E0A4ECB6E071
:1033600001900D928A95E1F7C4ECD6E080E090E000
:10337000AAE7B3E48A8B9B8BAC8BBD8B0E94A6041F
:103380001D831F821E820E945502EDEBF6E0118222
:1033900010821382128215821482DF91CF911F91C5
:1033A0000895CF93DF93CDB7DEB76A970FB6F89441
:1033B000DEBF0FBECDBF789484B5826084BD84B576
:1033C000816084BD85B5826085BD85B5816085BD20
:1033D00080916E00816080936E00109281008091D8
:1033E0008100826080938100809181008160809360
:1033F0008100809180008160809380008091B10085
:1034000084608093B1008091B00081608093B000AF
:103410008091910082608093910080919100816001
:1034200080939100809190008160809390008091C2
:10343000A10082608093A1008091A10081608093AF
:10344000A1008091A00081608093A0008091210163
:10345000826080932101809121018160809321010C
:103460008091200181608093200180917A008460A6
:1034700080937A0080917A00826080937A008091B4
:103480007A00816080937A0080917A0080688093CE
:103490007A001092C10068EE73E080E090E00E9434
:1034A000420582E390E0909397038093960383E62E
:1034B0008093C3060E94A60470E060E083EC96E06F
:1034C0000E94D50D60E086E30E94D60462E087E3A7
:1034D0000E94D60460E088E30E94D60461E089E09F
:1034E0000E94D60461E082E00E94D60461E08AE096
:1034F0000E94D60460E08AE00E94790461E08BE0DB
:103500000E94D60460E08BE00E94790461E08CE0C8
:103510000E94D60461E08CE00E94790460E082E1C0
:103520000E94D60461E08BE30E94D60461E08BE345
:103530000E94790461E088E00E94D60440E251EAEA
:1035400067E070E084E196E00E94D9018091CA06AC
:103550009091CB069093C8068093C7060E945502AF
:1035600080EE90E09093CD068093CC068AE999E9AD
:10357000A9E9BFE38093CE069093CF06A093D0062F
:10358000B093D10610E5E12EFF24F3940CE7D02E82
:10359000E09245070E94A604F0921004D0923104F4
:1035A00010923A04109239046091450770E0660F5A
:1035B000771F81EB96E00E94CA0980E00E943801E3
:1035C00063E08CE70E94970110923C0480933B04D7
:1035D00081EB96E00E9484098C0181EB96E00E94C9
:1035E00084099A83898381EB96E00E948409A4E090
:1035F000000F111FAA95E1F7007F1F7049815A81C2
:10360000B4E055954795BA95E1F74F705527042BCF
:10361000152B0A301105B1F064E472E084E196E004
:103620000E940A10A801110F660B770B20E184E1BC
:1036300096E00E94191061E472E084E196E00E9435
:103640000A10A6CF29813A81322F222722273F70E4
:10365000282B3A8329832031354069F063E672E0F4
:1036600084E196E00E940A10A981BA81AD01BB0FE6
:10367000660B770BDBCFF09246078091EC06823029
:1036800009F4CFC2833009F4CFC2813009F0CFC230
:1036900087E795E09093E8068093E70640E052ECD8
:1036A00061E070E08091E7069091E8060E94D90100
:1036B0008091ED06823078F08091040180668093DD
:1036C0000401809105018F7B8093050180910501A4
:1036D0008F7D809305018091E7069091E806DC01DB
:1036E000ED91FC910284F385E02D199597FFF3CFBE
:1036F0001092300710923107109239071092380754
:10370000109237071092360710923507109234073F
:103710000CE013E0E8EEF3E0FA83E98389819A8113
:103720000E94F40BD8018D939D938D01E981FA815C
:103730003496FA83E983E115F44081F70EEE12E046
:103740001A82198289819A810E94F40BD8018D9383
:103750009D938D01E981FA813496FA83E983749708
:1037600089F702E013E089819A810E94F40BD80165
:103770008D939D938D01E981FA813496FA83E983D3
:10378000B89789F788E290E00E94F40B9093610368
:10379000809360038CE290E00E94F40B90936303AB
:1037A0008093620380E390E00E94F40B90936F0398
:1037B00080936E0384E390E00E94F40B9093710376
:1037C0008093700388E390E00E94F40B90939D0334
:1037D00080939C038CE390E00E94F40B90939F03F2
:1037E00080939E0380E490E00E94F40B9093A103E9
:1037F0008093A00384E490E00E94F40B9093730301
:103800008093720388E490E00E94F40B9093BF03CE
:103810008093BE038CE490E00E94F40B9093C1036C
:103820008093C00380E590E00E94F40B90937503B1
:103830008093740302EA13E024E530E03A8329839D
:1038400089819A810E94F40BD8018D939D938D01FB
:10385000E981FA813496FA83E983E836F10581F744
:1038600088EC90E00E946C259A8F898F82599F4F37
:103870009A838983DC018D919C91E98DFA8DE855BD
:10388000FF4FFA8BE98BC080D180E280F380298DD5
:103890003A8D2C553F4F3C8B2B8BD9012D903D9071
:1038A0004D905C90E98DFA8DE056FF4FFE8BED8BCD
:1038B0006080718082809380298D3A8D24573F4F9C
:1038C000388F2F8BA98DBA8D5F963C932E935E9780
:1038D0009D0128573F4F5D963C932E935C97245C47
:1038E0003F4F91963C932E939097DA961C92DA97DD
:1038F000FD0112AA13AA14AA15AA40E050E06FE72E
:1039000073E4D6964D935D936D937C93D99744E67B
:1039100050E060E070E046A757A760AB71AB918FB5
:10392000808F20E030E0A901C401B30113D787FFE5
:1039300081C10E947305A98DBA8D9E960D911D912E
:103940002D913C91D197601B710B820B930BFD0164
:1039500062A373A384A395A382E391E1A0E8BBE3F0
:1039600084AF95AFA6AFB7AF8FE795E0ABE1B5EB0E
:10397000E05CFF4F80839183A283B383498C5A8C90
:10398000F6E44F0E511CD20114961C921E9213970E
:1039900088E48C9398E011969C93119712961C9250
:1039A000E98DFA8DE05AFF4F108211821282138244
:1039B000E98DFA8DEC5BFF4F8083E98DFA8DEB5B2F
:1039C000FF4FFE87ED8782E680838091C306E98DF5
:1039D000FA8DEC59FF4F8083E98DFA8DEB59FF4F3B
:1039E0001082118212821382298D3A8D27593F4FFE
:1039F000388B2F87D9011C92E981FA8111821082BC
:103A0000E98DFA8DE059FF4F1082118212821382E4
:103A10008CE291E0A0E0B0E0E98DFA8DE858FF4F2C
:103A200080839183A283B38380E090EFAFE7B5E416
:103A3000898C9A8CFCE78F0E911CF4018083918312
:103A4000A283B383E98DFA8DE857FF4F108211826C
:103A500012821382AF89B88D1D921D921D921C9205
:103A6000139780E090E0A0E8BEE3E98DFA8DEC5674
:103A7000FF4F80839183A283B38380E090E0AAEF1D
:103A8000B3E4E98DFA8DE856FF4F80839183A283DA
:103A9000B383E98DFA8DE456FF4F108211821282B2
:103AA0001382ED89FE891082118212821382AB8902
:103AB000BC891D921D921D921C921397E989FA8967
:103AC000108211821282138280E090E0A0E8BFE3AE
:103AD000E98DFA8DE455FF4F80839183A283B383F0
:103AE000E98DFA8DE055FF4F108211821282138208
:103AF0008AE097EDA3E2BCE3E98DFA8DEC54FF4F29
:103B000080839183A283B38384EA90E7ADE7BFE328
:103B1000E98DFA8DE854FF4F80839183A283B383AC
:103B2000298C3A8CFCEB2F0E311C80E090E0A8EC45
:103B3000B4E4F10180839183A283B383698C7A8C8E
:103B4000F0EC6F0E711C80E090E0AAE7B4E4F301A2
:103B500080839183A283B383E98DFA8DEC53FF4F69
:103B60001082118212821382A98DBA8D5A96AD905D
:103B7000BC905B97C12CD12C760197018601B701CF
:103B8000A601CD010E94370AF401C080D180E280F5
:103B9000F38020E030E0A901C701B601DBD518169B
:103BA0000CF080C0A98DBA8DD2961D921D921D92E7
:103BB0001C92D597FD01C6AAD7AAE0AEF1AE82ADA0
:103BC000882309F46FC0068D178DD8018D909D90C4
:103BD000AD90BC90A5019401C701B601BBD587FF8C
:103BE00045C0F801C082D182E282F382E98DFA8D6C
:103BF00086A097A0A0A4B1A4C6A8D7A8E0ACF1ACB9
:103C0000A7019601C501B401F4D618160CF03DC009
:103C1000A98DBA8D9696CD92DD92ED92FC929997F0
:103C200041C08AED94E036CD8DE394E033CD84E15C
:103C300096E030CD20E030E0A901C201B1018AD583
:103C400087FD77CE20E030E0A901C701B60182D51B
:103C500087FD6FCEAA24A394B12C92018101B401F7
:103C6000A301898D9A8D0E94370A63CE20E030E04F
:103C7000A901C501B4016ED587FFB8CFD8011D9247
:103C80001D921D921C921397B1CFE98DFA8DC2A897
:103C9000D3A8E4A8F5A8A7019601C501B4015AD597
:103CA00087FDB6CFE98DFA8D66A577A580A991A984
:103CB000EED59B01AC0160E070E080EA90E44ED567
:103CC0006B017C01AC019B01A98DBA8D50966D9161
:103CD0007D918D919C91539790D6E98DFA8D608B53
:103CE000718B828B938BA701960164897589868974
:103CF000978934D5A98DBA8D54966D937D938D9304
:103D00009C93579785E090E0A0E0B0E0E98DFA8DB4
:103D100086A797A7A0ABB1AB0E94A604E98DFA8D48
:103D2000E55BFF4FAD85BE858C9180830E94A60424
:103D3000F201148213826FEF7FE0898D9A8D855B8B
:103D40009F4F0E94D50D298D3A8D245B3F4FF10185
:103D500080819181A281B381F90180839183A283C3
:103D6000B383298D3A8D205B3F4FF3018081918190
:103D7000A281B381F90180839183A283B383298DCA
:103D80003A8D3093DF022093DE02AF85B8891C9212
:103D90008091BF069091C0062091BD063091BE066D
:103DA00082179307F9F47C01EE0CFF1C892B09F4B0
:103DB000C5C1C7019093C0068093BF06880F991FA5
:103DC0008BD69A8389830091C1061091C206A70100
:103DD000B801A7D7C8011CD7E981FA81F093C206C0
:103DE000E093C106A091C106B091C2068091BD06C4
:103DF0009091BE069C012F5F3F4F3093BE062093EB
:103E0000BD062091DE023091DF02880F991FFD016F
:103E1000E80FF91F318320832D913C913A83298348
:103E2000F901E659FF4F11821082609110037091E1
:103E3000110390E080E02BD520E030E048EC52E424
:103E40008DD46B017C0160910E0370910F0390E0A3
:103E500080E01DD520E030E048EC52E47FD42B0117
:103E60003C0160910C0370910D0390E080E00FD550
:103E700020E030E048EC52E471D4AB01BC01E981B0
:103E8000FA81E056FF4F4083518362837383E98157
:103E9000FA81EC55FF4F4082518262827382E98140
:103EA000FA81E855FF4FC082D182E282F382A98174
:103EB000BA815A96AD90BC905B9793018201CD0177
:103EC0000E94370AE091C106F091C206208131813B
:103ED0003A832983890104551F4F60911203709121
:103EE000130390E080E0D3D420E030E04AE754E4CC
:103EF00035D4D8016D937D938D939C93139709814D
:103F00001A8100551F4F609114037091150390E0C2
:103F100080E0BDD420E030E040E251E41FD4F8015D
:103F2000608371838283938360911603709117037A
:103F300090E080E0ACD4E981FA81E454FF4F6083E3
:103F4000718382839383E981FA81E45BFF4F60830D
:103F500071838283938329813A8120583F4F3A832A
:103F60002983609174037091750390E080E08FD491
:103F700020E030E040E251E4F1D3A981BA816D93B1
:103F80007D938D939C93139761E088E00E94790460
:103F90000E94F30A882309F48FC08091E002909177
:103FA000E102009709F0CDC01092790310927803D6
:103FB0000E944F11609160037091610390E080E076
:103FC00066D420E030E040E251E4C8D3AB01BC014C
:103FD000E091C106F091C206808191810E948B0B15
:103FE0000E94FD0A0E94090E0E94F8140E94820B92
:103FF0006093EA027093EB028093EC029093ED02DF
:10400000E091C106F091C2060190F081E02DE857E1
:10401000FF4F80819181A281B3818093E6029093CA
:10402000E702A093E802B093E9020E94820BC090DD
:10403000E202D090E302E090E402F090E502A701F2
:10404000960123D34B015C0160916E0370916F0365
:1040500090E080E01CD420E030E040E251E47ED3E8
:104060009B01AC01C501B401C4D418160CF4E8C01E
:104070000E94820BA701960108D320E030E0A9013D
:1040800069D387FF15C0A701960160E070E080E862
:104090009FE4FBD29B01AC0160E070E0CB01F5D264
:1040A0006093E2027093E3028093E4029093E5024E
:1040B0000E94F30A81113BC060E082E00E94790413
:1040C0000E944F110E94ED0F0E94F8148091780316
:1040D000909179039093E1028093E0020E94820B19
:1040E0006093E2027093E3028093E4029093E5020E
:1040F0000E94820B6093EA027093EB028093EC02C1
:104100009093ED02E091C106F091C2060190F0811A
:10411000E02DE857FF4F80819181A281B381809388
:10412000E6029093E702A093E802B093E90260E010
:1041300088E00E9479040E94C90326CF81E090E0C4
:1041400039CE90937903809378030E944F110E9497
:10415000820B2091EA023091EB024091EC025091E7
:10416000ED0293D26B017C01609102037091030315
:1041700090E080E08CD320E030E040E251E4EED2E9
:104180008B018D87998320E030E0A901C701B6013A
:1041900030D418160CF459C06091040370910503D3
:1041A00090E080E074D320E030E040E251E4D6D2E9
:1041B0002B015C019B01AC01B8018D85998166D210
:1041C0003B014C0198014D855981C701B60111D4BD
:1041D00018160CF058C19301A401C701B601BAD258
:1041E00018160CF450C16091F0027091F10290E049
:1041F00080E04DD320E030E040E251E4AFD26B8369
:104200007C838D839E836091EE027091EF0290E03B
:1042100080E03DD320E030E040E251E49FD26F8364
:10422000788789879A87E091A403F091A503FC879A
:10423000EB8738018D8499808201AD86B98234C0C4
:10424000109277031092760333CF98014D855981F0
:10425000C701B6017FD218160CF49ECF6091EE0212
:104260007091EF0290E080E012D320E030E040E275
:1042700051E474D26B837C838D839E838091E602AC
:104280009091E702A091E802B091E9028F839887AC
:10429000A987BA87A091A203B091A303BC87AB877B
:1042A000612C712C812C912CE091C106F091C206F9
:1042B000A080B180EB85FC85319709F0BAC12F81D0
:1042C000388549855A856B817C818D819E81DDD1C0
:1042D00098014D85598142D21B012C019301A40103
:1042E000C701B601D2D19B01AC01C201B10185D396
:1042F0002F81388549855A85C9D1AB01BC01C501DB
:104300000E948B0BE091C106F091C2060190F081F2
:10431000E02DEC53FF4F20E030E040E251E46081BB
:1043200071818281938169D386D270936103609396
:1043300060030E94FD0A61E082E00E9479040E940D
:10434000090E0E94F8140E94820B6093E20270939F
:10435000E3028093E4029093E5026091020370917E
:10436000030390E080E093D220E030E040E251E4AB
:10437000F5D16B017C01609104037091050390E01D
:1043800080E085D220E030E040E251E4E7D19B01BB
:10439000AC01C701B6017AD16B017C0160910603C3
:1043A0007091070390E080E072D220E030E040E2BC
:1043B00051E4D4D19B01AC01C701B60167D16B01B7
:1043C0007C01609108037091090390E080E05FD266
:1043D00020E030E040E251E4C1D19B01AC01C701D3
:1043E000B60154D16B017C0160910A0370910B03FB
:1043F00090E080E04CD220E030E040E251E4AED1E9
:104400009B01AC01C701B60141D110D22B013C0187
:104410000E94820BC090EA02D090EB02E090EC0286
:10442000F090ED02A701960130D14B015C01C30170
:10443000B2012FD29B01AC01C501B401DAD218162A
:104440000CF4FECE0E94820BA70196011ED120E043
:1044500030E0A9017FD187FF2BCEA701960160E054
:1044600070E080E89FE411D19B01AC0160E070E056
:10447000CB010BD16093EA027093EB028093EC02C4
:104480009093ED0215CE609106037091070390E0C2
:1044900080E0FDD120E030E040E251E45FD18B01CB
:1044A0008D8799839B01AC01B301C401EFD02B012F
:1044B0005C019301A401C701B6019BD2181674F5E3
:1044C0009201A501C701B60145D118163CF16091D2
:1044D000F2027091F30290E080E0D9D120E030E068
:1044E00040E251E43BD16B837C838D839E8360915A
:1044F000F0027091F10290E080E0C9D120E030E05C
:1045000040E251E42BD16F83788789879A87209185
:10451000A6033091A7033C872B87C6CE6091080382
:104520007091090390E080E0B2D120E030E040E2F9
:1045300051E414D18B018D8799839B01AC01B201A9
:10454000C501A4D03B014C019201A501C701B601F0
:1045500050D2181684F59301A401C701B601FAD010
:1045600018164CF16091F4027091F50290E080E031
:104570008ED120E030E040E251E4F0D06B837C83C8
:104580008D839E836091F2027091F30290E080E04F
:104590007ED120E030E040E251E4E0D06F837887C4
:1045A00089879A878091A8039091A9039C878B871C
:1045B0003201450179CE9301A401C701B60119D298
:1045C00018160CF071CE6091F6027091F70290E02F
:1045D00080E05DD120E030E040E251E4BFD06B8369
:1045E0007C838D839E836091F4027091F50290E04C
:1045F00080E04DD120E030E040E251E4AFD06F8365
:10460000788789879A87A091AA03B091AB03BC876A
:10461000AB8760910A0370910B0390E080E037D183
:1046200020E030E040E251E499D08B018D879983FE
:104630003BCE4B815C816D817E8161CE8091C106D4
:104640009091C206E5C2A1E21A2EAA1BBB1BFD0176
:104650000DC0AA1FBB1FEE1FFF1FA217B307E40761
:10466000F50720F0A21BB30BE40BF50B661F771FB9
:10467000881F991F1A9469F7609570958095909599
:104680009B01AC01BD01CF0108955058BB27AA275B
:104690000ED075C166D130F06BD120F031F49F3F60
:1046A00011F41EF45BC10EF4E095E7FB51C1E92F54
:1046B00077D180F3BA17620773078407950718F05C
:1046C00071F49EF58FC10EF4E0950B2EBA2FA02D3C
:1046D0000B01B90190010C01CA01A0011124FF27AF
:1046E000591B99F0593F50F4503E68F11A16F040AA
:1046F000A22F232F342F4427585FF3CF46953795A9
:104700002795A795F0405395C9F77EF41F16BA0B6D
:10471000620B730B840BBAF09150A1F0FF0FBB1F1B
:10472000661F771F881FC2F70EC0BA0F621F731F64
:10473000841F48F4879577956795B795F7959E3FC1
:1047400008F0B3CF9395880F08F09927EE0F97954F
:1047500087950895D9D008F481E008950CD00FC151
:1047600007D140F0FED030F021F45F3F19F0F0C0E7
:10477000511139C1F3C014D198F39923C9F35523CA
:10478000B1F3951B550BBB27AA2762177307840744
:1047900038F09F5F5F4F220F331F441FAA1FA9F3FA
:1047A00033D00E2E3AF0E0E830D091505040E695EC
:1047B000001CCAF729D0FE2F27D0660F771F881F4D
:1047C000BB1F261737074807AB07B0E809F0BB0B3C
:1047D000802DBF01FF2793585F4F2AF09E3F510560
:1047E00068F0B6C000C15F3FECF3983EDCF38695FD
:1047F00077956795B795F7959F5FC9F7880F911DD6
:104800009695879597F90895E1E0660F771F881FC1
:10481000BB1F621773078407BA0720F0621B730B74
:10482000840BBA0BEE1F88F7E095089504D06894C6
:10483000B111D9C00895BCD088F09F5790F0B92F1E
:104840009927B751A0F0D1F0660F771F881F991FE5
:104850001AF0BA95C9F712C0B13081F0C3D0B1E0F7
:104860000895C0C0672F782F8827B85F39F0B93F07
:10487000CCF3869577956795B395D9F73EF49095E7
:104880008095709561957F4F8F4F9F4F0895E89465
:1048900009C097FB3EF490958095709561957F4F88
:1048A0008F4F9F4F9923A9F0F92F96E9BB27939536
:1048B000F695879577956795B795F111F8CFFAF446
:1048C000BB0F11F460FF1BC06F5F7F4F8F4F9F4F77
:1048D00016C0882311F096E911C0772321F09EE8D5
:1048E000872F762F05C0662371F096E8862F70E03B
:1048F00060E02AF09A95660F771F881FDAF7880F15
:104900009695879597F90895990F0008550FAA0B6A
:10491000E0E8FEEF16161706E807F907C0F01216D2
:104920001306E407F50798F0621B730B840B950BD5
:1049300039F40A2661F0232B242B252B21F408952A
:104940000A2609F4A140A6958FEF811D811D0895C7
:1049500097F99F6780E870E060E008959FEF80EC32
:10496000089500240A9416161706180609060895D5
:1049700000240A9412161306140605060895092E3B
:104980000394000C11F4882352F0BB0F40F4BF2BAA
:1049900011F460FF04C06F5F7F4F8F4F9F4F0895EA
:1049A00057FD9058440F551F59F05F3F71F04795E0
:1049B000880F97FB991F61F09F3F79F087950895C5
:1049C000121613061406551FF2CF4695F1DF08C0E4
:1049D000161617061806991FF1CF86957105610501
:1049E00008940895E894BB2766277727CB0197F9A9
:1049F00008958ADF08F48FEF08950BD0C0CFB1DFA0
:104A000028F0B6DF18F0952309F0A2CFA7CF112424
:104A1000EACFC6DFA0F3959FD1F3950F50E0551F65
:104A2000629FF001729FBB27F00DB11D639FAA2703
:104A3000F00DB11DAA1F649F6627B00DA11D661F52
:104A4000829F2227B00DA11D621F739FB00DA11D73
:104A5000621F839FA00D611D221F749F3327A00D2D
:104A6000611D231F849F600D211D822F762F6A2FC9
:104A700011249F5750408AF0E1F088234AF0EE0F4E
:104A8000FF1FBB1F661F771F881F91505040A9F75B
:104A90009E3F510570F05CCFA6CF5F3FECF3983E90
:104AA000DCF3869577956795B795F795E7959F5FC2
:104AB000C1F7FE2B880F911D9695879597F908955C
:104AC00023DF880B990B0895EE0FFF1F881F8BBF04
:104AD0000790F691E02D19940F931F93CF93DF93D6
:104AE0008230910510F482E090E0E0914907F09166
:104AF0004A0730E020E0B0E0A0E0309799F42115BB
:104B0000310509F44AC0281B390B24303105D8F58A
:104B10008A819B816115710589F1FB0193838283F1
:104B2000FE0111C04081518102811381481759074C
:104B3000E0F04817590799F4109761F012960C931A
:104B4000129713961C933296CF01DF91CF911F914C
:104B50000F9108950093490710934A07F4CF211548
:104B6000310551F04217530738F0A901DB019A01D2
:104B7000BD01DF01F801C1CFEF01F9CF90934A07E2
:104B800080934907CDCFFE01E20FF31F81939193EC
:104B90002250310939832883D7CF2091470730919C
:104BA0004807232B41F420910202309103023093F5
:104BB00048072093470720910002309101022115F8
:104BC000310541F42DB73EB74091040250910502E2
:104BD000241B350BE0914707F0914807E217F307D4
:104BE000A0F42E1B3F0B2817390778F0AC014E5F5D
:104BF0005F4F2417350748F04E0F5F1F509348074B
:104C000040934707819391939FCFF0E0E0E09CCFE2
:104C1000CF93DF930097E9F0FC0132971382128261
:104C2000A0914907B0914A07ED0130E020E01097CC
:104C3000A1F420813181820F931F20914707309189
:104C400048072817390709F061C0F0934807E09337
:104C50004707DF91CF910895EA01CE17DF07E8F506
:104C60004A815B819E0141155105B1F7E901FB8342
:104C7000EA8349915991C40FD51FEC17FD0761F4E0
:104C8000808191810296840F951FE9019983888321
:104C9000828193819B838A83F0E0E0E012968D917C
:104CA0009C9113970097B9F52D913C911197CD01E7
:104CB0000296820F931F20914707309148072817CB
:104CC000390739F6309751F510924A071092490783
:104CD000B0934807A0934707BCCFD383C2834081DA
:104CE0005181840F951FC817D90761F44E5F5F4F3C
:104CF00088819981480F591F518340838A819B8104
:104D0000938382832115310509F0B0CFF0934A07D0
:104D1000E09349079ECFFD01DC01C0CF13821282D0
:104D2000D7CFFB01DC0102C001900D9241505040F1
:104D3000D8F7089511E0C3E0D1E000E005C0802F6E
:104D4000FE01C2DE2196011DC430D10780E00807B4
:064D5000B1F7F894FFCF5B
:104D560000004B0780000102030405060F10000047
:104D660000005E039502DB02AA030C03EA02FE02C0
:104D760000000000CA099E09F00A7409970984090F
:104D860075096E616E00696E66006F7666002C208E
:104D9600000D0A00556E6578706563746564204D74
:104DA600616E7566616374757265722049443A2056
:104DB600307800556E65787065637465642050724E
:0E4DC6006F647563742049443A203078000011
:00000001FF
